{"contracts/RegistrationUpgradeable.sol":{"RegistrationUpgradeable":{"abi":[{"inputs":[{"internalType":"address","name":"target","type":"address"}],"name":"AddressEmptyCode","type":"error"},{"inputs":[{"internalType":"address","name":"implementation","type":"address"}],"name":"ERC1967InvalidImplementation","type":"error"},{"inputs":[],"name":"ERC1967NonPayable","type":"error"},{"inputs":[],"name":"FailedCall","type":"error"},{"inputs":[],"name":"InvalidInitialization","type":"error"},{"inputs":[],"name":"NotInitializing","type":"error"},{"inputs":[{"internalType":"address","name":"owner","type":"address"}],"name":"OwnableInvalidOwner","type":"error"},{"inputs":[{"internalType":"address","name":"account","type":"address"}],"name":"OwnableUnauthorizedAccount","type":"error"},{"inputs":[],"name":"UUPSUnauthorizedCallContext","type":"error"},{"inputs":[{"internalType":"bytes32","name":"slot","type":"bytes32"}],"name":"UUPSUnsupportedProxiableUUID","type":"error"},{"anonymous":false,"inputs":[{"indexed":false,"internalType":"address","name":"user","type":"address"}],"name":"AddedToRandomList","type":"event"},{"anonymous":false,"inputs":[{"indexed":false,"internalType":"uint64","name":"version","type":"uint64"}],"name":"Initialized","type":"event"},{"anonymous":false,"inputs":[{"indexed":true,"internalType":"address","name":"previousOwner","type":"address"},{"indexed":true,"internalType":"address","name":"newOwner","type":"address"}],"name":"OwnershipTransferred","type":"event"},{"anonymous":false,"inputs":[{"indexed":false,"internalType":"address","name":"by","type":"address"},{"indexed":false,"internalType":"address","name":"to","type":"address"},{"indexed":false,"internalType":"address","name":"user","type":"address"}],"name":"ParentAdded","type":"event"},{"anonymous":false,"inputs":[{"indexed":false,"internalType":"address","name":"to","type":"address"},{"indexed":false,"internalType":"address","name":"user","type":"address"},{"indexed":false,"internalType":"uint256","name":"valueInWei","type":"uint256"},{"indexed":false,"internalType":"uint32","name":"level","type":"uint32"}],"name":"ReferralRewardsPaid","type":"event"},{"anonymous":false,"inputs":[{"indexed":false,"internalType":"address","name":"by","type":"address"},{"indexed":false,"internalType":"address","name":"user","type":"address"}],"name":"ReferrerAdded","type":"event"},{"anonymous":false,"inputs":[{"indexed":false,"internalType":"string","name":"reason","type":"string"}],"name":"ReferrerNoAdded","type":"event"},{"anonymous":false,"inputs":[{"indexed":false,"internalType":"address","name":"by","type":"address"},{"indexed":false,"internalType":"address","name":"to","type":"address"},{"indexed":false,"internalType":"address","name":"user","type":"address"},{"indexed":false,"internalType":"uint256","name":"valueInWei","type":"uint256"}],"name":"Registration","type":"event"},{"anonymous":false,"inputs":[{"indexed":false,"internalType":"address","name":"by","type":"address"},{"indexed":false,"internalType":"address","name":"to","type":"address"},{"indexed":false,"internalType":"address","name":"user","type":"address"}],"name":"RegistrationAssigned","type":"event"},{"anonymous":false,"inputs":[{"indexed":false,"internalType":"address","name":"user","type":"address"}],"name":"RemovedFromRandomList","type":"event"},{"anonymous":false,"inputs":[{"indexed":false,"internalType":"address","name":"to","type":"address"},{"indexed":false,"internalType":"address","name":"user","type":"address"},{"indexed":false,"internalType":"uint32","name":"level","type":"uint32"}],"name":"TeamAddressAdded","type":"event"},{"anonymous":false,"inputs":[{"indexed":false,"internalType":"address","name":"to","type":"address"},{"indexed":false,"internalType":"uint256","name":"valueInWei","type":"uint256"}],"name":"TeamWalletRewardPaid","type":"event"},{"anonymous":false,"inputs":[{"indexed":false,"internalType":"string","name":"reason","type":"string"}],"name":"UpgradeRewardNotPaid","type":"event"},{"anonymous":false,"inputs":[{"indexed":false,"internalType":"address","name":"to","type":"address"},{"indexed":false,"internalType":"address","name":"by","type":"address"},{"indexed":false,"internalType":"uint256","name":"valueInWei","type":"uint256"}],"name":"UpgradeRewardPaid","type":"event"},{"anonymous":false,"inputs":[{"indexed":true,"internalType":"address","name":"implementation","type":"address"}],"name":"Upgraded","type":"event"},{"anonymous":false,"inputs":[{"indexed":false,"internalType":"string","name":"reason","type":"string"}],"name":"WeeklyRewardNotPaid","type":"event"},{"anonymous":false,"inputs":[{"indexed":false,"internalType":"address","name":"to","type":"address"},{"indexed":false,"internalType":"uint256","name":"valueInWei","type":"uint256"}],"name":"WeeklyRewardPaid","type":"event"},{"inputs":[],"name":"UPGRADE_INTERFACE_VERSION","outputs":[{"internalType":"string","name":"","type":"string"}],"stateMutability":"view","type":"function"},{"inputs":[{"internalType":"address","name":"_chainLinkOracleAddress","type":"address"}],"name":"checkIfChainLinkOracleAddressSupporeted","outputs":[{"internalType":"bool","name":"","type":"bool"}],"stateMutability":"view","type":"function"},{"inputs":[{"internalType":"address","name":"_chainLinkOracleAddress","type":"address"}],"name":"distributeWeeklyReward","outputs":[],"stateMutability":"nonpayable","type":"function"},{"inputs":[],"name":"getAllUsers","outputs":[{"internalType":"address[]","name":"","type":"address[]"}],"stateMutability":"view","type":"function"},{"inputs":[],"name":"getContractDefaults","outputs":[{"internalType":"address","name":"teamWallet","type":"address"},{"internalType":"uint256","name":"teamWalletRate","type":"uint256"},{"internalType":"address","name":"liquidityWallet","type":"address"},{"internalType":"uint256","name":"liquidityCreationrate","type":"uint256"},{"internalType":"address","name":"defaultReferrer","type":"address"},{"internalType":"uint256","name":"registrationValueInUSD","type":"uint256"}],"stateMutability":"view","type":"function"},{"inputs":[{"internalType":"address","name":"_chainLinkOracleAddress","type":"address"}],"name":"getNativePriceInUSD","outputs":[{"internalType":"uint256","name":"","type":"uint256"}],"stateMutability":"view","type":"function"},{"inputs":[],"name":"getRandomUserList","outputs":[{"internalType":"address[]","name":"","type":"address[]"}],"stateMutability":"view","type":"function"},{"inputs":[],"name":"getRegistrationsStats","outputs":[{"internalType":"uint32","name":"totalUser","type":"uint32"},{"internalType":"uint256","name":"totalRegistrationValueInUSD","type":"uint256"},{"internalType":"uint256","name":"totalReferralPaidInUSD","type":"uint256"},{"internalType":"uint256","name":"totalWeeklyRewardsPaidInUSD","type":"uint256"}],"stateMutability":"view","type":"function"},{"inputs":[],"name":"getSupportedChainLinkOracleAddress","outputs":[{"internalType":"address[]","name":"","type":"address[]"}],"stateMutability":"view","type":"function"},{"inputs":[],"name":"getUpgradePlans","outputs":[{"components":[{"internalType":"uint8","name":"id","type":"uint8"},{"internalType":"uint256","name":"valueToUpgradeInUSD","type":"uint256"}],"internalType":"struct UpgradeStruct[]","name":"upgradePlans","type":"tuple[]"},{"internalType":"uint8","name":"upgradePlansCount","type":"uint8"}],"stateMutability":"view","type":"function"},{"inputs":[{"internalType":"uint8","name":"_id","type":"uint8"}],"name":"getUpgradePlansById","outputs":[{"components":[{"internalType":"uint8","name":"id","type":"uint8"},{"internalType":"uint256","name":"valueToUpgradeInUSD","type":"uint256"}],"internalType":"struct UpgradeStruct","name":"","type":"tuple"}],"stateMutability":"view","type":"function"},{"inputs":[{"internalType":"address","name":"_userAddress","type":"address"}],"name":"getUserAccount","outputs":[{"components":[{"internalType":"address","name":"self","type":"address"},{"internalType":"address","name":"parent","type":"address"},{"internalType":"address","name":"referrer","type":"address"},{"internalType":"address[]","name":"referee","type":"address[]"},{"components":[{"internalType":"address","name":"referee","type":"address"},{"internalType":"address","name":"assignedTo","type":"address"}],"internalType":"struct RefereeStruct[]","name":"refereeAssigned","type":"tuple[]"},{"components":[{"internalType":"address","name":"teamMember","type":"address"},{"internalType":"uint8","name":"level","type":"uint8"}],"internalType":"struct TeamStruct[]","name":"team","type":"tuple[]"},{"internalType":"uint256","name":"selfBusinessInUSD","type":"uint256"},{"internalType":"uint256","name":"upgradedValueInUSD","type":"uint256"},{"internalType":"uint8","name":"upgradeId","type":"uint8"},{"internalType":"uint256","name":"directBusinessInUSD","type":"uint256"},{"internalType":"uint256","name":"teamBusinessInUSD","type":"uint256"},{"internalType":"uint256","name":"referralRewardsInUSD","type":"uint256"},{"internalType":"uint256","name":"weeklyRewardsInUSD","type":"uint256"},{"internalType":"uint256","name":"upgradeRewardsInUSD","type":"uint256"},{"internalType":"uint256","name":"userRandomIndex","type":"uint256"},{"internalType":"uint256","name":"timestampJoined","type":"uint256"}],"internalType":"struct AccountStruct","name":"","type":"tuple"}],"stateMutability":"view","type":"function"},{"inputs":[{"internalType":"address","name":"_userAddress","type":"address"}],"name":"getUserBusiness","outputs":[{"internalType":"uint256","name":"selfBusinessInUSD","type":"uint256"},{"internalType":"uint256","name":"directBusinessInUSD","type":"uint256"},{"internalType":"uint256","name":"teamBusinessInUSD","type":"uint256"},{"internalType":"uint256","name":"totalBusinessInUSD","type":"uint256"}],"stateMutability":"view","type":"function"},{"inputs":[{"internalType":"address","name":"_userAddress","type":"address"}],"name":"getUserCurrentUpgradeLevel","outputs":[{"internalType":"uint8","name":"level","type":"uint8"},{"internalType":"uint256","name":"totalUpgradeValueInUSD","type":"uint256"}],"stateMutability":"view","type":"function"},{"inputs":[{"internalType":"address","name":"_userAddress","type":"address"}],"name":"getUserRewards","outputs":[{"internalType":"uint256","name":"referralRewardInUSD","type":"uint256"},{"internalType":"uint256","name":"weeklyRewardInUSD","type":"uint256"},{"internalType":"uint256","name":"upgradeRewardsInUSD","type":"uint256"},{"internalType":"uint256","name":"totalRewards","type":"uint256"}],"stateMutability":"view","type":"function"},{"inputs":[{"internalType":"address","name":"_userAddress","type":"address"}],"name":"getUserTeam","outputs":[{"internalType":"address","name":"referrer","type":"address"},{"internalType":"address[]","name":"referees","type":"address[]"},{"internalType":"uint256","name":"refereeCount","type":"uint256"},{"components":[{"internalType":"address","name":"referee","type":"address"},{"internalType":"address","name":"assignedTo","type":"address"}],"internalType":"struct RefereeStruct[]","name":"refereeAssigned","type":"tuple[]"},{"internalType":"uint256","name":"refereeAssignedCount","type":"uint256"},{"components":[{"internalType":"address","name":"teamMember","type":"address"},{"internalType":"uint8","name":"level","type":"uint8"}],"internalType":"struct TeamStruct[]","name":"team","type":"tuple[]"},{"internalType":"uint256","name":"teamCount","type":"uint256"}],"stateMutability":"view","type":"function"},{"inputs":[],"name":"getWeeklyRewardToBeDistributed","outputs":[{"internalType":"uint256","name":"_rewardValue","type":"uint256"},{"internalType":"uint256","name":"_remianingTime","type":"uint256"},{"internalType":"uint256","name":"_endTime","type":"uint256"}],"stateMutability":"view","type":"function"},{"inputs":[],"name":"initialize","outputs":[],"stateMutability":"nonpayable","type":"function"},{"inputs":[{"internalType":"address","name":"_chainLinkOracleAddress","type":"address"}],"name":"needNativeToRegister","outputs":[{"internalType":"uint256","name":"","type":"uint256"}],"stateMutability":"view","type":"function"},{"inputs":[],"name":"owner","outputs":[{"internalType":"address","name":"","type":"address"}],"stateMutability":"view","type":"function"},{"inputs":[],"name":"proxiableUUID","outputs":[{"internalType":"bytes32","name":"","type":"bytes32"}],"stateMutability":"view","type":"function"},{"inputs":[{"internalType":"address","name":"_referrer","type":"address"},{"internalType":"address","name":"_chainLinkOracleAddress","type":"address"}],"name":"registrationNative","outputs":[],"stateMutability":"payable","type":"function"},{"inputs":[],"name":"renounceOwnership","outputs":[],"stateMutability":"nonpayable","type":"function"},{"inputs":[{"internalType":"address","name":"_chainLinkOracleAddress","type":"address"},{"internalType":"bool","name":"_status","type":"bool"}],"name":"setChainLinkOracleAddress","outputs":[],"stateMutability":"nonpayable","type":"function"},{"inputs":[{"internalType":"address","name":"newOwner","type":"address"}],"name":"transferOwnership","outputs":[],"stateMutability":"nonpayable","type":"function"},{"inputs":[{"internalType":"address","name":"_chainLinkOracleAddress","type":"address"}],"name":"upgradeAccountNative","outputs":[],"stateMutability":"payable","type":"function"},{"inputs":[{"internalType":"address","name":"newImplementation","type":"address"},{"internalType":"bytes","name":"data","type":"bytes"}],"name":"upgradeToAndCall","outputs":[],"stateMutability":"payable","type":"function"},{"stateMutability":"payable","type":"receive"}],"evm":{"bytecode":{"linkReferences":{},"object":"60a0806040523460295730608052613563908161002f823960805181818161264401526127170152f35b600080fdfe608080604052600436101561001d575b50361561001b57600080fd5b005b60003560e01c9081630690c6a814612c6557508063078b0fb714612a7557806307c560d11461299957806308e922ba1461297d57806311f4d5761461293e5780631a746344146128db5780634f1ef2861461269b57806352d1902d1461263157806359a04544146124c45780635eda81ce146122af5780636a74631114612289578063715018a6146122315780637ec37e03146121ce5780638129fc1c14611d25578063846688f714611cc45780638da5cb5b14611c8e578063a0db38e514611917578063a9df9fae146118aa578063ad3cb1cc1461182e578063c53b219e14610db0578063d277b8a914610b83578063e2842d7914610b53578063f2fde38b14610b2a578063f87127b41461091b578063f92501711461071d578063faeda7e5146104d15763fb47e01614610153573861000f565b346104cc5760203660031901126104cc5761016c612ca0565b60006101e060405161017d81612cf3565b82815282602082015282604082015260608082015260606080820152606060a08201528260c08201528260e08201528261010082015282610120820152826101408201528261016082015282610180820152826101a0820152826101c0820152015260018060a01b03166000526012602052604060002060405161020081612cf3565b81546001600160a01b03908116825260018301548116602083019081526002840154909116604083019081529092909161023c60038301612ea9565b6060820190815260048301805461025281612efd565b916102606040519384612d2a565b818352602083019060005260206000206000915b8383106104915750505050608083019081526005840191825461029681612efd565b936102a46040519586612d2a565b818552602085019060005260206000206000915b83831061045b575050505060a08401928352600685015460c0850152600785015460e08501908152600886015460ff166101008601526009860154610120860152600a860154610140860152600b860154610160860152600c860154610180860152600d8601546101a0860152600e8601546101c0860152600f909501546101e085015260408051602080825286516001600160a01b039081168284015299518a16928201929092529651909716606087015251610200608087015280516102208701819052610240870197919091019060005b81811061043c575050506101e092916103b686976103c99351601f198983030160a08a0152612d68565b9051868203601f190160c0880152612db4565b9260c082015160e08601525161010085015260ff610100820151166101208501526101208101516101408501526101408101516101608501526101608101516101808501526101808101516101a08501526101a08101516101c08501526101c08101518285015201516102008301520390f35b82516001600160a01b031689526020988901989092019160010161038c565b60016020819260405161046d81612d0f565b60ff8654858060a01b038116835260a01c16838201528152019201920191906102b8565b600260206001926040516104a481612d0f565b848060a01b038654168152848060a01b03858701541683820152815201920192019190610274565b600080fd5b346104cc5760203660031901126104cc576001600160a01b036104f2612ca0565b16600052601260205260406000206040519061050d82612cf3565b80546001600160a01b039081168352600182015481166020840152600282015416604083019081529061054260038201612ea9565b91606084019283526004820193845461055a81612efd565b956105686040519788612d2a565b818752602087019060005260206000206000915b8383106106e25750505050608081019485526005830192835461059e81612efd565b946105ac6040519687612d2a565b818652602086019060005260206000206000915b8383106106ac5750505050906101e0600f6106a294938660a0850152600681015460c0850152600781015460e085015260ff6008820154166101008501526009810154610120850152600a810154610140850152600b810154610160850152600c810154610180850152600d8101546101a0850152600e8101546101c0850152015491015260018060a01b03905116925193845190519261068f84519282519561067c604051998a998a5260e060208b015260e08a0190612cb6565b9160408901528782036060890152612d68565b91608086015284820360a0860152612db4565b9060c08301520390f35b6001602081926040516106be81612d0f565b60ff8654858060a01b038116835260a01c16838201528152019201920191906105c0565b600260206001926040516106f581612d0f565b848060a01b038654168152848060a01b0385870154168382015281520192019201919061057c565b346104cc5760203660031901126104cc57610736612ca0565b6001600160a01b0316600090815260126020526040808220905190919061075c81612cf3565b82546001600160a01b039081168252600184015481166020830152600284015416604082015261078e60038401612ea9565b60608201526004830180546107a281612efd565b916107b06040519384612d2a565b818352602083019060005260206000206000915b8383106108e057505050506080820152600583019283546107e481612efd565b906107f26040519283612d2a565b80825260208201956000526020600020956000905b8282106108aa575050506040945060a0830152600681015460c08301526007810154918260e08201526101e0600f60ff60088501541693846101008501526009810154610120850152600a810154610140850152600b810154610160850152600c810154610180850152600d8101546101a0850152600e8101546101c08501520154910152806108a2575b5060ff8351921682526020820152f35b915083610892565b6001602081926040516108bc81612d0f565b60ff8c54858060a01b038116835260a01c1683820152815201980191019096610807565b600260206001926040516108f381612d0f565b848060a01b038654168152848060a01b038587015416838201528152019201920191906107c4565b346104cc5760203660031901126104cc576001600160a01b0361093c612ca0565b16600052601260205260406000206040519061095782612cf3565b80546001600160a01b039081168352600182015481166020840152600282015416604083015261098960038201612ea9565b606083015260048101805461099d81612efd565b916109ab6040519384612d2a565b818352602083019060005260206000206000915b838310610aef575050505060808301526005810180546109de81612efd565b916109ec6040519384612d2a565b818352602083019060005260206000206000915b838310610ab9575050505060a0830152610ab56006820154918260c0850152600781015460e085015260ff600882015416610100850152600981015493846101208201526101e0600f600a8401549384610140850152600b810154610160850152600c810154610180850152600d8101546101a0850152600e8101546101c08501520154910152610a918382612f14565b90604051948594859094939260609260808301968352602083015260408201520152565b0390f35b600160208192604051610acb81612d0f565b60ff8654858060a01b038116835260a01c1683820152815201920192019190610a00565b60026020600192604051610b0281612d0f565b848060a01b038654168152848060a01b038587015416838201528152019201920191906109bf565b346104cc5760203660031901126104cc5761001b610b46612ca0565b610b4e61322e565b6130c3565b346104cc5760003660031901126104cc57610ab5610b6f612e56565b604051918291602083526020830190612cb6565b346104cc5760203660031901126104cc57610b9c612ca0565b6001600160a01b038116600090815260146020526040902054610bc69060ff161515600114613044565b670de0b6b3a7640000610be4610bde60095493613127565b83612f21565b04600b5462093a80810110610d5a578115610d7057610c01612e56565b6000194301438111610d5a57610c5690604051610c3781610c29602082019440444287613089565b03601f198101835282612d2a565b51902082516001600160a01b039391610c50919061309e565b90612f6d565b5116918215610ce3576000808080938682526012602052600c6040832001610c7f878254612f14565b90558682f115610cd7577f6dbdd944bdf6514aca26947d204530e2ecbea365677ef05fee7a56d54a14569791600060095542600b55610cc082600554612f14565b600555610cd2604051928392836130a8565b0390a1005b6040513d6000823e3d90fd5b5050507f974c744afa915921dddb0f53fdbfdd97fef12a94db2457dcf878aa94ad687274608060405160208152603160208201527f52616e646f6d206164647265737320776173207a65726f20616464726573732e60408201527010283632b0b9b2903a393c9030b3b0b4b760791b6060820152a1005b634e487b7160e01b600052601160045260246000fd5b60405162461bcd60e51b81526020600482015260186024820152774e6f207265776172647320746f206469737472696275746560401b6044820152606490fd5b60403660031901126104cc57610dc4612ca0565b6024356001600160a01b038116908181036104cc576001600160a01b0383169182156117dd576000526014602052600160ff6040600020541615150361178c57610e1f610e19670de0b6b3a764000092613127565b34612f21565b0490600f54606181029080820460611490151715610d5a5760649004821061173857600c549060ff8083169260081c16913360005260126020526040600020928260005260126020526040600020600685019687546116f9576006820154156116be5785546001600160a01b03161561169e575b81546001600160a01b03161561167d575b5050600d54600285018054909491906001600160a01b031661161d573360005260126020526040600020913381146115db5760409060009081526012602052209060038201610ef48282546132d7565b156115a25750600e82015460009061159a575b61158c575b6000194301438111610d5a57610f43610f4891604051610f3781610c29602082019440444287613089565b5190206001549061309e565b612f81565b90546001600160a01b0360039290921b1c81166000908152601260205260409020805490929116801561154c5784610f7f916132fe565b825482546040516001600160a01b0391821693927fa1b30426557565c4fa85ce5f9c88513d7d3f49d21eb30569c249b07b037831ef928291610fc6913391889116846132b4565b0390a160405160048501610fd982612d0f565b33825260208201938452805493600160401b85101561149e576001850180835585101561153657600091825260209091209151600194851b90920180546001600160a01b039384166001600160a01b03199182161782559151940180549490921693169290921790915561105b90600383016110553382612ffe565b546132d7565b611527575b505b6001820180546001600160a01b0316156114bf575b50506000905b8260ff831610611365575b5050505b600e830180546113205783546110aa906001600160a01b0316612fb4565b60015490557f0411c58b3c1e8a39d91c901e5c807bff1401650beedc45aba65112756bb929b4608060018060a01b038554167f06baf10092c7ea144c4fb56fb8cf641e1f00e291a535b5d54b547eadb29485a76020604051838152a160018601549454604080516001600160a01b0397881680825297909216602083015281019190915260608101879052a1606461114e816111468434612f21565b049286612f21565b0491600052601260205260406000209060018060a01b0382541680611281575b505050506006546000808080606461118c60ff8760a01c1634612f21565b04809582908215611277575b6001600160a01b031690f115610cd7576006546040517f5aa75bdb3269082e844d731608afae2a07cbf194f251e3f857b870af86b754fb92909182916111e7916001600160a01b0316836130a8565b0390a160646111fb60ff6008541634612f21565b049260008080808760018060a01b036010541682821561126e575bf115610cd75761122b61126994600754612f14565b600755611239838254612f14565b9055600f4291015561125e606461125560ff600a541634612f21565b04600954612f14565b600955600254612f14565b600255005b506108fc611216565b6108fc9150611198565b60008080848194828215611317575bf115610cd7576009927f153f77382d7e07de734977ae352e9b1f5f8ad4b1c0033c883a9a33456a87836f60806112fd9360018060a01b0386541690604051918252336020830152604082015260016060820152a1600b83016112f3828254612f14565b9055600354612f14565b6003550161130c838254612f14565b90558380808061116e565b506108fc611290565b60405162461bcd60e51b815260206004820152601e60248201527f5573657220697320616c726561647920696e2072616e646f6d206c69737400006044820152606490fd5b60028101546001600160a01b03169081156114b957546001600160a01b031681146114b4576000526012602052604060002060058101906113a583613032565b604051926113b284612d0f565b33845260ff60208501921682528054600160401b81101561149e576113dc91600182018155612f9c565b919091611488579251815493516001600160a81b03199094166001600160a01b03919091161760a09390931b60ff60a01b1692909217909155600a8101805461148292919061142c908a90612f14565b905580547f85db3f10b88ea7fc653f3f818097a3fc3c543196ed60cad2251df922bcc9ad7f906060906001600160a01b031660ff61146987613032565b604051928352336020840152166040820152a191613021565b9061107d565b634e487b7160e01b600052600060045260246000fd5b634e487b7160e01b600052604160045260246000fd5b611088565b50611088565b905481546001600160a01b0319166001600160a01b0391821690811790925560028301546040517f8efa008f8ae98ae30d3219078a298c85bc25a62f50c57ed9a3ec838b7eed9f47939092839261151d9233929190911690846132b4565b0390a18780611077565b61153090613354565b88611060565b634e487b7160e01b600052603260045260246000fd5b60405162461bcd60e51b8152602060048201526018602482015277139bc81c985b991bdb481c9959995c9c995c88199bdd5b9960421b6044820152606490fd5b61159582613354565b610f0c565b506001610f07565b82546115c89291906115be9086906001600160a01b03166132fe565b6110553382612ffe565b15611062576115d681613354565b611062565b60405162461bcd60e51b815260206004820152601a6024820152792cb7ba9031b0b73737ba103932b332b9103cb7bab939b2b6331760311b6044820152606490fd5b5050507f1f4fff38c5e64af9e759d590409f022ea913658008bb1d0cd35e028244f01ecf606060405160208152601f60208201527f5573657220416c72656164792068617665207265666572726572207365742e006040820152a161108c565b81546001600160a01b031916851790915561169790612fd9565b8680610ea4565b85546001600160a01b0319163390811787556116b990612fd9565b610e93565b60405162461bcd60e51b81526020600482015260136024820152725265666572726572204e6f742041637469766560681b6044820152606490fd5b60405162461bcd60e51b8152602060048201526017602482015276155cd95c88185b1c9958591e481c9959da5cdd195c9959604a1b6044820152606490fd5b60405162461bcd60e51b815260206004820152602660248201527f56616c7565206973206c657373207468656e20726567697374726174696f6e206044820152653b30b63ab29760d11b6064820152608490fd5b60405162461bcd60e51b815260206004820152602360248201527f43757272656e637920596f752073656c6563746564206e6f7420737570706f726044820152621d195960ea1b6064820152608490fd5b60405162461bcd60e51b815260206004820152602360248201527f5a65726f20416464726573732063616e6e6f74206265207468652072656665726044820152623932b960e91b6064820152608490fd5b346104cc5760003660031901126104cc57604080519061184e8183612d2a565b60058252640352e302e360dc1b6020830152805180926020825280519081602084015260005b8281106118935750506000828201840152601f01601f19168101030190f35b602082820181015187830187015286945001611874565b346104cc5760203660031901126104cc5760043560ff81168091036104cc576118d1612f54565b50600052601360205260408060002060018251916118ee83612d0f565b60ff815416835201546020820152611915825180926020809160ff81511684520151910152565bf35b60203660031901126104cc57670de0b6b3a7640000611969610e1961193a612ca0565b6001600160a01b0381166000908152601460205260409020546119649060ff161515600114613044565b613127565b0433600052601260205260406000206008810160ff815416600052601360205260406000209060016040519261199e84612d0f565b60ff81541684520154602083019080825215611c49578051605f810290808204605f1490151715610d5a57606490048511908115611c29575b5015611bd55760ff808093600786016119f1888254612f14565b9055511616821982541617815554169160009260001981019260ff8085119416905b82861115611a1d57005b600201546001600160a01b0316600090815260126020526040902084610d5a57818614611a5757946000198114610d5a5760010194611a13565b80955060ff929394506008915001541690808211918215611bcb575b505080611bb8575b15611ae857611a8f600d8301918254612f14565b9055600080808060018060a01b0385541681903415611ade575b3491f115610cd75754604051600080516020613517833981519152918190610cd290349033906001600160a01b031684613264565b6108fc9150611aa9565b50507f6696b78fc1713892e6e2bb3df5cdc986ab67a0c675898c7ef535bd2201ca9451608060405160208152603f60208201527f55706c696e6520686173206e6f742075706772616465642e20416d6f756e742060408201527f7472616e73666572656420746f206c69717569646974792077616c6c65742e006060820152a16010546001600160a01b031660003415611baf575b600080808093853491f115610cd757610cd2600080516020613517833981519152916040519182913490339084613264565b506108fc611b7d565b5081546001600160a01b03161515611a7b565b1490508380611a73565b60405162461bcd60e51b815260206004820152602660248201527f56616c75652073686f756c6420626520657175616c20746f20757067726164656044820152652076616c756560d01b6064820152608490fd5b51606980820292508115918304141715610d5a57606490048410856119d7565b60405162461bcd60e51b815260206004820152601d60248201527f596f75206861766520757067726164656420616c6c206c6576656c732e0000006044820152606490fd5b346104cc5760003660031901126104cc576000805160206134b7833981519152546040516001600160a01b039091168152602090f35b346104cc5760003660031901126104cc576000600954600b549162093a80830192838111610d5a57428411611d0b575b509160609260405192835260208301526040820152f35b62093a8091504290030191808311610d5a57916060611cf4565b346104cc5760003660031901126104cc5760008051602061353783398151915254604081901c60ff1615906001600160401b038116801590816121c6575b60011490816121bc575b1590816121b3575b506121a2576001600160401b031981166001176000805160206135378339815191525581612179575b50600e805473cef5767039fa6a66016b802546f123e0c3ddedc26001600160a01b031991821681178355600081905260126020527f7b58f54f0bc0fcd57e50c233f450fe384adf8c88021dbbeef24b87de22945c1480548316821781557f7b58f54f0bc0fcd57e50c233f450fe384adf8c88021dbbeef24b87de22945c158054909316821790925569152d02c7e14af68000007f7b58f54f0bc0fcd57e50c233f450fe384adf8c88021dbbeef24b87de22945c1a556001929190611e6190612fb4565b0155600e54611e78906001600160a01b0316612fd9565b601154600160401b81101561149e57806001611e9992016011556011612f9c565b81546001600160a01b0360039290921b91821b1916730567f2323251f0aab15c8dfb1967e4e8a7d42aee90911b179055601154600160401b81101561149e57806001611eea92016011556011612f9c565b81546001600160a01b0360039290921b91821b1916739c85f470f9ba23dfc4fe9531933c2ce2c1739c399182901b1790915560146020527f18b399276171edd4288c75706c059c76f8ba27a208f6ab7dc13ddac4a813eb06805460ff1990811660019081179092556000929092527f785e316b530d6f09805cf52ec6944c1fd91d7cf1ffa292231399b4110cc5ca9d80548316909117905568015af1d78b58c40000600f55600c805461ffff191661083c1790556002600d55600680546001600160a81b0319167414554f58fcfcef95f82c8cf6ed9e51e5c79e3414811790556008805482166010908117909155600a805490921660041790915542600b5580546001600160a01b031916733d7263afa42c9d47c13cfcdcdc72a131077e561817905560405160e081016001600160401b0381118282101761149e576040526801158e460913d0000081526801a055690d9db8000060208201526802b5e3af16b188000060408201526809c2007651b250000060608201526815af1d78b58c400000608082015268281d901f4fdd10000060a0820152684fb0591b9b3038000060c082015260005b60ff81169060078210156120fd576120f89160016120af83613032565b9160ff8060406000611fe08860051b168a015194838351986120d08a612d0f565b1688526020880195865281526013602052209451161660ff1984541617835551910155613021565b612092565b83612106613286565b61210e613286565b612117336130c3565b61211f613286565b61212557005b60ff60401b196000805160206135378339815191525416600080516020613537833981519152557fc7f505b2f371ae2175ee4913f4499e1f2633a7b5936321eed1cdaeb6115181d2602060405160018152a1005b6001600160481b0319166001600160401b01176000805160206135378339815191525581611d9e565b63f92ee8a960e01b60005260046000fd5b90501583611d75565b303b159150611d6d565b839150611d63565b346104cc5760003660031901126104cc576040516001548082526020820190600160005260206000209060005b81811061221257610ab585610b6f81870382612d2a565b82546001600160a01b03168452602090930192600192830192016121fb565b346104cc5760003660031901126104cc5761224a61322e565b6000805160206134b783398151915280546001600160a01b031981169091556000906001600160a01b03166000805160206134f78339815191528280a3005b346104cc5760203660031901126104cc5760206122a7611964612ca0565b604051908152f35b346104cc5760403660031901126104cc576122c8612ca0565b6024358015158091036104cc576122dd61322e565b6001600160a01b03821660008181526014602052604090205490919060ff161515811461248a57600190826000526014602052604060002060ff1981541660ff831617905514600014612374575060115490600160401b82101561149e5761235082600161001b94016011556011612f9c565b9080546001600160a01b0360039390931b83811b199091169290931690921b179055565b905061237e612e00565b805160005b81811061238c57005b836001600160a01b0361239f8386612f6d565b5116146123af575b600101612383565b6000198201828111610d5a576001600160a01b03906123ce9085612f6d565b51166000601154831015612476576011908190527f31ecc21a745e3968a04e9570e4425bc18fa8019c68028196b546d1669c200c68830180546001600160a01b0319166001600160a01b0390931692909217909155546000811561246257506001919060001901612458612443826011612f9c565b81549060018060a01b039060031b1b19169055565b60115590506123a7565b634e487b7160e01b81526031600452602490fd5b634e487b7160e01b81526032600452602490fd5b60405162461bcd60e51b815260206004820152601260248201527114dd185d1d5cc8185b1c9958591e481cd95d60721b6044820152606490fd5b346104cc5760003660031901126104cc5760ff6000805b82821660328110156126295760005260136020528260406000205416156125115760016125088492613021565b920116906124db565b90505b1661251e81612efd565b9061252c6040519283612d2a565b808252601f1961253b82612efd565b0160005b81811061260457505060005b60ff8116828110156125a25760ff9161259a8260019360005260136020526040600020846040519161257c83612d0f565b878154168352015460208201526125938289612f6d565b5286612f6d565b50011661254b565b828460405190604082019260408352815180945260206060840192016000945b8086106125d757505082935060208301520390f35b909260206040826125f860019488516020809160ff81511684520151910152565b019401950194906125c2565b60209060405161261381612d0f565b600081526000838201528282870101520161253f565b509050612514565b346104cc5760003660031901126104cc577f00000000000000000000000000000000000000000000000000000000000000006001600160a01b0316300361268a5760206040516000805160206134d78339815191528152f35b63703e46dd60e11b60005260046000fd5b60403660031901126104cc576126af612ca0565b602435906001600160401b0382116104cc57366023830112156104cc578160040135906126db82612d4d565b916126e96040519384612d2a565b808352602083019336602483830101116104cc57816000926024602093018737840101526001600160a01b037f0000000000000000000000000000000000000000000000000000000000000000163081149081156128b8575b5061268a5761274f61322e565b6040516352d1902d60e01b81526001600160a01b0382169390602081600481885afa60009181612884575b506127945784634c9c8ce360e01b60005260045260246000fd5b806000805160206134d78339815191528692036128705750823b1561285c576000805160206134d783398151915280546001600160a01b031916821790557fbc7cd75a20ee27fd9adebab32041f755214dbc6bffa90cc0225b39da2e5c2d3b600080a2825115612841576000809161001b945190845af43d15612839573d9161281c83612d4d565b9261282a6040519485612d2a565b83523d6000602085013e613455565b606091613455565b5050503461284b57005b63b398979f60e01b60005260046000fd5b634c9c8ce360e01b60005260045260246000fd5b632a87526960e21b60005260045260246000fd5b9091506020813d6020116128b0575b816128a060209383612d2a565b810103126104cc5751908661277a565b3d9150612893565b6000805160206134d7833981519152546001600160a01b03161415905084612742565b346104cc5760003660031901126104cc57600654601054600854600e54600f54604080516001600160a01b03808816825260a097881c60ff908116602084015296811692820192909252939094166060840152921660808201529182015260c090f35b346104cc5760203660031901126104cc576001600160a01b0361295f612ca0565b166000526014602052602060ff604060002054166040519015158152f35b346104cc5760003660031901126104cc57610ab5610b6f612e00565b346104cc5760203660031901126104cc576129b2612ca0565b60018060a01b0381166000526014602052600160ff60406000205416151503612a0f57600f5490670de0b6b3a7640000820291808304670de0b6b3a76400001490151715610d5a57602091612a096122a792613127565b90612f34565b60405162461bcd60e51b815260206004820152603860248201527f506c6561736520636865636b2074686520636861696e4c696e6b4f7261636c656044820152771059191c995cdcc81bdc881b9bdd081cdd5c1c1bdc9d195960421b6064820152608490fd5b346104cc5760203660031901126104cc576001600160a01b03612a96612ca0565b166000526012602052604060002060405190612ab182612cf3565b80546001600160a01b0390811683526001820154811660208401526002820154166040830152612ae360038201612ea9565b6060830152600481018054612af781612efd565b91612b056040519384612d2a565b818352602083019060005260206000206000915b838310612c2a57505050506080830152600581018054612b3881612efd565b91612b466040519384612d2a565b818352602083019060005260206000206000915b838310612bf4575050505060a0830152600681015460c0830152600781015460e083015260ff6008820154166101008301526009810154610120830152600a810154610140830152610ab5600b8201549182610160850152600c81015493846101808201526101e0600f600d84015493846101a0850152600e8101546101c08501520154910152610a9181612bef8686612f14565b612f14565b600160208192604051612c0681612d0f565b60ff8654858060a01b038116835260a01c1683820152815201920192019190612b5a565b60026020600192604051612c3d81612d0f565b848060a01b038654168152848060a01b03858701541683820152815201920192019190612b19565b346104cc5760003660031901126104cc5760809063ffffffff6000541660025460035490600554928452602084015260408301526060820152f35b600435906001600160a01b03821682036104cc57565b906020808351928381520192019060005b818110612cd45750505090565b82516001600160a01b0316845260209384019390920191600101612cc7565b61020081019081106001600160401b0382111761149e57604052565b604081019081106001600160401b0382111761149e57604052565b601f909101601f19168101906001600160401b0382119082101761149e57604052565b6001600160401b03811161149e57601f01601f191660200190565b906020808351928381520192019060005b818110612d865750505090565b825180516001600160a01b039081168652602091820151168186015260409094019390920191600101612d79565b906020808351928381520192019060005b818110612dd25750505090565b825180516001600160a01b0316855260209081015160ff168186015260409094019390920191600101612dc5565b604051906011548083528260208101601160005260206000209260005b818110612e34575050612e3292500383612d2a565b565b84546001600160a01b0316835260019485019487945060209093019201612e1d565b6040519060005480835282602081016000805260206000209260005b818110612e87575050612e3292500383612d2a565b84546001600160a01b0316835260019485019487945060209093019201612e72565b906040519182815491828252602082019060005260206000209260005b818110612edb575050612e3292500383612d2a565b84546001600160a01b0316835260019485019487945060209093019201612ec6565b6001600160401b03811161149e5760051b60200190565b91908201809211610d5a57565b81810292918115918404141715610d5a57565b8115612f3e570490565b634e487b7160e01b600052601260045260246000fd5b60405190612f6182612d0f565b60006020838281520152565b80518210156115365760209160051b010190565b60015481101561153657600160005260206000200190600090565b80548210156115365760005260206000200190600090565b60015490600160401b82101561149e57612350826001612e3294016001556001612f9c565b60005490600160401b82101561149e57612350826001612e3294016000556000612f9c565b80549190600160401b83101561149e5782612350916001612e3295018155612f9c565b60ff1660ff8114610d5a5760010190565b60ff60019116019060ff8211610d5a57565b1561304b57565b60405162461bcd60e51b815260206004820152601660248201527510dd5c9c995b98de481b9bdd081cdd5c1c1bdc9d195960521b6044820152606490fd5b91606093918352602083015260408201520190565b8115612f3e570690565b6001600160a01b039091168152602081019190915260400190565b6001600160a01b03168015613111576000805160206134b783398151915280546001600160a01b0319811683179091556001600160a01b03166000805160206134f7833981519152600080a3565b631e4fbdf760e01b600052600060045260246000fd5b6040516350d25bcd60e01b8152906001600160a01b0316602082600481845afa918215610cd7576000926131f9575b5060206004916040519283809263313ce56760e01b82525afa908115610cd7576000916131b5575b5060ff1690670de0b6b3a764000090818102918183041490151715610d5a57604d8211610d5a576131b291600a0a90612f34565b90565b6020813d6020116131f1575b816131ce60209383612d2a565b810103126131ed57519060ff821682036131ea575060ff61317e565b80fd5b5080fd5b3d91506131c1565b90916020823d602011613226575b8161321460209383612d2a565b810103126131ea575051906020613156565b3d9150613207565b6000805160206134b7833981519152546001600160a01b0316330361324f57565b63118cdaa760e01b6000523360045260246000fd5b6001600160a01b03918216815291166020820152604081019190915260600190565b60ff6000805160206135378339815191525460401c16156132a357565b631afcd79f60e31b60005260046000fd5b6001600160a01b0391821681529181166020830152909116604082015260600190565b600092918082149182156132f4575b50506132ee57565b60019150565b11905038806132e6565b6002820180546001600160a01b0319166001600160a01b03928316908117909155915460408051938452911660208301527fec49a3c8c4ae06c18160fe86119c381c9d213ac3e052ff35b594da8687b193c791a1565b600e810180548015613413576001546000198101908111610d5a5761337890612f81565b905460001983019260039290921b1c6001600160a01b0316908211610d5a576123506133a392612f81565b6001549182156133fd5760006020927f644b85583ba83e73113ffc0c122b165819ca11db493cd4cc38f5ba29138ffa1b948219016133e5612443826001612f9c565b60015555546040516001600160a01b039091168152a1565b634e487b7160e01b600052603160045260246000fd5b60405162461bcd60e51b815260206004820152601a602482015279155cd95c881a5cc81b9bdd081a5b881c985b991bdb481b1a5cdd60321b6044820152606490fd5b9061347b575080511561346a57805190602001fd5b63d6bda27560e01b60005260046000fd5b815115806134ad575b61348c575090565b639996b31560e01b60009081526001600160a01b0391909116600452602490fd5b50803b1561348456fe9016d09d72d40fdae2fd8ceac6b6234c7706214fd39c1cd1e609a0528c199300360894a13ba1a3210667c828492db98dca3e2076cc3735a920a3ca505d382bbc8be0079c531659141344cd1fd0a4f28419497f9722a3daafe3b4186f6b6457e0b37800f632235e56e1626c9e9df3de1e167e9298f0d25f59fd74ec65e3111652f0c57e16840df040f15088dc2f81fe391c3923bec73e23a9662efc9c229c6a00a164736f6c634300081a000a","opcodes":"PUSH1 0xA0 DUP1 PUSH1 0x40 MSTORE CALLVALUE PUSH1 0x29 JUMPI ADDRESS PUSH1 0x80 MSTORE PUSH2 0x3563 SWAP1 DUP2 PUSH2 0x2F DUP3 CODECOPY PUSH1 0x80 MLOAD DUP2 DUP2 DUP2 PUSH2 0x2644 ADD MSTORE PUSH2 0x2717 ADD MSTORE RETURN JUMPDEST PUSH1 0x0 DUP1 REVERT INVALID PUSH1 0x80 DUP1 PUSH1 0x40 MSTORE PUSH1 0x4 CALLDATASIZE LT ISZERO PUSH2 0x1D JUMPI JUMPDEST POP CALLDATASIZE ISZERO PUSH2 0x1B JUMPI PUSH1 0x0 DUP1 REVERT JUMPDEST STOP JUMPDEST PUSH1 0x0 CALLDATALOAD PUSH1 0xE0 SHR SWAP1 DUP2 PUSH4 0x690C6A8 EQ PUSH2 0x2C65 JUMPI POP DUP1 PUSH4 0x78B0FB7 EQ PUSH2 0x2A75 JUMPI DUP1 PUSH4 0x7C560D1 EQ PUSH2 0x2999 JUMPI DUP1 PUSH4 0x8E922BA EQ PUSH2 0x297D JUMPI DUP1 PUSH4 0x11F4D576 EQ PUSH2 0x293E JUMPI DUP1 PUSH4 0x1A746344 EQ PUSH2 0x28DB JUMPI DUP1 PUSH4 0x4F1EF286 EQ PUSH2 0x269B JUMPI DUP1 PUSH4 0x52D1902D EQ PUSH2 0x2631 JUMPI DUP1 PUSH4 0x59A04544 EQ PUSH2 0x24C4 JUMPI DUP1 PUSH4 0x5EDA81CE EQ PUSH2 0x22AF JUMPI DUP1 PUSH4 0x6A746311 EQ PUSH2 0x2289 JUMPI DUP1 PUSH4 0x715018A6 EQ PUSH2 0x2231 JUMPI DUP1 PUSH4 0x7EC37E03 EQ PUSH2 0x21CE JUMPI DUP1 PUSH4 0x8129FC1C EQ PUSH2 0x1D25 JUMPI DUP1 PUSH4 0x846688F7 EQ PUSH2 0x1CC4 JUMPI DUP1 PUSH4 0x8DA5CB5B EQ PUSH2 0x1C8E JUMPI DUP1 PUSH4 0xA0DB38E5 EQ PUSH2 0x1917 JUMPI DUP1 PUSH4 0xA9DF9FAE EQ PUSH2 0x18AA JUMPI DUP1 PUSH4 0xAD3CB1CC EQ PUSH2 0x182E JUMPI DUP1 PUSH4 0xC53B219E EQ PUSH2 0xDB0 JUMPI DUP1 PUSH4 0xD277B8A9 EQ PUSH2 0xB83 JUMPI DUP1 PUSH4 0xE2842D79 EQ PUSH2 0xB53 JUMPI DUP1 PUSH4 0xF2FDE38B EQ PUSH2 0xB2A JUMPI DUP1 PUSH4 0xF87127B4 EQ PUSH2 0x91B JUMPI DUP1 PUSH4 0xF9250171 EQ PUSH2 0x71D JUMPI DUP1 PUSH4 0xFAEDA7E5 EQ PUSH2 0x4D1 JUMPI PUSH4 0xFB47E016 EQ PUSH2 0x153 JUMPI CODESIZE PUSH2 0xF JUMP JUMPDEST CALLVALUE PUSH2 0x4CC JUMPI PUSH1 0x20 CALLDATASIZE PUSH1 0x3 NOT ADD SLT PUSH2 0x4CC JUMPI PUSH2 0x16C PUSH2 0x2CA0 JUMP JUMPDEST PUSH1 0x0 PUSH2 0x1E0 PUSH1 0x40 MLOAD PUSH2 0x17D DUP2 PUSH2 0x2CF3 JUMP JUMPDEST DUP3 DUP2 MSTORE DUP3 PUSH1 0x20 DUP3 ADD MSTORE DUP3 PUSH1 0x40 DUP3 ADD MSTORE PUSH1 0x60 DUP1 DUP3 ADD MSTORE PUSH1 0x60 PUSH1 0x80 DUP3 ADD MSTORE PUSH1 0x60 PUSH1 0xA0 DUP3 ADD MSTORE DUP3 PUSH1 0xC0 DUP3 ADD MSTORE DUP3 PUSH1 0xE0 DUP3 ADD MSTORE DUP3 PUSH2 0x100 DUP3 ADD MSTORE DUP3 PUSH2 0x120 DUP3 ADD MSTORE DUP3 PUSH2 0x140 DUP3 ADD MSTORE DUP3 PUSH2 0x160 DUP3 ADD MSTORE DUP3 PUSH2 0x180 DUP3 ADD MSTORE DUP3 PUSH2 0x1A0 DUP3 ADD MSTORE DUP3 PUSH2 0x1C0 DUP3 ADD MSTORE ADD MSTORE PUSH1 0x1 DUP1 PUSH1 0xA0 SHL SUB AND PUSH1 0x0 MSTORE PUSH1 0x12 PUSH1 0x20 MSTORE PUSH1 0x40 PUSH1 0x0 KECCAK256 PUSH1 0x40 MLOAD PUSH2 0x200 DUP2 PUSH2 0x2CF3 JUMP JUMPDEST DUP2 SLOAD PUSH1 0x1 PUSH1 0x1 PUSH1 0xA0 SHL SUB SWAP1 DUP2 AND DUP3 MSTORE PUSH1 0x1 DUP4 ADD SLOAD DUP2 AND PUSH1 0x20 DUP4 ADD SWAP1 DUP2 MSTORE PUSH1 0x2 DUP5 ADD SLOAD SWAP1 SWAP2 AND PUSH1 0x40 DUP4 ADD SWAP1 DUP2 MSTORE SWAP1 SWAP3 SWAP1 SWAP2 PUSH2 0x23C PUSH1 0x3 DUP4 ADD PUSH2 0x2EA9 JUMP JUMPDEST PUSH1 0x60 DUP3 ADD SWAP1 DUP2 MSTORE PUSH1 0x4 DUP4 ADD DUP1 SLOAD PUSH2 0x252 DUP2 PUSH2 0x2EFD JUMP JUMPDEST SWAP2 PUSH2 0x260 PUSH1 0x40 MLOAD SWAP4 DUP5 PUSH2 0x2D2A JUMP JUMPDEST DUP2 DUP4 MSTORE PUSH1 0x20 DUP4 ADD SWAP1 PUSH1 0x0 MSTORE PUSH1 0x20 PUSH1 0x0 KECCAK256 PUSH1 0x0 SWAP2 JUMPDEST DUP4 DUP4 LT PUSH2 0x491 JUMPI POP POP POP POP PUSH1 0x80 DUP4 ADD SWAP1 DUP2 MSTORE PUSH1 0x5 DUP5 ADD SWAP2 DUP3 SLOAD PUSH2 0x296 DUP2 PUSH2 0x2EFD JUMP JUMPDEST SWAP4 PUSH2 0x2A4 PUSH1 0x40 MLOAD SWAP6 DUP7 PUSH2 0x2D2A JUMP JUMPDEST DUP2 DUP6 MSTORE PUSH1 0x20 DUP6 ADD SWAP1 PUSH1 0x0 MSTORE PUSH1 0x20 PUSH1 0x0 KECCAK256 PUSH1 0x0 SWAP2 JUMPDEST DUP4 DUP4 LT PUSH2 0x45B JUMPI POP POP POP POP PUSH1 0xA0 DUP5 ADD SWAP3 DUP4 MSTORE PUSH1 0x6 DUP6 ADD SLOAD PUSH1 0xC0 DUP6 ADD MSTORE PUSH1 0x7 DUP6 ADD SLOAD PUSH1 0xE0 DUP6 ADD SWAP1 DUP2 MSTORE PUSH1 0x8 DUP7 ADD SLOAD PUSH1 0xFF AND PUSH2 0x100 DUP7 ADD MSTORE PUSH1 0x9 DUP7 ADD SLOAD PUSH2 0x120 DUP7 ADD MSTORE PUSH1 0xA DUP7 ADD SLOAD PUSH2 0x140 DUP7 ADD MSTORE PUSH1 0xB DUP7 ADD SLOAD PUSH2 0x160 DUP7 ADD MSTORE PUSH1 0xC DUP7 ADD SLOAD PUSH2 0x180 DUP7 ADD MSTORE PUSH1 0xD DUP7 ADD SLOAD PUSH2 0x1A0 DUP7 ADD MSTORE PUSH1 0xE DUP7 ADD SLOAD PUSH2 0x1C0 DUP7 ADD MSTORE PUSH1 0xF SWAP1 SWAP6 ADD SLOAD PUSH2 0x1E0 DUP6 ADD MSTORE PUSH1 0x40 DUP1 MLOAD PUSH1 0x20 DUP1 DUP3 MSTORE DUP7 MLOAD PUSH1 0x1 PUSH1 0x1 PUSH1 0xA0 SHL SUB SWAP1 DUP2 AND DUP3 DUP5 ADD MSTORE SWAP10 MLOAD DUP11 AND SWAP3 DUP3 ADD SWAP3 SWAP1 SWAP3 MSTORE SWAP7 MLOAD SWAP1 SWAP8 AND PUSH1 0x60 DUP8 ADD MSTORE MLOAD PUSH2 0x200 PUSH1 0x80 DUP8 ADD MSTORE DUP1 MLOAD PUSH2 0x220 DUP8 ADD DUP2 SWAP1 MSTORE PUSH2 0x240 DUP8 ADD SWAP8 SWAP2 SWAP1 SWAP2 ADD SWAP1 PUSH1 0x0 JUMPDEST DUP2 DUP2 LT PUSH2 0x43C JUMPI POP POP POP PUSH2 0x1E0 SWAP3 SWAP2 PUSH2 0x3B6 DUP7 SWAP8 PUSH2 0x3C9 SWAP4 MLOAD PUSH1 0x1F NOT DUP10 DUP4 SUB ADD PUSH1 0xA0 DUP11 ADD MSTORE PUSH2 0x2D68 JUMP JUMPDEST SWAP1 MLOAD DUP7 DUP3 SUB PUSH1 0x1F NOT ADD PUSH1 0xC0 DUP9 ADD MSTORE PUSH2 0x2DB4 JUMP JUMPDEST SWAP3 PUSH1 0xC0 DUP3 ADD MLOAD PUSH1 0xE0 DUP7 ADD MSTORE MLOAD PUSH2 0x100 DUP6 ADD MSTORE PUSH1 0xFF PUSH2 0x100 DUP3 ADD MLOAD AND PUSH2 0x120 DUP6 ADD MSTORE PUSH2 0x120 DUP2 ADD MLOAD PUSH2 0x140 DUP6 ADD MSTORE PUSH2 0x140 DUP2 ADD MLOAD PUSH2 0x160 DUP6 ADD MSTORE PUSH2 0x160 DUP2 ADD MLOAD PUSH2 0x180 DUP6 ADD MSTORE PUSH2 0x180 DUP2 ADD MLOAD PUSH2 0x1A0 DUP6 ADD MSTORE PUSH2 0x1A0 DUP2 ADD MLOAD PUSH2 0x1C0 DUP6 ADD MSTORE PUSH2 0x1C0 DUP2 ADD MLOAD DUP3 DUP6 ADD MSTORE ADD MLOAD PUSH2 0x200 DUP4 ADD MSTORE SUB SWAP1 RETURN JUMPDEST DUP3 MLOAD PUSH1 0x1 PUSH1 0x1 PUSH1 0xA0 SHL SUB AND DUP10 MSTORE PUSH1 0x20 SWAP9 DUP10 ADD SWAP9 SWAP1 SWAP3 ADD SWAP2 PUSH1 0x1 ADD PUSH2 0x38C JUMP JUMPDEST PUSH1 0x1 PUSH1 0x20 DUP2 SWAP3 PUSH1 0x40 MLOAD PUSH2 0x46D DUP2 PUSH2 0x2D0F JUMP JUMPDEST PUSH1 0xFF DUP7 SLOAD DUP6 DUP1 PUSH1 0xA0 SHL SUB DUP2 AND DUP4 MSTORE PUSH1 0xA0 SHR AND DUP4 DUP3 ADD MSTORE DUP2 MSTORE ADD SWAP3 ADD SWAP3 ADD SWAP2 SWAP1 PUSH2 0x2B8 JUMP JUMPDEST PUSH1 0x2 PUSH1 0x20 PUSH1 0x1 SWAP3 PUSH1 0x40 MLOAD PUSH2 0x4A4 DUP2 PUSH2 0x2D0F JUMP JUMPDEST DUP5 DUP1 PUSH1 0xA0 SHL SUB DUP7 SLOAD AND DUP2 MSTORE DUP5 DUP1 PUSH1 0xA0 SHL SUB DUP6 DUP8 ADD SLOAD AND DUP4 DUP3 ADD MSTORE DUP2 MSTORE ADD SWAP3 ADD SWAP3 ADD SWAP2 SWAP1 PUSH2 0x274 JUMP JUMPDEST PUSH1 0x0 DUP1 REVERT JUMPDEST CALLVALUE PUSH2 0x4CC JUMPI PUSH1 0x20 CALLDATASIZE PUSH1 0x3 NOT ADD SLT PUSH2 0x4CC JUMPI PUSH1 0x1 PUSH1 0x1 PUSH1 0xA0 SHL SUB PUSH2 0x4F2 PUSH2 0x2CA0 JUMP JUMPDEST AND PUSH1 0x0 MSTORE PUSH1 0x12 PUSH1 0x20 MSTORE PUSH1 0x40 PUSH1 0x0 KECCAK256 PUSH1 0x40 MLOAD SWAP1 PUSH2 0x50D DUP3 PUSH2 0x2CF3 JUMP JUMPDEST DUP1 SLOAD PUSH1 0x1 PUSH1 0x1 PUSH1 0xA0 SHL SUB SWAP1 DUP2 AND DUP4 MSTORE PUSH1 0x1 DUP3 ADD SLOAD DUP2 AND PUSH1 0x20 DUP5 ADD MSTORE PUSH1 0x2 DUP3 ADD SLOAD AND PUSH1 0x40 DUP4 ADD SWAP1 DUP2 MSTORE SWAP1 PUSH2 0x542 PUSH1 0x3 DUP3 ADD PUSH2 0x2EA9 JUMP JUMPDEST SWAP2 PUSH1 0x60 DUP5 ADD SWAP3 DUP4 MSTORE PUSH1 0x4 DUP3 ADD SWAP4 DUP5 SLOAD PUSH2 0x55A DUP2 PUSH2 0x2EFD JUMP JUMPDEST SWAP6 PUSH2 0x568 PUSH1 0x40 MLOAD SWAP8 DUP9 PUSH2 0x2D2A JUMP JUMPDEST DUP2 DUP8 MSTORE PUSH1 0x20 DUP8 ADD SWAP1 PUSH1 0x0 MSTORE PUSH1 0x20 PUSH1 0x0 KECCAK256 PUSH1 0x0 SWAP2 JUMPDEST DUP4 DUP4 LT PUSH2 0x6E2 JUMPI POP POP POP POP PUSH1 0x80 DUP2 ADD SWAP5 DUP6 MSTORE PUSH1 0x5 DUP4 ADD SWAP3 DUP4 SLOAD PUSH2 0x59E DUP2 PUSH2 0x2EFD JUMP JUMPDEST SWAP5 PUSH2 0x5AC PUSH1 0x40 MLOAD SWAP7 DUP8 PUSH2 0x2D2A JUMP JUMPDEST DUP2 DUP7 MSTORE PUSH1 0x20 DUP7 ADD SWAP1 PUSH1 0x0 MSTORE PUSH1 0x20 PUSH1 0x0 KECCAK256 PUSH1 0x0 SWAP2 JUMPDEST DUP4 DUP4 LT PUSH2 0x6AC JUMPI POP POP POP POP SWAP1 PUSH2 0x1E0 PUSH1 0xF PUSH2 0x6A2 SWAP5 SWAP4 DUP7 PUSH1 0xA0 DUP6 ADD MSTORE PUSH1 0x6 DUP2 ADD SLOAD PUSH1 0xC0 DUP6 ADD MSTORE PUSH1 0x7 DUP2 ADD SLOAD PUSH1 0xE0 DUP6 ADD MSTORE PUSH1 0xFF PUSH1 0x8 DUP3 ADD SLOAD AND PUSH2 0x100 DUP6 ADD MSTORE PUSH1 0x9 DUP2 ADD SLOAD PUSH2 0x120 DUP6 ADD MSTORE PUSH1 0xA DUP2 ADD SLOAD PUSH2 0x140 DUP6 ADD MSTORE PUSH1 0xB DUP2 ADD SLOAD PUSH2 0x160 DUP6 ADD MSTORE PUSH1 0xC DUP2 ADD SLOAD PUSH2 0x180 DUP6 ADD MSTORE PUSH1 0xD DUP2 ADD SLOAD PUSH2 0x1A0 DUP6 ADD MSTORE PUSH1 0xE DUP2 ADD SLOAD PUSH2 0x1C0 DUP6 ADD MSTORE ADD SLOAD SWAP2 ADD MSTORE PUSH1 0x1 DUP1 PUSH1 0xA0 SHL SUB SWAP1 MLOAD AND SWAP3 MLOAD SWAP4 DUP5 MLOAD SWAP1 MLOAD SWAP3 PUSH2 0x68F DUP5 MLOAD SWAP3 DUP3 MLOAD SWAP6 PUSH2 0x67C PUSH1 0x40 MLOAD SWAP10 DUP11 SWAP10 DUP11 MSTORE PUSH1 0xE0 PUSH1 0x20 DUP12 ADD MSTORE PUSH1 0xE0 DUP11 ADD SWAP1 PUSH2 0x2CB6 JUMP JUMPDEST SWAP2 PUSH1 0x40 DUP10 ADD MSTORE DUP8 DUP3 SUB PUSH1 0x60 DUP10 ADD MSTORE PUSH2 0x2D68 JUMP JUMPDEST SWAP2 PUSH1 0x80 DUP7 ADD MSTORE DUP5 DUP3 SUB PUSH1 0xA0 DUP7 ADD MSTORE PUSH2 0x2DB4 JUMP JUMPDEST SWAP1 PUSH1 0xC0 DUP4 ADD MSTORE SUB SWAP1 RETURN JUMPDEST PUSH1 0x1 PUSH1 0x20 DUP2 SWAP3 PUSH1 0x40 MLOAD PUSH2 0x6BE DUP2 PUSH2 0x2D0F JUMP JUMPDEST PUSH1 0xFF DUP7 SLOAD DUP6 DUP1 PUSH1 0xA0 SHL SUB DUP2 AND DUP4 MSTORE PUSH1 0xA0 SHR AND DUP4 DUP3 ADD MSTORE DUP2 MSTORE ADD SWAP3 ADD SWAP3 ADD SWAP2 SWAP1 PUSH2 0x5C0 JUMP JUMPDEST PUSH1 0x2 PUSH1 0x20 PUSH1 0x1 SWAP3 PUSH1 0x40 MLOAD PUSH2 0x6F5 DUP2 PUSH2 0x2D0F JUMP JUMPDEST DUP5 DUP1 PUSH1 0xA0 SHL SUB DUP7 SLOAD AND DUP2 MSTORE DUP5 DUP1 PUSH1 0xA0 SHL SUB DUP6 DUP8 ADD SLOAD AND DUP4 DUP3 ADD MSTORE DUP2 MSTORE ADD SWAP3 ADD SWAP3 ADD SWAP2 SWAP1 PUSH2 0x57C JUMP JUMPDEST CALLVALUE PUSH2 0x4CC JUMPI PUSH1 0x20 CALLDATASIZE PUSH1 0x3 NOT ADD SLT PUSH2 0x4CC JUMPI PUSH2 0x736 PUSH2 0x2CA0 JUMP JUMPDEST PUSH1 0x1 PUSH1 0x1 PUSH1 0xA0 SHL SUB AND PUSH1 0x0 SWAP1 DUP2 MSTORE PUSH1 0x12 PUSH1 0x20 MSTORE PUSH1 0x40 DUP1 DUP3 KECCAK256 SWAP1 MLOAD SWAP1 SWAP2 SWAP1 PUSH2 0x75C DUP2 PUSH2 0x2CF3 JUMP JUMPDEST DUP3 SLOAD PUSH1 0x1 PUSH1 0x1 PUSH1 0xA0 SHL SUB SWAP1 DUP2 AND DUP3 MSTORE PUSH1 0x1 DUP5 ADD SLOAD DUP2 AND PUSH1 0x20 DUP4 ADD MSTORE PUSH1 0x2 DUP5 ADD SLOAD AND PUSH1 0x40 DUP3 ADD MSTORE PUSH2 0x78E PUSH1 0x3 DUP5 ADD PUSH2 0x2EA9 JUMP JUMPDEST PUSH1 0x60 DUP3 ADD MSTORE PUSH1 0x4 DUP4 ADD DUP1 SLOAD PUSH2 0x7A2 DUP2 PUSH2 0x2EFD JUMP JUMPDEST SWAP2 PUSH2 0x7B0 PUSH1 0x40 MLOAD SWAP4 DUP5 PUSH2 0x2D2A JUMP JUMPDEST DUP2 DUP4 MSTORE PUSH1 0x20 DUP4 ADD SWAP1 PUSH1 0x0 MSTORE PUSH1 0x20 PUSH1 0x0 KECCAK256 PUSH1 0x0 SWAP2 JUMPDEST DUP4 DUP4 LT PUSH2 0x8E0 JUMPI POP POP POP POP PUSH1 0x80 DUP3 ADD MSTORE PUSH1 0x5 DUP4 ADD SWAP3 DUP4 SLOAD PUSH2 0x7E4 DUP2 PUSH2 0x2EFD JUMP JUMPDEST SWAP1 PUSH2 0x7F2 PUSH1 0x40 MLOAD SWAP3 DUP4 PUSH2 0x2D2A JUMP JUMPDEST DUP1 DUP3 MSTORE PUSH1 0x20 DUP3 ADD SWAP6 PUSH1 0x0 MSTORE PUSH1 0x20 PUSH1 0x0 KECCAK256 SWAP6 PUSH1 0x0 SWAP1 JUMPDEST DUP3 DUP3 LT PUSH2 0x8AA JUMPI POP POP POP PUSH1 0x40 SWAP5 POP PUSH1 0xA0 DUP4 ADD MSTORE PUSH1 0x6 DUP2 ADD SLOAD PUSH1 0xC0 DUP4 ADD MSTORE PUSH1 0x7 DUP2 ADD SLOAD SWAP2 DUP3 PUSH1 0xE0 DUP3 ADD MSTORE PUSH2 0x1E0 PUSH1 0xF PUSH1 0xFF PUSH1 0x8 DUP6 ADD SLOAD AND SWAP4 DUP5 PUSH2 0x100 DUP6 ADD MSTORE PUSH1 0x9 DUP2 ADD SLOAD PUSH2 0x120 DUP6 ADD MSTORE PUSH1 0xA DUP2 ADD SLOAD PUSH2 0x140 DUP6 ADD MSTORE PUSH1 0xB DUP2 ADD SLOAD PUSH2 0x160 DUP6 ADD MSTORE PUSH1 0xC DUP2 ADD SLOAD PUSH2 0x180 DUP6 ADD MSTORE PUSH1 0xD DUP2 ADD SLOAD PUSH2 0x1A0 DUP6 ADD MSTORE PUSH1 0xE DUP2 ADD SLOAD PUSH2 0x1C0 DUP6 ADD MSTORE ADD SLOAD SWAP2 ADD MSTORE DUP1 PUSH2 0x8A2 JUMPI JUMPDEST POP PUSH1 0xFF DUP4 MLOAD SWAP3 AND DUP3 MSTORE PUSH1 0x20 DUP3 ADD MSTORE RETURN JUMPDEST SWAP2 POP DUP4 PUSH2 0x892 JUMP JUMPDEST PUSH1 0x1 PUSH1 0x20 DUP2 SWAP3 PUSH1 0x40 MLOAD PUSH2 0x8BC DUP2 PUSH2 0x2D0F JUMP JUMPDEST PUSH1 0xFF DUP13 SLOAD DUP6 DUP1 PUSH1 0xA0 SHL SUB DUP2 AND DUP4 MSTORE PUSH1 0xA0 SHR AND DUP4 DUP3 ADD MSTORE DUP2 MSTORE ADD SWAP9 ADD SWAP2 ADD SWAP1 SWAP7 PUSH2 0x807 JUMP JUMPDEST PUSH1 0x2 PUSH1 0x20 PUSH1 0x1 SWAP3 PUSH1 0x40 MLOAD PUSH2 0x8F3 DUP2 PUSH2 0x2D0F JUMP JUMPDEST DUP5 DUP1 PUSH1 0xA0 SHL SUB DUP7 SLOAD AND DUP2 MSTORE DUP5 DUP1 PUSH1 0xA0 SHL SUB DUP6 DUP8 ADD SLOAD AND DUP4 DUP3 ADD MSTORE DUP2 MSTORE ADD SWAP3 ADD SWAP3 ADD SWAP2 SWAP1 PUSH2 0x7C4 JUMP JUMPDEST CALLVALUE PUSH2 0x4CC JUMPI PUSH1 0x20 CALLDATASIZE PUSH1 0x3 NOT ADD SLT PUSH2 0x4CC JUMPI PUSH1 0x1 PUSH1 0x1 PUSH1 0xA0 SHL SUB PUSH2 0x93C PUSH2 0x2CA0 JUMP JUMPDEST AND PUSH1 0x0 MSTORE PUSH1 0x12 PUSH1 0x20 MSTORE PUSH1 0x40 PUSH1 0x0 KECCAK256 PUSH1 0x40 MLOAD SWAP1 PUSH2 0x957 DUP3 PUSH2 0x2CF3 JUMP JUMPDEST DUP1 SLOAD PUSH1 0x1 PUSH1 0x1 PUSH1 0xA0 SHL SUB SWAP1 DUP2 AND DUP4 MSTORE PUSH1 0x1 DUP3 ADD SLOAD DUP2 AND PUSH1 0x20 DUP5 ADD MSTORE PUSH1 0x2 DUP3 ADD SLOAD AND PUSH1 0x40 DUP4 ADD MSTORE PUSH2 0x989 PUSH1 0x3 DUP3 ADD PUSH2 0x2EA9 JUMP JUMPDEST PUSH1 0x60 DUP4 ADD MSTORE PUSH1 0x4 DUP2 ADD DUP1 SLOAD PUSH2 0x99D DUP2 PUSH2 0x2EFD JUMP JUMPDEST SWAP2 PUSH2 0x9AB PUSH1 0x40 MLOAD SWAP4 DUP5 PUSH2 0x2D2A JUMP JUMPDEST DUP2 DUP4 MSTORE PUSH1 0x20 DUP4 ADD SWAP1 PUSH1 0x0 MSTORE PUSH1 0x20 PUSH1 0x0 KECCAK256 PUSH1 0x0 SWAP2 JUMPDEST DUP4 DUP4 LT PUSH2 0xAEF JUMPI POP POP POP POP PUSH1 0x80 DUP4 ADD MSTORE PUSH1 0x5 DUP2 ADD DUP1 SLOAD PUSH2 0x9DE DUP2 PUSH2 0x2EFD JUMP JUMPDEST SWAP2 PUSH2 0x9EC PUSH1 0x40 MLOAD SWAP4 DUP5 PUSH2 0x2D2A JUMP JUMPDEST DUP2 DUP4 MSTORE PUSH1 0x20 DUP4 ADD SWAP1 PUSH1 0x0 MSTORE PUSH1 0x20 PUSH1 0x0 KECCAK256 PUSH1 0x0 SWAP2 JUMPDEST DUP4 DUP4 LT PUSH2 0xAB9 JUMPI POP POP POP POP PUSH1 0xA0 DUP4 ADD MSTORE PUSH2 0xAB5 PUSH1 0x6 DUP3 ADD SLOAD SWAP2 DUP3 PUSH1 0xC0 DUP6 ADD MSTORE PUSH1 0x7 DUP2 ADD SLOAD PUSH1 0xE0 DUP6 ADD MSTORE PUSH1 0xFF PUSH1 0x8 DUP3 ADD SLOAD AND PUSH2 0x100 DUP6 ADD MSTORE PUSH1 0x9 DUP2 ADD SLOAD SWAP4 DUP5 PUSH2 0x120 DUP3 ADD MSTORE PUSH2 0x1E0 PUSH1 0xF PUSH1 0xA DUP5 ADD SLOAD SWAP4 DUP5 PUSH2 0x140 DUP6 ADD MSTORE PUSH1 0xB DUP2 ADD SLOAD PUSH2 0x160 DUP6 ADD MSTORE PUSH1 0xC DUP2 ADD SLOAD PUSH2 0x180 DUP6 ADD MSTORE PUSH1 0xD DUP2 ADD SLOAD PUSH2 0x1A0 DUP6 ADD MSTORE PUSH1 0xE DUP2 ADD SLOAD PUSH2 0x1C0 DUP6 ADD MSTORE ADD SLOAD SWAP2 ADD MSTORE PUSH2 0xA91 DUP4 DUP3 PUSH2 0x2F14 JUMP JUMPDEST SWAP1 PUSH1 0x40 MLOAD SWAP5 DUP6 SWAP5 DUP6 SWAP1 SWAP5 SWAP4 SWAP3 PUSH1 0x60 SWAP3 PUSH1 0x80 DUP4 ADD SWAP7 DUP4 MSTORE PUSH1 0x20 DUP4 ADD MSTORE PUSH1 0x40 DUP3 ADD MSTORE ADD MSTORE JUMP JUMPDEST SUB SWAP1 RETURN JUMPDEST PUSH1 0x1 PUSH1 0x20 DUP2 SWAP3 PUSH1 0x40 MLOAD PUSH2 0xACB DUP2 PUSH2 0x2D0F JUMP JUMPDEST PUSH1 0xFF DUP7 SLOAD DUP6 DUP1 PUSH1 0xA0 SHL SUB DUP2 AND DUP4 MSTORE PUSH1 0xA0 SHR AND DUP4 DUP3 ADD MSTORE DUP2 MSTORE ADD SWAP3 ADD SWAP3 ADD SWAP2 SWAP1 PUSH2 0xA00 JUMP JUMPDEST PUSH1 0x2 PUSH1 0x20 PUSH1 0x1 SWAP3 PUSH1 0x40 MLOAD PUSH2 0xB02 DUP2 PUSH2 0x2D0F JUMP JUMPDEST DUP5 DUP1 PUSH1 0xA0 SHL SUB DUP7 SLOAD AND DUP2 MSTORE DUP5 DUP1 PUSH1 0xA0 SHL SUB DUP6 DUP8 ADD SLOAD AND DUP4 DUP3 ADD MSTORE DUP2 MSTORE ADD SWAP3 ADD SWAP3 ADD SWAP2 SWAP1 PUSH2 0x9BF JUMP JUMPDEST CALLVALUE PUSH2 0x4CC JUMPI PUSH1 0x20 CALLDATASIZE PUSH1 0x3 NOT ADD SLT PUSH2 0x4CC JUMPI PUSH2 0x1B PUSH2 0xB46 PUSH2 0x2CA0 JUMP JUMPDEST PUSH2 0xB4E PUSH2 0x322E JUMP JUMPDEST PUSH2 0x30C3 JUMP JUMPDEST CALLVALUE PUSH2 0x4CC JUMPI PUSH1 0x0 CALLDATASIZE PUSH1 0x3 NOT ADD SLT PUSH2 0x4CC JUMPI PUSH2 0xAB5 PUSH2 0xB6F PUSH2 0x2E56 JUMP JUMPDEST PUSH1 0x40 MLOAD SWAP2 DUP3 SWAP2 PUSH1 0x20 DUP4 MSTORE PUSH1 0x20 DUP4 ADD SWAP1 PUSH2 0x2CB6 JUMP JUMPDEST CALLVALUE PUSH2 0x4CC JUMPI PUSH1 0x20 CALLDATASIZE PUSH1 0x3 NOT ADD SLT PUSH2 0x4CC JUMPI PUSH2 0xB9C PUSH2 0x2CA0 JUMP JUMPDEST PUSH1 0x1 PUSH1 0x1 PUSH1 0xA0 SHL SUB DUP2 AND PUSH1 0x0 SWAP1 DUP2 MSTORE PUSH1 0x14 PUSH1 0x20 MSTORE PUSH1 0x40 SWAP1 KECCAK256 SLOAD PUSH2 0xBC6 SWAP1 PUSH1 0xFF AND ISZERO ISZERO PUSH1 0x1 EQ PUSH2 0x3044 JUMP JUMPDEST PUSH8 0xDE0B6B3A7640000 PUSH2 0xBE4 PUSH2 0xBDE PUSH1 0x9 SLOAD SWAP4 PUSH2 0x3127 JUMP JUMPDEST DUP4 PUSH2 0x2F21 JUMP JUMPDEST DIV PUSH1 0xB SLOAD PUSH3 0x93A80 DUP2 ADD LT PUSH2 0xD5A JUMPI DUP2 ISZERO PUSH2 0xD70 JUMPI PUSH2 0xC01 PUSH2 0x2E56 JUMP JUMPDEST PUSH1 0x0 NOT NUMBER ADD NUMBER DUP2 GT PUSH2 0xD5A JUMPI PUSH2 0xC56 SWAP1 PUSH1 0x40 MLOAD PUSH2 0xC37 DUP2 PUSH2 0xC29 PUSH1 0x20 DUP3 ADD SWAP5 BLOCKHASH PREVRANDAO TIMESTAMP DUP8 PUSH2 0x3089 JUMP JUMPDEST SUB PUSH1 0x1F NOT DUP2 ADD DUP4 MSTORE DUP3 PUSH2 0x2D2A JUMP JUMPDEST MLOAD SWAP1 KECCAK256 DUP3 MLOAD PUSH1 0x1 PUSH1 0x1 PUSH1 0xA0 SHL SUB SWAP4 SWAP2 PUSH2 0xC50 SWAP2 SWAP1 PUSH2 0x309E JUMP JUMPDEST SWAP1 PUSH2 0x2F6D JUMP JUMPDEST MLOAD AND SWAP2 DUP3 ISZERO PUSH2 0xCE3 JUMPI PUSH1 0x0 DUP1 DUP1 DUP1 SWAP4 DUP7 DUP3 MSTORE PUSH1 0x12 PUSH1 0x20 MSTORE PUSH1 0xC PUSH1 0x40 DUP4 KECCAK256 ADD PUSH2 0xC7F DUP8 DUP3 SLOAD PUSH2 0x2F14 JUMP JUMPDEST SWAP1 SSTORE DUP7 DUP3 CALL ISZERO PUSH2 0xCD7 JUMPI PUSH32 0x6DBDD944BDF6514ACA26947D204530E2ECBEA365677EF05FEE7A56D54A145697 SWAP2 PUSH1 0x0 PUSH1 0x9 SSTORE TIMESTAMP PUSH1 0xB SSTORE PUSH2 0xCC0 DUP3 PUSH1 0x5 SLOAD PUSH2 0x2F14 JUMP JUMPDEST PUSH1 0x5 SSTORE PUSH2 0xCD2 PUSH1 0x40 MLOAD SWAP3 DUP4 SWAP3 DUP4 PUSH2 0x30A8 JUMP JUMPDEST SUB SWAP1 LOG1 STOP JUMPDEST PUSH1 0x40 MLOAD RETURNDATASIZE PUSH1 0x0 DUP3 RETURNDATACOPY RETURNDATASIZE SWAP1 REVERT JUMPDEST POP POP POP PUSH32 0x974C744AFA915921DDDB0F53FDBFDD97FEF12A94DB2457DCF878AA94AD687274 PUSH1 0x80 PUSH1 0x40 MLOAD PUSH1 0x20 DUP2 MSTORE PUSH1 0x31 PUSH1 0x20 DUP3 ADD MSTORE PUSH32 0x52616E646F6D206164647265737320776173207A65726F20616464726573732E PUSH1 0x40 DUP3 ADD MSTORE PUSH17 0x10283632B0B9B2903A393C9030B3B0B4B7 PUSH1 0x79 SHL PUSH1 0x60 DUP3 ADD MSTORE LOG1 STOP JUMPDEST PUSH4 0x4E487B71 PUSH1 0xE0 SHL PUSH1 0x0 MSTORE PUSH1 0x11 PUSH1 0x4 MSTORE PUSH1 0x24 PUSH1 0x0 REVERT JUMPDEST PUSH1 0x40 MLOAD PUSH3 0x461BCD PUSH1 0xE5 SHL DUP2 MSTORE PUSH1 0x20 PUSH1 0x4 DUP3 ADD MSTORE PUSH1 0x18 PUSH1 0x24 DUP3 ADD MSTORE PUSH24 0x4E6F207265776172647320746F2064697374726962757465 PUSH1 0x40 SHL PUSH1 0x44 DUP3 ADD MSTORE PUSH1 0x64 SWAP1 REVERT JUMPDEST PUSH1 0x40 CALLDATASIZE PUSH1 0x3 NOT ADD SLT PUSH2 0x4CC JUMPI PUSH2 0xDC4 PUSH2 0x2CA0 JUMP JUMPDEST PUSH1 0x24 CALLDATALOAD PUSH1 0x1 PUSH1 0x1 PUSH1 0xA0 SHL SUB DUP2 AND SWAP1 DUP2 DUP2 SUB PUSH2 0x4CC JUMPI PUSH1 0x1 PUSH1 0x1 PUSH1 0xA0 SHL SUB DUP4 AND SWAP2 DUP3 ISZERO PUSH2 0x17DD JUMPI PUSH1 0x0 MSTORE PUSH1 0x14 PUSH1 0x20 MSTORE PUSH1 0x1 PUSH1 0xFF PUSH1 0x40 PUSH1 0x0 KECCAK256 SLOAD AND ISZERO ISZERO SUB PUSH2 0x178C JUMPI PUSH2 0xE1F PUSH2 0xE19 PUSH8 0xDE0B6B3A7640000 SWAP3 PUSH2 0x3127 JUMP JUMPDEST CALLVALUE PUSH2 0x2F21 JUMP JUMPDEST DIV SWAP1 PUSH1 0xF SLOAD PUSH1 0x61 DUP2 MUL SWAP1 DUP1 DUP3 DIV PUSH1 0x61 EQ SWAP1 ISZERO OR ISZERO PUSH2 0xD5A JUMPI PUSH1 0x64 SWAP1 DIV DUP3 LT PUSH2 0x1738 JUMPI PUSH1 0xC SLOAD SWAP1 PUSH1 0xFF DUP1 DUP4 AND SWAP3 PUSH1 0x8 SHR AND SWAP2 CALLER PUSH1 0x0 MSTORE PUSH1 0x12 PUSH1 0x20 MSTORE PUSH1 0x40 PUSH1 0x0 KECCAK256 SWAP3 DUP3 PUSH1 0x0 MSTORE PUSH1 0x12 PUSH1 0x20 MSTORE PUSH1 0x40 PUSH1 0x0 KECCAK256 PUSH1 0x6 DUP6 ADD SWAP7 DUP8 SLOAD PUSH2 0x16F9 JUMPI PUSH1 0x6 DUP3 ADD SLOAD ISZERO PUSH2 0x16BE JUMPI DUP6 SLOAD PUSH1 0x1 PUSH1 0x1 PUSH1 0xA0 SHL SUB AND ISZERO PUSH2 0x169E JUMPI JUMPDEST DUP2 SLOAD PUSH1 0x1 PUSH1 0x1 PUSH1 0xA0 SHL SUB AND ISZERO PUSH2 0x167D JUMPI JUMPDEST POP POP PUSH1 0xD SLOAD PUSH1 0x2 DUP6 ADD DUP1 SLOAD SWAP1 SWAP5 SWAP2 SWAP1 PUSH1 0x1 PUSH1 0x1 PUSH1 0xA0 SHL SUB AND PUSH2 0x161D JUMPI CALLER PUSH1 0x0 MSTORE PUSH1 0x12 PUSH1 0x20 MSTORE PUSH1 0x40 PUSH1 0x0 KECCAK256 SWAP2 CALLER DUP2 EQ PUSH2 0x15DB JUMPI PUSH1 0x40 SWAP1 PUSH1 0x0 SWAP1 DUP2 MSTORE PUSH1 0x12 PUSH1 0x20 MSTORE KECCAK256 SWAP1 PUSH1 0x3 DUP3 ADD PUSH2 0xEF4 DUP3 DUP3 SLOAD PUSH2 0x32D7 JUMP JUMPDEST ISZERO PUSH2 0x15A2 JUMPI POP PUSH1 0xE DUP3 ADD SLOAD PUSH1 0x0 SWAP1 PUSH2 0x159A JUMPI JUMPDEST PUSH2 0x158C JUMPI JUMPDEST PUSH1 0x0 NOT NUMBER ADD NUMBER DUP2 GT PUSH2 0xD5A JUMPI PUSH2 0xF43 PUSH2 0xF48 SWAP2 PUSH1 0x40 MLOAD PUSH2 0xF37 DUP2 PUSH2 0xC29 PUSH1 0x20 DUP3 ADD SWAP5 BLOCKHASH PREVRANDAO TIMESTAMP DUP8 PUSH2 0x3089 JUMP JUMPDEST MLOAD SWAP1 KECCAK256 PUSH1 0x1 SLOAD SWAP1 PUSH2 0x309E JUMP JUMPDEST PUSH2 0x2F81 JUMP JUMPDEST SWAP1 SLOAD PUSH1 0x1 PUSH1 0x1 PUSH1 0xA0 SHL SUB PUSH1 0x3 SWAP3 SWAP1 SWAP3 SHL SHR DUP2 AND PUSH1 0x0 SWAP1 DUP2 MSTORE PUSH1 0x12 PUSH1 0x20 MSTORE PUSH1 0x40 SWAP1 KECCAK256 DUP1 SLOAD SWAP1 SWAP3 SWAP2 AND DUP1 ISZERO PUSH2 0x154C JUMPI DUP5 PUSH2 0xF7F SWAP2 PUSH2 0x32FE JUMP JUMPDEST DUP3 SLOAD DUP3 SLOAD PUSH1 0x40 MLOAD PUSH1 0x1 PUSH1 0x1 PUSH1 0xA0 SHL SUB SWAP2 DUP3 AND SWAP4 SWAP3 PUSH32 0xA1B30426557565C4FA85CE5F9C88513D7D3F49D21EB30569C249B07B037831EF SWAP3 DUP3 SWAP2 PUSH2 0xFC6 SWAP2 CALLER SWAP2 DUP9 SWAP2 AND DUP5 PUSH2 0x32B4 JUMP JUMPDEST SUB SWAP1 LOG1 PUSH1 0x40 MLOAD PUSH1 0x4 DUP6 ADD PUSH2 0xFD9 DUP3 PUSH2 0x2D0F JUMP JUMPDEST CALLER DUP3 MSTORE PUSH1 0x20 DUP3 ADD SWAP4 DUP5 MSTORE DUP1 SLOAD SWAP4 PUSH1 0x1 PUSH1 0x40 SHL DUP6 LT ISZERO PUSH2 0x149E JUMPI PUSH1 0x1 DUP6 ADD DUP1 DUP4 SSTORE DUP6 LT ISZERO PUSH2 0x1536 JUMPI PUSH1 0x0 SWAP2 DUP3 MSTORE PUSH1 0x20 SWAP1 SWAP2 KECCAK256 SWAP2 MLOAD PUSH1 0x1 SWAP5 DUP6 SHL SWAP1 SWAP3 ADD DUP1 SLOAD PUSH1 0x1 PUSH1 0x1 PUSH1 0xA0 SHL SUB SWAP4 DUP5 AND PUSH1 0x1 PUSH1 0x1 PUSH1 0xA0 SHL SUB NOT SWAP2 DUP3 AND OR DUP3 SSTORE SWAP2 MLOAD SWAP5 ADD DUP1 SLOAD SWAP5 SWAP1 SWAP3 AND SWAP4 AND SWAP3 SWAP1 SWAP3 OR SWAP1 SWAP2 SSTORE PUSH2 0x105B SWAP1 PUSH1 0x3 DUP4 ADD PUSH2 0x1055 CALLER DUP3 PUSH2 0x2FFE JUMP JUMPDEST SLOAD PUSH2 0x32D7 JUMP JUMPDEST PUSH2 0x1527 JUMPI JUMPDEST POP JUMPDEST PUSH1 0x1 DUP3 ADD DUP1 SLOAD PUSH1 0x1 PUSH1 0x1 PUSH1 0xA0 SHL SUB AND ISZERO PUSH2 0x14BF JUMPI JUMPDEST POP POP PUSH1 0x0 SWAP1 JUMPDEST DUP3 PUSH1 0xFF DUP4 AND LT PUSH2 0x1365 JUMPI JUMPDEST POP POP POP JUMPDEST PUSH1 0xE DUP4 ADD DUP1 SLOAD PUSH2 0x1320 JUMPI DUP4 SLOAD PUSH2 0x10AA SWAP1 PUSH1 0x1 PUSH1 0x1 PUSH1 0xA0 SHL SUB AND PUSH2 0x2FB4 JUMP JUMPDEST PUSH1 0x1 SLOAD SWAP1 SSTORE PUSH32 0x411C58B3C1E8A39D91C901E5C807BFF1401650BEEDC45ABA65112756BB929B4 PUSH1 0x80 PUSH1 0x1 DUP1 PUSH1 0xA0 SHL SUB DUP6 SLOAD AND PUSH32 0x6BAF10092C7EA144C4FB56FB8CF641E1F00E291A535B5D54B547EADB29485A7 PUSH1 0x20 PUSH1 0x40 MLOAD DUP4 DUP2 MSTORE LOG1 PUSH1 0x1 DUP7 ADD SLOAD SWAP5 SLOAD PUSH1 0x40 DUP1 MLOAD PUSH1 0x1 PUSH1 0x1 PUSH1 0xA0 SHL SUB SWAP8 DUP9 AND DUP1 DUP3 MSTORE SWAP8 SWAP1 SWAP3 AND PUSH1 0x20 DUP4 ADD MSTORE DUP2 ADD SWAP2 SWAP1 SWAP2 MSTORE PUSH1 0x60 DUP2 ADD DUP8 SWAP1 MSTORE LOG1 PUSH1 0x64 PUSH2 0x114E DUP2 PUSH2 0x1146 DUP5 CALLVALUE PUSH2 0x2F21 JUMP JUMPDEST DIV SWAP3 DUP7 PUSH2 0x2F21 JUMP JUMPDEST DIV SWAP2 PUSH1 0x0 MSTORE PUSH1 0x12 PUSH1 0x20 MSTORE PUSH1 0x40 PUSH1 0x0 KECCAK256 SWAP1 PUSH1 0x1 DUP1 PUSH1 0xA0 SHL SUB DUP3 SLOAD AND DUP1 PUSH2 0x1281 JUMPI JUMPDEST POP POP POP POP PUSH1 0x6 SLOAD PUSH1 0x0 DUP1 DUP1 DUP1 PUSH1 0x64 PUSH2 0x118C PUSH1 0xFF DUP8 PUSH1 0xA0 SHR AND CALLVALUE PUSH2 0x2F21 JUMP JUMPDEST DIV DUP1 SWAP6 DUP3 SWAP1 DUP3 ISZERO PUSH2 0x1277 JUMPI JUMPDEST PUSH1 0x1 PUSH1 0x1 PUSH1 0xA0 SHL SUB AND SWAP1 CALL ISZERO PUSH2 0xCD7 JUMPI PUSH1 0x6 SLOAD PUSH1 0x40 MLOAD PUSH32 0x5AA75BDB3269082E844D731608AFAE2A07CBF194F251E3F857B870AF86B754FB SWAP3 SWAP1 SWAP2 DUP3 SWAP2 PUSH2 0x11E7 SWAP2 PUSH1 0x1 PUSH1 0x1 PUSH1 0xA0 SHL SUB AND DUP4 PUSH2 0x30A8 JUMP JUMPDEST SUB SWAP1 LOG1 PUSH1 0x64 PUSH2 0x11FB PUSH1 0xFF PUSH1 0x8 SLOAD AND CALLVALUE PUSH2 0x2F21 JUMP JUMPDEST DIV SWAP3 PUSH1 0x0 DUP1 DUP1 DUP1 DUP8 PUSH1 0x1 DUP1 PUSH1 0xA0 SHL SUB PUSH1 0x10 SLOAD AND DUP3 DUP3 ISZERO PUSH2 0x126E JUMPI JUMPDEST CALL ISZERO PUSH2 0xCD7 JUMPI PUSH2 0x122B PUSH2 0x1269 SWAP5 PUSH1 0x7 SLOAD PUSH2 0x2F14 JUMP JUMPDEST PUSH1 0x7 SSTORE PUSH2 0x1239 DUP4 DUP3 SLOAD PUSH2 0x2F14 JUMP JUMPDEST SWAP1 SSTORE PUSH1 0xF TIMESTAMP SWAP2 ADD SSTORE PUSH2 0x125E PUSH1 0x64 PUSH2 0x1255 PUSH1 0xFF PUSH1 0xA SLOAD AND CALLVALUE PUSH2 0x2F21 JUMP JUMPDEST DIV PUSH1 0x9 SLOAD PUSH2 0x2F14 JUMP JUMPDEST PUSH1 0x9 SSTORE PUSH1 0x2 SLOAD PUSH2 0x2F14 JUMP JUMPDEST PUSH1 0x2 SSTORE STOP JUMPDEST POP PUSH2 0x8FC PUSH2 0x1216 JUMP JUMPDEST PUSH2 0x8FC SWAP2 POP PUSH2 0x1198 JUMP JUMPDEST PUSH1 0x0 DUP1 DUP1 DUP5 DUP2 SWAP5 DUP3 DUP3 ISZERO PUSH2 0x1317 JUMPI JUMPDEST CALL ISZERO PUSH2 0xCD7 JUMPI PUSH1 0x9 SWAP3 PUSH32 0x153F77382D7E07DE734977AE352E9B1F5F8AD4B1C0033C883A9A33456A87836F PUSH1 0x80 PUSH2 0x12FD SWAP4 PUSH1 0x1 DUP1 PUSH1 0xA0 SHL SUB DUP7 SLOAD AND SWAP1 PUSH1 0x40 MLOAD SWAP2 DUP3 MSTORE CALLER PUSH1 0x20 DUP4 ADD MSTORE PUSH1 0x40 DUP3 ADD MSTORE PUSH1 0x1 PUSH1 0x60 DUP3 ADD MSTORE LOG1 PUSH1 0xB DUP4 ADD PUSH2 0x12F3 DUP3 DUP3 SLOAD PUSH2 0x2F14 JUMP JUMPDEST SWAP1 SSTORE PUSH1 0x3 SLOAD PUSH2 0x2F14 JUMP JUMPDEST PUSH1 0x3 SSTORE ADD PUSH2 0x130C DUP4 DUP3 SLOAD PUSH2 0x2F14 JUMP JUMPDEST SWAP1 SSTORE DUP4 DUP1 DUP1 DUP1 PUSH2 0x116E JUMP JUMPDEST POP PUSH2 0x8FC PUSH2 0x1290 JUMP JUMPDEST PUSH1 0x40 MLOAD PUSH3 0x461BCD PUSH1 0xE5 SHL DUP2 MSTORE PUSH1 0x20 PUSH1 0x4 DUP3 ADD MSTORE PUSH1 0x1E PUSH1 0x24 DUP3 ADD MSTORE PUSH32 0x5573657220697320616C726561647920696E2072616E646F6D206C6973740000 PUSH1 0x44 DUP3 ADD MSTORE PUSH1 0x64 SWAP1 REVERT JUMPDEST PUSH1 0x2 DUP2 ADD SLOAD PUSH1 0x1 PUSH1 0x1 PUSH1 0xA0 SHL SUB AND SWAP1 DUP2 ISZERO PUSH2 0x14B9 JUMPI SLOAD PUSH1 0x1 PUSH1 0x1 PUSH1 0xA0 SHL SUB AND DUP2 EQ PUSH2 0x14B4 JUMPI PUSH1 0x0 MSTORE PUSH1 0x12 PUSH1 0x20 MSTORE PUSH1 0x40 PUSH1 0x0 KECCAK256 PUSH1 0x5 DUP2 ADD SWAP1 PUSH2 0x13A5 DUP4 PUSH2 0x3032 JUMP JUMPDEST PUSH1 0x40 MLOAD SWAP3 PUSH2 0x13B2 DUP5 PUSH2 0x2D0F JUMP JUMPDEST CALLER DUP5 MSTORE PUSH1 0xFF PUSH1 0x20 DUP6 ADD SWAP3 AND DUP3 MSTORE DUP1 SLOAD PUSH1 0x1 PUSH1 0x40 SHL DUP2 LT ISZERO PUSH2 0x149E JUMPI PUSH2 0x13DC SWAP2 PUSH1 0x1 DUP3 ADD DUP2 SSTORE PUSH2 0x2F9C JUMP JUMPDEST SWAP2 SWAP1 SWAP2 PUSH2 0x1488 JUMPI SWAP3 MLOAD DUP2 SLOAD SWAP4 MLOAD PUSH1 0x1 PUSH1 0x1 PUSH1 0xA8 SHL SUB NOT SWAP1 SWAP5 AND PUSH1 0x1 PUSH1 0x1 PUSH1 0xA0 SHL SUB SWAP2 SWAP1 SWAP2 AND OR PUSH1 0xA0 SWAP4 SWAP1 SWAP4 SHL PUSH1 0xFF PUSH1 0xA0 SHL AND SWAP3 SWAP1 SWAP3 OR SWAP1 SWAP2 SSTORE PUSH1 0xA DUP2 ADD DUP1 SLOAD PUSH2 0x1482 SWAP3 SWAP2 SWAP1 PUSH2 0x142C SWAP1 DUP11 SWAP1 PUSH2 0x2F14 JUMP JUMPDEST SWAP1 SSTORE DUP1 SLOAD PUSH32 0x85DB3F10B88EA7FC653F3F818097A3FC3C543196ED60CAD2251DF922BCC9AD7F SWAP1 PUSH1 0x60 SWAP1 PUSH1 0x1 PUSH1 0x1 PUSH1 0xA0 SHL SUB AND PUSH1 0xFF PUSH2 0x1469 DUP8 PUSH2 0x3032 JUMP JUMPDEST PUSH1 0x40 MLOAD SWAP3 DUP4 MSTORE CALLER PUSH1 0x20 DUP5 ADD MSTORE AND PUSH1 0x40 DUP3 ADD MSTORE LOG1 SWAP2 PUSH2 0x3021 JUMP JUMPDEST SWAP1 PUSH2 0x107D JUMP JUMPDEST PUSH4 0x4E487B71 PUSH1 0xE0 SHL PUSH1 0x0 MSTORE PUSH1 0x0 PUSH1 0x4 MSTORE PUSH1 0x24 PUSH1 0x0 REVERT JUMPDEST PUSH4 0x4E487B71 PUSH1 0xE0 SHL PUSH1 0x0 MSTORE PUSH1 0x41 PUSH1 0x4 MSTORE PUSH1 0x24 PUSH1 0x0 REVERT JUMPDEST PUSH2 0x1088 JUMP JUMPDEST POP PUSH2 0x1088 JUMP JUMPDEST SWAP1 SLOAD DUP2 SLOAD PUSH1 0x1 PUSH1 0x1 PUSH1 0xA0 SHL SUB NOT AND PUSH1 0x1 PUSH1 0x1 PUSH1 0xA0 SHL SUB SWAP2 DUP3 AND SWAP1 DUP2 OR SWAP1 SWAP3 SSTORE PUSH1 0x2 DUP4 ADD SLOAD PUSH1 0x40 MLOAD PUSH32 0x8EFA008F8AE98AE30D3219078A298C85BC25A62F50C57ED9A3EC838B7EED9F47 SWAP4 SWAP1 SWAP3 DUP4 SWAP3 PUSH2 0x151D SWAP3 CALLER SWAP3 SWAP2 SWAP1 SWAP2 AND SWAP1 DUP5 PUSH2 0x32B4 JUMP JUMPDEST SUB SWAP1 LOG1 DUP8 DUP1 PUSH2 0x1077 JUMP JUMPDEST PUSH2 0x1530 SWAP1 PUSH2 0x3354 JUMP JUMPDEST DUP9 PUSH2 0x1060 JUMP JUMPDEST PUSH4 0x4E487B71 PUSH1 0xE0 SHL PUSH1 0x0 MSTORE PUSH1 0x32 PUSH1 0x4 MSTORE PUSH1 0x24 PUSH1 0x0 REVERT JUMPDEST PUSH1 0x40 MLOAD PUSH3 0x461BCD PUSH1 0xE5 SHL DUP2 MSTORE PUSH1 0x20 PUSH1 0x4 DUP3 ADD MSTORE PUSH1 0x18 PUSH1 0x24 DUP3 ADD MSTORE PUSH24 0x139BC81C985B991BDB481C9959995C9C995C88199BDD5B99 PUSH1 0x42 SHL PUSH1 0x44 DUP3 ADD MSTORE PUSH1 0x64 SWAP1 REVERT JUMPDEST PUSH2 0x1595 DUP3 PUSH2 0x3354 JUMP JUMPDEST PUSH2 0xF0C JUMP JUMPDEST POP PUSH1 0x1 PUSH2 0xF07 JUMP JUMPDEST DUP3 SLOAD PUSH2 0x15C8 SWAP3 SWAP2 SWAP1 PUSH2 0x15BE SWAP1 DUP7 SWAP1 PUSH1 0x1 PUSH1 0x1 PUSH1 0xA0 SHL SUB AND PUSH2 0x32FE JUMP JUMPDEST PUSH2 0x1055 CALLER DUP3 PUSH2 0x2FFE JUMP JUMPDEST ISZERO PUSH2 0x1062 JUMPI PUSH2 0x15D6 DUP2 PUSH2 0x3354 JUMP JUMPDEST PUSH2 0x1062 JUMP JUMPDEST PUSH1 0x40 MLOAD PUSH3 0x461BCD PUSH1 0xE5 SHL DUP2 MSTORE PUSH1 0x20 PUSH1 0x4 DUP3 ADD MSTORE PUSH1 0x1A PUSH1 0x24 DUP3 ADD MSTORE PUSH26 0x2CB7BA9031B0B73737BA103932B332B9103CB7BAB939B2B63317 PUSH1 0x31 SHL PUSH1 0x44 DUP3 ADD MSTORE PUSH1 0x64 SWAP1 REVERT JUMPDEST POP POP POP PUSH32 0x1F4FFF38C5E64AF9E759D590409F022EA913658008BB1D0CD35E028244F01ECF PUSH1 0x60 PUSH1 0x40 MLOAD PUSH1 0x20 DUP2 MSTORE PUSH1 0x1F PUSH1 0x20 DUP3 ADD MSTORE PUSH32 0x5573657220416C72656164792068617665207265666572726572207365742E00 PUSH1 0x40 DUP3 ADD MSTORE LOG1 PUSH2 0x108C JUMP JUMPDEST DUP2 SLOAD PUSH1 0x1 PUSH1 0x1 PUSH1 0xA0 SHL SUB NOT AND DUP6 OR SWAP1 SWAP2 SSTORE PUSH2 0x1697 SWAP1 PUSH2 0x2FD9 JUMP JUMPDEST DUP7 DUP1 PUSH2 0xEA4 JUMP JUMPDEST DUP6 SLOAD PUSH1 0x1 PUSH1 0x1 PUSH1 0xA0 SHL SUB NOT AND CALLER SWAP1 DUP2 OR DUP8 SSTORE PUSH2 0x16B9 SWAP1 PUSH2 0x2FD9 JUMP JUMPDEST PUSH2 0xE93 JUMP JUMPDEST PUSH1 0x40 MLOAD PUSH3 0x461BCD PUSH1 0xE5 SHL DUP2 MSTORE PUSH1 0x20 PUSH1 0x4 DUP3 ADD MSTORE PUSH1 0x13 PUSH1 0x24 DUP3 ADD MSTORE PUSH19 0x5265666572726572204E6F7420416374697665 PUSH1 0x68 SHL PUSH1 0x44 DUP3 ADD MSTORE PUSH1 0x64 SWAP1 REVERT JUMPDEST PUSH1 0x40 MLOAD PUSH3 0x461BCD PUSH1 0xE5 SHL DUP2 MSTORE PUSH1 0x20 PUSH1 0x4 DUP3 ADD MSTORE PUSH1 0x17 PUSH1 0x24 DUP3 ADD MSTORE PUSH23 0x155CD95C88185B1C9958591E481C9959DA5CDD195C9959 PUSH1 0x4A SHL PUSH1 0x44 DUP3 ADD MSTORE PUSH1 0x64 SWAP1 REVERT JUMPDEST PUSH1 0x40 MLOAD PUSH3 0x461BCD PUSH1 0xE5 SHL DUP2 MSTORE PUSH1 0x20 PUSH1 0x4 DUP3 ADD MSTORE PUSH1 0x26 PUSH1 0x24 DUP3 ADD MSTORE PUSH32 0x56616C7565206973206C657373207468656E20726567697374726174696F6E20 PUSH1 0x44 DUP3 ADD MSTORE PUSH6 0x3B30B63AB297 PUSH1 0xD1 SHL PUSH1 0x64 DUP3 ADD MSTORE PUSH1 0x84 SWAP1 REVERT JUMPDEST PUSH1 0x40 MLOAD PUSH3 0x461BCD PUSH1 0xE5 SHL DUP2 MSTORE PUSH1 0x20 PUSH1 0x4 DUP3 ADD MSTORE PUSH1 0x23 PUSH1 0x24 DUP3 ADD MSTORE PUSH32 0x43757272656E637920596F752073656C6563746564206E6F7420737570706F72 PUSH1 0x44 DUP3 ADD MSTORE PUSH3 0x1D1959 PUSH1 0xEA SHL PUSH1 0x64 DUP3 ADD MSTORE PUSH1 0x84 SWAP1 REVERT JUMPDEST PUSH1 0x40 MLOAD PUSH3 0x461BCD PUSH1 0xE5 SHL DUP2 MSTORE PUSH1 0x20 PUSH1 0x4 DUP3 ADD MSTORE PUSH1 0x23 PUSH1 0x24 DUP3 ADD MSTORE PUSH32 0x5A65726F20416464726573732063616E6E6F7420626520746865207265666572 PUSH1 0x44 DUP3 ADD MSTORE PUSH3 0x3932B9 PUSH1 0xE9 SHL PUSH1 0x64 DUP3 ADD MSTORE PUSH1 0x84 SWAP1 REVERT JUMPDEST CALLVALUE PUSH2 0x4CC JUMPI PUSH1 0x0 CALLDATASIZE PUSH1 0x3 NOT ADD SLT PUSH2 0x4CC JUMPI PUSH1 0x40 DUP1 MLOAD SWAP1 PUSH2 0x184E DUP2 DUP4 PUSH2 0x2D2A JUMP JUMPDEST PUSH1 0x5 DUP3 MSTORE PUSH5 0x352E302E3 PUSH1 0xDC SHL PUSH1 0x20 DUP4 ADD MSTORE DUP1 MLOAD DUP1 SWAP3 PUSH1 0x20 DUP3 MSTORE DUP1 MLOAD SWAP1 DUP2 PUSH1 0x20 DUP5 ADD MSTORE PUSH1 0x0 JUMPDEST DUP3 DUP2 LT PUSH2 0x1893 JUMPI POP POP PUSH1 0x0 DUP3 DUP3 ADD DUP5 ADD MSTORE PUSH1 0x1F ADD PUSH1 0x1F NOT AND DUP2 ADD SUB ADD SWAP1 RETURN JUMPDEST PUSH1 0x20 DUP3 DUP3 ADD DUP2 ADD MLOAD DUP8 DUP4 ADD DUP8 ADD MSTORE DUP7 SWAP5 POP ADD PUSH2 0x1874 JUMP JUMPDEST CALLVALUE PUSH2 0x4CC JUMPI PUSH1 0x20 CALLDATASIZE PUSH1 0x3 NOT ADD SLT PUSH2 0x4CC JUMPI PUSH1 0x4 CALLDATALOAD PUSH1 0xFF DUP2 AND DUP1 SWAP2 SUB PUSH2 0x4CC JUMPI PUSH2 0x18D1 PUSH2 0x2F54 JUMP JUMPDEST POP PUSH1 0x0 MSTORE PUSH1 0x13 PUSH1 0x20 MSTORE PUSH1 0x40 DUP1 PUSH1 0x0 KECCAK256 PUSH1 0x1 DUP3 MLOAD SWAP2 PUSH2 0x18EE DUP4 PUSH2 0x2D0F JUMP JUMPDEST PUSH1 0xFF DUP2 SLOAD AND DUP4 MSTORE ADD SLOAD PUSH1 0x20 DUP3 ADD MSTORE PUSH2 0x1915 DUP3 MLOAD DUP1 SWAP3 PUSH1 0x20 DUP1 SWAP2 PUSH1 0xFF DUP2 MLOAD AND DUP5 MSTORE ADD MLOAD SWAP2 ADD MSTORE JUMP JUMPDEST RETURN JUMPDEST PUSH1 0x20 CALLDATASIZE PUSH1 0x3 NOT ADD SLT PUSH2 0x4CC JUMPI PUSH8 0xDE0B6B3A7640000 PUSH2 0x1969 PUSH2 0xE19 PUSH2 0x193A PUSH2 0x2CA0 JUMP JUMPDEST PUSH1 0x1 PUSH1 0x1 PUSH1 0xA0 SHL SUB DUP2 AND PUSH1 0x0 SWAP1 DUP2 MSTORE PUSH1 0x14 PUSH1 0x20 MSTORE PUSH1 0x40 SWAP1 KECCAK256 SLOAD PUSH2 0x1964 SWAP1 PUSH1 0xFF AND ISZERO ISZERO PUSH1 0x1 EQ PUSH2 0x3044 JUMP JUMPDEST PUSH2 0x3127 JUMP JUMPDEST DIV CALLER PUSH1 0x0 MSTORE PUSH1 0x12 PUSH1 0x20 MSTORE PUSH1 0x40 PUSH1 0x0 KECCAK256 PUSH1 0x8 DUP2 ADD PUSH1 0xFF DUP2 SLOAD AND PUSH1 0x0 MSTORE PUSH1 0x13 PUSH1 0x20 MSTORE PUSH1 0x40 PUSH1 0x0 KECCAK256 SWAP1 PUSH1 0x1 PUSH1 0x40 MLOAD SWAP3 PUSH2 0x199E DUP5 PUSH2 0x2D0F JUMP JUMPDEST PUSH1 0xFF DUP2 SLOAD AND DUP5 MSTORE ADD SLOAD PUSH1 0x20 DUP4 ADD SWAP1 DUP1 DUP3 MSTORE ISZERO PUSH2 0x1C49 JUMPI DUP1 MLOAD PUSH1 0x5F DUP2 MUL SWAP1 DUP1 DUP3 DIV PUSH1 0x5F EQ SWAP1 ISZERO OR ISZERO PUSH2 0xD5A JUMPI PUSH1 0x64 SWAP1 DIV DUP6 GT SWAP1 DUP2 ISZERO PUSH2 0x1C29 JUMPI JUMPDEST POP ISZERO PUSH2 0x1BD5 JUMPI PUSH1 0xFF DUP1 DUP1 SWAP4 PUSH1 0x7 DUP7 ADD PUSH2 0x19F1 DUP9 DUP3 SLOAD PUSH2 0x2F14 JUMP JUMPDEST SWAP1 SSTORE MLOAD AND AND DUP3 NOT DUP3 SLOAD AND OR DUP2 SSTORE SLOAD AND SWAP2 PUSH1 0x0 SWAP3 PUSH1 0x0 NOT DUP2 ADD SWAP3 PUSH1 0xFF DUP1 DUP6 GT SWAP5 AND SWAP1 JUMPDEST DUP3 DUP7 GT ISZERO PUSH2 0x1A1D JUMPI STOP JUMPDEST PUSH1 0x2 ADD SLOAD PUSH1 0x1 PUSH1 0x1 PUSH1 0xA0 SHL SUB AND PUSH1 0x0 SWAP1 DUP2 MSTORE PUSH1 0x12 PUSH1 0x20 MSTORE PUSH1 0x40 SWAP1 KECCAK256 DUP5 PUSH2 0xD5A JUMPI DUP2 DUP7 EQ PUSH2 0x1A57 JUMPI SWAP5 PUSH1 0x0 NOT DUP2 EQ PUSH2 0xD5A JUMPI PUSH1 0x1 ADD SWAP5 PUSH2 0x1A13 JUMP JUMPDEST DUP1 SWAP6 POP PUSH1 0xFF SWAP3 SWAP4 SWAP5 POP PUSH1 0x8 SWAP2 POP ADD SLOAD AND SWAP1 DUP1 DUP3 GT SWAP2 DUP3 ISZERO PUSH2 0x1BCB JUMPI JUMPDEST POP POP DUP1 PUSH2 0x1BB8 JUMPI JUMPDEST ISZERO PUSH2 0x1AE8 JUMPI PUSH2 0x1A8F PUSH1 0xD DUP4 ADD SWAP2 DUP3 SLOAD PUSH2 0x2F14 JUMP JUMPDEST SWAP1 SSTORE PUSH1 0x0 DUP1 DUP1 DUP1 PUSH1 0x1 DUP1 PUSH1 0xA0 SHL SUB DUP6 SLOAD AND DUP2 SWAP1 CALLVALUE ISZERO PUSH2 0x1ADE JUMPI JUMPDEST CALLVALUE SWAP2 CALL ISZERO PUSH2 0xCD7 JUMPI SLOAD PUSH1 0x40 MLOAD PUSH1 0x0 DUP1 MLOAD PUSH1 0x20 PUSH2 0x3517 DUP4 CODECOPY DUP2 MLOAD SWAP2 MSTORE SWAP2 DUP2 SWAP1 PUSH2 0xCD2 SWAP1 CALLVALUE SWAP1 CALLER SWAP1 PUSH1 0x1 PUSH1 0x1 PUSH1 0xA0 SHL SUB AND DUP5 PUSH2 0x3264 JUMP JUMPDEST PUSH2 0x8FC SWAP2 POP PUSH2 0x1AA9 JUMP JUMPDEST POP POP PUSH32 0x6696B78FC1713892E6E2BB3DF5CDC986AB67A0C675898C7EF535BD2201CA9451 PUSH1 0x80 PUSH1 0x40 MLOAD PUSH1 0x20 DUP2 MSTORE PUSH1 0x3F PUSH1 0x20 DUP3 ADD MSTORE PUSH32 0x55706C696E6520686173206E6F742075706772616465642E20416D6F756E7420 PUSH1 0x40 DUP3 ADD MSTORE PUSH32 0x7472616E73666572656420746F206C69717569646974792077616C6C65742E00 PUSH1 0x60 DUP3 ADD MSTORE LOG1 PUSH1 0x10 SLOAD PUSH1 0x1 PUSH1 0x1 PUSH1 0xA0 SHL SUB AND PUSH1 0x0 CALLVALUE ISZERO PUSH2 0x1BAF JUMPI JUMPDEST PUSH1 0x0 DUP1 DUP1 DUP1 SWAP4 DUP6 CALLVALUE SWAP2 CALL ISZERO PUSH2 0xCD7 JUMPI PUSH2 0xCD2 PUSH1 0x0 DUP1 MLOAD PUSH1 0x20 PUSH2 0x3517 DUP4 CODECOPY DUP2 MLOAD SWAP2 MSTORE SWAP2 PUSH1 0x40 MLOAD SWAP2 DUP3 SWAP2 CALLVALUE SWAP1 CALLER SWAP1 DUP5 PUSH2 0x3264 JUMP JUMPDEST POP PUSH2 0x8FC PUSH2 0x1B7D JUMP JUMPDEST POP DUP2 SLOAD PUSH1 0x1 PUSH1 0x1 PUSH1 0xA0 SHL SUB AND ISZERO ISZERO PUSH2 0x1A7B JUMP JUMPDEST EQ SWAP1 POP DUP4 DUP1 PUSH2 0x1A73 JUMP JUMPDEST PUSH1 0x40 MLOAD PUSH3 0x461BCD PUSH1 0xE5 SHL DUP2 MSTORE PUSH1 0x20 PUSH1 0x4 DUP3 ADD MSTORE PUSH1 0x26 PUSH1 0x24 DUP3 ADD MSTORE PUSH32 0x56616C75652073686F756C6420626520657175616C20746F2075706772616465 PUSH1 0x44 DUP3 ADD MSTORE PUSH6 0x2076616C7565 PUSH1 0xD0 SHL PUSH1 0x64 DUP3 ADD MSTORE PUSH1 0x84 SWAP1 REVERT JUMPDEST MLOAD PUSH1 0x69 DUP1 DUP3 MUL SWAP3 POP DUP2 ISZERO SWAP2 DUP4 DIV EQ OR ISZERO PUSH2 0xD5A JUMPI PUSH1 0x64 SWAP1 DIV DUP5 LT DUP6 PUSH2 0x19D7 JUMP JUMPDEST PUSH1 0x40 MLOAD PUSH3 0x461BCD PUSH1 0xE5 SHL DUP2 MSTORE PUSH1 0x20 PUSH1 0x4 DUP3 ADD MSTORE PUSH1 0x1D PUSH1 0x24 DUP3 ADD MSTORE PUSH32 0x596F75206861766520757067726164656420616C6C206C6576656C732E000000 PUSH1 0x44 DUP3 ADD MSTORE PUSH1 0x64 SWAP1 REVERT JUMPDEST CALLVALUE PUSH2 0x4CC JUMPI PUSH1 0x0 CALLDATASIZE PUSH1 0x3 NOT ADD SLT PUSH2 0x4CC JUMPI PUSH1 0x0 DUP1 MLOAD PUSH1 0x20 PUSH2 0x34B7 DUP4 CODECOPY DUP2 MLOAD SWAP2 MSTORE SLOAD PUSH1 0x40 MLOAD PUSH1 0x1 PUSH1 0x1 PUSH1 0xA0 SHL SUB SWAP1 SWAP2 AND DUP2 MSTORE PUSH1 0x20 SWAP1 RETURN JUMPDEST CALLVALUE PUSH2 0x4CC JUMPI PUSH1 0x0 CALLDATASIZE PUSH1 0x3 NOT ADD SLT PUSH2 0x4CC JUMPI PUSH1 0x0 PUSH1 0x9 SLOAD PUSH1 0xB SLOAD SWAP2 PUSH3 0x93A80 DUP4 ADD SWAP3 DUP4 DUP2 GT PUSH2 0xD5A JUMPI TIMESTAMP DUP5 GT PUSH2 0x1D0B JUMPI JUMPDEST POP SWAP2 PUSH1 0x60 SWAP3 PUSH1 0x40 MLOAD SWAP3 DUP4 MSTORE PUSH1 0x20 DUP4 ADD MSTORE PUSH1 0x40 DUP3 ADD MSTORE RETURN JUMPDEST PUSH3 0x93A80 SWAP2 POP TIMESTAMP SWAP1 SUB ADD SWAP2 DUP1 DUP4 GT PUSH2 0xD5A JUMPI SWAP2 PUSH1 0x60 PUSH2 0x1CF4 JUMP JUMPDEST CALLVALUE PUSH2 0x4CC JUMPI PUSH1 0x0 CALLDATASIZE PUSH1 0x3 NOT ADD SLT PUSH2 0x4CC JUMPI PUSH1 0x0 DUP1 MLOAD PUSH1 0x20 PUSH2 0x3537 DUP4 CODECOPY DUP2 MLOAD SWAP2 MSTORE SLOAD PUSH1 0x40 DUP2 SWAP1 SHR PUSH1 0xFF AND ISZERO SWAP1 PUSH1 0x1 PUSH1 0x1 PUSH1 0x40 SHL SUB DUP2 AND DUP1 ISZERO SWAP1 DUP2 PUSH2 0x21C6 JUMPI JUMPDEST PUSH1 0x1 EQ SWAP1 DUP2 PUSH2 0x21BC JUMPI JUMPDEST ISZERO SWAP1 DUP2 PUSH2 0x21B3 JUMPI JUMPDEST POP PUSH2 0x21A2 JUMPI PUSH1 0x1 PUSH1 0x1 PUSH1 0x40 SHL SUB NOT DUP2 AND PUSH1 0x1 OR PUSH1 0x0 DUP1 MLOAD PUSH1 0x20 PUSH2 0x3537 DUP4 CODECOPY DUP2 MLOAD SWAP2 MSTORE SSTORE DUP2 PUSH2 0x2179 JUMPI JUMPDEST POP PUSH1 0xE DUP1 SLOAD PUSH20 0xCEF5767039FA6A66016B802546F123E0C3DDEDC2 PUSH1 0x1 PUSH1 0x1 PUSH1 0xA0 SHL SUB NOT SWAP2 DUP3 AND DUP2 OR DUP4 SSTORE PUSH1 0x0 DUP2 SWAP1 MSTORE PUSH1 0x12 PUSH1 0x20 MSTORE PUSH32 0x7B58F54F0BC0FCD57E50C233F450FE384ADF8C88021DBBEEF24B87DE22945C14 DUP1 SLOAD DUP4 AND DUP3 OR DUP2 SSTORE PUSH32 0x7B58F54F0BC0FCD57E50C233F450FE384ADF8C88021DBBEEF24B87DE22945C15 DUP1 SLOAD SWAP1 SWAP4 AND DUP3 OR SWAP1 SWAP3 SSTORE PUSH10 0x152D02C7E14AF6800000 PUSH32 0x7B58F54F0BC0FCD57E50C233F450FE384ADF8C88021DBBEEF24B87DE22945C1A SSTORE PUSH1 0x1 SWAP3 SWAP2 SWAP1 PUSH2 0x1E61 SWAP1 PUSH2 0x2FB4 JUMP JUMPDEST ADD SSTORE PUSH1 0xE SLOAD PUSH2 0x1E78 SWAP1 PUSH1 0x1 PUSH1 0x1 PUSH1 0xA0 SHL SUB AND PUSH2 0x2FD9 JUMP JUMPDEST PUSH1 0x11 SLOAD PUSH1 0x1 PUSH1 0x40 SHL DUP2 LT ISZERO PUSH2 0x149E JUMPI DUP1 PUSH1 0x1 PUSH2 0x1E99 SWAP3 ADD PUSH1 0x11 SSTORE PUSH1 0x11 PUSH2 0x2F9C JUMP JUMPDEST DUP2 SLOAD PUSH1 0x1 PUSH1 0x1 PUSH1 0xA0 SHL SUB PUSH1 0x3 SWAP3 SWAP1 SWAP3 SHL SWAP2 DUP3 SHL NOT AND PUSH20 0x567F2323251F0AAB15C8DFB1967E4E8A7D42AEE SWAP1 SWAP2 SHL OR SWAP1 SSTORE PUSH1 0x11 SLOAD PUSH1 0x1 PUSH1 0x40 SHL DUP2 LT ISZERO PUSH2 0x149E JUMPI DUP1 PUSH1 0x1 PUSH2 0x1EEA SWAP3 ADD PUSH1 0x11 SSTORE PUSH1 0x11 PUSH2 0x2F9C JUMP JUMPDEST DUP2 SLOAD PUSH1 0x1 PUSH1 0x1 PUSH1 0xA0 SHL SUB PUSH1 0x3 SWAP3 SWAP1 SWAP3 SHL SWAP2 DUP3 SHL NOT AND PUSH20 0x9C85F470F9BA23DFC4FE9531933C2CE2C1739C39 SWAP2 DUP3 SWAP1 SHL OR SWAP1 SWAP2 SSTORE PUSH1 0x14 PUSH1 0x20 MSTORE PUSH32 0x18B399276171EDD4288C75706C059C76F8BA27A208F6AB7DC13DDAC4A813EB06 DUP1 SLOAD PUSH1 0xFF NOT SWAP1 DUP2 AND PUSH1 0x1 SWAP1 DUP2 OR SWAP1 SWAP3 SSTORE PUSH1 0x0 SWAP3 SWAP1 SWAP3 MSTORE PUSH32 0x785E316B530D6F09805CF52EC6944C1FD91D7CF1FFA292231399B4110CC5CA9D DUP1 SLOAD DUP4 AND SWAP1 SWAP2 OR SWAP1 SSTORE PUSH9 0x15AF1D78B58C40000 PUSH1 0xF SSTORE PUSH1 0xC DUP1 SLOAD PUSH2 0xFFFF NOT AND PUSH2 0x83C OR SWAP1 SSTORE PUSH1 0x2 PUSH1 0xD SSTORE PUSH1 0x6 DUP1 SLOAD PUSH1 0x1 PUSH1 0x1 PUSH1 0xA8 SHL SUB NOT AND PUSH21 0x14554F58FCFCEF95F82C8CF6ED9E51E5C79E341481 OR SWAP1 SSTORE PUSH1 0x8 DUP1 SLOAD DUP3 AND PUSH1 0x10 SWAP1 DUP2 OR SWAP1 SWAP2 SSTORE PUSH1 0xA DUP1 SLOAD SWAP1 SWAP3 AND PUSH1 0x4 OR SWAP1 SWAP2 SSTORE TIMESTAMP PUSH1 0xB SSTORE DUP1 SLOAD PUSH1 0x1 PUSH1 0x1 PUSH1 0xA0 SHL SUB NOT AND PUSH20 0x3D7263AFA42C9D47C13CFCDCDC72A131077E5618 OR SWAP1 SSTORE PUSH1 0x40 MLOAD PUSH1 0xE0 DUP2 ADD PUSH1 0x1 PUSH1 0x1 PUSH1 0x40 SHL SUB DUP2 GT DUP3 DUP3 LT OR PUSH2 0x149E JUMPI PUSH1 0x40 MSTORE PUSH9 0x1158E460913D00000 DUP2 MSTORE PUSH9 0x1A055690D9DB80000 PUSH1 0x20 DUP3 ADD MSTORE PUSH9 0x2B5E3AF16B1880000 PUSH1 0x40 DUP3 ADD MSTORE PUSH9 0x9C2007651B2500000 PUSH1 0x60 DUP3 ADD MSTORE PUSH9 0x15AF1D78B58C400000 PUSH1 0x80 DUP3 ADD MSTORE PUSH9 0x281D901F4FDD100000 PUSH1 0xA0 DUP3 ADD MSTORE PUSH9 0x4FB0591B9B30380000 PUSH1 0xC0 DUP3 ADD MSTORE PUSH1 0x0 JUMPDEST PUSH1 0xFF DUP2 AND SWAP1 PUSH1 0x7 DUP3 LT ISZERO PUSH2 0x20FD JUMPI PUSH2 0x20F8 SWAP2 PUSH1 0x1 PUSH2 0x20AF DUP4 PUSH2 0x3032 JUMP JUMPDEST SWAP2 PUSH1 0xFF DUP1 PUSH1 0x40 PUSH1 0x0 PUSH2 0x1FE0 DUP9 PUSH1 0x5 SHL AND DUP11 ADD MLOAD SWAP5 DUP4 DUP4 MLOAD SWAP9 PUSH2 0x20D0 DUP11 PUSH2 0x2D0F JUMP JUMPDEST AND DUP9 MSTORE PUSH1 0x20 DUP9 ADD SWAP6 DUP7 MSTORE DUP2 MSTORE PUSH1 0x13 PUSH1 0x20 MSTORE KECCAK256 SWAP5 MLOAD AND AND PUSH1 0xFF NOT DUP5 SLOAD AND OR DUP4 SSTORE MLOAD SWAP2 ADD SSTORE PUSH2 0x3021 JUMP JUMPDEST PUSH2 0x2092 JUMP JUMPDEST DUP4 PUSH2 0x2106 PUSH2 0x3286 JUMP JUMPDEST PUSH2 0x210E PUSH2 0x3286 JUMP JUMPDEST PUSH2 0x2117 CALLER PUSH2 0x30C3 JUMP JUMPDEST PUSH2 0x211F PUSH2 0x3286 JUMP JUMPDEST PUSH2 0x2125 JUMPI STOP JUMPDEST PUSH1 0xFF PUSH1 0x40 SHL NOT PUSH1 0x0 DUP1 MLOAD PUSH1 0x20 PUSH2 0x3537 DUP4 CODECOPY DUP2 MLOAD SWAP2 MSTORE SLOAD AND PUSH1 0x0 DUP1 MLOAD PUSH1 0x20 PUSH2 0x3537 DUP4 CODECOPY DUP2 MLOAD SWAP2 MSTORE SSTORE PUSH32 0xC7F505B2F371AE2175EE4913F4499E1F2633A7B5936321EED1CDAEB6115181D2 PUSH1 0x20 PUSH1 0x40 MLOAD PUSH1 0x1 DUP2 MSTORE LOG1 STOP JUMPDEST PUSH1 0x1 PUSH1 0x1 PUSH1 0x48 SHL SUB NOT AND PUSH1 0x1 PUSH1 0x1 PUSH1 0x40 SHL ADD OR PUSH1 0x0 DUP1 MLOAD PUSH1 0x20 PUSH2 0x3537 DUP4 CODECOPY DUP2 MLOAD SWAP2 MSTORE SSTORE DUP2 PUSH2 0x1D9E JUMP JUMPDEST PUSH4 0xF92EE8A9 PUSH1 0xE0 SHL PUSH1 0x0 MSTORE PUSH1 0x4 PUSH1 0x0 REVERT JUMPDEST SWAP1 POP ISZERO DUP4 PUSH2 0x1D75 JUMP JUMPDEST ADDRESS EXTCODESIZE ISZERO SWAP2 POP PUSH2 0x1D6D JUMP JUMPDEST DUP4 SWAP2 POP PUSH2 0x1D63 JUMP JUMPDEST CALLVALUE PUSH2 0x4CC JUMPI PUSH1 0x0 CALLDATASIZE PUSH1 0x3 NOT ADD SLT PUSH2 0x4CC JUMPI PUSH1 0x40 MLOAD PUSH1 0x1 SLOAD DUP1 DUP3 MSTORE PUSH1 0x20 DUP3 ADD SWAP1 PUSH1 0x1 PUSH1 0x0 MSTORE PUSH1 0x20 PUSH1 0x0 KECCAK256 SWAP1 PUSH1 0x0 JUMPDEST DUP2 DUP2 LT PUSH2 0x2212 JUMPI PUSH2 0xAB5 DUP6 PUSH2 0xB6F DUP2 DUP8 SUB DUP3 PUSH2 0x2D2A JUMP JUMPDEST DUP3 SLOAD PUSH1 0x1 PUSH1 0x1 PUSH1 0xA0 SHL SUB AND DUP5 MSTORE PUSH1 0x20 SWAP1 SWAP4 ADD SWAP3 PUSH1 0x1 SWAP3 DUP4 ADD SWAP3 ADD PUSH2 0x21FB JUMP JUMPDEST CALLVALUE PUSH2 0x4CC JUMPI PUSH1 0x0 CALLDATASIZE PUSH1 0x3 NOT ADD SLT PUSH2 0x4CC JUMPI PUSH2 0x224A PUSH2 0x322E JUMP JUMPDEST PUSH1 0x0 DUP1 MLOAD PUSH1 0x20 PUSH2 0x34B7 DUP4 CODECOPY DUP2 MLOAD SWAP2 MSTORE DUP1 SLOAD PUSH1 0x1 PUSH1 0x1 PUSH1 0xA0 SHL SUB NOT DUP2 AND SWAP1 SWAP2 SSTORE PUSH1 0x0 SWAP1 PUSH1 0x1 PUSH1 0x1 PUSH1 0xA0 SHL SUB AND PUSH1 0x0 DUP1 MLOAD PUSH1 0x20 PUSH2 0x34F7 DUP4 CODECOPY DUP2 MLOAD SWAP2 MSTORE DUP3 DUP1 LOG3 STOP JUMPDEST CALLVALUE PUSH2 0x4CC JUMPI PUSH1 0x20 CALLDATASIZE PUSH1 0x3 NOT ADD SLT PUSH2 0x4CC JUMPI PUSH1 0x20 PUSH2 0x22A7 PUSH2 0x1964 PUSH2 0x2CA0 JUMP JUMPDEST PUSH1 0x40 MLOAD SWAP1 DUP2 MSTORE RETURN JUMPDEST CALLVALUE PUSH2 0x4CC JUMPI PUSH1 0x40 CALLDATASIZE PUSH1 0x3 NOT ADD SLT PUSH2 0x4CC JUMPI PUSH2 0x22C8 PUSH2 0x2CA0 JUMP JUMPDEST PUSH1 0x24 CALLDATALOAD DUP1 ISZERO ISZERO DUP1 SWAP2 SUB PUSH2 0x4CC JUMPI PUSH2 0x22DD PUSH2 0x322E JUMP JUMPDEST PUSH1 0x1 PUSH1 0x1 PUSH1 0xA0 SHL SUB DUP3 AND PUSH1 0x0 DUP2 DUP2 MSTORE PUSH1 0x14 PUSH1 0x20 MSTORE PUSH1 0x40 SWAP1 KECCAK256 SLOAD SWAP1 SWAP2 SWAP1 PUSH1 0xFF AND ISZERO ISZERO DUP2 EQ PUSH2 0x248A JUMPI PUSH1 0x1 SWAP1 DUP3 PUSH1 0x0 MSTORE PUSH1 0x14 PUSH1 0x20 MSTORE PUSH1 0x40 PUSH1 0x0 KECCAK256 PUSH1 0xFF NOT DUP2 SLOAD AND PUSH1 0xFF DUP4 AND OR SWAP1 SSTORE EQ PUSH1 0x0 EQ PUSH2 0x2374 JUMPI POP PUSH1 0x11 SLOAD SWAP1 PUSH1 0x1 PUSH1 0x40 SHL DUP3 LT ISZERO PUSH2 0x149E JUMPI PUSH2 0x2350 DUP3 PUSH1 0x1 PUSH2 0x1B SWAP5 ADD PUSH1 0x11 SSTORE PUSH1 0x11 PUSH2 0x2F9C JUMP JUMPDEST SWAP1 DUP1 SLOAD PUSH1 0x1 PUSH1 0x1 PUSH1 0xA0 SHL SUB PUSH1 0x3 SWAP4 SWAP1 SWAP4 SHL DUP4 DUP2 SHL NOT SWAP1 SWAP2 AND SWAP3 SWAP1 SWAP4 AND SWAP1 SWAP3 SHL OR SWAP1 SSTORE JUMP JUMPDEST SWAP1 POP PUSH2 0x237E PUSH2 0x2E00 JUMP JUMPDEST DUP1 MLOAD PUSH1 0x0 JUMPDEST DUP2 DUP2 LT PUSH2 0x238C JUMPI STOP JUMPDEST DUP4 PUSH1 0x1 PUSH1 0x1 PUSH1 0xA0 SHL SUB PUSH2 0x239F DUP4 DUP7 PUSH2 0x2F6D JUMP JUMPDEST MLOAD AND EQ PUSH2 0x23AF JUMPI JUMPDEST PUSH1 0x1 ADD PUSH2 0x2383 JUMP JUMPDEST PUSH1 0x0 NOT DUP3 ADD DUP3 DUP2 GT PUSH2 0xD5A JUMPI PUSH1 0x1 PUSH1 0x1 PUSH1 0xA0 SHL SUB SWAP1 PUSH2 0x23CE SWAP1 DUP6 PUSH2 0x2F6D JUMP JUMPDEST MLOAD AND PUSH1 0x0 PUSH1 0x11 SLOAD DUP4 LT ISZERO PUSH2 0x2476 JUMPI PUSH1 0x11 SWAP1 DUP2 SWAP1 MSTORE PUSH32 0x31ECC21A745E3968A04E9570E4425BC18FA8019C68028196B546D1669C200C68 DUP4 ADD DUP1 SLOAD PUSH1 0x1 PUSH1 0x1 PUSH1 0xA0 SHL SUB NOT AND PUSH1 0x1 PUSH1 0x1 PUSH1 0xA0 SHL SUB SWAP1 SWAP4 AND SWAP3 SWAP1 SWAP3 OR SWAP1 SWAP2 SSTORE SLOAD PUSH1 0x0 DUP2 ISZERO PUSH2 0x2462 JUMPI POP PUSH1 0x1 SWAP2 SWAP1 PUSH1 0x0 NOT ADD PUSH2 0x2458 PUSH2 0x2443 DUP3 PUSH1 0x11 PUSH2 0x2F9C JUMP JUMPDEST DUP2 SLOAD SWAP1 PUSH1 0x1 DUP1 PUSH1 0xA0 SHL SUB SWAP1 PUSH1 0x3 SHL SHL NOT AND SWAP1 SSTORE JUMP JUMPDEST PUSH1 0x11 SSTORE SWAP1 POP PUSH2 0x23A7 JUMP JUMPDEST PUSH4 0x4E487B71 PUSH1 0xE0 SHL DUP2 MSTORE PUSH1 0x31 PUSH1 0x4 MSTORE PUSH1 0x24 SWAP1 REVERT JUMPDEST PUSH4 0x4E487B71 PUSH1 0xE0 SHL DUP2 MSTORE PUSH1 0x32 PUSH1 0x4 MSTORE PUSH1 0x24 SWAP1 REVERT JUMPDEST PUSH1 0x40 MLOAD PUSH3 0x461BCD PUSH1 0xE5 SHL DUP2 MSTORE PUSH1 0x20 PUSH1 0x4 DUP3 ADD MSTORE PUSH1 0x12 PUSH1 0x24 DUP3 ADD MSTORE PUSH18 0x14DD185D1D5CC8185B1C9958591E481CD95D PUSH1 0x72 SHL PUSH1 0x44 DUP3 ADD MSTORE PUSH1 0x64 SWAP1 REVERT JUMPDEST CALLVALUE PUSH2 0x4CC JUMPI PUSH1 0x0 CALLDATASIZE PUSH1 0x3 NOT ADD SLT PUSH2 0x4CC JUMPI PUSH1 0xFF PUSH1 0x0 DUP1 JUMPDEST DUP3 DUP3 AND PUSH1 0x32 DUP2 LT ISZERO PUSH2 0x2629 JUMPI PUSH1 0x0 MSTORE PUSH1 0x13 PUSH1 0x20 MSTORE DUP3 PUSH1 0x40 PUSH1 0x0 KECCAK256 SLOAD AND ISZERO PUSH2 0x2511 JUMPI PUSH1 0x1 PUSH2 0x2508 DUP5 SWAP3 PUSH2 0x3021 JUMP JUMPDEST SWAP3 ADD AND SWAP1 PUSH2 0x24DB JUMP JUMPDEST SWAP1 POP JUMPDEST AND PUSH2 0x251E DUP2 PUSH2 0x2EFD JUMP JUMPDEST SWAP1 PUSH2 0x252C PUSH1 0x40 MLOAD SWAP3 DUP4 PUSH2 0x2D2A JUMP JUMPDEST DUP1 DUP3 MSTORE PUSH1 0x1F NOT PUSH2 0x253B DUP3 PUSH2 0x2EFD JUMP JUMPDEST ADD PUSH1 0x0 JUMPDEST DUP2 DUP2 LT PUSH2 0x2604 JUMPI POP POP PUSH1 0x0 JUMPDEST PUSH1 0xFF DUP2 AND DUP3 DUP2 LT ISZERO PUSH2 0x25A2 JUMPI PUSH1 0xFF SWAP2 PUSH2 0x259A DUP3 PUSH1 0x1 SWAP4 PUSH1 0x0 MSTORE PUSH1 0x13 PUSH1 0x20 MSTORE PUSH1 0x40 PUSH1 0x0 KECCAK256 DUP5 PUSH1 0x40 MLOAD SWAP2 PUSH2 0x257C DUP4 PUSH2 0x2D0F JUMP JUMPDEST DUP8 DUP2 SLOAD AND DUP4 MSTORE ADD SLOAD PUSH1 0x20 DUP3 ADD MSTORE PUSH2 0x2593 DUP3 DUP10 PUSH2 0x2F6D JUMP JUMPDEST MSTORE DUP7 PUSH2 0x2F6D JUMP JUMPDEST POP ADD AND PUSH2 0x254B JUMP JUMPDEST DUP3 DUP5 PUSH1 0x40 MLOAD SWAP1 PUSH1 0x40 DUP3 ADD SWAP3 PUSH1 0x40 DUP4 MSTORE DUP2 MLOAD DUP1 SWAP5 MSTORE PUSH1 0x20 PUSH1 0x60 DUP5 ADD SWAP3 ADD PUSH1 0x0 SWAP5 JUMPDEST DUP1 DUP7 LT PUSH2 0x25D7 JUMPI POP POP DUP3 SWAP4 POP PUSH1 0x20 DUP4 ADD MSTORE SUB SWAP1 RETURN JUMPDEST SWAP1 SWAP3 PUSH1 0x20 PUSH1 0x40 DUP3 PUSH2 0x25F8 PUSH1 0x1 SWAP5 DUP9 MLOAD PUSH1 0x20 DUP1 SWAP2 PUSH1 0xFF DUP2 MLOAD AND DUP5 MSTORE ADD MLOAD SWAP2 ADD MSTORE JUMP JUMPDEST ADD SWAP5 ADD SWAP6 ADD SWAP5 SWAP1 PUSH2 0x25C2 JUMP JUMPDEST PUSH1 0x20 SWAP1 PUSH1 0x40 MLOAD PUSH2 0x2613 DUP2 PUSH2 0x2D0F JUMP JUMPDEST PUSH1 0x0 DUP2 MSTORE PUSH1 0x0 DUP4 DUP3 ADD MSTORE DUP3 DUP3 DUP8 ADD ADD MSTORE ADD PUSH2 0x253F JUMP JUMPDEST POP SWAP1 POP PUSH2 0x2514 JUMP JUMPDEST CALLVALUE PUSH2 0x4CC JUMPI PUSH1 0x0 CALLDATASIZE PUSH1 0x3 NOT ADD SLT PUSH2 0x4CC JUMPI PUSH32 0x0 PUSH1 0x1 PUSH1 0x1 PUSH1 0xA0 SHL SUB AND ADDRESS SUB PUSH2 0x268A JUMPI PUSH1 0x20 PUSH1 0x40 MLOAD PUSH1 0x0 DUP1 MLOAD PUSH1 0x20 PUSH2 0x34D7 DUP4 CODECOPY DUP2 MLOAD SWAP2 MSTORE DUP2 MSTORE RETURN JUMPDEST PUSH4 0x703E46DD PUSH1 0xE1 SHL PUSH1 0x0 MSTORE PUSH1 0x4 PUSH1 0x0 REVERT JUMPDEST PUSH1 0x40 CALLDATASIZE PUSH1 0x3 NOT ADD SLT PUSH2 0x4CC JUMPI PUSH2 0x26AF PUSH2 0x2CA0 JUMP JUMPDEST PUSH1 0x24 CALLDATALOAD SWAP1 PUSH1 0x1 PUSH1 0x1 PUSH1 0x40 SHL SUB DUP3 GT PUSH2 0x4CC JUMPI CALLDATASIZE PUSH1 0x23 DUP4 ADD SLT ISZERO PUSH2 0x4CC JUMPI DUP2 PUSH1 0x4 ADD CALLDATALOAD SWAP1 PUSH2 0x26DB DUP3 PUSH2 0x2D4D JUMP JUMPDEST SWAP2 PUSH2 0x26E9 PUSH1 0x40 MLOAD SWAP4 DUP5 PUSH2 0x2D2A JUMP JUMPDEST DUP1 DUP4 MSTORE PUSH1 0x20 DUP4 ADD SWAP4 CALLDATASIZE PUSH1 0x24 DUP4 DUP4 ADD ADD GT PUSH2 0x4CC JUMPI DUP2 PUSH1 0x0 SWAP3 PUSH1 0x24 PUSH1 0x20 SWAP4 ADD DUP8 CALLDATACOPY DUP5 ADD ADD MSTORE PUSH1 0x1 PUSH1 0x1 PUSH1 0xA0 SHL SUB PUSH32 0x0 AND ADDRESS DUP2 EQ SWAP1 DUP2 ISZERO PUSH2 0x28B8 JUMPI JUMPDEST POP PUSH2 0x268A JUMPI PUSH2 0x274F PUSH2 0x322E JUMP JUMPDEST PUSH1 0x40 MLOAD PUSH4 0x52D1902D PUSH1 0xE0 SHL DUP2 MSTORE PUSH1 0x1 PUSH1 0x1 PUSH1 0xA0 SHL SUB DUP3 AND SWAP4 SWAP1 PUSH1 0x20 DUP2 PUSH1 0x4 DUP2 DUP9 GAS STATICCALL PUSH1 0x0 SWAP2 DUP2 PUSH2 0x2884 JUMPI JUMPDEST POP PUSH2 0x2794 JUMPI DUP5 PUSH4 0x4C9C8CE3 PUSH1 0xE0 SHL PUSH1 0x0 MSTORE PUSH1 0x4 MSTORE PUSH1 0x24 PUSH1 0x0 REVERT JUMPDEST DUP1 PUSH1 0x0 DUP1 MLOAD PUSH1 0x20 PUSH2 0x34D7 DUP4 CODECOPY DUP2 MLOAD SWAP2 MSTORE DUP7 SWAP3 SUB PUSH2 0x2870 JUMPI POP DUP3 EXTCODESIZE ISZERO PUSH2 0x285C JUMPI PUSH1 0x0 DUP1 MLOAD PUSH1 0x20 PUSH2 0x34D7 DUP4 CODECOPY DUP2 MLOAD SWAP2 MSTORE DUP1 SLOAD PUSH1 0x1 PUSH1 0x1 PUSH1 0xA0 SHL SUB NOT AND DUP3 OR SWAP1 SSTORE PUSH32 0xBC7CD75A20EE27FD9ADEBAB32041F755214DBC6BFFA90CC0225B39DA2E5C2D3B PUSH1 0x0 DUP1 LOG2 DUP3 MLOAD ISZERO PUSH2 0x2841 JUMPI PUSH1 0x0 DUP1 SWAP2 PUSH2 0x1B SWAP5 MLOAD SWAP1 DUP5 GAS DELEGATECALL RETURNDATASIZE ISZERO PUSH2 0x2839 JUMPI RETURNDATASIZE SWAP2 PUSH2 0x281C DUP4 PUSH2 0x2D4D JUMP JUMPDEST SWAP3 PUSH2 0x282A PUSH1 0x40 MLOAD SWAP5 DUP6 PUSH2 0x2D2A JUMP JUMPDEST DUP4 MSTORE RETURNDATASIZE PUSH1 0x0 PUSH1 0x20 DUP6 ADD RETURNDATACOPY PUSH2 0x3455 JUMP JUMPDEST PUSH1 0x60 SWAP2 PUSH2 0x3455 JUMP JUMPDEST POP POP POP CALLVALUE PUSH2 0x284B JUMPI STOP JUMPDEST PUSH4 0xB398979F PUSH1 0xE0 SHL PUSH1 0x0 MSTORE PUSH1 0x4 PUSH1 0x0 REVERT JUMPDEST PUSH4 0x4C9C8CE3 PUSH1 0xE0 SHL PUSH1 0x0 MSTORE PUSH1 0x4 MSTORE PUSH1 0x24 PUSH1 0x0 REVERT JUMPDEST PUSH4 0x2A875269 PUSH1 0xE2 SHL PUSH1 0x0 MSTORE PUSH1 0x4 MSTORE PUSH1 0x24 PUSH1 0x0 REVERT JUMPDEST SWAP1 SWAP2 POP PUSH1 0x20 DUP2 RETURNDATASIZE PUSH1 0x20 GT PUSH2 0x28B0 JUMPI JUMPDEST DUP2 PUSH2 0x28A0 PUSH1 0x20 SWAP4 DUP4 PUSH2 0x2D2A JUMP JUMPDEST DUP2 ADD SUB SLT PUSH2 0x4CC JUMPI MLOAD SWAP1 DUP7 PUSH2 0x277A JUMP JUMPDEST RETURNDATASIZE SWAP2 POP PUSH2 0x2893 JUMP JUMPDEST PUSH1 0x0 DUP1 MLOAD PUSH1 0x20 PUSH2 0x34D7 DUP4 CODECOPY DUP2 MLOAD SWAP2 MSTORE SLOAD PUSH1 0x1 PUSH1 0x1 PUSH1 0xA0 SHL SUB AND EQ ISZERO SWAP1 POP DUP5 PUSH2 0x2742 JUMP JUMPDEST CALLVALUE PUSH2 0x4CC JUMPI PUSH1 0x0 CALLDATASIZE PUSH1 0x3 NOT ADD SLT PUSH2 0x4CC JUMPI PUSH1 0x6 SLOAD PUSH1 0x10 SLOAD PUSH1 0x8 SLOAD PUSH1 0xE SLOAD PUSH1 0xF SLOAD PUSH1 0x40 DUP1 MLOAD PUSH1 0x1 PUSH1 0x1 PUSH1 0xA0 SHL SUB DUP1 DUP9 AND DUP3 MSTORE PUSH1 0xA0 SWAP8 DUP9 SHR PUSH1 0xFF SWAP1 DUP2 AND PUSH1 0x20 DUP5 ADD MSTORE SWAP7 DUP2 AND SWAP3 DUP3 ADD SWAP3 SWAP1 SWAP3 MSTORE SWAP4 SWAP1 SWAP5 AND PUSH1 0x60 DUP5 ADD MSTORE SWAP3 AND PUSH1 0x80 DUP3 ADD MSTORE SWAP2 DUP3 ADD MSTORE PUSH1 0xC0 SWAP1 RETURN JUMPDEST CALLVALUE PUSH2 0x4CC JUMPI PUSH1 0x20 CALLDATASIZE PUSH1 0x3 NOT ADD SLT PUSH2 0x4CC JUMPI PUSH1 0x1 PUSH1 0x1 PUSH1 0xA0 SHL SUB PUSH2 0x295F PUSH2 0x2CA0 JUMP JUMPDEST AND PUSH1 0x0 MSTORE PUSH1 0x14 PUSH1 0x20 MSTORE PUSH1 0x20 PUSH1 0xFF PUSH1 0x40 PUSH1 0x0 KECCAK256 SLOAD AND PUSH1 0x40 MLOAD SWAP1 ISZERO ISZERO DUP2 MSTORE RETURN JUMPDEST CALLVALUE PUSH2 0x4CC JUMPI PUSH1 0x0 CALLDATASIZE PUSH1 0x3 NOT ADD SLT PUSH2 0x4CC JUMPI PUSH2 0xAB5 PUSH2 0xB6F PUSH2 0x2E00 JUMP JUMPDEST CALLVALUE PUSH2 0x4CC JUMPI PUSH1 0x20 CALLDATASIZE PUSH1 0x3 NOT ADD SLT PUSH2 0x4CC JUMPI PUSH2 0x29B2 PUSH2 0x2CA0 JUMP JUMPDEST PUSH1 0x1 DUP1 PUSH1 0xA0 SHL SUB DUP2 AND PUSH1 0x0 MSTORE PUSH1 0x14 PUSH1 0x20 MSTORE PUSH1 0x1 PUSH1 0xFF PUSH1 0x40 PUSH1 0x0 KECCAK256 SLOAD AND ISZERO ISZERO SUB PUSH2 0x2A0F JUMPI PUSH1 0xF SLOAD SWAP1 PUSH8 0xDE0B6B3A7640000 DUP3 MUL SWAP2 DUP1 DUP4 DIV PUSH8 0xDE0B6B3A7640000 EQ SWAP1 ISZERO OR ISZERO PUSH2 0xD5A JUMPI PUSH1 0x20 SWAP2 PUSH2 0x2A09 PUSH2 0x22A7 SWAP3 PUSH2 0x3127 JUMP JUMPDEST SWAP1 PUSH2 0x2F34 JUMP JUMPDEST PUSH1 0x40 MLOAD PUSH3 0x461BCD PUSH1 0xE5 SHL DUP2 MSTORE PUSH1 0x20 PUSH1 0x4 DUP3 ADD MSTORE PUSH1 0x38 PUSH1 0x24 DUP3 ADD MSTORE PUSH32 0x506C6561736520636865636B2074686520636861696E4C696E6B4F7261636C65 PUSH1 0x44 DUP3 ADD MSTORE PUSH24 0x1059191C995CDCC81BDC881B9BDD081CDD5C1C1BDC9D1959 PUSH1 0x42 SHL PUSH1 0x64 DUP3 ADD MSTORE PUSH1 0x84 SWAP1 REVERT JUMPDEST CALLVALUE PUSH2 0x4CC JUMPI PUSH1 0x20 CALLDATASIZE PUSH1 0x3 NOT ADD SLT PUSH2 0x4CC JUMPI PUSH1 0x1 PUSH1 0x1 PUSH1 0xA0 SHL SUB PUSH2 0x2A96 PUSH2 0x2CA0 JUMP JUMPDEST AND PUSH1 0x0 MSTORE PUSH1 0x12 PUSH1 0x20 MSTORE PUSH1 0x40 PUSH1 0x0 KECCAK256 PUSH1 0x40 MLOAD SWAP1 PUSH2 0x2AB1 DUP3 PUSH2 0x2CF3 JUMP JUMPDEST DUP1 SLOAD PUSH1 0x1 PUSH1 0x1 PUSH1 0xA0 SHL SUB SWAP1 DUP2 AND DUP4 MSTORE PUSH1 0x1 DUP3 ADD SLOAD DUP2 AND PUSH1 0x20 DUP5 ADD MSTORE PUSH1 0x2 DUP3 ADD SLOAD AND PUSH1 0x40 DUP4 ADD MSTORE PUSH2 0x2AE3 PUSH1 0x3 DUP3 ADD PUSH2 0x2EA9 JUMP JUMPDEST PUSH1 0x60 DUP4 ADD MSTORE PUSH1 0x4 DUP2 ADD DUP1 SLOAD PUSH2 0x2AF7 DUP2 PUSH2 0x2EFD JUMP JUMPDEST SWAP2 PUSH2 0x2B05 PUSH1 0x40 MLOAD SWAP4 DUP5 PUSH2 0x2D2A JUMP JUMPDEST DUP2 DUP4 MSTORE PUSH1 0x20 DUP4 ADD SWAP1 PUSH1 0x0 MSTORE PUSH1 0x20 PUSH1 0x0 KECCAK256 PUSH1 0x0 SWAP2 JUMPDEST DUP4 DUP4 LT PUSH2 0x2C2A JUMPI POP POP POP POP PUSH1 0x80 DUP4 ADD MSTORE PUSH1 0x5 DUP2 ADD DUP1 SLOAD PUSH2 0x2B38 DUP2 PUSH2 0x2EFD JUMP JUMPDEST SWAP2 PUSH2 0x2B46 PUSH1 0x40 MLOAD SWAP4 DUP5 PUSH2 0x2D2A JUMP JUMPDEST DUP2 DUP4 MSTORE PUSH1 0x20 DUP4 ADD SWAP1 PUSH1 0x0 MSTORE PUSH1 0x20 PUSH1 0x0 KECCAK256 PUSH1 0x0 SWAP2 JUMPDEST DUP4 DUP4 LT PUSH2 0x2BF4 JUMPI POP POP POP POP PUSH1 0xA0 DUP4 ADD MSTORE PUSH1 0x6 DUP2 ADD SLOAD PUSH1 0xC0 DUP4 ADD MSTORE PUSH1 0x7 DUP2 ADD SLOAD PUSH1 0xE0 DUP4 ADD MSTORE PUSH1 0xFF PUSH1 0x8 DUP3 ADD SLOAD AND PUSH2 0x100 DUP4 ADD MSTORE PUSH1 0x9 DUP2 ADD SLOAD PUSH2 0x120 DUP4 ADD MSTORE PUSH1 0xA DUP2 ADD SLOAD PUSH2 0x140 DUP4 ADD MSTORE PUSH2 0xAB5 PUSH1 0xB DUP3 ADD SLOAD SWAP2 DUP3 PUSH2 0x160 DUP6 ADD MSTORE PUSH1 0xC DUP2 ADD SLOAD SWAP4 DUP5 PUSH2 0x180 DUP3 ADD MSTORE PUSH2 0x1E0 PUSH1 0xF PUSH1 0xD DUP5 ADD SLOAD SWAP4 DUP5 PUSH2 0x1A0 DUP6 ADD MSTORE PUSH1 0xE DUP2 ADD SLOAD PUSH2 0x1C0 DUP6 ADD MSTORE ADD SLOAD SWAP2 ADD MSTORE PUSH2 0xA91 DUP2 PUSH2 0x2BEF DUP7 DUP7 PUSH2 0x2F14 JUMP JUMPDEST PUSH2 0x2F14 JUMP JUMPDEST PUSH1 0x1 PUSH1 0x20 DUP2 SWAP3 PUSH1 0x40 MLOAD PUSH2 0x2C06 DUP2 PUSH2 0x2D0F JUMP JUMPDEST PUSH1 0xFF DUP7 SLOAD DUP6 DUP1 PUSH1 0xA0 SHL SUB DUP2 AND DUP4 MSTORE PUSH1 0xA0 SHR AND DUP4 DUP3 ADD MSTORE DUP2 MSTORE ADD SWAP3 ADD SWAP3 ADD SWAP2 SWAP1 PUSH2 0x2B5A JUMP JUMPDEST PUSH1 0x2 PUSH1 0x20 PUSH1 0x1 SWAP3 PUSH1 0x40 MLOAD PUSH2 0x2C3D DUP2 PUSH2 0x2D0F JUMP JUMPDEST DUP5 DUP1 PUSH1 0xA0 SHL SUB DUP7 SLOAD AND DUP2 MSTORE DUP5 DUP1 PUSH1 0xA0 SHL SUB DUP6 DUP8 ADD SLOAD AND DUP4 DUP3 ADD MSTORE DUP2 MSTORE ADD SWAP3 ADD SWAP3 ADD SWAP2 SWAP1 PUSH2 0x2B19 JUMP JUMPDEST CALLVALUE PUSH2 0x4CC JUMPI PUSH1 0x0 CALLDATASIZE PUSH1 0x3 NOT ADD SLT PUSH2 0x4CC JUMPI PUSH1 0x80 SWAP1 PUSH4 0xFFFFFFFF PUSH1 0x0 SLOAD AND PUSH1 0x2 SLOAD PUSH1 0x3 SLOAD SWAP1 PUSH1 0x5 SLOAD SWAP3 DUP5 MSTORE PUSH1 0x20 DUP5 ADD MSTORE PUSH1 0x40 DUP4 ADD MSTORE PUSH1 0x60 DUP3 ADD MSTORE RETURN JUMPDEST PUSH1 0x4 CALLDATALOAD SWAP1 PUSH1 0x1 PUSH1 0x1 PUSH1 0xA0 SHL SUB DUP3 AND DUP3 SUB PUSH2 0x4CC JUMPI JUMP JUMPDEST SWAP1 PUSH1 0x20 DUP1 DUP4 MLOAD SWAP3 DUP4 DUP2 MSTORE ADD SWAP3 ADD SWAP1 PUSH1 0x0 JUMPDEST DUP2 DUP2 LT PUSH2 0x2CD4 JUMPI POP POP POP SWAP1 JUMP JUMPDEST DUP3 MLOAD PUSH1 0x1 PUSH1 0x1 PUSH1 0xA0 SHL SUB AND DUP5 MSTORE PUSH1 0x20 SWAP4 DUP5 ADD SWAP4 SWAP1 SWAP3 ADD SWAP2 PUSH1 0x1 ADD PUSH2 0x2CC7 JUMP JUMPDEST PUSH2 0x200 DUP2 ADD SWAP1 DUP2 LT PUSH1 0x1 PUSH1 0x1 PUSH1 0x40 SHL SUB DUP3 GT OR PUSH2 0x149E JUMPI PUSH1 0x40 MSTORE JUMP JUMPDEST PUSH1 0x40 DUP2 ADD SWAP1 DUP2 LT PUSH1 0x1 PUSH1 0x1 PUSH1 0x40 SHL SUB DUP3 GT OR PUSH2 0x149E JUMPI PUSH1 0x40 MSTORE JUMP JUMPDEST PUSH1 0x1F SWAP1 SWAP2 ADD PUSH1 0x1F NOT AND DUP2 ADD SWAP1 PUSH1 0x1 PUSH1 0x1 PUSH1 0x40 SHL SUB DUP3 GT SWAP1 DUP3 LT OR PUSH2 0x149E JUMPI PUSH1 0x40 MSTORE JUMP JUMPDEST PUSH1 0x1 PUSH1 0x1 PUSH1 0x40 SHL SUB DUP2 GT PUSH2 0x149E JUMPI PUSH1 0x1F ADD PUSH1 0x1F NOT AND PUSH1 0x20 ADD SWAP1 JUMP JUMPDEST SWAP1 PUSH1 0x20 DUP1 DUP4 MLOAD SWAP3 DUP4 DUP2 MSTORE ADD SWAP3 ADD SWAP1 PUSH1 0x0 JUMPDEST DUP2 DUP2 LT PUSH2 0x2D86 JUMPI POP POP POP SWAP1 JUMP JUMPDEST DUP3 MLOAD DUP1 MLOAD PUSH1 0x1 PUSH1 0x1 PUSH1 0xA0 SHL SUB SWAP1 DUP2 AND DUP7 MSTORE PUSH1 0x20 SWAP2 DUP3 ADD MLOAD AND DUP2 DUP7 ADD MSTORE PUSH1 0x40 SWAP1 SWAP5 ADD SWAP4 SWAP1 SWAP3 ADD SWAP2 PUSH1 0x1 ADD PUSH2 0x2D79 JUMP JUMPDEST SWAP1 PUSH1 0x20 DUP1 DUP4 MLOAD SWAP3 DUP4 DUP2 MSTORE ADD SWAP3 ADD SWAP1 PUSH1 0x0 JUMPDEST DUP2 DUP2 LT PUSH2 0x2DD2 JUMPI POP POP POP SWAP1 JUMP JUMPDEST DUP3 MLOAD DUP1 MLOAD PUSH1 0x1 PUSH1 0x1 PUSH1 0xA0 SHL SUB AND DUP6 MSTORE PUSH1 0x20 SWAP1 DUP2 ADD MLOAD PUSH1 0xFF AND DUP2 DUP7 ADD MSTORE PUSH1 0x40 SWAP1 SWAP5 ADD SWAP4 SWAP1 SWAP3 ADD SWAP2 PUSH1 0x1 ADD PUSH2 0x2DC5 JUMP JUMPDEST PUSH1 0x40 MLOAD SWAP1 PUSH1 0x11 SLOAD DUP1 DUP4 MSTORE DUP3 PUSH1 0x20 DUP2 ADD PUSH1 0x11 PUSH1 0x0 MSTORE PUSH1 0x20 PUSH1 0x0 KECCAK256 SWAP3 PUSH1 0x0 JUMPDEST DUP2 DUP2 LT PUSH2 0x2E34 JUMPI POP POP PUSH2 0x2E32 SWAP3 POP SUB DUP4 PUSH2 0x2D2A JUMP JUMPDEST JUMP JUMPDEST DUP5 SLOAD PUSH1 0x1 PUSH1 0x1 PUSH1 0xA0 SHL SUB AND DUP4 MSTORE PUSH1 0x1 SWAP5 DUP6 ADD SWAP5 DUP8 SWAP5 POP PUSH1 0x20 SWAP1 SWAP4 ADD SWAP3 ADD PUSH2 0x2E1D JUMP JUMPDEST PUSH1 0x40 MLOAD SWAP1 PUSH1 0x0 SLOAD DUP1 DUP4 MSTORE DUP3 PUSH1 0x20 DUP2 ADD PUSH1 0x0 DUP1 MSTORE PUSH1 0x20 PUSH1 0x0 KECCAK256 SWAP3 PUSH1 0x0 JUMPDEST DUP2 DUP2 LT PUSH2 0x2E87 JUMPI POP POP PUSH2 0x2E32 SWAP3 POP SUB DUP4 PUSH2 0x2D2A JUMP JUMPDEST DUP5 SLOAD PUSH1 0x1 PUSH1 0x1 PUSH1 0xA0 SHL SUB AND DUP4 MSTORE PUSH1 0x1 SWAP5 DUP6 ADD SWAP5 DUP8 SWAP5 POP PUSH1 0x20 SWAP1 SWAP4 ADD SWAP3 ADD PUSH2 0x2E72 JUMP JUMPDEST SWAP1 PUSH1 0x40 MLOAD SWAP2 DUP3 DUP2 SLOAD SWAP2 DUP3 DUP3 MSTORE PUSH1 0x20 DUP3 ADD SWAP1 PUSH1 0x0 MSTORE PUSH1 0x20 PUSH1 0x0 KECCAK256 SWAP3 PUSH1 0x0 JUMPDEST DUP2 DUP2 LT PUSH2 0x2EDB JUMPI POP POP PUSH2 0x2E32 SWAP3 POP SUB DUP4 PUSH2 0x2D2A JUMP JUMPDEST DUP5 SLOAD PUSH1 0x1 PUSH1 0x1 PUSH1 0xA0 SHL SUB AND DUP4 MSTORE PUSH1 0x1 SWAP5 DUP6 ADD SWAP5 DUP8 SWAP5 POP PUSH1 0x20 SWAP1 SWAP4 ADD SWAP3 ADD PUSH2 0x2EC6 JUMP JUMPDEST PUSH1 0x1 PUSH1 0x1 PUSH1 0x40 SHL SUB DUP2 GT PUSH2 0x149E JUMPI PUSH1 0x5 SHL PUSH1 0x20 ADD SWAP1 JUMP JUMPDEST SWAP2 SWAP1 DUP3 ADD DUP1 SWAP3 GT PUSH2 0xD5A JUMPI JUMP JUMPDEST DUP2 DUP2 MUL SWAP3 SWAP2 DUP2 ISZERO SWAP2 DUP5 DIV EQ OR ISZERO PUSH2 0xD5A JUMPI JUMP JUMPDEST DUP2 ISZERO PUSH2 0x2F3E JUMPI DIV SWAP1 JUMP JUMPDEST PUSH4 0x4E487B71 PUSH1 0xE0 SHL PUSH1 0x0 MSTORE PUSH1 0x12 PUSH1 0x4 MSTORE PUSH1 0x24 PUSH1 0x0 REVERT JUMPDEST PUSH1 0x40 MLOAD SWAP1 PUSH2 0x2F61 DUP3 PUSH2 0x2D0F JUMP JUMPDEST PUSH1 0x0 PUSH1 0x20 DUP4 DUP3 DUP2 MSTORE ADD MSTORE JUMP JUMPDEST DUP1 MLOAD DUP3 LT ISZERO PUSH2 0x1536 JUMPI PUSH1 0x20 SWAP2 PUSH1 0x5 SHL ADD ADD SWAP1 JUMP JUMPDEST PUSH1 0x1 SLOAD DUP2 LT ISZERO PUSH2 0x1536 JUMPI PUSH1 0x1 PUSH1 0x0 MSTORE PUSH1 0x20 PUSH1 0x0 KECCAK256 ADD SWAP1 PUSH1 0x0 SWAP1 JUMP JUMPDEST DUP1 SLOAD DUP3 LT ISZERO PUSH2 0x1536 JUMPI PUSH1 0x0 MSTORE PUSH1 0x20 PUSH1 0x0 KECCAK256 ADD SWAP1 PUSH1 0x0 SWAP1 JUMP JUMPDEST PUSH1 0x1 SLOAD SWAP1 PUSH1 0x1 PUSH1 0x40 SHL DUP3 LT ISZERO PUSH2 0x149E JUMPI PUSH2 0x2350 DUP3 PUSH1 0x1 PUSH2 0x2E32 SWAP5 ADD PUSH1 0x1 SSTORE PUSH1 0x1 PUSH2 0x2F9C JUMP JUMPDEST PUSH1 0x0 SLOAD SWAP1 PUSH1 0x1 PUSH1 0x40 SHL DUP3 LT ISZERO PUSH2 0x149E JUMPI PUSH2 0x2350 DUP3 PUSH1 0x1 PUSH2 0x2E32 SWAP5 ADD PUSH1 0x0 SSTORE PUSH1 0x0 PUSH2 0x2F9C JUMP JUMPDEST DUP1 SLOAD SWAP2 SWAP1 PUSH1 0x1 PUSH1 0x40 SHL DUP4 LT ISZERO PUSH2 0x149E JUMPI DUP3 PUSH2 0x2350 SWAP2 PUSH1 0x1 PUSH2 0x2E32 SWAP6 ADD DUP2 SSTORE PUSH2 0x2F9C JUMP JUMPDEST PUSH1 0xFF AND PUSH1 0xFF DUP2 EQ PUSH2 0xD5A JUMPI PUSH1 0x1 ADD SWAP1 JUMP JUMPDEST PUSH1 0xFF PUSH1 0x1 SWAP2 AND ADD SWAP1 PUSH1 0xFF DUP3 GT PUSH2 0xD5A JUMPI JUMP JUMPDEST ISZERO PUSH2 0x304B JUMPI JUMP JUMPDEST PUSH1 0x40 MLOAD PUSH3 0x461BCD PUSH1 0xE5 SHL DUP2 MSTORE PUSH1 0x20 PUSH1 0x4 DUP3 ADD MSTORE PUSH1 0x16 PUSH1 0x24 DUP3 ADD MSTORE PUSH22 0x10DD5C9C995B98DE481B9BDD081CDD5C1C1BDC9D1959 PUSH1 0x52 SHL PUSH1 0x44 DUP3 ADD MSTORE PUSH1 0x64 SWAP1 REVERT JUMPDEST SWAP2 PUSH1 0x60 SWAP4 SWAP2 DUP4 MSTORE PUSH1 0x20 DUP4 ADD MSTORE PUSH1 0x40 DUP3 ADD MSTORE ADD SWAP1 JUMP JUMPDEST DUP2 ISZERO PUSH2 0x2F3E JUMPI MOD SWAP1 JUMP JUMPDEST PUSH1 0x1 PUSH1 0x1 PUSH1 0xA0 SHL SUB SWAP1 SWAP2 AND DUP2 MSTORE PUSH1 0x20 DUP2 ADD SWAP2 SWAP1 SWAP2 MSTORE PUSH1 0x40 ADD SWAP1 JUMP JUMPDEST PUSH1 0x1 PUSH1 0x1 PUSH1 0xA0 SHL SUB AND DUP1 ISZERO PUSH2 0x3111 JUMPI PUSH1 0x0 DUP1 MLOAD PUSH1 0x20 PUSH2 0x34B7 DUP4 CODECOPY DUP2 MLOAD SWAP2 MSTORE DUP1 SLOAD PUSH1 0x1 PUSH1 0x1 PUSH1 0xA0 SHL SUB NOT DUP2 AND DUP4 OR SWAP1 SWAP2 SSTORE PUSH1 0x1 PUSH1 0x1 PUSH1 0xA0 SHL SUB AND PUSH1 0x0 DUP1 MLOAD PUSH1 0x20 PUSH2 0x34F7 DUP4 CODECOPY DUP2 MLOAD SWAP2 MSTORE PUSH1 0x0 DUP1 LOG3 JUMP JUMPDEST PUSH4 0x1E4FBDF7 PUSH1 0xE0 SHL PUSH1 0x0 MSTORE PUSH1 0x0 PUSH1 0x4 MSTORE PUSH1 0x24 PUSH1 0x0 REVERT JUMPDEST PUSH1 0x40 MLOAD PUSH4 0x50D25BCD PUSH1 0xE0 SHL DUP2 MSTORE SWAP1 PUSH1 0x1 PUSH1 0x1 PUSH1 0xA0 SHL SUB AND PUSH1 0x20 DUP3 PUSH1 0x4 DUP2 DUP5 GAS STATICCALL SWAP2 DUP3 ISZERO PUSH2 0xCD7 JUMPI PUSH1 0x0 SWAP3 PUSH2 0x31F9 JUMPI JUMPDEST POP PUSH1 0x20 PUSH1 0x4 SWAP2 PUSH1 0x40 MLOAD SWAP3 DUP4 DUP1 SWAP3 PUSH4 0x313CE567 PUSH1 0xE0 SHL DUP3 MSTORE GAS STATICCALL SWAP1 DUP2 ISZERO PUSH2 0xCD7 JUMPI PUSH1 0x0 SWAP2 PUSH2 0x31B5 JUMPI JUMPDEST POP PUSH1 0xFF AND SWAP1 PUSH8 0xDE0B6B3A7640000 SWAP1 DUP2 DUP2 MUL SWAP2 DUP2 DUP4 DIV EQ SWAP1 ISZERO OR ISZERO PUSH2 0xD5A JUMPI PUSH1 0x4D DUP3 GT PUSH2 0xD5A JUMPI PUSH2 0x31B2 SWAP2 PUSH1 0xA EXP SWAP1 PUSH2 0x2F34 JUMP JUMPDEST SWAP1 JUMP JUMPDEST PUSH1 0x20 DUP2 RETURNDATASIZE PUSH1 0x20 GT PUSH2 0x31F1 JUMPI JUMPDEST DUP2 PUSH2 0x31CE PUSH1 0x20 SWAP4 DUP4 PUSH2 0x2D2A JUMP JUMPDEST DUP2 ADD SUB SLT PUSH2 0x31ED JUMPI MLOAD SWAP1 PUSH1 0xFF DUP3 AND DUP3 SUB PUSH2 0x31EA JUMPI POP PUSH1 0xFF PUSH2 0x317E JUMP JUMPDEST DUP1 REVERT JUMPDEST POP DUP1 REVERT JUMPDEST RETURNDATASIZE SWAP2 POP PUSH2 0x31C1 JUMP JUMPDEST SWAP1 SWAP2 PUSH1 0x20 DUP3 RETURNDATASIZE PUSH1 0x20 GT PUSH2 0x3226 JUMPI JUMPDEST DUP2 PUSH2 0x3214 PUSH1 0x20 SWAP4 DUP4 PUSH2 0x2D2A JUMP JUMPDEST DUP2 ADD SUB SLT PUSH2 0x31EA JUMPI POP MLOAD SWAP1 PUSH1 0x20 PUSH2 0x3156 JUMP JUMPDEST RETURNDATASIZE SWAP2 POP PUSH2 0x3207 JUMP JUMPDEST PUSH1 0x0 DUP1 MLOAD PUSH1 0x20 PUSH2 0x34B7 DUP4 CODECOPY DUP2 MLOAD SWAP2 MSTORE SLOAD PUSH1 0x1 PUSH1 0x1 PUSH1 0xA0 SHL SUB AND CALLER SUB PUSH2 0x324F JUMPI JUMP JUMPDEST PUSH4 0x118CDAA7 PUSH1 0xE0 SHL PUSH1 0x0 MSTORE CALLER PUSH1 0x4 MSTORE PUSH1 0x24 PUSH1 0x0 REVERT JUMPDEST PUSH1 0x1 PUSH1 0x1 PUSH1 0xA0 SHL SUB SWAP2 DUP3 AND DUP2 MSTORE SWAP2 AND PUSH1 0x20 DUP3 ADD MSTORE PUSH1 0x40 DUP2 ADD SWAP2 SWAP1 SWAP2 MSTORE PUSH1 0x60 ADD SWAP1 JUMP JUMPDEST PUSH1 0xFF PUSH1 0x0 DUP1 MLOAD PUSH1 0x20 PUSH2 0x3537 DUP4 CODECOPY DUP2 MLOAD SWAP2 MSTORE SLOAD PUSH1 0x40 SHR AND ISZERO PUSH2 0x32A3 JUMPI JUMP JUMPDEST PUSH4 0x1AFCD79F PUSH1 0xE3 SHL PUSH1 0x0 MSTORE PUSH1 0x4 PUSH1 0x0 REVERT JUMPDEST PUSH1 0x1 PUSH1 0x1 PUSH1 0xA0 SHL SUB SWAP2 DUP3 AND DUP2 MSTORE SWAP2 DUP2 AND PUSH1 0x20 DUP4 ADD MSTORE SWAP1 SWAP2 AND PUSH1 0x40 DUP3 ADD MSTORE PUSH1 0x60 ADD SWAP1 JUMP JUMPDEST PUSH1 0x0 SWAP3 SWAP2 DUP1 DUP3 EQ SWAP2 DUP3 ISZERO PUSH2 0x32F4 JUMPI JUMPDEST POP POP PUSH2 0x32EE JUMPI JUMP JUMPDEST PUSH1 0x1 SWAP2 POP JUMP JUMPDEST GT SWAP1 POP CODESIZE DUP1 PUSH2 0x32E6 JUMP JUMPDEST PUSH1 0x2 DUP3 ADD DUP1 SLOAD PUSH1 0x1 PUSH1 0x1 PUSH1 0xA0 SHL SUB NOT AND PUSH1 0x1 PUSH1 0x1 PUSH1 0xA0 SHL SUB SWAP3 DUP4 AND SWAP1 DUP2 OR SWAP1 SWAP2 SSTORE SWAP2 SLOAD PUSH1 0x40 DUP1 MLOAD SWAP4 DUP5 MSTORE SWAP2 AND PUSH1 0x20 DUP4 ADD MSTORE PUSH32 0xEC49A3C8C4AE06C18160FE86119C381C9D213AC3E052FF35B594DA8687B193C7 SWAP2 LOG1 JUMP JUMPDEST PUSH1 0xE DUP2 ADD DUP1 SLOAD DUP1 ISZERO PUSH2 0x3413 JUMPI PUSH1 0x1 SLOAD PUSH1 0x0 NOT DUP2 ADD SWAP1 DUP2 GT PUSH2 0xD5A JUMPI PUSH2 0x3378 SWAP1 PUSH2 0x2F81 JUMP JUMPDEST SWAP1 SLOAD PUSH1 0x0 NOT DUP4 ADD SWAP3 PUSH1 0x3 SWAP3 SWAP1 SWAP3 SHL SHR PUSH1 0x1 PUSH1 0x1 PUSH1 0xA0 SHL SUB AND SWAP1 DUP3 GT PUSH2 0xD5A JUMPI PUSH2 0x2350 PUSH2 0x33A3 SWAP3 PUSH2 0x2F81 JUMP JUMPDEST PUSH1 0x1 SLOAD SWAP2 DUP3 ISZERO PUSH2 0x33FD JUMPI PUSH1 0x0 PUSH1 0x20 SWAP3 PUSH32 0x644B85583BA83E73113FFC0C122B165819CA11DB493CD4CC38F5BA29138FFA1B SWAP5 DUP3 NOT ADD PUSH2 0x33E5 PUSH2 0x2443 DUP3 PUSH1 0x1 PUSH2 0x2F9C JUMP JUMPDEST PUSH1 0x1 SSTORE SSTORE SLOAD PUSH1 0x40 MLOAD PUSH1 0x1 PUSH1 0x1 PUSH1 0xA0 SHL SUB SWAP1 SWAP2 AND DUP2 MSTORE LOG1 JUMP JUMPDEST PUSH4 0x4E487B71 PUSH1 0xE0 SHL PUSH1 0x0 MSTORE PUSH1 0x31 PUSH1 0x4 MSTORE PUSH1 0x24 PUSH1 0x0 REVERT JUMPDEST PUSH1 0x40 MLOAD PUSH3 0x461BCD PUSH1 0xE5 SHL DUP2 MSTORE PUSH1 0x20 PUSH1 0x4 DUP3 ADD MSTORE PUSH1 0x1A PUSH1 0x24 DUP3 ADD MSTORE PUSH26 0x155CD95C881A5CC81B9BDD081A5B881C985B991BDB481B1A5CDD PUSH1 0x32 SHL PUSH1 0x44 DUP3 ADD MSTORE PUSH1 0x64 SWAP1 REVERT JUMPDEST SWAP1 PUSH2 0x347B JUMPI POP DUP1 MLOAD ISZERO PUSH2 0x346A JUMPI DUP1 MLOAD SWAP1 PUSH1 0x20 ADD REVERT JUMPDEST PUSH4 0xD6BDA275 PUSH1 0xE0 SHL PUSH1 0x0 MSTORE PUSH1 0x4 PUSH1 0x0 REVERT JUMPDEST DUP2 MLOAD ISZERO DUP1 PUSH2 0x34AD JUMPI JUMPDEST PUSH2 0x348C JUMPI POP SWAP1 JUMP JUMPDEST PUSH4 0x9996B315 PUSH1 0xE0 SHL PUSH1 0x0 SWAP1 DUP2 MSTORE PUSH1 0x1 PUSH1 0x1 PUSH1 0xA0 SHL SUB SWAP2 SWAP1 SWAP2 AND PUSH1 0x4 MSTORE PUSH1 0x24 SWAP1 REVERT JUMPDEST POP DUP1 EXTCODESIZE ISZERO PUSH2 0x3484 JUMP INVALID SWAP1 AND 0xD0 SWAP14 PUSH19 0xD40FDAE2FD8CEAC6B6234C7706214FD39C1CD1 0xE6 MULMOD LOG0 MSTORE DUP13 NOT SWAP4 STOP CALLDATASIZE ADDMOD SWAP5 LOG1 EXTCODESIZE LOG1 LOG3 0x21 MOD PUSH8 0xC828492DB98DCA3E KECCAK256 PUSH23 0xCC3735A920A3CA505D382BBC8BE0079C531659141344CD 0x1F 0xD0 LOG4 CALLCODE DUP5 NOT BLOBHASH PUSH32 0x9722A3DAAFE3B4186F6B6457E0B37800F632235E56E1626C9E9DF3DE1E167E92 SWAP9 CREATE 0xD2 PUSH0 MSIZE REVERT PUSH21 0xEC65E3111652F0C57E16840DF040F15088DC2F81FE CODECOPY SHR CODECOPY 0x23 0xBE 0xC7 RETURNDATACOPY 0x23 0xA9 PUSH7 0x2EFC9C229C6A00 LOG1 PUSH5 0x736F6C6343 STOP ADDMOD BYTE STOP EXP "},"methodIdentifiers":{"UPGRADE_INTERFACE_VERSION()":"ad3cb1cc","checkIfChainLinkOracleAddressSupporeted(address)":"11f4d576","distributeWeeklyReward(address)":"d277b8a9","getAllUsers()":"e2842d79","getContractDefaults()":"1a746344","getNativePriceInUSD(address)":"6a746311","getRandomUserList()":"7ec37e03","getRegistrationsStats()":"0690c6a8","getSupportedChainLinkOracleAddress()":"08e922ba","getUpgradePlans()":"59a04544","getUpgradePlansById(uint8)":"a9df9fae","getUserAccount(address)":"fb47e016","getUserBusiness(address)":"f87127b4","getUserCurrentUpgradeLevel(address)":"f9250171","getUserRewards(address)":"078b0fb7","getUserTeam(address)":"faeda7e5","getWeeklyRewardToBeDistributed()":"846688f7","initialize()":"8129fc1c","needNativeToRegister(address)":"07c560d1","owner()":"8da5cb5b","proxiableUUID()":"52d1902d","registrationNative(address,address)":"c53b219e","renounceOwnership()":"715018a6","setChainLinkOracleAddress(address,bool)":"5eda81ce","transferOwnership(address)":"f2fde38b","upgradeAccountNative(address)":"a0db38e5","upgradeToAndCall(address,bytes)":"4f1ef286"}},"storageLayout":{"storage":[{"astId":1599,"contract":"contracts/RegistrationUpgradeable.sol:RegistrationUpgradeable","label":"_users","offset":0,"slot":"0","type":"t_array(t_address)dyn_storage"},{"astId":1602,"contract":"contracts/RegistrationUpgradeable.sol:RegistrationUpgradeable","label":"_randomUserList","offset":0,"slot":"1","type":"t_array(t_address)dyn_storage"},{"astId":1604,"contract":"contracts/RegistrationUpgradeable.sol:RegistrationUpgradeable","label":"_totalRegistrationValueInUSD","offset":0,"slot":"2","type":"t_uint256"},{"astId":1606,"contract":"contracts/RegistrationUpgradeable.sol:RegistrationUpgradeable","label":"_referralPaidInUSD","offset":0,"slot":"3","type":"t_uint256"},{"astId":1608,"contract":"contracts/RegistrationUpgradeable.sol:RegistrationUpgradeable","label":"_randomRewardsPaidInUSD","offset":0,"slot":"4","type":"t_uint256"},{"astId":1610,"contract":"contracts/RegistrationUpgradeable.sol:RegistrationUpgradeable","label":"_weeklyRewardsPaidInUSD","offset":0,"slot":"5","type":"t_uint256"},{"astId":1612,"contract":"contracts/RegistrationUpgradeable.sol:RegistrationUpgradeable","label":"_teamWallet","offset":0,"slot":"6","type":"t_address"},{"astId":1614,"contract":"contracts/RegistrationUpgradeable.sol:RegistrationUpgradeable","label":"_teamWalletRate","offset":20,"slot":"6","type":"t_uint8"},{"astId":1616,"contract":"contracts/RegistrationUpgradeable.sol:RegistrationUpgradeable","label":"_valueToCreateLiquidityInWei","offset":0,"slot":"7","type":"t_uint256"},{"astId":1618,"contract":"contracts/RegistrationUpgradeable.sol:RegistrationUpgradeable","label":"_liquidityCreateRate","offset":0,"slot":"8","type":"t_uint8"},{"astId":1620,"contract":"contracts/RegistrationUpgradeable.sol:RegistrationUpgradeable","label":"_weeklyRewardValueInWei","offset":0,"slot":"9","type":"t_uint256"},{"astId":1622,"contract":"contracts/RegistrationUpgradeable.sol:RegistrationUpgradeable","label":"_weeklyRewardRate","offset":0,"slot":"10","type":"t_uint8"},{"astId":1624,"contract":"contracts/RegistrationUpgradeable.sol:RegistrationUpgradeable","label":"_weeklyRewardTimestamp","offset":0,"slot":"11","type":"t_uint256"},{"astId":1626,"contract":"contracts/RegistrationUpgradeable.sol:RegistrationUpgradeable","label":"_levelRatesFixed","offset":0,"slot":"12","type":"t_uint8"},{"astId":1628,"contract":"contracts/RegistrationUpgradeable.sol:RegistrationUpgradeable","label":"_levelsToCount","offset":1,"slot":"12","type":"t_uint8"},{"astId":1630,"contract":"contracts/RegistrationUpgradeable.sol:RegistrationUpgradeable","label":"_refereeLimit","offset":0,"slot":"13","type":"t_uint256"},{"astId":1632,"contract":"contracts/RegistrationUpgradeable.sol:RegistrationUpgradeable","label":"_defaultReferrer","offset":0,"slot":"14","type":"t_address"},{"astId":1634,"contract":"contracts/RegistrationUpgradeable.sol:RegistrationUpgradeable","label":"_registrationValueInUSD","offset":0,"slot":"15","type":"t_uint256"},{"astId":1636,"contract":"contracts/RegistrationUpgradeable.sol:RegistrationUpgradeable","label":"_liquidityWallet","offset":0,"slot":"16","type":"t_address"},{"astId":1639,"contract":"contracts/RegistrationUpgradeable.sol:RegistrationUpgradeable","label":"_supportedChainLinkOracleAddress","offset":0,"slot":"17","type":"t_array(t_address)dyn_storage"},{"astId":1644,"contract":"contracts/RegistrationUpgradeable.sol:RegistrationUpgradeable","label":"_mappingAccounts","offset":0,"slot":"18","type":"t_mapping(t_address,t_struct(AccountStruct)1590_storage)"},{"astId":1649,"contract":"contracts/RegistrationUpgradeable.sol:RegistrationUpgradeable","label":"_mappingUpgrade","offset":0,"slot":"19","type":"t_mapping(t_uint8,t_struct(UpgradeStruct)1542_storage)"},{"astId":1653,"contract":"contracts/RegistrationUpgradeable.sol:RegistrationUpgradeable","label":"_mappingOracle","offset":0,"slot":"20","type":"t_mapping(t_address,t_bool)"}],"types":{"t_address":{"encoding":"inplace","label":"address","numberOfBytes":"20"},"t_array(t_address)dyn_storage":{"base":"t_address","encoding":"dynamic_array","label":"address[]","numberOfBytes":"32"},"t_array(t_struct(RefereeStruct)1547_storage)dyn_storage":{"base":"t_struct(RefereeStruct)1547_storage","encoding":"dynamic_array","label":"struct RefereeStruct[]","numberOfBytes":"32"},"t_array(t_struct(TeamStruct)1552_storage)dyn_storage":{"base":"t_struct(TeamStruct)1552_storage","encoding":"dynamic_array","label":"struct TeamStruct[]","numberOfBytes":"32"},"t_bool":{"encoding":"inplace","label":"bool","numberOfBytes":"1"},"t_mapping(t_address,t_bool)":{"encoding":"mapping","key":"t_address","label":"mapping(address => bool)","numberOfBytes":"32","value":"t_bool"},"t_mapping(t_address,t_struct(AccountStruct)1590_storage)":{"encoding":"mapping","key":"t_address","label":"mapping(address => struct AccountStruct)","numberOfBytes":"32","value":"t_struct(AccountStruct)1590_storage"},"t_mapping(t_uint8,t_struct(UpgradeStruct)1542_storage)":{"encoding":"mapping","key":"t_uint8","label":"mapping(uint8 => struct UpgradeStruct)","numberOfBytes":"32","value":"t_struct(UpgradeStruct)1542_storage"},"t_struct(AccountStruct)1590_storage":{"encoding":"inplace","label":"struct AccountStruct","members":[{"astId":1554,"contract":"contracts/RegistrationUpgradeable.sol:RegistrationUpgradeable","label":"self","offset":0,"slot":"0","type":"t_address"},{"astId":1556,"contract":"contracts/RegistrationUpgradeable.sol:RegistrationUpgradeable","label":"parent","offset":0,"slot":"1","type":"t_address"},{"astId":1558,"contract":"contracts/RegistrationUpgradeable.sol:RegistrationUpgradeable","label":"referrer","offset":0,"slot":"2","type":"t_address"},{"astId":1561,"contract":"contracts/RegistrationUpgradeable.sol:RegistrationUpgradeable","label":"referee","offset":0,"slot":"3","type":"t_array(t_address)dyn_storage"},{"astId":1565,"contract":"contracts/RegistrationUpgradeable.sol:RegistrationUpgradeable","label":"refereeAssigned","offset":0,"slot":"4","type":"t_array(t_struct(RefereeStruct)1547_storage)dyn_storage"},{"astId":1569,"contract":"contracts/RegistrationUpgradeable.sol:RegistrationUpgradeable","label":"team","offset":0,"slot":"5","type":"t_array(t_struct(TeamStruct)1552_storage)dyn_storage"},{"astId":1571,"contract":"contracts/RegistrationUpgradeable.sol:RegistrationUpgradeable","label":"selfBusinessInUSD","offset":0,"slot":"6","type":"t_uint256"},{"astId":1573,"contract":"contracts/RegistrationUpgradeable.sol:RegistrationUpgradeable","label":"upgradedValueInUSD","offset":0,"slot":"7","type":"t_uint256"},{"astId":1575,"contract":"contracts/RegistrationUpgradeable.sol:RegistrationUpgradeable","label":"upgradeId","offset":0,"slot":"8","type":"t_uint8"},{"astId":1577,"contract":"contracts/RegistrationUpgradeable.sol:RegistrationUpgradeable","label":"directBusinessInUSD","offset":0,"slot":"9","type":"t_uint256"},{"astId":1579,"contract":"contracts/RegistrationUpgradeable.sol:RegistrationUpgradeable","label":"teamBusinessInUSD","offset":0,"slot":"10","type":"t_uint256"},{"astId":1581,"contract":"contracts/RegistrationUpgradeable.sol:RegistrationUpgradeable","label":"referralRewardsInUSD","offset":0,"slot":"11","type":"t_uint256"},{"astId":1583,"contract":"contracts/RegistrationUpgradeable.sol:RegistrationUpgradeable","label":"weeklyRewardsInUSD","offset":0,"slot":"12","type":"t_uint256"},{"astId":1585,"contract":"contracts/RegistrationUpgradeable.sol:RegistrationUpgradeable","label":"upgradeRewardsInUSD","offset":0,"slot":"13","type":"t_uint256"},{"astId":1587,"contract":"contracts/RegistrationUpgradeable.sol:RegistrationUpgradeable","label":"userRandomIndex","offset":0,"slot":"14","type":"t_uint256"},{"astId":1589,"contract":"contracts/RegistrationUpgradeable.sol:RegistrationUpgradeable","label":"timestampJoined","offset":0,"slot":"15","type":"t_uint256"}],"numberOfBytes":"512"},"t_struct(RefereeStruct)1547_storage":{"encoding":"inplace","label":"struct RefereeStruct","members":[{"astId":1544,"contract":"contracts/RegistrationUpgradeable.sol:RegistrationUpgradeable","label":"referee","offset":0,"slot":"0","type":"t_address"},{"astId":1546,"contract":"contracts/RegistrationUpgradeable.sol:RegistrationUpgradeable","label":"assignedTo","offset":0,"slot":"1","type":"t_address"}],"numberOfBytes":"64"},"t_struct(TeamStruct)1552_storage":{"encoding":"inplace","label":"struct TeamStruct","members":[{"astId":1549,"contract":"contracts/RegistrationUpgradeable.sol:RegistrationUpgradeable","label":"teamMember","offset":0,"slot":"0","type":"t_address"},{"astId":1551,"contract":"contracts/RegistrationUpgradeable.sol:RegistrationUpgradeable","label":"level","offset":20,"slot":"0","type":"t_uint8"}],"numberOfBytes":"32"},"t_struct(UpgradeStruct)1542_storage":{"encoding":"inplace","label":"struct UpgradeStruct","members":[{"astId":1539,"contract":"contracts/RegistrationUpgradeable.sol:RegistrationUpgradeable","label":"id","offset":0,"slot":"0","type":"t_uint8"},{"astId":1541,"contract":"contracts/RegistrationUpgradeable.sol:RegistrationUpgradeable","label":"valueToUpgradeInUSD","offset":0,"slot":"1","type":"t_uint256"}],"numberOfBytes":"64"},"t_uint256":{"encoding":"inplace","label":"uint256","numberOfBytes":"32"},"t_uint8":{"encoding":"inplace","label":"uint8","numberOfBytes":"1"}}}}}}