{"contracts/RegistrationUpgradeable.sol":{"RegistrationUpgradeable":{"abi":[{"inputs":[{"internalType":"address","name":"target","type":"address"}],"name":"AddressEmptyCode","type":"error"},{"inputs":[{"internalType":"address","name":"implementation","type":"address"}],"name":"ERC1967InvalidImplementation","type":"error"},{"inputs":[],"name":"ERC1967NonPayable","type":"error"},{"inputs":[],"name":"FailedCall","type":"error"},{"inputs":[],"name":"InvalidInitialization","type":"error"},{"inputs":[],"name":"NotInitializing","type":"error"},{"inputs":[{"internalType":"address","name":"owner","type":"address"}],"name":"OwnableInvalidOwner","type":"error"},{"inputs":[{"internalType":"address","name":"account","type":"address"}],"name":"OwnableUnauthorizedAccount","type":"error"},{"inputs":[],"name":"UUPSUnauthorizedCallContext","type":"error"},{"inputs":[{"internalType":"bytes32","name":"slot","type":"bytes32"}],"name":"UUPSUnsupportedProxiableUUID","type":"error"},{"anonymous":false,"inputs":[{"indexed":false,"internalType":"address","name":"user","type":"address"}],"name":"AddedToRandomList","type":"event"},{"anonymous":false,"inputs":[{"indexed":false,"internalType":"address","name":"defaultReferrer","type":"address"}],"name":"DefaultReferrerUpdated","type":"event"},{"anonymous":false,"inputs":[{"indexed":false,"internalType":"uint64","name":"version","type":"uint64"}],"name":"Initialized","type":"event"},{"anonymous":false,"inputs":[{"indexed":true,"internalType":"address","name":"previousOwner","type":"address"},{"indexed":true,"internalType":"address","name":"newOwner","type":"address"}],"name":"OwnershipTransferred","type":"event"},{"anonymous":false,"inputs":[{"indexed":false,"internalType":"address","name":"by","type":"address"},{"indexed":false,"internalType":"address","name":"to","type":"address"},{"indexed":false,"internalType":"address","name":"user","type":"address"}],"name":"ParentAdded","type":"event"},{"anonymous":false,"inputs":[{"indexed":false,"internalType":"address","name":"to","type":"address"},{"indexed":false,"internalType":"address","name":"user","type":"address"},{"indexed":false,"internalType":"uint256","name":"valueInWei","type":"uint256"},{"indexed":false,"internalType":"uint32","name":"level","type":"uint32"}],"name":"ReferralRewardsPaid","type":"event"},{"anonymous":false,"inputs":[{"indexed":false,"internalType":"address","name":"by","type":"address"},{"indexed":false,"internalType":"address","name":"user","type":"address"}],"name":"ReferrerAdded","type":"event"},{"anonymous":false,"inputs":[{"indexed":false,"internalType":"string","name":"reason","type":"string"}],"name":"ReferrerNoAdded","type":"event"},{"anonymous":false,"inputs":[{"indexed":false,"internalType":"address","name":"by","type":"address"},{"indexed":false,"internalType":"address","name":"to","type":"address"},{"indexed":false,"internalType":"address","name":"user","type":"address"},{"indexed":false,"internalType":"uint256","name":"valueInWei","type":"uint256"}],"name":"Registration","type":"event"},{"anonymous":false,"inputs":[{"indexed":false,"internalType":"address","name":"by","type":"address"},{"indexed":false,"internalType":"address","name":"to","type":"address"},{"indexed":false,"internalType":"address","name":"user","type":"address"}],"name":"RegistrationAssigned","type":"event"},{"anonymous":false,"inputs":[{"indexed":false,"internalType":"address","name":"user","type":"address"}],"name":"RemovedFromRandomList","type":"event"},{"anonymous":false,"inputs":[{"indexed":false,"internalType":"address","name":"to","type":"address"},{"indexed":false,"internalType":"address","name":"user","type":"address"},{"indexed":false,"internalType":"uint32","name":"level","type":"uint32"}],"name":"TeamAddressAdded","type":"event"},{"anonymous":false,"inputs":[{"indexed":false,"internalType":"address","name":"to","type":"address"},{"indexed":false,"internalType":"uint256","name":"valueInWei","type":"uint256"}],"name":"TeamWalletRewardPaid","type":"event"},{"anonymous":false,"inputs":[{"indexed":false,"internalType":"string","name":"reason","type":"string"}],"name":"UpgradeRewardNotPaid","type":"event"},{"anonymous":false,"inputs":[{"indexed":false,"internalType":"address","name":"to","type":"address"},{"indexed":false,"internalType":"address","name":"by","type":"address"},{"indexed":false,"internalType":"uint256","name":"valueInWei","type":"uint256"}],"name":"UpgradeRewardPaid","type":"event"},{"anonymous":false,"inputs":[{"indexed":true,"internalType":"address","name":"implementation","type":"address"}],"name":"Upgraded","type":"event"},{"anonymous":false,"inputs":[{"indexed":false,"internalType":"string","name":"reason","type":"string"}],"name":"WeeklyRewardNotPaid","type":"event"},{"anonymous":false,"inputs":[{"indexed":false,"internalType":"address","name":"to","type":"address"},{"indexed":false,"internalType":"uint256","name":"valueInWei","type":"uint256"}],"name":"WeeklyRewardPaid","type":"event"},{"inputs":[],"name":"UPGRADE_INTERFACE_VERSION","outputs":[{"internalType":"string","name":"","type":"string"}],"stateMutability":"view","type":"function"},{"inputs":[{"internalType":"address","name":"_chainLinkOracleAddress","type":"address"}],"name":"checkIfChainLinkOracleAddressSupporeted","outputs":[{"internalType":"bool","name":"","type":"bool"}],"stateMutability":"view","type":"function"},{"inputs":[{"internalType":"address","name":"_chainLinkOracleAddress","type":"address"}],"name":"distributeWeeklyReward","outputs":[],"stateMutability":"nonpayable","type":"function"},{"inputs":[],"name":"getAllUsers","outputs":[{"internalType":"address[]","name":"","type":"address[]"}],"stateMutability":"view","type":"function"},{"inputs":[],"name":"getContractDefaults","outputs":[{"internalType":"address","name":"teamWallet","type":"address"},{"internalType":"uint256","name":"teamWalletRate","type":"uint256"},{"internalType":"address","name":"liquidityWallet","type":"address"},{"internalType":"uint256","name":"liquidityCreationrate","type":"uint256"},{"internalType":"address","name":"defaultReferrer","type":"address"},{"internalType":"uint256","name":"registrationValueInUSD","type":"uint256"}],"stateMutability":"view","type":"function"},{"inputs":[{"internalType":"address","name":"_chainLinkOracleAddress","type":"address"}],"name":"getNativePriceInUSD","outputs":[{"internalType":"uint256","name":"","type":"uint256"}],"stateMutability":"view","type":"function"},{"inputs":[],"name":"getRandomUserList","outputs":[{"internalType":"address[]","name":"","type":"address[]"}],"stateMutability":"view","type":"function"},{"inputs":[],"name":"getRegistrationsStats","outputs":[{"internalType":"uint32","name":"totalUser","type":"uint32"},{"internalType":"uint256","name":"totalRegistrationValueInUSD","type":"uint256"},{"internalType":"uint256","name":"totalReferralPaidInUSD","type":"uint256"},{"internalType":"uint256","name":"totalWeeklyRewardsPaidInUSD","type":"uint256"}],"stateMutability":"view","type":"function"},{"inputs":[],"name":"getSupportedChainLinkOracleAddress","outputs":[{"internalType":"address[]","name":"","type":"address[]"}],"stateMutability":"view","type":"function"},{"inputs":[],"name":"getUpgradePlans","outputs":[{"components":[{"internalType":"uint8","name":"id","type":"uint8"},{"internalType":"uint256","name":"valueToUpgradeInUSD","type":"uint256"}],"internalType":"struct UpgradeStruct[]","name":"upgradePlans","type":"tuple[]"},{"internalType":"uint8","name":"upgradePlansCount","type":"uint8"}],"stateMutability":"view","type":"function"},{"inputs":[{"internalType":"uint8","name":"_id","type":"uint8"}],"name":"getUpgradePlansById","outputs":[{"components":[{"internalType":"uint8","name":"id","type":"uint8"},{"internalType":"uint256","name":"valueToUpgradeInUSD","type":"uint256"}],"internalType":"struct UpgradeStruct","name":"","type":"tuple"}],"stateMutability":"view","type":"function"},{"inputs":[{"internalType":"address","name":"_userAddress","type":"address"}],"name":"getUserAccount","outputs":[{"components":[{"internalType":"address","name":"self","type":"address"},{"internalType":"address","name":"parent","type":"address"},{"internalType":"address","name":"referrer","type":"address"},{"internalType":"address[]","name":"referee","type":"address[]"},{"components":[{"internalType":"address","name":"referee","type":"address"},{"internalType":"address","name":"assignedTo","type":"address"}],"internalType":"struct RefereeStruct[]","name":"refereeAssigned","type":"tuple[]"},{"components":[{"internalType":"address","name":"teamMember","type":"address"},{"internalType":"uint8","name":"level","type":"uint8"}],"internalType":"struct TeamStruct[]","name":"team","type":"tuple[]"},{"internalType":"uint256","name":"selfBusinessInUSD","type":"uint256"},{"internalType":"uint256","name":"upgradedValueInUSD","type":"uint256"},{"internalType":"uint8","name":"upgradeId","type":"uint8"},{"internalType":"uint256","name":"directBusinessInUSD","type":"uint256"},{"internalType":"uint256","name":"teamBusinessInUSD","type":"uint256"},{"internalType":"uint256","name":"referralRewardsInUSD","type":"uint256"},{"internalType":"uint256","name":"weeklyRewardsInUSD","type":"uint256"},{"internalType":"uint256","name":"upgradeRewardsInUSD","type":"uint256"},{"internalType":"uint256","name":"userRandomIndex","type":"uint256"},{"internalType":"uint256","name":"timestampJoined","type":"uint256"}],"internalType":"struct AccountStruct","name":"","type":"tuple"}],"stateMutability":"view","type":"function"},{"inputs":[{"internalType":"address","name":"_userAddress","type":"address"}],"name":"getUserBusiness","outputs":[{"internalType":"uint256","name":"selfBusinessInUSD","type":"uint256"},{"internalType":"uint256","name":"directBusinessInUSD","type":"uint256"},{"internalType":"uint256","name":"teamBusinessInUSD","type":"uint256"},{"internalType":"uint256","name":"totalBusinessInUSD","type":"uint256"}],"stateMutability":"view","type":"function"},{"inputs":[{"internalType":"address","name":"_userAddress","type":"address"}],"name":"getUserCurrentUpgradeLevel","outputs":[{"internalType":"uint8","name":"level","type":"uint8"},{"internalType":"uint256","name":"totalUpgradeValueInUSD","type":"uint256"}],"stateMutability":"view","type":"function"},{"inputs":[{"internalType":"address","name":"_userAddress","type":"address"}],"name":"getUserRewards","outputs":[{"internalType":"uint256","name":"referralRewardInUSD","type":"uint256"},{"internalType":"uint256","name":"weeklyRewardInUSD","type":"uint256"},{"internalType":"uint256","name":"upgradeRewardsInUSD","type":"uint256"},{"internalType":"uint256","name":"totalRewards","type":"uint256"}],"stateMutability":"view","type":"function"},{"inputs":[{"internalType":"address","name":"_userAddress","type":"address"}],"name":"getUserTeam","outputs":[{"internalType":"address","name":"referrer","type":"address"},{"internalType":"address[]","name":"referees","type":"address[]"},{"internalType":"uint256","name":"refereeCount","type":"uint256"},{"components":[{"internalType":"address","name":"referee","type":"address"},{"internalType":"address","name":"assignedTo","type":"address"}],"internalType":"struct RefereeStruct[]","name":"refereeAssigned","type":"tuple[]"},{"internalType":"uint256","name":"refereeAssignedCount","type":"uint256"},{"components":[{"internalType":"address","name":"teamMember","type":"address"},{"internalType":"uint8","name":"level","type":"uint8"}],"internalType":"struct TeamStruct[]","name":"team","type":"tuple[]"},{"internalType":"uint256","name":"teamCount","type":"uint256"}],"stateMutability":"view","type":"function"},{"inputs":[],"name":"getWeeklyRewardToBeDistributed","outputs":[{"internalType":"uint256","name":"_rewardValue","type":"uint256"},{"internalType":"uint256","name":"_remianingTime","type":"uint256"},{"internalType":"uint256","name":"_endTime","type":"uint256"}],"stateMutability":"view","type":"function"},{"inputs":[],"name":"initialize","outputs":[],"stateMutability":"nonpayable","type":"function"},{"inputs":[{"internalType":"address","name":"_chainLinkOracleAddress","type":"address"}],"name":"needNativeToRegister","outputs":[{"internalType":"uint256","name":"","type":"uint256"}],"stateMutability":"view","type":"function"},{"inputs":[],"name":"owner","outputs":[{"internalType":"address","name":"","type":"address"}],"stateMutability":"view","type":"function"},{"inputs":[],"name":"proxiableUUID","outputs":[{"internalType":"bytes32","name":"","type":"bytes32"}],"stateMutability":"view","type":"function"},{"inputs":[{"internalType":"address","name":"_referrer","type":"address"},{"internalType":"address","name":"_chainLinkOracleAddress","type":"address"}],"name":"registrationNative","outputs":[],"stateMutability":"payable","type":"function"},{"inputs":[],"name":"renounceOwnership","outputs":[],"stateMutability":"nonpayable","type":"function"},{"inputs":[{"internalType":"address","name":"_chainLinkOracleAddress","type":"address"},{"internalType":"bool","name":"_status","type":"bool"}],"name":"setChainLinkOracleAddress","outputs":[],"stateMutability":"nonpayable","type":"function"},{"inputs":[{"internalType":"address","name":"defaultReferrer_","type":"address"}],"name":"setDefaultReferrer","outputs":[],"stateMutability":"nonpayable","type":"function"},{"inputs":[{"internalType":"address","name":"newOwner","type":"address"}],"name":"transferOwnership","outputs":[],"stateMutability":"nonpayable","type":"function"},{"inputs":[{"internalType":"uint256[]","name":"_valueToUpgradeInDecimals","type":"uint256[]"}],"name":"updateUpgradePlans","outputs":[],"stateMutability":"nonpayable","type":"function"},{"inputs":[{"internalType":"address","name":"_chainLinkOracleAddress","type":"address"}],"name":"upgradeAccountNative","outputs":[],"stateMutability":"payable","type":"function"},{"inputs":[{"internalType":"address","name":"newImplementation","type":"address"},{"internalType":"bytes","name":"data","type":"bytes"}],"name":"upgradeToAndCall","outputs":[],"stateMutability":"payable","type":"function"},{"stateMutability":"payable","type":"receive"}],"evm":{"bytecode":{"linkReferences":{},"object":"60a080604052346029573060805261377a908161002f823960805181818161283b015261290e0152f35b600080fdfe608080604052600436101561001d575b50361561001b57600080fd5b005b60003560e01c9081630690c6a814612e5c57508063078b0fb714612c6c57806307c560d114612b9057806308e922ba14612b7457806311f4d57614612b355780631a74634414612ad25780634f1ef2861461289257806352d1902d1461282857806359a04544146126bb5780635eda81ce146124a65780636a74631114612480578063715018a6146124285780637ec37e03146123c55780638129fc1c14611ee4578063846688f714611e835780638da5cb5b14611e4d578063a0db38e514611ad6578063a9df9fae14611a69578063ad3cb1cc146119ed578063c53b219e14610f6f578063d277b8a914610d42578063dcf6e81914610c9d578063e2842d7914610c6d578063e35422e714610b69578063f2fde38b14610b40578063f87127b414610931578063f925017114610733578063faeda7e5146104e75763fb47e01614610169573861000f565b346104e25760203660031901126104e257610182612e97565b60006101e060405161019381612eea565b82815282602082015282604082015260608082015260606080820152606060a08201528260c08201528260e08201528261010082015282610120820152826101408201528261016082015282610180820152826101a0820152826101c0820152015260018060a01b03166000526012602052604060002060405161021681612eea565b81546001600160a01b039081168252600183015481166020830190815260028401549091166040830190815290929091610252600383016130a0565b60608201908152600483018054610268816130f4565b916102766040519384612f21565b818352602083019060005260206000206000915b8383106104a7575050505060808301908152600584019182546102ac816130f4565b936102ba6040519586612f21565b818552602085019060005260206000206000915b838310610471575050505060a08401928352600685015460c0850152600785015460e08501908152600886015460ff166101008601526009860154610120860152600a860154610140860152600b860154610160860152600c860154610180860152600d8601546101a0860152600e8601546101c0860152600f909501546101e085015260408051602080825286516001600160a01b039081168284015299518a16928201929092529651909716606087015251610200608087015280516102208701819052610240870197919091019060005b818110610452575050506101e092916103cc86976103df9351601f198983030160a08a0152612f5f565b9051868203601f190160c0880152612fab565b9260c082015160e08601525161010085015260ff610100820151166101208501526101208101516101408501526101408101516101608501526101608101516101808501526101808101516101a08501526101a08101516101c08501526101c08101518285015201516102008301520390f35b82516001600160a01b03168952602098890198909201916001016103a2565b60016020819260405161048381612f06565b60ff8654858060a01b038116835260a01c16838201528152019201920191906102ce565b600260206001926040516104ba81612f06565b848060a01b038654168152848060a01b0385870154168382015281520192019201919061028a565b600080fd5b346104e25760203660031901126104e2576001600160a01b03610508612e97565b16600052601260205260406000206040519061052382612eea565b80546001600160a01b0390811683526001820154811660208401526002820154166040830190815290610558600382016130a0565b916060840192835260048201938454610570816130f4565b9561057e6040519788612f21565b818752602087019060005260206000206000915b8383106106f8575050505060808101948552600583019283546105b4816130f4565b946105c26040519687612f21565b818652602086019060005260206000206000915b8383106106c25750505050906101e0600f6106b894938660a0850152600681015460c0850152600781015460e085015260ff6008820154166101008501526009810154610120850152600a810154610140850152600b810154610160850152600c810154610180850152600d8101546101a0850152600e8101546101c0850152015491015260018060a01b0390511692519384519051926106a5845192825195610692604051998a998a5260e060208b015260e08a0190612ead565b9160408901528782036060890152612f5f565b91608086015284820360a0860152612fab565b9060c08301520390f35b6001602081926040516106d481612f06565b60ff8654858060a01b038116835260a01c16838201528152019201920191906105d6565b6002602060019260405161070b81612f06565b848060a01b038654168152848060a01b03858701541683820152815201920192019190610592565b346104e25760203660031901126104e25761074c612e97565b6001600160a01b0316600090815260126020526040808220905190919061077281612eea565b82546001600160a01b03908116825260018401548116602083015260028401541660408201526107a4600384016130a0565b60608201526004830180546107b8816130f4565b916107c66040519384612f21565b818352602083019060005260206000206000915b8383106108f657505050506080820152600583019283546107fa816130f4565b906108086040519283612f21565b80825260208201956000526020600020956000905b8282106108c0575050506040945060a0830152600681015460c08301526007810154918260e08201526101e0600f60ff60088501541693846101008501526009810154610120850152600a810154610140850152600b810154610160850152600c810154610180850152600d8101546101a0850152600e8101546101c08501520154910152806108b8575b5060ff8351921682526020820152f35b9150836108a8565b6001602081926040516108d281612f06565b60ff8c54858060a01b038116835260a01c168382015281520198019101909661081d565b6002602060019260405161090981612f06565b848060a01b038654168152848060a01b038587015416838201528152019201920191906107da565b346104e25760203660031901126104e2576001600160a01b03610952612e97565b16600052601260205260406000206040519061096d82612eea565b80546001600160a01b039081168352600182015481166020840152600282015416604083015261099f600382016130a0565b60608301526004810180546109b3816130f4565b916109c16040519384612f21565b818352602083019060005260206000206000915b838310610b05575050505060808301526005810180546109f4816130f4565b91610a026040519384612f21565b818352602083019060005260206000206000915b838310610acf575050505060a0830152610acb6006820154918260c0850152600781015460e085015260ff600882015416610100850152600981015493846101208201526101e0600f600a8401549384610140850152600b810154610160850152600c810154610180850152600d8101546101a0850152600e8101546101c08501520154910152610aa7838261310b565b90604051948594859094939260609260808301968352602083015260408201520152565b0390f35b600160208192604051610ae181612f06565b60ff8654858060a01b038116835260a01c1683820152815201920192019190610a16565b60026020600192604051610b1881612f06565b848060a01b038654168152848060a01b038587015416838201528152019201920191906109d5565b346104e25760203660031901126104e25761001b610b5c612e97565b610b64613425565b6132ba565b346104e25760203660031901126104e2576004356001600160401b0381116104e257366023820112156104e25760048101356001600160401b0381116104e2573660248260051b840101116104e25790610bc1613425565b6000915b60ff8316928184101561001b57610bdb81613229565b6000946024611fe08460051b168601013590670de0b6b3a7640000820291808304670de0b6b3a76400001490151715610c59579060ff806040610c5297989960019583835198610c2a8a612f06565b1688526020880195865281526013602052209451161660ff1984541617835551910155613218565b9190610bc5565b634e487b7160e01b87526011600452602487fd5b346104e25760003660031901126104e257610acb610c8961304d565b604051918291602083526020830190612ead565b346104e25760203660031901126104e2576000805160206136ee8339815191526020610cc7612e97565b610ccf613425565b6001600160a01b0381166000818152601284526040902080546001600160a01b0319168217815569152d02c7e14af6800000600682015542600f8201556001600e9091015590610d2790610d22816131d0565b6131ab565b600e80546001600160a01b03191682179055604051908152a1005b346104e25760203660031901126104e257610d5b612e97565b6001600160a01b038116600090815260146020526040902054610d859060ff16151560011461323b565b670de0b6b3a7640000610da3610d9d6009549361331e565b83613118565b04600b5462093a80810110610f19578115610f2f57610dc061304d565b6000194301438111610f1957610e1590604051610df681610de8602082019440444287613280565b03601f198101835282612f21565b51902082516001600160a01b039391610e0f9190613295565b90613164565b5116918215610ea2576000808080938682526012602052600c6040832001610e3e87825461310b565b90558682f115610e96577f6dbdd944bdf6514aca26947d204530e2ecbea365677ef05fee7a56d54a14569791600060095542600b55610e7f8260055461310b565b600555610e916040519283928361329f565b0390a1005b6040513d6000823e3d90fd5b5050507f974c744afa915921dddb0f53fdbfdd97fef12a94db2457dcf878aa94ad687274608060405160208152603160208201527f52616e646f6d206164647265737320776173207a65726f20616464726573732e60408201527010283632b0b9b2903a393c9030b3b0b4b760791b6060820152a1005b634e487b7160e01b600052601160045260246000fd5b60405162461bcd60e51b81526020600482015260186024820152774e6f207265776172647320746f206469737472696275746560401b6044820152606490fd5b60403660031901126104e257610f83612e97565b6024356001600160a01b038116908181036104e2576001600160a01b03831691821561199c576000526014602052600160ff6040600020541615150361194b57610fde610fd8670de0b6b3a76400009261331e565b34613118565b0490600f54606181029080820460611490151715610f19576064900482106118f757600c549060ff8083169260081c16913360005260126020526040600020928260005260126020526040600020600685019687546118b85760068201541561187d5785546001600160a01b03161561185d575b81546001600160a01b03161561183c575b5050600d54600285018054909491906001600160a01b03166117dc5733600052601260205260406000209133811461179a57604090600090815260126020522090600382016110b38282546134ce565b156117615750600e820154600090611759575b61174b575b6000194301438111610f1957611102611107916040516110f681610de8602082019440444287613280565b51902060015490613295565b613178565b90546001600160a01b0360039290921b1c81166000908152601260205260409020805490929116801561170b578461113e916134f5565b825482546040516001600160a01b0391821693927fa1b30426557565c4fa85ce5f9c88513d7d3f49d21eb30569c249b07b037831ef928291611185913391889116846134ab565b0390a16040516004850161119882612f06565b33825260208201938452805493600160401b85101561165d57600185018083558510156116f557600091825260209091209151600194851b90920180546001600160a01b039384166001600160a01b03199182161782559151940180549490921693169290921790915561121a906003830161121433826131f5565b546134ce565b6116e6575b505b6001820180546001600160a01b03161561167e575b50506000905b8260ff831610611524575b5050505b600e830180546114df578354611269906001600160a01b03166131d0565b60015490557f0411c58b3c1e8a39d91c901e5c807bff1401650beedc45aba65112756bb929b4608060018060a01b038554167f06baf10092c7ea144c4fb56fb8cf641e1f00e291a535b5d54b547eadb29485a76020604051838152a160018601549454604080516001600160a01b0397881680825297909216602083015281019190915260608101879052a1606461130d816113058434613118565b049286613118565b0491600052601260205260406000209060018060a01b0382541680611440575b505050506006546000808080606461134b60ff8760a01c1634613118565b04809582908215611436575b6001600160a01b031690f115610e96576006546040517f5aa75bdb3269082e844d731608afae2a07cbf194f251e3f857b870af86b754fb92909182916113a6916001600160a01b03168361329f565b0390a160646113ba60ff6008541634613118565b049260008080808760018060a01b036010541682821561142d575bf115610e96576113ea6114289460075461310b565b6007556113f883825461310b565b9055600f4291015561141d606461141460ff600a541634613118565b0460095461310b565b60095560025461310b565b600255005b506108fc6113d5565b6108fc9150611357565b600080808481948282156114d6575bf115610e96576009927f153f77382d7e07de734977ae352e9b1f5f8ad4b1c0033c883a9a33456a87836f60806114bc9360018060a01b0386541690604051918252336020830152604082015260016060820152a1600b83016114b282825461310b565b905560035461310b565b600355016114cb83825461310b565b90558380808061132d565b506108fc61144f565b60405162461bcd60e51b815260206004820152601e60248201527f5573657220697320616c726561647920696e2072616e646f6d206c69737400006044820152606490fd5b60028101546001600160a01b031690811561167857546001600160a01b031681146116735760005260126020526040600020600581019061156483613229565b6040519261157184612f06565b33845260ff60208501921682528054600160401b81101561165d5761159b91600182018155613193565b919091611647579251815493516001600160a81b03199094166001600160a01b03919091161760a09390931b60ff60a01b1692909217909155600a810180546116419291906115eb908a9061310b565b905580547f85db3f10b88ea7fc653f3f818097a3fc3c543196ed60cad2251df922bcc9ad7f906060906001600160a01b031660ff61162887613229565b604051928352336020840152166040820152a191613218565b9061123c565b634e487b7160e01b600052600060045260246000fd5b634e487b7160e01b600052604160045260246000fd5b611247565b50611247565b905481546001600160a01b0319166001600160a01b0391821690811790925560028301546040517f8efa008f8ae98ae30d3219078a298c85bc25a62f50c57ed9a3ec838b7eed9f4793909283926116dc9233929190911690846134ab565b0390a18780611236565b6116ef9061354b565b8861121f565b634e487b7160e01b600052603260045260246000fd5b60405162461bcd60e51b8152602060048201526018602482015277139bc81c985b991bdb481c9959995c9c995c88199bdd5b9960421b6044820152606490fd5b6117548261354b565b6110cb565b5060016110c6565b825461178792919061177d9086906001600160a01b03166134f5565b61121433826131f5565b15611221576117958161354b565b611221565b60405162461bcd60e51b815260206004820152601a6024820152792cb7ba9031b0b73737ba103932b332b9103cb7bab939b2b6331760311b6044820152606490fd5b5050507f1f4fff38c5e64af9e759d590409f022ea913658008bb1d0cd35e028244f01ecf606060405160208152601f60208201527f5573657220416c72656164792068617665207265666572726572207365742e006040820152a161124b565b81546001600160a01b0319168517909155611856906131ab565b8680611063565b85546001600160a01b031916339081178755611878906131ab565b611052565b60405162461bcd60e51b81526020600482015260136024820152725265666572726572204e6f742041637469766560681b6044820152606490fd5b60405162461bcd60e51b8152602060048201526017602482015276155cd95c88185b1c9958591e481c9959da5cdd195c9959604a1b6044820152606490fd5b60405162461bcd60e51b815260206004820152602660248201527f56616c7565206973206c657373207468656e20726567697374726174696f6e206044820152653b30b63ab29760d11b6064820152608490fd5b60405162461bcd60e51b815260206004820152602360248201527f43757272656e637920596f752073656c6563746564206e6f7420737570706f726044820152621d195960ea1b6064820152608490fd5b60405162461bcd60e51b815260206004820152602360248201527f5a65726f20416464726573732063616e6e6f74206265207468652072656665726044820152623932b960e91b6064820152608490fd5b346104e25760003660031901126104e2576040805190611a0d8183612f21565b60058252640352e302e360dc1b6020830152805180926020825280519081602084015260005b828110611a525750506000828201840152601f01601f19168101030190f35b602082820181015187830187015286945001611a33565b346104e25760203660031901126104e25760043560ff81168091036104e257611a9061314b565b5060005260136020526040806000206001825191611aad83612f06565b60ff815416835201546020820152611ad4825180926020809160ff81511684520151910152565bf35b60203660031901126104e257670de0b6b3a7640000611b28610fd8611af9612e97565b6001600160a01b038116600090815260146020526040902054611b239060ff16151560011461323b565b61331e565b0433600052601260205260406000206008810160ff8154166000526013602052604060002090600160405192611b5d84612f06565b60ff81541684520154602083019080825215611e08578051605f810290808204605f1490151715610f1957606490048511908115611de8575b5015611d945760ff80809360078601611bb088825461310b565b9055511616821982541617815554169160009260001981019260ff8085119416905b82861115611bdc57005b600201546001600160a01b0316600090815260126020526040902084610f1957818614611c1657946000198114610f195760010194611bd2565b80955060ff929394506008915001541690808211918215611d8a575b505080611d77575b15611ca757611c4e600d830191825461310b565b9055600080808060018060a01b0385541681903415611c9d575b3491f115610e96575460405160008051602061372e833981519152918190610e9190349033906001600160a01b03168461345b565b6108fc9150611c68565b50507f6696b78fc1713892e6e2bb3df5cdc986ab67a0c675898c7ef535bd2201ca9451608060405160208152603f60208201527f55706c696e6520686173206e6f742075706772616465642e20416d6f756e742060408201527f7472616e73666572656420746f206c69717569646974792077616c6c65742e006060820152a16010546001600160a01b031660003415611d6e575b600080808093853491f115610e9657610e9160008051602061372e83398151915291604051918291349033908461345b565b506108fc611d3c565b5081546001600160a01b03161515611c3a565b1490508380611c32565b60405162461bcd60e51b815260206004820152602660248201527f56616c75652073686f756c6420626520657175616c20746f20757067726164656044820152652076616c756560d01b6064820152608490fd5b51606980820292508115918304141715610f195760649004841085611b96565b60405162461bcd60e51b815260206004820152601d60248201527f596f75206861766520757067726164656420616c6c206c6576656c732e0000006044820152606490fd5b346104e25760003660031901126104e2576000805160206136ae833981519152546040516001600160a01b039091168152602090f35b346104e25760003660031901126104e2576000600954600b549162093a80830192838111610f1957428411611eca575b509160609260405192835260208301526040820152f35b62093a8091504290030191808311610f1957916060611eb3565b346104e25760003660031901126104e25760008051602061374e83398151915254604081901c60ff1615906001600160401b038116801590816123bd575b60011490816123b3575b1590816123aa575b50612399576001600160401b0319811660011760008051602061374e8339815191525581612370575b5073cef5767039fa6a66016b802546f123e0c3ddedc2600081905260126020527f7b58f54f0bc0fcd57e50c233f450fe384adf8c88021dbbeef24b87de22945c1480546001600160a01b0319168217905569152d02c7e14af68000007f7b58f54f0bc0fcd57e50c233f450fe384adf8c88021dbbeef24b87de22945c1a55427f7b58f54f0bc0fcd57e50c233f450fe384adf8c88021dbbeef24b87de22945c235560017f7b58f54f0bc0fcd57e50c233f450fe384adf8c88021dbbeef24b87de22945c225561202b906131d0565b61204873cef5767039fa6a66016b802546f123e0c3ddedc26131ab565b73cef5767039fa6a66016b802546f123e0c3ddedc260018060a01b0319600e541617600e556000805160206136ee833981519152602060405173cef5767039fa6a66016b802546f123e0c3ddedc28152a1601154600160401b81101561165d578060016120ba92016011556011613193565b81546001600160a01b0360039290921b91821b1916730567f2323251f0aab15c8dfb1967e4e8a7d42aee90911b179055601154600160401b81101561165d5780600161210b92016011556011613193565b81546001600160a01b0360039290921b91821b1916739c85f470f9ba23dfc4fe9531933c2ce2c1739c399182901b1790915560146020527f18b399276171edd4288c75706c059c76f8ba27a208f6ab7dc13ddac4a813eb06805460ff1990811660019081179092556000929092527f785e316b530d6f09805cf52ec6944c1fd91d7cf1ffa292231399b4110cc5ca9d80548316909117905568015af1d78b58c40000600f55600c805461ffff191661083c1790556002600d55600680546001600160a81b0319167414554f58fcfcef95f82c8cf6ed9e51e5c79e341481179055601080546001600160a01b031916733d7263afa42c9d47c13cfcdcdc72a131077e56181781556008805483169091179055600a8054909116600417905542600b5560405160e081016001600160401b0381118282101761165d576040526801158e460913d0000081526801a055690d9db8000060208201526802b5e3af16b188000060408201526809c2007651b250000060608201526815af1d78b58c400000608082015268281d901f4fdd10000060a0820152684fb0591b9b3038000060c082015260005b60ff81169060078210156122f4576122ef9160016122ce83613229565b9160ff8060406000611fe08860051b168a01519483835198610c2a8a612f06565b6122b1565b836122fd61347d565b61230561347d565b61230e336132ba565b61231661347d565b61231c57005b60ff60401b1960008051602061374e833981519152541660008051602061374e833981519152557fc7f505b2f371ae2175ee4913f4499e1f2633a7b5936321eed1cdaeb6115181d2602060405160018152a1005b6001600160481b0319166001600160401b011760008051602061374e8339815191525581611f5d565b63f92ee8a960e01b60005260046000fd5b90501583611f34565b303b159150611f2c565b839150611f22565b346104e25760003660031901126104e2576040516001548082526020820190600160005260206000209060005b81811061240957610acb85610c8981870382612f21565b82546001600160a01b03168452602090930192600192830192016123f2565b346104e25760003660031901126104e257612441613425565b6000805160206136ae83398151915280546001600160a01b031981169091556000906001600160a01b031660008051602061370e8339815191528280a3005b346104e25760203660031901126104e257602061249e611b23612e97565b604051908152f35b346104e25760403660031901126104e2576124bf612e97565b6024358015158091036104e2576124d4613425565b6001600160a01b03821660008181526014602052604090205490919060ff161515811461268157600190826000526014602052604060002060ff1981541660ff83161790551460001461256b575060115490600160401b82101561165d5761254782600161001b94016011556011613193565b9080546001600160a01b0360039390931b83811b199091169290931690921b179055565b9050612575612ff7565b805160005b81811061258357005b836001600160a01b036125968386613164565b5116146125a6575b60010161257a565b6000198201828111610f19576001600160a01b03906125c59085613164565b5116600060115483101561266d576011908190527f31ecc21a745e3968a04e9570e4425bc18fa8019c68028196b546d1669c200c68830180546001600160a01b0319166001600160a01b039093169290921790915554600081156126595750600191906000190161264f61263a826011613193565b81549060018060a01b039060031b1b19169055565b601155905061259e565b634e487b7160e01b81526031600452602490fd5b634e487b7160e01b81526032600452602490fd5b60405162461bcd60e51b815260206004820152601260248201527114dd185d1d5cc8185b1c9958591e481cd95d60721b6044820152606490fd5b346104e25760003660031901126104e25760ff6000805b82821660328110156128205760005260136020528260406000205416156127085760016126ff8492613218565b920116906126d2565b90505b16612715816130f4565b906127236040519283612f21565b808252601f19612732826130f4565b0160005b8181106127fb57505060005b60ff8116828110156127995760ff916127918260019360005260136020526040600020846040519161277383612f06565b8781541683520154602082015261278a8289613164565b5286613164565b500116612742565b828460405190604082019260408352815180945260206060840192016000945b8086106127ce57505082935060208301520390f35b909260206040826127ef60019488516020809160ff81511684520151910152565b019401950194906127b9565b60209060405161280a81612f06565b6000815260008382015282828701015201612736565b50905061270b565b346104e25760003660031901126104e2577f00000000000000000000000000000000000000000000000000000000000000006001600160a01b031630036128815760206040516000805160206136ce8339815191528152f35b63703e46dd60e11b60005260046000fd5b60403660031901126104e2576128a6612e97565b602435906001600160401b0382116104e257366023830112156104e2578160040135906128d282612f44565b916128e06040519384612f21565b808352602083019336602483830101116104e257816000926024602093018737840101526001600160a01b037f000000000000000000000000000000000000000000000000000000000000000016308114908115612aaf575b5061288157612946613425565b6040516352d1902d60e01b81526001600160a01b0382169390602081600481885afa60009181612a7b575b5061298b5784634c9c8ce360e01b60005260045260246000fd5b806000805160206136ce833981519152869203612a675750823b15612a53576000805160206136ce83398151915280546001600160a01b031916821790557fbc7cd75a20ee27fd9adebab32041f755214dbc6bffa90cc0225b39da2e5c2d3b600080a2825115612a38576000809161001b945190845af43d15612a30573d91612a1383612f44565b92612a216040519485612f21565b83523d6000602085013e61364c565b60609161364c565b50505034612a4257005b63b398979f60e01b60005260046000fd5b634c9c8ce360e01b60005260045260246000fd5b632a87526960e21b60005260045260246000fd5b9091506020813d602011612aa7575b81612a9760209383612f21565b810103126104e257519086612971565b3d9150612a8a565b6000805160206136ce833981519152546001600160a01b03161415905084612939565b346104e25760003660031901126104e257600654601054600854600e54600f54604080516001600160a01b03808816825260a097881c60ff908116602084015296811692820192909252939094166060840152921660808201529182015260c090f35b346104e25760203660031901126104e2576001600160a01b03612b56612e97565b166000526014602052602060ff604060002054166040519015158152f35b346104e25760003660031901126104e257610acb610c89612ff7565b346104e25760203660031901126104e257612ba9612e97565b60018060a01b0381166000526014602052600160ff60406000205416151503612c0657600f5490670de0b6b3a7640000820291808304670de0b6b3a76400001490151715610f1957602091612c0061249e9261331e565b9061312b565b60405162461bcd60e51b815260206004820152603860248201527f506c6561736520636865636b2074686520636861696e4c696e6b4f7261636c656044820152771059191c995cdcc81bdc881b9bdd081cdd5c1c1bdc9d195960421b6064820152608490fd5b346104e25760203660031901126104e2576001600160a01b03612c8d612e97565b166000526012602052604060002060405190612ca882612eea565b80546001600160a01b0390811683526001820154811660208401526002820154166040830152612cda600382016130a0565b6060830152600481018054612cee816130f4565b91612cfc6040519384612f21565b818352602083019060005260206000206000915b838310612e2157505050506080830152600581018054612d2f816130f4565b91612d3d6040519384612f21565b818352602083019060005260206000206000915b838310612deb575050505060a0830152600681015460c0830152600781015460e083015260ff6008820154166101008301526009810154610120830152600a810154610140830152610acb600b8201549182610160850152600c81015493846101808201526101e0600f600d84015493846101a0850152600e8101546101c08501520154910152610aa781612de6868661310b565b61310b565b600160208192604051612dfd81612f06565b60ff8654858060a01b038116835260a01c1683820152815201920192019190612d51565b60026020600192604051612e3481612f06565b848060a01b038654168152848060a01b03858701541683820152815201920192019190612d10565b346104e25760003660031901126104e25760809063ffffffff6000541660025460035490600554928452602084015260408301526060820152f35b600435906001600160a01b03821682036104e257565b906020808351928381520192019060005b818110612ecb5750505090565b82516001600160a01b0316845260209384019390920191600101612ebe565b61020081019081106001600160401b0382111761165d57604052565b604081019081106001600160401b0382111761165d57604052565b601f909101601f19168101906001600160401b0382119082101761165d57604052565b6001600160401b03811161165d57601f01601f191660200190565b906020808351928381520192019060005b818110612f7d5750505090565b825180516001600160a01b039081168652602091820151168186015260409094019390920191600101612f70565b906020808351928381520192019060005b818110612fc95750505090565b825180516001600160a01b0316855260209081015160ff168186015260409094019390920191600101612fbc565b604051906011548083528260208101601160005260206000209260005b81811061302b57505061302992500383612f21565b565b84546001600160a01b0316835260019485019487945060209093019201613014565b6040519060005480835282602081016000805260206000209260005b81811061307e57505061302992500383612f21565b84546001600160a01b0316835260019485019487945060209093019201613069565b906040519182815491828252602082019060005260206000209260005b8181106130d257505061302992500383612f21565b84546001600160a01b03168352600194850194879450602090930192016130bd565b6001600160401b03811161165d5760051b60200190565b91908201809211610f1957565b81810292918115918404141715610f1957565b8115613135570490565b634e487b7160e01b600052601260045260246000fd5b6040519061315882612f06565b60006020838281520152565b80518210156116f55760209160051b010190565b6001548110156116f557600160005260206000200190600090565b80548210156116f55760005260206000200190600090565b60005490600160401b82101561165d5761254782600161302994016000556000613193565b60015490600160401b82101561165d5761254782600161302994016001556001613193565b80549190600160401b83101561165d578261254791600161302995018155613193565b60ff1660ff8114610f195760010190565b60ff60019116019060ff8211610f1957565b1561324257565b60405162461bcd60e51b815260206004820152601660248201527510dd5c9c995b98de481b9bdd081cdd5c1c1bdc9d195960521b6044820152606490fd5b91606093918352602083015260408201520190565b8115613135570690565b6001600160a01b039091168152602081019190915260400190565b6001600160a01b03168015613308576000805160206136ae83398151915280546001600160a01b0319811683179091556001600160a01b031660008051602061370e833981519152600080a3565b631e4fbdf760e01b600052600060045260246000fd5b6040516350d25bcd60e01b8152906001600160a01b0316602082600481845afa918215610e96576000926133f0575b5060206004916040519283809263313ce56760e01b82525afa908115610e96576000916133ac575b5060ff1690670de0b6b3a764000090818102918183041490151715610f1957604d8211610f19576133a991600a0a9061312b565b90565b6020813d6020116133e8575b816133c560209383612f21565b810103126133e457519060ff821682036133e1575060ff613375565b80fd5b5080fd5b3d91506133b8565b90916020823d60201161341d575b8161340b60209383612f21565b810103126133e157505190602061334d565b3d91506133fe565b6000805160206136ae833981519152546001600160a01b0316330361344657565b63118cdaa760e01b6000523360045260246000fd5b6001600160a01b03918216815291166020820152604081019190915260600190565b60ff60008051602061374e8339815191525460401c161561349a57565b631afcd79f60e31b60005260046000fd5b6001600160a01b0391821681529181166020830152909116604082015260600190565b600092918082149182156134eb575b50506134e557565b60019150565b11905038806134dd565b6002820180546001600160a01b0319166001600160a01b03928316908117909155915460408051938452911660208301527fec49a3c8c4ae06c18160fe86119c381c9d213ac3e052ff35b594da8687b193c791a1565b600e81018054801561360a576001546000198101908111610f195761356f90613178565b905460001983019260039290921b1c6001600160a01b0316908211610f195761254761359a92613178565b6001549182156135f45760006020927f644b85583ba83e73113ffc0c122b165819ca11db493cd4cc38f5ba29138ffa1b948219016135dc61263a826001613193565b60015555546040516001600160a01b039091168152a1565b634e487b7160e01b600052603160045260246000fd5b60405162461bcd60e51b815260206004820152601a602482015279155cd95c881a5cc81b9bdd081a5b881c985b991bdb481b1a5cdd60321b6044820152606490fd5b90613672575080511561366157805190602001fd5b63d6bda27560e01b60005260046000fd5b815115806136a4575b613683575090565b639996b31560e01b60009081526001600160a01b0391909116600452602490fd5b50803b1561367b56fe9016d09d72d40fdae2fd8ceac6b6234c7706214fd39c1cd1e609a0528c199300360894a13ba1a3210667c828492db98dca3e2076cc3735a920a3ca505d382bbce85b607d57b04668b1d2caf42949038ece8789f7907395f968f702964c717ba88be0079c531659141344cd1fd0a4f28419497f9722a3daafe3b4186f6b6457e0b37800f632235e56e1626c9e9df3de1e167e9298f0d25f59fd74ec65e3111652f0c57e16840df040f15088dc2f81fe391c3923bec73e23a9662efc9c229c6a00a164736f6c634300081a000a","opcodes":"PUSH1 0xA0 DUP1 PUSH1 0x40 MSTORE CALLVALUE PUSH1 0x29 JUMPI ADDRESS PUSH1 0x80 MSTORE PUSH2 0x377A SWAP1 DUP2 PUSH2 0x2F DUP3 CODECOPY PUSH1 0x80 MLOAD DUP2 DUP2 DUP2 PUSH2 0x283B ADD MSTORE PUSH2 0x290E ADD MSTORE RETURN JUMPDEST PUSH1 0x0 DUP1 REVERT INVALID PUSH1 0x80 DUP1 PUSH1 0x40 MSTORE PUSH1 0x4 CALLDATASIZE LT ISZERO PUSH2 0x1D JUMPI JUMPDEST POP CALLDATASIZE ISZERO PUSH2 0x1B JUMPI PUSH1 0x0 DUP1 REVERT JUMPDEST STOP JUMPDEST PUSH1 0x0 CALLDATALOAD PUSH1 0xE0 SHR SWAP1 DUP2 PUSH4 0x690C6A8 EQ PUSH2 0x2E5C JUMPI POP DUP1 PUSH4 0x78B0FB7 EQ PUSH2 0x2C6C JUMPI DUP1 PUSH4 0x7C560D1 EQ PUSH2 0x2B90 JUMPI DUP1 PUSH4 0x8E922BA EQ PUSH2 0x2B74 JUMPI DUP1 PUSH4 0x11F4D576 EQ PUSH2 0x2B35 JUMPI DUP1 PUSH4 0x1A746344 EQ PUSH2 0x2AD2 JUMPI DUP1 PUSH4 0x4F1EF286 EQ PUSH2 0x2892 JUMPI DUP1 PUSH4 0x52D1902D EQ PUSH2 0x2828 JUMPI DUP1 PUSH4 0x59A04544 EQ PUSH2 0x26BB JUMPI DUP1 PUSH4 0x5EDA81CE EQ PUSH2 0x24A6 JUMPI DUP1 PUSH4 0x6A746311 EQ PUSH2 0x2480 JUMPI DUP1 PUSH4 0x715018A6 EQ PUSH2 0x2428 JUMPI DUP1 PUSH4 0x7EC37E03 EQ PUSH2 0x23C5 JUMPI DUP1 PUSH4 0x8129FC1C EQ PUSH2 0x1EE4 JUMPI DUP1 PUSH4 0x846688F7 EQ PUSH2 0x1E83 JUMPI DUP1 PUSH4 0x8DA5CB5B EQ PUSH2 0x1E4D JUMPI DUP1 PUSH4 0xA0DB38E5 EQ PUSH2 0x1AD6 JUMPI DUP1 PUSH4 0xA9DF9FAE EQ PUSH2 0x1A69 JUMPI DUP1 PUSH4 0xAD3CB1CC EQ PUSH2 0x19ED JUMPI DUP1 PUSH4 0xC53B219E EQ PUSH2 0xF6F JUMPI DUP1 PUSH4 0xD277B8A9 EQ PUSH2 0xD42 JUMPI DUP1 PUSH4 0xDCF6E819 EQ PUSH2 0xC9D JUMPI DUP1 PUSH4 0xE2842D79 EQ PUSH2 0xC6D JUMPI DUP1 PUSH4 0xE35422E7 EQ PUSH2 0xB69 JUMPI DUP1 PUSH4 0xF2FDE38B EQ PUSH2 0xB40 JUMPI DUP1 PUSH4 0xF87127B4 EQ PUSH2 0x931 JUMPI DUP1 PUSH4 0xF9250171 EQ PUSH2 0x733 JUMPI DUP1 PUSH4 0xFAEDA7E5 EQ PUSH2 0x4E7 JUMPI PUSH4 0xFB47E016 EQ PUSH2 0x169 JUMPI CODESIZE PUSH2 0xF JUMP JUMPDEST CALLVALUE PUSH2 0x4E2 JUMPI PUSH1 0x20 CALLDATASIZE PUSH1 0x3 NOT ADD SLT PUSH2 0x4E2 JUMPI PUSH2 0x182 PUSH2 0x2E97 JUMP JUMPDEST PUSH1 0x0 PUSH2 0x1E0 PUSH1 0x40 MLOAD PUSH2 0x193 DUP2 PUSH2 0x2EEA JUMP JUMPDEST DUP3 DUP2 MSTORE DUP3 PUSH1 0x20 DUP3 ADD MSTORE DUP3 PUSH1 0x40 DUP3 ADD MSTORE PUSH1 0x60 DUP1 DUP3 ADD MSTORE PUSH1 0x60 PUSH1 0x80 DUP3 ADD MSTORE PUSH1 0x60 PUSH1 0xA0 DUP3 ADD MSTORE DUP3 PUSH1 0xC0 DUP3 ADD MSTORE DUP3 PUSH1 0xE0 DUP3 ADD MSTORE DUP3 PUSH2 0x100 DUP3 ADD MSTORE DUP3 PUSH2 0x120 DUP3 ADD MSTORE DUP3 PUSH2 0x140 DUP3 ADD MSTORE DUP3 PUSH2 0x160 DUP3 ADD MSTORE DUP3 PUSH2 0x180 DUP3 ADD MSTORE DUP3 PUSH2 0x1A0 DUP3 ADD MSTORE DUP3 PUSH2 0x1C0 DUP3 ADD MSTORE ADD MSTORE PUSH1 0x1 DUP1 PUSH1 0xA0 SHL SUB AND PUSH1 0x0 MSTORE PUSH1 0x12 PUSH1 0x20 MSTORE PUSH1 0x40 PUSH1 0x0 KECCAK256 PUSH1 0x40 MLOAD PUSH2 0x216 DUP2 PUSH2 0x2EEA JUMP JUMPDEST DUP2 SLOAD PUSH1 0x1 PUSH1 0x1 PUSH1 0xA0 SHL SUB SWAP1 DUP2 AND DUP3 MSTORE PUSH1 0x1 DUP4 ADD SLOAD DUP2 AND PUSH1 0x20 DUP4 ADD SWAP1 DUP2 MSTORE PUSH1 0x2 DUP5 ADD SLOAD SWAP1 SWAP2 AND PUSH1 0x40 DUP4 ADD SWAP1 DUP2 MSTORE SWAP1 SWAP3 SWAP1 SWAP2 PUSH2 0x252 PUSH1 0x3 DUP4 ADD PUSH2 0x30A0 JUMP JUMPDEST PUSH1 0x60 DUP3 ADD SWAP1 DUP2 MSTORE PUSH1 0x4 DUP4 ADD DUP1 SLOAD PUSH2 0x268 DUP2 PUSH2 0x30F4 JUMP JUMPDEST SWAP2 PUSH2 0x276 PUSH1 0x40 MLOAD SWAP4 DUP5 PUSH2 0x2F21 JUMP JUMPDEST DUP2 DUP4 MSTORE PUSH1 0x20 DUP4 ADD SWAP1 PUSH1 0x0 MSTORE PUSH1 0x20 PUSH1 0x0 KECCAK256 PUSH1 0x0 SWAP2 JUMPDEST DUP4 DUP4 LT PUSH2 0x4A7 JUMPI POP POP POP POP PUSH1 0x80 DUP4 ADD SWAP1 DUP2 MSTORE PUSH1 0x5 DUP5 ADD SWAP2 DUP3 SLOAD PUSH2 0x2AC DUP2 PUSH2 0x30F4 JUMP JUMPDEST SWAP4 PUSH2 0x2BA PUSH1 0x40 MLOAD SWAP6 DUP7 PUSH2 0x2F21 JUMP JUMPDEST DUP2 DUP6 MSTORE PUSH1 0x20 DUP6 ADD SWAP1 PUSH1 0x0 MSTORE PUSH1 0x20 PUSH1 0x0 KECCAK256 PUSH1 0x0 SWAP2 JUMPDEST DUP4 DUP4 LT PUSH2 0x471 JUMPI POP POP POP POP PUSH1 0xA0 DUP5 ADD SWAP3 DUP4 MSTORE PUSH1 0x6 DUP6 ADD SLOAD PUSH1 0xC0 DUP6 ADD MSTORE PUSH1 0x7 DUP6 ADD SLOAD PUSH1 0xE0 DUP6 ADD SWAP1 DUP2 MSTORE PUSH1 0x8 DUP7 ADD SLOAD PUSH1 0xFF AND PUSH2 0x100 DUP7 ADD MSTORE PUSH1 0x9 DUP7 ADD SLOAD PUSH2 0x120 DUP7 ADD MSTORE PUSH1 0xA DUP7 ADD SLOAD PUSH2 0x140 DUP7 ADD MSTORE PUSH1 0xB DUP7 ADD SLOAD PUSH2 0x160 DUP7 ADD MSTORE PUSH1 0xC DUP7 ADD SLOAD PUSH2 0x180 DUP7 ADD MSTORE PUSH1 0xD DUP7 ADD SLOAD PUSH2 0x1A0 DUP7 ADD MSTORE PUSH1 0xE DUP7 ADD SLOAD PUSH2 0x1C0 DUP7 ADD MSTORE PUSH1 0xF SWAP1 SWAP6 ADD SLOAD PUSH2 0x1E0 DUP6 ADD MSTORE PUSH1 0x40 DUP1 MLOAD PUSH1 0x20 DUP1 DUP3 MSTORE DUP7 MLOAD PUSH1 0x1 PUSH1 0x1 PUSH1 0xA0 SHL SUB SWAP1 DUP2 AND DUP3 DUP5 ADD MSTORE SWAP10 MLOAD DUP11 AND SWAP3 DUP3 ADD SWAP3 SWAP1 SWAP3 MSTORE SWAP7 MLOAD SWAP1 SWAP8 AND PUSH1 0x60 DUP8 ADD MSTORE MLOAD PUSH2 0x200 PUSH1 0x80 DUP8 ADD MSTORE DUP1 MLOAD PUSH2 0x220 DUP8 ADD DUP2 SWAP1 MSTORE PUSH2 0x240 DUP8 ADD SWAP8 SWAP2 SWAP1 SWAP2 ADD SWAP1 PUSH1 0x0 JUMPDEST DUP2 DUP2 LT PUSH2 0x452 JUMPI POP POP POP PUSH2 0x1E0 SWAP3 SWAP2 PUSH2 0x3CC DUP7 SWAP8 PUSH2 0x3DF SWAP4 MLOAD PUSH1 0x1F NOT DUP10 DUP4 SUB ADD PUSH1 0xA0 DUP11 ADD MSTORE PUSH2 0x2F5F JUMP JUMPDEST SWAP1 MLOAD DUP7 DUP3 SUB PUSH1 0x1F NOT ADD PUSH1 0xC0 DUP9 ADD MSTORE PUSH2 0x2FAB JUMP JUMPDEST SWAP3 PUSH1 0xC0 DUP3 ADD MLOAD PUSH1 0xE0 DUP7 ADD MSTORE MLOAD PUSH2 0x100 DUP6 ADD MSTORE PUSH1 0xFF PUSH2 0x100 DUP3 ADD MLOAD AND PUSH2 0x120 DUP6 ADD MSTORE PUSH2 0x120 DUP2 ADD MLOAD PUSH2 0x140 DUP6 ADD MSTORE PUSH2 0x140 DUP2 ADD MLOAD PUSH2 0x160 DUP6 ADD MSTORE PUSH2 0x160 DUP2 ADD MLOAD PUSH2 0x180 DUP6 ADD MSTORE PUSH2 0x180 DUP2 ADD MLOAD PUSH2 0x1A0 DUP6 ADD MSTORE PUSH2 0x1A0 DUP2 ADD MLOAD PUSH2 0x1C0 DUP6 ADD MSTORE PUSH2 0x1C0 DUP2 ADD MLOAD DUP3 DUP6 ADD MSTORE ADD MLOAD PUSH2 0x200 DUP4 ADD MSTORE SUB SWAP1 RETURN JUMPDEST DUP3 MLOAD PUSH1 0x1 PUSH1 0x1 PUSH1 0xA0 SHL SUB AND DUP10 MSTORE PUSH1 0x20 SWAP9 DUP10 ADD SWAP9 SWAP1 SWAP3 ADD SWAP2 PUSH1 0x1 ADD PUSH2 0x3A2 JUMP JUMPDEST PUSH1 0x1 PUSH1 0x20 DUP2 SWAP3 PUSH1 0x40 MLOAD PUSH2 0x483 DUP2 PUSH2 0x2F06 JUMP JUMPDEST PUSH1 0xFF DUP7 SLOAD DUP6 DUP1 PUSH1 0xA0 SHL SUB DUP2 AND DUP4 MSTORE PUSH1 0xA0 SHR AND DUP4 DUP3 ADD MSTORE DUP2 MSTORE ADD SWAP3 ADD SWAP3 ADD SWAP2 SWAP1 PUSH2 0x2CE JUMP JUMPDEST PUSH1 0x2 PUSH1 0x20 PUSH1 0x1 SWAP3 PUSH1 0x40 MLOAD PUSH2 0x4BA DUP2 PUSH2 0x2F06 JUMP JUMPDEST DUP5 DUP1 PUSH1 0xA0 SHL SUB DUP7 SLOAD AND DUP2 MSTORE DUP5 DUP1 PUSH1 0xA0 SHL SUB DUP6 DUP8 ADD SLOAD AND DUP4 DUP3 ADD MSTORE DUP2 MSTORE ADD SWAP3 ADD SWAP3 ADD SWAP2 SWAP1 PUSH2 0x28A JUMP JUMPDEST PUSH1 0x0 DUP1 REVERT JUMPDEST CALLVALUE PUSH2 0x4E2 JUMPI PUSH1 0x20 CALLDATASIZE PUSH1 0x3 NOT ADD SLT PUSH2 0x4E2 JUMPI PUSH1 0x1 PUSH1 0x1 PUSH1 0xA0 SHL SUB PUSH2 0x508 PUSH2 0x2E97 JUMP JUMPDEST AND PUSH1 0x0 MSTORE PUSH1 0x12 PUSH1 0x20 MSTORE PUSH1 0x40 PUSH1 0x0 KECCAK256 PUSH1 0x40 MLOAD SWAP1 PUSH2 0x523 DUP3 PUSH2 0x2EEA JUMP JUMPDEST DUP1 SLOAD PUSH1 0x1 PUSH1 0x1 PUSH1 0xA0 SHL SUB SWAP1 DUP2 AND DUP4 MSTORE PUSH1 0x1 DUP3 ADD SLOAD DUP2 AND PUSH1 0x20 DUP5 ADD MSTORE PUSH1 0x2 DUP3 ADD SLOAD AND PUSH1 0x40 DUP4 ADD SWAP1 DUP2 MSTORE SWAP1 PUSH2 0x558 PUSH1 0x3 DUP3 ADD PUSH2 0x30A0 JUMP JUMPDEST SWAP2 PUSH1 0x60 DUP5 ADD SWAP3 DUP4 MSTORE PUSH1 0x4 DUP3 ADD SWAP4 DUP5 SLOAD PUSH2 0x570 DUP2 PUSH2 0x30F4 JUMP JUMPDEST SWAP6 PUSH2 0x57E PUSH1 0x40 MLOAD SWAP8 DUP9 PUSH2 0x2F21 JUMP JUMPDEST DUP2 DUP8 MSTORE PUSH1 0x20 DUP8 ADD SWAP1 PUSH1 0x0 MSTORE PUSH1 0x20 PUSH1 0x0 KECCAK256 PUSH1 0x0 SWAP2 JUMPDEST DUP4 DUP4 LT PUSH2 0x6F8 JUMPI POP POP POP POP PUSH1 0x80 DUP2 ADD SWAP5 DUP6 MSTORE PUSH1 0x5 DUP4 ADD SWAP3 DUP4 SLOAD PUSH2 0x5B4 DUP2 PUSH2 0x30F4 JUMP JUMPDEST SWAP5 PUSH2 0x5C2 PUSH1 0x40 MLOAD SWAP7 DUP8 PUSH2 0x2F21 JUMP JUMPDEST DUP2 DUP7 MSTORE PUSH1 0x20 DUP7 ADD SWAP1 PUSH1 0x0 MSTORE PUSH1 0x20 PUSH1 0x0 KECCAK256 PUSH1 0x0 SWAP2 JUMPDEST DUP4 DUP4 LT PUSH2 0x6C2 JUMPI POP POP POP POP SWAP1 PUSH2 0x1E0 PUSH1 0xF PUSH2 0x6B8 SWAP5 SWAP4 DUP7 PUSH1 0xA0 DUP6 ADD MSTORE PUSH1 0x6 DUP2 ADD SLOAD PUSH1 0xC0 DUP6 ADD MSTORE PUSH1 0x7 DUP2 ADD SLOAD PUSH1 0xE0 DUP6 ADD MSTORE PUSH1 0xFF PUSH1 0x8 DUP3 ADD SLOAD AND PUSH2 0x100 DUP6 ADD MSTORE PUSH1 0x9 DUP2 ADD SLOAD PUSH2 0x120 DUP6 ADD MSTORE PUSH1 0xA DUP2 ADD SLOAD PUSH2 0x140 DUP6 ADD MSTORE PUSH1 0xB DUP2 ADD SLOAD PUSH2 0x160 DUP6 ADD MSTORE PUSH1 0xC DUP2 ADD SLOAD PUSH2 0x180 DUP6 ADD MSTORE PUSH1 0xD DUP2 ADD SLOAD PUSH2 0x1A0 DUP6 ADD MSTORE PUSH1 0xE DUP2 ADD SLOAD PUSH2 0x1C0 DUP6 ADD MSTORE ADD SLOAD SWAP2 ADD MSTORE PUSH1 0x1 DUP1 PUSH1 0xA0 SHL SUB SWAP1 MLOAD AND SWAP3 MLOAD SWAP4 DUP5 MLOAD SWAP1 MLOAD SWAP3 PUSH2 0x6A5 DUP5 MLOAD SWAP3 DUP3 MLOAD SWAP6 PUSH2 0x692 PUSH1 0x40 MLOAD SWAP10 DUP11 SWAP10 DUP11 MSTORE PUSH1 0xE0 PUSH1 0x20 DUP12 ADD MSTORE PUSH1 0xE0 DUP11 ADD SWAP1 PUSH2 0x2EAD JUMP JUMPDEST SWAP2 PUSH1 0x40 DUP10 ADD MSTORE DUP8 DUP3 SUB PUSH1 0x60 DUP10 ADD MSTORE PUSH2 0x2F5F JUMP JUMPDEST SWAP2 PUSH1 0x80 DUP7 ADD MSTORE DUP5 DUP3 SUB PUSH1 0xA0 DUP7 ADD MSTORE PUSH2 0x2FAB JUMP JUMPDEST SWAP1 PUSH1 0xC0 DUP4 ADD MSTORE SUB SWAP1 RETURN JUMPDEST PUSH1 0x1 PUSH1 0x20 DUP2 SWAP3 PUSH1 0x40 MLOAD PUSH2 0x6D4 DUP2 PUSH2 0x2F06 JUMP JUMPDEST PUSH1 0xFF DUP7 SLOAD DUP6 DUP1 PUSH1 0xA0 SHL SUB DUP2 AND DUP4 MSTORE PUSH1 0xA0 SHR AND DUP4 DUP3 ADD MSTORE DUP2 MSTORE ADD SWAP3 ADD SWAP3 ADD SWAP2 SWAP1 PUSH2 0x5D6 JUMP JUMPDEST PUSH1 0x2 PUSH1 0x20 PUSH1 0x1 SWAP3 PUSH1 0x40 MLOAD PUSH2 0x70B DUP2 PUSH2 0x2F06 JUMP JUMPDEST DUP5 DUP1 PUSH1 0xA0 SHL SUB DUP7 SLOAD AND DUP2 MSTORE DUP5 DUP1 PUSH1 0xA0 SHL SUB DUP6 DUP8 ADD SLOAD AND DUP4 DUP3 ADD MSTORE DUP2 MSTORE ADD SWAP3 ADD SWAP3 ADD SWAP2 SWAP1 PUSH2 0x592 JUMP JUMPDEST CALLVALUE PUSH2 0x4E2 JUMPI PUSH1 0x20 CALLDATASIZE PUSH1 0x3 NOT ADD SLT PUSH2 0x4E2 JUMPI PUSH2 0x74C PUSH2 0x2E97 JUMP JUMPDEST PUSH1 0x1 PUSH1 0x1 PUSH1 0xA0 SHL SUB AND PUSH1 0x0 SWAP1 DUP2 MSTORE PUSH1 0x12 PUSH1 0x20 MSTORE PUSH1 0x40 DUP1 DUP3 KECCAK256 SWAP1 MLOAD SWAP1 SWAP2 SWAP1 PUSH2 0x772 DUP2 PUSH2 0x2EEA JUMP JUMPDEST DUP3 SLOAD PUSH1 0x1 PUSH1 0x1 PUSH1 0xA0 SHL SUB SWAP1 DUP2 AND DUP3 MSTORE PUSH1 0x1 DUP5 ADD SLOAD DUP2 AND PUSH1 0x20 DUP4 ADD MSTORE PUSH1 0x2 DUP5 ADD SLOAD AND PUSH1 0x40 DUP3 ADD MSTORE PUSH2 0x7A4 PUSH1 0x3 DUP5 ADD PUSH2 0x30A0 JUMP JUMPDEST PUSH1 0x60 DUP3 ADD MSTORE PUSH1 0x4 DUP4 ADD DUP1 SLOAD PUSH2 0x7B8 DUP2 PUSH2 0x30F4 JUMP JUMPDEST SWAP2 PUSH2 0x7C6 PUSH1 0x40 MLOAD SWAP4 DUP5 PUSH2 0x2F21 JUMP JUMPDEST DUP2 DUP4 MSTORE PUSH1 0x20 DUP4 ADD SWAP1 PUSH1 0x0 MSTORE PUSH1 0x20 PUSH1 0x0 KECCAK256 PUSH1 0x0 SWAP2 JUMPDEST DUP4 DUP4 LT PUSH2 0x8F6 JUMPI POP POP POP POP PUSH1 0x80 DUP3 ADD MSTORE PUSH1 0x5 DUP4 ADD SWAP3 DUP4 SLOAD PUSH2 0x7FA DUP2 PUSH2 0x30F4 JUMP JUMPDEST SWAP1 PUSH2 0x808 PUSH1 0x40 MLOAD SWAP3 DUP4 PUSH2 0x2F21 JUMP JUMPDEST DUP1 DUP3 MSTORE PUSH1 0x20 DUP3 ADD SWAP6 PUSH1 0x0 MSTORE PUSH1 0x20 PUSH1 0x0 KECCAK256 SWAP6 PUSH1 0x0 SWAP1 JUMPDEST DUP3 DUP3 LT PUSH2 0x8C0 JUMPI POP POP POP PUSH1 0x40 SWAP5 POP PUSH1 0xA0 DUP4 ADD MSTORE PUSH1 0x6 DUP2 ADD SLOAD PUSH1 0xC0 DUP4 ADD MSTORE PUSH1 0x7 DUP2 ADD SLOAD SWAP2 DUP3 PUSH1 0xE0 DUP3 ADD MSTORE PUSH2 0x1E0 PUSH1 0xF PUSH1 0xFF PUSH1 0x8 DUP6 ADD SLOAD AND SWAP4 DUP5 PUSH2 0x100 DUP6 ADD MSTORE PUSH1 0x9 DUP2 ADD SLOAD PUSH2 0x120 DUP6 ADD MSTORE PUSH1 0xA DUP2 ADD SLOAD PUSH2 0x140 DUP6 ADD MSTORE PUSH1 0xB DUP2 ADD SLOAD PUSH2 0x160 DUP6 ADD MSTORE PUSH1 0xC DUP2 ADD SLOAD PUSH2 0x180 DUP6 ADD MSTORE PUSH1 0xD DUP2 ADD SLOAD PUSH2 0x1A0 DUP6 ADD MSTORE PUSH1 0xE DUP2 ADD SLOAD PUSH2 0x1C0 DUP6 ADD MSTORE ADD SLOAD SWAP2 ADD MSTORE DUP1 PUSH2 0x8B8 JUMPI JUMPDEST POP PUSH1 0xFF DUP4 MLOAD SWAP3 AND DUP3 MSTORE PUSH1 0x20 DUP3 ADD MSTORE RETURN JUMPDEST SWAP2 POP DUP4 PUSH2 0x8A8 JUMP JUMPDEST PUSH1 0x1 PUSH1 0x20 DUP2 SWAP3 PUSH1 0x40 MLOAD PUSH2 0x8D2 DUP2 PUSH2 0x2F06 JUMP JUMPDEST PUSH1 0xFF DUP13 SLOAD DUP6 DUP1 PUSH1 0xA0 SHL SUB DUP2 AND DUP4 MSTORE PUSH1 0xA0 SHR AND DUP4 DUP3 ADD MSTORE DUP2 MSTORE ADD SWAP9 ADD SWAP2 ADD SWAP1 SWAP7 PUSH2 0x81D JUMP JUMPDEST PUSH1 0x2 PUSH1 0x20 PUSH1 0x1 SWAP3 PUSH1 0x40 MLOAD PUSH2 0x909 DUP2 PUSH2 0x2F06 JUMP JUMPDEST DUP5 DUP1 PUSH1 0xA0 SHL SUB DUP7 SLOAD AND DUP2 MSTORE DUP5 DUP1 PUSH1 0xA0 SHL SUB DUP6 DUP8 ADD SLOAD AND DUP4 DUP3 ADD MSTORE DUP2 MSTORE ADD SWAP3 ADD SWAP3 ADD SWAP2 SWAP1 PUSH2 0x7DA JUMP JUMPDEST CALLVALUE PUSH2 0x4E2 JUMPI PUSH1 0x20 CALLDATASIZE PUSH1 0x3 NOT ADD SLT PUSH2 0x4E2 JUMPI PUSH1 0x1 PUSH1 0x1 PUSH1 0xA0 SHL SUB PUSH2 0x952 PUSH2 0x2E97 JUMP JUMPDEST AND PUSH1 0x0 MSTORE PUSH1 0x12 PUSH1 0x20 MSTORE PUSH1 0x40 PUSH1 0x0 KECCAK256 PUSH1 0x40 MLOAD SWAP1 PUSH2 0x96D DUP3 PUSH2 0x2EEA JUMP JUMPDEST DUP1 SLOAD PUSH1 0x1 PUSH1 0x1 PUSH1 0xA0 SHL SUB SWAP1 DUP2 AND DUP4 MSTORE PUSH1 0x1 DUP3 ADD SLOAD DUP2 AND PUSH1 0x20 DUP5 ADD MSTORE PUSH1 0x2 DUP3 ADD SLOAD AND PUSH1 0x40 DUP4 ADD MSTORE PUSH2 0x99F PUSH1 0x3 DUP3 ADD PUSH2 0x30A0 JUMP JUMPDEST PUSH1 0x60 DUP4 ADD MSTORE PUSH1 0x4 DUP2 ADD DUP1 SLOAD PUSH2 0x9B3 DUP2 PUSH2 0x30F4 JUMP JUMPDEST SWAP2 PUSH2 0x9C1 PUSH1 0x40 MLOAD SWAP4 DUP5 PUSH2 0x2F21 JUMP JUMPDEST DUP2 DUP4 MSTORE PUSH1 0x20 DUP4 ADD SWAP1 PUSH1 0x0 MSTORE PUSH1 0x20 PUSH1 0x0 KECCAK256 PUSH1 0x0 SWAP2 JUMPDEST DUP4 DUP4 LT PUSH2 0xB05 JUMPI POP POP POP POP PUSH1 0x80 DUP4 ADD MSTORE PUSH1 0x5 DUP2 ADD DUP1 SLOAD PUSH2 0x9F4 DUP2 PUSH2 0x30F4 JUMP JUMPDEST SWAP2 PUSH2 0xA02 PUSH1 0x40 MLOAD SWAP4 DUP5 PUSH2 0x2F21 JUMP JUMPDEST DUP2 DUP4 MSTORE PUSH1 0x20 DUP4 ADD SWAP1 PUSH1 0x0 MSTORE PUSH1 0x20 PUSH1 0x0 KECCAK256 PUSH1 0x0 SWAP2 JUMPDEST DUP4 DUP4 LT PUSH2 0xACF JUMPI POP POP POP POP PUSH1 0xA0 DUP4 ADD MSTORE PUSH2 0xACB PUSH1 0x6 DUP3 ADD SLOAD SWAP2 DUP3 PUSH1 0xC0 DUP6 ADD MSTORE PUSH1 0x7 DUP2 ADD SLOAD PUSH1 0xE0 DUP6 ADD MSTORE PUSH1 0xFF PUSH1 0x8 DUP3 ADD SLOAD AND PUSH2 0x100 DUP6 ADD MSTORE PUSH1 0x9 DUP2 ADD SLOAD SWAP4 DUP5 PUSH2 0x120 DUP3 ADD MSTORE PUSH2 0x1E0 PUSH1 0xF PUSH1 0xA DUP5 ADD SLOAD SWAP4 DUP5 PUSH2 0x140 DUP6 ADD MSTORE PUSH1 0xB DUP2 ADD SLOAD PUSH2 0x160 DUP6 ADD MSTORE PUSH1 0xC DUP2 ADD SLOAD PUSH2 0x180 DUP6 ADD MSTORE PUSH1 0xD DUP2 ADD SLOAD PUSH2 0x1A0 DUP6 ADD MSTORE PUSH1 0xE DUP2 ADD SLOAD PUSH2 0x1C0 DUP6 ADD MSTORE ADD SLOAD SWAP2 ADD MSTORE PUSH2 0xAA7 DUP4 DUP3 PUSH2 0x310B JUMP JUMPDEST SWAP1 PUSH1 0x40 MLOAD SWAP5 DUP6 SWAP5 DUP6 SWAP1 SWAP5 SWAP4 SWAP3 PUSH1 0x60 SWAP3 PUSH1 0x80 DUP4 ADD SWAP7 DUP4 MSTORE PUSH1 0x20 DUP4 ADD MSTORE PUSH1 0x40 DUP3 ADD MSTORE ADD MSTORE JUMP JUMPDEST SUB SWAP1 RETURN JUMPDEST PUSH1 0x1 PUSH1 0x20 DUP2 SWAP3 PUSH1 0x40 MLOAD PUSH2 0xAE1 DUP2 PUSH2 0x2F06 JUMP JUMPDEST PUSH1 0xFF DUP7 SLOAD DUP6 DUP1 PUSH1 0xA0 SHL SUB DUP2 AND DUP4 MSTORE PUSH1 0xA0 SHR AND DUP4 DUP3 ADD MSTORE DUP2 MSTORE ADD SWAP3 ADD SWAP3 ADD SWAP2 SWAP1 PUSH2 0xA16 JUMP JUMPDEST PUSH1 0x2 PUSH1 0x20 PUSH1 0x1 SWAP3 PUSH1 0x40 MLOAD PUSH2 0xB18 DUP2 PUSH2 0x2F06 JUMP JUMPDEST DUP5 DUP1 PUSH1 0xA0 SHL SUB DUP7 SLOAD AND DUP2 MSTORE DUP5 DUP1 PUSH1 0xA0 SHL SUB DUP6 DUP8 ADD SLOAD AND DUP4 DUP3 ADD MSTORE DUP2 MSTORE ADD SWAP3 ADD SWAP3 ADD SWAP2 SWAP1 PUSH2 0x9D5 JUMP JUMPDEST CALLVALUE PUSH2 0x4E2 JUMPI PUSH1 0x20 CALLDATASIZE PUSH1 0x3 NOT ADD SLT PUSH2 0x4E2 JUMPI PUSH2 0x1B PUSH2 0xB5C PUSH2 0x2E97 JUMP JUMPDEST PUSH2 0xB64 PUSH2 0x3425 JUMP JUMPDEST PUSH2 0x32BA JUMP JUMPDEST CALLVALUE PUSH2 0x4E2 JUMPI PUSH1 0x20 CALLDATASIZE PUSH1 0x3 NOT ADD SLT PUSH2 0x4E2 JUMPI PUSH1 0x4 CALLDATALOAD PUSH1 0x1 PUSH1 0x1 PUSH1 0x40 SHL SUB DUP2 GT PUSH2 0x4E2 JUMPI CALLDATASIZE PUSH1 0x23 DUP3 ADD SLT ISZERO PUSH2 0x4E2 JUMPI PUSH1 0x4 DUP2 ADD CALLDATALOAD PUSH1 0x1 PUSH1 0x1 PUSH1 0x40 SHL SUB DUP2 GT PUSH2 0x4E2 JUMPI CALLDATASIZE PUSH1 0x24 DUP3 PUSH1 0x5 SHL DUP5 ADD ADD GT PUSH2 0x4E2 JUMPI SWAP1 PUSH2 0xBC1 PUSH2 0x3425 JUMP JUMPDEST PUSH1 0x0 SWAP2 JUMPDEST PUSH1 0xFF DUP4 AND SWAP3 DUP2 DUP5 LT ISZERO PUSH2 0x1B JUMPI PUSH2 0xBDB DUP2 PUSH2 0x3229 JUMP JUMPDEST PUSH1 0x0 SWAP5 PUSH1 0x24 PUSH2 0x1FE0 DUP5 PUSH1 0x5 SHL AND DUP7 ADD ADD CALLDATALOAD SWAP1 PUSH8 0xDE0B6B3A7640000 DUP3 MUL SWAP2 DUP1 DUP4 DIV PUSH8 0xDE0B6B3A7640000 EQ SWAP1 ISZERO OR ISZERO PUSH2 0xC59 JUMPI SWAP1 PUSH1 0xFF DUP1 PUSH1 0x40 PUSH2 0xC52 SWAP8 SWAP9 SWAP10 PUSH1 0x1 SWAP6 DUP4 DUP4 MLOAD SWAP9 PUSH2 0xC2A DUP11 PUSH2 0x2F06 JUMP JUMPDEST AND DUP9 MSTORE PUSH1 0x20 DUP9 ADD SWAP6 DUP7 MSTORE DUP2 MSTORE PUSH1 0x13 PUSH1 0x20 MSTORE KECCAK256 SWAP5 MLOAD AND AND PUSH1 0xFF NOT DUP5 SLOAD AND OR DUP4 SSTORE MLOAD SWAP2 ADD SSTORE PUSH2 0x3218 JUMP JUMPDEST SWAP2 SWAP1 PUSH2 0xBC5 JUMP JUMPDEST PUSH4 0x4E487B71 PUSH1 0xE0 SHL DUP8 MSTORE PUSH1 0x11 PUSH1 0x4 MSTORE PUSH1 0x24 DUP8 REVERT JUMPDEST CALLVALUE PUSH2 0x4E2 JUMPI PUSH1 0x0 CALLDATASIZE PUSH1 0x3 NOT ADD SLT PUSH2 0x4E2 JUMPI PUSH2 0xACB PUSH2 0xC89 PUSH2 0x304D JUMP JUMPDEST PUSH1 0x40 MLOAD SWAP2 DUP3 SWAP2 PUSH1 0x20 DUP4 MSTORE PUSH1 0x20 DUP4 ADD SWAP1 PUSH2 0x2EAD JUMP JUMPDEST CALLVALUE PUSH2 0x4E2 JUMPI PUSH1 0x20 CALLDATASIZE PUSH1 0x3 NOT ADD SLT PUSH2 0x4E2 JUMPI PUSH1 0x0 DUP1 MLOAD PUSH1 0x20 PUSH2 0x36EE DUP4 CODECOPY DUP2 MLOAD SWAP2 MSTORE PUSH1 0x20 PUSH2 0xCC7 PUSH2 0x2E97 JUMP JUMPDEST PUSH2 0xCCF PUSH2 0x3425 JUMP JUMPDEST PUSH1 0x1 PUSH1 0x1 PUSH1 0xA0 SHL SUB DUP2 AND PUSH1 0x0 DUP2 DUP2 MSTORE PUSH1 0x12 DUP5 MSTORE PUSH1 0x40 SWAP1 KECCAK256 DUP1 SLOAD PUSH1 0x1 PUSH1 0x1 PUSH1 0xA0 SHL SUB NOT AND DUP3 OR DUP2 SSTORE PUSH10 0x152D02C7E14AF6800000 PUSH1 0x6 DUP3 ADD SSTORE TIMESTAMP PUSH1 0xF DUP3 ADD SSTORE PUSH1 0x1 PUSH1 0xE SWAP1 SWAP2 ADD SSTORE SWAP1 PUSH2 0xD27 SWAP1 PUSH2 0xD22 DUP2 PUSH2 0x31D0 JUMP JUMPDEST PUSH2 0x31AB JUMP JUMPDEST PUSH1 0xE DUP1 SLOAD PUSH1 0x1 PUSH1 0x1 PUSH1 0xA0 SHL SUB NOT AND DUP3 OR SWAP1 SSTORE PUSH1 0x40 MLOAD SWAP1 DUP2 MSTORE LOG1 STOP JUMPDEST CALLVALUE PUSH2 0x4E2 JUMPI PUSH1 0x20 CALLDATASIZE PUSH1 0x3 NOT ADD SLT PUSH2 0x4E2 JUMPI PUSH2 0xD5B PUSH2 0x2E97 JUMP JUMPDEST PUSH1 0x1 PUSH1 0x1 PUSH1 0xA0 SHL SUB DUP2 AND PUSH1 0x0 SWAP1 DUP2 MSTORE PUSH1 0x14 PUSH1 0x20 MSTORE PUSH1 0x40 SWAP1 KECCAK256 SLOAD PUSH2 0xD85 SWAP1 PUSH1 0xFF AND ISZERO ISZERO PUSH1 0x1 EQ PUSH2 0x323B JUMP JUMPDEST PUSH8 0xDE0B6B3A7640000 PUSH2 0xDA3 PUSH2 0xD9D PUSH1 0x9 SLOAD SWAP4 PUSH2 0x331E JUMP JUMPDEST DUP4 PUSH2 0x3118 JUMP JUMPDEST DIV PUSH1 0xB SLOAD PUSH3 0x93A80 DUP2 ADD LT PUSH2 0xF19 JUMPI DUP2 ISZERO PUSH2 0xF2F JUMPI PUSH2 0xDC0 PUSH2 0x304D JUMP JUMPDEST PUSH1 0x0 NOT NUMBER ADD NUMBER DUP2 GT PUSH2 0xF19 JUMPI PUSH2 0xE15 SWAP1 PUSH1 0x40 MLOAD PUSH2 0xDF6 DUP2 PUSH2 0xDE8 PUSH1 0x20 DUP3 ADD SWAP5 BLOCKHASH PREVRANDAO TIMESTAMP DUP8 PUSH2 0x3280 JUMP JUMPDEST SUB PUSH1 0x1F NOT DUP2 ADD DUP4 MSTORE DUP3 PUSH2 0x2F21 JUMP JUMPDEST MLOAD SWAP1 KECCAK256 DUP3 MLOAD PUSH1 0x1 PUSH1 0x1 PUSH1 0xA0 SHL SUB SWAP4 SWAP2 PUSH2 0xE0F SWAP2 SWAP1 PUSH2 0x3295 JUMP JUMPDEST SWAP1 PUSH2 0x3164 JUMP JUMPDEST MLOAD AND SWAP2 DUP3 ISZERO PUSH2 0xEA2 JUMPI PUSH1 0x0 DUP1 DUP1 DUP1 SWAP4 DUP7 DUP3 MSTORE PUSH1 0x12 PUSH1 0x20 MSTORE PUSH1 0xC PUSH1 0x40 DUP4 KECCAK256 ADD PUSH2 0xE3E DUP8 DUP3 SLOAD PUSH2 0x310B JUMP JUMPDEST SWAP1 SSTORE DUP7 DUP3 CALL ISZERO PUSH2 0xE96 JUMPI PUSH32 0x6DBDD944BDF6514ACA26947D204530E2ECBEA365677EF05FEE7A56D54A145697 SWAP2 PUSH1 0x0 PUSH1 0x9 SSTORE TIMESTAMP PUSH1 0xB SSTORE PUSH2 0xE7F DUP3 PUSH1 0x5 SLOAD PUSH2 0x310B JUMP JUMPDEST PUSH1 0x5 SSTORE PUSH2 0xE91 PUSH1 0x40 MLOAD SWAP3 DUP4 SWAP3 DUP4 PUSH2 0x329F JUMP JUMPDEST SUB SWAP1 LOG1 STOP JUMPDEST PUSH1 0x40 MLOAD RETURNDATASIZE PUSH1 0x0 DUP3 RETURNDATACOPY RETURNDATASIZE SWAP1 REVERT JUMPDEST POP POP POP PUSH32 0x974C744AFA915921DDDB0F53FDBFDD97FEF12A94DB2457DCF878AA94AD687274 PUSH1 0x80 PUSH1 0x40 MLOAD PUSH1 0x20 DUP2 MSTORE PUSH1 0x31 PUSH1 0x20 DUP3 ADD MSTORE PUSH32 0x52616E646F6D206164647265737320776173207A65726F20616464726573732E PUSH1 0x40 DUP3 ADD MSTORE PUSH17 0x10283632B0B9B2903A393C9030B3B0B4B7 PUSH1 0x79 SHL PUSH1 0x60 DUP3 ADD MSTORE LOG1 STOP JUMPDEST PUSH4 0x4E487B71 PUSH1 0xE0 SHL PUSH1 0x0 MSTORE PUSH1 0x11 PUSH1 0x4 MSTORE PUSH1 0x24 PUSH1 0x0 REVERT JUMPDEST PUSH1 0x40 MLOAD PUSH3 0x461BCD PUSH1 0xE5 SHL DUP2 MSTORE PUSH1 0x20 PUSH1 0x4 DUP3 ADD MSTORE PUSH1 0x18 PUSH1 0x24 DUP3 ADD MSTORE PUSH24 0x4E6F207265776172647320746F2064697374726962757465 PUSH1 0x40 SHL PUSH1 0x44 DUP3 ADD MSTORE PUSH1 0x64 SWAP1 REVERT JUMPDEST PUSH1 0x40 CALLDATASIZE PUSH1 0x3 NOT ADD SLT PUSH2 0x4E2 JUMPI PUSH2 0xF83 PUSH2 0x2E97 JUMP JUMPDEST PUSH1 0x24 CALLDATALOAD PUSH1 0x1 PUSH1 0x1 PUSH1 0xA0 SHL SUB DUP2 AND SWAP1 DUP2 DUP2 SUB PUSH2 0x4E2 JUMPI PUSH1 0x1 PUSH1 0x1 PUSH1 0xA0 SHL SUB DUP4 AND SWAP2 DUP3 ISZERO PUSH2 0x199C JUMPI PUSH1 0x0 MSTORE PUSH1 0x14 PUSH1 0x20 MSTORE PUSH1 0x1 PUSH1 0xFF PUSH1 0x40 PUSH1 0x0 KECCAK256 SLOAD AND ISZERO ISZERO SUB PUSH2 0x194B JUMPI PUSH2 0xFDE PUSH2 0xFD8 PUSH8 0xDE0B6B3A7640000 SWAP3 PUSH2 0x331E JUMP JUMPDEST CALLVALUE PUSH2 0x3118 JUMP JUMPDEST DIV SWAP1 PUSH1 0xF SLOAD PUSH1 0x61 DUP2 MUL SWAP1 DUP1 DUP3 DIV PUSH1 0x61 EQ SWAP1 ISZERO OR ISZERO PUSH2 0xF19 JUMPI PUSH1 0x64 SWAP1 DIV DUP3 LT PUSH2 0x18F7 JUMPI PUSH1 0xC SLOAD SWAP1 PUSH1 0xFF DUP1 DUP4 AND SWAP3 PUSH1 0x8 SHR AND SWAP2 CALLER PUSH1 0x0 MSTORE PUSH1 0x12 PUSH1 0x20 MSTORE PUSH1 0x40 PUSH1 0x0 KECCAK256 SWAP3 DUP3 PUSH1 0x0 MSTORE PUSH1 0x12 PUSH1 0x20 MSTORE PUSH1 0x40 PUSH1 0x0 KECCAK256 PUSH1 0x6 DUP6 ADD SWAP7 DUP8 SLOAD PUSH2 0x18B8 JUMPI PUSH1 0x6 DUP3 ADD SLOAD ISZERO PUSH2 0x187D JUMPI DUP6 SLOAD PUSH1 0x1 PUSH1 0x1 PUSH1 0xA0 SHL SUB AND ISZERO PUSH2 0x185D JUMPI JUMPDEST DUP2 SLOAD PUSH1 0x1 PUSH1 0x1 PUSH1 0xA0 SHL SUB AND ISZERO PUSH2 0x183C JUMPI JUMPDEST POP POP PUSH1 0xD SLOAD PUSH1 0x2 DUP6 ADD DUP1 SLOAD SWAP1 SWAP5 SWAP2 SWAP1 PUSH1 0x1 PUSH1 0x1 PUSH1 0xA0 SHL SUB AND PUSH2 0x17DC JUMPI CALLER PUSH1 0x0 MSTORE PUSH1 0x12 PUSH1 0x20 MSTORE PUSH1 0x40 PUSH1 0x0 KECCAK256 SWAP2 CALLER DUP2 EQ PUSH2 0x179A JUMPI PUSH1 0x40 SWAP1 PUSH1 0x0 SWAP1 DUP2 MSTORE PUSH1 0x12 PUSH1 0x20 MSTORE KECCAK256 SWAP1 PUSH1 0x3 DUP3 ADD PUSH2 0x10B3 DUP3 DUP3 SLOAD PUSH2 0x34CE JUMP JUMPDEST ISZERO PUSH2 0x1761 JUMPI POP PUSH1 0xE DUP3 ADD SLOAD PUSH1 0x0 SWAP1 PUSH2 0x1759 JUMPI JUMPDEST PUSH2 0x174B JUMPI JUMPDEST PUSH1 0x0 NOT NUMBER ADD NUMBER DUP2 GT PUSH2 0xF19 JUMPI PUSH2 0x1102 PUSH2 0x1107 SWAP2 PUSH1 0x40 MLOAD PUSH2 0x10F6 DUP2 PUSH2 0xDE8 PUSH1 0x20 DUP3 ADD SWAP5 BLOCKHASH PREVRANDAO TIMESTAMP DUP8 PUSH2 0x3280 JUMP JUMPDEST MLOAD SWAP1 KECCAK256 PUSH1 0x1 SLOAD SWAP1 PUSH2 0x3295 JUMP JUMPDEST PUSH2 0x3178 JUMP JUMPDEST SWAP1 SLOAD PUSH1 0x1 PUSH1 0x1 PUSH1 0xA0 SHL SUB PUSH1 0x3 SWAP3 SWAP1 SWAP3 SHL SHR DUP2 AND PUSH1 0x0 SWAP1 DUP2 MSTORE PUSH1 0x12 PUSH1 0x20 MSTORE PUSH1 0x40 SWAP1 KECCAK256 DUP1 SLOAD SWAP1 SWAP3 SWAP2 AND DUP1 ISZERO PUSH2 0x170B JUMPI DUP5 PUSH2 0x113E SWAP2 PUSH2 0x34F5 JUMP JUMPDEST DUP3 SLOAD DUP3 SLOAD PUSH1 0x40 MLOAD PUSH1 0x1 PUSH1 0x1 PUSH1 0xA0 SHL SUB SWAP2 DUP3 AND SWAP4 SWAP3 PUSH32 0xA1B30426557565C4FA85CE5F9C88513D7D3F49D21EB30569C249B07B037831EF SWAP3 DUP3 SWAP2 PUSH2 0x1185 SWAP2 CALLER SWAP2 DUP9 SWAP2 AND DUP5 PUSH2 0x34AB JUMP JUMPDEST SUB SWAP1 LOG1 PUSH1 0x40 MLOAD PUSH1 0x4 DUP6 ADD PUSH2 0x1198 DUP3 PUSH2 0x2F06 JUMP JUMPDEST CALLER DUP3 MSTORE PUSH1 0x20 DUP3 ADD SWAP4 DUP5 MSTORE DUP1 SLOAD SWAP4 PUSH1 0x1 PUSH1 0x40 SHL DUP6 LT ISZERO PUSH2 0x165D JUMPI PUSH1 0x1 DUP6 ADD DUP1 DUP4 SSTORE DUP6 LT ISZERO PUSH2 0x16F5 JUMPI PUSH1 0x0 SWAP2 DUP3 MSTORE PUSH1 0x20 SWAP1 SWAP2 KECCAK256 SWAP2 MLOAD PUSH1 0x1 SWAP5 DUP6 SHL SWAP1 SWAP3 ADD DUP1 SLOAD PUSH1 0x1 PUSH1 0x1 PUSH1 0xA0 SHL SUB SWAP4 DUP5 AND PUSH1 0x1 PUSH1 0x1 PUSH1 0xA0 SHL SUB NOT SWAP2 DUP3 AND OR DUP3 SSTORE SWAP2 MLOAD SWAP5 ADD DUP1 SLOAD SWAP5 SWAP1 SWAP3 AND SWAP4 AND SWAP3 SWAP1 SWAP3 OR SWAP1 SWAP2 SSTORE PUSH2 0x121A SWAP1 PUSH1 0x3 DUP4 ADD PUSH2 0x1214 CALLER DUP3 PUSH2 0x31F5 JUMP JUMPDEST SLOAD PUSH2 0x34CE JUMP JUMPDEST PUSH2 0x16E6 JUMPI JUMPDEST POP JUMPDEST PUSH1 0x1 DUP3 ADD DUP1 SLOAD PUSH1 0x1 PUSH1 0x1 PUSH1 0xA0 SHL SUB AND ISZERO PUSH2 0x167E JUMPI JUMPDEST POP POP PUSH1 0x0 SWAP1 JUMPDEST DUP3 PUSH1 0xFF DUP4 AND LT PUSH2 0x1524 JUMPI JUMPDEST POP POP POP JUMPDEST PUSH1 0xE DUP4 ADD DUP1 SLOAD PUSH2 0x14DF JUMPI DUP4 SLOAD PUSH2 0x1269 SWAP1 PUSH1 0x1 PUSH1 0x1 PUSH1 0xA0 SHL SUB AND PUSH2 0x31D0 JUMP JUMPDEST PUSH1 0x1 SLOAD SWAP1 SSTORE PUSH32 0x411C58B3C1E8A39D91C901E5C807BFF1401650BEEDC45ABA65112756BB929B4 PUSH1 0x80 PUSH1 0x1 DUP1 PUSH1 0xA0 SHL SUB DUP6 SLOAD AND PUSH32 0x6BAF10092C7EA144C4FB56FB8CF641E1F00E291A535B5D54B547EADB29485A7 PUSH1 0x20 PUSH1 0x40 MLOAD DUP4 DUP2 MSTORE LOG1 PUSH1 0x1 DUP7 ADD SLOAD SWAP5 SLOAD PUSH1 0x40 DUP1 MLOAD PUSH1 0x1 PUSH1 0x1 PUSH1 0xA0 SHL SUB SWAP8 DUP9 AND DUP1 DUP3 MSTORE SWAP8 SWAP1 SWAP3 AND PUSH1 0x20 DUP4 ADD MSTORE DUP2 ADD SWAP2 SWAP1 SWAP2 MSTORE PUSH1 0x60 DUP2 ADD DUP8 SWAP1 MSTORE LOG1 PUSH1 0x64 PUSH2 0x130D DUP2 PUSH2 0x1305 DUP5 CALLVALUE PUSH2 0x3118 JUMP JUMPDEST DIV SWAP3 DUP7 PUSH2 0x3118 JUMP JUMPDEST DIV SWAP2 PUSH1 0x0 MSTORE PUSH1 0x12 PUSH1 0x20 MSTORE PUSH1 0x40 PUSH1 0x0 KECCAK256 SWAP1 PUSH1 0x1 DUP1 PUSH1 0xA0 SHL SUB DUP3 SLOAD AND DUP1 PUSH2 0x1440 JUMPI JUMPDEST POP POP POP POP PUSH1 0x6 SLOAD PUSH1 0x0 DUP1 DUP1 DUP1 PUSH1 0x64 PUSH2 0x134B PUSH1 0xFF DUP8 PUSH1 0xA0 SHR AND CALLVALUE PUSH2 0x3118 JUMP JUMPDEST DIV DUP1 SWAP6 DUP3 SWAP1 DUP3 ISZERO PUSH2 0x1436 JUMPI JUMPDEST PUSH1 0x1 PUSH1 0x1 PUSH1 0xA0 SHL SUB AND SWAP1 CALL ISZERO PUSH2 0xE96 JUMPI PUSH1 0x6 SLOAD PUSH1 0x40 MLOAD PUSH32 0x5AA75BDB3269082E844D731608AFAE2A07CBF194F251E3F857B870AF86B754FB SWAP3 SWAP1 SWAP2 DUP3 SWAP2 PUSH2 0x13A6 SWAP2 PUSH1 0x1 PUSH1 0x1 PUSH1 0xA0 SHL SUB AND DUP4 PUSH2 0x329F JUMP JUMPDEST SUB SWAP1 LOG1 PUSH1 0x64 PUSH2 0x13BA PUSH1 0xFF PUSH1 0x8 SLOAD AND CALLVALUE PUSH2 0x3118 JUMP JUMPDEST DIV SWAP3 PUSH1 0x0 DUP1 DUP1 DUP1 DUP8 PUSH1 0x1 DUP1 PUSH1 0xA0 SHL SUB PUSH1 0x10 SLOAD AND DUP3 DUP3 ISZERO PUSH2 0x142D JUMPI JUMPDEST CALL ISZERO PUSH2 0xE96 JUMPI PUSH2 0x13EA PUSH2 0x1428 SWAP5 PUSH1 0x7 SLOAD PUSH2 0x310B JUMP JUMPDEST PUSH1 0x7 SSTORE PUSH2 0x13F8 DUP4 DUP3 SLOAD PUSH2 0x310B JUMP JUMPDEST SWAP1 SSTORE PUSH1 0xF TIMESTAMP SWAP2 ADD SSTORE PUSH2 0x141D PUSH1 0x64 PUSH2 0x1414 PUSH1 0xFF PUSH1 0xA SLOAD AND CALLVALUE PUSH2 0x3118 JUMP JUMPDEST DIV PUSH1 0x9 SLOAD PUSH2 0x310B JUMP JUMPDEST PUSH1 0x9 SSTORE PUSH1 0x2 SLOAD PUSH2 0x310B JUMP JUMPDEST PUSH1 0x2 SSTORE STOP JUMPDEST POP PUSH2 0x8FC PUSH2 0x13D5 JUMP JUMPDEST PUSH2 0x8FC SWAP2 POP PUSH2 0x1357 JUMP JUMPDEST PUSH1 0x0 DUP1 DUP1 DUP5 DUP2 SWAP5 DUP3 DUP3 ISZERO PUSH2 0x14D6 JUMPI JUMPDEST CALL ISZERO PUSH2 0xE96 JUMPI PUSH1 0x9 SWAP3 PUSH32 0x153F77382D7E07DE734977AE352E9B1F5F8AD4B1C0033C883A9A33456A87836F PUSH1 0x80 PUSH2 0x14BC SWAP4 PUSH1 0x1 DUP1 PUSH1 0xA0 SHL SUB DUP7 SLOAD AND SWAP1 PUSH1 0x40 MLOAD SWAP2 DUP3 MSTORE CALLER PUSH1 0x20 DUP4 ADD MSTORE PUSH1 0x40 DUP3 ADD MSTORE PUSH1 0x1 PUSH1 0x60 DUP3 ADD MSTORE LOG1 PUSH1 0xB DUP4 ADD PUSH2 0x14B2 DUP3 DUP3 SLOAD PUSH2 0x310B JUMP JUMPDEST SWAP1 SSTORE PUSH1 0x3 SLOAD PUSH2 0x310B JUMP JUMPDEST PUSH1 0x3 SSTORE ADD PUSH2 0x14CB DUP4 DUP3 SLOAD PUSH2 0x310B JUMP JUMPDEST SWAP1 SSTORE DUP4 DUP1 DUP1 DUP1 PUSH2 0x132D JUMP JUMPDEST POP PUSH2 0x8FC PUSH2 0x144F JUMP JUMPDEST PUSH1 0x40 MLOAD PUSH3 0x461BCD PUSH1 0xE5 SHL DUP2 MSTORE PUSH1 0x20 PUSH1 0x4 DUP3 ADD MSTORE PUSH1 0x1E PUSH1 0x24 DUP3 ADD MSTORE PUSH32 0x5573657220697320616C726561647920696E2072616E646F6D206C6973740000 PUSH1 0x44 DUP3 ADD MSTORE PUSH1 0x64 SWAP1 REVERT JUMPDEST PUSH1 0x2 DUP2 ADD SLOAD PUSH1 0x1 PUSH1 0x1 PUSH1 0xA0 SHL SUB AND SWAP1 DUP2 ISZERO PUSH2 0x1678 JUMPI SLOAD PUSH1 0x1 PUSH1 0x1 PUSH1 0xA0 SHL SUB AND DUP2 EQ PUSH2 0x1673 JUMPI PUSH1 0x0 MSTORE PUSH1 0x12 PUSH1 0x20 MSTORE PUSH1 0x40 PUSH1 0x0 KECCAK256 PUSH1 0x5 DUP2 ADD SWAP1 PUSH2 0x1564 DUP4 PUSH2 0x3229 JUMP JUMPDEST PUSH1 0x40 MLOAD SWAP3 PUSH2 0x1571 DUP5 PUSH2 0x2F06 JUMP JUMPDEST CALLER DUP5 MSTORE PUSH1 0xFF PUSH1 0x20 DUP6 ADD SWAP3 AND DUP3 MSTORE DUP1 SLOAD PUSH1 0x1 PUSH1 0x40 SHL DUP2 LT ISZERO PUSH2 0x165D JUMPI PUSH2 0x159B SWAP2 PUSH1 0x1 DUP3 ADD DUP2 SSTORE PUSH2 0x3193 JUMP JUMPDEST SWAP2 SWAP1 SWAP2 PUSH2 0x1647 JUMPI SWAP3 MLOAD DUP2 SLOAD SWAP4 MLOAD PUSH1 0x1 PUSH1 0x1 PUSH1 0xA8 SHL SUB NOT SWAP1 SWAP5 AND PUSH1 0x1 PUSH1 0x1 PUSH1 0xA0 SHL SUB SWAP2 SWAP1 SWAP2 AND OR PUSH1 0xA0 SWAP4 SWAP1 SWAP4 SHL PUSH1 0xFF PUSH1 0xA0 SHL AND SWAP3 SWAP1 SWAP3 OR SWAP1 SWAP2 SSTORE PUSH1 0xA DUP2 ADD DUP1 SLOAD PUSH2 0x1641 SWAP3 SWAP2 SWAP1 PUSH2 0x15EB SWAP1 DUP11 SWAP1 PUSH2 0x310B JUMP JUMPDEST SWAP1 SSTORE DUP1 SLOAD PUSH32 0x85DB3F10B88EA7FC653F3F818097A3FC3C543196ED60CAD2251DF922BCC9AD7F SWAP1 PUSH1 0x60 SWAP1 PUSH1 0x1 PUSH1 0x1 PUSH1 0xA0 SHL SUB AND PUSH1 0xFF PUSH2 0x1628 DUP8 PUSH2 0x3229 JUMP JUMPDEST PUSH1 0x40 MLOAD SWAP3 DUP4 MSTORE CALLER PUSH1 0x20 DUP5 ADD MSTORE AND PUSH1 0x40 DUP3 ADD MSTORE LOG1 SWAP2 PUSH2 0x3218 JUMP JUMPDEST SWAP1 PUSH2 0x123C JUMP JUMPDEST PUSH4 0x4E487B71 PUSH1 0xE0 SHL PUSH1 0x0 MSTORE PUSH1 0x0 PUSH1 0x4 MSTORE PUSH1 0x24 PUSH1 0x0 REVERT JUMPDEST PUSH4 0x4E487B71 PUSH1 0xE0 SHL PUSH1 0x0 MSTORE PUSH1 0x41 PUSH1 0x4 MSTORE PUSH1 0x24 PUSH1 0x0 REVERT JUMPDEST PUSH2 0x1247 JUMP JUMPDEST POP PUSH2 0x1247 JUMP JUMPDEST SWAP1 SLOAD DUP2 SLOAD PUSH1 0x1 PUSH1 0x1 PUSH1 0xA0 SHL SUB NOT AND PUSH1 0x1 PUSH1 0x1 PUSH1 0xA0 SHL SUB SWAP2 DUP3 AND SWAP1 DUP2 OR SWAP1 SWAP3 SSTORE PUSH1 0x2 DUP4 ADD SLOAD PUSH1 0x40 MLOAD PUSH32 0x8EFA008F8AE98AE30D3219078A298C85BC25A62F50C57ED9A3EC838B7EED9F47 SWAP4 SWAP1 SWAP3 DUP4 SWAP3 PUSH2 0x16DC SWAP3 CALLER SWAP3 SWAP2 SWAP1 SWAP2 AND SWAP1 DUP5 PUSH2 0x34AB JUMP JUMPDEST SUB SWAP1 LOG1 DUP8 DUP1 PUSH2 0x1236 JUMP JUMPDEST PUSH2 0x16EF SWAP1 PUSH2 0x354B JUMP JUMPDEST DUP9 PUSH2 0x121F JUMP JUMPDEST PUSH4 0x4E487B71 PUSH1 0xE0 SHL PUSH1 0x0 MSTORE PUSH1 0x32 PUSH1 0x4 MSTORE PUSH1 0x24 PUSH1 0x0 REVERT JUMPDEST PUSH1 0x40 MLOAD PUSH3 0x461BCD PUSH1 0xE5 SHL DUP2 MSTORE PUSH1 0x20 PUSH1 0x4 DUP3 ADD MSTORE PUSH1 0x18 PUSH1 0x24 DUP3 ADD MSTORE PUSH24 0x139BC81C985B991BDB481C9959995C9C995C88199BDD5B99 PUSH1 0x42 SHL PUSH1 0x44 DUP3 ADD MSTORE PUSH1 0x64 SWAP1 REVERT JUMPDEST PUSH2 0x1754 DUP3 PUSH2 0x354B JUMP JUMPDEST PUSH2 0x10CB JUMP JUMPDEST POP PUSH1 0x1 PUSH2 0x10C6 JUMP JUMPDEST DUP3 SLOAD PUSH2 0x1787 SWAP3 SWAP2 SWAP1 PUSH2 0x177D SWAP1 DUP7 SWAP1 PUSH1 0x1 PUSH1 0x1 PUSH1 0xA0 SHL SUB AND PUSH2 0x34F5 JUMP JUMPDEST PUSH2 0x1214 CALLER DUP3 PUSH2 0x31F5 JUMP JUMPDEST ISZERO PUSH2 0x1221 JUMPI PUSH2 0x1795 DUP2 PUSH2 0x354B JUMP JUMPDEST PUSH2 0x1221 JUMP JUMPDEST PUSH1 0x40 MLOAD PUSH3 0x461BCD PUSH1 0xE5 SHL DUP2 MSTORE PUSH1 0x20 PUSH1 0x4 DUP3 ADD MSTORE PUSH1 0x1A PUSH1 0x24 DUP3 ADD MSTORE PUSH26 0x2CB7BA9031B0B73737BA103932B332B9103CB7BAB939B2B63317 PUSH1 0x31 SHL PUSH1 0x44 DUP3 ADD MSTORE PUSH1 0x64 SWAP1 REVERT JUMPDEST POP POP POP PUSH32 0x1F4FFF38C5E64AF9E759D590409F022EA913658008BB1D0CD35E028244F01ECF PUSH1 0x60 PUSH1 0x40 MLOAD PUSH1 0x20 DUP2 MSTORE PUSH1 0x1F PUSH1 0x20 DUP3 ADD MSTORE PUSH32 0x5573657220416C72656164792068617665207265666572726572207365742E00 PUSH1 0x40 DUP3 ADD MSTORE LOG1 PUSH2 0x124B JUMP JUMPDEST DUP2 SLOAD PUSH1 0x1 PUSH1 0x1 PUSH1 0xA0 SHL SUB NOT AND DUP6 OR SWAP1 SWAP2 SSTORE PUSH2 0x1856 SWAP1 PUSH2 0x31AB JUMP JUMPDEST DUP7 DUP1 PUSH2 0x1063 JUMP JUMPDEST DUP6 SLOAD PUSH1 0x1 PUSH1 0x1 PUSH1 0xA0 SHL SUB NOT AND CALLER SWAP1 DUP2 OR DUP8 SSTORE PUSH2 0x1878 SWAP1 PUSH2 0x31AB JUMP JUMPDEST PUSH2 0x1052 JUMP JUMPDEST PUSH1 0x40 MLOAD PUSH3 0x461BCD PUSH1 0xE5 SHL DUP2 MSTORE PUSH1 0x20 PUSH1 0x4 DUP3 ADD MSTORE PUSH1 0x13 PUSH1 0x24 DUP3 ADD MSTORE PUSH19 0x5265666572726572204E6F7420416374697665 PUSH1 0x68 SHL PUSH1 0x44 DUP3 ADD MSTORE PUSH1 0x64 SWAP1 REVERT JUMPDEST PUSH1 0x40 MLOAD PUSH3 0x461BCD PUSH1 0xE5 SHL DUP2 MSTORE PUSH1 0x20 PUSH1 0x4 DUP3 ADD MSTORE PUSH1 0x17 PUSH1 0x24 DUP3 ADD MSTORE PUSH23 0x155CD95C88185B1C9958591E481C9959DA5CDD195C9959 PUSH1 0x4A SHL PUSH1 0x44 DUP3 ADD MSTORE PUSH1 0x64 SWAP1 REVERT JUMPDEST PUSH1 0x40 MLOAD PUSH3 0x461BCD PUSH1 0xE5 SHL DUP2 MSTORE PUSH1 0x20 PUSH1 0x4 DUP3 ADD MSTORE PUSH1 0x26 PUSH1 0x24 DUP3 ADD MSTORE PUSH32 0x56616C7565206973206C657373207468656E20726567697374726174696F6E20 PUSH1 0x44 DUP3 ADD MSTORE PUSH6 0x3B30B63AB297 PUSH1 0xD1 SHL PUSH1 0x64 DUP3 ADD MSTORE PUSH1 0x84 SWAP1 REVERT JUMPDEST PUSH1 0x40 MLOAD PUSH3 0x461BCD PUSH1 0xE5 SHL DUP2 MSTORE PUSH1 0x20 PUSH1 0x4 DUP3 ADD MSTORE PUSH1 0x23 PUSH1 0x24 DUP3 ADD MSTORE PUSH32 0x43757272656E637920596F752073656C6563746564206E6F7420737570706F72 PUSH1 0x44 DUP3 ADD MSTORE PUSH3 0x1D1959 PUSH1 0xEA SHL PUSH1 0x64 DUP3 ADD MSTORE PUSH1 0x84 SWAP1 REVERT JUMPDEST PUSH1 0x40 MLOAD PUSH3 0x461BCD PUSH1 0xE5 SHL DUP2 MSTORE PUSH1 0x20 PUSH1 0x4 DUP3 ADD MSTORE PUSH1 0x23 PUSH1 0x24 DUP3 ADD MSTORE PUSH32 0x5A65726F20416464726573732063616E6E6F7420626520746865207265666572 PUSH1 0x44 DUP3 ADD MSTORE PUSH3 0x3932B9 PUSH1 0xE9 SHL PUSH1 0x64 DUP3 ADD MSTORE PUSH1 0x84 SWAP1 REVERT JUMPDEST CALLVALUE PUSH2 0x4E2 JUMPI PUSH1 0x0 CALLDATASIZE PUSH1 0x3 NOT ADD SLT PUSH2 0x4E2 JUMPI PUSH1 0x40 DUP1 MLOAD SWAP1 PUSH2 0x1A0D DUP2 DUP4 PUSH2 0x2F21 JUMP JUMPDEST PUSH1 0x5 DUP3 MSTORE PUSH5 0x352E302E3 PUSH1 0xDC SHL PUSH1 0x20 DUP4 ADD MSTORE DUP1 MLOAD DUP1 SWAP3 PUSH1 0x20 DUP3 MSTORE DUP1 MLOAD SWAP1 DUP2 PUSH1 0x20 DUP5 ADD MSTORE PUSH1 0x0 JUMPDEST DUP3 DUP2 LT PUSH2 0x1A52 JUMPI POP POP PUSH1 0x0 DUP3 DUP3 ADD DUP5 ADD MSTORE PUSH1 0x1F ADD PUSH1 0x1F NOT AND DUP2 ADD SUB ADD SWAP1 RETURN JUMPDEST PUSH1 0x20 DUP3 DUP3 ADD DUP2 ADD MLOAD DUP8 DUP4 ADD DUP8 ADD MSTORE DUP7 SWAP5 POP ADD PUSH2 0x1A33 JUMP JUMPDEST CALLVALUE PUSH2 0x4E2 JUMPI PUSH1 0x20 CALLDATASIZE PUSH1 0x3 NOT ADD SLT PUSH2 0x4E2 JUMPI PUSH1 0x4 CALLDATALOAD PUSH1 0xFF DUP2 AND DUP1 SWAP2 SUB PUSH2 0x4E2 JUMPI PUSH2 0x1A90 PUSH2 0x314B JUMP JUMPDEST POP PUSH1 0x0 MSTORE PUSH1 0x13 PUSH1 0x20 MSTORE PUSH1 0x40 DUP1 PUSH1 0x0 KECCAK256 PUSH1 0x1 DUP3 MLOAD SWAP2 PUSH2 0x1AAD DUP4 PUSH2 0x2F06 JUMP JUMPDEST PUSH1 0xFF DUP2 SLOAD AND DUP4 MSTORE ADD SLOAD PUSH1 0x20 DUP3 ADD MSTORE PUSH2 0x1AD4 DUP3 MLOAD DUP1 SWAP3 PUSH1 0x20 DUP1 SWAP2 PUSH1 0xFF DUP2 MLOAD AND DUP5 MSTORE ADD MLOAD SWAP2 ADD MSTORE JUMP JUMPDEST RETURN JUMPDEST PUSH1 0x20 CALLDATASIZE PUSH1 0x3 NOT ADD SLT PUSH2 0x4E2 JUMPI PUSH8 0xDE0B6B3A7640000 PUSH2 0x1B28 PUSH2 0xFD8 PUSH2 0x1AF9 PUSH2 0x2E97 JUMP JUMPDEST PUSH1 0x1 PUSH1 0x1 PUSH1 0xA0 SHL SUB DUP2 AND PUSH1 0x0 SWAP1 DUP2 MSTORE PUSH1 0x14 PUSH1 0x20 MSTORE PUSH1 0x40 SWAP1 KECCAK256 SLOAD PUSH2 0x1B23 SWAP1 PUSH1 0xFF AND ISZERO ISZERO PUSH1 0x1 EQ PUSH2 0x323B JUMP JUMPDEST PUSH2 0x331E JUMP JUMPDEST DIV CALLER PUSH1 0x0 MSTORE PUSH1 0x12 PUSH1 0x20 MSTORE PUSH1 0x40 PUSH1 0x0 KECCAK256 PUSH1 0x8 DUP2 ADD PUSH1 0xFF DUP2 SLOAD AND PUSH1 0x0 MSTORE PUSH1 0x13 PUSH1 0x20 MSTORE PUSH1 0x40 PUSH1 0x0 KECCAK256 SWAP1 PUSH1 0x1 PUSH1 0x40 MLOAD SWAP3 PUSH2 0x1B5D DUP5 PUSH2 0x2F06 JUMP JUMPDEST PUSH1 0xFF DUP2 SLOAD AND DUP5 MSTORE ADD SLOAD PUSH1 0x20 DUP4 ADD SWAP1 DUP1 DUP3 MSTORE ISZERO PUSH2 0x1E08 JUMPI DUP1 MLOAD PUSH1 0x5F DUP2 MUL SWAP1 DUP1 DUP3 DIV PUSH1 0x5F EQ SWAP1 ISZERO OR ISZERO PUSH2 0xF19 JUMPI PUSH1 0x64 SWAP1 DIV DUP6 GT SWAP1 DUP2 ISZERO PUSH2 0x1DE8 JUMPI JUMPDEST POP ISZERO PUSH2 0x1D94 JUMPI PUSH1 0xFF DUP1 DUP1 SWAP4 PUSH1 0x7 DUP7 ADD PUSH2 0x1BB0 DUP9 DUP3 SLOAD PUSH2 0x310B JUMP JUMPDEST SWAP1 SSTORE MLOAD AND AND DUP3 NOT DUP3 SLOAD AND OR DUP2 SSTORE SLOAD AND SWAP2 PUSH1 0x0 SWAP3 PUSH1 0x0 NOT DUP2 ADD SWAP3 PUSH1 0xFF DUP1 DUP6 GT SWAP5 AND SWAP1 JUMPDEST DUP3 DUP7 GT ISZERO PUSH2 0x1BDC JUMPI STOP JUMPDEST PUSH1 0x2 ADD SLOAD PUSH1 0x1 PUSH1 0x1 PUSH1 0xA0 SHL SUB AND PUSH1 0x0 SWAP1 DUP2 MSTORE PUSH1 0x12 PUSH1 0x20 MSTORE PUSH1 0x40 SWAP1 KECCAK256 DUP5 PUSH2 0xF19 JUMPI DUP2 DUP7 EQ PUSH2 0x1C16 JUMPI SWAP5 PUSH1 0x0 NOT DUP2 EQ PUSH2 0xF19 JUMPI PUSH1 0x1 ADD SWAP5 PUSH2 0x1BD2 JUMP JUMPDEST DUP1 SWAP6 POP PUSH1 0xFF SWAP3 SWAP4 SWAP5 POP PUSH1 0x8 SWAP2 POP ADD SLOAD AND SWAP1 DUP1 DUP3 GT SWAP2 DUP3 ISZERO PUSH2 0x1D8A JUMPI JUMPDEST POP POP DUP1 PUSH2 0x1D77 JUMPI JUMPDEST ISZERO PUSH2 0x1CA7 JUMPI PUSH2 0x1C4E PUSH1 0xD DUP4 ADD SWAP2 DUP3 SLOAD PUSH2 0x310B JUMP JUMPDEST SWAP1 SSTORE PUSH1 0x0 DUP1 DUP1 DUP1 PUSH1 0x1 DUP1 PUSH1 0xA0 SHL SUB DUP6 SLOAD AND DUP2 SWAP1 CALLVALUE ISZERO PUSH2 0x1C9D JUMPI JUMPDEST CALLVALUE SWAP2 CALL ISZERO PUSH2 0xE96 JUMPI SLOAD PUSH1 0x40 MLOAD PUSH1 0x0 DUP1 MLOAD PUSH1 0x20 PUSH2 0x372E DUP4 CODECOPY DUP2 MLOAD SWAP2 MSTORE SWAP2 DUP2 SWAP1 PUSH2 0xE91 SWAP1 CALLVALUE SWAP1 CALLER SWAP1 PUSH1 0x1 PUSH1 0x1 PUSH1 0xA0 SHL SUB AND DUP5 PUSH2 0x345B JUMP JUMPDEST PUSH2 0x8FC SWAP2 POP PUSH2 0x1C68 JUMP JUMPDEST POP POP PUSH32 0x6696B78FC1713892E6E2BB3DF5CDC986AB67A0C675898C7EF535BD2201CA9451 PUSH1 0x80 PUSH1 0x40 MLOAD PUSH1 0x20 DUP2 MSTORE PUSH1 0x3F PUSH1 0x20 DUP3 ADD MSTORE PUSH32 0x55706C696E6520686173206E6F742075706772616465642E20416D6F756E7420 PUSH1 0x40 DUP3 ADD MSTORE PUSH32 0x7472616E73666572656420746F206C69717569646974792077616C6C65742E00 PUSH1 0x60 DUP3 ADD MSTORE LOG1 PUSH1 0x10 SLOAD PUSH1 0x1 PUSH1 0x1 PUSH1 0xA0 SHL SUB AND PUSH1 0x0 CALLVALUE ISZERO PUSH2 0x1D6E JUMPI JUMPDEST PUSH1 0x0 DUP1 DUP1 DUP1 SWAP4 DUP6 CALLVALUE SWAP2 CALL ISZERO PUSH2 0xE96 JUMPI PUSH2 0xE91 PUSH1 0x0 DUP1 MLOAD PUSH1 0x20 PUSH2 0x372E DUP4 CODECOPY DUP2 MLOAD SWAP2 MSTORE SWAP2 PUSH1 0x40 MLOAD SWAP2 DUP3 SWAP2 CALLVALUE SWAP1 CALLER SWAP1 DUP5 PUSH2 0x345B JUMP JUMPDEST POP PUSH2 0x8FC PUSH2 0x1D3C JUMP JUMPDEST POP DUP2 SLOAD PUSH1 0x1 PUSH1 0x1 PUSH1 0xA0 SHL SUB AND ISZERO ISZERO PUSH2 0x1C3A JUMP JUMPDEST EQ SWAP1 POP DUP4 DUP1 PUSH2 0x1C32 JUMP JUMPDEST PUSH1 0x40 MLOAD PUSH3 0x461BCD PUSH1 0xE5 SHL DUP2 MSTORE PUSH1 0x20 PUSH1 0x4 DUP3 ADD MSTORE PUSH1 0x26 PUSH1 0x24 DUP3 ADD MSTORE PUSH32 0x56616C75652073686F756C6420626520657175616C20746F2075706772616465 PUSH1 0x44 DUP3 ADD MSTORE PUSH6 0x2076616C7565 PUSH1 0xD0 SHL PUSH1 0x64 DUP3 ADD MSTORE PUSH1 0x84 SWAP1 REVERT JUMPDEST MLOAD PUSH1 0x69 DUP1 DUP3 MUL SWAP3 POP DUP2 ISZERO SWAP2 DUP4 DIV EQ OR ISZERO PUSH2 0xF19 JUMPI PUSH1 0x64 SWAP1 DIV DUP5 LT DUP6 PUSH2 0x1B96 JUMP JUMPDEST PUSH1 0x40 MLOAD PUSH3 0x461BCD PUSH1 0xE5 SHL DUP2 MSTORE PUSH1 0x20 PUSH1 0x4 DUP3 ADD MSTORE PUSH1 0x1D PUSH1 0x24 DUP3 ADD MSTORE PUSH32 0x596F75206861766520757067726164656420616C6C206C6576656C732E000000 PUSH1 0x44 DUP3 ADD MSTORE PUSH1 0x64 SWAP1 REVERT JUMPDEST CALLVALUE PUSH2 0x4E2 JUMPI PUSH1 0x0 CALLDATASIZE PUSH1 0x3 NOT ADD SLT PUSH2 0x4E2 JUMPI PUSH1 0x0 DUP1 MLOAD PUSH1 0x20 PUSH2 0x36AE DUP4 CODECOPY DUP2 MLOAD SWAP2 MSTORE SLOAD PUSH1 0x40 MLOAD PUSH1 0x1 PUSH1 0x1 PUSH1 0xA0 SHL SUB SWAP1 SWAP2 AND DUP2 MSTORE PUSH1 0x20 SWAP1 RETURN JUMPDEST CALLVALUE PUSH2 0x4E2 JUMPI PUSH1 0x0 CALLDATASIZE PUSH1 0x3 NOT ADD SLT PUSH2 0x4E2 JUMPI PUSH1 0x0 PUSH1 0x9 SLOAD PUSH1 0xB SLOAD SWAP2 PUSH3 0x93A80 DUP4 ADD SWAP3 DUP4 DUP2 GT PUSH2 0xF19 JUMPI TIMESTAMP DUP5 GT PUSH2 0x1ECA JUMPI JUMPDEST POP SWAP2 PUSH1 0x60 SWAP3 PUSH1 0x40 MLOAD SWAP3 DUP4 MSTORE PUSH1 0x20 DUP4 ADD MSTORE PUSH1 0x40 DUP3 ADD MSTORE RETURN JUMPDEST PUSH3 0x93A80 SWAP2 POP TIMESTAMP SWAP1 SUB ADD SWAP2 DUP1 DUP4 GT PUSH2 0xF19 JUMPI SWAP2 PUSH1 0x60 PUSH2 0x1EB3 JUMP JUMPDEST CALLVALUE PUSH2 0x4E2 JUMPI PUSH1 0x0 CALLDATASIZE PUSH1 0x3 NOT ADD SLT PUSH2 0x4E2 JUMPI PUSH1 0x0 DUP1 MLOAD PUSH1 0x20 PUSH2 0x374E DUP4 CODECOPY DUP2 MLOAD SWAP2 MSTORE SLOAD PUSH1 0x40 DUP2 SWAP1 SHR PUSH1 0xFF AND ISZERO SWAP1 PUSH1 0x1 PUSH1 0x1 PUSH1 0x40 SHL SUB DUP2 AND DUP1 ISZERO SWAP1 DUP2 PUSH2 0x23BD JUMPI JUMPDEST PUSH1 0x1 EQ SWAP1 DUP2 PUSH2 0x23B3 JUMPI JUMPDEST ISZERO SWAP1 DUP2 PUSH2 0x23AA JUMPI JUMPDEST POP PUSH2 0x2399 JUMPI PUSH1 0x1 PUSH1 0x1 PUSH1 0x40 SHL SUB NOT DUP2 AND PUSH1 0x1 OR PUSH1 0x0 DUP1 MLOAD PUSH1 0x20 PUSH2 0x374E DUP4 CODECOPY DUP2 MLOAD SWAP2 MSTORE SSTORE DUP2 PUSH2 0x2370 JUMPI JUMPDEST POP PUSH20 0xCEF5767039FA6A66016B802546F123E0C3DDEDC2 PUSH1 0x0 DUP2 SWAP1 MSTORE PUSH1 0x12 PUSH1 0x20 MSTORE PUSH32 0x7B58F54F0BC0FCD57E50C233F450FE384ADF8C88021DBBEEF24B87DE22945C14 DUP1 SLOAD PUSH1 0x1 PUSH1 0x1 PUSH1 0xA0 SHL SUB NOT AND DUP3 OR SWAP1 SSTORE PUSH10 0x152D02C7E14AF6800000 PUSH32 0x7B58F54F0BC0FCD57E50C233F450FE384ADF8C88021DBBEEF24B87DE22945C1A SSTORE TIMESTAMP PUSH32 0x7B58F54F0BC0FCD57E50C233F450FE384ADF8C88021DBBEEF24B87DE22945C23 SSTORE PUSH1 0x1 PUSH32 0x7B58F54F0BC0FCD57E50C233F450FE384ADF8C88021DBBEEF24B87DE22945C22 SSTORE PUSH2 0x202B SWAP1 PUSH2 0x31D0 JUMP JUMPDEST PUSH2 0x2048 PUSH20 0xCEF5767039FA6A66016B802546F123E0C3DDEDC2 PUSH2 0x31AB JUMP JUMPDEST PUSH20 0xCEF5767039FA6A66016B802546F123E0C3DDEDC2 PUSH1 0x1 DUP1 PUSH1 0xA0 SHL SUB NOT PUSH1 0xE SLOAD AND OR PUSH1 0xE SSTORE PUSH1 0x0 DUP1 MLOAD PUSH1 0x20 PUSH2 0x36EE DUP4 CODECOPY DUP2 MLOAD SWAP2 MSTORE PUSH1 0x20 PUSH1 0x40 MLOAD PUSH20 0xCEF5767039FA6A66016B802546F123E0C3DDEDC2 DUP2 MSTORE LOG1 PUSH1 0x11 SLOAD PUSH1 0x1 PUSH1 0x40 SHL DUP2 LT ISZERO PUSH2 0x165D JUMPI DUP1 PUSH1 0x1 PUSH2 0x20BA SWAP3 ADD PUSH1 0x11 SSTORE PUSH1 0x11 PUSH2 0x3193 JUMP JUMPDEST DUP2 SLOAD PUSH1 0x1 PUSH1 0x1 PUSH1 0xA0 SHL SUB PUSH1 0x3 SWAP3 SWAP1 SWAP3 SHL SWAP2 DUP3 SHL NOT AND PUSH20 0x567F2323251F0AAB15C8DFB1967E4E8A7D42AEE SWAP1 SWAP2 SHL OR SWAP1 SSTORE PUSH1 0x11 SLOAD PUSH1 0x1 PUSH1 0x40 SHL DUP2 LT ISZERO PUSH2 0x165D JUMPI DUP1 PUSH1 0x1 PUSH2 0x210B SWAP3 ADD PUSH1 0x11 SSTORE PUSH1 0x11 PUSH2 0x3193 JUMP JUMPDEST DUP2 SLOAD PUSH1 0x1 PUSH1 0x1 PUSH1 0xA0 SHL SUB PUSH1 0x3 SWAP3 SWAP1 SWAP3 SHL SWAP2 DUP3 SHL NOT AND PUSH20 0x9C85F470F9BA23DFC4FE9531933C2CE2C1739C39 SWAP2 DUP3 SWAP1 SHL OR SWAP1 SWAP2 SSTORE PUSH1 0x14 PUSH1 0x20 MSTORE PUSH32 0x18B399276171EDD4288C75706C059C76F8BA27A208F6AB7DC13DDAC4A813EB06 DUP1 SLOAD PUSH1 0xFF NOT SWAP1 DUP2 AND PUSH1 0x1 SWAP1 DUP2 OR SWAP1 SWAP3 SSTORE PUSH1 0x0 SWAP3 SWAP1 SWAP3 MSTORE PUSH32 0x785E316B530D6F09805CF52EC6944C1FD91D7CF1FFA292231399B4110CC5CA9D DUP1 SLOAD DUP4 AND SWAP1 SWAP2 OR SWAP1 SSTORE PUSH9 0x15AF1D78B58C40000 PUSH1 0xF SSTORE PUSH1 0xC DUP1 SLOAD PUSH2 0xFFFF NOT AND PUSH2 0x83C OR SWAP1 SSTORE PUSH1 0x2 PUSH1 0xD SSTORE PUSH1 0x6 DUP1 SLOAD PUSH1 0x1 PUSH1 0x1 PUSH1 0xA8 SHL SUB NOT AND PUSH21 0x14554F58FCFCEF95F82C8CF6ED9E51E5C79E341481 OR SWAP1 SSTORE PUSH1 0x10 DUP1 SLOAD PUSH1 0x1 PUSH1 0x1 PUSH1 0xA0 SHL SUB NOT AND PUSH20 0x3D7263AFA42C9D47C13CFCDCDC72A131077E5618 OR DUP2 SSTORE PUSH1 0x8 DUP1 SLOAD DUP4 AND SWAP1 SWAP2 OR SWAP1 SSTORE PUSH1 0xA DUP1 SLOAD SWAP1 SWAP2 AND PUSH1 0x4 OR SWAP1 SSTORE TIMESTAMP PUSH1 0xB SSTORE PUSH1 0x40 MLOAD PUSH1 0xE0 DUP2 ADD PUSH1 0x1 PUSH1 0x1 PUSH1 0x40 SHL SUB DUP2 GT DUP3 DUP3 LT OR PUSH2 0x165D JUMPI PUSH1 0x40 MSTORE PUSH9 0x1158E460913D00000 DUP2 MSTORE PUSH9 0x1A055690D9DB80000 PUSH1 0x20 DUP3 ADD MSTORE PUSH9 0x2B5E3AF16B1880000 PUSH1 0x40 DUP3 ADD MSTORE PUSH9 0x9C2007651B2500000 PUSH1 0x60 DUP3 ADD MSTORE PUSH9 0x15AF1D78B58C400000 PUSH1 0x80 DUP3 ADD MSTORE PUSH9 0x281D901F4FDD100000 PUSH1 0xA0 DUP3 ADD MSTORE PUSH9 0x4FB0591B9B30380000 PUSH1 0xC0 DUP3 ADD MSTORE PUSH1 0x0 JUMPDEST PUSH1 0xFF DUP2 AND SWAP1 PUSH1 0x7 DUP3 LT ISZERO PUSH2 0x22F4 JUMPI PUSH2 0x22EF SWAP2 PUSH1 0x1 PUSH2 0x22CE DUP4 PUSH2 0x3229 JUMP JUMPDEST SWAP2 PUSH1 0xFF DUP1 PUSH1 0x40 PUSH1 0x0 PUSH2 0x1FE0 DUP9 PUSH1 0x5 SHL AND DUP11 ADD MLOAD SWAP5 DUP4 DUP4 MLOAD SWAP9 PUSH2 0xC2A DUP11 PUSH2 0x2F06 JUMP JUMPDEST PUSH2 0x22B1 JUMP JUMPDEST DUP4 PUSH2 0x22FD PUSH2 0x347D JUMP JUMPDEST PUSH2 0x2305 PUSH2 0x347D JUMP JUMPDEST PUSH2 0x230E CALLER PUSH2 0x32BA JUMP JUMPDEST PUSH2 0x2316 PUSH2 0x347D JUMP JUMPDEST PUSH2 0x231C JUMPI STOP JUMPDEST PUSH1 0xFF PUSH1 0x40 SHL NOT PUSH1 0x0 DUP1 MLOAD PUSH1 0x20 PUSH2 0x374E DUP4 CODECOPY DUP2 MLOAD SWAP2 MSTORE SLOAD AND PUSH1 0x0 DUP1 MLOAD PUSH1 0x20 PUSH2 0x374E DUP4 CODECOPY DUP2 MLOAD SWAP2 MSTORE SSTORE PUSH32 0xC7F505B2F371AE2175EE4913F4499E1F2633A7B5936321EED1CDAEB6115181D2 PUSH1 0x20 PUSH1 0x40 MLOAD PUSH1 0x1 DUP2 MSTORE LOG1 STOP JUMPDEST PUSH1 0x1 PUSH1 0x1 PUSH1 0x48 SHL SUB NOT AND PUSH1 0x1 PUSH1 0x1 PUSH1 0x40 SHL ADD OR PUSH1 0x0 DUP1 MLOAD PUSH1 0x20 PUSH2 0x374E DUP4 CODECOPY DUP2 MLOAD SWAP2 MSTORE SSTORE DUP2 PUSH2 0x1F5D JUMP JUMPDEST PUSH4 0xF92EE8A9 PUSH1 0xE0 SHL PUSH1 0x0 MSTORE PUSH1 0x4 PUSH1 0x0 REVERT JUMPDEST SWAP1 POP ISZERO DUP4 PUSH2 0x1F34 JUMP JUMPDEST ADDRESS EXTCODESIZE ISZERO SWAP2 POP PUSH2 0x1F2C JUMP JUMPDEST DUP4 SWAP2 POP PUSH2 0x1F22 JUMP JUMPDEST CALLVALUE PUSH2 0x4E2 JUMPI PUSH1 0x0 CALLDATASIZE PUSH1 0x3 NOT ADD SLT PUSH2 0x4E2 JUMPI PUSH1 0x40 MLOAD PUSH1 0x1 SLOAD DUP1 DUP3 MSTORE PUSH1 0x20 DUP3 ADD SWAP1 PUSH1 0x1 PUSH1 0x0 MSTORE PUSH1 0x20 PUSH1 0x0 KECCAK256 SWAP1 PUSH1 0x0 JUMPDEST DUP2 DUP2 LT PUSH2 0x2409 JUMPI PUSH2 0xACB DUP6 PUSH2 0xC89 DUP2 DUP8 SUB DUP3 PUSH2 0x2F21 JUMP JUMPDEST DUP3 SLOAD PUSH1 0x1 PUSH1 0x1 PUSH1 0xA0 SHL SUB AND DUP5 MSTORE PUSH1 0x20 SWAP1 SWAP4 ADD SWAP3 PUSH1 0x1 SWAP3 DUP4 ADD SWAP3 ADD PUSH2 0x23F2 JUMP JUMPDEST CALLVALUE PUSH2 0x4E2 JUMPI PUSH1 0x0 CALLDATASIZE PUSH1 0x3 NOT ADD SLT PUSH2 0x4E2 JUMPI PUSH2 0x2441 PUSH2 0x3425 JUMP JUMPDEST PUSH1 0x0 DUP1 MLOAD PUSH1 0x20 PUSH2 0x36AE DUP4 CODECOPY DUP2 MLOAD SWAP2 MSTORE DUP1 SLOAD PUSH1 0x1 PUSH1 0x1 PUSH1 0xA0 SHL SUB NOT DUP2 AND SWAP1 SWAP2 SSTORE PUSH1 0x0 SWAP1 PUSH1 0x1 PUSH1 0x1 PUSH1 0xA0 SHL SUB AND PUSH1 0x0 DUP1 MLOAD PUSH1 0x20 PUSH2 0x370E DUP4 CODECOPY DUP2 MLOAD SWAP2 MSTORE DUP3 DUP1 LOG3 STOP JUMPDEST CALLVALUE PUSH2 0x4E2 JUMPI PUSH1 0x20 CALLDATASIZE PUSH1 0x3 NOT ADD SLT PUSH2 0x4E2 JUMPI PUSH1 0x20 PUSH2 0x249E PUSH2 0x1B23 PUSH2 0x2E97 JUMP JUMPDEST PUSH1 0x40 MLOAD SWAP1 DUP2 MSTORE RETURN JUMPDEST CALLVALUE PUSH2 0x4E2 JUMPI PUSH1 0x40 CALLDATASIZE PUSH1 0x3 NOT ADD SLT PUSH2 0x4E2 JUMPI PUSH2 0x24BF PUSH2 0x2E97 JUMP JUMPDEST PUSH1 0x24 CALLDATALOAD DUP1 ISZERO ISZERO DUP1 SWAP2 SUB PUSH2 0x4E2 JUMPI PUSH2 0x24D4 PUSH2 0x3425 JUMP JUMPDEST PUSH1 0x1 PUSH1 0x1 PUSH1 0xA0 SHL SUB DUP3 AND PUSH1 0x0 DUP2 DUP2 MSTORE PUSH1 0x14 PUSH1 0x20 MSTORE PUSH1 0x40 SWAP1 KECCAK256 SLOAD SWAP1 SWAP2 SWAP1 PUSH1 0xFF AND ISZERO ISZERO DUP2 EQ PUSH2 0x2681 JUMPI PUSH1 0x1 SWAP1 DUP3 PUSH1 0x0 MSTORE PUSH1 0x14 PUSH1 0x20 MSTORE PUSH1 0x40 PUSH1 0x0 KECCAK256 PUSH1 0xFF NOT DUP2 SLOAD AND PUSH1 0xFF DUP4 AND OR SWAP1 SSTORE EQ PUSH1 0x0 EQ PUSH2 0x256B JUMPI POP PUSH1 0x11 SLOAD SWAP1 PUSH1 0x1 PUSH1 0x40 SHL DUP3 LT ISZERO PUSH2 0x165D JUMPI PUSH2 0x2547 DUP3 PUSH1 0x1 PUSH2 0x1B SWAP5 ADD PUSH1 0x11 SSTORE PUSH1 0x11 PUSH2 0x3193 JUMP JUMPDEST SWAP1 DUP1 SLOAD PUSH1 0x1 PUSH1 0x1 PUSH1 0xA0 SHL SUB PUSH1 0x3 SWAP4 SWAP1 SWAP4 SHL DUP4 DUP2 SHL NOT SWAP1 SWAP2 AND SWAP3 SWAP1 SWAP4 AND SWAP1 SWAP3 SHL OR SWAP1 SSTORE JUMP JUMPDEST SWAP1 POP PUSH2 0x2575 PUSH2 0x2FF7 JUMP JUMPDEST DUP1 MLOAD PUSH1 0x0 JUMPDEST DUP2 DUP2 LT PUSH2 0x2583 JUMPI STOP JUMPDEST DUP4 PUSH1 0x1 PUSH1 0x1 PUSH1 0xA0 SHL SUB PUSH2 0x2596 DUP4 DUP7 PUSH2 0x3164 JUMP JUMPDEST MLOAD AND EQ PUSH2 0x25A6 JUMPI JUMPDEST PUSH1 0x1 ADD PUSH2 0x257A JUMP JUMPDEST PUSH1 0x0 NOT DUP3 ADD DUP3 DUP2 GT PUSH2 0xF19 JUMPI PUSH1 0x1 PUSH1 0x1 PUSH1 0xA0 SHL SUB SWAP1 PUSH2 0x25C5 SWAP1 DUP6 PUSH2 0x3164 JUMP JUMPDEST MLOAD AND PUSH1 0x0 PUSH1 0x11 SLOAD DUP4 LT ISZERO PUSH2 0x266D JUMPI PUSH1 0x11 SWAP1 DUP2 SWAP1 MSTORE PUSH32 0x31ECC21A745E3968A04E9570E4425BC18FA8019C68028196B546D1669C200C68 DUP4 ADD DUP1 SLOAD PUSH1 0x1 PUSH1 0x1 PUSH1 0xA0 SHL SUB NOT AND PUSH1 0x1 PUSH1 0x1 PUSH1 0xA0 SHL SUB SWAP1 SWAP4 AND SWAP3 SWAP1 SWAP3 OR SWAP1 SWAP2 SSTORE SLOAD PUSH1 0x0 DUP2 ISZERO PUSH2 0x2659 JUMPI POP PUSH1 0x1 SWAP2 SWAP1 PUSH1 0x0 NOT ADD PUSH2 0x264F PUSH2 0x263A DUP3 PUSH1 0x11 PUSH2 0x3193 JUMP JUMPDEST DUP2 SLOAD SWAP1 PUSH1 0x1 DUP1 PUSH1 0xA0 SHL SUB SWAP1 PUSH1 0x3 SHL SHL NOT AND SWAP1 SSTORE JUMP JUMPDEST PUSH1 0x11 SSTORE SWAP1 POP PUSH2 0x259E JUMP JUMPDEST PUSH4 0x4E487B71 PUSH1 0xE0 SHL DUP2 MSTORE PUSH1 0x31 PUSH1 0x4 MSTORE PUSH1 0x24 SWAP1 REVERT JUMPDEST PUSH4 0x4E487B71 PUSH1 0xE0 SHL DUP2 MSTORE PUSH1 0x32 PUSH1 0x4 MSTORE PUSH1 0x24 SWAP1 REVERT JUMPDEST PUSH1 0x40 MLOAD PUSH3 0x461BCD PUSH1 0xE5 SHL DUP2 MSTORE PUSH1 0x20 PUSH1 0x4 DUP3 ADD MSTORE PUSH1 0x12 PUSH1 0x24 DUP3 ADD MSTORE PUSH18 0x14DD185D1D5CC8185B1C9958591E481CD95D PUSH1 0x72 SHL PUSH1 0x44 DUP3 ADD MSTORE PUSH1 0x64 SWAP1 REVERT JUMPDEST CALLVALUE PUSH2 0x4E2 JUMPI PUSH1 0x0 CALLDATASIZE PUSH1 0x3 NOT ADD SLT PUSH2 0x4E2 JUMPI PUSH1 0xFF PUSH1 0x0 DUP1 JUMPDEST DUP3 DUP3 AND PUSH1 0x32 DUP2 LT ISZERO PUSH2 0x2820 JUMPI PUSH1 0x0 MSTORE PUSH1 0x13 PUSH1 0x20 MSTORE DUP3 PUSH1 0x40 PUSH1 0x0 KECCAK256 SLOAD AND ISZERO PUSH2 0x2708 JUMPI PUSH1 0x1 PUSH2 0x26FF DUP5 SWAP3 PUSH2 0x3218 JUMP JUMPDEST SWAP3 ADD AND SWAP1 PUSH2 0x26D2 JUMP JUMPDEST SWAP1 POP JUMPDEST AND PUSH2 0x2715 DUP2 PUSH2 0x30F4 JUMP JUMPDEST SWAP1 PUSH2 0x2723 PUSH1 0x40 MLOAD SWAP3 DUP4 PUSH2 0x2F21 JUMP JUMPDEST DUP1 DUP3 MSTORE PUSH1 0x1F NOT PUSH2 0x2732 DUP3 PUSH2 0x30F4 JUMP JUMPDEST ADD PUSH1 0x0 JUMPDEST DUP2 DUP2 LT PUSH2 0x27FB JUMPI POP POP PUSH1 0x0 JUMPDEST PUSH1 0xFF DUP2 AND DUP3 DUP2 LT ISZERO PUSH2 0x2799 JUMPI PUSH1 0xFF SWAP2 PUSH2 0x2791 DUP3 PUSH1 0x1 SWAP4 PUSH1 0x0 MSTORE PUSH1 0x13 PUSH1 0x20 MSTORE PUSH1 0x40 PUSH1 0x0 KECCAK256 DUP5 PUSH1 0x40 MLOAD SWAP2 PUSH2 0x2773 DUP4 PUSH2 0x2F06 JUMP JUMPDEST DUP8 DUP2 SLOAD AND DUP4 MSTORE ADD SLOAD PUSH1 0x20 DUP3 ADD MSTORE PUSH2 0x278A DUP3 DUP10 PUSH2 0x3164 JUMP JUMPDEST MSTORE DUP7 PUSH2 0x3164 JUMP JUMPDEST POP ADD AND PUSH2 0x2742 JUMP JUMPDEST DUP3 DUP5 PUSH1 0x40 MLOAD SWAP1 PUSH1 0x40 DUP3 ADD SWAP3 PUSH1 0x40 DUP4 MSTORE DUP2 MLOAD DUP1 SWAP5 MSTORE PUSH1 0x20 PUSH1 0x60 DUP5 ADD SWAP3 ADD PUSH1 0x0 SWAP5 JUMPDEST DUP1 DUP7 LT PUSH2 0x27CE JUMPI POP POP DUP3 SWAP4 POP PUSH1 0x20 DUP4 ADD MSTORE SUB SWAP1 RETURN JUMPDEST SWAP1 SWAP3 PUSH1 0x20 PUSH1 0x40 DUP3 PUSH2 0x27EF PUSH1 0x1 SWAP5 DUP9 MLOAD PUSH1 0x20 DUP1 SWAP2 PUSH1 0xFF DUP2 MLOAD AND DUP5 MSTORE ADD MLOAD SWAP2 ADD MSTORE JUMP JUMPDEST ADD SWAP5 ADD SWAP6 ADD SWAP5 SWAP1 PUSH2 0x27B9 JUMP JUMPDEST PUSH1 0x20 SWAP1 PUSH1 0x40 MLOAD PUSH2 0x280A DUP2 PUSH2 0x2F06 JUMP JUMPDEST PUSH1 0x0 DUP2 MSTORE PUSH1 0x0 DUP4 DUP3 ADD MSTORE DUP3 DUP3 DUP8 ADD ADD MSTORE ADD PUSH2 0x2736 JUMP JUMPDEST POP SWAP1 POP PUSH2 0x270B JUMP JUMPDEST CALLVALUE PUSH2 0x4E2 JUMPI PUSH1 0x0 CALLDATASIZE PUSH1 0x3 NOT ADD SLT PUSH2 0x4E2 JUMPI PUSH32 0x0 PUSH1 0x1 PUSH1 0x1 PUSH1 0xA0 SHL SUB AND ADDRESS SUB PUSH2 0x2881 JUMPI PUSH1 0x20 PUSH1 0x40 MLOAD PUSH1 0x0 DUP1 MLOAD PUSH1 0x20 PUSH2 0x36CE DUP4 CODECOPY DUP2 MLOAD SWAP2 MSTORE DUP2 MSTORE RETURN JUMPDEST PUSH4 0x703E46DD PUSH1 0xE1 SHL PUSH1 0x0 MSTORE PUSH1 0x4 PUSH1 0x0 REVERT JUMPDEST PUSH1 0x40 CALLDATASIZE PUSH1 0x3 NOT ADD SLT PUSH2 0x4E2 JUMPI PUSH2 0x28A6 PUSH2 0x2E97 JUMP JUMPDEST PUSH1 0x24 CALLDATALOAD SWAP1 PUSH1 0x1 PUSH1 0x1 PUSH1 0x40 SHL SUB DUP3 GT PUSH2 0x4E2 JUMPI CALLDATASIZE PUSH1 0x23 DUP4 ADD SLT ISZERO PUSH2 0x4E2 JUMPI DUP2 PUSH1 0x4 ADD CALLDATALOAD SWAP1 PUSH2 0x28D2 DUP3 PUSH2 0x2F44 JUMP JUMPDEST SWAP2 PUSH2 0x28E0 PUSH1 0x40 MLOAD SWAP4 DUP5 PUSH2 0x2F21 JUMP JUMPDEST DUP1 DUP4 MSTORE PUSH1 0x20 DUP4 ADD SWAP4 CALLDATASIZE PUSH1 0x24 DUP4 DUP4 ADD ADD GT PUSH2 0x4E2 JUMPI DUP2 PUSH1 0x0 SWAP3 PUSH1 0x24 PUSH1 0x20 SWAP4 ADD DUP8 CALLDATACOPY DUP5 ADD ADD MSTORE PUSH1 0x1 PUSH1 0x1 PUSH1 0xA0 SHL SUB PUSH32 0x0 AND ADDRESS DUP2 EQ SWAP1 DUP2 ISZERO PUSH2 0x2AAF JUMPI JUMPDEST POP PUSH2 0x2881 JUMPI PUSH2 0x2946 PUSH2 0x3425 JUMP JUMPDEST PUSH1 0x40 MLOAD PUSH4 0x52D1902D PUSH1 0xE0 SHL DUP2 MSTORE PUSH1 0x1 PUSH1 0x1 PUSH1 0xA0 SHL SUB DUP3 AND SWAP4 SWAP1 PUSH1 0x20 DUP2 PUSH1 0x4 DUP2 DUP9 GAS STATICCALL PUSH1 0x0 SWAP2 DUP2 PUSH2 0x2A7B JUMPI JUMPDEST POP PUSH2 0x298B JUMPI DUP5 PUSH4 0x4C9C8CE3 PUSH1 0xE0 SHL PUSH1 0x0 MSTORE PUSH1 0x4 MSTORE PUSH1 0x24 PUSH1 0x0 REVERT JUMPDEST DUP1 PUSH1 0x0 DUP1 MLOAD PUSH1 0x20 PUSH2 0x36CE DUP4 CODECOPY DUP2 MLOAD SWAP2 MSTORE DUP7 SWAP3 SUB PUSH2 0x2A67 JUMPI POP DUP3 EXTCODESIZE ISZERO PUSH2 0x2A53 JUMPI PUSH1 0x0 DUP1 MLOAD PUSH1 0x20 PUSH2 0x36CE DUP4 CODECOPY DUP2 MLOAD SWAP2 MSTORE DUP1 SLOAD PUSH1 0x1 PUSH1 0x1 PUSH1 0xA0 SHL SUB NOT AND DUP3 OR SWAP1 SSTORE PUSH32 0xBC7CD75A20EE27FD9ADEBAB32041F755214DBC6BFFA90CC0225B39DA2E5C2D3B PUSH1 0x0 DUP1 LOG2 DUP3 MLOAD ISZERO PUSH2 0x2A38 JUMPI PUSH1 0x0 DUP1 SWAP2 PUSH2 0x1B SWAP5 MLOAD SWAP1 DUP5 GAS DELEGATECALL RETURNDATASIZE ISZERO PUSH2 0x2A30 JUMPI RETURNDATASIZE SWAP2 PUSH2 0x2A13 DUP4 PUSH2 0x2F44 JUMP JUMPDEST SWAP3 PUSH2 0x2A21 PUSH1 0x40 MLOAD SWAP5 DUP6 PUSH2 0x2F21 JUMP JUMPDEST DUP4 MSTORE RETURNDATASIZE PUSH1 0x0 PUSH1 0x20 DUP6 ADD RETURNDATACOPY PUSH2 0x364C JUMP JUMPDEST PUSH1 0x60 SWAP2 PUSH2 0x364C JUMP JUMPDEST POP POP POP CALLVALUE PUSH2 0x2A42 JUMPI STOP JUMPDEST PUSH4 0xB398979F PUSH1 0xE0 SHL PUSH1 0x0 MSTORE PUSH1 0x4 PUSH1 0x0 REVERT JUMPDEST PUSH4 0x4C9C8CE3 PUSH1 0xE0 SHL PUSH1 0x0 MSTORE PUSH1 0x4 MSTORE PUSH1 0x24 PUSH1 0x0 REVERT JUMPDEST PUSH4 0x2A875269 PUSH1 0xE2 SHL PUSH1 0x0 MSTORE PUSH1 0x4 MSTORE PUSH1 0x24 PUSH1 0x0 REVERT JUMPDEST SWAP1 SWAP2 POP PUSH1 0x20 DUP2 RETURNDATASIZE PUSH1 0x20 GT PUSH2 0x2AA7 JUMPI JUMPDEST DUP2 PUSH2 0x2A97 PUSH1 0x20 SWAP4 DUP4 PUSH2 0x2F21 JUMP JUMPDEST DUP2 ADD SUB SLT PUSH2 0x4E2 JUMPI MLOAD SWAP1 DUP7 PUSH2 0x2971 JUMP JUMPDEST RETURNDATASIZE SWAP2 POP PUSH2 0x2A8A JUMP JUMPDEST PUSH1 0x0 DUP1 MLOAD PUSH1 0x20 PUSH2 0x36CE DUP4 CODECOPY DUP2 MLOAD SWAP2 MSTORE SLOAD PUSH1 0x1 PUSH1 0x1 PUSH1 0xA0 SHL SUB AND EQ ISZERO SWAP1 POP DUP5 PUSH2 0x2939 JUMP JUMPDEST CALLVALUE PUSH2 0x4E2 JUMPI PUSH1 0x0 CALLDATASIZE PUSH1 0x3 NOT ADD SLT PUSH2 0x4E2 JUMPI PUSH1 0x6 SLOAD PUSH1 0x10 SLOAD PUSH1 0x8 SLOAD PUSH1 0xE SLOAD PUSH1 0xF SLOAD PUSH1 0x40 DUP1 MLOAD PUSH1 0x1 PUSH1 0x1 PUSH1 0xA0 SHL SUB DUP1 DUP9 AND DUP3 MSTORE PUSH1 0xA0 SWAP8 DUP9 SHR PUSH1 0xFF SWAP1 DUP2 AND PUSH1 0x20 DUP5 ADD MSTORE SWAP7 DUP2 AND SWAP3 DUP3 ADD SWAP3 SWAP1 SWAP3 MSTORE SWAP4 SWAP1 SWAP5 AND PUSH1 0x60 DUP5 ADD MSTORE SWAP3 AND PUSH1 0x80 DUP3 ADD MSTORE SWAP2 DUP3 ADD MSTORE PUSH1 0xC0 SWAP1 RETURN JUMPDEST CALLVALUE PUSH2 0x4E2 JUMPI PUSH1 0x20 CALLDATASIZE PUSH1 0x3 NOT ADD SLT PUSH2 0x4E2 JUMPI PUSH1 0x1 PUSH1 0x1 PUSH1 0xA0 SHL SUB PUSH2 0x2B56 PUSH2 0x2E97 JUMP JUMPDEST AND PUSH1 0x0 MSTORE PUSH1 0x14 PUSH1 0x20 MSTORE PUSH1 0x20 PUSH1 0xFF PUSH1 0x40 PUSH1 0x0 KECCAK256 SLOAD AND PUSH1 0x40 MLOAD SWAP1 ISZERO ISZERO DUP2 MSTORE RETURN JUMPDEST CALLVALUE PUSH2 0x4E2 JUMPI PUSH1 0x0 CALLDATASIZE PUSH1 0x3 NOT ADD SLT PUSH2 0x4E2 JUMPI PUSH2 0xACB PUSH2 0xC89 PUSH2 0x2FF7 JUMP JUMPDEST CALLVALUE PUSH2 0x4E2 JUMPI PUSH1 0x20 CALLDATASIZE PUSH1 0x3 NOT ADD SLT PUSH2 0x4E2 JUMPI PUSH2 0x2BA9 PUSH2 0x2E97 JUMP JUMPDEST PUSH1 0x1 DUP1 PUSH1 0xA0 SHL SUB DUP2 AND PUSH1 0x0 MSTORE PUSH1 0x14 PUSH1 0x20 MSTORE PUSH1 0x1 PUSH1 0xFF PUSH1 0x40 PUSH1 0x0 KECCAK256 SLOAD AND ISZERO ISZERO SUB PUSH2 0x2C06 JUMPI PUSH1 0xF SLOAD SWAP1 PUSH8 0xDE0B6B3A7640000 DUP3 MUL SWAP2 DUP1 DUP4 DIV PUSH8 0xDE0B6B3A7640000 EQ SWAP1 ISZERO OR ISZERO PUSH2 0xF19 JUMPI PUSH1 0x20 SWAP2 PUSH2 0x2C00 PUSH2 0x249E SWAP3 PUSH2 0x331E JUMP JUMPDEST SWAP1 PUSH2 0x312B JUMP JUMPDEST PUSH1 0x40 MLOAD PUSH3 0x461BCD PUSH1 0xE5 SHL DUP2 MSTORE PUSH1 0x20 PUSH1 0x4 DUP3 ADD MSTORE PUSH1 0x38 PUSH1 0x24 DUP3 ADD MSTORE PUSH32 0x506C6561736520636865636B2074686520636861696E4C696E6B4F7261636C65 PUSH1 0x44 DUP3 ADD MSTORE PUSH24 0x1059191C995CDCC81BDC881B9BDD081CDD5C1C1BDC9D1959 PUSH1 0x42 SHL PUSH1 0x64 DUP3 ADD MSTORE PUSH1 0x84 SWAP1 REVERT JUMPDEST CALLVALUE PUSH2 0x4E2 JUMPI PUSH1 0x20 CALLDATASIZE PUSH1 0x3 NOT ADD SLT PUSH2 0x4E2 JUMPI PUSH1 0x1 PUSH1 0x1 PUSH1 0xA0 SHL SUB PUSH2 0x2C8D PUSH2 0x2E97 JUMP JUMPDEST AND PUSH1 0x0 MSTORE PUSH1 0x12 PUSH1 0x20 MSTORE PUSH1 0x40 PUSH1 0x0 KECCAK256 PUSH1 0x40 MLOAD SWAP1 PUSH2 0x2CA8 DUP3 PUSH2 0x2EEA JUMP JUMPDEST DUP1 SLOAD PUSH1 0x1 PUSH1 0x1 PUSH1 0xA0 SHL SUB SWAP1 DUP2 AND DUP4 MSTORE PUSH1 0x1 DUP3 ADD SLOAD DUP2 AND PUSH1 0x20 DUP5 ADD MSTORE PUSH1 0x2 DUP3 ADD SLOAD AND PUSH1 0x40 DUP4 ADD MSTORE PUSH2 0x2CDA PUSH1 0x3 DUP3 ADD PUSH2 0x30A0 JUMP JUMPDEST PUSH1 0x60 DUP4 ADD MSTORE PUSH1 0x4 DUP2 ADD DUP1 SLOAD PUSH2 0x2CEE DUP2 PUSH2 0x30F4 JUMP JUMPDEST SWAP2 PUSH2 0x2CFC PUSH1 0x40 MLOAD SWAP4 DUP5 PUSH2 0x2F21 JUMP JUMPDEST DUP2 DUP4 MSTORE PUSH1 0x20 DUP4 ADD SWAP1 PUSH1 0x0 MSTORE PUSH1 0x20 PUSH1 0x0 KECCAK256 PUSH1 0x0 SWAP2 JUMPDEST DUP4 DUP4 LT PUSH2 0x2E21 JUMPI POP POP POP POP PUSH1 0x80 DUP4 ADD MSTORE PUSH1 0x5 DUP2 ADD DUP1 SLOAD PUSH2 0x2D2F DUP2 PUSH2 0x30F4 JUMP JUMPDEST SWAP2 PUSH2 0x2D3D PUSH1 0x40 MLOAD SWAP4 DUP5 PUSH2 0x2F21 JUMP JUMPDEST DUP2 DUP4 MSTORE PUSH1 0x20 DUP4 ADD SWAP1 PUSH1 0x0 MSTORE PUSH1 0x20 PUSH1 0x0 KECCAK256 PUSH1 0x0 SWAP2 JUMPDEST DUP4 DUP4 LT PUSH2 0x2DEB JUMPI POP POP POP POP PUSH1 0xA0 DUP4 ADD MSTORE PUSH1 0x6 DUP2 ADD SLOAD PUSH1 0xC0 DUP4 ADD MSTORE PUSH1 0x7 DUP2 ADD SLOAD PUSH1 0xE0 DUP4 ADD MSTORE PUSH1 0xFF PUSH1 0x8 DUP3 ADD SLOAD AND PUSH2 0x100 DUP4 ADD MSTORE PUSH1 0x9 DUP2 ADD SLOAD PUSH2 0x120 DUP4 ADD MSTORE PUSH1 0xA DUP2 ADD SLOAD PUSH2 0x140 DUP4 ADD MSTORE PUSH2 0xACB PUSH1 0xB DUP3 ADD SLOAD SWAP2 DUP3 PUSH2 0x160 DUP6 ADD MSTORE PUSH1 0xC DUP2 ADD SLOAD SWAP4 DUP5 PUSH2 0x180 DUP3 ADD MSTORE PUSH2 0x1E0 PUSH1 0xF PUSH1 0xD DUP5 ADD SLOAD SWAP4 DUP5 PUSH2 0x1A0 DUP6 ADD MSTORE PUSH1 0xE DUP2 ADD SLOAD PUSH2 0x1C0 DUP6 ADD MSTORE ADD SLOAD SWAP2 ADD MSTORE PUSH2 0xAA7 DUP2 PUSH2 0x2DE6 DUP7 DUP7 PUSH2 0x310B JUMP JUMPDEST PUSH2 0x310B JUMP JUMPDEST PUSH1 0x1 PUSH1 0x20 DUP2 SWAP3 PUSH1 0x40 MLOAD PUSH2 0x2DFD DUP2 PUSH2 0x2F06 JUMP JUMPDEST PUSH1 0xFF DUP7 SLOAD DUP6 DUP1 PUSH1 0xA0 SHL SUB DUP2 AND DUP4 MSTORE PUSH1 0xA0 SHR AND DUP4 DUP3 ADD MSTORE DUP2 MSTORE ADD SWAP3 ADD SWAP3 ADD SWAP2 SWAP1 PUSH2 0x2D51 JUMP JUMPDEST PUSH1 0x2 PUSH1 0x20 PUSH1 0x1 SWAP3 PUSH1 0x40 MLOAD PUSH2 0x2E34 DUP2 PUSH2 0x2F06 JUMP JUMPDEST DUP5 DUP1 PUSH1 0xA0 SHL SUB DUP7 SLOAD AND DUP2 MSTORE DUP5 DUP1 PUSH1 0xA0 SHL SUB DUP6 DUP8 ADD SLOAD AND DUP4 DUP3 ADD MSTORE DUP2 MSTORE ADD SWAP3 ADD SWAP3 ADD SWAP2 SWAP1 PUSH2 0x2D10 JUMP JUMPDEST CALLVALUE PUSH2 0x4E2 JUMPI PUSH1 0x0 CALLDATASIZE PUSH1 0x3 NOT ADD SLT PUSH2 0x4E2 JUMPI PUSH1 0x80 SWAP1 PUSH4 0xFFFFFFFF PUSH1 0x0 SLOAD AND PUSH1 0x2 SLOAD PUSH1 0x3 SLOAD SWAP1 PUSH1 0x5 SLOAD SWAP3 DUP5 MSTORE PUSH1 0x20 DUP5 ADD MSTORE PUSH1 0x40 DUP4 ADD MSTORE PUSH1 0x60 DUP3 ADD MSTORE RETURN JUMPDEST PUSH1 0x4 CALLDATALOAD SWAP1 PUSH1 0x1 PUSH1 0x1 PUSH1 0xA0 SHL SUB DUP3 AND DUP3 SUB PUSH2 0x4E2 JUMPI JUMP JUMPDEST SWAP1 PUSH1 0x20 DUP1 DUP4 MLOAD SWAP3 DUP4 DUP2 MSTORE ADD SWAP3 ADD SWAP1 PUSH1 0x0 JUMPDEST DUP2 DUP2 LT PUSH2 0x2ECB JUMPI POP POP POP SWAP1 JUMP JUMPDEST DUP3 MLOAD PUSH1 0x1 PUSH1 0x1 PUSH1 0xA0 SHL SUB AND DUP5 MSTORE PUSH1 0x20 SWAP4 DUP5 ADD SWAP4 SWAP1 SWAP3 ADD SWAP2 PUSH1 0x1 ADD PUSH2 0x2EBE JUMP JUMPDEST PUSH2 0x200 DUP2 ADD SWAP1 DUP2 LT PUSH1 0x1 PUSH1 0x1 PUSH1 0x40 SHL SUB DUP3 GT OR PUSH2 0x165D JUMPI PUSH1 0x40 MSTORE JUMP JUMPDEST PUSH1 0x40 DUP2 ADD SWAP1 DUP2 LT PUSH1 0x1 PUSH1 0x1 PUSH1 0x40 SHL SUB DUP3 GT OR PUSH2 0x165D JUMPI PUSH1 0x40 MSTORE JUMP JUMPDEST PUSH1 0x1F SWAP1 SWAP2 ADD PUSH1 0x1F NOT AND DUP2 ADD SWAP1 PUSH1 0x1 PUSH1 0x1 PUSH1 0x40 SHL SUB DUP3 GT SWAP1 DUP3 LT OR PUSH2 0x165D JUMPI PUSH1 0x40 MSTORE JUMP JUMPDEST PUSH1 0x1 PUSH1 0x1 PUSH1 0x40 SHL SUB DUP2 GT PUSH2 0x165D JUMPI PUSH1 0x1F ADD PUSH1 0x1F NOT AND PUSH1 0x20 ADD SWAP1 JUMP JUMPDEST SWAP1 PUSH1 0x20 DUP1 DUP4 MLOAD SWAP3 DUP4 DUP2 MSTORE ADD SWAP3 ADD SWAP1 PUSH1 0x0 JUMPDEST DUP2 DUP2 LT PUSH2 0x2F7D JUMPI POP POP POP SWAP1 JUMP JUMPDEST DUP3 MLOAD DUP1 MLOAD PUSH1 0x1 PUSH1 0x1 PUSH1 0xA0 SHL SUB SWAP1 DUP2 AND DUP7 MSTORE PUSH1 0x20 SWAP2 DUP3 ADD MLOAD AND DUP2 DUP7 ADD MSTORE PUSH1 0x40 SWAP1 SWAP5 ADD SWAP4 SWAP1 SWAP3 ADD SWAP2 PUSH1 0x1 ADD PUSH2 0x2F70 JUMP JUMPDEST SWAP1 PUSH1 0x20 DUP1 DUP4 MLOAD SWAP3 DUP4 DUP2 MSTORE ADD SWAP3 ADD SWAP1 PUSH1 0x0 JUMPDEST DUP2 DUP2 LT PUSH2 0x2FC9 JUMPI POP POP POP SWAP1 JUMP JUMPDEST DUP3 MLOAD DUP1 MLOAD PUSH1 0x1 PUSH1 0x1 PUSH1 0xA0 SHL SUB AND DUP6 MSTORE PUSH1 0x20 SWAP1 DUP2 ADD MLOAD PUSH1 0xFF AND DUP2 DUP7 ADD MSTORE PUSH1 0x40 SWAP1 SWAP5 ADD SWAP4 SWAP1 SWAP3 ADD SWAP2 PUSH1 0x1 ADD PUSH2 0x2FBC JUMP JUMPDEST PUSH1 0x40 MLOAD SWAP1 PUSH1 0x11 SLOAD DUP1 DUP4 MSTORE DUP3 PUSH1 0x20 DUP2 ADD PUSH1 0x11 PUSH1 0x0 MSTORE PUSH1 0x20 PUSH1 0x0 KECCAK256 SWAP3 PUSH1 0x0 JUMPDEST DUP2 DUP2 LT PUSH2 0x302B JUMPI POP POP PUSH2 0x3029 SWAP3 POP SUB DUP4 PUSH2 0x2F21 JUMP JUMPDEST JUMP JUMPDEST DUP5 SLOAD PUSH1 0x1 PUSH1 0x1 PUSH1 0xA0 SHL SUB AND DUP4 MSTORE PUSH1 0x1 SWAP5 DUP6 ADD SWAP5 DUP8 SWAP5 POP PUSH1 0x20 SWAP1 SWAP4 ADD SWAP3 ADD PUSH2 0x3014 JUMP JUMPDEST PUSH1 0x40 MLOAD SWAP1 PUSH1 0x0 SLOAD DUP1 DUP4 MSTORE DUP3 PUSH1 0x20 DUP2 ADD PUSH1 0x0 DUP1 MSTORE PUSH1 0x20 PUSH1 0x0 KECCAK256 SWAP3 PUSH1 0x0 JUMPDEST DUP2 DUP2 LT PUSH2 0x307E JUMPI POP POP PUSH2 0x3029 SWAP3 POP SUB DUP4 PUSH2 0x2F21 JUMP JUMPDEST DUP5 SLOAD PUSH1 0x1 PUSH1 0x1 PUSH1 0xA0 SHL SUB AND DUP4 MSTORE PUSH1 0x1 SWAP5 DUP6 ADD SWAP5 DUP8 SWAP5 POP PUSH1 0x20 SWAP1 SWAP4 ADD SWAP3 ADD PUSH2 0x3069 JUMP JUMPDEST SWAP1 PUSH1 0x40 MLOAD SWAP2 DUP3 DUP2 SLOAD SWAP2 DUP3 DUP3 MSTORE PUSH1 0x20 DUP3 ADD SWAP1 PUSH1 0x0 MSTORE PUSH1 0x20 PUSH1 0x0 KECCAK256 SWAP3 PUSH1 0x0 JUMPDEST DUP2 DUP2 LT PUSH2 0x30D2 JUMPI POP POP PUSH2 0x3029 SWAP3 POP SUB DUP4 PUSH2 0x2F21 JUMP JUMPDEST DUP5 SLOAD PUSH1 0x1 PUSH1 0x1 PUSH1 0xA0 SHL SUB AND DUP4 MSTORE PUSH1 0x1 SWAP5 DUP6 ADD SWAP5 DUP8 SWAP5 POP PUSH1 0x20 SWAP1 SWAP4 ADD SWAP3 ADD PUSH2 0x30BD JUMP JUMPDEST PUSH1 0x1 PUSH1 0x1 PUSH1 0x40 SHL SUB DUP2 GT PUSH2 0x165D JUMPI PUSH1 0x5 SHL PUSH1 0x20 ADD SWAP1 JUMP JUMPDEST SWAP2 SWAP1 DUP3 ADD DUP1 SWAP3 GT PUSH2 0xF19 JUMPI JUMP JUMPDEST DUP2 DUP2 MUL SWAP3 SWAP2 DUP2 ISZERO SWAP2 DUP5 DIV EQ OR ISZERO PUSH2 0xF19 JUMPI JUMP JUMPDEST DUP2 ISZERO PUSH2 0x3135 JUMPI DIV SWAP1 JUMP JUMPDEST PUSH4 0x4E487B71 PUSH1 0xE0 SHL PUSH1 0x0 MSTORE PUSH1 0x12 PUSH1 0x4 MSTORE PUSH1 0x24 PUSH1 0x0 REVERT JUMPDEST PUSH1 0x40 MLOAD SWAP1 PUSH2 0x3158 DUP3 PUSH2 0x2F06 JUMP JUMPDEST PUSH1 0x0 PUSH1 0x20 DUP4 DUP3 DUP2 MSTORE ADD MSTORE JUMP JUMPDEST DUP1 MLOAD DUP3 LT ISZERO PUSH2 0x16F5 JUMPI PUSH1 0x20 SWAP2 PUSH1 0x5 SHL ADD ADD SWAP1 JUMP JUMPDEST PUSH1 0x1 SLOAD DUP2 LT ISZERO PUSH2 0x16F5 JUMPI PUSH1 0x1 PUSH1 0x0 MSTORE PUSH1 0x20 PUSH1 0x0 KECCAK256 ADD SWAP1 PUSH1 0x0 SWAP1 JUMP JUMPDEST DUP1 SLOAD DUP3 LT ISZERO PUSH2 0x16F5 JUMPI PUSH1 0x0 MSTORE PUSH1 0x20 PUSH1 0x0 KECCAK256 ADD SWAP1 PUSH1 0x0 SWAP1 JUMP JUMPDEST PUSH1 0x0 SLOAD SWAP1 PUSH1 0x1 PUSH1 0x40 SHL DUP3 LT ISZERO PUSH2 0x165D JUMPI PUSH2 0x2547 DUP3 PUSH1 0x1 PUSH2 0x3029 SWAP5 ADD PUSH1 0x0 SSTORE PUSH1 0x0 PUSH2 0x3193 JUMP JUMPDEST PUSH1 0x1 SLOAD SWAP1 PUSH1 0x1 PUSH1 0x40 SHL DUP3 LT ISZERO PUSH2 0x165D JUMPI PUSH2 0x2547 DUP3 PUSH1 0x1 PUSH2 0x3029 SWAP5 ADD PUSH1 0x1 SSTORE PUSH1 0x1 PUSH2 0x3193 JUMP JUMPDEST DUP1 SLOAD SWAP2 SWAP1 PUSH1 0x1 PUSH1 0x40 SHL DUP4 LT ISZERO PUSH2 0x165D JUMPI DUP3 PUSH2 0x2547 SWAP2 PUSH1 0x1 PUSH2 0x3029 SWAP6 ADD DUP2 SSTORE PUSH2 0x3193 JUMP JUMPDEST PUSH1 0xFF AND PUSH1 0xFF DUP2 EQ PUSH2 0xF19 JUMPI PUSH1 0x1 ADD SWAP1 JUMP JUMPDEST PUSH1 0xFF PUSH1 0x1 SWAP2 AND ADD SWAP1 PUSH1 0xFF DUP3 GT PUSH2 0xF19 JUMPI JUMP JUMPDEST ISZERO PUSH2 0x3242 JUMPI JUMP JUMPDEST PUSH1 0x40 MLOAD PUSH3 0x461BCD PUSH1 0xE5 SHL DUP2 MSTORE PUSH1 0x20 PUSH1 0x4 DUP3 ADD MSTORE PUSH1 0x16 PUSH1 0x24 DUP3 ADD MSTORE PUSH22 0x10DD5C9C995B98DE481B9BDD081CDD5C1C1BDC9D1959 PUSH1 0x52 SHL PUSH1 0x44 DUP3 ADD MSTORE PUSH1 0x64 SWAP1 REVERT JUMPDEST SWAP2 PUSH1 0x60 SWAP4 SWAP2 DUP4 MSTORE PUSH1 0x20 DUP4 ADD MSTORE PUSH1 0x40 DUP3 ADD MSTORE ADD SWAP1 JUMP JUMPDEST DUP2 ISZERO PUSH2 0x3135 JUMPI MOD SWAP1 JUMP JUMPDEST PUSH1 0x1 PUSH1 0x1 PUSH1 0xA0 SHL SUB SWAP1 SWAP2 AND DUP2 MSTORE PUSH1 0x20 DUP2 ADD SWAP2 SWAP1 SWAP2 MSTORE PUSH1 0x40 ADD SWAP1 JUMP JUMPDEST PUSH1 0x1 PUSH1 0x1 PUSH1 0xA0 SHL SUB AND DUP1 ISZERO PUSH2 0x3308 JUMPI PUSH1 0x0 DUP1 MLOAD PUSH1 0x20 PUSH2 0x36AE DUP4 CODECOPY DUP2 MLOAD SWAP2 MSTORE DUP1 SLOAD PUSH1 0x1 PUSH1 0x1 PUSH1 0xA0 SHL SUB NOT DUP2 AND DUP4 OR SWAP1 SWAP2 SSTORE PUSH1 0x1 PUSH1 0x1 PUSH1 0xA0 SHL SUB AND PUSH1 0x0 DUP1 MLOAD PUSH1 0x20 PUSH2 0x370E DUP4 CODECOPY DUP2 MLOAD SWAP2 MSTORE PUSH1 0x0 DUP1 LOG3 JUMP JUMPDEST PUSH4 0x1E4FBDF7 PUSH1 0xE0 SHL PUSH1 0x0 MSTORE PUSH1 0x0 PUSH1 0x4 MSTORE PUSH1 0x24 PUSH1 0x0 REVERT JUMPDEST PUSH1 0x40 MLOAD PUSH4 0x50D25BCD PUSH1 0xE0 SHL DUP2 MSTORE SWAP1 PUSH1 0x1 PUSH1 0x1 PUSH1 0xA0 SHL SUB AND PUSH1 0x20 DUP3 PUSH1 0x4 DUP2 DUP5 GAS STATICCALL SWAP2 DUP3 ISZERO PUSH2 0xE96 JUMPI PUSH1 0x0 SWAP3 PUSH2 0x33F0 JUMPI JUMPDEST POP PUSH1 0x20 PUSH1 0x4 SWAP2 PUSH1 0x40 MLOAD SWAP3 DUP4 DUP1 SWAP3 PUSH4 0x313CE567 PUSH1 0xE0 SHL DUP3 MSTORE GAS STATICCALL SWAP1 DUP2 ISZERO PUSH2 0xE96 JUMPI PUSH1 0x0 SWAP2 PUSH2 0x33AC JUMPI JUMPDEST POP PUSH1 0xFF AND SWAP1 PUSH8 0xDE0B6B3A7640000 SWAP1 DUP2 DUP2 MUL SWAP2 DUP2 DUP4 DIV EQ SWAP1 ISZERO OR ISZERO PUSH2 0xF19 JUMPI PUSH1 0x4D DUP3 GT PUSH2 0xF19 JUMPI PUSH2 0x33A9 SWAP2 PUSH1 0xA EXP SWAP1 PUSH2 0x312B JUMP JUMPDEST SWAP1 JUMP JUMPDEST PUSH1 0x20 DUP2 RETURNDATASIZE PUSH1 0x20 GT PUSH2 0x33E8 JUMPI JUMPDEST DUP2 PUSH2 0x33C5 PUSH1 0x20 SWAP4 DUP4 PUSH2 0x2F21 JUMP JUMPDEST DUP2 ADD SUB SLT PUSH2 0x33E4 JUMPI MLOAD SWAP1 PUSH1 0xFF DUP3 AND DUP3 SUB PUSH2 0x33E1 JUMPI POP PUSH1 0xFF PUSH2 0x3375 JUMP JUMPDEST DUP1 REVERT JUMPDEST POP DUP1 REVERT JUMPDEST RETURNDATASIZE SWAP2 POP PUSH2 0x33B8 JUMP JUMPDEST SWAP1 SWAP2 PUSH1 0x20 DUP3 RETURNDATASIZE PUSH1 0x20 GT PUSH2 0x341D JUMPI JUMPDEST DUP2 PUSH2 0x340B PUSH1 0x20 SWAP4 DUP4 PUSH2 0x2F21 JUMP JUMPDEST DUP2 ADD SUB SLT PUSH2 0x33E1 JUMPI POP MLOAD SWAP1 PUSH1 0x20 PUSH2 0x334D JUMP JUMPDEST RETURNDATASIZE SWAP2 POP PUSH2 0x33FE JUMP JUMPDEST PUSH1 0x0 DUP1 MLOAD PUSH1 0x20 PUSH2 0x36AE DUP4 CODECOPY DUP2 MLOAD SWAP2 MSTORE SLOAD PUSH1 0x1 PUSH1 0x1 PUSH1 0xA0 SHL SUB AND CALLER SUB PUSH2 0x3446 JUMPI JUMP JUMPDEST PUSH4 0x118CDAA7 PUSH1 0xE0 SHL PUSH1 0x0 MSTORE CALLER PUSH1 0x4 MSTORE PUSH1 0x24 PUSH1 0x0 REVERT JUMPDEST PUSH1 0x1 PUSH1 0x1 PUSH1 0xA0 SHL SUB SWAP2 DUP3 AND DUP2 MSTORE SWAP2 AND PUSH1 0x20 DUP3 ADD MSTORE PUSH1 0x40 DUP2 ADD SWAP2 SWAP1 SWAP2 MSTORE PUSH1 0x60 ADD SWAP1 JUMP JUMPDEST PUSH1 0xFF PUSH1 0x0 DUP1 MLOAD PUSH1 0x20 PUSH2 0x374E DUP4 CODECOPY DUP2 MLOAD SWAP2 MSTORE SLOAD PUSH1 0x40 SHR AND ISZERO PUSH2 0x349A JUMPI JUMP JUMPDEST PUSH4 0x1AFCD79F PUSH1 0xE3 SHL PUSH1 0x0 MSTORE PUSH1 0x4 PUSH1 0x0 REVERT JUMPDEST PUSH1 0x1 PUSH1 0x1 PUSH1 0xA0 SHL SUB SWAP2 DUP3 AND DUP2 MSTORE SWAP2 DUP2 AND PUSH1 0x20 DUP4 ADD MSTORE SWAP1 SWAP2 AND PUSH1 0x40 DUP3 ADD MSTORE PUSH1 0x60 ADD SWAP1 JUMP JUMPDEST PUSH1 0x0 SWAP3 SWAP2 DUP1 DUP3 EQ SWAP2 DUP3 ISZERO PUSH2 0x34EB JUMPI JUMPDEST POP POP PUSH2 0x34E5 JUMPI JUMP JUMPDEST PUSH1 0x1 SWAP2 POP JUMP JUMPDEST GT SWAP1 POP CODESIZE DUP1 PUSH2 0x34DD JUMP JUMPDEST PUSH1 0x2 DUP3 ADD DUP1 SLOAD PUSH1 0x1 PUSH1 0x1 PUSH1 0xA0 SHL SUB NOT AND PUSH1 0x1 PUSH1 0x1 PUSH1 0xA0 SHL SUB SWAP3 DUP4 AND SWAP1 DUP2 OR SWAP1 SWAP2 SSTORE SWAP2 SLOAD PUSH1 0x40 DUP1 MLOAD SWAP4 DUP5 MSTORE SWAP2 AND PUSH1 0x20 DUP4 ADD MSTORE PUSH32 0xEC49A3C8C4AE06C18160FE86119C381C9D213AC3E052FF35B594DA8687B193C7 SWAP2 LOG1 JUMP JUMPDEST PUSH1 0xE DUP2 ADD DUP1 SLOAD DUP1 ISZERO PUSH2 0x360A JUMPI PUSH1 0x1 SLOAD PUSH1 0x0 NOT DUP2 ADD SWAP1 DUP2 GT PUSH2 0xF19 JUMPI PUSH2 0x356F SWAP1 PUSH2 0x3178 JUMP JUMPDEST SWAP1 SLOAD PUSH1 0x0 NOT DUP4 ADD SWAP3 PUSH1 0x3 SWAP3 SWAP1 SWAP3 SHL SHR PUSH1 0x1 PUSH1 0x1 PUSH1 0xA0 SHL SUB AND SWAP1 DUP3 GT PUSH2 0xF19 JUMPI PUSH2 0x2547 PUSH2 0x359A SWAP3 PUSH2 0x3178 JUMP JUMPDEST PUSH1 0x1 SLOAD SWAP2 DUP3 ISZERO PUSH2 0x35F4 JUMPI PUSH1 0x0 PUSH1 0x20 SWAP3 PUSH32 0x644B85583BA83E73113FFC0C122B165819CA11DB493CD4CC38F5BA29138FFA1B SWAP5 DUP3 NOT ADD PUSH2 0x35DC PUSH2 0x263A DUP3 PUSH1 0x1 PUSH2 0x3193 JUMP JUMPDEST PUSH1 0x1 SSTORE SSTORE SLOAD PUSH1 0x40 MLOAD PUSH1 0x1 PUSH1 0x1 PUSH1 0xA0 SHL SUB SWAP1 SWAP2 AND DUP2 MSTORE LOG1 JUMP JUMPDEST PUSH4 0x4E487B71 PUSH1 0xE0 SHL PUSH1 0x0 MSTORE PUSH1 0x31 PUSH1 0x4 MSTORE PUSH1 0x24 PUSH1 0x0 REVERT JUMPDEST PUSH1 0x40 MLOAD PUSH3 0x461BCD PUSH1 0xE5 SHL DUP2 MSTORE PUSH1 0x20 PUSH1 0x4 DUP3 ADD MSTORE PUSH1 0x1A PUSH1 0x24 DUP3 ADD MSTORE PUSH26 0x155CD95C881A5CC81B9BDD081A5B881C985B991BDB481B1A5CDD PUSH1 0x32 SHL PUSH1 0x44 DUP3 ADD MSTORE PUSH1 0x64 SWAP1 REVERT JUMPDEST SWAP1 PUSH2 0x3672 JUMPI POP DUP1 MLOAD ISZERO PUSH2 0x3661 JUMPI DUP1 MLOAD SWAP1 PUSH1 0x20 ADD REVERT JUMPDEST PUSH4 0xD6BDA275 PUSH1 0xE0 SHL PUSH1 0x0 MSTORE PUSH1 0x4 PUSH1 0x0 REVERT JUMPDEST DUP2 MLOAD ISZERO DUP1 PUSH2 0x36A4 JUMPI JUMPDEST PUSH2 0x3683 JUMPI POP SWAP1 JUMP JUMPDEST PUSH4 0x9996B315 PUSH1 0xE0 SHL PUSH1 0x0 SWAP1 DUP2 MSTORE PUSH1 0x1 PUSH1 0x1 PUSH1 0xA0 SHL SUB SWAP2 SWAP1 SWAP2 AND PUSH1 0x4 MSTORE PUSH1 0x24 SWAP1 REVERT JUMPDEST POP DUP1 EXTCODESIZE ISZERO PUSH2 0x367B JUMP INVALID SWAP1 AND 0xD0 SWAP14 PUSH19 0xD40FDAE2FD8CEAC6B6234C7706214FD39C1CD1 0xE6 MULMOD LOG0 MSTORE DUP13 NOT SWAP4 STOP CALLDATASIZE ADDMOD SWAP5 LOG1 EXTCODESIZE LOG1 LOG3 0x21 MOD PUSH8 0xC828492DB98DCA3E KECCAK256 PUSH23 0xCC3735A920A3CA505D382BBCE85B607D57B04668B1D2CA DELEGATECALL 0x29 BLOBHASH SUB DUP15 0xCE DUP8 DUP10 0xF7 SWAP1 PUSH20 0x95F968F702964C717BA88BE0079C531659141344 0xCD 0x1F 0xD0 LOG4 CALLCODE DUP5 NOT BLOBHASH PUSH32 0x9722A3DAAFE3B4186F6B6457E0B37800F632235E56E1626C9E9DF3DE1E167E92 SWAP9 CREATE 0xD2 PUSH0 MSIZE REVERT PUSH21 0xEC65E3111652F0C57E16840DF040F15088DC2F81FE CODECOPY SHR CODECOPY 0x23 0xBE 0xC7 RETURNDATACOPY 0x23 0xA9 PUSH7 0x2EFC9C229C6A00 LOG1 PUSH5 0x736F6C6343 STOP ADDMOD BYTE STOP EXP "},"methodIdentifiers":{"UPGRADE_INTERFACE_VERSION()":"ad3cb1cc","checkIfChainLinkOracleAddressSupporeted(address)":"11f4d576","distributeWeeklyReward(address)":"d277b8a9","getAllUsers()":"e2842d79","getContractDefaults()":"1a746344","getNativePriceInUSD(address)":"6a746311","getRandomUserList()":"7ec37e03","getRegistrationsStats()":"0690c6a8","getSupportedChainLinkOracleAddress()":"08e922ba","getUpgradePlans()":"59a04544","getUpgradePlansById(uint8)":"a9df9fae","getUserAccount(address)":"fb47e016","getUserBusiness(address)":"f87127b4","getUserCurrentUpgradeLevel(address)":"f9250171","getUserRewards(address)":"078b0fb7","getUserTeam(address)":"faeda7e5","getWeeklyRewardToBeDistributed()":"846688f7","initialize()":"8129fc1c","needNativeToRegister(address)":"07c560d1","owner()":"8da5cb5b","proxiableUUID()":"52d1902d","registrationNative(address,address)":"c53b219e","renounceOwnership()":"715018a6","setChainLinkOracleAddress(address,bool)":"5eda81ce","setDefaultReferrer(address)":"dcf6e819","transferOwnership(address)":"f2fde38b","updateUpgradePlans(uint256[])":"e35422e7","upgradeAccountNative(address)":"a0db38e5","upgradeToAndCall(address,bytes)":"4f1ef286"}},"storageLayout":{"storage":[{"astId":1599,"contract":"contracts/RegistrationUpgradeable.sol:RegistrationUpgradeable","label":"_users","offset":0,"slot":"0","type":"t_array(t_address)dyn_storage"},{"astId":1602,"contract":"contracts/RegistrationUpgradeable.sol:RegistrationUpgradeable","label":"_randomUserList","offset":0,"slot":"1","type":"t_array(t_address)dyn_storage"},{"astId":1604,"contract":"contracts/RegistrationUpgradeable.sol:RegistrationUpgradeable","label":"_totalRegistrationValueInUSD","offset":0,"slot":"2","type":"t_uint256"},{"astId":1606,"contract":"contracts/RegistrationUpgradeable.sol:RegistrationUpgradeable","label":"_referralPaidInUSD","offset":0,"slot":"3","type":"t_uint256"},{"astId":1608,"contract":"contracts/RegistrationUpgradeable.sol:RegistrationUpgradeable","label":"_randomRewardsPaidInUSD","offset":0,"slot":"4","type":"t_uint256"},{"astId":1610,"contract":"contracts/RegistrationUpgradeable.sol:RegistrationUpgradeable","label":"_weeklyRewardsPaidInUSD","offset":0,"slot":"5","type":"t_uint256"},{"astId":1612,"contract":"contracts/RegistrationUpgradeable.sol:RegistrationUpgradeable","label":"_teamWallet","offset":0,"slot":"6","type":"t_address"},{"astId":1614,"contract":"contracts/RegistrationUpgradeable.sol:RegistrationUpgradeable","label":"_teamWalletRate","offset":20,"slot":"6","type":"t_uint8"},{"astId":1616,"contract":"contracts/RegistrationUpgradeable.sol:RegistrationUpgradeable","label":"_valueToCreateLiquidityInWei","offset":0,"slot":"7","type":"t_uint256"},{"astId":1618,"contract":"contracts/RegistrationUpgradeable.sol:RegistrationUpgradeable","label":"_liquidityCreateRate","offset":0,"slot":"8","type":"t_uint8"},{"astId":1620,"contract":"contracts/RegistrationUpgradeable.sol:RegistrationUpgradeable","label":"_weeklyRewardValueInWei","offset":0,"slot":"9","type":"t_uint256"},{"astId":1622,"contract":"contracts/RegistrationUpgradeable.sol:RegistrationUpgradeable","label":"_weeklyRewardRate","offset":0,"slot":"10","type":"t_uint8"},{"astId":1624,"contract":"contracts/RegistrationUpgradeable.sol:RegistrationUpgradeable","label":"_weeklyRewardTimestamp","offset":0,"slot":"11","type":"t_uint256"},{"astId":1626,"contract":"contracts/RegistrationUpgradeable.sol:RegistrationUpgradeable","label":"_levelRatesFixed","offset":0,"slot":"12","type":"t_uint8"},{"astId":1628,"contract":"contracts/RegistrationUpgradeable.sol:RegistrationUpgradeable","label":"_levelsToCount","offset":1,"slot":"12","type":"t_uint8"},{"astId":1630,"contract":"contracts/RegistrationUpgradeable.sol:RegistrationUpgradeable","label":"_refereeLimit","offset":0,"slot":"13","type":"t_uint256"},{"astId":1632,"contract":"contracts/RegistrationUpgradeable.sol:RegistrationUpgradeable","label":"_defaultReferrer","offset":0,"slot":"14","type":"t_address"},{"astId":1634,"contract":"contracts/RegistrationUpgradeable.sol:RegistrationUpgradeable","label":"_registrationValueInUSD","offset":0,"slot":"15","type":"t_uint256"},{"astId":1636,"contract":"contracts/RegistrationUpgradeable.sol:RegistrationUpgradeable","label":"_liquidityWallet","offset":0,"slot":"16","type":"t_address"},{"astId":1639,"contract":"contracts/RegistrationUpgradeable.sol:RegistrationUpgradeable","label":"_supportedChainLinkOracleAddress","offset":0,"slot":"17","type":"t_array(t_address)dyn_storage"},{"astId":1644,"contract":"contracts/RegistrationUpgradeable.sol:RegistrationUpgradeable","label":"_mappingAccounts","offset":0,"slot":"18","type":"t_mapping(t_address,t_struct(AccountStruct)1590_storage)"},{"astId":1649,"contract":"contracts/RegistrationUpgradeable.sol:RegistrationUpgradeable","label":"_mappingUpgrade","offset":0,"slot":"19","type":"t_mapping(t_uint8,t_struct(UpgradeStruct)1542_storage)"},{"astId":1653,"contract":"contracts/RegistrationUpgradeable.sol:RegistrationUpgradeable","label":"_mappingOracle","offset":0,"slot":"20","type":"t_mapping(t_address,t_bool)"}],"types":{"t_address":{"encoding":"inplace","label":"address","numberOfBytes":"20"},"t_array(t_address)dyn_storage":{"base":"t_address","encoding":"dynamic_array","label":"address[]","numberOfBytes":"32"},"t_array(t_struct(RefereeStruct)1547_storage)dyn_storage":{"base":"t_struct(RefereeStruct)1547_storage","encoding":"dynamic_array","label":"struct RefereeStruct[]","numberOfBytes":"32"},"t_array(t_struct(TeamStruct)1552_storage)dyn_storage":{"base":"t_struct(TeamStruct)1552_storage","encoding":"dynamic_array","label":"struct TeamStruct[]","numberOfBytes":"32"},"t_bool":{"encoding":"inplace","label":"bool","numberOfBytes":"1"},"t_mapping(t_address,t_bool)":{"encoding":"mapping","key":"t_address","label":"mapping(address => bool)","numberOfBytes":"32","value":"t_bool"},"t_mapping(t_address,t_struct(AccountStruct)1590_storage)":{"encoding":"mapping","key":"t_address","label":"mapping(address => struct AccountStruct)","numberOfBytes":"32","value":"t_struct(AccountStruct)1590_storage"},"t_mapping(t_uint8,t_struct(UpgradeStruct)1542_storage)":{"encoding":"mapping","key":"t_uint8","label":"mapping(uint8 => struct UpgradeStruct)","numberOfBytes":"32","value":"t_struct(UpgradeStruct)1542_storage"},"t_struct(AccountStruct)1590_storage":{"encoding":"inplace","label":"struct AccountStruct","members":[{"astId":1554,"contract":"contracts/RegistrationUpgradeable.sol:RegistrationUpgradeable","label":"self","offset":0,"slot":"0","type":"t_address"},{"astId":1556,"contract":"contracts/RegistrationUpgradeable.sol:RegistrationUpgradeable","label":"parent","offset":0,"slot":"1","type":"t_address"},{"astId":1558,"contract":"contracts/RegistrationUpgradeable.sol:RegistrationUpgradeable","label":"referrer","offset":0,"slot":"2","type":"t_address"},{"astId":1561,"contract":"contracts/RegistrationUpgradeable.sol:RegistrationUpgradeable","label":"referee","offset":0,"slot":"3","type":"t_array(t_address)dyn_storage"},{"astId":1565,"contract":"contracts/RegistrationUpgradeable.sol:RegistrationUpgradeable","label":"refereeAssigned","offset":0,"slot":"4","type":"t_array(t_struct(RefereeStruct)1547_storage)dyn_storage"},{"astId":1569,"contract":"contracts/RegistrationUpgradeable.sol:RegistrationUpgradeable","label":"team","offset":0,"slot":"5","type":"t_array(t_struct(TeamStruct)1552_storage)dyn_storage"},{"astId":1571,"contract":"contracts/RegistrationUpgradeable.sol:RegistrationUpgradeable","label":"selfBusinessInUSD","offset":0,"slot":"6","type":"t_uint256"},{"astId":1573,"contract":"contracts/RegistrationUpgradeable.sol:RegistrationUpgradeable","label":"upgradedValueInUSD","offset":0,"slot":"7","type":"t_uint256"},{"astId":1575,"contract":"contracts/RegistrationUpgradeable.sol:RegistrationUpgradeable","label":"upgradeId","offset":0,"slot":"8","type":"t_uint8"},{"astId":1577,"contract":"contracts/RegistrationUpgradeable.sol:RegistrationUpgradeable","label":"directBusinessInUSD","offset":0,"slot":"9","type":"t_uint256"},{"astId":1579,"contract":"contracts/RegistrationUpgradeable.sol:RegistrationUpgradeable","label":"teamBusinessInUSD","offset":0,"slot":"10","type":"t_uint256"},{"astId":1581,"contract":"contracts/RegistrationUpgradeable.sol:RegistrationUpgradeable","label":"referralRewardsInUSD","offset":0,"slot":"11","type":"t_uint256"},{"astId":1583,"contract":"contracts/RegistrationUpgradeable.sol:RegistrationUpgradeable","label":"weeklyRewardsInUSD","offset":0,"slot":"12","type":"t_uint256"},{"astId":1585,"contract":"contracts/RegistrationUpgradeable.sol:RegistrationUpgradeable","label":"upgradeRewardsInUSD","offset":0,"slot":"13","type":"t_uint256"},{"astId":1587,"contract":"contracts/RegistrationUpgradeable.sol:RegistrationUpgradeable","label":"userRandomIndex","offset":0,"slot":"14","type":"t_uint256"},{"astId":1589,"contract":"contracts/RegistrationUpgradeable.sol:RegistrationUpgradeable","label":"timestampJoined","offset":0,"slot":"15","type":"t_uint256"}],"numberOfBytes":"512"},"t_struct(RefereeStruct)1547_storage":{"encoding":"inplace","label":"struct RefereeStruct","members":[{"astId":1544,"contract":"contracts/RegistrationUpgradeable.sol:RegistrationUpgradeable","label":"referee","offset":0,"slot":"0","type":"t_address"},{"astId":1546,"contract":"contracts/RegistrationUpgradeable.sol:RegistrationUpgradeable","label":"assignedTo","offset":0,"slot":"1","type":"t_address"}],"numberOfBytes":"64"},"t_struct(TeamStruct)1552_storage":{"encoding":"inplace","label":"struct TeamStruct","members":[{"astId":1549,"contract":"contracts/RegistrationUpgradeable.sol:RegistrationUpgradeable","label":"teamMember","offset":0,"slot":"0","type":"t_address"},{"astId":1551,"contract":"contracts/RegistrationUpgradeable.sol:RegistrationUpgradeable","label":"level","offset":20,"slot":"0","type":"t_uint8"}],"numberOfBytes":"32"},"t_struct(UpgradeStruct)1542_storage":{"encoding":"inplace","label":"struct UpgradeStruct","members":[{"astId":1539,"contract":"contracts/RegistrationUpgradeable.sol:RegistrationUpgradeable","label":"id","offset":0,"slot":"0","type":"t_uint8"},{"astId":1541,"contract":"contracts/RegistrationUpgradeable.sol:RegistrationUpgradeable","label":"valueToUpgradeInUSD","offset":0,"slot":"1","type":"t_uint256"}],"numberOfBytes":"64"},"t_uint256":{"encoding":"inplace","label":"uint256","numberOfBytes":"32"},"t_uint8":{"encoding":"inplace","label":"uint8","numberOfBytes":"1"}}}}}}