{"contracts/RegistrationUpgradeable.sol":{"RegistrationUpgradeable":{"abi":[{"inputs":[{"internalType":"address","name":"target","type":"address"}],"name":"AddressEmptyCode","type":"error"},{"inputs":[{"internalType":"address","name":"implementation","type":"address"}],"name":"ERC1967InvalidImplementation","type":"error"},{"inputs":[],"name":"ERC1967NonPayable","type":"error"},{"inputs":[],"name":"FailedCall","type":"error"},{"inputs":[],"name":"InvalidInitialization","type":"error"},{"inputs":[],"name":"NotInitializing","type":"error"},{"inputs":[{"internalType":"address","name":"owner","type":"address"}],"name":"OwnableInvalidOwner","type":"error"},{"inputs":[{"internalType":"address","name":"account","type":"address"}],"name":"OwnableUnauthorizedAccount","type":"error"},{"inputs":[],"name":"UUPSUnauthorizedCallContext","type":"error"},{"inputs":[{"internalType":"bytes32","name":"slot","type":"bytes32"}],"name":"UUPSUnsupportedProxiableUUID","type":"error"},{"anonymous":false,"inputs":[{"indexed":false,"internalType":"address","name":"user","type":"address"}],"name":"AddedToRandomList","type":"event"},{"anonymous":false,"inputs":[{"indexed":false,"internalType":"address","name":"defaultReferrer","type":"address"}],"name":"DefaultReferrerUpdated","type":"event"},{"anonymous":false,"inputs":[{"indexed":false,"internalType":"uint64","name":"version","type":"uint64"}],"name":"Initialized","type":"event"},{"anonymous":false,"inputs":[{"indexed":true,"internalType":"address","name":"previousOwner","type":"address"},{"indexed":true,"internalType":"address","name":"newOwner","type":"address"}],"name":"OwnershipTransferred","type":"event"},{"anonymous":false,"inputs":[{"indexed":false,"internalType":"address","name":"by","type":"address"},{"indexed":false,"internalType":"address","name":"to","type":"address"},{"indexed":false,"internalType":"address","name":"user","type":"address"}],"name":"ParentAdded","type":"event"},{"anonymous":false,"inputs":[{"indexed":false,"internalType":"address","name":"to","type":"address"},{"indexed":false,"internalType":"address","name":"user","type":"address"},{"indexed":false,"internalType":"uint256","name":"valueInWei","type":"uint256"},{"indexed":false,"internalType":"uint32","name":"level","type":"uint32"}],"name":"ReferralRewardsPaid","type":"event"},{"anonymous":false,"inputs":[{"indexed":false,"internalType":"address","name":"by","type":"address"},{"indexed":false,"internalType":"address","name":"user","type":"address"}],"name":"ReferrerAdded","type":"event"},{"anonymous":false,"inputs":[{"indexed":false,"internalType":"string","name":"reason","type":"string"}],"name":"ReferrerNoAdded","type":"event"},{"anonymous":false,"inputs":[{"indexed":false,"internalType":"address","name":"by","type":"address"},{"indexed":false,"internalType":"address","name":"to","type":"address"},{"indexed":false,"internalType":"address","name":"user","type":"address"},{"indexed":false,"internalType":"uint256","name":"valueInWei","type":"uint256"}],"name":"Registration","type":"event"},{"anonymous":false,"inputs":[{"indexed":false,"internalType":"address","name":"by","type":"address"},{"indexed":false,"internalType":"address","name":"to","type":"address"},{"indexed":false,"internalType":"address","name":"user","type":"address"}],"name":"RegistrationAssigned","type":"event"},{"anonymous":false,"inputs":[{"indexed":false,"internalType":"address","name":"user","type":"address"}],"name":"RemovedFromRandomList","type":"event"},{"anonymous":false,"inputs":[{"indexed":false,"internalType":"address","name":"to","type":"address"},{"indexed":false,"internalType":"address","name":"user","type":"address"},{"indexed":false,"internalType":"uint32","name":"level","type":"uint32"}],"name":"TeamAddressAdded","type":"event"},{"anonymous":false,"inputs":[{"indexed":false,"internalType":"address","name":"to","type":"address"},{"indexed":false,"internalType":"uint256","name":"valueInWei","type":"uint256"}],"name":"TeamWalletRewardPaid","type":"event"},{"anonymous":false,"inputs":[{"indexed":false,"internalType":"string","name":"reason","type":"string"}],"name":"UpgradeRewardNotPaid","type":"event"},{"anonymous":false,"inputs":[{"indexed":false,"internalType":"address","name":"to","type":"address"},{"indexed":false,"internalType":"address","name":"by","type":"address"},{"indexed":false,"internalType":"uint256","name":"valueInWei","type":"uint256"}],"name":"UpgradeRewardPaid","type":"event"},{"anonymous":false,"inputs":[{"indexed":true,"internalType":"address","name":"implementation","type":"address"}],"name":"Upgraded","type":"event"},{"anonymous":false,"inputs":[{"indexed":false,"internalType":"string","name":"reason","type":"string"}],"name":"WeeklyRewardNotPaid","type":"event"},{"anonymous":false,"inputs":[{"indexed":false,"internalType":"address","name":"to","type":"address"},{"indexed":false,"internalType":"uint256","name":"valueInWei","type":"uint256"}],"name":"WeeklyRewardPaid","type":"event"},{"inputs":[],"name":"UPGRADE_INTERFACE_VERSION","outputs":[{"internalType":"string","name":"","type":"string"}],"stateMutability":"view","type":"function"},{"inputs":[{"internalType":"address","name":"_chainLinkOracleAddress","type":"address"}],"name":"checkIfChainLinkOracleAddressSupporeted","outputs":[{"internalType":"bool","name":"","type":"bool"}],"stateMutability":"view","type":"function"},{"inputs":[{"internalType":"address","name":"_chainLinkOracleAddress","type":"address"}],"name":"distributeWeeklyReward","outputs":[],"stateMutability":"nonpayable","type":"function"},{"inputs":[],"name":"getAllUsers","outputs":[{"internalType":"address[]","name":"","type":"address[]"}],"stateMutability":"view","type":"function"},{"inputs":[],"name":"getContractDefaults","outputs":[{"internalType":"address","name":"teamWallet","type":"address"},{"internalType":"uint256","name":"teamWalletRate","type":"uint256"},{"internalType":"address","name":"liquidityWallet","type":"address"},{"internalType":"uint256","name":"liquidityCreationrate","type":"uint256"},{"internalType":"address","name":"defaultReferrer","type":"address"},{"internalType":"uint256","name":"registrationValueInUSD","type":"uint256"}],"stateMutability":"view","type":"function"},{"inputs":[{"internalType":"address","name":"_chainLinkOracleAddress","type":"address"}],"name":"getNativePriceInUSD","outputs":[{"internalType":"uint256","name":"","type":"uint256"}],"stateMutability":"view","type":"function"},{"inputs":[],"name":"getRandomUserList","outputs":[{"internalType":"address[]","name":"","type":"address[]"}],"stateMutability":"view","type":"function"},{"inputs":[],"name":"getRegistrationsStats","outputs":[{"internalType":"uint32","name":"totalUser","type":"uint32"},{"internalType":"uint256","name":"totalRegistrationValueInUSD","type":"uint256"},{"internalType":"uint256","name":"totalReferralPaidInUSD","type":"uint256"},{"internalType":"uint256","name":"totalWeeklyRewardsPaidInUSD","type":"uint256"}],"stateMutability":"view","type":"function"},{"inputs":[],"name":"getSupportedChainLinkOracleAddress","outputs":[{"internalType":"address[]","name":"","type":"address[]"}],"stateMutability":"view","type":"function"},{"inputs":[],"name":"getUpgradePlans","outputs":[{"components":[{"internalType":"uint8","name":"id","type":"uint8"},{"internalType":"uint256","name":"valueToUpgradeInUSD","type":"uint256"}],"internalType":"struct UpgradeStruct[]","name":"upgradePlans","type":"tuple[]"},{"internalType":"uint8","name":"upgradePlansCount","type":"uint8"}],"stateMutability":"view","type":"function"},{"inputs":[{"internalType":"uint8","name":"_id","type":"uint8"}],"name":"getUpgradePlansById","outputs":[{"components":[{"internalType":"uint8","name":"id","type":"uint8"},{"internalType":"uint256","name":"valueToUpgradeInUSD","type":"uint256"}],"internalType":"struct UpgradeStruct","name":"","type":"tuple"}],"stateMutability":"view","type":"function"},{"inputs":[{"internalType":"address","name":"_userAddress","type":"address"}],"name":"getUserAccount","outputs":[{"components":[{"internalType":"address","name":"self","type":"address"},{"internalType":"address","name":"parent","type":"address"},{"internalType":"address","name":"referrer","type":"address"},{"internalType":"address[]","name":"referee","type":"address[]"},{"components":[{"internalType":"address","name":"referee","type":"address"},{"internalType":"address","name":"assignedTo","type":"address"}],"internalType":"struct RefereeStruct[]","name":"refereeAssigned","type":"tuple[]"},{"components":[{"internalType":"address","name":"teamMember","type":"address"},{"internalType":"uint8","name":"level","type":"uint8"}],"internalType":"struct TeamStruct[]","name":"team","type":"tuple[]"},{"internalType":"uint256","name":"selfBusinessInUSD","type":"uint256"},{"internalType":"uint256","name":"upgradedValueInUSD","type":"uint256"},{"internalType":"uint8","name":"upgradeId","type":"uint8"},{"internalType":"uint256","name":"directBusinessInUSD","type":"uint256"},{"internalType":"uint256","name":"teamBusinessInUSD","type":"uint256"},{"internalType":"uint256","name":"referralRewardsInUSD","type":"uint256"},{"internalType":"uint256","name":"weeklyRewardsInUSD","type":"uint256"},{"internalType":"uint256","name":"upgradeRewardsInUSD","type":"uint256"},{"internalType":"uint256","name":"userRandomIndex","type":"uint256"},{"internalType":"uint256","name":"timestampJoined","type":"uint256"}],"internalType":"struct AccountStruct","name":"","type":"tuple"}],"stateMutability":"view","type":"function"},{"inputs":[{"internalType":"address","name":"_userAddress","type":"address"}],"name":"getUserBusiness","outputs":[{"internalType":"uint256","name":"selfBusinessInUSD","type":"uint256"},{"internalType":"uint256","name":"directBusinessInUSD","type":"uint256"},{"internalType":"uint256","name":"teamBusinessInUSD","type":"uint256"},{"internalType":"uint256","name":"totalBusinessInUSD","type":"uint256"}],"stateMutability":"view","type":"function"},{"inputs":[{"internalType":"address","name":"_userAddress","type":"address"}],"name":"getUserCurrentUpgradeLevel","outputs":[{"internalType":"uint8","name":"level","type":"uint8"},{"internalType":"uint256","name":"totalUpgradeValueInUSD","type":"uint256"}],"stateMutability":"view","type":"function"},{"inputs":[{"internalType":"address","name":"_userAddress","type":"address"}],"name":"getUserRewards","outputs":[{"internalType":"uint256","name":"referralRewardInUSD","type":"uint256"},{"internalType":"uint256","name":"weeklyRewardInUSD","type":"uint256"},{"internalType":"uint256","name":"upgradeRewardsInUSD","type":"uint256"},{"internalType":"uint256","name":"totalRewards","type":"uint256"}],"stateMutability":"view","type":"function"},{"inputs":[{"internalType":"address","name":"_userAddress","type":"address"}],"name":"getUserTeam","outputs":[{"internalType":"address","name":"referrer","type":"address"},{"internalType":"address[]","name":"referees","type":"address[]"},{"internalType":"uint256","name":"refereeCount","type":"uint256"},{"components":[{"internalType":"address","name":"referee","type":"address"},{"internalType":"address","name":"assignedTo","type":"address"}],"internalType":"struct RefereeStruct[]","name":"refereeAssigned","type":"tuple[]"},{"internalType":"uint256","name":"refereeAssignedCount","type":"uint256"},{"components":[{"internalType":"address","name":"teamMember","type":"address"},{"internalType":"uint8","name":"level","type":"uint8"}],"internalType":"struct TeamStruct[]","name":"team","type":"tuple[]"},{"internalType":"uint256","name":"teamCount","type":"uint256"}],"stateMutability":"view","type":"function"},{"inputs":[],"name":"getWeeklyRewardToBeDistributed","outputs":[{"internalType":"uint256","name":"_rewardValue","type":"uint256"},{"internalType":"uint256","name":"_remianingTime","type":"uint256"},{"internalType":"uint256","name":"_endTime","type":"uint256"}],"stateMutability":"view","type":"function"},{"inputs":[],"name":"initialize","outputs":[],"stateMutability":"nonpayable","type":"function"},{"inputs":[{"internalType":"address","name":"_chainLinkOracleAddress","type":"address"}],"name":"needNativeToRegister","outputs":[{"internalType":"uint256","name":"","type":"uint256"}],"stateMutability":"view","type":"function"},{"inputs":[],"name":"owner","outputs":[{"internalType":"address","name":"","type":"address"}],"stateMutability":"view","type":"function"},{"inputs":[],"name":"proxiableUUID","outputs":[{"internalType":"bytes32","name":"","type":"bytes32"}],"stateMutability":"view","type":"function"},{"inputs":[{"internalType":"address","name":"userAddress_","type":"address"},{"internalType":"address","name":"_referrer","type":"address"},{"internalType":"address","name":"_chainLinkOracleAddress","type":"address"}],"name":"registrationAnyNative","outputs":[],"stateMutability":"payable","type":"function"},{"inputs":[{"internalType":"address","name":"_referrer","type":"address"},{"internalType":"address","name":"_chainLinkOracleAddress","type":"address"}],"name":"registrationNative","outputs":[],"stateMutability":"payable","type":"function"},{"inputs":[],"name":"renounceOwnership","outputs":[],"stateMutability":"nonpayable","type":"function"},{"inputs":[{"internalType":"address","name":"_chainLinkOracleAddress","type":"address"},{"internalType":"bool","name":"_status","type":"bool"}],"name":"setChainLinkOracleAddress","outputs":[],"stateMutability":"nonpayable","type":"function"},{"inputs":[{"internalType":"address","name":"defaultReferrer_","type":"address"}],"name":"setDefaultReferrer","outputs":[],"stateMutability":"nonpayable","type":"function"},{"inputs":[{"internalType":"address","name":"newOwner","type":"address"}],"name":"transferOwnership","outputs":[],"stateMutability":"nonpayable","type":"function"},{"inputs":[{"internalType":"uint256[]","name":"_valueToUpgradeInDecimals","type":"uint256[]"}],"name":"updateUpgradePlans","outputs":[],"stateMutability":"nonpayable","type":"function"},{"inputs":[{"internalType":"address","name":"_chainLinkOracleAddress","type":"address"}],"name":"upgradeAccountNative","outputs":[],"stateMutability":"payable","type":"function"},{"inputs":[{"internalType":"address","name":"newImplementation","type":"address"},{"internalType":"bytes","name":"data","type":"bytes"}],"name":"upgradeToAndCall","outputs":[],"stateMutability":"payable","type":"function"},{"stateMutability":"payable","type":"receive"}],"evm":{"bytecode":{"linkReferences":{},"object":"60a08060405234602957306080526138b9908161002f8239608051818181611f250152611ff80152f35b600080fdfe608080604052600436101561001d575b50361561001b57600080fd5b005b60003560e01c9081630690c6a81461254657508063078b0fb71461235657806307c560d11461227a57806308e922ba1461225e57806311f4d5761461221f5780631a746344146121bc5780634f1ef28614611f7c57806352d1902d14611f1257806359a0454414611da55780635eda81ce14611b905780636a74631114611b6a578063715018a614611b125780637ec37e0314611aaf5780638129fc1c146115b3578063846688f7146115525780638da5cb5b1461151c578063a0db38e5146111aa578063a4fb1b3414611128578063a9df9fae146110bb578063ad3cb1cc1461103f578063c53b219e14610fbe578063d277b8a914610d91578063dcf6e81914610ca8578063e2842d7914610c78578063e35422e714610b74578063f2fde38b14610b4b578063f87127b41461093c578063f92501711461073e578063faeda7e5146104f25763fb47e01614610174573861000f565b346104ed5760203660031901126104ed5761018d612581565b60006101e060405161019e816125ea565b82815282602082015282604082015260608082015260606080820152606060a08201528260c08201528260e08201528261010082015282610120820152826101408201528261016082015282610180820152826101a0820152826101c0820152015260018060a01b031660005260126020526040600020604051610221816125ea565b81546001600160a01b03908116825260018301548116602083019081526002840154909116604083019081529092909161025d600383016127a0565b60608201908152600483018054610273816127f4565b916102816040519384612621565b818352602083019060005260206000206000915b8383106104b2575050505060808301908152600584019182546102b7816127f4565b936102c56040519586612621565b818552602085019060005260206000206000915b83831061047c575050505060a08401928352600685015460c0850152600785015460e08501908152600886015460ff166101008601526009860154610120860152600a860154610140860152600b860154610160860152600c860154610180860152600d8601546101a0860152600e8601546101c0860152600f909501546101e085015260408051602080825286516001600160a01b039081168284015299518a16928201929092529651909716606087015251610200608087015280516102208701819052610240870197919091019060005b81811061045d575050506101e092916103d786976103ea9351601f198983030160a08a015261265f565b9051868203601f190160c08801526126ab565b9260c082015160e08601525161010085015260ff610100820151166101208501526101208101516101408501526101408101516101608501526101608101516101808501526101808101516101a08501526101a08101516101c08501526101c08101518285015201516102008301520390f35b82516001600160a01b03168952602098890198909201916001016103ad565b60016020819260405161048e81612606565b60ff8654858060a01b038116835260a01c16838201528152019201920191906102d9565b600260206001926040516104c581612606565b848060a01b038654168152848060a01b03858701541683820152815201920192019190610295565b600080fd5b346104ed5760203660031901126104ed576001600160a01b03610513612581565b16600052601260205260406000206040519061052e826125ea565b80546001600160a01b0390811683526001820154811660208401526002820154166040830190815290610563600382016127a0565b91606084019283526004820193845461057b816127f4565b956105896040519788612621565b818752602087019060005260206000206000915b838310610703575050505060808101948552600583019283546105bf816127f4565b946105cd6040519687612621565b818652602086019060005260206000206000915b8383106106cd5750505050906101e0600f6106c394938660a0850152600681015460c0850152600781015460e085015260ff6008820154166101008501526009810154610120850152600a810154610140850152600b810154610160850152600c810154610180850152600d8101546101a0850152600e8101546101c0850152015491015260018060a01b0390511692519384519051926106b084519282519561069d604051998a998a5260e060208b015260e08a01906125ad565b916040890152878203606089015261265f565b91608086015284820360a08601526126ab565b9060c08301520390f35b6001602081926040516106df81612606565b60ff8654858060a01b038116835260a01c16838201528152019201920191906105e1565b6002602060019260405161071681612606565b848060a01b038654168152848060a01b0385870154168382015281520192019201919061059d565b346104ed5760203660031901126104ed57610757612581565b6001600160a01b0316600090815260126020526040808220905190919061077d816125ea565b82546001600160a01b03908116825260018401548116602083015260028401541660408201526107af600384016127a0565b60608201526004830180546107c3816127f4565b916107d16040519384612621565b818352602083019060005260206000206000915b8383106109015750505050608082015260058301928354610805816127f4565b906108136040519283612621565b80825260208201956000526020600020956000905b8282106108cb575050506040945060a0830152600681015460c08301526007810154918260e08201526101e0600f60ff60088501541693846101008501526009810154610120850152600a810154610140850152600b810154610160850152600c810154610180850152600d8101546101a0850152600e8101546101c08501520154910152806108c3575b5060ff8351921682526020820152f35b9150836108b3565b6001602081926040516108dd81612606565b60ff8c54858060a01b038116835260a01c1683820152815201980191019096610828565b6002602060019260405161091481612606565b848060a01b038654168152848060a01b038587015416838201528152019201920191906107e5565b346104ed5760203660031901126104ed576001600160a01b0361095d612581565b166000526012602052604060002060405190610978826125ea565b80546001600160a01b03908116835260018201548116602084015260028201541660408301526109aa600382016127a0565b60608301526004810180546109be816127f4565b916109cc6040519384612621565b818352602083019060005260206000206000915b838310610b10575050505060808301526005810180546109ff816127f4565b91610a0d6040519384612621565b818352602083019060005260206000206000915b838310610ada575050505060a0830152610ad66006820154918260c0850152600781015460e085015260ff600882015416610100850152600981015493846101208201526101e0600f600a8401549384610140850152600b810154610160850152600c810154610180850152600d8101546101a0850152600e8101546101c08501520154910152610ab2838261280b565b90604051948594859094939260609260808301968352602083015260408201520152565b0390f35b600160208192604051610aec81612606565b60ff8654858060a01b038116835260a01c1683820152815201920192019190610a21565b60026020600192604051610b2381612606565b848060a01b038654168152848060a01b038587015416838201528152019201920191906109e0565b346104ed5760203660031901126104ed5761001b610b67612581565b610b6f612beb565b612a80565b346104ed5760203660031901126104ed576004356001600160401b0381116104ed57366023820112156104ed5760048101356001600160401b0381116104ed573660248260051b840101116104ed5790610bcc612beb565b6000915b60ff8316928184101561001b57610be68161293f565b6000946024611fe08460051b168601013590670de0b6b3a7640000820291808304670de0b6b3a76400001490151715610c64579060ff806040610c5d97989960019583835198610c358a612606565b1688526020880195865281526013602052209451161660ff198454161783555191015561292e565b9190610bd0565b634e487b7160e01b87526011600452602487fd5b346104ed5760003660031901126104ed57610ad6610c9461274d565b6040519182916020835260208301906125ad565b346104ed5760203660031901126104ed5760008051602061382d8339815191526020610cd2612581565b610cda612beb565b6001600160a01b03818116600081815260128552604090208054919392600e921615610d73575b60068101805415610d60575b50600f8101805415610d57575b500190815415610d42575b5050600e80546001600160a01b03191682179055604051908152a1005b610d4b906128e6565b60015490558380610d25565b42905586610d1a565b69152d02c7e14af6800000905586610d0d565b80546001600160a01b03191684178155610d8c836128c1565b610d01565b346104ed5760203660031901126104ed57610daa612581565b6001600160a01b038116600090815260146020526040902054610dd49060ff161515600114612951565b670de0b6b3a7640000610df2610dec60095493612ae4565b83612818565b04600b5462093a80810110610f68578115610f7e57610e0f61274d565b6000194301438111610f6857610e6490604051610e4581610e37602082019440444287612a46565b03601f198101835282612621565b51902082516001600160a01b039391610e5e9190612a5b565b90612864565b5116918215610ef1576000808080938682526012602052600c6040832001610e8d87825461280b565b90558682f115610ee5577f6dbdd944bdf6514aca26947d204530e2ecbea365677ef05fee7a56d54a14569791600060095542600b55610ece8260055461280b565b600555610ee060405192839283612a65565b0390a1005b6040513d6000823e3d90fd5b5050507f974c744afa915921dddb0f53fdbfdd97fef12a94db2457dcf878aa94ad687274608060405160208152603160208201527f52616e646f6d206164647265737320776173207a65726f20616464726573732e60408201527010283632b0b9b2903a393c9030b3b0b4b760791b6060820152a1005b634e487b7160e01b600052601160045260246000fd5b60405162461bcd60e51b81526020600482015260186024820152774e6f207265776172647320746f206469737472696275746560401b6044820152606490fd5b60403660031901126104ed5761001b610fd5612581565b670de0b6b3a764000061103561102f610fec612597565b6110006001600160a01b0386161515612996565b6001600160a01b03811660009081526014602052604090205461102a9060ff1615156001146129ee565b612ae4565b34612818565b0434913390612c43565b346104ed5760003660031901126104ed57604080519061105f8183612621565b60058252640352e302e360dc1b6020830152805180926020825280519081602084015260005b8281106110a45750506000828201840152601f01601f19168101030190f35b602082820181015187830187015286945001611085565b346104ed5760203660031901126104ed5760043560ff81168091036104ed576110e261284b565b50600052601360205260408060002060018251916110ff83612606565b60ff815416835201546020820152611126825180926020809160ff81511684520151910152565bf35b60603660031901126104ed5761113c612581565b611144612597565b604435916001600160a01b0383168084036104ed5761001b93670de0b6b3a7640000916111a19161102f916111836001600160a01b0388161515612996565b600052601460205261102a600160ff604060002054161515146129ee565b04903492612c43565b60203660031901126104ed57670de0b6b3a76400006111f761102f6111cd612581565b6001600160a01b03811660009081526014602052604090205461102a9060ff161515600114612951565b0433600052601260205260406000206008810160ff815416600052601360205260406000209060016040519261122c84612606565b60ff815416845201546020830190808252156114d7578051605f810290808204605f1490151715610f68576064900485119081156114b7575b50156114635760ff8080936007860161127f88825461280b565b9055511616821982541617815554169160009260001981019260ff8085119416905b828611156112ab57005b600201546001600160a01b0316600090815260126020526040902084610f68578186146112e557946000198114610f6857600101946112a1565b80955060ff929394506008915001541690808211918215611459575b505080611446575b156113765761131d600d830191825461280b565b9055600080808060018060a01b038554168190341561136c575b3491f115610ee5575460405160008051602061386d833981519152918190610ee090349033906001600160a01b031684612c21565b6108fc9150611337565b50507f6696b78fc1713892e6e2bb3df5cdc986ab67a0c675898c7ef535bd2201ca9451608060405160208152603f60208201527f55706c696e6520686173206e6f742075706772616465642e20416d6f756e742060408201527f7472616e73666572656420746f206c69717569646974792077616c6c65742e006060820152a16010546001600160a01b03166000341561143d575b600080808093853491f115610ee557610ee060008051602061386d833981519152916040519182913490339084612c21565b506108fc61140b565b5081546001600160a01b03161515611309565b1490508380611301565b60405162461bcd60e51b815260206004820152602660248201527f56616c75652073686f756c6420626520657175616c20746f20757067726164656044820152652076616c756560d01b6064820152608490fd5b51606980820292508115918304141715610f685760649004841085611265565b60405162461bcd60e51b815260206004820152601d60248201527f596f75206861766520757067726164656420616c6c206c6576656c732e0000006044820152606490fd5b346104ed5760003660031901126104ed576000805160206137ed833981519152546040516001600160a01b039091168152602090f35b346104ed5760003660031901126104ed576000600954600b549162093a80830192838111610f6857428411611599575b509160609260405192835260208301526040820152f35b62093a8091504290030191808311610f6857916060611582565b346104ed5760003660031901126104ed5760008051602061388d83398151915254604081901c60ff1615906001600160401b03811680159081611aa7575b6001149081611a9d575b159081611a94575b50611a83576001600160401b0319811660011760008051602061388d8339815191525581611a5a575b5073cef5767039fa6a66016b802546f123e0c3ddedc260005260126020527f7b58f54f0bc0fcd57e50c233f450fe384adf8c88021dbbeef24b87de22945c148054600e91906001600160a01b031615611a26575b60068101805415611a13575b50600f8101805415611a0a575b50018054156119e2575b5073cef5767039fa6a66016b802546f123e0c3ddedc260018060a01b0319600e541617600e5560008051602061382d833981519152602060405173cef5767039fa6a66016b802546f123e0c3ddedc28152a1601154600160401b8110156119cc57806001611716920160115560116128a9565b81546001600160a01b0360039290921b91821b1916730567f2323251f0aab15c8dfb1967e4e8a7d42aee90911b179055601154600160401b8110156119cc57806001611767920160115560116128a9565b81546001600160a01b0360039290921b91821b1916739c85f470f9ba23dfc4fe9531933c2ce2c1739c399182901b1790915560146020527f18b399276171edd4288c75706c059c76f8ba27a208f6ab7dc13ddac4a813eb06805460ff1990811660019081179092556000929092527f785e316b530d6f09805cf52ec6944c1fd91d7cf1ffa292231399b4110cc5ca9d80548316909117905568015af1d78b58c40000600f55600c805461ffff191661083c1790556002600d55600680546001600160a81b0319167414554f58fcfcef95f82c8cf6ed9e51e5c79e341481179055601080546001600160a01b031916733d7263afa42c9d47c13cfcdcdc72a131077e56181781556008805483169091179055600a8054909116600417905542600b5560405160e081016001600160401b038111828210176119cc576040526801158e460913d0000081526801a055690d9db8000060208201526802b5e3af16b188000060408201526809c2007651b250000060608201526815af1d78b58c400000608082015268281d901f4fdd10000060a0820152684fb0591b9b3038000060c082015260005b60ff81169060078210156119505761194b91600161192a8361293f565b9160ff8060406000611fe08860051b168a01519483835198610c358a612606565b61190d565b836119596135bc565b6119616135bc565b61196a33612a80565b6119726135bc565b61197857005b60ff60401b1960008051602061388d833981519152541660008051602061388d833981519152557fc7f505b2f371ae2175ee4913f4499e1f2633a7b5936321eed1cdaeb6115181d2602060405160018152a1005b634e487b7160e01b600052604160045260246000fd5b6119ff73cef5767039fa6a66016b802546f123e0c3ddedc26128e6565b6001549055816116a3565b42905583611699565b69152d02c7e14af680000090558361168c565b80546001600160a01b03191673cef5767039fa6a66016b802546f123e0c3ddedc29081178255611a55906128c1565b611680565b6001600160481b0319166001600160401b011760008051602061388d833981519152558161162c565b63f92ee8a960e01b60005260046000fd5b90501583611603565b303b1591506115fb565b8391506115f1565b346104ed5760003660031901126104ed576040516001548082526020820190600160005260206000209060005b818110611af357610ad685610c9481870382612621565b82546001600160a01b0316845260209093019260019283019201611adc565b346104ed5760003660031901126104ed57611b2b612beb565b6000805160206137ed83398151915280546001600160a01b031981169091556000906001600160a01b031660008051602061384d8339815191528280a3005b346104ed5760203660031901126104ed576020611b8861102a612581565b604051908152f35b346104ed5760403660031901126104ed57611ba9612581565b6024358015158091036104ed57611bbe612beb565b6001600160a01b03821660008181526014602052604090205490919060ff1615158114611d6b57600190826000526014602052604060002060ff1981541660ff831617905514600014611c55575060115490600160401b8210156119cc57611c3182600161001b940160115560116128a9565b9080546001600160a01b0360039390931b83811b199091169290931690921b179055565b9050611c5f6126f7565b805160005b818110611c6d57005b836001600160a01b03611c808386612864565b511614611c90575b600101611c64565b6000198201828111610f68576001600160a01b0390611caf9085612864565b51166000601154831015611d57576011908190527f31ecc21a745e3968a04e9570e4425bc18fa8019c68028196b546d1669c200c68830180546001600160a01b0319166001600160a01b03909316929092179091555460008115611d4357506001919060001901611d39611d248260116128a9565b81549060018060a01b039060031b1b19169055565b6011559050611c88565b634e487b7160e01b81526031600452602490fd5b634e487b7160e01b81526032600452602490fd5b60405162461bcd60e51b815260206004820152601260248201527114dd185d1d5cc8185b1c9958591e481cd95d60721b6044820152606490fd5b346104ed5760003660031901126104ed5760ff6000805b8282166032811015611f0a576000526013602052826040600020541615611df2576001611de9849261292e565b92011690611dbc565b90505b16611dff816127f4565b90611e0d6040519283612621565b808252601f19611e1c826127f4565b0160005b818110611ee557505060005b60ff811682811015611e835760ff91611e7b82600193600052601360205260406000208460405191611e5d83612606565b87815416835201546020820152611e748289612864565b5286612864565b500116611e2c565b828460405190604082019260408352815180945260206060840192016000945b808610611eb857505082935060208301520390f35b90926020604082611ed960019488516020809160ff81511684520151910152565b01940195019490611ea3565b602090604051611ef481612606565b6000815260008382015282828701015201611e20565b509050611df5565b346104ed5760003660031901126104ed577f00000000000000000000000000000000000000000000000000000000000000006001600160a01b03163003611f6b57602060405160008051602061380d8339815191528152f35b63703e46dd60e11b60005260046000fd5b60403660031901126104ed57611f90612581565b602435906001600160401b0382116104ed57366023830112156104ed57816004013590611fbc82612644565b91611fca6040519384612621565b808352602083019336602483830101116104ed57816000926024602093018737840101526001600160a01b037f000000000000000000000000000000000000000000000000000000000000000016308114908115612199575b50611f6b57612030612beb565b6040516352d1902d60e01b81526001600160a01b0382169390602081600481885afa60009181612165575b506120755784634c9c8ce360e01b60005260045260246000fd5b8060008051602061380d8339815191528692036121515750823b1561213d5760008051602061380d83398151915280546001600160a01b031916821790557fbc7cd75a20ee27fd9adebab32041f755214dbc6bffa90cc0225b39da2e5c2d3b600080a2825115612122576000809161001b945190845af43d1561211a573d916120fd83612644565b9261210b6040519485612621565b83523d6000602085013e61378b565b60609161378b565b5050503461212c57005b63b398979f60e01b60005260046000fd5b634c9c8ce360e01b60005260045260246000fd5b632a87526960e21b60005260045260246000fd5b9091506020813d602011612191575b8161218160209383612621565b810103126104ed5751908661205b565b3d9150612174565b60008051602061380d833981519152546001600160a01b03161415905084612023565b346104ed5760003660031901126104ed57600654601054600854600e54600f54604080516001600160a01b03808816825260a097881c60ff908116602084015296811692820192909252939094166060840152921660808201529182015260c090f35b346104ed5760203660031901126104ed576001600160a01b03612240612581565b166000526014602052602060ff604060002054166040519015158152f35b346104ed5760003660031901126104ed57610ad6610c946126f7565b346104ed5760203660031901126104ed57612293612581565b60018060a01b0381166000526014602052600160ff604060002054161515036122f057600f5490670de0b6b3a7640000820291808304670de0b6b3a76400001490151715610f68576020916122ea611b8892612ae4565b9061282b565b60405162461bcd60e51b815260206004820152603860248201527f506c6561736520636865636b2074686520636861696e4c696e6b4f7261636c656044820152771059191c995cdcc81bdc881b9bdd081cdd5c1c1bdc9d195960421b6064820152608490fd5b346104ed5760203660031901126104ed576001600160a01b03612377612581565b166000526012602052604060002060405190612392826125ea565b80546001600160a01b03908116835260018201548116602084015260028201541660408301526123c4600382016127a0565b60608301526004810180546123d8816127f4565b916123e66040519384612621565b818352602083019060005260206000206000915b83831061250b57505050506080830152600581018054612419816127f4565b916124276040519384612621565b818352602083019060005260206000206000915b8383106124d5575050505060a0830152600681015460c0830152600781015460e083015260ff6008820154166101008301526009810154610120830152600a810154610140830152610ad6600b8201549182610160850152600c81015493846101808201526101e0600f600d84015493846101a0850152600e8101546101c08501520154910152610ab2816124d0868661280b565b61280b565b6001602081926040516124e781612606565b60ff8654858060a01b038116835260a01c168382015281520192019201919061243b565b6002602060019260405161251e81612606565b848060a01b038654168152848060a01b038587015416838201528152019201920191906123fa565b346104ed5760003660031901126104ed5760809063ffffffff6000541660025460035490600554928452602084015260408301526060820152f35b600435906001600160a01b03821682036104ed57565b602435906001600160a01b03821682036104ed57565b906020808351928381520192019060005b8181106125cb5750505090565b82516001600160a01b03168452602093840193909201916001016125be565b61020081019081106001600160401b038211176119cc57604052565b604081019081106001600160401b038211176119cc57604052565b601f909101601f19168101906001600160401b038211908210176119cc57604052565b6001600160401b0381116119cc57601f01601f191660200190565b906020808351928381520192019060005b81811061267d5750505090565b825180516001600160a01b039081168652602091820151168186015260409094019390920191600101612670565b906020808351928381520192019060005b8181106126c95750505090565b825180516001600160a01b0316855260209081015160ff1681860152604090940193909201916001016126bc565b604051906011548083528260208101601160005260206000209260005b81811061272b57505061272992500383612621565b565b84546001600160a01b0316835260019485019487945060209093019201612714565b6040519060005480835282602081016000805260206000209260005b81811061277e57505061272992500383612621565b84546001600160a01b0316835260019485019487945060209093019201612769565b906040519182815491828252602082019060005260206000209260005b8181106127d257505061272992500383612621565b84546001600160a01b03168352600194850194879450602090930192016127bd565b6001600160401b0381116119cc5760051b60200190565b91908201809211610f6857565b81810292918115918404141715610f6857565b8115612835570490565b634e487b7160e01b600052601260045260246000fd5b6040519061285882612606565b60006020838281520152565b80518210156128785760209160051b010190565b634e487b7160e01b600052603260045260246000fd5b60015481101561287857600160005260206000200190600090565b80548210156128785760005260206000200190600090565b60005490600160401b8210156119cc57611c31826001612729940160005560006128a9565b60015490600160401b8210156119cc57611c31826001612729940160015560016128a9565b80549190600160401b8310156119cc5782611c31916001612729950181556128a9565b60ff1660ff8114610f685760010190565b60ff60019116019060ff8211610f6857565b1561295857565b60405162461bcd60e51b815260206004820152601660248201527510dd5c9c995b98de481b9bdd081cdd5c1c1bdc9d195960521b6044820152606490fd5b1561299d57565b60405162461bcd60e51b815260206004820152602360248201527f5a65726f20416464726573732063616e6e6f74206265207468652072656665726044820152623932b960e91b6064820152608490fd5b156129f557565b60405162461bcd60e51b815260206004820152602360248201527f43757272656e637920596f752073656c6563746564206e6f7420737570706f726044820152621d195960ea1b6064820152608490fd5b91606093918352602083015260408201520190565b8115612835570690565b6001600160a01b039091168152602081019190915260400190565b6001600160a01b03168015612ace576000805160206137ed83398151915280546001600160a01b0319811683179091556001600160a01b031660008051602061384d833981519152600080a3565b631e4fbdf760e01b600052600060045260246000fd5b6040516350d25bcd60e01b8152906001600160a01b0316602082600481845afa918215610ee557600092612bb6575b5060206004916040519283809263313ce56760e01b82525afa908115610ee557600091612b72575b5060ff1690670de0b6b3a764000090818102918183041490151715610f6857604d8211610f6857612b6f91600a0a9061282b565b90565b6020813d602011612bae575b81612b8b60209383612621565b81010312612baa57519060ff82168203612ba7575060ff612b3b565b80fd5b5080fd5b3d9150612b7e565b90916020823d602011612be3575b81612bd160209383612621565b81010312612ba7575051906020612b13565b3d9150612bc4565b6000805160206137ed833981519152546001600160a01b03163303612c0c57565b63118cdaa760e01b6000523360045260246000fd5b6001600160a01b03918216815291166020820152604081019190915260600190565b600f54606181029080820460611490151715610f685760649004831061356857600c5460ff8082169160081c169260018060a01b0381169182600052601260205260406000209460018060a01b038516806000526012602052604060002060068801968754613529576006820154156134ee5788546001600160a01b0316156134d0575b81546001600160a01b0316156134af575b5050600d546002880180549095906001600160a01b031661344e5786600052601260205260406000209287811461340c576000816133fb575050600e546001600160a01b03166000908152601260205260409020915b60038301612d3d82825461360d565b156133c25750600e8301546000906133ba575b6133ac575b6000194301438111610f6857612d8c612d9191604051612d8081610e37602082019440444287612a46565b51902060015490612a5b565b61288e565b90546001600160a01b0360039290921b1c81166000908152601260205260409020805490929116801561336c5785612dc891613634565b835482546040516001600160a01b0391821693927fa1b30426557565c4fa85ce5f9c88513d7d3f49d21eb30569c249b07b037831ef928291612e0f918991889116846135ea565b0390a160405160048601612e2282612606565b8b825260208201938452805493600160401b8510156119cc576001850180835585101561287857600091825260209091209151600194851b90920180546001600160a01b039384166001600160a01b031991821617825591519401805494909216931692909217909155612ea49060038301612e9e858261290b565b5461360d565b61335d575b505b6001830180546001600160a01b0316156132f6575b5050506000905b8260ff8316106131b2575b5050505b600e8501805461316d578554612ef4906001600160a01b03166128e6565b60015490557f0411c58b3c1e8a39d91c901e5c807bff1401650beedc45aba65112756bb929b4608060018060a01b038754167f06baf10092c7ea144c4fb56fb8cf641e1f00e291a535b5d54b547eadb29485a76020604051838152a160018801549454604080516001600160a01b0397881680825297909216602083015281019190915260608101899052a16064612f9881612f90848b612818565b049288612818565b0491600052601260205260406000209160018060a01b03835416806130ce575b505050505060065460008080806064612fd760ff8760a01c168b612818565b048095829082156130c4575b6001600160a01b031690f115610ee5576006546040517f5aa75bdb3269082e844d731608afae2a07cbf194f251e3f857b870af86b754fb9290918291613032916001600160a01b031683612a65565b0390a1606461304660ff6008541686612818565b0460008080808460018060a01b03601054168282156130bb575bf115610ee5576130b6946130ab936064936130806130a29460075461280b565b60075561308e87825461280b565b9055600f4291015560ff600a541690612818565b0460095461280b565b60095560025461280b565b600255565b506108fc613060565b6108fc9150612fe3565b60008080858194828215613164575bf115610ee5577f153f77382d7e07de734977ae352e9b1f5f8ad4b1c0033c883a9a33456a87836f60806009956131499460018060a01b03875416916040519283526020830152604082015260016060820152a1600b830161313f82825461280b565b905560035461280b565b6003550161315884825461280b565b90553880808080612fb8565b506108fc6130dd565b60405162461bcd60e51b815260206004820152601e60248201527f5573657220697320616c726561647920696e2072616e646f6d206c69737400006044820152606490fd5b60028101546001600160a01b03169081156132f057546001600160a01b031681146132eb576000526012602052604060002060058101906131f28361293f565b604051926131ff84612606565b88845260ff60208501921682528054600160401b8110156119cc57613229916001820181556128a9565b9190916132d5579251815493516001600160a81b03199094166001600160a01b03919091161760a09390931b60ff60a01b1692909217909155600a810180546132cf929190613279908c9061280b565b905580547f85db3f10b88ea7fc653f3f818097a3fc3c543196ed60cad2251df922bcc9ad7f906060906001600160a01b031660ff6132b68761293f565b6040519283528b6020840152166040820152a19161292e565b90612ec7565b634e487b7160e01b600052600060045260246000fd5b612ed2565b50612ed2565b915482546001600160a01b0319166001600160a01b0391821690811790935560028401546040517f8efa008f8ae98ae30d3219078a298c85bc25a62f50c57ed9a3ec838b7eed9f479490938493613352939192911690846135ea565b0390a1388080612ec0565b6133669061368a565b38612ea9565b60405162461bcd60e51b8152602060048201526018602482015277139bc81c985b991bdb481c9959995c9c995c88199bdd5b9960421b6044820152606490fd5b6133b58361368a565b612d55565b506001612d50565b83546133e89291906133de9087906001600160a01b0316613634565b612e9e848261290b565b15612eab576133f68261368a565b612eab565b604091815260126020522091612d2e565b60405162461bcd60e51b815260206004820152601a6024820152792cb7ba9031b0b73737ba103932b332b9103cb7bab939b2b6331760311b6044820152606490fd5b505050507f1f4fff38c5e64af9e759d590409f022ea913658008bb1d0cd35e028244f01ecf606060405160208152601f60208201527f5573657220416c72656164792068617665207265666572726572207365742e006040820152a1612ed6565b81546001600160a01b03191683179091556134c9906128c1565b3880612cd8565b88546001600160a01b031916871789556134e9866128c1565b612cc7565b60405162461bcd60e51b81526020600482015260136024820152725265666572726572204e6f742041637469766560681b6044820152606490fd5b60405162461bcd60e51b8152602060048201526017602482015276155cd95c88185b1c9958591e481c9959da5cdd195c9959604a1b6044820152606490fd5b60405162461bcd60e51b815260206004820152602660248201527f56616c7565206973206c657373207468656e20726567697374726174696f6e206044820152653b30b63ab29760d11b6064820152608490fd5b60ff60008051602061388d8339815191525460401c16156135d957565b631afcd79f60e31b60005260046000fd5b6001600160a01b0391821681529181166020830152909116604082015260600190565b6000929180821491821561362a575b505061362457565b60019150565b119050388061361c565b6002820180546001600160a01b0319166001600160a01b03928316908117909155915460408051938452911660208301527fec49a3c8c4ae06c18160fe86119c381c9d213ac3e052ff35b594da8687b193c791a1565b600e810180548015613749576001546000198101908111610f68576136ae9061288e565b905460001983019260039290921b1c6001600160a01b0316908211610f6857611c316136d99261288e565b6001549182156137335760006020927f644b85583ba83e73113ffc0c122b165819ca11db493cd4cc38f5ba29138ffa1b9482190161371b611d248260016128a9565b60015555546040516001600160a01b039091168152a1565b634e487b7160e01b600052603160045260246000fd5b60405162461bcd60e51b815260206004820152601a602482015279155cd95c881a5cc81b9bdd081a5b881c985b991bdb481b1a5cdd60321b6044820152606490fd5b906137b157508051156137a057805190602001fd5b63d6bda27560e01b60005260046000fd5b815115806137e3575b6137c2575090565b639996b31560e01b60009081526001600160a01b0391909116600452602490fd5b50803b156137ba56fe9016d09d72d40fdae2fd8ceac6b6234c7706214fd39c1cd1e609a0528c199300360894a13ba1a3210667c828492db98dca3e2076cc3735a920a3ca505d382bbce85b607d57b04668b1d2caf42949038ece8789f7907395f968f702964c717ba88be0079c531659141344cd1fd0a4f28419497f9722a3daafe3b4186f6b6457e0b37800f632235e56e1626c9e9df3de1e167e9298f0d25f59fd74ec65e3111652f0c57e16840df040f15088dc2f81fe391c3923bec73e23a9662efc9c229c6a00a164736f6c634300081a000a","opcodes":"PUSH1 0xA0 DUP1 PUSH1 0x40 MSTORE CALLVALUE PUSH1 0x29 JUMPI ADDRESS PUSH1 0x80 MSTORE PUSH2 0x38B9 SWAP1 DUP2 PUSH2 0x2F DUP3 CODECOPY PUSH1 0x80 MLOAD DUP2 DUP2 DUP2 PUSH2 0x1F25 ADD MSTORE PUSH2 0x1FF8 ADD MSTORE RETURN JUMPDEST PUSH1 0x0 DUP1 REVERT INVALID PUSH1 0x80 DUP1 PUSH1 0x40 MSTORE PUSH1 0x4 CALLDATASIZE LT ISZERO PUSH2 0x1D JUMPI JUMPDEST POP CALLDATASIZE ISZERO PUSH2 0x1B JUMPI PUSH1 0x0 DUP1 REVERT JUMPDEST STOP JUMPDEST PUSH1 0x0 CALLDATALOAD PUSH1 0xE0 SHR SWAP1 DUP2 PUSH4 0x690C6A8 EQ PUSH2 0x2546 JUMPI POP DUP1 PUSH4 0x78B0FB7 EQ PUSH2 0x2356 JUMPI DUP1 PUSH4 0x7C560D1 EQ PUSH2 0x227A JUMPI DUP1 PUSH4 0x8E922BA EQ PUSH2 0x225E JUMPI DUP1 PUSH4 0x11F4D576 EQ PUSH2 0x221F JUMPI DUP1 PUSH4 0x1A746344 EQ PUSH2 0x21BC JUMPI DUP1 PUSH4 0x4F1EF286 EQ PUSH2 0x1F7C JUMPI DUP1 PUSH4 0x52D1902D EQ PUSH2 0x1F12 JUMPI DUP1 PUSH4 0x59A04544 EQ PUSH2 0x1DA5 JUMPI DUP1 PUSH4 0x5EDA81CE EQ PUSH2 0x1B90 JUMPI DUP1 PUSH4 0x6A746311 EQ PUSH2 0x1B6A JUMPI DUP1 PUSH4 0x715018A6 EQ PUSH2 0x1B12 JUMPI DUP1 PUSH4 0x7EC37E03 EQ PUSH2 0x1AAF JUMPI DUP1 PUSH4 0x8129FC1C EQ PUSH2 0x15B3 JUMPI DUP1 PUSH4 0x846688F7 EQ PUSH2 0x1552 JUMPI DUP1 PUSH4 0x8DA5CB5B EQ PUSH2 0x151C JUMPI DUP1 PUSH4 0xA0DB38E5 EQ PUSH2 0x11AA JUMPI DUP1 PUSH4 0xA4FB1B34 EQ PUSH2 0x1128 JUMPI DUP1 PUSH4 0xA9DF9FAE EQ PUSH2 0x10BB JUMPI DUP1 PUSH4 0xAD3CB1CC EQ PUSH2 0x103F JUMPI DUP1 PUSH4 0xC53B219E EQ PUSH2 0xFBE JUMPI DUP1 PUSH4 0xD277B8A9 EQ PUSH2 0xD91 JUMPI DUP1 PUSH4 0xDCF6E819 EQ PUSH2 0xCA8 JUMPI DUP1 PUSH4 0xE2842D79 EQ PUSH2 0xC78 JUMPI DUP1 PUSH4 0xE35422E7 EQ PUSH2 0xB74 JUMPI DUP1 PUSH4 0xF2FDE38B EQ PUSH2 0xB4B JUMPI DUP1 PUSH4 0xF87127B4 EQ PUSH2 0x93C JUMPI DUP1 PUSH4 0xF9250171 EQ PUSH2 0x73E JUMPI DUP1 PUSH4 0xFAEDA7E5 EQ PUSH2 0x4F2 JUMPI PUSH4 0xFB47E016 EQ PUSH2 0x174 JUMPI CODESIZE PUSH2 0xF JUMP JUMPDEST CALLVALUE PUSH2 0x4ED JUMPI PUSH1 0x20 CALLDATASIZE PUSH1 0x3 NOT ADD SLT PUSH2 0x4ED JUMPI PUSH2 0x18D PUSH2 0x2581 JUMP JUMPDEST PUSH1 0x0 PUSH2 0x1E0 PUSH1 0x40 MLOAD PUSH2 0x19E DUP2 PUSH2 0x25EA JUMP JUMPDEST DUP3 DUP2 MSTORE DUP3 PUSH1 0x20 DUP3 ADD MSTORE DUP3 PUSH1 0x40 DUP3 ADD MSTORE PUSH1 0x60 DUP1 DUP3 ADD MSTORE PUSH1 0x60 PUSH1 0x80 DUP3 ADD MSTORE PUSH1 0x60 PUSH1 0xA0 DUP3 ADD MSTORE DUP3 PUSH1 0xC0 DUP3 ADD MSTORE DUP3 PUSH1 0xE0 DUP3 ADD MSTORE DUP3 PUSH2 0x100 DUP3 ADD MSTORE DUP3 PUSH2 0x120 DUP3 ADD MSTORE DUP3 PUSH2 0x140 DUP3 ADD MSTORE DUP3 PUSH2 0x160 DUP3 ADD MSTORE DUP3 PUSH2 0x180 DUP3 ADD MSTORE DUP3 PUSH2 0x1A0 DUP3 ADD MSTORE DUP3 PUSH2 0x1C0 DUP3 ADD MSTORE ADD MSTORE PUSH1 0x1 DUP1 PUSH1 0xA0 SHL SUB AND PUSH1 0x0 MSTORE PUSH1 0x12 PUSH1 0x20 MSTORE PUSH1 0x40 PUSH1 0x0 KECCAK256 PUSH1 0x40 MLOAD PUSH2 0x221 DUP2 PUSH2 0x25EA JUMP JUMPDEST DUP2 SLOAD PUSH1 0x1 PUSH1 0x1 PUSH1 0xA0 SHL SUB SWAP1 DUP2 AND DUP3 MSTORE PUSH1 0x1 DUP4 ADD SLOAD DUP2 AND PUSH1 0x20 DUP4 ADD SWAP1 DUP2 MSTORE PUSH1 0x2 DUP5 ADD SLOAD SWAP1 SWAP2 AND PUSH1 0x40 DUP4 ADD SWAP1 DUP2 MSTORE SWAP1 SWAP3 SWAP1 SWAP2 PUSH2 0x25D PUSH1 0x3 DUP4 ADD PUSH2 0x27A0 JUMP JUMPDEST PUSH1 0x60 DUP3 ADD SWAP1 DUP2 MSTORE PUSH1 0x4 DUP4 ADD DUP1 SLOAD PUSH2 0x273 DUP2 PUSH2 0x27F4 JUMP JUMPDEST SWAP2 PUSH2 0x281 PUSH1 0x40 MLOAD SWAP4 DUP5 PUSH2 0x2621 JUMP JUMPDEST DUP2 DUP4 MSTORE PUSH1 0x20 DUP4 ADD SWAP1 PUSH1 0x0 MSTORE PUSH1 0x20 PUSH1 0x0 KECCAK256 PUSH1 0x0 SWAP2 JUMPDEST DUP4 DUP4 LT PUSH2 0x4B2 JUMPI POP POP POP POP PUSH1 0x80 DUP4 ADD SWAP1 DUP2 MSTORE PUSH1 0x5 DUP5 ADD SWAP2 DUP3 SLOAD PUSH2 0x2B7 DUP2 PUSH2 0x27F4 JUMP JUMPDEST SWAP4 PUSH2 0x2C5 PUSH1 0x40 MLOAD SWAP6 DUP7 PUSH2 0x2621 JUMP JUMPDEST DUP2 DUP6 MSTORE PUSH1 0x20 DUP6 ADD SWAP1 PUSH1 0x0 MSTORE PUSH1 0x20 PUSH1 0x0 KECCAK256 PUSH1 0x0 SWAP2 JUMPDEST DUP4 DUP4 LT PUSH2 0x47C JUMPI POP POP POP POP PUSH1 0xA0 DUP5 ADD SWAP3 DUP4 MSTORE PUSH1 0x6 DUP6 ADD SLOAD PUSH1 0xC0 DUP6 ADD MSTORE PUSH1 0x7 DUP6 ADD SLOAD PUSH1 0xE0 DUP6 ADD SWAP1 DUP2 MSTORE PUSH1 0x8 DUP7 ADD SLOAD PUSH1 0xFF AND PUSH2 0x100 DUP7 ADD MSTORE PUSH1 0x9 DUP7 ADD SLOAD PUSH2 0x120 DUP7 ADD MSTORE PUSH1 0xA DUP7 ADD SLOAD PUSH2 0x140 DUP7 ADD MSTORE PUSH1 0xB DUP7 ADD SLOAD PUSH2 0x160 DUP7 ADD MSTORE PUSH1 0xC DUP7 ADD SLOAD PUSH2 0x180 DUP7 ADD MSTORE PUSH1 0xD DUP7 ADD SLOAD PUSH2 0x1A0 DUP7 ADD MSTORE PUSH1 0xE DUP7 ADD SLOAD PUSH2 0x1C0 DUP7 ADD MSTORE PUSH1 0xF SWAP1 SWAP6 ADD SLOAD PUSH2 0x1E0 DUP6 ADD MSTORE PUSH1 0x40 DUP1 MLOAD PUSH1 0x20 DUP1 DUP3 MSTORE DUP7 MLOAD PUSH1 0x1 PUSH1 0x1 PUSH1 0xA0 SHL SUB SWAP1 DUP2 AND DUP3 DUP5 ADD MSTORE SWAP10 MLOAD DUP11 AND SWAP3 DUP3 ADD SWAP3 SWAP1 SWAP3 MSTORE SWAP7 MLOAD SWAP1 SWAP8 AND PUSH1 0x60 DUP8 ADD MSTORE MLOAD PUSH2 0x200 PUSH1 0x80 DUP8 ADD MSTORE DUP1 MLOAD PUSH2 0x220 DUP8 ADD DUP2 SWAP1 MSTORE PUSH2 0x240 DUP8 ADD SWAP8 SWAP2 SWAP1 SWAP2 ADD SWAP1 PUSH1 0x0 JUMPDEST DUP2 DUP2 LT PUSH2 0x45D JUMPI POP POP POP PUSH2 0x1E0 SWAP3 SWAP2 PUSH2 0x3D7 DUP7 SWAP8 PUSH2 0x3EA SWAP4 MLOAD PUSH1 0x1F NOT DUP10 DUP4 SUB ADD PUSH1 0xA0 DUP11 ADD MSTORE PUSH2 0x265F JUMP JUMPDEST SWAP1 MLOAD DUP7 DUP3 SUB PUSH1 0x1F NOT ADD PUSH1 0xC0 DUP9 ADD MSTORE PUSH2 0x26AB JUMP JUMPDEST SWAP3 PUSH1 0xC0 DUP3 ADD MLOAD PUSH1 0xE0 DUP7 ADD MSTORE MLOAD PUSH2 0x100 DUP6 ADD MSTORE PUSH1 0xFF PUSH2 0x100 DUP3 ADD MLOAD AND PUSH2 0x120 DUP6 ADD MSTORE PUSH2 0x120 DUP2 ADD MLOAD PUSH2 0x140 DUP6 ADD MSTORE PUSH2 0x140 DUP2 ADD MLOAD PUSH2 0x160 DUP6 ADD MSTORE PUSH2 0x160 DUP2 ADD MLOAD PUSH2 0x180 DUP6 ADD MSTORE PUSH2 0x180 DUP2 ADD MLOAD PUSH2 0x1A0 DUP6 ADD MSTORE PUSH2 0x1A0 DUP2 ADD MLOAD PUSH2 0x1C0 DUP6 ADD MSTORE PUSH2 0x1C0 DUP2 ADD MLOAD DUP3 DUP6 ADD MSTORE ADD MLOAD PUSH2 0x200 DUP4 ADD MSTORE SUB SWAP1 RETURN JUMPDEST DUP3 MLOAD PUSH1 0x1 PUSH1 0x1 PUSH1 0xA0 SHL SUB AND DUP10 MSTORE PUSH1 0x20 SWAP9 DUP10 ADD SWAP9 SWAP1 SWAP3 ADD SWAP2 PUSH1 0x1 ADD PUSH2 0x3AD JUMP JUMPDEST PUSH1 0x1 PUSH1 0x20 DUP2 SWAP3 PUSH1 0x40 MLOAD PUSH2 0x48E DUP2 PUSH2 0x2606 JUMP JUMPDEST PUSH1 0xFF DUP7 SLOAD DUP6 DUP1 PUSH1 0xA0 SHL SUB DUP2 AND DUP4 MSTORE PUSH1 0xA0 SHR AND DUP4 DUP3 ADD MSTORE DUP2 MSTORE ADD SWAP3 ADD SWAP3 ADD SWAP2 SWAP1 PUSH2 0x2D9 JUMP JUMPDEST PUSH1 0x2 PUSH1 0x20 PUSH1 0x1 SWAP3 PUSH1 0x40 MLOAD PUSH2 0x4C5 DUP2 PUSH2 0x2606 JUMP JUMPDEST DUP5 DUP1 PUSH1 0xA0 SHL SUB DUP7 SLOAD AND DUP2 MSTORE DUP5 DUP1 PUSH1 0xA0 SHL SUB DUP6 DUP8 ADD SLOAD AND DUP4 DUP3 ADD MSTORE DUP2 MSTORE ADD SWAP3 ADD SWAP3 ADD SWAP2 SWAP1 PUSH2 0x295 JUMP JUMPDEST PUSH1 0x0 DUP1 REVERT JUMPDEST CALLVALUE PUSH2 0x4ED JUMPI PUSH1 0x20 CALLDATASIZE PUSH1 0x3 NOT ADD SLT PUSH2 0x4ED JUMPI PUSH1 0x1 PUSH1 0x1 PUSH1 0xA0 SHL SUB PUSH2 0x513 PUSH2 0x2581 JUMP JUMPDEST AND PUSH1 0x0 MSTORE PUSH1 0x12 PUSH1 0x20 MSTORE PUSH1 0x40 PUSH1 0x0 KECCAK256 PUSH1 0x40 MLOAD SWAP1 PUSH2 0x52E DUP3 PUSH2 0x25EA JUMP JUMPDEST DUP1 SLOAD PUSH1 0x1 PUSH1 0x1 PUSH1 0xA0 SHL SUB SWAP1 DUP2 AND DUP4 MSTORE PUSH1 0x1 DUP3 ADD SLOAD DUP2 AND PUSH1 0x20 DUP5 ADD MSTORE PUSH1 0x2 DUP3 ADD SLOAD AND PUSH1 0x40 DUP4 ADD SWAP1 DUP2 MSTORE SWAP1 PUSH2 0x563 PUSH1 0x3 DUP3 ADD PUSH2 0x27A0 JUMP JUMPDEST SWAP2 PUSH1 0x60 DUP5 ADD SWAP3 DUP4 MSTORE PUSH1 0x4 DUP3 ADD SWAP4 DUP5 SLOAD PUSH2 0x57B DUP2 PUSH2 0x27F4 JUMP JUMPDEST SWAP6 PUSH2 0x589 PUSH1 0x40 MLOAD SWAP8 DUP9 PUSH2 0x2621 JUMP JUMPDEST DUP2 DUP8 MSTORE PUSH1 0x20 DUP8 ADD SWAP1 PUSH1 0x0 MSTORE PUSH1 0x20 PUSH1 0x0 KECCAK256 PUSH1 0x0 SWAP2 JUMPDEST DUP4 DUP4 LT PUSH2 0x703 JUMPI POP POP POP POP PUSH1 0x80 DUP2 ADD SWAP5 DUP6 MSTORE PUSH1 0x5 DUP4 ADD SWAP3 DUP4 SLOAD PUSH2 0x5BF DUP2 PUSH2 0x27F4 JUMP JUMPDEST SWAP5 PUSH2 0x5CD PUSH1 0x40 MLOAD SWAP7 DUP8 PUSH2 0x2621 JUMP JUMPDEST DUP2 DUP7 MSTORE PUSH1 0x20 DUP7 ADD SWAP1 PUSH1 0x0 MSTORE PUSH1 0x20 PUSH1 0x0 KECCAK256 PUSH1 0x0 SWAP2 JUMPDEST DUP4 DUP4 LT PUSH2 0x6CD JUMPI POP POP POP POP SWAP1 PUSH2 0x1E0 PUSH1 0xF PUSH2 0x6C3 SWAP5 SWAP4 DUP7 PUSH1 0xA0 DUP6 ADD MSTORE PUSH1 0x6 DUP2 ADD SLOAD PUSH1 0xC0 DUP6 ADD MSTORE PUSH1 0x7 DUP2 ADD SLOAD PUSH1 0xE0 DUP6 ADD MSTORE PUSH1 0xFF PUSH1 0x8 DUP3 ADD SLOAD AND PUSH2 0x100 DUP6 ADD MSTORE PUSH1 0x9 DUP2 ADD SLOAD PUSH2 0x120 DUP6 ADD MSTORE PUSH1 0xA DUP2 ADD SLOAD PUSH2 0x140 DUP6 ADD MSTORE PUSH1 0xB DUP2 ADD SLOAD PUSH2 0x160 DUP6 ADD MSTORE PUSH1 0xC DUP2 ADD SLOAD PUSH2 0x180 DUP6 ADD MSTORE PUSH1 0xD DUP2 ADD SLOAD PUSH2 0x1A0 DUP6 ADD MSTORE PUSH1 0xE DUP2 ADD SLOAD PUSH2 0x1C0 DUP6 ADD MSTORE ADD SLOAD SWAP2 ADD MSTORE PUSH1 0x1 DUP1 PUSH1 0xA0 SHL SUB SWAP1 MLOAD AND SWAP3 MLOAD SWAP4 DUP5 MLOAD SWAP1 MLOAD SWAP3 PUSH2 0x6B0 DUP5 MLOAD SWAP3 DUP3 MLOAD SWAP6 PUSH2 0x69D PUSH1 0x40 MLOAD SWAP10 DUP11 SWAP10 DUP11 MSTORE PUSH1 0xE0 PUSH1 0x20 DUP12 ADD MSTORE PUSH1 0xE0 DUP11 ADD SWAP1 PUSH2 0x25AD JUMP JUMPDEST SWAP2 PUSH1 0x40 DUP10 ADD MSTORE DUP8 DUP3 SUB PUSH1 0x60 DUP10 ADD MSTORE PUSH2 0x265F JUMP JUMPDEST SWAP2 PUSH1 0x80 DUP7 ADD MSTORE DUP5 DUP3 SUB PUSH1 0xA0 DUP7 ADD MSTORE PUSH2 0x26AB JUMP JUMPDEST SWAP1 PUSH1 0xC0 DUP4 ADD MSTORE SUB SWAP1 RETURN JUMPDEST PUSH1 0x1 PUSH1 0x20 DUP2 SWAP3 PUSH1 0x40 MLOAD PUSH2 0x6DF DUP2 PUSH2 0x2606 JUMP JUMPDEST PUSH1 0xFF DUP7 SLOAD DUP6 DUP1 PUSH1 0xA0 SHL SUB DUP2 AND DUP4 MSTORE PUSH1 0xA0 SHR AND DUP4 DUP3 ADD MSTORE DUP2 MSTORE ADD SWAP3 ADD SWAP3 ADD SWAP2 SWAP1 PUSH2 0x5E1 JUMP JUMPDEST PUSH1 0x2 PUSH1 0x20 PUSH1 0x1 SWAP3 PUSH1 0x40 MLOAD PUSH2 0x716 DUP2 PUSH2 0x2606 JUMP JUMPDEST DUP5 DUP1 PUSH1 0xA0 SHL SUB DUP7 SLOAD AND DUP2 MSTORE DUP5 DUP1 PUSH1 0xA0 SHL SUB DUP6 DUP8 ADD SLOAD AND DUP4 DUP3 ADD MSTORE DUP2 MSTORE ADD SWAP3 ADD SWAP3 ADD SWAP2 SWAP1 PUSH2 0x59D JUMP JUMPDEST CALLVALUE PUSH2 0x4ED JUMPI PUSH1 0x20 CALLDATASIZE PUSH1 0x3 NOT ADD SLT PUSH2 0x4ED JUMPI PUSH2 0x757 PUSH2 0x2581 JUMP JUMPDEST PUSH1 0x1 PUSH1 0x1 PUSH1 0xA0 SHL SUB AND PUSH1 0x0 SWAP1 DUP2 MSTORE PUSH1 0x12 PUSH1 0x20 MSTORE PUSH1 0x40 DUP1 DUP3 KECCAK256 SWAP1 MLOAD SWAP1 SWAP2 SWAP1 PUSH2 0x77D DUP2 PUSH2 0x25EA JUMP JUMPDEST DUP3 SLOAD PUSH1 0x1 PUSH1 0x1 PUSH1 0xA0 SHL SUB SWAP1 DUP2 AND DUP3 MSTORE PUSH1 0x1 DUP5 ADD SLOAD DUP2 AND PUSH1 0x20 DUP4 ADD MSTORE PUSH1 0x2 DUP5 ADD SLOAD AND PUSH1 0x40 DUP3 ADD MSTORE PUSH2 0x7AF PUSH1 0x3 DUP5 ADD PUSH2 0x27A0 JUMP JUMPDEST PUSH1 0x60 DUP3 ADD MSTORE PUSH1 0x4 DUP4 ADD DUP1 SLOAD PUSH2 0x7C3 DUP2 PUSH2 0x27F4 JUMP JUMPDEST SWAP2 PUSH2 0x7D1 PUSH1 0x40 MLOAD SWAP4 DUP5 PUSH2 0x2621 JUMP JUMPDEST DUP2 DUP4 MSTORE PUSH1 0x20 DUP4 ADD SWAP1 PUSH1 0x0 MSTORE PUSH1 0x20 PUSH1 0x0 KECCAK256 PUSH1 0x0 SWAP2 JUMPDEST DUP4 DUP4 LT PUSH2 0x901 JUMPI POP POP POP POP PUSH1 0x80 DUP3 ADD MSTORE PUSH1 0x5 DUP4 ADD SWAP3 DUP4 SLOAD PUSH2 0x805 DUP2 PUSH2 0x27F4 JUMP JUMPDEST SWAP1 PUSH2 0x813 PUSH1 0x40 MLOAD SWAP3 DUP4 PUSH2 0x2621 JUMP JUMPDEST DUP1 DUP3 MSTORE PUSH1 0x20 DUP3 ADD SWAP6 PUSH1 0x0 MSTORE PUSH1 0x20 PUSH1 0x0 KECCAK256 SWAP6 PUSH1 0x0 SWAP1 JUMPDEST DUP3 DUP3 LT PUSH2 0x8CB JUMPI POP POP POP PUSH1 0x40 SWAP5 POP PUSH1 0xA0 DUP4 ADD MSTORE PUSH1 0x6 DUP2 ADD SLOAD PUSH1 0xC0 DUP4 ADD MSTORE PUSH1 0x7 DUP2 ADD SLOAD SWAP2 DUP3 PUSH1 0xE0 DUP3 ADD MSTORE PUSH2 0x1E0 PUSH1 0xF PUSH1 0xFF PUSH1 0x8 DUP6 ADD SLOAD AND SWAP4 DUP5 PUSH2 0x100 DUP6 ADD MSTORE PUSH1 0x9 DUP2 ADD SLOAD PUSH2 0x120 DUP6 ADD MSTORE PUSH1 0xA DUP2 ADD SLOAD PUSH2 0x140 DUP6 ADD MSTORE PUSH1 0xB DUP2 ADD SLOAD PUSH2 0x160 DUP6 ADD MSTORE PUSH1 0xC DUP2 ADD SLOAD PUSH2 0x180 DUP6 ADD MSTORE PUSH1 0xD DUP2 ADD SLOAD PUSH2 0x1A0 DUP6 ADD MSTORE PUSH1 0xE DUP2 ADD SLOAD PUSH2 0x1C0 DUP6 ADD MSTORE ADD SLOAD SWAP2 ADD MSTORE DUP1 PUSH2 0x8C3 JUMPI JUMPDEST POP PUSH1 0xFF DUP4 MLOAD SWAP3 AND DUP3 MSTORE PUSH1 0x20 DUP3 ADD MSTORE RETURN JUMPDEST SWAP2 POP DUP4 PUSH2 0x8B3 JUMP JUMPDEST PUSH1 0x1 PUSH1 0x20 DUP2 SWAP3 PUSH1 0x40 MLOAD PUSH2 0x8DD DUP2 PUSH2 0x2606 JUMP JUMPDEST PUSH1 0xFF DUP13 SLOAD DUP6 DUP1 PUSH1 0xA0 SHL SUB DUP2 AND DUP4 MSTORE PUSH1 0xA0 SHR AND DUP4 DUP3 ADD MSTORE DUP2 MSTORE ADD SWAP9 ADD SWAP2 ADD SWAP1 SWAP7 PUSH2 0x828 JUMP JUMPDEST PUSH1 0x2 PUSH1 0x20 PUSH1 0x1 SWAP3 PUSH1 0x40 MLOAD PUSH2 0x914 DUP2 PUSH2 0x2606 JUMP JUMPDEST DUP5 DUP1 PUSH1 0xA0 SHL SUB DUP7 SLOAD AND DUP2 MSTORE DUP5 DUP1 PUSH1 0xA0 SHL SUB DUP6 DUP8 ADD SLOAD AND DUP4 DUP3 ADD MSTORE DUP2 MSTORE ADD SWAP3 ADD SWAP3 ADD SWAP2 SWAP1 PUSH2 0x7E5 JUMP JUMPDEST CALLVALUE PUSH2 0x4ED JUMPI PUSH1 0x20 CALLDATASIZE PUSH1 0x3 NOT ADD SLT PUSH2 0x4ED JUMPI PUSH1 0x1 PUSH1 0x1 PUSH1 0xA0 SHL SUB PUSH2 0x95D PUSH2 0x2581 JUMP JUMPDEST AND PUSH1 0x0 MSTORE PUSH1 0x12 PUSH1 0x20 MSTORE PUSH1 0x40 PUSH1 0x0 KECCAK256 PUSH1 0x40 MLOAD SWAP1 PUSH2 0x978 DUP3 PUSH2 0x25EA JUMP JUMPDEST DUP1 SLOAD PUSH1 0x1 PUSH1 0x1 PUSH1 0xA0 SHL SUB SWAP1 DUP2 AND DUP4 MSTORE PUSH1 0x1 DUP3 ADD SLOAD DUP2 AND PUSH1 0x20 DUP5 ADD MSTORE PUSH1 0x2 DUP3 ADD SLOAD AND PUSH1 0x40 DUP4 ADD MSTORE PUSH2 0x9AA PUSH1 0x3 DUP3 ADD PUSH2 0x27A0 JUMP JUMPDEST PUSH1 0x60 DUP4 ADD MSTORE PUSH1 0x4 DUP2 ADD DUP1 SLOAD PUSH2 0x9BE DUP2 PUSH2 0x27F4 JUMP JUMPDEST SWAP2 PUSH2 0x9CC PUSH1 0x40 MLOAD SWAP4 DUP5 PUSH2 0x2621 JUMP JUMPDEST DUP2 DUP4 MSTORE PUSH1 0x20 DUP4 ADD SWAP1 PUSH1 0x0 MSTORE PUSH1 0x20 PUSH1 0x0 KECCAK256 PUSH1 0x0 SWAP2 JUMPDEST DUP4 DUP4 LT PUSH2 0xB10 JUMPI POP POP POP POP PUSH1 0x80 DUP4 ADD MSTORE PUSH1 0x5 DUP2 ADD DUP1 SLOAD PUSH2 0x9FF DUP2 PUSH2 0x27F4 JUMP JUMPDEST SWAP2 PUSH2 0xA0D PUSH1 0x40 MLOAD SWAP4 DUP5 PUSH2 0x2621 JUMP JUMPDEST DUP2 DUP4 MSTORE PUSH1 0x20 DUP4 ADD SWAP1 PUSH1 0x0 MSTORE PUSH1 0x20 PUSH1 0x0 KECCAK256 PUSH1 0x0 SWAP2 JUMPDEST DUP4 DUP4 LT PUSH2 0xADA JUMPI POP POP POP POP PUSH1 0xA0 DUP4 ADD MSTORE PUSH2 0xAD6 PUSH1 0x6 DUP3 ADD SLOAD SWAP2 DUP3 PUSH1 0xC0 DUP6 ADD MSTORE PUSH1 0x7 DUP2 ADD SLOAD PUSH1 0xE0 DUP6 ADD MSTORE PUSH1 0xFF PUSH1 0x8 DUP3 ADD SLOAD AND PUSH2 0x100 DUP6 ADD MSTORE PUSH1 0x9 DUP2 ADD SLOAD SWAP4 DUP5 PUSH2 0x120 DUP3 ADD MSTORE PUSH2 0x1E0 PUSH1 0xF PUSH1 0xA DUP5 ADD SLOAD SWAP4 DUP5 PUSH2 0x140 DUP6 ADD MSTORE PUSH1 0xB DUP2 ADD SLOAD PUSH2 0x160 DUP6 ADD MSTORE PUSH1 0xC DUP2 ADD SLOAD PUSH2 0x180 DUP6 ADD MSTORE PUSH1 0xD DUP2 ADD SLOAD PUSH2 0x1A0 DUP6 ADD MSTORE PUSH1 0xE DUP2 ADD SLOAD PUSH2 0x1C0 DUP6 ADD MSTORE ADD SLOAD SWAP2 ADD MSTORE PUSH2 0xAB2 DUP4 DUP3 PUSH2 0x280B JUMP JUMPDEST SWAP1 PUSH1 0x40 MLOAD SWAP5 DUP6 SWAP5 DUP6 SWAP1 SWAP5 SWAP4 SWAP3 PUSH1 0x60 SWAP3 PUSH1 0x80 DUP4 ADD SWAP7 DUP4 MSTORE PUSH1 0x20 DUP4 ADD MSTORE PUSH1 0x40 DUP3 ADD MSTORE ADD MSTORE JUMP JUMPDEST SUB SWAP1 RETURN JUMPDEST PUSH1 0x1 PUSH1 0x20 DUP2 SWAP3 PUSH1 0x40 MLOAD PUSH2 0xAEC DUP2 PUSH2 0x2606 JUMP JUMPDEST PUSH1 0xFF DUP7 SLOAD DUP6 DUP1 PUSH1 0xA0 SHL SUB DUP2 AND DUP4 MSTORE PUSH1 0xA0 SHR AND DUP4 DUP3 ADD MSTORE DUP2 MSTORE ADD SWAP3 ADD SWAP3 ADD SWAP2 SWAP1 PUSH2 0xA21 JUMP JUMPDEST PUSH1 0x2 PUSH1 0x20 PUSH1 0x1 SWAP3 PUSH1 0x40 MLOAD PUSH2 0xB23 DUP2 PUSH2 0x2606 JUMP JUMPDEST DUP5 DUP1 PUSH1 0xA0 SHL SUB DUP7 SLOAD AND DUP2 MSTORE DUP5 DUP1 PUSH1 0xA0 SHL SUB DUP6 DUP8 ADD SLOAD AND DUP4 DUP3 ADD MSTORE DUP2 MSTORE ADD SWAP3 ADD SWAP3 ADD SWAP2 SWAP1 PUSH2 0x9E0 JUMP JUMPDEST CALLVALUE PUSH2 0x4ED JUMPI PUSH1 0x20 CALLDATASIZE PUSH1 0x3 NOT ADD SLT PUSH2 0x4ED JUMPI PUSH2 0x1B PUSH2 0xB67 PUSH2 0x2581 JUMP JUMPDEST PUSH2 0xB6F PUSH2 0x2BEB JUMP JUMPDEST PUSH2 0x2A80 JUMP JUMPDEST CALLVALUE PUSH2 0x4ED JUMPI PUSH1 0x20 CALLDATASIZE PUSH1 0x3 NOT ADD SLT PUSH2 0x4ED JUMPI PUSH1 0x4 CALLDATALOAD PUSH1 0x1 PUSH1 0x1 PUSH1 0x40 SHL SUB DUP2 GT PUSH2 0x4ED JUMPI CALLDATASIZE PUSH1 0x23 DUP3 ADD SLT ISZERO PUSH2 0x4ED JUMPI PUSH1 0x4 DUP2 ADD CALLDATALOAD PUSH1 0x1 PUSH1 0x1 PUSH1 0x40 SHL SUB DUP2 GT PUSH2 0x4ED JUMPI CALLDATASIZE PUSH1 0x24 DUP3 PUSH1 0x5 SHL DUP5 ADD ADD GT PUSH2 0x4ED JUMPI SWAP1 PUSH2 0xBCC PUSH2 0x2BEB JUMP JUMPDEST PUSH1 0x0 SWAP2 JUMPDEST PUSH1 0xFF DUP4 AND SWAP3 DUP2 DUP5 LT ISZERO PUSH2 0x1B JUMPI PUSH2 0xBE6 DUP2 PUSH2 0x293F JUMP JUMPDEST PUSH1 0x0 SWAP5 PUSH1 0x24 PUSH2 0x1FE0 DUP5 PUSH1 0x5 SHL AND DUP7 ADD ADD CALLDATALOAD SWAP1 PUSH8 0xDE0B6B3A7640000 DUP3 MUL SWAP2 DUP1 DUP4 DIV PUSH8 0xDE0B6B3A7640000 EQ SWAP1 ISZERO OR ISZERO PUSH2 0xC64 JUMPI SWAP1 PUSH1 0xFF DUP1 PUSH1 0x40 PUSH2 0xC5D SWAP8 SWAP9 SWAP10 PUSH1 0x1 SWAP6 DUP4 DUP4 MLOAD SWAP9 PUSH2 0xC35 DUP11 PUSH2 0x2606 JUMP JUMPDEST AND DUP9 MSTORE PUSH1 0x20 DUP9 ADD SWAP6 DUP7 MSTORE DUP2 MSTORE PUSH1 0x13 PUSH1 0x20 MSTORE KECCAK256 SWAP5 MLOAD AND AND PUSH1 0xFF NOT DUP5 SLOAD AND OR DUP4 SSTORE MLOAD SWAP2 ADD SSTORE PUSH2 0x292E JUMP JUMPDEST SWAP2 SWAP1 PUSH2 0xBD0 JUMP JUMPDEST PUSH4 0x4E487B71 PUSH1 0xE0 SHL DUP8 MSTORE PUSH1 0x11 PUSH1 0x4 MSTORE PUSH1 0x24 DUP8 REVERT JUMPDEST CALLVALUE PUSH2 0x4ED JUMPI PUSH1 0x0 CALLDATASIZE PUSH1 0x3 NOT ADD SLT PUSH2 0x4ED JUMPI PUSH2 0xAD6 PUSH2 0xC94 PUSH2 0x274D JUMP JUMPDEST PUSH1 0x40 MLOAD SWAP2 DUP3 SWAP2 PUSH1 0x20 DUP4 MSTORE PUSH1 0x20 DUP4 ADD SWAP1 PUSH2 0x25AD JUMP JUMPDEST CALLVALUE PUSH2 0x4ED JUMPI PUSH1 0x20 CALLDATASIZE PUSH1 0x3 NOT ADD SLT PUSH2 0x4ED JUMPI PUSH1 0x0 DUP1 MLOAD PUSH1 0x20 PUSH2 0x382D DUP4 CODECOPY DUP2 MLOAD SWAP2 MSTORE PUSH1 0x20 PUSH2 0xCD2 PUSH2 0x2581 JUMP JUMPDEST PUSH2 0xCDA PUSH2 0x2BEB JUMP JUMPDEST PUSH1 0x1 PUSH1 0x1 PUSH1 0xA0 SHL SUB DUP2 DUP2 AND PUSH1 0x0 DUP2 DUP2 MSTORE PUSH1 0x12 DUP6 MSTORE PUSH1 0x40 SWAP1 KECCAK256 DUP1 SLOAD SWAP2 SWAP4 SWAP3 PUSH1 0xE SWAP3 AND ISZERO PUSH2 0xD73 JUMPI JUMPDEST PUSH1 0x6 DUP2 ADD DUP1 SLOAD ISZERO PUSH2 0xD60 JUMPI JUMPDEST POP PUSH1 0xF DUP2 ADD DUP1 SLOAD ISZERO PUSH2 0xD57 JUMPI JUMPDEST POP ADD SWAP1 DUP2 SLOAD ISZERO PUSH2 0xD42 JUMPI JUMPDEST POP POP PUSH1 0xE DUP1 SLOAD PUSH1 0x1 PUSH1 0x1 PUSH1 0xA0 SHL SUB NOT AND DUP3 OR SWAP1 SSTORE PUSH1 0x40 MLOAD SWAP1 DUP2 MSTORE LOG1 STOP JUMPDEST PUSH2 0xD4B SWAP1 PUSH2 0x28E6 JUMP JUMPDEST PUSH1 0x1 SLOAD SWAP1 SSTORE DUP4 DUP1 PUSH2 0xD25 JUMP JUMPDEST TIMESTAMP SWAP1 SSTORE DUP7 PUSH2 0xD1A JUMP JUMPDEST PUSH10 0x152D02C7E14AF6800000 SWAP1 SSTORE DUP7 PUSH2 0xD0D JUMP JUMPDEST DUP1 SLOAD PUSH1 0x1 PUSH1 0x1 PUSH1 0xA0 SHL SUB NOT AND DUP5 OR DUP2 SSTORE PUSH2 0xD8C DUP4 PUSH2 0x28C1 JUMP JUMPDEST PUSH2 0xD01 JUMP JUMPDEST CALLVALUE PUSH2 0x4ED JUMPI PUSH1 0x20 CALLDATASIZE PUSH1 0x3 NOT ADD SLT PUSH2 0x4ED JUMPI PUSH2 0xDAA PUSH2 0x2581 JUMP JUMPDEST PUSH1 0x1 PUSH1 0x1 PUSH1 0xA0 SHL SUB DUP2 AND PUSH1 0x0 SWAP1 DUP2 MSTORE PUSH1 0x14 PUSH1 0x20 MSTORE PUSH1 0x40 SWAP1 KECCAK256 SLOAD PUSH2 0xDD4 SWAP1 PUSH1 0xFF AND ISZERO ISZERO PUSH1 0x1 EQ PUSH2 0x2951 JUMP JUMPDEST PUSH8 0xDE0B6B3A7640000 PUSH2 0xDF2 PUSH2 0xDEC PUSH1 0x9 SLOAD SWAP4 PUSH2 0x2AE4 JUMP JUMPDEST DUP4 PUSH2 0x2818 JUMP JUMPDEST DIV PUSH1 0xB SLOAD PUSH3 0x93A80 DUP2 ADD LT PUSH2 0xF68 JUMPI DUP2 ISZERO PUSH2 0xF7E JUMPI PUSH2 0xE0F PUSH2 0x274D JUMP JUMPDEST PUSH1 0x0 NOT NUMBER ADD NUMBER DUP2 GT PUSH2 0xF68 JUMPI PUSH2 0xE64 SWAP1 PUSH1 0x40 MLOAD PUSH2 0xE45 DUP2 PUSH2 0xE37 PUSH1 0x20 DUP3 ADD SWAP5 BLOCKHASH PREVRANDAO TIMESTAMP DUP8 PUSH2 0x2A46 JUMP JUMPDEST SUB PUSH1 0x1F NOT DUP2 ADD DUP4 MSTORE DUP3 PUSH2 0x2621 JUMP JUMPDEST MLOAD SWAP1 KECCAK256 DUP3 MLOAD PUSH1 0x1 PUSH1 0x1 PUSH1 0xA0 SHL SUB SWAP4 SWAP2 PUSH2 0xE5E SWAP2 SWAP1 PUSH2 0x2A5B JUMP JUMPDEST SWAP1 PUSH2 0x2864 JUMP JUMPDEST MLOAD AND SWAP2 DUP3 ISZERO PUSH2 0xEF1 JUMPI PUSH1 0x0 DUP1 DUP1 DUP1 SWAP4 DUP7 DUP3 MSTORE PUSH1 0x12 PUSH1 0x20 MSTORE PUSH1 0xC PUSH1 0x40 DUP4 KECCAK256 ADD PUSH2 0xE8D DUP8 DUP3 SLOAD PUSH2 0x280B JUMP JUMPDEST SWAP1 SSTORE DUP7 DUP3 CALL ISZERO PUSH2 0xEE5 JUMPI PUSH32 0x6DBDD944BDF6514ACA26947D204530E2ECBEA365677EF05FEE7A56D54A145697 SWAP2 PUSH1 0x0 PUSH1 0x9 SSTORE TIMESTAMP PUSH1 0xB SSTORE PUSH2 0xECE DUP3 PUSH1 0x5 SLOAD PUSH2 0x280B JUMP JUMPDEST PUSH1 0x5 SSTORE PUSH2 0xEE0 PUSH1 0x40 MLOAD SWAP3 DUP4 SWAP3 DUP4 PUSH2 0x2A65 JUMP JUMPDEST SUB SWAP1 LOG1 STOP JUMPDEST PUSH1 0x40 MLOAD RETURNDATASIZE PUSH1 0x0 DUP3 RETURNDATACOPY RETURNDATASIZE SWAP1 REVERT JUMPDEST POP POP POP PUSH32 0x974C744AFA915921DDDB0F53FDBFDD97FEF12A94DB2457DCF878AA94AD687274 PUSH1 0x80 PUSH1 0x40 MLOAD PUSH1 0x20 DUP2 MSTORE PUSH1 0x31 PUSH1 0x20 DUP3 ADD MSTORE PUSH32 0x52616E646F6D206164647265737320776173207A65726F20616464726573732E PUSH1 0x40 DUP3 ADD MSTORE PUSH17 0x10283632B0B9B2903A393C9030B3B0B4B7 PUSH1 0x79 SHL PUSH1 0x60 DUP3 ADD MSTORE LOG1 STOP JUMPDEST PUSH4 0x4E487B71 PUSH1 0xE0 SHL PUSH1 0x0 MSTORE PUSH1 0x11 PUSH1 0x4 MSTORE PUSH1 0x24 PUSH1 0x0 REVERT JUMPDEST PUSH1 0x40 MLOAD PUSH3 0x461BCD PUSH1 0xE5 SHL DUP2 MSTORE PUSH1 0x20 PUSH1 0x4 DUP3 ADD MSTORE PUSH1 0x18 PUSH1 0x24 DUP3 ADD MSTORE PUSH24 0x4E6F207265776172647320746F2064697374726962757465 PUSH1 0x40 SHL PUSH1 0x44 DUP3 ADD MSTORE PUSH1 0x64 SWAP1 REVERT JUMPDEST PUSH1 0x40 CALLDATASIZE PUSH1 0x3 NOT ADD SLT PUSH2 0x4ED JUMPI PUSH2 0x1B PUSH2 0xFD5 PUSH2 0x2581 JUMP JUMPDEST PUSH8 0xDE0B6B3A7640000 PUSH2 0x1035 PUSH2 0x102F PUSH2 0xFEC PUSH2 0x2597 JUMP JUMPDEST PUSH2 0x1000 PUSH1 0x1 PUSH1 0x1 PUSH1 0xA0 SHL SUB DUP7 AND ISZERO ISZERO PUSH2 0x2996 JUMP JUMPDEST PUSH1 0x1 PUSH1 0x1 PUSH1 0xA0 SHL SUB DUP2 AND PUSH1 0x0 SWAP1 DUP2 MSTORE PUSH1 0x14 PUSH1 0x20 MSTORE PUSH1 0x40 SWAP1 KECCAK256 SLOAD PUSH2 0x102A SWAP1 PUSH1 0xFF AND ISZERO ISZERO PUSH1 0x1 EQ PUSH2 0x29EE JUMP JUMPDEST PUSH2 0x2AE4 JUMP JUMPDEST CALLVALUE PUSH2 0x2818 JUMP JUMPDEST DIV CALLVALUE SWAP2 CALLER SWAP1 PUSH2 0x2C43 JUMP JUMPDEST CALLVALUE PUSH2 0x4ED JUMPI PUSH1 0x0 CALLDATASIZE PUSH1 0x3 NOT ADD SLT PUSH2 0x4ED JUMPI PUSH1 0x40 DUP1 MLOAD SWAP1 PUSH2 0x105F DUP2 DUP4 PUSH2 0x2621 JUMP JUMPDEST PUSH1 0x5 DUP3 MSTORE PUSH5 0x352E302E3 PUSH1 0xDC SHL PUSH1 0x20 DUP4 ADD MSTORE DUP1 MLOAD DUP1 SWAP3 PUSH1 0x20 DUP3 MSTORE DUP1 MLOAD SWAP1 DUP2 PUSH1 0x20 DUP5 ADD MSTORE PUSH1 0x0 JUMPDEST DUP3 DUP2 LT PUSH2 0x10A4 JUMPI POP POP PUSH1 0x0 DUP3 DUP3 ADD DUP5 ADD MSTORE PUSH1 0x1F ADD PUSH1 0x1F NOT AND DUP2 ADD SUB ADD SWAP1 RETURN JUMPDEST PUSH1 0x20 DUP3 DUP3 ADD DUP2 ADD MLOAD DUP8 DUP4 ADD DUP8 ADD MSTORE DUP7 SWAP5 POP ADD PUSH2 0x1085 JUMP JUMPDEST CALLVALUE PUSH2 0x4ED JUMPI PUSH1 0x20 CALLDATASIZE PUSH1 0x3 NOT ADD SLT PUSH2 0x4ED JUMPI PUSH1 0x4 CALLDATALOAD PUSH1 0xFF DUP2 AND DUP1 SWAP2 SUB PUSH2 0x4ED JUMPI PUSH2 0x10E2 PUSH2 0x284B JUMP JUMPDEST POP PUSH1 0x0 MSTORE PUSH1 0x13 PUSH1 0x20 MSTORE PUSH1 0x40 DUP1 PUSH1 0x0 KECCAK256 PUSH1 0x1 DUP3 MLOAD SWAP2 PUSH2 0x10FF DUP4 PUSH2 0x2606 JUMP JUMPDEST PUSH1 0xFF DUP2 SLOAD AND DUP4 MSTORE ADD SLOAD PUSH1 0x20 DUP3 ADD MSTORE PUSH2 0x1126 DUP3 MLOAD DUP1 SWAP3 PUSH1 0x20 DUP1 SWAP2 PUSH1 0xFF DUP2 MLOAD AND DUP5 MSTORE ADD MLOAD SWAP2 ADD MSTORE JUMP JUMPDEST RETURN JUMPDEST PUSH1 0x60 CALLDATASIZE PUSH1 0x3 NOT ADD SLT PUSH2 0x4ED JUMPI PUSH2 0x113C PUSH2 0x2581 JUMP JUMPDEST PUSH2 0x1144 PUSH2 0x2597 JUMP JUMPDEST PUSH1 0x44 CALLDATALOAD SWAP2 PUSH1 0x1 PUSH1 0x1 PUSH1 0xA0 SHL SUB DUP4 AND DUP1 DUP5 SUB PUSH2 0x4ED JUMPI PUSH2 0x1B SWAP4 PUSH8 0xDE0B6B3A7640000 SWAP2 PUSH2 0x11A1 SWAP2 PUSH2 0x102F SWAP2 PUSH2 0x1183 PUSH1 0x1 PUSH1 0x1 PUSH1 0xA0 SHL SUB DUP9 AND ISZERO ISZERO PUSH2 0x2996 JUMP JUMPDEST PUSH1 0x0 MSTORE PUSH1 0x14 PUSH1 0x20 MSTORE PUSH2 0x102A PUSH1 0x1 PUSH1 0xFF PUSH1 0x40 PUSH1 0x0 KECCAK256 SLOAD AND ISZERO ISZERO EQ PUSH2 0x29EE JUMP JUMPDEST DIV SWAP1 CALLVALUE SWAP3 PUSH2 0x2C43 JUMP JUMPDEST PUSH1 0x20 CALLDATASIZE PUSH1 0x3 NOT ADD SLT PUSH2 0x4ED JUMPI PUSH8 0xDE0B6B3A7640000 PUSH2 0x11F7 PUSH2 0x102F PUSH2 0x11CD PUSH2 0x2581 JUMP JUMPDEST PUSH1 0x1 PUSH1 0x1 PUSH1 0xA0 SHL SUB DUP2 AND PUSH1 0x0 SWAP1 DUP2 MSTORE PUSH1 0x14 PUSH1 0x20 MSTORE PUSH1 0x40 SWAP1 KECCAK256 SLOAD PUSH2 0x102A SWAP1 PUSH1 0xFF AND ISZERO ISZERO PUSH1 0x1 EQ PUSH2 0x2951 JUMP JUMPDEST DIV CALLER PUSH1 0x0 MSTORE PUSH1 0x12 PUSH1 0x20 MSTORE PUSH1 0x40 PUSH1 0x0 KECCAK256 PUSH1 0x8 DUP2 ADD PUSH1 0xFF DUP2 SLOAD AND PUSH1 0x0 MSTORE PUSH1 0x13 PUSH1 0x20 MSTORE PUSH1 0x40 PUSH1 0x0 KECCAK256 SWAP1 PUSH1 0x1 PUSH1 0x40 MLOAD SWAP3 PUSH2 0x122C DUP5 PUSH2 0x2606 JUMP JUMPDEST PUSH1 0xFF DUP2 SLOAD AND DUP5 MSTORE ADD SLOAD PUSH1 0x20 DUP4 ADD SWAP1 DUP1 DUP3 MSTORE ISZERO PUSH2 0x14D7 JUMPI DUP1 MLOAD PUSH1 0x5F DUP2 MUL SWAP1 DUP1 DUP3 DIV PUSH1 0x5F EQ SWAP1 ISZERO OR ISZERO PUSH2 0xF68 JUMPI PUSH1 0x64 SWAP1 DIV DUP6 GT SWAP1 DUP2 ISZERO PUSH2 0x14B7 JUMPI JUMPDEST POP ISZERO PUSH2 0x1463 JUMPI PUSH1 0xFF DUP1 DUP1 SWAP4 PUSH1 0x7 DUP7 ADD PUSH2 0x127F DUP9 DUP3 SLOAD PUSH2 0x280B JUMP JUMPDEST SWAP1 SSTORE MLOAD AND AND DUP3 NOT DUP3 SLOAD AND OR DUP2 SSTORE SLOAD AND SWAP2 PUSH1 0x0 SWAP3 PUSH1 0x0 NOT DUP2 ADD SWAP3 PUSH1 0xFF DUP1 DUP6 GT SWAP5 AND SWAP1 JUMPDEST DUP3 DUP7 GT ISZERO PUSH2 0x12AB JUMPI STOP JUMPDEST PUSH1 0x2 ADD SLOAD PUSH1 0x1 PUSH1 0x1 PUSH1 0xA0 SHL SUB AND PUSH1 0x0 SWAP1 DUP2 MSTORE PUSH1 0x12 PUSH1 0x20 MSTORE PUSH1 0x40 SWAP1 KECCAK256 DUP5 PUSH2 0xF68 JUMPI DUP2 DUP7 EQ PUSH2 0x12E5 JUMPI SWAP5 PUSH1 0x0 NOT DUP2 EQ PUSH2 0xF68 JUMPI PUSH1 0x1 ADD SWAP5 PUSH2 0x12A1 JUMP JUMPDEST DUP1 SWAP6 POP PUSH1 0xFF SWAP3 SWAP4 SWAP5 POP PUSH1 0x8 SWAP2 POP ADD SLOAD AND SWAP1 DUP1 DUP3 GT SWAP2 DUP3 ISZERO PUSH2 0x1459 JUMPI JUMPDEST POP POP DUP1 PUSH2 0x1446 JUMPI JUMPDEST ISZERO PUSH2 0x1376 JUMPI PUSH2 0x131D PUSH1 0xD DUP4 ADD SWAP2 DUP3 SLOAD PUSH2 0x280B JUMP JUMPDEST SWAP1 SSTORE PUSH1 0x0 DUP1 DUP1 DUP1 PUSH1 0x1 DUP1 PUSH1 0xA0 SHL SUB DUP6 SLOAD AND DUP2 SWAP1 CALLVALUE ISZERO PUSH2 0x136C JUMPI JUMPDEST CALLVALUE SWAP2 CALL ISZERO PUSH2 0xEE5 JUMPI SLOAD PUSH1 0x40 MLOAD PUSH1 0x0 DUP1 MLOAD PUSH1 0x20 PUSH2 0x386D DUP4 CODECOPY DUP2 MLOAD SWAP2 MSTORE SWAP2 DUP2 SWAP1 PUSH2 0xEE0 SWAP1 CALLVALUE SWAP1 CALLER SWAP1 PUSH1 0x1 PUSH1 0x1 PUSH1 0xA0 SHL SUB AND DUP5 PUSH2 0x2C21 JUMP JUMPDEST PUSH2 0x8FC SWAP2 POP PUSH2 0x1337 JUMP JUMPDEST POP POP PUSH32 0x6696B78FC1713892E6E2BB3DF5CDC986AB67A0C675898C7EF535BD2201CA9451 PUSH1 0x80 PUSH1 0x40 MLOAD PUSH1 0x20 DUP2 MSTORE PUSH1 0x3F PUSH1 0x20 DUP3 ADD MSTORE PUSH32 0x55706C696E6520686173206E6F742075706772616465642E20416D6F756E7420 PUSH1 0x40 DUP3 ADD MSTORE PUSH32 0x7472616E73666572656420746F206C69717569646974792077616C6C65742E00 PUSH1 0x60 DUP3 ADD MSTORE LOG1 PUSH1 0x10 SLOAD PUSH1 0x1 PUSH1 0x1 PUSH1 0xA0 SHL SUB AND PUSH1 0x0 CALLVALUE ISZERO PUSH2 0x143D JUMPI JUMPDEST PUSH1 0x0 DUP1 DUP1 DUP1 SWAP4 DUP6 CALLVALUE SWAP2 CALL ISZERO PUSH2 0xEE5 JUMPI PUSH2 0xEE0 PUSH1 0x0 DUP1 MLOAD PUSH1 0x20 PUSH2 0x386D DUP4 CODECOPY DUP2 MLOAD SWAP2 MSTORE SWAP2 PUSH1 0x40 MLOAD SWAP2 DUP3 SWAP2 CALLVALUE SWAP1 CALLER SWAP1 DUP5 PUSH2 0x2C21 JUMP JUMPDEST POP PUSH2 0x8FC PUSH2 0x140B JUMP JUMPDEST POP DUP2 SLOAD PUSH1 0x1 PUSH1 0x1 PUSH1 0xA0 SHL SUB AND ISZERO ISZERO PUSH2 0x1309 JUMP JUMPDEST EQ SWAP1 POP DUP4 DUP1 PUSH2 0x1301 JUMP JUMPDEST PUSH1 0x40 MLOAD PUSH3 0x461BCD PUSH1 0xE5 SHL DUP2 MSTORE PUSH1 0x20 PUSH1 0x4 DUP3 ADD MSTORE PUSH1 0x26 PUSH1 0x24 DUP3 ADD MSTORE PUSH32 0x56616C75652073686F756C6420626520657175616C20746F2075706772616465 PUSH1 0x44 DUP3 ADD MSTORE PUSH6 0x2076616C7565 PUSH1 0xD0 SHL PUSH1 0x64 DUP3 ADD MSTORE PUSH1 0x84 SWAP1 REVERT JUMPDEST MLOAD PUSH1 0x69 DUP1 DUP3 MUL SWAP3 POP DUP2 ISZERO SWAP2 DUP4 DIV EQ OR ISZERO PUSH2 0xF68 JUMPI PUSH1 0x64 SWAP1 DIV DUP5 LT DUP6 PUSH2 0x1265 JUMP JUMPDEST PUSH1 0x40 MLOAD PUSH3 0x461BCD PUSH1 0xE5 SHL DUP2 MSTORE PUSH1 0x20 PUSH1 0x4 DUP3 ADD MSTORE PUSH1 0x1D PUSH1 0x24 DUP3 ADD MSTORE PUSH32 0x596F75206861766520757067726164656420616C6C206C6576656C732E000000 PUSH1 0x44 DUP3 ADD MSTORE PUSH1 0x64 SWAP1 REVERT JUMPDEST CALLVALUE PUSH2 0x4ED JUMPI PUSH1 0x0 CALLDATASIZE PUSH1 0x3 NOT ADD SLT PUSH2 0x4ED JUMPI PUSH1 0x0 DUP1 MLOAD PUSH1 0x20 PUSH2 0x37ED DUP4 CODECOPY DUP2 MLOAD SWAP2 MSTORE SLOAD PUSH1 0x40 MLOAD PUSH1 0x1 PUSH1 0x1 PUSH1 0xA0 SHL SUB SWAP1 SWAP2 AND DUP2 MSTORE PUSH1 0x20 SWAP1 RETURN JUMPDEST CALLVALUE PUSH2 0x4ED JUMPI PUSH1 0x0 CALLDATASIZE PUSH1 0x3 NOT ADD SLT PUSH2 0x4ED JUMPI PUSH1 0x0 PUSH1 0x9 SLOAD PUSH1 0xB SLOAD SWAP2 PUSH3 0x93A80 DUP4 ADD SWAP3 DUP4 DUP2 GT PUSH2 0xF68 JUMPI TIMESTAMP DUP5 GT PUSH2 0x1599 JUMPI JUMPDEST POP SWAP2 PUSH1 0x60 SWAP3 PUSH1 0x40 MLOAD SWAP3 DUP4 MSTORE PUSH1 0x20 DUP4 ADD MSTORE PUSH1 0x40 DUP3 ADD MSTORE RETURN JUMPDEST PUSH3 0x93A80 SWAP2 POP TIMESTAMP SWAP1 SUB ADD SWAP2 DUP1 DUP4 GT PUSH2 0xF68 JUMPI SWAP2 PUSH1 0x60 PUSH2 0x1582 JUMP JUMPDEST CALLVALUE PUSH2 0x4ED JUMPI PUSH1 0x0 CALLDATASIZE PUSH1 0x3 NOT ADD SLT PUSH2 0x4ED JUMPI PUSH1 0x0 DUP1 MLOAD PUSH1 0x20 PUSH2 0x388D DUP4 CODECOPY DUP2 MLOAD SWAP2 MSTORE SLOAD PUSH1 0x40 DUP2 SWAP1 SHR PUSH1 0xFF AND ISZERO SWAP1 PUSH1 0x1 PUSH1 0x1 PUSH1 0x40 SHL SUB DUP2 AND DUP1 ISZERO SWAP1 DUP2 PUSH2 0x1AA7 JUMPI JUMPDEST PUSH1 0x1 EQ SWAP1 DUP2 PUSH2 0x1A9D JUMPI JUMPDEST ISZERO SWAP1 DUP2 PUSH2 0x1A94 JUMPI JUMPDEST POP PUSH2 0x1A83 JUMPI PUSH1 0x1 PUSH1 0x1 PUSH1 0x40 SHL SUB NOT DUP2 AND PUSH1 0x1 OR PUSH1 0x0 DUP1 MLOAD PUSH1 0x20 PUSH2 0x388D DUP4 CODECOPY DUP2 MLOAD SWAP2 MSTORE SSTORE DUP2 PUSH2 0x1A5A JUMPI JUMPDEST POP PUSH20 0xCEF5767039FA6A66016B802546F123E0C3DDEDC2 PUSH1 0x0 MSTORE PUSH1 0x12 PUSH1 0x20 MSTORE PUSH32 0x7B58F54F0BC0FCD57E50C233F450FE384ADF8C88021DBBEEF24B87DE22945C14 DUP1 SLOAD PUSH1 0xE SWAP2 SWAP1 PUSH1 0x1 PUSH1 0x1 PUSH1 0xA0 SHL SUB AND ISZERO PUSH2 0x1A26 JUMPI JUMPDEST PUSH1 0x6 DUP2 ADD DUP1 SLOAD ISZERO PUSH2 0x1A13 JUMPI JUMPDEST POP PUSH1 0xF DUP2 ADD DUP1 SLOAD ISZERO PUSH2 0x1A0A JUMPI JUMPDEST POP ADD DUP1 SLOAD ISZERO PUSH2 0x19E2 JUMPI JUMPDEST POP PUSH20 0xCEF5767039FA6A66016B802546F123E0C3DDEDC2 PUSH1 0x1 DUP1 PUSH1 0xA0 SHL SUB NOT PUSH1 0xE SLOAD AND OR PUSH1 0xE SSTORE PUSH1 0x0 DUP1 MLOAD PUSH1 0x20 PUSH2 0x382D DUP4 CODECOPY DUP2 MLOAD SWAP2 MSTORE PUSH1 0x20 PUSH1 0x40 MLOAD PUSH20 0xCEF5767039FA6A66016B802546F123E0C3DDEDC2 DUP2 MSTORE LOG1 PUSH1 0x11 SLOAD PUSH1 0x1 PUSH1 0x40 SHL DUP2 LT ISZERO PUSH2 0x19CC JUMPI DUP1 PUSH1 0x1 PUSH2 0x1716 SWAP3 ADD PUSH1 0x11 SSTORE PUSH1 0x11 PUSH2 0x28A9 JUMP JUMPDEST DUP2 SLOAD PUSH1 0x1 PUSH1 0x1 PUSH1 0xA0 SHL SUB PUSH1 0x3 SWAP3 SWAP1 SWAP3 SHL SWAP2 DUP3 SHL NOT AND PUSH20 0x567F2323251F0AAB15C8DFB1967E4E8A7D42AEE SWAP1 SWAP2 SHL OR SWAP1 SSTORE PUSH1 0x11 SLOAD PUSH1 0x1 PUSH1 0x40 SHL DUP2 LT ISZERO PUSH2 0x19CC JUMPI DUP1 PUSH1 0x1 PUSH2 0x1767 SWAP3 ADD PUSH1 0x11 SSTORE PUSH1 0x11 PUSH2 0x28A9 JUMP JUMPDEST DUP2 SLOAD PUSH1 0x1 PUSH1 0x1 PUSH1 0xA0 SHL SUB PUSH1 0x3 SWAP3 SWAP1 SWAP3 SHL SWAP2 DUP3 SHL NOT AND PUSH20 0x9C85F470F9BA23DFC4FE9531933C2CE2C1739C39 SWAP2 DUP3 SWAP1 SHL OR SWAP1 SWAP2 SSTORE PUSH1 0x14 PUSH1 0x20 MSTORE PUSH32 0x18B399276171EDD4288C75706C059C76F8BA27A208F6AB7DC13DDAC4A813EB06 DUP1 SLOAD PUSH1 0xFF NOT SWAP1 DUP2 AND PUSH1 0x1 SWAP1 DUP2 OR SWAP1 SWAP3 SSTORE PUSH1 0x0 SWAP3 SWAP1 SWAP3 MSTORE PUSH32 0x785E316B530D6F09805CF52EC6944C1FD91D7CF1FFA292231399B4110CC5CA9D DUP1 SLOAD DUP4 AND SWAP1 SWAP2 OR SWAP1 SSTORE PUSH9 0x15AF1D78B58C40000 PUSH1 0xF SSTORE PUSH1 0xC DUP1 SLOAD PUSH2 0xFFFF NOT AND PUSH2 0x83C OR SWAP1 SSTORE PUSH1 0x2 PUSH1 0xD SSTORE PUSH1 0x6 DUP1 SLOAD PUSH1 0x1 PUSH1 0x1 PUSH1 0xA8 SHL SUB NOT AND PUSH21 0x14554F58FCFCEF95F82C8CF6ED9E51E5C79E341481 OR SWAP1 SSTORE PUSH1 0x10 DUP1 SLOAD PUSH1 0x1 PUSH1 0x1 PUSH1 0xA0 SHL SUB NOT AND PUSH20 0x3D7263AFA42C9D47C13CFCDCDC72A131077E5618 OR DUP2 SSTORE PUSH1 0x8 DUP1 SLOAD DUP4 AND SWAP1 SWAP2 OR SWAP1 SSTORE PUSH1 0xA DUP1 SLOAD SWAP1 SWAP2 AND PUSH1 0x4 OR SWAP1 SSTORE TIMESTAMP PUSH1 0xB SSTORE PUSH1 0x40 MLOAD PUSH1 0xE0 DUP2 ADD PUSH1 0x1 PUSH1 0x1 PUSH1 0x40 SHL SUB DUP2 GT DUP3 DUP3 LT OR PUSH2 0x19CC JUMPI PUSH1 0x40 MSTORE PUSH9 0x1158E460913D00000 DUP2 MSTORE PUSH9 0x1A055690D9DB80000 PUSH1 0x20 DUP3 ADD MSTORE PUSH9 0x2B5E3AF16B1880000 PUSH1 0x40 DUP3 ADD MSTORE PUSH9 0x9C2007651B2500000 PUSH1 0x60 DUP3 ADD MSTORE PUSH9 0x15AF1D78B58C400000 PUSH1 0x80 DUP3 ADD MSTORE PUSH9 0x281D901F4FDD100000 PUSH1 0xA0 DUP3 ADD MSTORE PUSH9 0x4FB0591B9B30380000 PUSH1 0xC0 DUP3 ADD MSTORE PUSH1 0x0 JUMPDEST PUSH1 0xFF DUP2 AND SWAP1 PUSH1 0x7 DUP3 LT ISZERO PUSH2 0x1950 JUMPI PUSH2 0x194B SWAP2 PUSH1 0x1 PUSH2 0x192A DUP4 PUSH2 0x293F JUMP JUMPDEST SWAP2 PUSH1 0xFF DUP1 PUSH1 0x40 PUSH1 0x0 PUSH2 0x1FE0 DUP9 PUSH1 0x5 SHL AND DUP11 ADD MLOAD SWAP5 DUP4 DUP4 MLOAD SWAP9 PUSH2 0xC35 DUP11 PUSH2 0x2606 JUMP JUMPDEST PUSH2 0x190D JUMP JUMPDEST DUP4 PUSH2 0x1959 PUSH2 0x35BC JUMP JUMPDEST PUSH2 0x1961 PUSH2 0x35BC JUMP JUMPDEST PUSH2 0x196A CALLER PUSH2 0x2A80 JUMP JUMPDEST PUSH2 0x1972 PUSH2 0x35BC JUMP JUMPDEST PUSH2 0x1978 JUMPI STOP JUMPDEST PUSH1 0xFF PUSH1 0x40 SHL NOT PUSH1 0x0 DUP1 MLOAD PUSH1 0x20 PUSH2 0x388D DUP4 CODECOPY DUP2 MLOAD SWAP2 MSTORE SLOAD AND PUSH1 0x0 DUP1 MLOAD PUSH1 0x20 PUSH2 0x388D DUP4 CODECOPY DUP2 MLOAD SWAP2 MSTORE SSTORE PUSH32 0xC7F505B2F371AE2175EE4913F4499E1F2633A7B5936321EED1CDAEB6115181D2 PUSH1 0x20 PUSH1 0x40 MLOAD PUSH1 0x1 DUP2 MSTORE LOG1 STOP JUMPDEST PUSH4 0x4E487B71 PUSH1 0xE0 SHL PUSH1 0x0 MSTORE PUSH1 0x41 PUSH1 0x4 MSTORE PUSH1 0x24 PUSH1 0x0 REVERT JUMPDEST PUSH2 0x19FF PUSH20 0xCEF5767039FA6A66016B802546F123E0C3DDEDC2 PUSH2 0x28E6 JUMP JUMPDEST PUSH1 0x1 SLOAD SWAP1 SSTORE DUP2 PUSH2 0x16A3 JUMP JUMPDEST TIMESTAMP SWAP1 SSTORE DUP4 PUSH2 0x1699 JUMP JUMPDEST PUSH10 0x152D02C7E14AF6800000 SWAP1 SSTORE DUP4 PUSH2 0x168C JUMP JUMPDEST DUP1 SLOAD PUSH1 0x1 PUSH1 0x1 PUSH1 0xA0 SHL SUB NOT AND PUSH20 0xCEF5767039FA6A66016B802546F123E0C3DDEDC2 SWAP1 DUP2 OR DUP3 SSTORE PUSH2 0x1A55 SWAP1 PUSH2 0x28C1 JUMP JUMPDEST PUSH2 0x1680 JUMP JUMPDEST PUSH1 0x1 PUSH1 0x1 PUSH1 0x48 SHL SUB NOT AND PUSH1 0x1 PUSH1 0x1 PUSH1 0x40 SHL ADD OR PUSH1 0x0 DUP1 MLOAD PUSH1 0x20 PUSH2 0x388D DUP4 CODECOPY DUP2 MLOAD SWAP2 MSTORE SSTORE DUP2 PUSH2 0x162C JUMP JUMPDEST PUSH4 0xF92EE8A9 PUSH1 0xE0 SHL PUSH1 0x0 MSTORE PUSH1 0x4 PUSH1 0x0 REVERT JUMPDEST SWAP1 POP ISZERO DUP4 PUSH2 0x1603 JUMP JUMPDEST ADDRESS EXTCODESIZE ISZERO SWAP2 POP PUSH2 0x15FB JUMP JUMPDEST DUP4 SWAP2 POP PUSH2 0x15F1 JUMP JUMPDEST CALLVALUE PUSH2 0x4ED JUMPI PUSH1 0x0 CALLDATASIZE PUSH1 0x3 NOT ADD SLT PUSH2 0x4ED JUMPI PUSH1 0x40 MLOAD PUSH1 0x1 SLOAD DUP1 DUP3 MSTORE PUSH1 0x20 DUP3 ADD SWAP1 PUSH1 0x1 PUSH1 0x0 MSTORE PUSH1 0x20 PUSH1 0x0 KECCAK256 SWAP1 PUSH1 0x0 JUMPDEST DUP2 DUP2 LT PUSH2 0x1AF3 JUMPI PUSH2 0xAD6 DUP6 PUSH2 0xC94 DUP2 DUP8 SUB DUP3 PUSH2 0x2621 JUMP JUMPDEST DUP3 SLOAD PUSH1 0x1 PUSH1 0x1 PUSH1 0xA0 SHL SUB AND DUP5 MSTORE PUSH1 0x20 SWAP1 SWAP4 ADD SWAP3 PUSH1 0x1 SWAP3 DUP4 ADD SWAP3 ADD PUSH2 0x1ADC JUMP JUMPDEST CALLVALUE PUSH2 0x4ED JUMPI PUSH1 0x0 CALLDATASIZE PUSH1 0x3 NOT ADD SLT PUSH2 0x4ED JUMPI PUSH2 0x1B2B PUSH2 0x2BEB JUMP JUMPDEST PUSH1 0x0 DUP1 MLOAD PUSH1 0x20 PUSH2 0x37ED DUP4 CODECOPY DUP2 MLOAD SWAP2 MSTORE DUP1 SLOAD PUSH1 0x1 PUSH1 0x1 PUSH1 0xA0 SHL SUB NOT DUP2 AND SWAP1 SWAP2 SSTORE PUSH1 0x0 SWAP1 PUSH1 0x1 PUSH1 0x1 PUSH1 0xA0 SHL SUB AND PUSH1 0x0 DUP1 MLOAD PUSH1 0x20 PUSH2 0x384D DUP4 CODECOPY DUP2 MLOAD SWAP2 MSTORE DUP3 DUP1 LOG3 STOP JUMPDEST CALLVALUE PUSH2 0x4ED JUMPI PUSH1 0x20 CALLDATASIZE PUSH1 0x3 NOT ADD SLT PUSH2 0x4ED JUMPI PUSH1 0x20 PUSH2 0x1B88 PUSH2 0x102A PUSH2 0x2581 JUMP JUMPDEST PUSH1 0x40 MLOAD SWAP1 DUP2 MSTORE RETURN JUMPDEST CALLVALUE PUSH2 0x4ED JUMPI PUSH1 0x40 CALLDATASIZE PUSH1 0x3 NOT ADD SLT PUSH2 0x4ED JUMPI PUSH2 0x1BA9 PUSH2 0x2581 JUMP JUMPDEST PUSH1 0x24 CALLDATALOAD DUP1 ISZERO ISZERO DUP1 SWAP2 SUB PUSH2 0x4ED JUMPI PUSH2 0x1BBE PUSH2 0x2BEB JUMP JUMPDEST PUSH1 0x1 PUSH1 0x1 PUSH1 0xA0 SHL SUB DUP3 AND PUSH1 0x0 DUP2 DUP2 MSTORE PUSH1 0x14 PUSH1 0x20 MSTORE PUSH1 0x40 SWAP1 KECCAK256 SLOAD SWAP1 SWAP2 SWAP1 PUSH1 0xFF AND ISZERO ISZERO DUP2 EQ PUSH2 0x1D6B JUMPI PUSH1 0x1 SWAP1 DUP3 PUSH1 0x0 MSTORE PUSH1 0x14 PUSH1 0x20 MSTORE PUSH1 0x40 PUSH1 0x0 KECCAK256 PUSH1 0xFF NOT DUP2 SLOAD AND PUSH1 0xFF DUP4 AND OR SWAP1 SSTORE EQ PUSH1 0x0 EQ PUSH2 0x1C55 JUMPI POP PUSH1 0x11 SLOAD SWAP1 PUSH1 0x1 PUSH1 0x40 SHL DUP3 LT ISZERO PUSH2 0x19CC JUMPI PUSH2 0x1C31 DUP3 PUSH1 0x1 PUSH2 0x1B SWAP5 ADD PUSH1 0x11 SSTORE PUSH1 0x11 PUSH2 0x28A9 JUMP JUMPDEST SWAP1 DUP1 SLOAD PUSH1 0x1 PUSH1 0x1 PUSH1 0xA0 SHL SUB PUSH1 0x3 SWAP4 SWAP1 SWAP4 SHL DUP4 DUP2 SHL NOT SWAP1 SWAP2 AND SWAP3 SWAP1 SWAP4 AND SWAP1 SWAP3 SHL OR SWAP1 SSTORE JUMP JUMPDEST SWAP1 POP PUSH2 0x1C5F PUSH2 0x26F7 JUMP JUMPDEST DUP1 MLOAD PUSH1 0x0 JUMPDEST DUP2 DUP2 LT PUSH2 0x1C6D JUMPI STOP JUMPDEST DUP4 PUSH1 0x1 PUSH1 0x1 PUSH1 0xA0 SHL SUB PUSH2 0x1C80 DUP4 DUP7 PUSH2 0x2864 JUMP JUMPDEST MLOAD AND EQ PUSH2 0x1C90 JUMPI JUMPDEST PUSH1 0x1 ADD PUSH2 0x1C64 JUMP JUMPDEST PUSH1 0x0 NOT DUP3 ADD DUP3 DUP2 GT PUSH2 0xF68 JUMPI PUSH1 0x1 PUSH1 0x1 PUSH1 0xA0 SHL SUB SWAP1 PUSH2 0x1CAF SWAP1 DUP6 PUSH2 0x2864 JUMP JUMPDEST MLOAD AND PUSH1 0x0 PUSH1 0x11 SLOAD DUP4 LT ISZERO PUSH2 0x1D57 JUMPI PUSH1 0x11 SWAP1 DUP2 SWAP1 MSTORE PUSH32 0x31ECC21A745E3968A04E9570E4425BC18FA8019C68028196B546D1669C200C68 DUP4 ADD DUP1 SLOAD PUSH1 0x1 PUSH1 0x1 PUSH1 0xA0 SHL SUB NOT AND PUSH1 0x1 PUSH1 0x1 PUSH1 0xA0 SHL SUB SWAP1 SWAP4 AND SWAP3 SWAP1 SWAP3 OR SWAP1 SWAP2 SSTORE SLOAD PUSH1 0x0 DUP2 ISZERO PUSH2 0x1D43 JUMPI POP PUSH1 0x1 SWAP2 SWAP1 PUSH1 0x0 NOT ADD PUSH2 0x1D39 PUSH2 0x1D24 DUP3 PUSH1 0x11 PUSH2 0x28A9 JUMP JUMPDEST DUP2 SLOAD SWAP1 PUSH1 0x1 DUP1 PUSH1 0xA0 SHL SUB SWAP1 PUSH1 0x3 SHL SHL NOT AND SWAP1 SSTORE JUMP JUMPDEST PUSH1 0x11 SSTORE SWAP1 POP PUSH2 0x1C88 JUMP JUMPDEST PUSH4 0x4E487B71 PUSH1 0xE0 SHL DUP2 MSTORE PUSH1 0x31 PUSH1 0x4 MSTORE PUSH1 0x24 SWAP1 REVERT JUMPDEST PUSH4 0x4E487B71 PUSH1 0xE0 SHL DUP2 MSTORE PUSH1 0x32 PUSH1 0x4 MSTORE PUSH1 0x24 SWAP1 REVERT JUMPDEST PUSH1 0x40 MLOAD PUSH3 0x461BCD PUSH1 0xE5 SHL DUP2 MSTORE PUSH1 0x20 PUSH1 0x4 DUP3 ADD MSTORE PUSH1 0x12 PUSH1 0x24 DUP3 ADD MSTORE PUSH18 0x14DD185D1D5CC8185B1C9958591E481CD95D PUSH1 0x72 SHL PUSH1 0x44 DUP3 ADD MSTORE PUSH1 0x64 SWAP1 REVERT JUMPDEST CALLVALUE PUSH2 0x4ED JUMPI PUSH1 0x0 CALLDATASIZE PUSH1 0x3 NOT ADD SLT PUSH2 0x4ED JUMPI PUSH1 0xFF PUSH1 0x0 DUP1 JUMPDEST DUP3 DUP3 AND PUSH1 0x32 DUP2 LT ISZERO PUSH2 0x1F0A JUMPI PUSH1 0x0 MSTORE PUSH1 0x13 PUSH1 0x20 MSTORE DUP3 PUSH1 0x40 PUSH1 0x0 KECCAK256 SLOAD AND ISZERO PUSH2 0x1DF2 JUMPI PUSH1 0x1 PUSH2 0x1DE9 DUP5 SWAP3 PUSH2 0x292E JUMP JUMPDEST SWAP3 ADD AND SWAP1 PUSH2 0x1DBC JUMP JUMPDEST SWAP1 POP JUMPDEST AND PUSH2 0x1DFF DUP2 PUSH2 0x27F4 JUMP JUMPDEST SWAP1 PUSH2 0x1E0D PUSH1 0x40 MLOAD SWAP3 DUP4 PUSH2 0x2621 JUMP JUMPDEST DUP1 DUP3 MSTORE PUSH1 0x1F NOT PUSH2 0x1E1C DUP3 PUSH2 0x27F4 JUMP JUMPDEST ADD PUSH1 0x0 JUMPDEST DUP2 DUP2 LT PUSH2 0x1EE5 JUMPI POP POP PUSH1 0x0 JUMPDEST PUSH1 0xFF DUP2 AND DUP3 DUP2 LT ISZERO PUSH2 0x1E83 JUMPI PUSH1 0xFF SWAP2 PUSH2 0x1E7B DUP3 PUSH1 0x1 SWAP4 PUSH1 0x0 MSTORE PUSH1 0x13 PUSH1 0x20 MSTORE PUSH1 0x40 PUSH1 0x0 KECCAK256 DUP5 PUSH1 0x40 MLOAD SWAP2 PUSH2 0x1E5D DUP4 PUSH2 0x2606 JUMP JUMPDEST DUP8 DUP2 SLOAD AND DUP4 MSTORE ADD SLOAD PUSH1 0x20 DUP3 ADD MSTORE PUSH2 0x1E74 DUP3 DUP10 PUSH2 0x2864 JUMP JUMPDEST MSTORE DUP7 PUSH2 0x2864 JUMP JUMPDEST POP ADD AND PUSH2 0x1E2C JUMP JUMPDEST DUP3 DUP5 PUSH1 0x40 MLOAD SWAP1 PUSH1 0x40 DUP3 ADD SWAP3 PUSH1 0x40 DUP4 MSTORE DUP2 MLOAD DUP1 SWAP5 MSTORE PUSH1 0x20 PUSH1 0x60 DUP5 ADD SWAP3 ADD PUSH1 0x0 SWAP5 JUMPDEST DUP1 DUP7 LT PUSH2 0x1EB8 JUMPI POP POP DUP3 SWAP4 POP PUSH1 0x20 DUP4 ADD MSTORE SUB SWAP1 RETURN JUMPDEST SWAP1 SWAP3 PUSH1 0x20 PUSH1 0x40 DUP3 PUSH2 0x1ED9 PUSH1 0x1 SWAP5 DUP9 MLOAD PUSH1 0x20 DUP1 SWAP2 PUSH1 0xFF DUP2 MLOAD AND DUP5 MSTORE ADD MLOAD SWAP2 ADD MSTORE JUMP JUMPDEST ADD SWAP5 ADD SWAP6 ADD SWAP5 SWAP1 PUSH2 0x1EA3 JUMP JUMPDEST PUSH1 0x20 SWAP1 PUSH1 0x40 MLOAD PUSH2 0x1EF4 DUP2 PUSH2 0x2606 JUMP JUMPDEST PUSH1 0x0 DUP2 MSTORE PUSH1 0x0 DUP4 DUP3 ADD MSTORE DUP3 DUP3 DUP8 ADD ADD MSTORE ADD PUSH2 0x1E20 JUMP JUMPDEST POP SWAP1 POP PUSH2 0x1DF5 JUMP JUMPDEST CALLVALUE PUSH2 0x4ED JUMPI PUSH1 0x0 CALLDATASIZE PUSH1 0x3 NOT ADD SLT PUSH2 0x4ED JUMPI PUSH32 0x0 PUSH1 0x1 PUSH1 0x1 PUSH1 0xA0 SHL SUB AND ADDRESS SUB PUSH2 0x1F6B JUMPI PUSH1 0x20 PUSH1 0x40 MLOAD PUSH1 0x0 DUP1 MLOAD PUSH1 0x20 PUSH2 0x380D DUP4 CODECOPY DUP2 MLOAD SWAP2 MSTORE DUP2 MSTORE RETURN JUMPDEST PUSH4 0x703E46DD PUSH1 0xE1 SHL PUSH1 0x0 MSTORE PUSH1 0x4 PUSH1 0x0 REVERT JUMPDEST PUSH1 0x40 CALLDATASIZE PUSH1 0x3 NOT ADD SLT PUSH2 0x4ED JUMPI PUSH2 0x1F90 PUSH2 0x2581 JUMP JUMPDEST PUSH1 0x24 CALLDATALOAD SWAP1 PUSH1 0x1 PUSH1 0x1 PUSH1 0x40 SHL SUB DUP3 GT PUSH2 0x4ED JUMPI CALLDATASIZE PUSH1 0x23 DUP4 ADD SLT ISZERO PUSH2 0x4ED JUMPI DUP2 PUSH1 0x4 ADD CALLDATALOAD SWAP1 PUSH2 0x1FBC DUP3 PUSH2 0x2644 JUMP JUMPDEST SWAP2 PUSH2 0x1FCA PUSH1 0x40 MLOAD SWAP4 DUP5 PUSH2 0x2621 JUMP JUMPDEST DUP1 DUP4 MSTORE PUSH1 0x20 DUP4 ADD SWAP4 CALLDATASIZE PUSH1 0x24 DUP4 DUP4 ADD ADD GT PUSH2 0x4ED JUMPI DUP2 PUSH1 0x0 SWAP3 PUSH1 0x24 PUSH1 0x20 SWAP4 ADD DUP8 CALLDATACOPY DUP5 ADD ADD MSTORE PUSH1 0x1 PUSH1 0x1 PUSH1 0xA0 SHL SUB PUSH32 0x0 AND ADDRESS DUP2 EQ SWAP1 DUP2 ISZERO PUSH2 0x2199 JUMPI JUMPDEST POP PUSH2 0x1F6B JUMPI PUSH2 0x2030 PUSH2 0x2BEB JUMP JUMPDEST PUSH1 0x40 MLOAD PUSH4 0x52D1902D PUSH1 0xE0 SHL DUP2 MSTORE PUSH1 0x1 PUSH1 0x1 PUSH1 0xA0 SHL SUB DUP3 AND SWAP4 SWAP1 PUSH1 0x20 DUP2 PUSH1 0x4 DUP2 DUP9 GAS STATICCALL PUSH1 0x0 SWAP2 DUP2 PUSH2 0x2165 JUMPI JUMPDEST POP PUSH2 0x2075 JUMPI DUP5 PUSH4 0x4C9C8CE3 PUSH1 0xE0 SHL PUSH1 0x0 MSTORE PUSH1 0x4 MSTORE PUSH1 0x24 PUSH1 0x0 REVERT JUMPDEST DUP1 PUSH1 0x0 DUP1 MLOAD PUSH1 0x20 PUSH2 0x380D DUP4 CODECOPY DUP2 MLOAD SWAP2 MSTORE DUP7 SWAP3 SUB PUSH2 0x2151 JUMPI POP DUP3 EXTCODESIZE ISZERO PUSH2 0x213D JUMPI PUSH1 0x0 DUP1 MLOAD PUSH1 0x20 PUSH2 0x380D DUP4 CODECOPY DUP2 MLOAD SWAP2 MSTORE DUP1 SLOAD PUSH1 0x1 PUSH1 0x1 PUSH1 0xA0 SHL SUB NOT AND DUP3 OR SWAP1 SSTORE PUSH32 0xBC7CD75A20EE27FD9ADEBAB32041F755214DBC6BFFA90CC0225B39DA2E5C2D3B PUSH1 0x0 DUP1 LOG2 DUP3 MLOAD ISZERO PUSH2 0x2122 JUMPI PUSH1 0x0 DUP1 SWAP2 PUSH2 0x1B SWAP5 MLOAD SWAP1 DUP5 GAS DELEGATECALL RETURNDATASIZE ISZERO PUSH2 0x211A JUMPI RETURNDATASIZE SWAP2 PUSH2 0x20FD DUP4 PUSH2 0x2644 JUMP JUMPDEST SWAP3 PUSH2 0x210B PUSH1 0x40 MLOAD SWAP5 DUP6 PUSH2 0x2621 JUMP JUMPDEST DUP4 MSTORE RETURNDATASIZE PUSH1 0x0 PUSH1 0x20 DUP6 ADD RETURNDATACOPY PUSH2 0x378B JUMP JUMPDEST PUSH1 0x60 SWAP2 PUSH2 0x378B JUMP JUMPDEST POP POP POP CALLVALUE PUSH2 0x212C JUMPI STOP JUMPDEST PUSH4 0xB398979F PUSH1 0xE0 SHL PUSH1 0x0 MSTORE PUSH1 0x4 PUSH1 0x0 REVERT JUMPDEST PUSH4 0x4C9C8CE3 PUSH1 0xE0 SHL PUSH1 0x0 MSTORE PUSH1 0x4 MSTORE PUSH1 0x24 PUSH1 0x0 REVERT JUMPDEST PUSH4 0x2A875269 PUSH1 0xE2 SHL PUSH1 0x0 MSTORE PUSH1 0x4 MSTORE PUSH1 0x24 PUSH1 0x0 REVERT JUMPDEST SWAP1 SWAP2 POP PUSH1 0x20 DUP2 RETURNDATASIZE PUSH1 0x20 GT PUSH2 0x2191 JUMPI JUMPDEST DUP2 PUSH2 0x2181 PUSH1 0x20 SWAP4 DUP4 PUSH2 0x2621 JUMP JUMPDEST DUP2 ADD SUB SLT PUSH2 0x4ED JUMPI MLOAD SWAP1 DUP7 PUSH2 0x205B JUMP JUMPDEST RETURNDATASIZE SWAP2 POP PUSH2 0x2174 JUMP JUMPDEST PUSH1 0x0 DUP1 MLOAD PUSH1 0x20 PUSH2 0x380D DUP4 CODECOPY DUP2 MLOAD SWAP2 MSTORE SLOAD PUSH1 0x1 PUSH1 0x1 PUSH1 0xA0 SHL SUB AND EQ ISZERO SWAP1 POP DUP5 PUSH2 0x2023 JUMP JUMPDEST CALLVALUE PUSH2 0x4ED JUMPI PUSH1 0x0 CALLDATASIZE PUSH1 0x3 NOT ADD SLT PUSH2 0x4ED JUMPI PUSH1 0x6 SLOAD PUSH1 0x10 SLOAD PUSH1 0x8 SLOAD PUSH1 0xE SLOAD PUSH1 0xF SLOAD PUSH1 0x40 DUP1 MLOAD PUSH1 0x1 PUSH1 0x1 PUSH1 0xA0 SHL SUB DUP1 DUP9 AND DUP3 MSTORE PUSH1 0xA0 SWAP8 DUP9 SHR PUSH1 0xFF SWAP1 DUP2 AND PUSH1 0x20 DUP5 ADD MSTORE SWAP7 DUP2 AND SWAP3 DUP3 ADD SWAP3 SWAP1 SWAP3 MSTORE SWAP4 SWAP1 SWAP5 AND PUSH1 0x60 DUP5 ADD MSTORE SWAP3 AND PUSH1 0x80 DUP3 ADD MSTORE SWAP2 DUP3 ADD MSTORE PUSH1 0xC0 SWAP1 RETURN JUMPDEST CALLVALUE PUSH2 0x4ED JUMPI PUSH1 0x20 CALLDATASIZE PUSH1 0x3 NOT ADD SLT PUSH2 0x4ED JUMPI PUSH1 0x1 PUSH1 0x1 PUSH1 0xA0 SHL SUB PUSH2 0x2240 PUSH2 0x2581 JUMP JUMPDEST AND PUSH1 0x0 MSTORE PUSH1 0x14 PUSH1 0x20 MSTORE PUSH1 0x20 PUSH1 0xFF PUSH1 0x40 PUSH1 0x0 KECCAK256 SLOAD AND PUSH1 0x40 MLOAD SWAP1 ISZERO ISZERO DUP2 MSTORE RETURN JUMPDEST CALLVALUE PUSH2 0x4ED JUMPI PUSH1 0x0 CALLDATASIZE PUSH1 0x3 NOT ADD SLT PUSH2 0x4ED JUMPI PUSH2 0xAD6 PUSH2 0xC94 PUSH2 0x26F7 JUMP JUMPDEST CALLVALUE PUSH2 0x4ED JUMPI PUSH1 0x20 CALLDATASIZE PUSH1 0x3 NOT ADD SLT PUSH2 0x4ED JUMPI PUSH2 0x2293 PUSH2 0x2581 JUMP JUMPDEST PUSH1 0x1 DUP1 PUSH1 0xA0 SHL SUB DUP2 AND PUSH1 0x0 MSTORE PUSH1 0x14 PUSH1 0x20 MSTORE PUSH1 0x1 PUSH1 0xFF PUSH1 0x40 PUSH1 0x0 KECCAK256 SLOAD AND ISZERO ISZERO SUB PUSH2 0x22F0 JUMPI PUSH1 0xF SLOAD SWAP1 PUSH8 0xDE0B6B3A7640000 DUP3 MUL SWAP2 DUP1 DUP4 DIV PUSH8 0xDE0B6B3A7640000 EQ SWAP1 ISZERO OR ISZERO PUSH2 0xF68 JUMPI PUSH1 0x20 SWAP2 PUSH2 0x22EA PUSH2 0x1B88 SWAP3 PUSH2 0x2AE4 JUMP JUMPDEST SWAP1 PUSH2 0x282B JUMP JUMPDEST PUSH1 0x40 MLOAD PUSH3 0x461BCD PUSH1 0xE5 SHL DUP2 MSTORE PUSH1 0x20 PUSH1 0x4 DUP3 ADD MSTORE PUSH1 0x38 PUSH1 0x24 DUP3 ADD MSTORE PUSH32 0x506C6561736520636865636B2074686520636861696E4C696E6B4F7261636C65 PUSH1 0x44 DUP3 ADD MSTORE PUSH24 0x1059191C995CDCC81BDC881B9BDD081CDD5C1C1BDC9D1959 PUSH1 0x42 SHL PUSH1 0x64 DUP3 ADD MSTORE PUSH1 0x84 SWAP1 REVERT JUMPDEST CALLVALUE PUSH2 0x4ED JUMPI PUSH1 0x20 CALLDATASIZE PUSH1 0x3 NOT ADD SLT PUSH2 0x4ED JUMPI PUSH1 0x1 PUSH1 0x1 PUSH1 0xA0 SHL SUB PUSH2 0x2377 PUSH2 0x2581 JUMP JUMPDEST AND PUSH1 0x0 MSTORE PUSH1 0x12 PUSH1 0x20 MSTORE PUSH1 0x40 PUSH1 0x0 KECCAK256 PUSH1 0x40 MLOAD SWAP1 PUSH2 0x2392 DUP3 PUSH2 0x25EA JUMP JUMPDEST DUP1 SLOAD PUSH1 0x1 PUSH1 0x1 PUSH1 0xA0 SHL SUB SWAP1 DUP2 AND DUP4 MSTORE PUSH1 0x1 DUP3 ADD SLOAD DUP2 AND PUSH1 0x20 DUP5 ADD MSTORE PUSH1 0x2 DUP3 ADD SLOAD AND PUSH1 0x40 DUP4 ADD MSTORE PUSH2 0x23C4 PUSH1 0x3 DUP3 ADD PUSH2 0x27A0 JUMP JUMPDEST PUSH1 0x60 DUP4 ADD MSTORE PUSH1 0x4 DUP2 ADD DUP1 SLOAD PUSH2 0x23D8 DUP2 PUSH2 0x27F4 JUMP JUMPDEST SWAP2 PUSH2 0x23E6 PUSH1 0x40 MLOAD SWAP4 DUP5 PUSH2 0x2621 JUMP JUMPDEST DUP2 DUP4 MSTORE PUSH1 0x20 DUP4 ADD SWAP1 PUSH1 0x0 MSTORE PUSH1 0x20 PUSH1 0x0 KECCAK256 PUSH1 0x0 SWAP2 JUMPDEST DUP4 DUP4 LT PUSH2 0x250B JUMPI POP POP POP POP PUSH1 0x80 DUP4 ADD MSTORE PUSH1 0x5 DUP2 ADD DUP1 SLOAD PUSH2 0x2419 DUP2 PUSH2 0x27F4 JUMP JUMPDEST SWAP2 PUSH2 0x2427 PUSH1 0x40 MLOAD SWAP4 DUP5 PUSH2 0x2621 JUMP JUMPDEST DUP2 DUP4 MSTORE PUSH1 0x20 DUP4 ADD SWAP1 PUSH1 0x0 MSTORE PUSH1 0x20 PUSH1 0x0 KECCAK256 PUSH1 0x0 SWAP2 JUMPDEST DUP4 DUP4 LT PUSH2 0x24D5 JUMPI POP POP POP POP PUSH1 0xA0 DUP4 ADD MSTORE PUSH1 0x6 DUP2 ADD SLOAD PUSH1 0xC0 DUP4 ADD MSTORE PUSH1 0x7 DUP2 ADD SLOAD PUSH1 0xE0 DUP4 ADD MSTORE PUSH1 0xFF PUSH1 0x8 DUP3 ADD SLOAD AND PUSH2 0x100 DUP4 ADD MSTORE PUSH1 0x9 DUP2 ADD SLOAD PUSH2 0x120 DUP4 ADD MSTORE PUSH1 0xA DUP2 ADD SLOAD PUSH2 0x140 DUP4 ADD MSTORE PUSH2 0xAD6 PUSH1 0xB DUP3 ADD SLOAD SWAP2 DUP3 PUSH2 0x160 DUP6 ADD MSTORE PUSH1 0xC DUP2 ADD SLOAD SWAP4 DUP5 PUSH2 0x180 DUP3 ADD MSTORE PUSH2 0x1E0 PUSH1 0xF PUSH1 0xD DUP5 ADD SLOAD SWAP4 DUP5 PUSH2 0x1A0 DUP6 ADD MSTORE PUSH1 0xE DUP2 ADD SLOAD PUSH2 0x1C0 DUP6 ADD MSTORE ADD SLOAD SWAP2 ADD MSTORE PUSH2 0xAB2 DUP2 PUSH2 0x24D0 DUP7 DUP7 PUSH2 0x280B JUMP JUMPDEST PUSH2 0x280B JUMP JUMPDEST PUSH1 0x1 PUSH1 0x20 DUP2 SWAP3 PUSH1 0x40 MLOAD PUSH2 0x24E7 DUP2 PUSH2 0x2606 JUMP JUMPDEST PUSH1 0xFF DUP7 SLOAD DUP6 DUP1 PUSH1 0xA0 SHL SUB DUP2 AND DUP4 MSTORE PUSH1 0xA0 SHR AND DUP4 DUP3 ADD MSTORE DUP2 MSTORE ADD SWAP3 ADD SWAP3 ADD SWAP2 SWAP1 PUSH2 0x243B JUMP JUMPDEST PUSH1 0x2 PUSH1 0x20 PUSH1 0x1 SWAP3 PUSH1 0x40 MLOAD PUSH2 0x251E DUP2 PUSH2 0x2606 JUMP JUMPDEST DUP5 DUP1 PUSH1 0xA0 SHL SUB DUP7 SLOAD AND DUP2 MSTORE DUP5 DUP1 PUSH1 0xA0 SHL SUB DUP6 DUP8 ADD SLOAD AND DUP4 DUP3 ADD MSTORE DUP2 MSTORE ADD SWAP3 ADD SWAP3 ADD SWAP2 SWAP1 PUSH2 0x23FA JUMP JUMPDEST CALLVALUE PUSH2 0x4ED JUMPI PUSH1 0x0 CALLDATASIZE PUSH1 0x3 NOT ADD SLT PUSH2 0x4ED JUMPI PUSH1 0x80 SWAP1 PUSH4 0xFFFFFFFF PUSH1 0x0 SLOAD AND PUSH1 0x2 SLOAD PUSH1 0x3 SLOAD SWAP1 PUSH1 0x5 SLOAD SWAP3 DUP5 MSTORE PUSH1 0x20 DUP5 ADD MSTORE PUSH1 0x40 DUP4 ADD MSTORE PUSH1 0x60 DUP3 ADD MSTORE RETURN JUMPDEST PUSH1 0x4 CALLDATALOAD SWAP1 PUSH1 0x1 PUSH1 0x1 PUSH1 0xA0 SHL SUB DUP3 AND DUP3 SUB PUSH2 0x4ED JUMPI JUMP JUMPDEST PUSH1 0x24 CALLDATALOAD SWAP1 PUSH1 0x1 PUSH1 0x1 PUSH1 0xA0 SHL SUB DUP3 AND DUP3 SUB PUSH2 0x4ED JUMPI JUMP JUMPDEST SWAP1 PUSH1 0x20 DUP1 DUP4 MLOAD SWAP3 DUP4 DUP2 MSTORE ADD SWAP3 ADD SWAP1 PUSH1 0x0 JUMPDEST DUP2 DUP2 LT PUSH2 0x25CB JUMPI POP POP POP SWAP1 JUMP JUMPDEST DUP3 MLOAD PUSH1 0x1 PUSH1 0x1 PUSH1 0xA0 SHL SUB AND DUP5 MSTORE PUSH1 0x20 SWAP4 DUP5 ADD SWAP4 SWAP1 SWAP3 ADD SWAP2 PUSH1 0x1 ADD PUSH2 0x25BE JUMP JUMPDEST PUSH2 0x200 DUP2 ADD SWAP1 DUP2 LT PUSH1 0x1 PUSH1 0x1 PUSH1 0x40 SHL SUB DUP3 GT OR PUSH2 0x19CC JUMPI PUSH1 0x40 MSTORE JUMP JUMPDEST PUSH1 0x40 DUP2 ADD SWAP1 DUP2 LT PUSH1 0x1 PUSH1 0x1 PUSH1 0x40 SHL SUB DUP3 GT OR PUSH2 0x19CC JUMPI PUSH1 0x40 MSTORE JUMP JUMPDEST PUSH1 0x1F SWAP1 SWAP2 ADD PUSH1 0x1F NOT AND DUP2 ADD SWAP1 PUSH1 0x1 PUSH1 0x1 PUSH1 0x40 SHL SUB DUP3 GT SWAP1 DUP3 LT OR PUSH2 0x19CC JUMPI PUSH1 0x40 MSTORE JUMP JUMPDEST PUSH1 0x1 PUSH1 0x1 PUSH1 0x40 SHL SUB DUP2 GT PUSH2 0x19CC JUMPI PUSH1 0x1F ADD PUSH1 0x1F NOT AND PUSH1 0x20 ADD SWAP1 JUMP JUMPDEST SWAP1 PUSH1 0x20 DUP1 DUP4 MLOAD SWAP3 DUP4 DUP2 MSTORE ADD SWAP3 ADD SWAP1 PUSH1 0x0 JUMPDEST DUP2 DUP2 LT PUSH2 0x267D JUMPI POP POP POP SWAP1 JUMP JUMPDEST DUP3 MLOAD DUP1 MLOAD PUSH1 0x1 PUSH1 0x1 PUSH1 0xA0 SHL SUB SWAP1 DUP2 AND DUP7 MSTORE PUSH1 0x20 SWAP2 DUP3 ADD MLOAD AND DUP2 DUP7 ADD MSTORE PUSH1 0x40 SWAP1 SWAP5 ADD SWAP4 SWAP1 SWAP3 ADD SWAP2 PUSH1 0x1 ADD PUSH2 0x2670 JUMP JUMPDEST SWAP1 PUSH1 0x20 DUP1 DUP4 MLOAD SWAP3 DUP4 DUP2 MSTORE ADD SWAP3 ADD SWAP1 PUSH1 0x0 JUMPDEST DUP2 DUP2 LT PUSH2 0x26C9 JUMPI POP POP POP SWAP1 JUMP JUMPDEST DUP3 MLOAD DUP1 MLOAD PUSH1 0x1 PUSH1 0x1 PUSH1 0xA0 SHL SUB AND DUP6 MSTORE PUSH1 0x20 SWAP1 DUP2 ADD MLOAD PUSH1 0xFF AND DUP2 DUP7 ADD MSTORE PUSH1 0x40 SWAP1 SWAP5 ADD SWAP4 SWAP1 SWAP3 ADD SWAP2 PUSH1 0x1 ADD PUSH2 0x26BC JUMP JUMPDEST PUSH1 0x40 MLOAD SWAP1 PUSH1 0x11 SLOAD DUP1 DUP4 MSTORE DUP3 PUSH1 0x20 DUP2 ADD PUSH1 0x11 PUSH1 0x0 MSTORE PUSH1 0x20 PUSH1 0x0 KECCAK256 SWAP3 PUSH1 0x0 JUMPDEST DUP2 DUP2 LT PUSH2 0x272B JUMPI POP POP PUSH2 0x2729 SWAP3 POP SUB DUP4 PUSH2 0x2621 JUMP JUMPDEST JUMP JUMPDEST DUP5 SLOAD PUSH1 0x1 PUSH1 0x1 PUSH1 0xA0 SHL SUB AND DUP4 MSTORE PUSH1 0x1 SWAP5 DUP6 ADD SWAP5 DUP8 SWAP5 POP PUSH1 0x20 SWAP1 SWAP4 ADD SWAP3 ADD PUSH2 0x2714 JUMP JUMPDEST PUSH1 0x40 MLOAD SWAP1 PUSH1 0x0 SLOAD DUP1 DUP4 MSTORE DUP3 PUSH1 0x20 DUP2 ADD PUSH1 0x0 DUP1 MSTORE PUSH1 0x20 PUSH1 0x0 KECCAK256 SWAP3 PUSH1 0x0 JUMPDEST DUP2 DUP2 LT PUSH2 0x277E JUMPI POP POP PUSH2 0x2729 SWAP3 POP SUB DUP4 PUSH2 0x2621 JUMP JUMPDEST DUP5 SLOAD PUSH1 0x1 PUSH1 0x1 PUSH1 0xA0 SHL SUB AND DUP4 MSTORE PUSH1 0x1 SWAP5 DUP6 ADD SWAP5 DUP8 SWAP5 POP PUSH1 0x20 SWAP1 SWAP4 ADD SWAP3 ADD PUSH2 0x2769 JUMP JUMPDEST SWAP1 PUSH1 0x40 MLOAD SWAP2 DUP3 DUP2 SLOAD SWAP2 DUP3 DUP3 MSTORE PUSH1 0x20 DUP3 ADD SWAP1 PUSH1 0x0 MSTORE PUSH1 0x20 PUSH1 0x0 KECCAK256 SWAP3 PUSH1 0x0 JUMPDEST DUP2 DUP2 LT PUSH2 0x27D2 JUMPI POP POP PUSH2 0x2729 SWAP3 POP SUB DUP4 PUSH2 0x2621 JUMP JUMPDEST DUP5 SLOAD PUSH1 0x1 PUSH1 0x1 PUSH1 0xA0 SHL SUB AND DUP4 MSTORE PUSH1 0x1 SWAP5 DUP6 ADD SWAP5 DUP8 SWAP5 POP PUSH1 0x20 SWAP1 SWAP4 ADD SWAP3 ADD PUSH2 0x27BD JUMP JUMPDEST PUSH1 0x1 PUSH1 0x1 PUSH1 0x40 SHL SUB DUP2 GT PUSH2 0x19CC JUMPI PUSH1 0x5 SHL PUSH1 0x20 ADD SWAP1 JUMP JUMPDEST SWAP2 SWAP1 DUP3 ADD DUP1 SWAP3 GT PUSH2 0xF68 JUMPI JUMP JUMPDEST DUP2 DUP2 MUL SWAP3 SWAP2 DUP2 ISZERO SWAP2 DUP5 DIV EQ OR ISZERO PUSH2 0xF68 JUMPI JUMP JUMPDEST DUP2 ISZERO PUSH2 0x2835 JUMPI DIV SWAP1 JUMP JUMPDEST PUSH4 0x4E487B71 PUSH1 0xE0 SHL PUSH1 0x0 MSTORE PUSH1 0x12 PUSH1 0x4 MSTORE PUSH1 0x24 PUSH1 0x0 REVERT JUMPDEST PUSH1 0x40 MLOAD SWAP1 PUSH2 0x2858 DUP3 PUSH2 0x2606 JUMP JUMPDEST PUSH1 0x0 PUSH1 0x20 DUP4 DUP3 DUP2 MSTORE ADD MSTORE JUMP JUMPDEST DUP1 MLOAD DUP3 LT ISZERO PUSH2 0x2878 JUMPI PUSH1 0x20 SWAP2 PUSH1 0x5 SHL ADD ADD SWAP1 JUMP JUMPDEST PUSH4 0x4E487B71 PUSH1 0xE0 SHL PUSH1 0x0 MSTORE PUSH1 0x32 PUSH1 0x4 MSTORE PUSH1 0x24 PUSH1 0x0 REVERT JUMPDEST PUSH1 0x1 SLOAD DUP2 LT ISZERO PUSH2 0x2878 JUMPI PUSH1 0x1 PUSH1 0x0 MSTORE PUSH1 0x20 PUSH1 0x0 KECCAK256 ADD SWAP1 PUSH1 0x0 SWAP1 JUMP JUMPDEST DUP1 SLOAD DUP3 LT ISZERO PUSH2 0x2878 JUMPI PUSH1 0x0 MSTORE PUSH1 0x20 PUSH1 0x0 KECCAK256 ADD SWAP1 PUSH1 0x0 SWAP1 JUMP JUMPDEST PUSH1 0x0 SLOAD SWAP1 PUSH1 0x1 PUSH1 0x40 SHL DUP3 LT ISZERO PUSH2 0x19CC JUMPI PUSH2 0x1C31 DUP3 PUSH1 0x1 PUSH2 0x2729 SWAP5 ADD PUSH1 0x0 SSTORE PUSH1 0x0 PUSH2 0x28A9 JUMP JUMPDEST PUSH1 0x1 SLOAD SWAP1 PUSH1 0x1 PUSH1 0x40 SHL DUP3 LT ISZERO PUSH2 0x19CC JUMPI PUSH2 0x1C31 DUP3 PUSH1 0x1 PUSH2 0x2729 SWAP5 ADD PUSH1 0x1 SSTORE PUSH1 0x1 PUSH2 0x28A9 JUMP JUMPDEST DUP1 SLOAD SWAP2 SWAP1 PUSH1 0x1 PUSH1 0x40 SHL DUP4 LT ISZERO PUSH2 0x19CC JUMPI DUP3 PUSH2 0x1C31 SWAP2 PUSH1 0x1 PUSH2 0x2729 SWAP6 ADD DUP2 SSTORE PUSH2 0x28A9 JUMP JUMPDEST PUSH1 0xFF AND PUSH1 0xFF DUP2 EQ PUSH2 0xF68 JUMPI PUSH1 0x1 ADD SWAP1 JUMP JUMPDEST PUSH1 0xFF PUSH1 0x1 SWAP2 AND ADD SWAP1 PUSH1 0xFF DUP3 GT PUSH2 0xF68 JUMPI JUMP JUMPDEST ISZERO PUSH2 0x2958 JUMPI JUMP JUMPDEST PUSH1 0x40 MLOAD PUSH3 0x461BCD PUSH1 0xE5 SHL DUP2 MSTORE PUSH1 0x20 PUSH1 0x4 DUP3 ADD MSTORE PUSH1 0x16 PUSH1 0x24 DUP3 ADD MSTORE PUSH22 0x10DD5C9C995B98DE481B9BDD081CDD5C1C1BDC9D1959 PUSH1 0x52 SHL PUSH1 0x44 DUP3 ADD MSTORE PUSH1 0x64 SWAP1 REVERT JUMPDEST ISZERO PUSH2 0x299D JUMPI JUMP JUMPDEST PUSH1 0x40 MLOAD PUSH3 0x461BCD PUSH1 0xE5 SHL DUP2 MSTORE PUSH1 0x20 PUSH1 0x4 DUP3 ADD MSTORE PUSH1 0x23 PUSH1 0x24 DUP3 ADD MSTORE PUSH32 0x5A65726F20416464726573732063616E6E6F7420626520746865207265666572 PUSH1 0x44 DUP3 ADD MSTORE PUSH3 0x3932B9 PUSH1 0xE9 SHL PUSH1 0x64 DUP3 ADD MSTORE PUSH1 0x84 SWAP1 REVERT JUMPDEST ISZERO PUSH2 0x29F5 JUMPI JUMP JUMPDEST PUSH1 0x40 MLOAD PUSH3 0x461BCD PUSH1 0xE5 SHL DUP2 MSTORE PUSH1 0x20 PUSH1 0x4 DUP3 ADD MSTORE PUSH1 0x23 PUSH1 0x24 DUP3 ADD MSTORE PUSH32 0x43757272656E637920596F752073656C6563746564206E6F7420737570706F72 PUSH1 0x44 DUP3 ADD MSTORE PUSH3 0x1D1959 PUSH1 0xEA SHL PUSH1 0x64 DUP3 ADD MSTORE PUSH1 0x84 SWAP1 REVERT JUMPDEST SWAP2 PUSH1 0x60 SWAP4 SWAP2 DUP4 MSTORE PUSH1 0x20 DUP4 ADD MSTORE PUSH1 0x40 DUP3 ADD MSTORE ADD SWAP1 JUMP JUMPDEST DUP2 ISZERO PUSH2 0x2835 JUMPI MOD SWAP1 JUMP JUMPDEST PUSH1 0x1 PUSH1 0x1 PUSH1 0xA0 SHL SUB SWAP1 SWAP2 AND DUP2 MSTORE PUSH1 0x20 DUP2 ADD SWAP2 SWAP1 SWAP2 MSTORE PUSH1 0x40 ADD SWAP1 JUMP JUMPDEST PUSH1 0x1 PUSH1 0x1 PUSH1 0xA0 SHL SUB AND DUP1 ISZERO PUSH2 0x2ACE JUMPI PUSH1 0x0 DUP1 MLOAD PUSH1 0x20 PUSH2 0x37ED DUP4 CODECOPY DUP2 MLOAD SWAP2 MSTORE DUP1 SLOAD PUSH1 0x1 PUSH1 0x1 PUSH1 0xA0 SHL SUB NOT DUP2 AND DUP4 OR SWAP1 SWAP2 SSTORE PUSH1 0x1 PUSH1 0x1 PUSH1 0xA0 SHL SUB AND PUSH1 0x0 DUP1 MLOAD PUSH1 0x20 PUSH2 0x384D DUP4 CODECOPY DUP2 MLOAD SWAP2 MSTORE PUSH1 0x0 DUP1 LOG3 JUMP JUMPDEST PUSH4 0x1E4FBDF7 PUSH1 0xE0 SHL PUSH1 0x0 MSTORE PUSH1 0x0 PUSH1 0x4 MSTORE PUSH1 0x24 PUSH1 0x0 REVERT JUMPDEST PUSH1 0x40 MLOAD PUSH4 0x50D25BCD PUSH1 0xE0 SHL DUP2 MSTORE SWAP1 PUSH1 0x1 PUSH1 0x1 PUSH1 0xA0 SHL SUB AND PUSH1 0x20 DUP3 PUSH1 0x4 DUP2 DUP5 GAS STATICCALL SWAP2 DUP3 ISZERO PUSH2 0xEE5 JUMPI PUSH1 0x0 SWAP3 PUSH2 0x2BB6 JUMPI JUMPDEST POP PUSH1 0x20 PUSH1 0x4 SWAP2 PUSH1 0x40 MLOAD SWAP3 DUP4 DUP1 SWAP3 PUSH4 0x313CE567 PUSH1 0xE0 SHL DUP3 MSTORE GAS STATICCALL SWAP1 DUP2 ISZERO PUSH2 0xEE5 JUMPI PUSH1 0x0 SWAP2 PUSH2 0x2B72 JUMPI JUMPDEST POP PUSH1 0xFF AND SWAP1 PUSH8 0xDE0B6B3A7640000 SWAP1 DUP2 DUP2 MUL SWAP2 DUP2 DUP4 DIV EQ SWAP1 ISZERO OR ISZERO PUSH2 0xF68 JUMPI PUSH1 0x4D DUP3 GT PUSH2 0xF68 JUMPI PUSH2 0x2B6F SWAP2 PUSH1 0xA EXP SWAP1 PUSH2 0x282B JUMP JUMPDEST SWAP1 JUMP JUMPDEST PUSH1 0x20 DUP2 RETURNDATASIZE PUSH1 0x20 GT PUSH2 0x2BAE JUMPI JUMPDEST DUP2 PUSH2 0x2B8B PUSH1 0x20 SWAP4 DUP4 PUSH2 0x2621 JUMP JUMPDEST DUP2 ADD SUB SLT PUSH2 0x2BAA JUMPI MLOAD SWAP1 PUSH1 0xFF DUP3 AND DUP3 SUB PUSH2 0x2BA7 JUMPI POP PUSH1 0xFF PUSH2 0x2B3B JUMP JUMPDEST DUP1 REVERT JUMPDEST POP DUP1 REVERT JUMPDEST RETURNDATASIZE SWAP2 POP PUSH2 0x2B7E JUMP JUMPDEST SWAP1 SWAP2 PUSH1 0x20 DUP3 RETURNDATASIZE PUSH1 0x20 GT PUSH2 0x2BE3 JUMPI JUMPDEST DUP2 PUSH2 0x2BD1 PUSH1 0x20 SWAP4 DUP4 PUSH2 0x2621 JUMP JUMPDEST DUP2 ADD SUB SLT PUSH2 0x2BA7 JUMPI POP MLOAD SWAP1 PUSH1 0x20 PUSH2 0x2B13 JUMP JUMPDEST RETURNDATASIZE SWAP2 POP PUSH2 0x2BC4 JUMP JUMPDEST PUSH1 0x0 DUP1 MLOAD PUSH1 0x20 PUSH2 0x37ED DUP4 CODECOPY DUP2 MLOAD SWAP2 MSTORE SLOAD PUSH1 0x1 PUSH1 0x1 PUSH1 0xA0 SHL SUB AND CALLER SUB PUSH2 0x2C0C JUMPI JUMP JUMPDEST PUSH4 0x118CDAA7 PUSH1 0xE0 SHL PUSH1 0x0 MSTORE CALLER PUSH1 0x4 MSTORE PUSH1 0x24 PUSH1 0x0 REVERT JUMPDEST PUSH1 0x1 PUSH1 0x1 PUSH1 0xA0 SHL SUB SWAP2 DUP3 AND DUP2 MSTORE SWAP2 AND PUSH1 0x20 DUP3 ADD MSTORE PUSH1 0x40 DUP2 ADD SWAP2 SWAP1 SWAP2 MSTORE PUSH1 0x60 ADD SWAP1 JUMP JUMPDEST PUSH1 0xF SLOAD PUSH1 0x61 DUP2 MUL SWAP1 DUP1 DUP3 DIV PUSH1 0x61 EQ SWAP1 ISZERO OR ISZERO PUSH2 0xF68 JUMPI PUSH1 0x64 SWAP1 DIV DUP4 LT PUSH2 0x3568 JUMPI PUSH1 0xC SLOAD PUSH1 0xFF DUP1 DUP3 AND SWAP2 PUSH1 0x8 SHR AND SWAP3 PUSH1 0x1 DUP1 PUSH1 0xA0 SHL SUB DUP2 AND SWAP2 DUP3 PUSH1 0x0 MSTORE PUSH1 0x12 PUSH1 0x20 MSTORE PUSH1 0x40 PUSH1 0x0 KECCAK256 SWAP5 PUSH1 0x1 DUP1 PUSH1 0xA0 SHL SUB DUP6 AND DUP1 PUSH1 0x0 MSTORE PUSH1 0x12 PUSH1 0x20 MSTORE PUSH1 0x40 PUSH1 0x0 KECCAK256 PUSH1 0x6 DUP9 ADD SWAP7 DUP8 SLOAD PUSH2 0x3529 JUMPI PUSH1 0x6 DUP3 ADD SLOAD ISZERO PUSH2 0x34EE JUMPI DUP9 SLOAD PUSH1 0x1 PUSH1 0x1 PUSH1 0xA0 SHL SUB AND ISZERO PUSH2 0x34D0 JUMPI JUMPDEST DUP2 SLOAD PUSH1 0x1 PUSH1 0x1 PUSH1 0xA0 SHL SUB AND ISZERO PUSH2 0x34AF JUMPI JUMPDEST POP POP PUSH1 0xD SLOAD PUSH1 0x2 DUP9 ADD DUP1 SLOAD SWAP1 SWAP6 SWAP1 PUSH1 0x1 PUSH1 0x1 PUSH1 0xA0 SHL SUB AND PUSH2 0x344E JUMPI DUP7 PUSH1 0x0 MSTORE PUSH1 0x12 PUSH1 0x20 MSTORE PUSH1 0x40 PUSH1 0x0 KECCAK256 SWAP3 DUP8 DUP2 EQ PUSH2 0x340C JUMPI PUSH1 0x0 DUP2 PUSH2 0x33FB JUMPI POP POP PUSH1 0xE SLOAD PUSH1 0x1 PUSH1 0x1 PUSH1 0xA0 SHL SUB AND PUSH1 0x0 SWAP1 DUP2 MSTORE PUSH1 0x12 PUSH1 0x20 MSTORE PUSH1 0x40 SWAP1 KECCAK256 SWAP2 JUMPDEST PUSH1 0x3 DUP4 ADD PUSH2 0x2D3D DUP3 DUP3 SLOAD PUSH2 0x360D JUMP JUMPDEST ISZERO PUSH2 0x33C2 JUMPI POP PUSH1 0xE DUP4 ADD SLOAD PUSH1 0x0 SWAP1 PUSH2 0x33BA JUMPI JUMPDEST PUSH2 0x33AC JUMPI JUMPDEST PUSH1 0x0 NOT NUMBER ADD NUMBER DUP2 GT PUSH2 0xF68 JUMPI PUSH2 0x2D8C PUSH2 0x2D91 SWAP2 PUSH1 0x40 MLOAD PUSH2 0x2D80 DUP2 PUSH2 0xE37 PUSH1 0x20 DUP3 ADD SWAP5 BLOCKHASH PREVRANDAO TIMESTAMP DUP8 PUSH2 0x2A46 JUMP JUMPDEST MLOAD SWAP1 KECCAK256 PUSH1 0x1 SLOAD SWAP1 PUSH2 0x2A5B JUMP JUMPDEST PUSH2 0x288E JUMP JUMPDEST SWAP1 SLOAD PUSH1 0x1 PUSH1 0x1 PUSH1 0xA0 SHL SUB PUSH1 0x3 SWAP3 SWAP1 SWAP3 SHL SHR DUP2 AND PUSH1 0x0 SWAP1 DUP2 MSTORE PUSH1 0x12 PUSH1 0x20 MSTORE PUSH1 0x40 SWAP1 KECCAK256 DUP1 SLOAD SWAP1 SWAP3 SWAP2 AND DUP1 ISZERO PUSH2 0x336C JUMPI DUP6 PUSH2 0x2DC8 SWAP2 PUSH2 0x3634 JUMP JUMPDEST DUP4 SLOAD DUP3 SLOAD PUSH1 0x40 MLOAD PUSH1 0x1 PUSH1 0x1 PUSH1 0xA0 SHL SUB SWAP2 DUP3 AND SWAP4 SWAP3 PUSH32 0xA1B30426557565C4FA85CE5F9C88513D7D3F49D21EB30569C249B07B037831EF SWAP3 DUP3 SWAP2 PUSH2 0x2E0F SWAP2 DUP10 SWAP2 DUP9 SWAP2 AND DUP5 PUSH2 0x35EA JUMP JUMPDEST SUB SWAP1 LOG1 PUSH1 0x40 MLOAD PUSH1 0x4 DUP7 ADD PUSH2 0x2E22 DUP3 PUSH2 0x2606 JUMP JUMPDEST DUP12 DUP3 MSTORE PUSH1 0x20 DUP3 ADD SWAP4 DUP5 MSTORE DUP1 SLOAD SWAP4 PUSH1 0x1 PUSH1 0x40 SHL DUP6 LT ISZERO PUSH2 0x19CC JUMPI PUSH1 0x1 DUP6 ADD DUP1 DUP4 SSTORE DUP6 LT ISZERO PUSH2 0x2878 JUMPI PUSH1 0x0 SWAP2 DUP3 MSTORE PUSH1 0x20 SWAP1 SWAP2 KECCAK256 SWAP2 MLOAD PUSH1 0x1 SWAP5 DUP6 SHL SWAP1 SWAP3 ADD DUP1 SLOAD PUSH1 0x1 PUSH1 0x1 PUSH1 0xA0 SHL SUB SWAP4 DUP5 AND PUSH1 0x1 PUSH1 0x1 PUSH1 0xA0 SHL SUB NOT SWAP2 DUP3 AND OR DUP3 SSTORE SWAP2 MLOAD SWAP5 ADD DUP1 SLOAD SWAP5 SWAP1 SWAP3 AND SWAP4 AND SWAP3 SWAP1 SWAP3 OR SWAP1 SWAP2 SSTORE PUSH2 0x2EA4 SWAP1 PUSH1 0x3 DUP4 ADD PUSH2 0x2E9E DUP6 DUP3 PUSH2 0x290B JUMP JUMPDEST SLOAD PUSH2 0x360D JUMP JUMPDEST PUSH2 0x335D JUMPI JUMPDEST POP JUMPDEST PUSH1 0x1 DUP4 ADD DUP1 SLOAD PUSH1 0x1 PUSH1 0x1 PUSH1 0xA0 SHL SUB AND ISZERO PUSH2 0x32F6 JUMPI JUMPDEST POP POP POP PUSH1 0x0 SWAP1 JUMPDEST DUP3 PUSH1 0xFF DUP4 AND LT PUSH2 0x31B2 JUMPI JUMPDEST POP POP POP JUMPDEST PUSH1 0xE DUP6 ADD DUP1 SLOAD PUSH2 0x316D JUMPI DUP6 SLOAD PUSH2 0x2EF4 SWAP1 PUSH1 0x1 PUSH1 0x1 PUSH1 0xA0 SHL SUB AND PUSH2 0x28E6 JUMP JUMPDEST PUSH1 0x1 SLOAD SWAP1 SSTORE PUSH32 0x411C58B3C1E8A39D91C901E5C807BFF1401650BEEDC45ABA65112756BB929B4 PUSH1 0x80 PUSH1 0x1 DUP1 PUSH1 0xA0 SHL SUB DUP8 SLOAD AND PUSH32 0x6BAF10092C7EA144C4FB56FB8CF641E1F00E291A535B5D54B547EADB29485A7 PUSH1 0x20 PUSH1 0x40 MLOAD DUP4 DUP2 MSTORE LOG1 PUSH1 0x1 DUP9 ADD SLOAD SWAP5 SLOAD PUSH1 0x40 DUP1 MLOAD PUSH1 0x1 PUSH1 0x1 PUSH1 0xA0 SHL SUB SWAP8 DUP9 AND DUP1 DUP3 MSTORE SWAP8 SWAP1 SWAP3 AND PUSH1 0x20 DUP4 ADD MSTORE DUP2 ADD SWAP2 SWAP1 SWAP2 MSTORE PUSH1 0x60 DUP2 ADD DUP10 SWAP1 MSTORE LOG1 PUSH1 0x64 PUSH2 0x2F98 DUP2 PUSH2 0x2F90 DUP5 DUP12 PUSH2 0x2818 JUMP JUMPDEST DIV SWAP3 DUP9 PUSH2 0x2818 JUMP JUMPDEST DIV SWAP2 PUSH1 0x0 MSTORE PUSH1 0x12 PUSH1 0x20 MSTORE PUSH1 0x40 PUSH1 0x0 KECCAK256 SWAP2 PUSH1 0x1 DUP1 PUSH1 0xA0 SHL SUB DUP4 SLOAD AND DUP1 PUSH2 0x30CE JUMPI JUMPDEST POP POP POP POP POP PUSH1 0x6 SLOAD PUSH1 0x0 DUP1 DUP1 DUP1 PUSH1 0x64 PUSH2 0x2FD7 PUSH1 0xFF DUP8 PUSH1 0xA0 SHR AND DUP12 PUSH2 0x2818 JUMP JUMPDEST DIV DUP1 SWAP6 DUP3 SWAP1 DUP3 ISZERO PUSH2 0x30C4 JUMPI JUMPDEST PUSH1 0x1 PUSH1 0x1 PUSH1 0xA0 SHL SUB AND SWAP1 CALL ISZERO PUSH2 0xEE5 JUMPI PUSH1 0x6 SLOAD PUSH1 0x40 MLOAD PUSH32 0x5AA75BDB3269082E844D731608AFAE2A07CBF194F251E3F857B870AF86B754FB SWAP3 SWAP1 SWAP2 DUP3 SWAP2 PUSH2 0x3032 SWAP2 PUSH1 0x1 PUSH1 0x1 PUSH1 0xA0 SHL SUB AND DUP4 PUSH2 0x2A65 JUMP JUMPDEST SUB SWAP1 LOG1 PUSH1 0x64 PUSH2 0x3046 PUSH1 0xFF PUSH1 0x8 SLOAD AND DUP7 PUSH2 0x2818 JUMP JUMPDEST DIV PUSH1 0x0 DUP1 DUP1 DUP1 DUP5 PUSH1 0x1 DUP1 PUSH1 0xA0 SHL SUB PUSH1 0x10 SLOAD AND DUP3 DUP3 ISZERO PUSH2 0x30BB JUMPI JUMPDEST CALL ISZERO PUSH2 0xEE5 JUMPI PUSH2 0x30B6 SWAP5 PUSH2 0x30AB SWAP4 PUSH1 0x64 SWAP4 PUSH2 0x3080 PUSH2 0x30A2 SWAP5 PUSH1 0x7 SLOAD PUSH2 0x280B JUMP JUMPDEST PUSH1 0x7 SSTORE PUSH2 0x308E DUP8 DUP3 SLOAD PUSH2 0x280B JUMP JUMPDEST SWAP1 SSTORE PUSH1 0xF TIMESTAMP SWAP2 ADD SSTORE PUSH1 0xFF PUSH1 0xA SLOAD AND SWAP1 PUSH2 0x2818 JUMP JUMPDEST DIV PUSH1 0x9 SLOAD PUSH2 0x280B JUMP JUMPDEST PUSH1 0x9 SSTORE PUSH1 0x2 SLOAD PUSH2 0x280B JUMP JUMPDEST PUSH1 0x2 SSTORE JUMP JUMPDEST POP PUSH2 0x8FC PUSH2 0x3060 JUMP JUMPDEST PUSH2 0x8FC SWAP2 POP PUSH2 0x2FE3 JUMP JUMPDEST PUSH1 0x0 DUP1 DUP1 DUP6 DUP2 SWAP5 DUP3 DUP3 ISZERO PUSH2 0x3164 JUMPI JUMPDEST CALL ISZERO PUSH2 0xEE5 JUMPI PUSH32 0x153F77382D7E07DE734977AE352E9B1F5F8AD4B1C0033C883A9A33456A87836F PUSH1 0x80 PUSH1 0x9 SWAP6 PUSH2 0x3149 SWAP5 PUSH1 0x1 DUP1 PUSH1 0xA0 SHL SUB DUP8 SLOAD AND SWAP2 PUSH1 0x40 MLOAD SWAP3 DUP4 MSTORE PUSH1 0x20 DUP4 ADD MSTORE PUSH1 0x40 DUP3 ADD MSTORE PUSH1 0x1 PUSH1 0x60 DUP3 ADD MSTORE LOG1 PUSH1 0xB DUP4 ADD PUSH2 0x313F DUP3 DUP3 SLOAD PUSH2 0x280B JUMP JUMPDEST SWAP1 SSTORE PUSH1 0x3 SLOAD PUSH2 0x280B JUMP JUMPDEST PUSH1 0x3 SSTORE ADD PUSH2 0x3158 DUP5 DUP3 SLOAD PUSH2 0x280B JUMP JUMPDEST SWAP1 SSTORE CODESIZE DUP1 DUP1 DUP1 DUP1 PUSH2 0x2FB8 JUMP JUMPDEST POP PUSH2 0x8FC PUSH2 0x30DD JUMP JUMPDEST PUSH1 0x40 MLOAD PUSH3 0x461BCD PUSH1 0xE5 SHL DUP2 MSTORE PUSH1 0x20 PUSH1 0x4 DUP3 ADD MSTORE PUSH1 0x1E PUSH1 0x24 DUP3 ADD MSTORE PUSH32 0x5573657220697320616C726561647920696E2072616E646F6D206C6973740000 PUSH1 0x44 DUP3 ADD MSTORE PUSH1 0x64 SWAP1 REVERT JUMPDEST PUSH1 0x2 DUP2 ADD SLOAD PUSH1 0x1 PUSH1 0x1 PUSH1 0xA0 SHL SUB AND SWAP1 DUP2 ISZERO PUSH2 0x32F0 JUMPI SLOAD PUSH1 0x1 PUSH1 0x1 PUSH1 0xA0 SHL SUB AND DUP2 EQ PUSH2 0x32EB JUMPI PUSH1 0x0 MSTORE PUSH1 0x12 PUSH1 0x20 MSTORE PUSH1 0x40 PUSH1 0x0 KECCAK256 PUSH1 0x5 DUP2 ADD SWAP1 PUSH2 0x31F2 DUP4 PUSH2 0x293F JUMP JUMPDEST PUSH1 0x40 MLOAD SWAP3 PUSH2 0x31FF DUP5 PUSH2 0x2606 JUMP JUMPDEST DUP9 DUP5 MSTORE PUSH1 0xFF PUSH1 0x20 DUP6 ADD SWAP3 AND DUP3 MSTORE DUP1 SLOAD PUSH1 0x1 PUSH1 0x40 SHL DUP2 LT ISZERO PUSH2 0x19CC JUMPI PUSH2 0x3229 SWAP2 PUSH1 0x1 DUP3 ADD DUP2 SSTORE PUSH2 0x28A9 JUMP JUMPDEST SWAP2 SWAP1 SWAP2 PUSH2 0x32D5 JUMPI SWAP3 MLOAD DUP2 SLOAD SWAP4 MLOAD PUSH1 0x1 PUSH1 0x1 PUSH1 0xA8 SHL SUB NOT SWAP1 SWAP5 AND PUSH1 0x1 PUSH1 0x1 PUSH1 0xA0 SHL SUB SWAP2 SWAP1 SWAP2 AND OR PUSH1 0xA0 SWAP4 SWAP1 SWAP4 SHL PUSH1 0xFF PUSH1 0xA0 SHL AND SWAP3 SWAP1 SWAP3 OR SWAP1 SWAP2 SSTORE PUSH1 0xA DUP2 ADD DUP1 SLOAD PUSH2 0x32CF SWAP3 SWAP2 SWAP1 PUSH2 0x3279 SWAP1 DUP13 SWAP1 PUSH2 0x280B JUMP JUMPDEST SWAP1 SSTORE DUP1 SLOAD PUSH32 0x85DB3F10B88EA7FC653F3F818097A3FC3C543196ED60CAD2251DF922BCC9AD7F SWAP1 PUSH1 0x60 SWAP1 PUSH1 0x1 PUSH1 0x1 PUSH1 0xA0 SHL SUB AND PUSH1 0xFF PUSH2 0x32B6 DUP8 PUSH2 0x293F JUMP JUMPDEST PUSH1 0x40 MLOAD SWAP3 DUP4 MSTORE DUP12 PUSH1 0x20 DUP5 ADD MSTORE AND PUSH1 0x40 DUP3 ADD MSTORE LOG1 SWAP2 PUSH2 0x292E JUMP JUMPDEST SWAP1 PUSH2 0x2EC7 JUMP JUMPDEST PUSH4 0x4E487B71 PUSH1 0xE0 SHL PUSH1 0x0 MSTORE PUSH1 0x0 PUSH1 0x4 MSTORE PUSH1 0x24 PUSH1 0x0 REVERT JUMPDEST PUSH2 0x2ED2 JUMP JUMPDEST POP PUSH2 0x2ED2 JUMP JUMPDEST SWAP2 SLOAD DUP3 SLOAD PUSH1 0x1 PUSH1 0x1 PUSH1 0xA0 SHL SUB NOT AND PUSH1 0x1 PUSH1 0x1 PUSH1 0xA0 SHL SUB SWAP2 DUP3 AND SWAP1 DUP2 OR SWAP1 SWAP4 SSTORE PUSH1 0x2 DUP5 ADD SLOAD PUSH1 0x40 MLOAD PUSH32 0x8EFA008F8AE98AE30D3219078A298C85BC25A62F50C57ED9A3EC838B7EED9F47 SWAP5 SWAP1 SWAP4 DUP5 SWAP4 PUSH2 0x3352 SWAP4 SWAP2 SWAP3 SWAP2 AND SWAP1 DUP5 PUSH2 0x35EA JUMP JUMPDEST SUB SWAP1 LOG1 CODESIZE DUP1 DUP1 PUSH2 0x2EC0 JUMP JUMPDEST PUSH2 0x3366 SWAP1 PUSH2 0x368A JUMP JUMPDEST CODESIZE PUSH2 0x2EA9 JUMP JUMPDEST PUSH1 0x40 MLOAD PUSH3 0x461BCD PUSH1 0xE5 SHL DUP2 MSTORE PUSH1 0x20 PUSH1 0x4 DUP3 ADD MSTORE PUSH1 0x18 PUSH1 0x24 DUP3 ADD MSTORE PUSH24 0x139BC81C985B991BDB481C9959995C9C995C88199BDD5B99 PUSH1 0x42 SHL PUSH1 0x44 DUP3 ADD MSTORE PUSH1 0x64 SWAP1 REVERT JUMPDEST PUSH2 0x33B5 DUP4 PUSH2 0x368A JUMP JUMPDEST PUSH2 0x2D55 JUMP JUMPDEST POP PUSH1 0x1 PUSH2 0x2D50 JUMP JUMPDEST DUP4 SLOAD PUSH2 0x33E8 SWAP3 SWAP2 SWAP1 PUSH2 0x33DE SWAP1 DUP8 SWAP1 PUSH1 0x1 PUSH1 0x1 PUSH1 0xA0 SHL SUB AND PUSH2 0x3634 JUMP JUMPDEST PUSH2 0x2E9E DUP5 DUP3 PUSH2 0x290B JUMP JUMPDEST ISZERO PUSH2 0x2EAB JUMPI PUSH2 0x33F6 DUP3 PUSH2 0x368A JUMP JUMPDEST PUSH2 0x2EAB JUMP JUMPDEST PUSH1 0x40 SWAP2 DUP2 MSTORE PUSH1 0x12 PUSH1 0x20 MSTORE KECCAK256 SWAP2 PUSH2 0x2D2E JUMP JUMPDEST PUSH1 0x40 MLOAD PUSH3 0x461BCD PUSH1 0xE5 SHL DUP2 MSTORE PUSH1 0x20 PUSH1 0x4 DUP3 ADD MSTORE PUSH1 0x1A PUSH1 0x24 DUP3 ADD MSTORE PUSH26 0x2CB7BA9031B0B73737BA103932B332B9103CB7BAB939B2B63317 PUSH1 0x31 SHL PUSH1 0x44 DUP3 ADD MSTORE PUSH1 0x64 SWAP1 REVERT JUMPDEST POP POP POP POP PUSH32 0x1F4FFF38C5E64AF9E759D590409F022EA913658008BB1D0CD35E028244F01ECF PUSH1 0x60 PUSH1 0x40 MLOAD PUSH1 0x20 DUP2 MSTORE PUSH1 0x1F PUSH1 0x20 DUP3 ADD MSTORE PUSH32 0x5573657220416C72656164792068617665207265666572726572207365742E00 PUSH1 0x40 DUP3 ADD MSTORE LOG1 PUSH2 0x2ED6 JUMP JUMPDEST DUP2 SLOAD PUSH1 0x1 PUSH1 0x1 PUSH1 0xA0 SHL SUB NOT AND DUP4 OR SWAP1 SWAP2 SSTORE PUSH2 0x34C9 SWAP1 PUSH2 0x28C1 JUMP JUMPDEST CODESIZE DUP1 PUSH2 0x2CD8 JUMP JUMPDEST DUP9 SLOAD PUSH1 0x1 PUSH1 0x1 PUSH1 0xA0 SHL SUB NOT AND DUP8 OR DUP10 SSTORE PUSH2 0x34E9 DUP7 PUSH2 0x28C1 JUMP JUMPDEST PUSH2 0x2CC7 JUMP JUMPDEST PUSH1 0x40 MLOAD PUSH3 0x461BCD PUSH1 0xE5 SHL DUP2 MSTORE PUSH1 0x20 PUSH1 0x4 DUP3 ADD MSTORE PUSH1 0x13 PUSH1 0x24 DUP3 ADD MSTORE PUSH19 0x5265666572726572204E6F7420416374697665 PUSH1 0x68 SHL PUSH1 0x44 DUP3 ADD MSTORE PUSH1 0x64 SWAP1 REVERT JUMPDEST PUSH1 0x40 MLOAD PUSH3 0x461BCD PUSH1 0xE5 SHL DUP2 MSTORE PUSH1 0x20 PUSH1 0x4 DUP3 ADD MSTORE PUSH1 0x17 PUSH1 0x24 DUP3 ADD MSTORE PUSH23 0x155CD95C88185B1C9958591E481C9959DA5CDD195C9959 PUSH1 0x4A SHL PUSH1 0x44 DUP3 ADD MSTORE PUSH1 0x64 SWAP1 REVERT JUMPDEST PUSH1 0x40 MLOAD PUSH3 0x461BCD PUSH1 0xE5 SHL DUP2 MSTORE PUSH1 0x20 PUSH1 0x4 DUP3 ADD MSTORE PUSH1 0x26 PUSH1 0x24 DUP3 ADD MSTORE PUSH32 0x56616C7565206973206C657373207468656E20726567697374726174696F6E20 PUSH1 0x44 DUP3 ADD MSTORE PUSH6 0x3B30B63AB297 PUSH1 0xD1 SHL PUSH1 0x64 DUP3 ADD MSTORE PUSH1 0x84 SWAP1 REVERT JUMPDEST PUSH1 0xFF PUSH1 0x0 DUP1 MLOAD PUSH1 0x20 PUSH2 0x388D DUP4 CODECOPY DUP2 MLOAD SWAP2 MSTORE SLOAD PUSH1 0x40 SHR AND ISZERO PUSH2 0x35D9 JUMPI JUMP JUMPDEST PUSH4 0x1AFCD79F PUSH1 0xE3 SHL PUSH1 0x0 MSTORE PUSH1 0x4 PUSH1 0x0 REVERT JUMPDEST PUSH1 0x1 PUSH1 0x1 PUSH1 0xA0 SHL SUB SWAP2 DUP3 AND DUP2 MSTORE SWAP2 DUP2 AND PUSH1 0x20 DUP4 ADD MSTORE SWAP1 SWAP2 AND PUSH1 0x40 DUP3 ADD MSTORE PUSH1 0x60 ADD SWAP1 JUMP JUMPDEST PUSH1 0x0 SWAP3 SWAP2 DUP1 DUP3 EQ SWAP2 DUP3 ISZERO PUSH2 0x362A JUMPI JUMPDEST POP POP PUSH2 0x3624 JUMPI JUMP JUMPDEST PUSH1 0x1 SWAP2 POP JUMP JUMPDEST GT SWAP1 POP CODESIZE DUP1 PUSH2 0x361C JUMP JUMPDEST PUSH1 0x2 DUP3 ADD DUP1 SLOAD PUSH1 0x1 PUSH1 0x1 PUSH1 0xA0 SHL SUB NOT AND PUSH1 0x1 PUSH1 0x1 PUSH1 0xA0 SHL SUB SWAP3 DUP4 AND SWAP1 DUP2 OR SWAP1 SWAP2 SSTORE SWAP2 SLOAD PUSH1 0x40 DUP1 MLOAD SWAP4 DUP5 MSTORE SWAP2 AND PUSH1 0x20 DUP4 ADD MSTORE PUSH32 0xEC49A3C8C4AE06C18160FE86119C381C9D213AC3E052FF35B594DA8687B193C7 SWAP2 LOG1 JUMP JUMPDEST PUSH1 0xE DUP2 ADD DUP1 SLOAD DUP1 ISZERO PUSH2 0x3749 JUMPI PUSH1 0x1 SLOAD PUSH1 0x0 NOT DUP2 ADD SWAP1 DUP2 GT PUSH2 0xF68 JUMPI PUSH2 0x36AE SWAP1 PUSH2 0x288E JUMP JUMPDEST SWAP1 SLOAD PUSH1 0x0 NOT DUP4 ADD SWAP3 PUSH1 0x3 SWAP3 SWAP1 SWAP3 SHL SHR PUSH1 0x1 PUSH1 0x1 PUSH1 0xA0 SHL SUB AND SWAP1 DUP3 GT PUSH2 0xF68 JUMPI PUSH2 0x1C31 PUSH2 0x36D9 SWAP3 PUSH2 0x288E JUMP JUMPDEST PUSH1 0x1 SLOAD SWAP2 DUP3 ISZERO PUSH2 0x3733 JUMPI PUSH1 0x0 PUSH1 0x20 SWAP3 PUSH32 0x644B85583BA83E73113FFC0C122B165819CA11DB493CD4CC38F5BA29138FFA1B SWAP5 DUP3 NOT ADD PUSH2 0x371B PUSH2 0x1D24 DUP3 PUSH1 0x1 PUSH2 0x28A9 JUMP JUMPDEST PUSH1 0x1 SSTORE SSTORE SLOAD PUSH1 0x40 MLOAD PUSH1 0x1 PUSH1 0x1 PUSH1 0xA0 SHL SUB SWAP1 SWAP2 AND DUP2 MSTORE LOG1 JUMP JUMPDEST PUSH4 0x4E487B71 PUSH1 0xE0 SHL PUSH1 0x0 MSTORE PUSH1 0x31 PUSH1 0x4 MSTORE PUSH1 0x24 PUSH1 0x0 REVERT JUMPDEST PUSH1 0x40 MLOAD PUSH3 0x461BCD PUSH1 0xE5 SHL DUP2 MSTORE PUSH1 0x20 PUSH1 0x4 DUP3 ADD MSTORE PUSH1 0x1A PUSH1 0x24 DUP3 ADD MSTORE PUSH26 0x155CD95C881A5CC81B9BDD081A5B881C985B991BDB481B1A5CDD PUSH1 0x32 SHL PUSH1 0x44 DUP3 ADD MSTORE PUSH1 0x64 SWAP1 REVERT JUMPDEST SWAP1 PUSH2 0x37B1 JUMPI POP DUP1 MLOAD ISZERO PUSH2 0x37A0 JUMPI DUP1 MLOAD SWAP1 PUSH1 0x20 ADD REVERT JUMPDEST PUSH4 0xD6BDA275 PUSH1 0xE0 SHL PUSH1 0x0 MSTORE PUSH1 0x4 PUSH1 0x0 REVERT JUMPDEST DUP2 MLOAD ISZERO DUP1 PUSH2 0x37E3 JUMPI JUMPDEST PUSH2 0x37C2 JUMPI POP SWAP1 JUMP JUMPDEST PUSH4 0x9996B315 PUSH1 0xE0 SHL PUSH1 0x0 SWAP1 DUP2 MSTORE PUSH1 0x1 PUSH1 0x1 PUSH1 0xA0 SHL SUB SWAP2 SWAP1 SWAP2 AND PUSH1 0x4 MSTORE PUSH1 0x24 SWAP1 REVERT JUMPDEST POP DUP1 EXTCODESIZE ISZERO PUSH2 0x37BA JUMP INVALID SWAP1 AND 0xD0 SWAP14 PUSH19 0xD40FDAE2FD8CEAC6B6234C7706214FD39C1CD1 0xE6 MULMOD LOG0 MSTORE DUP13 NOT SWAP4 STOP CALLDATASIZE ADDMOD SWAP5 LOG1 EXTCODESIZE LOG1 LOG3 0x21 MOD PUSH8 0xC828492DB98DCA3E KECCAK256 PUSH23 0xCC3735A920A3CA505D382BBCE85B607D57B04668B1D2CA DELEGATECALL 0x29 BLOBHASH SUB DUP15 0xCE DUP8 DUP10 0xF7 SWAP1 PUSH20 0x95F968F702964C717BA88BE0079C531659141344 0xCD 0x1F 0xD0 LOG4 CALLCODE DUP5 NOT BLOBHASH PUSH32 0x9722A3DAAFE3B4186F6B6457E0B37800F632235E56E1626C9E9DF3DE1E167E92 SWAP9 CREATE 0xD2 PUSH0 MSIZE REVERT PUSH21 0xEC65E3111652F0C57E16840DF040F15088DC2F81FE CODECOPY SHR CODECOPY 0x23 0xBE 0xC7 RETURNDATACOPY 0x23 0xA9 PUSH7 0x2EFC9C229C6A00 LOG1 PUSH5 0x736F6C6343 STOP ADDMOD BYTE STOP EXP "},"methodIdentifiers":{"UPGRADE_INTERFACE_VERSION()":"ad3cb1cc","checkIfChainLinkOracleAddressSupporeted(address)":"11f4d576","distributeWeeklyReward(address)":"d277b8a9","getAllUsers()":"e2842d79","getContractDefaults()":"1a746344","getNativePriceInUSD(address)":"6a746311","getRandomUserList()":"7ec37e03","getRegistrationsStats()":"0690c6a8","getSupportedChainLinkOracleAddress()":"08e922ba","getUpgradePlans()":"59a04544","getUpgradePlansById(uint8)":"a9df9fae","getUserAccount(address)":"fb47e016","getUserBusiness(address)":"f87127b4","getUserCurrentUpgradeLevel(address)":"f9250171","getUserRewards(address)":"078b0fb7","getUserTeam(address)":"faeda7e5","getWeeklyRewardToBeDistributed()":"846688f7","initialize()":"8129fc1c","needNativeToRegister(address)":"07c560d1","owner()":"8da5cb5b","proxiableUUID()":"52d1902d","registrationAnyNative(address,address,address)":"a4fb1b34","registrationNative(address,address)":"c53b219e","renounceOwnership()":"715018a6","setChainLinkOracleAddress(address,bool)":"5eda81ce","setDefaultReferrer(address)":"dcf6e819","transferOwnership(address)":"f2fde38b","updateUpgradePlans(uint256[])":"e35422e7","upgradeAccountNative(address)":"a0db38e5","upgradeToAndCall(address,bytes)":"4f1ef286"}},"storageLayout":{"storage":[{"astId":1654,"contract":"contracts/RegistrationUpgradeable.sol:RegistrationUpgradeable","label":"_users","offset":0,"slot":"0","type":"t_array(t_address)dyn_storage"},{"astId":1657,"contract":"contracts/RegistrationUpgradeable.sol:RegistrationUpgradeable","label":"_randomUserList","offset":0,"slot":"1","type":"t_array(t_address)dyn_storage"},{"astId":1659,"contract":"contracts/RegistrationUpgradeable.sol:RegistrationUpgradeable","label":"_totalRegistrationValueInUSD","offset":0,"slot":"2","type":"t_uint256"},{"astId":1661,"contract":"contracts/RegistrationUpgradeable.sol:RegistrationUpgradeable","label":"_referralPaidInUSD","offset":0,"slot":"3","type":"t_uint256"},{"astId":1663,"contract":"contracts/RegistrationUpgradeable.sol:RegistrationUpgradeable","label":"_randomRewardsPaidInUSD","offset":0,"slot":"4","type":"t_uint256"},{"astId":1665,"contract":"contracts/RegistrationUpgradeable.sol:RegistrationUpgradeable","label":"_weeklyRewardsPaidInUSD","offset":0,"slot":"5","type":"t_uint256"},{"astId":1667,"contract":"contracts/RegistrationUpgradeable.sol:RegistrationUpgradeable","label":"_teamWallet","offset":0,"slot":"6","type":"t_address"},{"astId":1669,"contract":"contracts/RegistrationUpgradeable.sol:RegistrationUpgradeable","label":"_teamWalletRate","offset":20,"slot":"6","type":"t_uint8"},{"astId":1671,"contract":"contracts/RegistrationUpgradeable.sol:RegistrationUpgradeable","label":"_valueToCreateLiquidityInWei","offset":0,"slot":"7","type":"t_uint256"},{"astId":1673,"contract":"contracts/RegistrationUpgradeable.sol:RegistrationUpgradeable","label":"_liquidityCreateRate","offset":0,"slot":"8","type":"t_uint8"},{"astId":1675,"contract":"contracts/RegistrationUpgradeable.sol:RegistrationUpgradeable","label":"_weeklyRewardValueInWei","offset":0,"slot":"9","type":"t_uint256"},{"astId":1677,"contract":"contracts/RegistrationUpgradeable.sol:RegistrationUpgradeable","label":"_weeklyRewardRate","offset":0,"slot":"10","type":"t_uint8"},{"astId":1679,"contract":"contracts/RegistrationUpgradeable.sol:RegistrationUpgradeable","label":"_weeklyRewardTimestamp","offset":0,"slot":"11","type":"t_uint256"},{"astId":1681,"contract":"contracts/RegistrationUpgradeable.sol:RegistrationUpgradeable","label":"_levelRatesFixed","offset":0,"slot":"12","type":"t_uint8"},{"astId":1683,"contract":"contracts/RegistrationUpgradeable.sol:RegistrationUpgradeable","label":"_levelsToCount","offset":1,"slot":"12","type":"t_uint8"},{"astId":1685,"contract":"contracts/RegistrationUpgradeable.sol:RegistrationUpgradeable","label":"_refereeLimit","offset":0,"slot":"13","type":"t_uint256"},{"astId":1687,"contract":"contracts/RegistrationUpgradeable.sol:RegistrationUpgradeable","label":"_defaultReferrer","offset":0,"slot":"14","type":"t_address"},{"astId":1689,"contract":"contracts/RegistrationUpgradeable.sol:RegistrationUpgradeable","label":"_registrationValueInUSD","offset":0,"slot":"15","type":"t_uint256"},{"astId":1691,"contract":"contracts/RegistrationUpgradeable.sol:RegistrationUpgradeable","label":"_liquidityWallet","offset":0,"slot":"16","type":"t_address"},{"astId":1694,"contract":"contracts/RegistrationUpgradeable.sol:RegistrationUpgradeable","label":"_supportedChainLinkOracleAddress","offset":0,"slot":"17","type":"t_array(t_address)dyn_storage"},{"astId":1699,"contract":"contracts/RegistrationUpgradeable.sol:RegistrationUpgradeable","label":"_mappingAccounts","offset":0,"slot":"18","type":"t_mapping(t_address,t_struct(AccountStruct)1645_storage)"},{"astId":1704,"contract":"contracts/RegistrationUpgradeable.sol:RegistrationUpgradeable","label":"_mappingUpgrade","offset":0,"slot":"19","type":"t_mapping(t_uint8,t_struct(UpgradeStruct)1597_storage)"},{"astId":1708,"contract":"contracts/RegistrationUpgradeable.sol:RegistrationUpgradeable","label":"_mappingOracle","offset":0,"slot":"20","type":"t_mapping(t_address,t_bool)"}],"types":{"t_address":{"encoding":"inplace","label":"address","numberOfBytes":"20"},"t_array(t_address)dyn_storage":{"base":"t_address","encoding":"dynamic_array","label":"address[]","numberOfBytes":"32"},"t_array(t_struct(RefereeStruct)1602_storage)dyn_storage":{"base":"t_struct(RefereeStruct)1602_storage","encoding":"dynamic_array","label":"struct RefereeStruct[]","numberOfBytes":"32"},"t_array(t_struct(TeamStruct)1607_storage)dyn_storage":{"base":"t_struct(TeamStruct)1607_storage","encoding":"dynamic_array","label":"struct TeamStruct[]","numberOfBytes":"32"},"t_bool":{"encoding":"inplace","label":"bool","numberOfBytes":"1"},"t_mapping(t_address,t_bool)":{"encoding":"mapping","key":"t_address","label":"mapping(address => bool)","numberOfBytes":"32","value":"t_bool"},"t_mapping(t_address,t_struct(AccountStruct)1645_storage)":{"encoding":"mapping","key":"t_address","label":"mapping(address => struct AccountStruct)","numberOfBytes":"32","value":"t_struct(AccountStruct)1645_storage"},"t_mapping(t_uint8,t_struct(UpgradeStruct)1597_storage)":{"encoding":"mapping","key":"t_uint8","label":"mapping(uint8 => struct UpgradeStruct)","numberOfBytes":"32","value":"t_struct(UpgradeStruct)1597_storage"},"t_struct(AccountStruct)1645_storage":{"encoding":"inplace","label":"struct AccountStruct","members":[{"astId":1609,"contract":"contracts/RegistrationUpgradeable.sol:RegistrationUpgradeable","label":"self","offset":0,"slot":"0","type":"t_address"},{"astId":1611,"contract":"contracts/RegistrationUpgradeable.sol:RegistrationUpgradeable","label":"parent","offset":0,"slot":"1","type":"t_address"},{"astId":1613,"contract":"contracts/RegistrationUpgradeable.sol:RegistrationUpgradeable","label":"referrer","offset":0,"slot":"2","type":"t_address"},{"astId":1616,"contract":"contracts/RegistrationUpgradeable.sol:RegistrationUpgradeable","label":"referee","offset":0,"slot":"3","type":"t_array(t_address)dyn_storage"},{"astId":1620,"contract":"contracts/RegistrationUpgradeable.sol:RegistrationUpgradeable","label":"refereeAssigned","offset":0,"slot":"4","type":"t_array(t_struct(RefereeStruct)1602_storage)dyn_storage"},{"astId":1624,"contract":"contracts/RegistrationUpgradeable.sol:RegistrationUpgradeable","label":"team","offset":0,"slot":"5","type":"t_array(t_struct(TeamStruct)1607_storage)dyn_storage"},{"astId":1626,"contract":"contracts/RegistrationUpgradeable.sol:RegistrationUpgradeable","label":"selfBusinessInUSD","offset":0,"slot":"6","type":"t_uint256"},{"astId":1628,"contract":"contracts/RegistrationUpgradeable.sol:RegistrationUpgradeable","label":"upgradedValueInUSD","offset":0,"slot":"7","type":"t_uint256"},{"astId":1630,"contract":"contracts/RegistrationUpgradeable.sol:RegistrationUpgradeable","label":"upgradeId","offset":0,"slot":"8","type":"t_uint8"},{"astId":1632,"contract":"contracts/RegistrationUpgradeable.sol:RegistrationUpgradeable","label":"directBusinessInUSD","offset":0,"slot":"9","type":"t_uint256"},{"astId":1634,"contract":"contracts/RegistrationUpgradeable.sol:RegistrationUpgradeable","label":"teamBusinessInUSD","offset":0,"slot":"10","type":"t_uint256"},{"astId":1636,"contract":"contracts/RegistrationUpgradeable.sol:RegistrationUpgradeable","label":"referralRewardsInUSD","offset":0,"slot":"11","type":"t_uint256"},{"astId":1638,"contract":"contracts/RegistrationUpgradeable.sol:RegistrationUpgradeable","label":"weeklyRewardsInUSD","offset":0,"slot":"12","type":"t_uint256"},{"astId":1640,"contract":"contracts/RegistrationUpgradeable.sol:RegistrationUpgradeable","label":"upgradeRewardsInUSD","offset":0,"slot":"13","type":"t_uint256"},{"astId":1642,"contract":"contracts/RegistrationUpgradeable.sol:RegistrationUpgradeable","label":"userRandomIndex","offset":0,"slot":"14","type":"t_uint256"},{"astId":1644,"contract":"contracts/RegistrationUpgradeable.sol:RegistrationUpgradeable","label":"timestampJoined","offset":0,"slot":"15","type":"t_uint256"}],"numberOfBytes":"512"},"t_struct(RefereeStruct)1602_storage":{"encoding":"inplace","label":"struct RefereeStruct","members":[{"astId":1599,"contract":"contracts/RegistrationUpgradeable.sol:RegistrationUpgradeable","label":"referee","offset":0,"slot":"0","type":"t_address"},{"astId":1601,"contract":"contracts/RegistrationUpgradeable.sol:RegistrationUpgradeable","label":"assignedTo","offset":0,"slot":"1","type":"t_address"}],"numberOfBytes":"64"},"t_struct(TeamStruct)1607_storage":{"encoding":"inplace","label":"struct TeamStruct","members":[{"astId":1604,"contract":"contracts/RegistrationUpgradeable.sol:RegistrationUpgradeable","label":"teamMember","offset":0,"slot":"0","type":"t_address"},{"astId":1606,"contract":"contracts/RegistrationUpgradeable.sol:RegistrationUpgradeable","label":"level","offset":20,"slot":"0","type":"t_uint8"}],"numberOfBytes":"32"},"t_struct(UpgradeStruct)1597_storage":{"encoding":"inplace","label":"struct UpgradeStruct","members":[{"astId":1594,"contract":"contracts/RegistrationUpgradeable.sol:RegistrationUpgradeable","label":"id","offset":0,"slot":"0","type":"t_uint8"},{"astId":1596,"contract":"contracts/RegistrationUpgradeable.sol:RegistrationUpgradeable","label":"valueToUpgradeInUSD","offset":0,"slot":"1","type":"t_uint256"}],"numberOfBytes":"64"},"t_uint256":{"encoding":"inplace","label":"uint256","numberOfBytes":"32"},"t_uint8":{"encoding":"inplace","label":"uint8","numberOfBytes":"1"}}}}}}