{
  "_format": "hh-sol-artifact-1",
  "contractName": "RegistrationUpgradeable",
  "sourceName": "contracts/RegistrationUpgradeable.sol",
  "abi": [
    {
      "inputs": [
        {
          "internalType": "address",
          "name": "target",
          "type": "address"
        }
      ],
      "name": "AddressEmptyCode",
      "type": "error"
    },
    {
      "inputs": [
        {
          "internalType": "address",
          "name": "implementation",
          "type": "address"
        }
      ],
      "name": "ERC1967InvalidImplementation",
      "type": "error"
    },
    {
      "inputs": [],
      "name": "ERC1967NonPayable",
      "type": "error"
    },
    {
      "inputs": [],
      "name": "FailedCall",
      "type": "error"
    },
    {
      "inputs": [],
      "name": "InvalidInitialization",
      "type": "error"
    },
    {
      "inputs": [],
      "name": "NotInitializing",
      "type": "error"
    },
    {
      "inputs": [
        {
          "internalType": "address",
          "name": "owner",
          "type": "address"
        }
      ],
      "name": "OwnableInvalidOwner",
      "type": "error"
    },
    {
      "inputs": [
        {
          "internalType": "address",
          "name": "account",
          "type": "address"
        }
      ],
      "name": "OwnableUnauthorizedAccount",
      "type": "error"
    },
    {
      "inputs": [],
      "name": "UUPSUnauthorizedCallContext",
      "type": "error"
    },
    {
      "inputs": [
        {
          "internalType": "bytes32",
          "name": "slot",
          "type": "bytes32"
        }
      ],
      "name": "UUPSUnsupportedProxiableUUID",
      "type": "error"
    },
    {
      "anonymous": false,
      "inputs": [
        {
          "indexed": false,
          "internalType": "address",
          "name": "user",
          "type": "address"
        }
      ],
      "name": "AddedToRandomList",
      "type": "event"
    },
    {
      "anonymous": false,
      "inputs": [
        {
          "indexed": false,
          "internalType": "uint64",
          "name": "version",
          "type": "uint64"
        }
      ],
      "name": "Initialized",
      "type": "event"
    },
    {
      "anonymous": false,
      "inputs": [
        {
          "indexed": true,
          "internalType": "address",
          "name": "previousOwner",
          "type": "address"
        },
        {
          "indexed": true,
          "internalType": "address",
          "name": "newOwner",
          "type": "address"
        }
      ],
      "name": "OwnershipTransferred",
      "type": "event"
    },
    {
      "anonymous": false,
      "inputs": [
        {
          "indexed": false,
          "internalType": "address",
          "name": "by",
          "type": "address"
        },
        {
          "indexed": false,
          "internalType": "address",
          "name": "to",
          "type": "address"
        },
        {
          "indexed": false,
          "internalType": "address",
          "name": "user",
          "type": "address"
        }
      ],
      "name": "ParentAdded",
      "type": "event"
    },
    {
      "anonymous": false,
      "inputs": [
        {
          "indexed": false,
          "internalType": "address",
          "name": "to",
          "type": "address"
        },
        {
          "indexed": false,
          "internalType": "address",
          "name": "user",
          "type": "address"
        },
        {
          "indexed": false,
          "internalType": "uint256",
          "name": "valueInWei",
          "type": "uint256"
        },
        {
          "indexed": false,
          "internalType": "uint32",
          "name": "level",
          "type": "uint32"
        }
      ],
      "name": "ReferralRewardsPaid",
      "type": "event"
    },
    {
      "anonymous": false,
      "inputs": [
        {
          "indexed": false,
          "internalType": "address",
          "name": "by",
          "type": "address"
        },
        {
          "indexed": false,
          "internalType": "address",
          "name": "user",
          "type": "address"
        }
      ],
      "name": "ReferrerAdded",
      "type": "event"
    },
    {
      "anonymous": false,
      "inputs": [
        {
          "indexed": false,
          "internalType": "string",
          "name": "reason",
          "type": "string"
        }
      ],
      "name": "ReferrerNoAdded",
      "type": "event"
    },
    {
      "anonymous": false,
      "inputs": [
        {
          "indexed": false,
          "internalType": "address",
          "name": "by",
          "type": "address"
        },
        {
          "indexed": false,
          "internalType": "address",
          "name": "to",
          "type": "address"
        },
        {
          "indexed": false,
          "internalType": "address",
          "name": "user",
          "type": "address"
        },
        {
          "indexed": false,
          "internalType": "uint256",
          "name": "valueInWei",
          "type": "uint256"
        }
      ],
      "name": "Registration",
      "type": "event"
    },
    {
      "anonymous": false,
      "inputs": [
        {
          "indexed": false,
          "internalType": "address",
          "name": "by",
          "type": "address"
        },
        {
          "indexed": false,
          "internalType": "address",
          "name": "to",
          "type": "address"
        },
        {
          "indexed": false,
          "internalType": "address",
          "name": "user",
          "type": "address"
        }
      ],
      "name": "RegistrationAssigned",
      "type": "event"
    },
    {
      "anonymous": false,
      "inputs": [
        {
          "indexed": false,
          "internalType": "address",
          "name": "user",
          "type": "address"
        }
      ],
      "name": "RemovedFromRandomList",
      "type": "event"
    },
    {
      "anonymous": false,
      "inputs": [
        {
          "indexed": false,
          "internalType": "address",
          "name": "to",
          "type": "address"
        },
        {
          "indexed": false,
          "internalType": "address",
          "name": "user",
          "type": "address"
        },
        {
          "indexed": false,
          "internalType": "uint32",
          "name": "level",
          "type": "uint32"
        }
      ],
      "name": "TeamAddressAdded",
      "type": "event"
    },
    {
      "anonymous": false,
      "inputs": [
        {
          "indexed": false,
          "internalType": "address",
          "name": "to",
          "type": "address"
        },
        {
          "indexed": false,
          "internalType": "uint256",
          "name": "valueInWei",
          "type": "uint256"
        }
      ],
      "name": "TeamWalletRewardPaid",
      "type": "event"
    },
    {
      "anonymous": false,
      "inputs": [
        {
          "indexed": false,
          "internalType": "string",
          "name": "reason",
          "type": "string"
        }
      ],
      "name": "UpgradeRewardNotPaid",
      "type": "event"
    },
    {
      "anonymous": false,
      "inputs": [
        {
          "indexed": false,
          "internalType": "address",
          "name": "to",
          "type": "address"
        },
        {
          "indexed": false,
          "internalType": "address",
          "name": "by",
          "type": "address"
        },
        {
          "indexed": false,
          "internalType": "uint256",
          "name": "valueInWei",
          "type": "uint256"
        }
      ],
      "name": "UpgradeRewardPaid",
      "type": "event"
    },
    {
      "anonymous": false,
      "inputs": [
        {
          "indexed": true,
          "internalType": "address",
          "name": "implementation",
          "type": "address"
        }
      ],
      "name": "Upgraded",
      "type": "event"
    },
    {
      "anonymous": false,
      "inputs": [
        {
          "indexed": false,
          "internalType": "string",
          "name": "reason",
          "type": "string"
        }
      ],
      "name": "WeeklyRewardNotPaid",
      "type": "event"
    },
    {
      "anonymous": false,
      "inputs": [
        {
          "indexed": false,
          "internalType": "address",
          "name": "to",
          "type": "address"
        },
        {
          "indexed": false,
          "internalType": "uint256",
          "name": "valueInWei",
          "type": "uint256"
        }
      ],
      "name": "WeeklyRewardPaid",
      "type": "event"
    },
    {
      "inputs": [],
      "name": "UPGRADE_INTERFACE_VERSION",
      "outputs": [
        {
          "internalType": "string",
          "name": "",
          "type": "string"
        }
      ],
      "stateMutability": "view",
      "type": "function"
    },
    {
      "inputs": [
        {
          "internalType": "address",
          "name": "_chainLinkOracleAddress",
          "type": "address"
        }
      ],
      "name": "checkIfChainLinkOracleAddressSupporeted",
      "outputs": [
        {
          "internalType": "bool",
          "name": "",
          "type": "bool"
        }
      ],
      "stateMutability": "view",
      "type": "function"
    },
    {
      "inputs": [
        {
          "internalType": "address",
          "name": "_chainLinkOracleAddress",
          "type": "address"
        }
      ],
      "name": "distributeWeeklyReward",
      "outputs": [],
      "stateMutability": "nonpayable",
      "type": "function"
    },
    {
      "inputs": [],
      "name": "getAllUsers",
      "outputs": [
        {
          "internalType": "address[]",
          "name": "",
          "type": "address[]"
        }
      ],
      "stateMutability": "view",
      "type": "function"
    },
    {
      "inputs": [],
      "name": "getContractDefaults",
      "outputs": [
        {
          "internalType": "address",
          "name": "teamWallet",
          "type": "address"
        },
        {
          "internalType": "uint256",
          "name": "teamWalletRate",
          "type": "uint256"
        },
        {
          "internalType": "address",
          "name": "liquidityWallet",
          "type": "address"
        },
        {
          "internalType": "uint256",
          "name": "liquidityCreationrate",
          "type": "uint256"
        },
        {
          "internalType": "address",
          "name": "defaultReferrer",
          "type": "address"
        },
        {
          "internalType": "uint256",
          "name": "registrationValueInUSD",
          "type": "uint256"
        }
      ],
      "stateMutability": "view",
      "type": "function"
    },
    {
      "inputs": [
        {
          "internalType": "address",
          "name": "_chainLinkOracleAddress",
          "type": "address"
        }
      ],
      "name": "getNativePriceInUSD",
      "outputs": [
        {
          "internalType": "uint256",
          "name": "",
          "type": "uint256"
        }
      ],
      "stateMutability": "view",
      "type": "function"
    },
    {
      "inputs": [],
      "name": "getRandomUserList",
      "outputs": [
        {
          "internalType": "address[]",
          "name": "",
          "type": "address[]"
        }
      ],
      "stateMutability": "view",
      "type": "function"
    },
    {
      "inputs": [],
      "name": "getRegistrationsStats",
      "outputs": [
        {
          "internalType": "uint32",
          "name": "totalUser",
          "type": "uint32"
        },
        {
          "internalType": "uint256",
          "name": "totalRegistrationValueInUSD",
          "type": "uint256"
        },
        {
          "internalType": "uint256",
          "name": "totalReferralPaidInUSD",
          "type": "uint256"
        },
        {
          "internalType": "uint256",
          "name": "totalWeeklyRewardsPaidInUSD",
          "type": "uint256"
        }
      ],
      "stateMutability": "view",
      "type": "function"
    },
    {
      "inputs": [],
      "name": "getSupportedChainLinkOracleAddress",
      "outputs": [
        {
          "internalType": "address[]",
          "name": "",
          "type": "address[]"
        }
      ],
      "stateMutability": "view",
      "type": "function"
    },
    {
      "inputs": [],
      "name": "getUpgradePlans",
      "outputs": [
        {
          "components": [
            {
              "internalType": "uint8",
              "name": "id",
              "type": "uint8"
            },
            {
              "internalType": "uint256",
              "name": "valueToUpgradeInUSD",
              "type": "uint256"
            }
          ],
          "internalType": "struct UpgradeStruct[]",
          "name": "upgradePlans",
          "type": "tuple[]"
        },
        {
          "internalType": "uint8",
          "name": "upgradePlansCount",
          "type": "uint8"
        }
      ],
      "stateMutability": "view",
      "type": "function"
    },
    {
      "inputs": [
        {
          "internalType": "uint8",
          "name": "_id",
          "type": "uint8"
        }
      ],
      "name": "getUpgradePlansById",
      "outputs": [
        {
          "components": [
            {
              "internalType": "uint8",
              "name": "id",
              "type": "uint8"
            },
            {
              "internalType": "uint256",
              "name": "valueToUpgradeInUSD",
              "type": "uint256"
            }
          ],
          "internalType": "struct UpgradeStruct",
          "name": "",
          "type": "tuple"
        }
      ],
      "stateMutability": "view",
      "type": "function"
    },
    {
      "inputs": [
        {
          "internalType": "address",
          "name": "_userAddress",
          "type": "address"
        }
      ],
      "name": "getUserAccount",
      "outputs": [
        {
          "components": [
            {
              "internalType": "address",
              "name": "self",
              "type": "address"
            },
            {
              "internalType": "address",
              "name": "parent",
              "type": "address"
            },
            {
              "internalType": "address",
              "name": "referrer",
              "type": "address"
            },
            {
              "internalType": "address[]",
              "name": "referee",
              "type": "address[]"
            },
            {
              "components": [
                {
                  "internalType": "address",
                  "name": "referee",
                  "type": "address"
                },
                {
                  "internalType": "address",
                  "name": "assignedTo",
                  "type": "address"
                }
              ],
              "internalType": "struct RefereeStruct[]",
              "name": "refereeAssigned",
              "type": "tuple[]"
            },
            {
              "components": [
                {
                  "internalType": "address",
                  "name": "teamMember",
                  "type": "address"
                },
                {
                  "internalType": "uint8",
                  "name": "level",
                  "type": "uint8"
                }
              ],
              "internalType": "struct TeamStruct[]",
              "name": "team",
              "type": "tuple[]"
            },
            {
              "internalType": "uint256",
              "name": "selfBusinessInUSD",
              "type": "uint256"
            },
            {
              "internalType": "uint256",
              "name": "upgradedValueInUSD",
              "type": "uint256"
            },
            {
              "internalType": "uint8",
              "name": "upgradeId",
              "type": "uint8"
            },
            {
              "internalType": "uint256",
              "name": "directBusinessInUSD",
              "type": "uint256"
            },
            {
              "internalType": "uint256",
              "name": "teamBusinessInUSD",
              "type": "uint256"
            },
            {
              "internalType": "uint256",
              "name": "referralRewardsInUSD",
              "type": "uint256"
            },
            {
              "internalType": "uint256",
              "name": "weeklyRewardsInUSD",
              "type": "uint256"
            },
            {
              "internalType": "uint256",
              "name": "upgradeRewardsInUSD",
              "type": "uint256"
            },
            {
              "internalType": "uint256",
              "name": "userRandomIndex",
              "type": "uint256"
            },
            {
              "internalType": "uint256",
              "name": "timestampJoined",
              "type": "uint256"
            }
          ],
          "internalType": "struct AccountStruct",
          "name": "",
          "type": "tuple"
        }
      ],
      "stateMutability": "view",
      "type": "function"
    },
    {
      "inputs": [
        {
          "internalType": "address",
          "name": "_userAddress",
          "type": "address"
        }
      ],
      "name": "getUserBusiness",
      "outputs": [
        {
          "internalType": "uint256",
          "name": "selfBusinessInUSD",
          "type": "uint256"
        },
        {
          "internalType": "uint256",
          "name": "directBusinessInUSD",
          "type": "uint256"
        },
        {
          "internalType": "uint256",
          "name": "teamBusinessInUSD",
          "type": "uint256"
        },
        {
          "internalType": "uint256",
          "name": "totalBusinessInUSD",
          "type": "uint256"
        }
      ],
      "stateMutability": "view",
      "type": "function"
    },
    {
      "inputs": [
        {
          "internalType": "address",
          "name": "_userAddress",
          "type": "address"
        }
      ],
      "name": "getUserCurrentUpgradeLevel",
      "outputs": [
        {
          "internalType": "uint8",
          "name": "level",
          "type": "uint8"
        },
        {
          "internalType": "uint256",
          "name": "totalUpgradeValueInUSD",
          "type": "uint256"
        }
      ],
      "stateMutability": "view",
      "type": "function"
    },
    {
      "inputs": [
        {
          "internalType": "address",
          "name": "_userAddress",
          "type": "address"
        }
      ],
      "name": "getUserRewards",
      "outputs": [
        {
          "internalType": "uint256",
          "name": "referralRewardInUSD",
          "type": "uint256"
        },
        {
          "internalType": "uint256",
          "name": "weeklyRewardInUSD",
          "type": "uint256"
        },
        {
          "internalType": "uint256",
          "name": "upgradeRewardsInUSD",
          "type": "uint256"
        },
        {
          "internalType": "uint256",
          "name": "totalRewards",
          "type": "uint256"
        }
      ],
      "stateMutability": "view",
      "type": "function"
    },
    {
      "inputs": [
        {
          "internalType": "address",
          "name": "_userAddress",
          "type": "address"
        }
      ],
      "name": "getUserTeam",
      "outputs": [
        {
          "internalType": "address",
          "name": "referrer",
          "type": "address"
        },
        {
          "internalType": "address[]",
          "name": "referees",
          "type": "address[]"
        },
        {
          "internalType": "uint256",
          "name": "refereeCount",
          "type": "uint256"
        },
        {
          "components": [
            {
              "internalType": "address",
              "name": "referee",
              "type": "address"
            },
            {
              "internalType": "address",
              "name": "assignedTo",
              "type": "address"
            }
          ],
          "internalType": "struct RefereeStruct[]",
          "name": "refereeAssigned",
          "type": "tuple[]"
        },
        {
          "internalType": "uint256",
          "name": "refereeAssignedCount",
          "type": "uint256"
        },
        {
          "components": [
            {
              "internalType": "address",
              "name": "teamMember",
              "type": "address"
            },
            {
              "internalType": "uint8",
              "name": "level",
              "type": "uint8"
            }
          ],
          "internalType": "struct TeamStruct[]",
          "name": "team",
          "type": "tuple[]"
        },
        {
          "internalType": "uint256",
          "name": "teamCount",
          "type": "uint256"
        }
      ],
      "stateMutability": "view",
      "type": "function"
    },
    {
      "inputs": [],
      "name": "getWeeklyRewardToBeDistributed",
      "outputs": [
        {
          "internalType": "uint256",
          "name": "_rewardValue",
          "type": "uint256"
        },
        {
          "internalType": "uint256",
          "name": "_remianingTime",
          "type": "uint256"
        },
        {
          "internalType": "uint256",
          "name": "_endTime",
          "type": "uint256"
        }
      ],
      "stateMutability": "view",
      "type": "function"
    },
    {
      "inputs": [],
      "name": "initialize",
      "outputs": [],
      "stateMutability": "nonpayable",
      "type": "function"
    },
    {
      "inputs": [
        {
          "internalType": "address",
          "name": "_chainLinkOracleAddress",
          "type": "address"
        }
      ],
      "name": "needNativeToRegister",
      "outputs": [
        {
          "internalType": "uint256",
          "name": "",
          "type": "uint256"
        }
      ],
      "stateMutability": "view",
      "type": "function"
    },
    {
      "inputs": [],
      "name": "owner",
      "outputs": [
        {
          "internalType": "address",
          "name": "",
          "type": "address"
        }
      ],
      "stateMutability": "view",
      "type": "function"
    },
    {
      "inputs": [],
      "name": "proxiableUUID",
      "outputs": [
        {
          "internalType": "bytes32",
          "name": "",
          "type": "bytes32"
        }
      ],
      "stateMutability": "view",
      "type": "function"
    },
    {
      "inputs": [
        {
          "internalType": "address",
          "name": "_referrer",
          "type": "address"
        },
        {
          "internalType": "address",
          "name": "_chainLinkOracleAddress",
          "type": "address"
        }
      ],
      "name": "registrationNative",
      "outputs": [],
      "stateMutability": "payable",
      "type": "function"
    },
    {
      "inputs": [],
      "name": "renounceOwnership",
      "outputs": [],
      "stateMutability": "nonpayable",
      "type": "function"
    },
    {
      "inputs": [
        {
          "internalType": "address",
          "name": "_chainLinkOracleAddress",
          "type": "address"
        },
        {
          "internalType": "bool",
          "name": "_status",
          "type": "bool"
        }
      ],
      "name": "setChainLinkOracleAddress",
      "outputs": [],
      "stateMutability": "nonpayable",
      "type": "function"
    },
    {
      "inputs": [
        {
          "internalType": "address",
          "name": "newOwner",
          "type": "address"
        }
      ],
      "name": "transferOwnership",
      "outputs": [],
      "stateMutability": "nonpayable",
      "type": "function"
    },
    {
      "inputs": [
        {
          "internalType": "address",
          "name": "_chainLinkOracleAddress",
          "type": "address"
        }
      ],
      "name": "upgradeAccountNative",
      "outputs": [],
      "stateMutability": "payable",
      "type": "function"
    },
    {
      "inputs": [
        {
          "internalType": "address",
          "name": "newImplementation",
          "type": "address"
        },
        {
          "internalType": "bytes",
          "name": "data",
          "type": "bytes"
        }
      ],
      "name": "upgradeToAndCall",
      "outputs": [],
      "stateMutability": "payable",
      "type": "function"
    },
    {
      "stateMutability": "payable",
      "type": "receive"
    }
  ],
  "bytecode": "0x60a080604052346029573060805261350c908161002f82396080518181816125d601526126a90152f35b600080fdfe608080604052600436101561001d575b50361561001b57600080fd5b005b60003560e01c9081630690c6a814612bf757508063078b0fb714612a0757806307c560d11461292b57806308e922ba1461290f57806311f4d576146128d05780631a7463441461286d5780634f1ef2861461262d57806352d1902d146125c357806359a04544146124565780635eda81ce1461225f5780636a74631114612239578063715018a6146121e15780637ec37e031461217e5780638129fc1c14611cf1578063846688f714611c905780638da5cb5b14611c5a578063a0db38e5146118e3578063a9df9fae14611876578063ad3cb1cc146117fa578063c53b219e14610db0578063d277b8a914610b83578063e2842d7914610b53578063f2fde38b14610b2a578063f87127b41461091b578063f92501711461071d578063faeda7e5146104d15763fb47e01614610153573861000f565b346104cc5760203660031901126104cc5761016c612c32565b60006101e060405161017d81612c85565b82815282602082015282604082015260608082015260606080820152606060a08201528260c08201528260e08201528261010082015282610120820152826101408201528261016082015282610180820152826101a0820152826101c0820152015260018060a01b03166000526012602052604060002060405161020081612c85565b81546001600160a01b03908116825260018301548116602083019081526002840154909116604083019081529092909161023c60038301612e3b565b6060820190815260048301805461025281612e8f565b916102606040519384612cbc565b818352602083019060005260206000206000915b8383106104915750505050608083019081526005840191825461029681612e8f565b936102a46040519586612cbc565b818552602085019060005260206000206000915b83831061045b575050505060a08401928352600685015460c0850152600785015460e08501908152600886015460ff166101008601526009860154610120860152600a860154610140860152600b860154610160860152600c860154610180860152600d8601546101a0860152600e8601546101c0860152600f909501546101e085015260408051602080825286516001600160a01b039081168284015299518a16928201929092529651909716606087015251610200608087015280516102208701819052610240870197919091019060005b81811061043c575050506101e092916103b686976103c99351601f198983030160a08a0152612cfa565b9051868203601f190160c0880152612d46565b9260c082015160e08601525161010085015260ff610100820151166101208501526101208101516101408501526101408101516101608501526101608101516101808501526101808101516101a08501526101a08101516101c08501526101c08101518285015201516102008301520390f35b82516001600160a01b031689526020988901989092019160010161038c565b60016020819260405161046d81612ca1565b60ff8654858060a01b038116835260a01c16838201528152019201920191906102b8565b600260206001926040516104a481612ca1565b848060a01b038654168152848060a01b03858701541683820152815201920192019190610274565b600080fd5b346104cc5760203660031901126104cc576001600160a01b036104f2612c32565b16600052601260205260406000206040519061050d82612c85565b80546001600160a01b039081168352600182015481166020840152600282015416604083019081529061054260038201612e3b565b91606084019283526004820193845461055a81612e8f565b956105686040519788612cbc565b818752602087019060005260206000206000915b8383106106e25750505050608081019485526005830192835461059e81612e8f565b946105ac6040519687612cbc565b818652602086019060005260206000206000915b8383106106ac5750505050906101e0600f6106a294938660a0850152600681015460c0850152600781015460e085015260ff6008820154166101008501526009810154610120850152600a810154610140850152600b810154610160850152600c810154610180850152600d8101546101a0850152600e8101546101c0850152015491015260018060a01b03905116925193845190519261068f84519282519561067c604051998a998a5260e060208b015260e08a0190612c48565b9160408901528782036060890152612cfa565b91608086015284820360a0860152612d46565b9060c08301520390f35b6001602081926040516106be81612ca1565b60ff8654858060a01b038116835260a01c16838201528152019201920191906105c0565b600260206001926040516106f581612ca1565b848060a01b038654168152848060a01b0385870154168382015281520192019201919061057c565b346104cc5760203660031901126104cc57610736612c32565b6001600160a01b0316600090815260126020526040808220905190919061075c81612c85565b82546001600160a01b039081168252600184015481166020830152600284015416604082015261078e60038401612e3b565b60608201526004830180546107a281612e8f565b916107b06040519384612cbc565b818352602083019060005260206000206000915b8383106108e057505050506080820152600583019283546107e481612e8f565b906107f26040519283612cbc565b80825260208201956000526020600020956000905b8282106108aa575050506040945060a0830152600681015460c08301526007810154918260e08201526101e0600f60ff60088501541693846101008501526009810154610120850152600a810154610140850152600b810154610160850152600c810154610180850152600d8101546101a0850152600e8101546101c08501520154910152806108a2575b5060ff8351921682526020820152f35b915083610892565b6001602081926040516108bc81612ca1565b60ff8c54858060a01b038116835260a01c1683820152815201980191019096610807565b600260206001926040516108f381612ca1565b848060a01b038654168152848060a01b038587015416838201528152019201920191906107c4565b346104cc5760203660031901126104cc576001600160a01b0361093c612c32565b16600052601260205260406000206040519061095782612c85565b80546001600160a01b039081168352600182015481166020840152600282015416604083015261098960038201612e3b565b606083015260048101805461099d81612e8f565b916109ab6040519384612cbc565b818352602083019060005260206000206000915b838310610aef575050505060808301526005810180546109de81612e8f565b916109ec6040519384612cbc565b818352602083019060005260206000206000915b838310610ab9575050505060a0830152610ab56006820154918260c0850152600781015460e085015260ff600882015416610100850152600981015493846101208201526101e0600f600a8401549384610140850152600b810154610160850152600c810154610180850152600d8101546101a0850152600e8101546101c08501520154910152610a918382612ea6565b90604051948594859094939260609260808301968352602083015260408201520152565b0390f35b600160208192604051610acb81612ca1565b60ff8654858060a01b038116835260a01c1683820152815201920192019190610a00565b60026020600192604051610b0281612ca1565b848060a01b038654168152848060a01b038587015416838201528152019201920191906109bf565b346104cc5760203660031901126104cc5761001b610b46612c32565b610b4e6131be565b613053565b346104cc5760003660031901126104cc57610ab5610b6f612de8565b604051918291602083526020830190612c48565b346104cc5760203660031901126104cc57610b9c612c32565b6001600160a01b038116600090815260146020526040902054610bc69060ff161515600114612fd4565b670de0b6b3a7640000610be4610bde600954936130b7565b83612eb3565b04600b5462093a80810110610d5a578115610d7057610c01612de8565b6000194301438111610d5a57610c5690604051610c3781610c29602082019440444287613019565b03601f198101835282612cbc565b51902082516001600160a01b039391610c50919061302e565b90612eff565b5116918215610ce3576000808080938682526012602052600c6040832001610c7f878254612ea6565b90558682f115610cd7577f6dbdd944bdf6514aca26947d204530e2ecbea365677ef05fee7a56d54a14569791600060095542600b55610cc082600554612ea6565b600555610cd260405192839283613038565b0390a1005b6040513d6000823e3d90fd5b5050507f974c744afa915921dddb0f53fdbfdd97fef12a94db2457dcf878aa94ad687274608060405160208152603160208201527f52616e646f6d206164647265737320776173207a65726f20616464726573732e60408201527010283632b0b9b2903a393c9030b3b0b4b760791b6060820152a1005b634e487b7160e01b600052601160045260246000fd5b60405162461bcd60e51b81526020600482015260186024820152774e6f207265776172647320746f206469737472696275746560401b6044820152606490fd5b60403660031901126104cc57610dc4612c32565b6024356001600160a01b038116918282036104cc576001600160a01b03169182156117a9576000526014602052600160ff6040600020541615150361175857610e1e610e18670de0b6b3a7640000926130b7565b34612eb3565b04600f54606181029080820460611490151715610d5a5760649004811061170457600c5460ff8082169160081c1692336000526012602052604060002091816000526012602052604060002094600684019586546116c55760068101541561168a5784546001600160a01b031615611675575b80546001600160a01b03161561165f575b50600d5492600054600160401b8110156114c857610ecb816001610ed293016000556000612f2e565b3391612f46565b600285018054909490610eed906001600160a01b0316613244565b6115ff573360005260126020526040600020913381146115bd5760409060009081526012602052209060038201610f25828254613280565b156115845750610f38600e8301546133f4565b611576575b6000194301438111610d5a57610f74610f7991604051610f6881610c29602082019440444287613019565b5190206001549061302e565b612f13565b60018060a01b0391549060031b1c166000526012602052604060002090610fa98460018060a01b038454166132a1565b825482546040516001600160a01b0391821693927fa1b30426557565c4fa85ce5f9c88513d7d3f49d21eb30569c249b07b037831ef928291610ff09133918891168461325d565b0390a16040516004850161100382612ca1565b33825260208201938452805493600160401b8510156114c8576001850180835585101561156057600091825260209091209151600194851b90920180546001600160a01b039384166001600160a01b031991821617825591519401805494909216931692909217909155611085906003830161107f3382612f8e565b54613280565b611551575b505b6001820180546001600160a01b0316156114e9575b50506000905b8260ff83161061138f575b5050505b600e8301805461134a5783546110d4906001600160a01b0316612f69565b60015490557f0411c58b3c1e8a39d91c901e5c807bff1401650beedc45aba65112756bb929b4608060018060a01b038554167f06baf10092c7ea144c4fb56fb8cf641e1f00e291a535b5d54b547eadb29485a76020604051838152a160018601549454604080516001600160a01b0397881680825297909216602083015281019190915260608101879052a16064611178816111708434612eb3565b049286612eb3565b0491600052601260205260406000209060018060a01b03825416806112ab575b50505050600654600080808060646111b660ff8760a01c1634612eb3565b048095829082156112a1575b6001600160a01b031690f115610cd7576006546040517f5aa75bdb3269082e844d731608afae2a07cbf194f251e3f857b870af86b754fb9290918291611211916001600160a01b031683613038565b0390a1606461122560ff6008541634612eb3565b049260008080808760018060a01b0360105416828215611298575bf115610cd75761125561129394600754612ea6565b600755611263838254612ea6565b9055600f42910155611288606461127f60ff600a541634612eb3565b04600954612ea6565b600955600254612ea6565b600255005b506108fc611240565b6108fc91506111c2565b60008080848194828215611341575bf115610cd7576009927f153f77382d7e07de734977ae352e9b1f5f8ad4b1c0033c883a9a33456a87836f60806113279360018060a01b0386541690604051918252336020830152604082015260016060820152a1600b830161131d828254612ea6565b9055600354612ea6565b60035501611336838254612ea6565b905583808080611198565b506108fc6112ba565b60405162461bcd60e51b815260206004820152601e60248201527f5573657220697320616c726561647920696e2072616e646f6d206c69737400006044820152606490fd5b60028101546001600160a01b03169081156114e357546001600160a01b031681146114de576000526012602052604060002060058101906113cf83612fc2565b604051926113dc84612ca1565b33845260ff60208501921682528054600160401b8110156114c85761140691600182018155612f2e565b9190916114b2579251815493516001600160a81b03199094166001600160a01b03919091161760a09390931b60ff60a01b1692909217909155600a810180546114ac929190611456908a90612ea6565b905580547f85db3f10b88ea7fc653f3f818097a3fc3c543196ed60cad2251df922bcc9ad7f906060906001600160a01b031660ff61149387612fc2565b604051928352336020840152166040820152a191612fb1565b906110a7565b634e487b7160e01b600052600060045260246000fd5b634e487b7160e01b600052604160045260246000fd5b6110b2565b506110b2565b905481546001600160a01b0319166001600160a01b0391821690811790925560028301546040517f8efa008f8ae98ae30d3219078a298c85bc25a62f50c57ed9a3ec838b7eed9f47939092839261154792339291909116908461325d565b0390a187806110a1565b61155a906132f7565b8861108a565b634e487b7160e01b600052603260045260246000fd5b61157f826132f7565b610f3d565b82546115aa9291906115a09086906001600160a01b03166132a1565b61107f3382612f8e565b1561108c576115b8816132f7565b61108c565b60405162461bcd60e51b815260206004820152601a6024820152792cb7ba9031b0b73737ba103932b332b9103cb7bab939b2b6331760311b6044820152606490fd5b5050507f1f4fff38c5e64af9e759d590409f022ea913658008bb1d0cd35e028244f01ecf606060405160208152601f60208201527f5573657220416c72656164792068617665207265666572726572207365742e006040820152a16110b6565b80546001600160a01b0319168417905586610ea2565b84546001600160a01b03191633178555610e91565b60405162461bcd60e51b81526020600482015260136024820152725265666572726572204e6f742041637469766560681b6044820152606490fd5b60405162461bcd60e51b8152602060048201526017602482015276155cd95c88185b1c9958591e481c9959da5cdd195c9959604a1b6044820152606490fd5b60405162461bcd60e51b815260206004820152602660248201527f56616c7565206973206c657373207468656e20726567697374726174696f6e206044820152653b30b63ab29760d11b6064820152608490fd5b60405162461bcd60e51b815260206004820152602360248201527f43757272656e637920596f752073656c6563746564206e6f7420737570706f726044820152621d195960ea1b6064820152608490fd5b60405162461bcd60e51b815260206004820152602360248201527f5a65726f20416464726573732063616e6e6f74206265207468652072656665726044820152623932b960e91b6064820152608490fd5b346104cc5760003660031901126104cc57604080519061181a8183612cbc565b60058252640352e302e360dc1b6020830152805180926020825280519081602084015260005b82811061185f5750506000828201840152601f01601f19168101030190f35b602082820181015187830187015286945001611840565b346104cc5760203660031901126104cc5760043560ff81168091036104cc5761189d612ee6565b50600052601360205260408060002060018251916118ba83612ca1565b60ff8154168352015460208201526118e1825180926020809160ff81511684520151910152565bf35b60203660031901126104cc57670de0b6b3a7640000611935610e18611906612c32565b6001600160a01b0381166000908152601460205260409020546119309060ff161515600114612fd4565b6130b7565b0433600052601260205260406000206008810160ff815416600052601360205260406000209060016040519261196a84612ca1565b60ff81541684520154602083019080825215611c15578051605f810290808204605f1490151715610d5a57606490048511908115611bf5575b5015611ba15760ff808093600786016119bd888254612ea6565b9055511616821982541617815554169160009260001981019260ff8085119416905b828611156119e957005b600201546001600160a01b0316600090815260126020526040902084610d5a57818614611a2357946000198114610d5a57600101946119df565b80955060ff929394506008915001541690808211918215611b97575b505080611b84575b15611ab457611a5b600d8301918254612ea6565b9055600080808060018060a01b0385541681903415611aaa575b3491f115610cd757546040516000805160206134c0833981519152918190610cd290349033906001600160a01b0316846131f4565b6108fc9150611a75565b50507f6696b78fc1713892e6e2bb3df5cdc986ab67a0c675898c7ef535bd2201ca9451608060405160208152603f60208201527f55706c696e6520686173206e6f742075706772616465642e20416d6f756e742060408201527f7472616e73666572656420746f206c69717569646974792077616c6c65742e006060820152a16010546001600160a01b031660003415611b7b575b600080808093853491f115610cd757610cd26000805160206134c08339815191529160405191829134903390846131f4565b506108fc611b49565b5081546001600160a01b03161515611a47565b1490508380611a3f565b60405162461bcd60e51b815260206004820152602660248201527f56616c75652073686f756c6420626520657175616c20746f20757067726164656044820152652076616c756560d01b6064820152608490fd5b51606980820292508115918304141715610d5a57606490048410856119a3565b60405162461bcd60e51b815260206004820152601d60248201527f596f75206861766520757067726164656420616c6c206c6576656c732e0000006044820152606490fd5b346104cc5760003660031901126104cc57600080516020613460833981519152546040516001600160a01b039091168152602090f35b346104cc5760003660031901126104cc576000600954600b549162093a80830192838111610d5a57428411611cd7575b509160609260405192835260208301526040820152f35b62093a8091504290030191808311610d5a57916060611cc0565b346104cc5760003660031901126104cc576000805160206134e083398151915254604081901c60ff1615906001600160401b03811680159081612176575b600114908161216c575b159081612163575b50612152576001600160401b031981166001176000805160206134e08339815191525581612129575b50600e805473cef5767039fa6a66016b802546f123e0c3ddedc26001600160a01b03199182168117909255600082905260126020527f7b58f54f0bc0fcd57e50c233f450fe384adf8c88021dbbeef24b87de22945c1480548216831790557f7b58f54f0bc0fcd57e50c233f450fe384adf8c88021dbbeef24b87de22945c1580549091168217905569152d02c7e14af68000007f7b58f54f0bc0fcd57e50c233f450fe384adf8c88021dbbeef24b87de22945c1a55611e2890612f69565b601154600160401b8110156114c857806001611e4992016011556011612f2e565b81546001600160a01b0360039290921b91821b1916730567f2323251f0aab15c8dfb1967e4e8a7d42aee90911b179055601154600160401b8110156114c857806001611e9a92016011556011612f2e565b81546001600160a01b0360039290921b91821b1916739c85f470f9ba23dfc4fe9531933c2ce2c1739c399182901b1790915560146020527f18b399276171edd4288c75706c059c76f8ba27a208f6ab7dc13ddac4a813eb06805460ff1990811660019081179092556000929092527f785e316b530d6f09805cf52ec6944c1fd91d7cf1ffa292231399b4110cc5ca9d80548316909117905568015af1d78b58c40000600f55600c805461ffff191661083c1790556002600d55600680546001600160a81b0319167414554f58fcfcef95f82c8cf6ed9e51e5c79e3414811790556008805482166010908117909155600a805490921660041790915542600b5580546001600160a01b031916733d7263afa42c9d47c13cfcdcdc72a131077e561817905560405160e081016001600160401b038111828210176114c8576040526801158e460913d0000081526801a055690d9db8000060208201526802b5e3af16b188000060408201526809c2007651b250000060608201526815af1d78b58c400000608082015268281d901f4fdd10000060a0820152684fb0591b9b3038000060c082015260005b60ff81169060078210156120ad576120a891600161205f83612fc2565b9160ff8060406000611fe08860051b168a015194838351986120808a612ca1565b1688526020880195865281526013602052209451161660ff1984541617835551910155612fb1565b612042565b836120b6613216565b6120be613216565b6120c733613053565b6120cf613216565b6120d557005b60ff60401b196000805160206134e083398151915254166000805160206134e0833981519152557fc7f505b2f371ae2175ee4913f4499e1f2633a7b5936321eed1cdaeb6115181d2602060405160018152a1005b6001600160481b0319166001600160401b01176000805160206134e08339815191525581611d6a565b63f92ee8a960e01b60005260046000fd5b90501583611d41565b303b159150611d39565b839150611d2f565b346104cc5760003660031901126104cc576040516001548082526020820190600160005260206000209060005b8181106121c257610ab585610b6f81870382612cbc565b82546001600160a01b03168452602090930192600192830192016121ab565b346104cc5760003660031901126104cc576121fa6131be565b60008051602061346083398151915280546001600160a01b031981169091556000906001600160a01b03166000805160206134a08339815191528280a3005b346104cc5760203660031901126104cc576020612257611930612c32565b604051908152f35b346104cc5760403660031901126104cc57612278612c32565b6024358015158091036104cc5761228d6131be565b6001600160a01b03821660008181526014602052604090205490919060ff161515811461241c57600190826000526014602052604060002060ff1981541660ff831617905514600014612306575060115490600160401b8210156114c85761230082600161001b94016011556011612f2e565b90612f46565b9050612310612d92565b805160005b81811061231e57005b836001600160a01b036123318386612eff565b511614612341575b600101612315565b6000198201828111610d5a576001600160a01b03906123609085612eff565b51166000601154831015612408576011908190527f31ecc21a745e3968a04e9570e4425bc18fa8019c68028196b546d1669c200c68830180546001600160a01b0319166001600160a01b039093169290921790915554600081156123f4575060019190600019016123ea6123d5826011612f2e565b81549060018060a01b039060031b1b19169055565b6011559050612339565b634e487b7160e01b81526031600452602490fd5b634e487b7160e01b81526032600452602490fd5b60405162461bcd60e51b815260206004820152601260248201527114dd185d1d5cc8185b1c9958591e481cd95d60721b6044820152606490fd5b346104cc5760003660031901126104cc5760ff6000805b82821660328110156125bb5760005260136020528260406000205416156124a357600161249a8492612fb1565b9201169061246d565b90505b166124b081612e8f565b906124be6040519283612cbc565b808252601f196124cd82612e8f565b0160005b81811061259657505060005b60ff8116828110156125345760ff9161252c8260019360005260136020526040600020846040519161250e83612ca1565b878154168352015460208201526125258289612eff565b5286612eff565b5001166124dd565b828460405190604082019260408352815180945260206060840192016000945b80861061256957505082935060208301520390f35b9092602060408261258a60019488516020809160ff81511684520151910152565b01940195019490612554565b6020906040516125a581612ca1565b60008152600083820152828287010152016124d1565b5090506124a6565b346104cc5760003660031901126104cc577f00000000000000000000000000000000000000000000000000000000000000006001600160a01b0316300361261c5760206040516000805160206134808339815191528152f35b63703e46dd60e11b60005260046000fd5b60403660031901126104cc57612641612c32565b602435906001600160401b0382116104cc57366023830112156104cc5781600401359061266d82612cdf565b9161267b6040519384612cbc565b808352602083019336602483830101116104cc57816000926024602093018737840101526001600160a01b037f00000000000000000000000000000000000000000000000000000000000000001630811490811561284a575b5061261c576126e16131be565b6040516352d1902d60e01b81526001600160a01b0382169390602081600481885afa60009181612816575b506127265784634c9c8ce360e01b60005260045260246000fd5b806000805160206134808339815191528692036128025750823b156127ee5760008051602061348083398151915280546001600160a01b031916821790557fbc7cd75a20ee27fd9adebab32041f755214dbc6bffa90cc0225b39da2e5c2d3b600080a28251156127d3576000809161001b945190845af43d156127cb573d916127ae83612cdf565b926127bc6040519485612cbc565b83523d6000602085013e6133fe565b6060916133fe565b505050346127dd57005b63b398979f60e01b60005260046000fd5b634c9c8ce360e01b60005260045260246000fd5b632a87526960e21b60005260045260246000fd5b9091506020813d602011612842575b8161283260209383612cbc565b810103126104cc5751908661270c565b3d9150612825565b600080516020613480833981519152546001600160a01b031614159050846126d4565b346104cc5760003660031901126104cc57600654601054600854600e54600f54604080516001600160a01b03808816825260a097881c60ff908116602084015296811692820192909252939094166060840152921660808201529182015260c090f35b346104cc5760203660031901126104cc576001600160a01b036128f1612c32565b166000526014602052602060ff604060002054166040519015158152f35b346104cc5760003660031901126104cc57610ab5610b6f612d92565b346104cc5760203660031901126104cc57612944612c32565b60018060a01b0381166000526014602052600160ff604060002054161515036129a157600f5490670de0b6b3a7640000820291808304670de0b6b3a76400001490151715610d5a5760209161299b612257926130b7565b90612ec6565b60405162461bcd60e51b815260206004820152603860248201527f506c6561736520636865636b2074686520636861696e4c696e6b4f7261636c656044820152771059191c995cdcc81bdc881b9bdd081cdd5c1c1bdc9d195960421b6064820152608490fd5b346104cc5760203660031901126104cc576001600160a01b03612a28612c32565b166000526012602052604060002060405190612a4382612c85565b80546001600160a01b0390811683526001820154811660208401526002820154166040830152612a7560038201612e3b565b6060830152600481018054612a8981612e8f565b91612a976040519384612cbc565b818352602083019060005260206000206000915b838310612bbc57505050506080830152600581018054612aca81612e8f565b91612ad86040519384612cbc565b818352602083019060005260206000206000915b838310612b86575050505060a0830152600681015460c0830152600781015460e083015260ff6008820154166101008301526009810154610120830152600a810154610140830152610ab5600b8201549182610160850152600c81015493846101808201526101e0600f600d84015493846101a0850152600e8101546101c08501520154910152610a9181612b818686612ea6565b612ea6565b600160208192604051612b9881612ca1565b60ff8654858060a01b038116835260a01c1683820152815201920192019190612aec565b60026020600192604051612bcf81612ca1565b848060a01b038654168152848060a01b03858701541683820152815201920192019190612aab565b346104cc5760003660031901126104cc5760809063ffffffff6000541660025460035490600554928452602084015260408301526060820152f35b600435906001600160a01b03821682036104cc57565b906020808351928381520192019060005b818110612c665750505090565b82516001600160a01b0316845260209384019390920191600101612c59565b61020081019081106001600160401b038211176114c857604052565b604081019081106001600160401b038211176114c857604052565b601f909101601f19168101906001600160401b038211908210176114c857604052565b6001600160401b0381116114c857601f01601f191660200190565b906020808351928381520192019060005b818110612d185750505090565b825180516001600160a01b039081168652602091820151168186015260409094019390920191600101612d0b565b906020808351928381520192019060005b818110612d645750505090565b825180516001600160a01b0316855260209081015160ff168186015260409094019390920191600101612d57565b604051906011548083528260208101601160005260206000209260005b818110612dc6575050612dc492500383612cbc565b565b84546001600160a01b0316835260019485019487945060209093019201612daf565b6040519060005480835282602081016000805260206000209260005b818110612e19575050612dc492500383612cbc565b84546001600160a01b0316835260019485019487945060209093019201612e04565b906040519182815491828252602082019060005260206000209260005b818110612e6d575050612dc492500383612cbc565b84546001600160a01b0316835260019485019487945060209093019201612e58565b6001600160401b0381116114c85760051b60200190565b91908201809211610d5a57565b81810292918115918404141715610d5a57565b8115612ed0570490565b634e487b7160e01b600052601260045260246000fd5b60405190612ef382612ca1565b60006020838281520152565b80518210156115605760209160051b010190565b60015481101561156057600160005260206000200190600090565b80548210156115605760005260206000200190600090565b80546001600160a01b0360039390931b83811b199091169290931690921b179055565b60015490600160401b8210156114c857612300826001612dc494016001556001612f2e565b80549190600160401b8310156114c85782612300916001612dc495018155612f2e565b60ff1660ff8114610d5a5760010190565b60ff60019116019060ff8211610d5a57565b15612fdb57565b60405162461bcd60e51b815260206004820152601660248201527510dd5c9c995b98de481b9bdd081cdd5c1c1bdc9d195960521b6044820152606490fd5b91606093918352602083015260408201520190565b8115612ed0570690565b6001600160a01b039091168152602081019190915260400190565b6001600160a01b031680156130a15760008051602061346083398151915280546001600160a01b0319811683179091556001600160a01b03166000805160206134a0833981519152600080a3565b631e4fbdf760e01b600052600060045260246000fd5b6040516350d25bcd60e01b8152906001600160a01b0316602082600481845afa918215610cd757600092613189575b5060206004916040519283809263313ce56760e01b82525afa908115610cd757600091613145575b5060ff1690670de0b6b3a764000090818102918183041490151715610d5a57604d8211610d5a5761314291600a0a90612ec6565b90565b6020813d602011613181575b8161315e60209383612cbc565b8101031261317d57519060ff8216820361317a575060ff61310e565b80fd5b5080fd5b3d9150613151565b90916020823d6020116131b6575b816131a460209383612cbc565b8101031261317a5750519060206130e6565b3d9150613197565b600080516020613460833981519152546001600160a01b031633036131df57565b63118cdaa760e01b6000523360045260246000fd5b6001600160a01b03918216815291166020820152604081019190915260600190565b60ff6000805160206134e08339815191525460401c161561323357565b631afcd79f60e31b60005260046000fd5b600091906001600160a01b031661325757565b60019150565b6001600160a01b0391821681529181166020830152909116604082015260600190565b60009291808211918215613297575b505061325757565b149050388061328f565b6002820180546001600160a01b0319166001600160a01b03928316908117909155915460408051938452911660208301527fec49a3c8c4ae06c18160fe86119c381c9d213ac3e052ff35b594da8687b193c791a1565b600e81015480156133b2576001546000198101908111610d5a5761331a90612f13565b905460001983019260039290921b1c6001600160a01b0316908211610d5a5761230061334592612f13565b600154801561339c577f644b85583ba83e73113ffc0c122b165819ca11db493cd4cc38f5ba29138ffa1b91602091600019016133856123d5826001612f2e565b600155546040516001600160a01b039091168152a1565b634e487b7160e01b600052603160045260246000fd5b60405162461bcd60e51b815260206004820152601a602482015279155cd95c881a5cc81b9bdd081a5b881c985b991bdb481b1a5cdd60321b6044820152606490fd5b9060009161325757565b90613424575080511561341357805190602001fd5b63d6bda27560e01b60005260046000fd5b81511580613456575b613435575090565b639996b31560e01b60009081526001600160a01b0391909116600452602490fd5b50803b1561342d56fe9016d09d72d40fdae2fd8ceac6b6234c7706214fd39c1cd1e609a0528c199300360894a13ba1a3210667c828492db98dca3e2076cc3735a920a3ca505d382bbc8be0079c531659141344cd1fd0a4f28419497f9722a3daafe3b4186f6b6457e0b37800f632235e56e1626c9e9df3de1e167e9298f0d25f59fd74ec65e3111652f0c57e16840df040f15088dc2f81fe391c3923bec73e23a9662efc9c229c6a00a164736f6c634300081a000a",
  "linkReferences": {},
  "deployedLinkReferences": {}
}