{
  "_format": "hh-sol-artifact-1",
  "contractName": "RegistrationUpgradeable",
  "sourceName": "contracts/RegistrationUpgradeable.sol",
  "abi": [
    {
      "inputs": [
        {
          "internalType": "address",
          "name": "target",
          "type": "address"
        }
      ],
      "name": "AddressEmptyCode",
      "type": "error"
    },
    {
      "inputs": [
        {
          "internalType": "address",
          "name": "implementation",
          "type": "address"
        }
      ],
      "name": "ERC1967InvalidImplementation",
      "type": "error"
    },
    {
      "inputs": [],
      "name": "ERC1967NonPayable",
      "type": "error"
    },
    {
      "inputs": [],
      "name": "FailedCall",
      "type": "error"
    },
    {
      "inputs": [],
      "name": "InvalidInitialization",
      "type": "error"
    },
    {
      "inputs": [],
      "name": "NotInitializing",
      "type": "error"
    },
    {
      "inputs": [
        {
          "internalType": "address",
          "name": "owner",
          "type": "address"
        }
      ],
      "name": "OwnableInvalidOwner",
      "type": "error"
    },
    {
      "inputs": [
        {
          "internalType": "address",
          "name": "account",
          "type": "address"
        }
      ],
      "name": "OwnableUnauthorizedAccount",
      "type": "error"
    },
    {
      "inputs": [],
      "name": "UUPSUnauthorizedCallContext",
      "type": "error"
    },
    {
      "inputs": [
        {
          "internalType": "bytes32",
          "name": "slot",
          "type": "bytes32"
        }
      ],
      "name": "UUPSUnsupportedProxiableUUID",
      "type": "error"
    },
    {
      "anonymous": false,
      "inputs": [
        {
          "indexed": false,
          "internalType": "address",
          "name": "user",
          "type": "address"
        }
      ],
      "name": "AddedToRandomList",
      "type": "event"
    },
    {
      "anonymous": false,
      "inputs": [
        {
          "indexed": false,
          "internalType": "address",
          "name": "defaultReferrer",
          "type": "address"
        }
      ],
      "name": "DefaultReferrerUpdated",
      "type": "event"
    },
    {
      "anonymous": false,
      "inputs": [
        {
          "indexed": false,
          "internalType": "uint64",
          "name": "version",
          "type": "uint64"
        }
      ],
      "name": "Initialized",
      "type": "event"
    },
    {
      "anonymous": false,
      "inputs": [
        {
          "indexed": true,
          "internalType": "address",
          "name": "previousOwner",
          "type": "address"
        },
        {
          "indexed": true,
          "internalType": "address",
          "name": "newOwner",
          "type": "address"
        }
      ],
      "name": "OwnershipTransferred",
      "type": "event"
    },
    {
      "anonymous": false,
      "inputs": [
        {
          "indexed": false,
          "internalType": "address",
          "name": "by",
          "type": "address"
        },
        {
          "indexed": false,
          "internalType": "address",
          "name": "to",
          "type": "address"
        },
        {
          "indexed": false,
          "internalType": "address",
          "name": "user",
          "type": "address"
        }
      ],
      "name": "ParentAdded",
      "type": "event"
    },
    {
      "anonymous": false,
      "inputs": [
        {
          "indexed": false,
          "internalType": "address",
          "name": "to",
          "type": "address"
        },
        {
          "indexed": false,
          "internalType": "address",
          "name": "user",
          "type": "address"
        },
        {
          "indexed": false,
          "internalType": "uint256",
          "name": "valueInWei",
          "type": "uint256"
        },
        {
          "indexed": false,
          "internalType": "uint32",
          "name": "level",
          "type": "uint32"
        }
      ],
      "name": "ReferralRewardsPaid",
      "type": "event"
    },
    {
      "anonymous": false,
      "inputs": [
        {
          "indexed": false,
          "internalType": "address",
          "name": "by",
          "type": "address"
        },
        {
          "indexed": false,
          "internalType": "address",
          "name": "user",
          "type": "address"
        }
      ],
      "name": "ReferrerAdded",
      "type": "event"
    },
    {
      "anonymous": false,
      "inputs": [
        {
          "indexed": false,
          "internalType": "string",
          "name": "reason",
          "type": "string"
        }
      ],
      "name": "ReferrerNoAdded",
      "type": "event"
    },
    {
      "anonymous": false,
      "inputs": [
        {
          "indexed": false,
          "internalType": "address",
          "name": "by",
          "type": "address"
        },
        {
          "indexed": false,
          "internalType": "address",
          "name": "to",
          "type": "address"
        },
        {
          "indexed": false,
          "internalType": "address",
          "name": "user",
          "type": "address"
        },
        {
          "indexed": false,
          "internalType": "uint256",
          "name": "valueInWei",
          "type": "uint256"
        }
      ],
      "name": "Registration",
      "type": "event"
    },
    {
      "anonymous": false,
      "inputs": [
        {
          "indexed": false,
          "internalType": "address",
          "name": "by",
          "type": "address"
        },
        {
          "indexed": false,
          "internalType": "address",
          "name": "to",
          "type": "address"
        },
        {
          "indexed": false,
          "internalType": "address",
          "name": "user",
          "type": "address"
        }
      ],
      "name": "RegistrationAssigned",
      "type": "event"
    },
    {
      "anonymous": false,
      "inputs": [
        {
          "indexed": false,
          "internalType": "address",
          "name": "user",
          "type": "address"
        }
      ],
      "name": "RemovedFromRandomList",
      "type": "event"
    },
    {
      "anonymous": false,
      "inputs": [
        {
          "indexed": false,
          "internalType": "address",
          "name": "to",
          "type": "address"
        },
        {
          "indexed": false,
          "internalType": "address",
          "name": "user",
          "type": "address"
        },
        {
          "indexed": false,
          "internalType": "uint32",
          "name": "level",
          "type": "uint32"
        }
      ],
      "name": "TeamAddressAdded",
      "type": "event"
    },
    {
      "anonymous": false,
      "inputs": [
        {
          "indexed": false,
          "internalType": "address",
          "name": "to",
          "type": "address"
        },
        {
          "indexed": false,
          "internalType": "uint256",
          "name": "valueInWei",
          "type": "uint256"
        }
      ],
      "name": "TeamWalletRewardPaid",
      "type": "event"
    },
    {
      "anonymous": false,
      "inputs": [
        {
          "indexed": false,
          "internalType": "string",
          "name": "reason",
          "type": "string"
        }
      ],
      "name": "UpgradeRewardNotPaid",
      "type": "event"
    },
    {
      "anonymous": false,
      "inputs": [
        {
          "indexed": false,
          "internalType": "address",
          "name": "to",
          "type": "address"
        },
        {
          "indexed": false,
          "internalType": "address",
          "name": "by",
          "type": "address"
        },
        {
          "indexed": false,
          "internalType": "uint256",
          "name": "valueInWei",
          "type": "uint256"
        }
      ],
      "name": "UpgradeRewardPaid",
      "type": "event"
    },
    {
      "anonymous": false,
      "inputs": [
        {
          "indexed": true,
          "internalType": "address",
          "name": "implementation",
          "type": "address"
        }
      ],
      "name": "Upgraded",
      "type": "event"
    },
    {
      "anonymous": false,
      "inputs": [
        {
          "indexed": false,
          "internalType": "string",
          "name": "reason",
          "type": "string"
        }
      ],
      "name": "WeeklyRewardNotPaid",
      "type": "event"
    },
    {
      "anonymous": false,
      "inputs": [
        {
          "indexed": false,
          "internalType": "address",
          "name": "to",
          "type": "address"
        },
        {
          "indexed": false,
          "internalType": "uint256",
          "name": "valueInWei",
          "type": "uint256"
        }
      ],
      "name": "WeeklyRewardPaid",
      "type": "event"
    },
    {
      "inputs": [],
      "name": "UPGRADE_INTERFACE_VERSION",
      "outputs": [
        {
          "internalType": "string",
          "name": "",
          "type": "string"
        }
      ],
      "stateMutability": "view",
      "type": "function"
    },
    {
      "inputs": [
        {
          "internalType": "address",
          "name": "_chainLinkOracleAddress",
          "type": "address"
        }
      ],
      "name": "checkIfChainLinkOracleAddressSupporeted",
      "outputs": [
        {
          "internalType": "bool",
          "name": "",
          "type": "bool"
        }
      ],
      "stateMutability": "view",
      "type": "function"
    },
    {
      "inputs": [
        {
          "internalType": "address",
          "name": "_chainLinkOracleAddress",
          "type": "address"
        }
      ],
      "name": "distributeWeeklyReward",
      "outputs": [],
      "stateMutability": "nonpayable",
      "type": "function"
    },
    {
      "inputs": [],
      "name": "getAllUsers",
      "outputs": [
        {
          "internalType": "address[]",
          "name": "",
          "type": "address[]"
        }
      ],
      "stateMutability": "view",
      "type": "function"
    },
    {
      "inputs": [],
      "name": "getContractDefaults",
      "outputs": [
        {
          "internalType": "address",
          "name": "teamWallet",
          "type": "address"
        },
        {
          "internalType": "uint256",
          "name": "teamWalletRate",
          "type": "uint256"
        },
        {
          "internalType": "address",
          "name": "liquidityWallet",
          "type": "address"
        },
        {
          "internalType": "uint256",
          "name": "liquidityCreationrate",
          "type": "uint256"
        },
        {
          "internalType": "address",
          "name": "defaultReferrer",
          "type": "address"
        },
        {
          "internalType": "uint256",
          "name": "registrationValueInUSD",
          "type": "uint256"
        }
      ],
      "stateMutability": "view",
      "type": "function"
    },
    {
      "inputs": [
        {
          "internalType": "address",
          "name": "_chainLinkOracleAddress",
          "type": "address"
        }
      ],
      "name": "getNativePriceInUSD",
      "outputs": [
        {
          "internalType": "uint256",
          "name": "",
          "type": "uint256"
        }
      ],
      "stateMutability": "view",
      "type": "function"
    },
    {
      "inputs": [],
      "name": "getRandomUserList",
      "outputs": [
        {
          "internalType": "address[]",
          "name": "",
          "type": "address[]"
        }
      ],
      "stateMutability": "view",
      "type": "function"
    },
    {
      "inputs": [],
      "name": "getRegistrationsStats",
      "outputs": [
        {
          "internalType": "uint32",
          "name": "totalUser",
          "type": "uint32"
        },
        {
          "internalType": "uint256",
          "name": "totalRegistrationValueInUSD",
          "type": "uint256"
        },
        {
          "internalType": "uint256",
          "name": "totalReferralPaidInUSD",
          "type": "uint256"
        },
        {
          "internalType": "uint256",
          "name": "totalWeeklyRewardsPaidInUSD",
          "type": "uint256"
        }
      ],
      "stateMutability": "view",
      "type": "function"
    },
    {
      "inputs": [],
      "name": "getSupportedChainLinkOracleAddress",
      "outputs": [
        {
          "internalType": "address[]",
          "name": "",
          "type": "address[]"
        }
      ],
      "stateMutability": "view",
      "type": "function"
    },
    {
      "inputs": [],
      "name": "getUpgradePlans",
      "outputs": [
        {
          "components": [
            {
              "internalType": "uint8",
              "name": "id",
              "type": "uint8"
            },
            {
              "internalType": "uint256",
              "name": "valueToUpgradeInUSD",
              "type": "uint256"
            }
          ],
          "internalType": "struct UpgradeStruct[]",
          "name": "upgradePlans",
          "type": "tuple[]"
        },
        {
          "internalType": "uint8",
          "name": "upgradePlansCount",
          "type": "uint8"
        }
      ],
      "stateMutability": "view",
      "type": "function"
    },
    {
      "inputs": [
        {
          "internalType": "uint8",
          "name": "_id",
          "type": "uint8"
        }
      ],
      "name": "getUpgradePlansById",
      "outputs": [
        {
          "components": [
            {
              "internalType": "uint8",
              "name": "id",
              "type": "uint8"
            },
            {
              "internalType": "uint256",
              "name": "valueToUpgradeInUSD",
              "type": "uint256"
            }
          ],
          "internalType": "struct UpgradeStruct",
          "name": "",
          "type": "tuple"
        }
      ],
      "stateMutability": "view",
      "type": "function"
    },
    {
      "inputs": [
        {
          "internalType": "address",
          "name": "_userAddress",
          "type": "address"
        }
      ],
      "name": "getUserAccount",
      "outputs": [
        {
          "components": [
            {
              "internalType": "address",
              "name": "self",
              "type": "address"
            },
            {
              "internalType": "address",
              "name": "parent",
              "type": "address"
            },
            {
              "internalType": "address",
              "name": "referrer",
              "type": "address"
            },
            {
              "internalType": "address[]",
              "name": "referee",
              "type": "address[]"
            },
            {
              "components": [
                {
                  "internalType": "address",
                  "name": "referee",
                  "type": "address"
                },
                {
                  "internalType": "address",
                  "name": "assignedTo",
                  "type": "address"
                }
              ],
              "internalType": "struct RefereeStruct[]",
              "name": "refereeAssigned",
              "type": "tuple[]"
            },
            {
              "components": [
                {
                  "internalType": "address",
                  "name": "teamMember",
                  "type": "address"
                },
                {
                  "internalType": "uint8",
                  "name": "level",
                  "type": "uint8"
                }
              ],
              "internalType": "struct TeamStruct[]",
              "name": "team",
              "type": "tuple[]"
            },
            {
              "internalType": "uint256",
              "name": "selfBusinessInUSD",
              "type": "uint256"
            },
            {
              "internalType": "uint256",
              "name": "upgradedValueInUSD",
              "type": "uint256"
            },
            {
              "internalType": "uint8",
              "name": "upgradeId",
              "type": "uint8"
            },
            {
              "internalType": "uint256",
              "name": "directBusinessInUSD",
              "type": "uint256"
            },
            {
              "internalType": "uint256",
              "name": "teamBusinessInUSD",
              "type": "uint256"
            },
            {
              "internalType": "uint256",
              "name": "referralRewardsInUSD",
              "type": "uint256"
            },
            {
              "internalType": "uint256",
              "name": "weeklyRewardsInUSD",
              "type": "uint256"
            },
            {
              "internalType": "uint256",
              "name": "upgradeRewardsInUSD",
              "type": "uint256"
            },
            {
              "internalType": "uint256",
              "name": "userRandomIndex",
              "type": "uint256"
            },
            {
              "internalType": "uint256",
              "name": "timestampJoined",
              "type": "uint256"
            }
          ],
          "internalType": "struct AccountStruct",
          "name": "",
          "type": "tuple"
        }
      ],
      "stateMutability": "view",
      "type": "function"
    },
    {
      "inputs": [
        {
          "internalType": "address",
          "name": "_userAddress",
          "type": "address"
        }
      ],
      "name": "getUserBusiness",
      "outputs": [
        {
          "internalType": "uint256",
          "name": "selfBusinessInUSD",
          "type": "uint256"
        },
        {
          "internalType": "uint256",
          "name": "directBusinessInUSD",
          "type": "uint256"
        },
        {
          "internalType": "uint256",
          "name": "teamBusinessInUSD",
          "type": "uint256"
        },
        {
          "internalType": "uint256",
          "name": "totalBusinessInUSD",
          "type": "uint256"
        }
      ],
      "stateMutability": "view",
      "type": "function"
    },
    {
      "inputs": [
        {
          "internalType": "address",
          "name": "_userAddress",
          "type": "address"
        }
      ],
      "name": "getUserCurrentUpgradeLevel",
      "outputs": [
        {
          "internalType": "uint8",
          "name": "level",
          "type": "uint8"
        },
        {
          "internalType": "uint256",
          "name": "totalUpgradeValueInUSD",
          "type": "uint256"
        }
      ],
      "stateMutability": "view",
      "type": "function"
    },
    {
      "inputs": [
        {
          "internalType": "address",
          "name": "_userAddress",
          "type": "address"
        }
      ],
      "name": "getUserRewards",
      "outputs": [
        {
          "internalType": "uint256",
          "name": "referralRewardInUSD",
          "type": "uint256"
        },
        {
          "internalType": "uint256",
          "name": "weeklyRewardInUSD",
          "type": "uint256"
        },
        {
          "internalType": "uint256",
          "name": "upgradeRewardsInUSD",
          "type": "uint256"
        },
        {
          "internalType": "uint256",
          "name": "totalRewards",
          "type": "uint256"
        }
      ],
      "stateMutability": "view",
      "type": "function"
    },
    {
      "inputs": [
        {
          "internalType": "address",
          "name": "_userAddress",
          "type": "address"
        }
      ],
      "name": "getUserTeam",
      "outputs": [
        {
          "internalType": "address",
          "name": "referrer",
          "type": "address"
        },
        {
          "internalType": "address[]",
          "name": "referees",
          "type": "address[]"
        },
        {
          "internalType": "uint256",
          "name": "refereeCount",
          "type": "uint256"
        },
        {
          "components": [
            {
              "internalType": "address",
              "name": "referee",
              "type": "address"
            },
            {
              "internalType": "address",
              "name": "assignedTo",
              "type": "address"
            }
          ],
          "internalType": "struct RefereeStruct[]",
          "name": "refereeAssigned",
          "type": "tuple[]"
        },
        {
          "internalType": "uint256",
          "name": "refereeAssignedCount",
          "type": "uint256"
        },
        {
          "components": [
            {
              "internalType": "address",
              "name": "teamMember",
              "type": "address"
            },
            {
              "internalType": "uint8",
              "name": "level",
              "type": "uint8"
            }
          ],
          "internalType": "struct TeamStruct[]",
          "name": "team",
          "type": "tuple[]"
        },
        {
          "internalType": "uint256",
          "name": "teamCount",
          "type": "uint256"
        }
      ],
      "stateMutability": "view",
      "type": "function"
    },
    {
      "inputs": [],
      "name": "getWeeklyRewardToBeDistributed",
      "outputs": [
        {
          "internalType": "uint256",
          "name": "_rewardValue",
          "type": "uint256"
        },
        {
          "internalType": "uint256",
          "name": "_remianingTime",
          "type": "uint256"
        },
        {
          "internalType": "uint256",
          "name": "_endTime",
          "type": "uint256"
        }
      ],
      "stateMutability": "view",
      "type": "function"
    },
    {
      "inputs": [],
      "name": "initialize",
      "outputs": [],
      "stateMutability": "nonpayable",
      "type": "function"
    },
    {
      "inputs": [
        {
          "internalType": "address",
          "name": "_chainLinkOracleAddress",
          "type": "address"
        }
      ],
      "name": "needNativeToRegister",
      "outputs": [
        {
          "internalType": "uint256",
          "name": "",
          "type": "uint256"
        }
      ],
      "stateMutability": "view",
      "type": "function"
    },
    {
      "inputs": [],
      "name": "owner",
      "outputs": [
        {
          "internalType": "address",
          "name": "",
          "type": "address"
        }
      ],
      "stateMutability": "view",
      "type": "function"
    },
    {
      "inputs": [],
      "name": "proxiableUUID",
      "outputs": [
        {
          "internalType": "bytes32",
          "name": "",
          "type": "bytes32"
        }
      ],
      "stateMutability": "view",
      "type": "function"
    },
    {
      "inputs": [
        {
          "internalType": "address",
          "name": "userAddress_",
          "type": "address"
        },
        {
          "internalType": "address",
          "name": "_referrer",
          "type": "address"
        },
        {
          "internalType": "address",
          "name": "_chainLinkOracleAddress",
          "type": "address"
        }
      ],
      "name": "registrationAnyNative",
      "outputs": [],
      "stateMutability": "payable",
      "type": "function"
    },
    {
      "inputs": [
        {
          "internalType": "address",
          "name": "_referrer",
          "type": "address"
        },
        {
          "internalType": "address",
          "name": "_chainLinkOracleAddress",
          "type": "address"
        }
      ],
      "name": "registrationNative",
      "outputs": [],
      "stateMutability": "payable",
      "type": "function"
    },
    {
      "inputs": [],
      "name": "renounceOwnership",
      "outputs": [],
      "stateMutability": "nonpayable",
      "type": "function"
    },
    {
      "inputs": [
        {
          "internalType": "address",
          "name": "_chainLinkOracleAddress",
          "type": "address"
        },
        {
          "internalType": "bool",
          "name": "_status",
          "type": "bool"
        }
      ],
      "name": "setChainLinkOracleAddress",
      "outputs": [],
      "stateMutability": "nonpayable",
      "type": "function"
    },
    {
      "inputs": [
        {
          "internalType": "address",
          "name": "defaultReferrer_",
          "type": "address"
        }
      ],
      "name": "setDefaultReferrer",
      "outputs": [],
      "stateMutability": "nonpayable",
      "type": "function"
    },
    {
      "inputs": [
        {
          "internalType": "address",
          "name": "newOwner",
          "type": "address"
        }
      ],
      "name": "transferOwnership",
      "outputs": [],
      "stateMutability": "nonpayable",
      "type": "function"
    },
    {
      "inputs": [
        {
          "internalType": "uint256[]",
          "name": "_valueToUpgradeInDecimals",
          "type": "uint256[]"
        }
      ],
      "name": "updateUpgradePlans",
      "outputs": [],
      "stateMutability": "nonpayable",
      "type": "function"
    },
    {
      "inputs": [
        {
          "internalType": "address",
          "name": "_chainLinkOracleAddress",
          "type": "address"
        }
      ],
      "name": "upgradeAccountNative",
      "outputs": [],
      "stateMutability": "payable",
      "type": "function"
    },
    {
      "inputs": [
        {
          "internalType": "address",
          "name": "newImplementation",
          "type": "address"
        },
        {
          "internalType": "bytes",
          "name": "data",
          "type": "bytes"
        }
      ],
      "name": "upgradeToAndCall",
      "outputs": [],
      "stateMutability": "payable",
      "type": "function"
    },
    {
      "stateMutability": "payable",
      "type": "receive"
    }
  ],
  "bytecode": "0x60a08060405234602957306080526138b9908161002f8239608051818181611f250152611ff80152f35b600080fdfe608080604052600436101561001d575b50361561001b57600080fd5b005b60003560e01c9081630690c6a81461254657508063078b0fb71461235657806307c560d11461227a57806308e922ba1461225e57806311f4d5761461221f5780631a746344146121bc5780634f1ef28614611f7c57806352d1902d14611f1257806359a0454414611da55780635eda81ce14611b905780636a74631114611b6a578063715018a614611b125780637ec37e0314611aaf5780638129fc1c146115b3578063846688f7146115525780638da5cb5b1461151c578063a0db38e5146111aa578063a4fb1b3414611128578063a9df9fae146110bb578063ad3cb1cc1461103f578063c53b219e14610fbe578063d277b8a914610d91578063dcf6e81914610ca8578063e2842d7914610c78578063e35422e714610b74578063f2fde38b14610b4b578063f87127b41461093c578063f92501711461073e578063faeda7e5146104f25763fb47e01614610174573861000f565b346104ed5760203660031901126104ed5761018d612581565b60006101e060405161019e816125ea565b82815282602082015282604082015260608082015260606080820152606060a08201528260c08201528260e08201528261010082015282610120820152826101408201528261016082015282610180820152826101a0820152826101c0820152015260018060a01b031660005260126020526040600020604051610221816125ea565b81546001600160a01b03908116825260018301548116602083019081526002840154909116604083019081529092909161025d600383016127a0565b60608201908152600483018054610273816127f4565b916102816040519384612621565b818352602083019060005260206000206000915b8383106104b2575050505060808301908152600584019182546102b7816127f4565b936102c56040519586612621565b818552602085019060005260206000206000915b83831061047c575050505060a08401928352600685015460c0850152600785015460e08501908152600886015460ff166101008601526009860154610120860152600a860154610140860152600b860154610160860152600c860154610180860152600d8601546101a0860152600e8601546101c0860152600f909501546101e085015260408051602080825286516001600160a01b039081168284015299518a16928201929092529651909716606087015251610200608087015280516102208701819052610240870197919091019060005b81811061045d575050506101e092916103d786976103ea9351601f198983030160a08a015261265f565b9051868203601f190160c08801526126ab565b9260c082015160e08601525161010085015260ff610100820151166101208501526101208101516101408501526101408101516101608501526101608101516101808501526101808101516101a08501526101a08101516101c08501526101c08101518285015201516102008301520390f35b82516001600160a01b03168952602098890198909201916001016103ad565b60016020819260405161048e81612606565b60ff8654858060a01b038116835260a01c16838201528152019201920191906102d9565b600260206001926040516104c581612606565b848060a01b038654168152848060a01b03858701541683820152815201920192019190610295565b600080fd5b346104ed5760203660031901126104ed576001600160a01b03610513612581565b16600052601260205260406000206040519061052e826125ea565b80546001600160a01b0390811683526001820154811660208401526002820154166040830190815290610563600382016127a0565b91606084019283526004820193845461057b816127f4565b956105896040519788612621565b818752602087019060005260206000206000915b838310610703575050505060808101948552600583019283546105bf816127f4565b946105cd6040519687612621565b818652602086019060005260206000206000915b8383106106cd5750505050906101e0600f6106c394938660a0850152600681015460c0850152600781015460e085015260ff6008820154166101008501526009810154610120850152600a810154610140850152600b810154610160850152600c810154610180850152600d8101546101a0850152600e8101546101c0850152015491015260018060a01b0390511692519384519051926106b084519282519561069d604051998a998a5260e060208b015260e08a01906125ad565b916040890152878203606089015261265f565b91608086015284820360a08601526126ab565b9060c08301520390f35b6001602081926040516106df81612606565b60ff8654858060a01b038116835260a01c16838201528152019201920191906105e1565b6002602060019260405161071681612606565b848060a01b038654168152848060a01b0385870154168382015281520192019201919061059d565b346104ed5760203660031901126104ed57610757612581565b6001600160a01b0316600090815260126020526040808220905190919061077d816125ea565b82546001600160a01b03908116825260018401548116602083015260028401541660408201526107af600384016127a0565b60608201526004830180546107c3816127f4565b916107d16040519384612621565b818352602083019060005260206000206000915b8383106109015750505050608082015260058301928354610805816127f4565b906108136040519283612621565b80825260208201956000526020600020956000905b8282106108cb575050506040945060a0830152600681015460c08301526007810154918260e08201526101e0600f60ff60088501541693846101008501526009810154610120850152600a810154610140850152600b810154610160850152600c810154610180850152600d8101546101a0850152600e8101546101c08501520154910152806108c3575b5060ff8351921682526020820152f35b9150836108b3565b6001602081926040516108dd81612606565b60ff8c54858060a01b038116835260a01c1683820152815201980191019096610828565b6002602060019260405161091481612606565b848060a01b038654168152848060a01b038587015416838201528152019201920191906107e5565b346104ed5760203660031901126104ed576001600160a01b0361095d612581565b166000526012602052604060002060405190610978826125ea565b80546001600160a01b03908116835260018201548116602084015260028201541660408301526109aa600382016127a0565b60608301526004810180546109be816127f4565b916109cc6040519384612621565b818352602083019060005260206000206000915b838310610b10575050505060808301526005810180546109ff816127f4565b91610a0d6040519384612621565b818352602083019060005260206000206000915b838310610ada575050505060a0830152610ad66006820154918260c0850152600781015460e085015260ff600882015416610100850152600981015493846101208201526101e0600f600a8401549384610140850152600b810154610160850152600c810154610180850152600d8101546101a0850152600e8101546101c08501520154910152610ab2838261280b565b90604051948594859094939260609260808301968352602083015260408201520152565b0390f35b600160208192604051610aec81612606565b60ff8654858060a01b038116835260a01c1683820152815201920192019190610a21565b60026020600192604051610b2381612606565b848060a01b038654168152848060a01b038587015416838201528152019201920191906109e0565b346104ed5760203660031901126104ed5761001b610b67612581565b610b6f612beb565b612a80565b346104ed5760203660031901126104ed576004356001600160401b0381116104ed57366023820112156104ed5760048101356001600160401b0381116104ed573660248260051b840101116104ed5790610bcc612beb565b6000915b60ff8316928184101561001b57610be68161293f565b6000946024611fe08460051b168601013590670de0b6b3a7640000820291808304670de0b6b3a76400001490151715610c64579060ff806040610c5d97989960019583835198610c358a612606565b1688526020880195865281526013602052209451161660ff198454161783555191015561292e565b9190610bd0565b634e487b7160e01b87526011600452602487fd5b346104ed5760003660031901126104ed57610ad6610c9461274d565b6040519182916020835260208301906125ad565b346104ed5760203660031901126104ed5760008051602061382d8339815191526020610cd2612581565b610cda612beb565b6001600160a01b03818116600081815260128552604090208054919392600e921615610d73575b60068101805415610d60575b50600f8101805415610d57575b500190815415610d42575b5050600e80546001600160a01b03191682179055604051908152a1005b610d4b906128e6565b60015490558380610d25565b42905586610d1a565b69152d02c7e14af6800000905586610d0d565b80546001600160a01b03191684178155610d8c836128c1565b610d01565b346104ed5760203660031901126104ed57610daa612581565b6001600160a01b038116600090815260146020526040902054610dd49060ff161515600114612951565b670de0b6b3a7640000610df2610dec60095493612ae4565b83612818565b04600b5462093a80810110610f68578115610f7e57610e0f61274d565b6000194301438111610f6857610e6490604051610e4581610e37602082019440444287612a46565b03601f198101835282612621565b51902082516001600160a01b039391610e5e9190612a5b565b90612864565b5116918215610ef1576000808080938682526012602052600c6040832001610e8d87825461280b565b90558682f115610ee5577f6dbdd944bdf6514aca26947d204530e2ecbea365677ef05fee7a56d54a14569791600060095542600b55610ece8260055461280b565b600555610ee060405192839283612a65565b0390a1005b6040513d6000823e3d90fd5b5050507f974c744afa915921dddb0f53fdbfdd97fef12a94db2457dcf878aa94ad687274608060405160208152603160208201527f52616e646f6d206164647265737320776173207a65726f20616464726573732e60408201527010283632b0b9b2903a393c9030b3b0b4b760791b6060820152a1005b634e487b7160e01b600052601160045260246000fd5b60405162461bcd60e51b81526020600482015260186024820152774e6f207265776172647320746f206469737472696275746560401b6044820152606490fd5b60403660031901126104ed5761001b610fd5612581565b670de0b6b3a764000061103561102f610fec612597565b6110006001600160a01b0386161515612996565b6001600160a01b03811660009081526014602052604090205461102a9060ff1615156001146129ee565b612ae4565b34612818565b0434913390612c43565b346104ed5760003660031901126104ed57604080519061105f8183612621565b60058252640352e302e360dc1b6020830152805180926020825280519081602084015260005b8281106110a45750506000828201840152601f01601f19168101030190f35b602082820181015187830187015286945001611085565b346104ed5760203660031901126104ed5760043560ff81168091036104ed576110e261284b565b50600052601360205260408060002060018251916110ff83612606565b60ff815416835201546020820152611126825180926020809160ff81511684520151910152565bf35b60603660031901126104ed5761113c612581565b611144612597565b604435916001600160a01b0383168084036104ed5761001b93670de0b6b3a7640000916111a19161102f916111836001600160a01b0388161515612996565b600052601460205261102a600160ff604060002054161515146129ee565b04903492612c43565b60203660031901126104ed57670de0b6b3a76400006111f761102f6111cd612581565b6001600160a01b03811660009081526014602052604090205461102a9060ff161515600114612951565b0433600052601260205260406000206008810160ff815416600052601360205260406000209060016040519261122c84612606565b60ff815416845201546020830190808252156114d7578051605f810290808204605f1490151715610f68576064900485119081156114b7575b50156114635760ff8080936007860161127f88825461280b565b9055511616821982541617815554169160009260001981019260ff8085119416905b828611156112ab57005b600201546001600160a01b0316600090815260126020526040902084610f68578186146112e557946000198114610f6857600101946112a1565b80955060ff929394506008915001541690808211918215611459575b505080611446575b156113765761131d600d830191825461280b565b9055600080808060018060a01b038554168190341561136c575b3491f115610ee5575460405160008051602061386d833981519152918190610ee090349033906001600160a01b031684612c21565b6108fc9150611337565b50507f6696b78fc1713892e6e2bb3df5cdc986ab67a0c675898c7ef535bd2201ca9451608060405160208152603f60208201527f55706c696e6520686173206e6f742075706772616465642e20416d6f756e742060408201527f7472616e73666572656420746f206c69717569646974792077616c6c65742e006060820152a16010546001600160a01b03166000341561143d575b600080808093853491f115610ee557610ee060008051602061386d833981519152916040519182913490339084612c21565b506108fc61140b565b5081546001600160a01b03161515611309565b1490508380611301565b60405162461bcd60e51b815260206004820152602660248201527f56616c75652073686f756c6420626520657175616c20746f20757067726164656044820152652076616c756560d01b6064820152608490fd5b51606980820292508115918304141715610f685760649004841085611265565b60405162461bcd60e51b815260206004820152601d60248201527f596f75206861766520757067726164656420616c6c206c6576656c732e0000006044820152606490fd5b346104ed5760003660031901126104ed576000805160206137ed833981519152546040516001600160a01b039091168152602090f35b346104ed5760003660031901126104ed576000600954600b549162093a80830192838111610f6857428411611599575b509160609260405192835260208301526040820152f35b62093a8091504290030191808311610f6857916060611582565b346104ed5760003660031901126104ed5760008051602061388d83398151915254604081901c60ff1615906001600160401b03811680159081611aa7575b6001149081611a9d575b159081611a94575b50611a83576001600160401b0319811660011760008051602061388d8339815191525581611a5a575b5073cef5767039fa6a66016b802546f123e0c3ddedc260005260126020527f7b58f54f0bc0fcd57e50c233f450fe384adf8c88021dbbeef24b87de22945c148054600e91906001600160a01b031615611a26575b60068101805415611a13575b50600f8101805415611a0a575b50018054156119e2575b5073cef5767039fa6a66016b802546f123e0c3ddedc260018060a01b0319600e541617600e5560008051602061382d833981519152602060405173cef5767039fa6a66016b802546f123e0c3ddedc28152a1601154600160401b8110156119cc57806001611716920160115560116128a9565b81546001600160a01b0360039290921b91821b1916730567f2323251f0aab15c8dfb1967e4e8a7d42aee90911b179055601154600160401b8110156119cc57806001611767920160115560116128a9565b81546001600160a01b0360039290921b91821b1916739c85f470f9ba23dfc4fe9531933c2ce2c1739c399182901b1790915560146020527f18b399276171edd4288c75706c059c76f8ba27a208f6ab7dc13ddac4a813eb06805460ff1990811660019081179092556000929092527f785e316b530d6f09805cf52ec6944c1fd91d7cf1ffa292231399b4110cc5ca9d80548316909117905568015af1d78b58c40000600f55600c805461ffff191661083c1790556002600d55600680546001600160a81b0319167414554f58fcfcef95f82c8cf6ed9e51e5c79e341481179055601080546001600160a01b031916733d7263afa42c9d47c13cfcdcdc72a131077e56181781556008805483169091179055600a8054909116600417905542600b5560405160e081016001600160401b038111828210176119cc576040526801158e460913d0000081526801a055690d9db8000060208201526802b5e3af16b188000060408201526809c2007651b250000060608201526815af1d78b58c400000608082015268281d901f4fdd10000060a0820152684fb0591b9b3038000060c082015260005b60ff81169060078210156119505761194b91600161192a8361293f565b9160ff8060406000611fe08860051b168a01519483835198610c358a612606565b61190d565b836119596135bc565b6119616135bc565b61196a33612a80565b6119726135bc565b61197857005b60ff60401b1960008051602061388d833981519152541660008051602061388d833981519152557fc7f505b2f371ae2175ee4913f4499e1f2633a7b5936321eed1cdaeb6115181d2602060405160018152a1005b634e487b7160e01b600052604160045260246000fd5b6119ff73cef5767039fa6a66016b802546f123e0c3ddedc26128e6565b6001549055816116a3565b42905583611699565b69152d02c7e14af680000090558361168c565b80546001600160a01b03191673cef5767039fa6a66016b802546f123e0c3ddedc29081178255611a55906128c1565b611680565b6001600160481b0319166001600160401b011760008051602061388d833981519152558161162c565b63f92ee8a960e01b60005260046000fd5b90501583611603565b303b1591506115fb565b8391506115f1565b346104ed5760003660031901126104ed576040516001548082526020820190600160005260206000209060005b818110611af357610ad685610c9481870382612621565b82546001600160a01b0316845260209093019260019283019201611adc565b346104ed5760003660031901126104ed57611b2b612beb565b6000805160206137ed83398151915280546001600160a01b031981169091556000906001600160a01b031660008051602061384d8339815191528280a3005b346104ed5760203660031901126104ed576020611b8861102a612581565b604051908152f35b346104ed5760403660031901126104ed57611ba9612581565b6024358015158091036104ed57611bbe612beb565b6001600160a01b03821660008181526014602052604090205490919060ff1615158114611d6b57600190826000526014602052604060002060ff1981541660ff831617905514600014611c55575060115490600160401b8210156119cc57611c3182600161001b940160115560116128a9565b9080546001600160a01b0360039390931b83811b199091169290931690921b179055565b9050611c5f6126f7565b805160005b818110611c6d57005b836001600160a01b03611c808386612864565b511614611c90575b600101611c64565b6000198201828111610f68576001600160a01b0390611caf9085612864565b51166000601154831015611d57576011908190527f31ecc21a745e3968a04e9570e4425bc18fa8019c68028196b546d1669c200c68830180546001600160a01b0319166001600160a01b03909316929092179091555460008115611d4357506001919060001901611d39611d248260116128a9565b81549060018060a01b039060031b1b19169055565b6011559050611c88565b634e487b7160e01b81526031600452602490fd5b634e487b7160e01b81526032600452602490fd5b60405162461bcd60e51b815260206004820152601260248201527114dd185d1d5cc8185b1c9958591e481cd95d60721b6044820152606490fd5b346104ed5760003660031901126104ed5760ff6000805b8282166032811015611f0a576000526013602052826040600020541615611df2576001611de9849261292e565b92011690611dbc565b90505b16611dff816127f4565b90611e0d6040519283612621565b808252601f19611e1c826127f4565b0160005b818110611ee557505060005b60ff811682811015611e835760ff91611e7b82600193600052601360205260406000208460405191611e5d83612606565b87815416835201546020820152611e748289612864565b5286612864565b500116611e2c565b828460405190604082019260408352815180945260206060840192016000945b808610611eb857505082935060208301520390f35b90926020604082611ed960019488516020809160ff81511684520151910152565b01940195019490611ea3565b602090604051611ef481612606565b6000815260008382015282828701015201611e20565b509050611df5565b346104ed5760003660031901126104ed577f00000000000000000000000000000000000000000000000000000000000000006001600160a01b03163003611f6b57602060405160008051602061380d8339815191528152f35b63703e46dd60e11b60005260046000fd5b60403660031901126104ed57611f90612581565b602435906001600160401b0382116104ed57366023830112156104ed57816004013590611fbc82612644565b91611fca6040519384612621565b808352602083019336602483830101116104ed57816000926024602093018737840101526001600160a01b037f000000000000000000000000000000000000000000000000000000000000000016308114908115612199575b50611f6b57612030612beb565b6040516352d1902d60e01b81526001600160a01b0382169390602081600481885afa60009181612165575b506120755784634c9c8ce360e01b60005260045260246000fd5b8060008051602061380d8339815191528692036121515750823b1561213d5760008051602061380d83398151915280546001600160a01b031916821790557fbc7cd75a20ee27fd9adebab32041f755214dbc6bffa90cc0225b39da2e5c2d3b600080a2825115612122576000809161001b945190845af43d1561211a573d916120fd83612644565b9261210b6040519485612621565b83523d6000602085013e61378b565b60609161378b565b5050503461212c57005b63b398979f60e01b60005260046000fd5b634c9c8ce360e01b60005260045260246000fd5b632a87526960e21b60005260045260246000fd5b9091506020813d602011612191575b8161218160209383612621565b810103126104ed5751908661205b565b3d9150612174565b60008051602061380d833981519152546001600160a01b03161415905084612023565b346104ed5760003660031901126104ed57600654601054600854600e54600f54604080516001600160a01b03808816825260a097881c60ff908116602084015296811692820192909252939094166060840152921660808201529182015260c090f35b346104ed5760203660031901126104ed576001600160a01b03612240612581565b166000526014602052602060ff604060002054166040519015158152f35b346104ed5760003660031901126104ed57610ad6610c946126f7565b346104ed5760203660031901126104ed57612293612581565b60018060a01b0381166000526014602052600160ff604060002054161515036122f057600f5490670de0b6b3a7640000820291808304670de0b6b3a76400001490151715610f68576020916122ea611b8892612ae4565b9061282b565b60405162461bcd60e51b815260206004820152603860248201527f506c6561736520636865636b2074686520636861696e4c696e6b4f7261636c656044820152771059191c995cdcc81bdc881b9bdd081cdd5c1c1bdc9d195960421b6064820152608490fd5b346104ed5760203660031901126104ed576001600160a01b03612377612581565b166000526012602052604060002060405190612392826125ea565b80546001600160a01b03908116835260018201548116602084015260028201541660408301526123c4600382016127a0565b60608301526004810180546123d8816127f4565b916123e66040519384612621565b818352602083019060005260206000206000915b83831061250b57505050506080830152600581018054612419816127f4565b916124276040519384612621565b818352602083019060005260206000206000915b8383106124d5575050505060a0830152600681015460c0830152600781015460e083015260ff6008820154166101008301526009810154610120830152600a810154610140830152610ad6600b8201549182610160850152600c81015493846101808201526101e0600f600d84015493846101a0850152600e8101546101c08501520154910152610ab2816124d0868661280b565b61280b565b6001602081926040516124e781612606565b60ff8654858060a01b038116835260a01c168382015281520192019201919061243b565b6002602060019260405161251e81612606565b848060a01b038654168152848060a01b038587015416838201528152019201920191906123fa565b346104ed5760003660031901126104ed5760809063ffffffff6000541660025460035490600554928452602084015260408301526060820152f35b600435906001600160a01b03821682036104ed57565b602435906001600160a01b03821682036104ed57565b906020808351928381520192019060005b8181106125cb5750505090565b82516001600160a01b03168452602093840193909201916001016125be565b61020081019081106001600160401b038211176119cc57604052565b604081019081106001600160401b038211176119cc57604052565b601f909101601f19168101906001600160401b038211908210176119cc57604052565b6001600160401b0381116119cc57601f01601f191660200190565b906020808351928381520192019060005b81811061267d5750505090565b825180516001600160a01b039081168652602091820151168186015260409094019390920191600101612670565b906020808351928381520192019060005b8181106126c95750505090565b825180516001600160a01b0316855260209081015160ff1681860152604090940193909201916001016126bc565b604051906011548083528260208101601160005260206000209260005b81811061272b57505061272992500383612621565b565b84546001600160a01b0316835260019485019487945060209093019201612714565b6040519060005480835282602081016000805260206000209260005b81811061277e57505061272992500383612621565b84546001600160a01b0316835260019485019487945060209093019201612769565b906040519182815491828252602082019060005260206000209260005b8181106127d257505061272992500383612621565b84546001600160a01b03168352600194850194879450602090930192016127bd565b6001600160401b0381116119cc5760051b60200190565b91908201809211610f6857565b81810292918115918404141715610f6857565b8115612835570490565b634e487b7160e01b600052601260045260246000fd5b6040519061285882612606565b60006020838281520152565b80518210156128785760209160051b010190565b634e487b7160e01b600052603260045260246000fd5b60015481101561287857600160005260206000200190600090565b80548210156128785760005260206000200190600090565b60005490600160401b8210156119cc57611c31826001612729940160005560006128a9565b60015490600160401b8210156119cc57611c31826001612729940160015560016128a9565b80549190600160401b8310156119cc5782611c31916001612729950181556128a9565b60ff1660ff8114610f685760010190565b60ff60019116019060ff8211610f6857565b1561295857565b60405162461bcd60e51b815260206004820152601660248201527510dd5c9c995b98de481b9bdd081cdd5c1c1bdc9d195960521b6044820152606490fd5b1561299d57565b60405162461bcd60e51b815260206004820152602360248201527f5a65726f20416464726573732063616e6e6f74206265207468652072656665726044820152623932b960e91b6064820152608490fd5b156129f557565b60405162461bcd60e51b815260206004820152602360248201527f43757272656e637920596f752073656c6563746564206e6f7420737570706f726044820152621d195960ea1b6064820152608490fd5b91606093918352602083015260408201520190565b8115612835570690565b6001600160a01b039091168152602081019190915260400190565b6001600160a01b03168015612ace576000805160206137ed83398151915280546001600160a01b0319811683179091556001600160a01b031660008051602061384d833981519152600080a3565b631e4fbdf760e01b600052600060045260246000fd5b6040516350d25bcd60e01b8152906001600160a01b0316602082600481845afa918215610ee557600092612bb6575b5060206004916040519283809263313ce56760e01b82525afa908115610ee557600091612b72575b5060ff1690670de0b6b3a764000090818102918183041490151715610f6857604d8211610f6857612b6f91600a0a9061282b565b90565b6020813d602011612bae575b81612b8b60209383612621565b81010312612baa57519060ff82168203612ba7575060ff612b3b565b80fd5b5080fd5b3d9150612b7e565b90916020823d602011612be3575b81612bd160209383612621565b81010312612ba7575051906020612b13565b3d9150612bc4565b6000805160206137ed833981519152546001600160a01b03163303612c0c57565b63118cdaa760e01b6000523360045260246000fd5b6001600160a01b03918216815291166020820152604081019190915260600190565b600f54606181029080820460611490151715610f685760649004831061356857600c5460ff8082169160081c169260018060a01b0381169182600052601260205260406000209460018060a01b038516806000526012602052604060002060068801968754613529576006820154156134ee5788546001600160a01b0316156134d0575b81546001600160a01b0316156134af575b5050600d546002880180549095906001600160a01b031661344e5786600052601260205260406000209287811461340c576000816133fb575050600e546001600160a01b03166000908152601260205260409020915b60038301612d3d82825461360d565b156133c25750600e8301546000906133ba575b6133ac575b6000194301438111610f6857612d8c612d9191604051612d8081610e37602082019440444287612a46565b51902060015490612a5b565b61288e565b90546001600160a01b0360039290921b1c81166000908152601260205260409020805490929116801561336c5785612dc891613634565b835482546040516001600160a01b0391821693927fa1b30426557565c4fa85ce5f9c88513d7d3f49d21eb30569c249b07b037831ef928291612e0f918991889116846135ea565b0390a160405160048601612e2282612606565b8b825260208201938452805493600160401b8510156119cc576001850180835585101561287857600091825260209091209151600194851b90920180546001600160a01b039384166001600160a01b031991821617825591519401805494909216931692909217909155612ea49060038301612e9e858261290b565b5461360d565b61335d575b505b6001830180546001600160a01b0316156132f6575b5050506000905b8260ff8316106131b2575b5050505b600e8501805461316d578554612ef4906001600160a01b03166128e6565b60015490557f0411c58b3c1e8a39d91c901e5c807bff1401650beedc45aba65112756bb929b4608060018060a01b038754167f06baf10092c7ea144c4fb56fb8cf641e1f00e291a535b5d54b547eadb29485a76020604051838152a160018801549454604080516001600160a01b0397881680825297909216602083015281019190915260608101899052a16064612f9881612f90848b612818565b049288612818565b0491600052601260205260406000209160018060a01b03835416806130ce575b505050505060065460008080806064612fd760ff8760a01c168b612818565b048095829082156130c4575b6001600160a01b031690f115610ee5576006546040517f5aa75bdb3269082e844d731608afae2a07cbf194f251e3f857b870af86b754fb9290918291613032916001600160a01b031683612a65565b0390a1606461304660ff6008541686612818565b0460008080808460018060a01b03601054168282156130bb575bf115610ee5576130b6946130ab936064936130806130a29460075461280b565b60075561308e87825461280b565b9055600f4291015560ff600a541690612818565b0460095461280b565b60095560025461280b565b600255565b506108fc613060565b6108fc9150612fe3565b60008080858194828215613164575bf115610ee5577f153f77382d7e07de734977ae352e9b1f5f8ad4b1c0033c883a9a33456a87836f60806009956131499460018060a01b03875416916040519283526020830152604082015260016060820152a1600b830161313f82825461280b565b905560035461280b565b6003550161315884825461280b565b90553880808080612fb8565b506108fc6130dd565b60405162461bcd60e51b815260206004820152601e60248201527f5573657220697320616c726561647920696e2072616e646f6d206c69737400006044820152606490fd5b60028101546001600160a01b03169081156132f057546001600160a01b031681146132eb576000526012602052604060002060058101906131f28361293f565b604051926131ff84612606565b88845260ff60208501921682528054600160401b8110156119cc57613229916001820181556128a9565b9190916132d5579251815493516001600160a81b03199094166001600160a01b03919091161760a09390931b60ff60a01b1692909217909155600a810180546132cf929190613279908c9061280b565b905580547f85db3f10b88ea7fc653f3f818097a3fc3c543196ed60cad2251df922bcc9ad7f906060906001600160a01b031660ff6132b68761293f565b6040519283528b6020840152166040820152a19161292e565b90612ec7565b634e487b7160e01b600052600060045260246000fd5b612ed2565b50612ed2565b915482546001600160a01b0319166001600160a01b0391821690811790935560028401546040517f8efa008f8ae98ae30d3219078a298c85bc25a62f50c57ed9a3ec838b7eed9f479490938493613352939192911690846135ea565b0390a1388080612ec0565b6133669061368a565b38612ea9565b60405162461bcd60e51b8152602060048201526018602482015277139bc81c985b991bdb481c9959995c9c995c88199bdd5b9960421b6044820152606490fd5b6133b58361368a565b612d55565b506001612d50565b83546133e89291906133de9087906001600160a01b0316613634565b612e9e848261290b565b15612eab576133f68261368a565b612eab565b604091815260126020522091612d2e565b60405162461bcd60e51b815260206004820152601a6024820152792cb7ba9031b0b73737ba103932b332b9103cb7bab939b2b6331760311b6044820152606490fd5b505050507f1f4fff38c5e64af9e759d590409f022ea913658008bb1d0cd35e028244f01ecf606060405160208152601f60208201527f5573657220416c72656164792068617665207265666572726572207365742e006040820152a1612ed6565b81546001600160a01b03191683179091556134c9906128c1565b3880612cd8565b88546001600160a01b031916871789556134e9866128c1565b612cc7565b60405162461bcd60e51b81526020600482015260136024820152725265666572726572204e6f742041637469766560681b6044820152606490fd5b60405162461bcd60e51b8152602060048201526017602482015276155cd95c88185b1c9958591e481c9959da5cdd195c9959604a1b6044820152606490fd5b60405162461bcd60e51b815260206004820152602660248201527f56616c7565206973206c657373207468656e20726567697374726174696f6e206044820152653b30b63ab29760d11b6064820152608490fd5b60ff60008051602061388d8339815191525460401c16156135d957565b631afcd79f60e31b60005260046000fd5b6001600160a01b0391821681529181166020830152909116604082015260600190565b6000929180821491821561362a575b505061362457565b60019150565b119050388061361c565b6002820180546001600160a01b0319166001600160a01b03928316908117909155915460408051938452911660208301527fec49a3c8c4ae06c18160fe86119c381c9d213ac3e052ff35b594da8687b193c791a1565b600e810180548015613749576001546000198101908111610f68576136ae9061288e565b905460001983019260039290921b1c6001600160a01b0316908211610f6857611c316136d99261288e565b6001549182156137335760006020927f644b85583ba83e73113ffc0c122b165819ca11db493cd4cc38f5ba29138ffa1b9482190161371b611d248260016128a9565b60015555546040516001600160a01b039091168152a1565b634e487b7160e01b600052603160045260246000fd5b60405162461bcd60e51b815260206004820152601a602482015279155cd95c881a5cc81b9bdd081a5b881c985b991bdb481b1a5cdd60321b6044820152606490fd5b906137b157508051156137a057805190602001fd5b63d6bda27560e01b60005260046000fd5b815115806137e3575b6137c2575090565b639996b31560e01b60009081526001600160a01b0391909116600452602490fd5b50803b156137ba56fe9016d09d72d40fdae2fd8ceac6b6234c7706214fd39c1cd1e609a0528c199300360894a13ba1a3210667c828492db98dca3e2076cc3735a920a3ca505d382bbce85b607d57b04668b1d2caf42949038ece8789f7907395f968f702964c717ba88be0079c531659141344cd1fd0a4f28419497f9722a3daafe3b4186f6b6457e0b37800f632235e56e1626c9e9df3de1e167e9298f0d25f59fd74ec65e3111652f0c57e16840df040f15088dc2f81fe391c3923bec73e23a9662efc9c229c6a00a164736f6c634300081a000a",
  "linkReferences": {},
  "deployedLinkReferences": {}
}