{
  "_format": "hh-sol-artifact-1",
  "contractName": "RegistrationUpgradeable",
  "sourceName": "contracts/RegistrationUpgradeable.sol",
  "abi": [
    {
      "inputs": [
        {
          "internalType": "address",
          "name": "target",
          "type": "address"
        }
      ],
      "name": "AddressEmptyCode",
      "type": "error"
    },
    {
      "inputs": [
        {
          "internalType": "address",
          "name": "implementation",
          "type": "address"
        }
      ],
      "name": "ERC1967InvalidImplementation",
      "type": "error"
    },
    {
      "inputs": [],
      "name": "ERC1967NonPayable",
      "type": "error"
    },
    {
      "inputs": [],
      "name": "FailedCall",
      "type": "error"
    },
    {
      "inputs": [],
      "name": "InvalidInitialization",
      "type": "error"
    },
    {
      "inputs": [],
      "name": "NotInitializing",
      "type": "error"
    },
    {
      "inputs": [
        {
          "internalType": "address",
          "name": "owner",
          "type": "address"
        }
      ],
      "name": "OwnableInvalidOwner",
      "type": "error"
    },
    {
      "inputs": [
        {
          "internalType": "address",
          "name": "account",
          "type": "address"
        }
      ],
      "name": "OwnableUnauthorizedAccount",
      "type": "error"
    },
    {
      "inputs": [],
      "name": "UUPSUnauthorizedCallContext",
      "type": "error"
    },
    {
      "inputs": [
        {
          "internalType": "bytes32",
          "name": "slot",
          "type": "bytes32"
        }
      ],
      "name": "UUPSUnsupportedProxiableUUID",
      "type": "error"
    },
    {
      "anonymous": false,
      "inputs": [
        {
          "indexed": false,
          "internalType": "address",
          "name": "user",
          "type": "address"
        }
      ],
      "name": "AddedToRandomList",
      "type": "event"
    },
    {
      "anonymous": false,
      "inputs": [
        {
          "indexed": false,
          "internalType": "uint64",
          "name": "version",
          "type": "uint64"
        }
      ],
      "name": "Initialized",
      "type": "event"
    },
    {
      "anonymous": false,
      "inputs": [
        {
          "indexed": true,
          "internalType": "address",
          "name": "previousOwner",
          "type": "address"
        },
        {
          "indexed": true,
          "internalType": "address",
          "name": "newOwner",
          "type": "address"
        }
      ],
      "name": "OwnershipTransferred",
      "type": "event"
    },
    {
      "anonymous": false,
      "inputs": [
        {
          "indexed": false,
          "internalType": "address",
          "name": "by",
          "type": "address"
        },
        {
          "indexed": false,
          "internalType": "address",
          "name": "to",
          "type": "address"
        },
        {
          "indexed": false,
          "internalType": "address",
          "name": "user",
          "type": "address"
        }
      ],
      "name": "ParentAdded",
      "type": "event"
    },
    {
      "anonymous": false,
      "inputs": [
        {
          "indexed": false,
          "internalType": "address",
          "name": "to",
          "type": "address"
        },
        {
          "indexed": false,
          "internalType": "address",
          "name": "user",
          "type": "address"
        },
        {
          "indexed": false,
          "internalType": "uint256",
          "name": "valueInWei",
          "type": "uint256"
        },
        {
          "indexed": false,
          "internalType": "uint32",
          "name": "level",
          "type": "uint32"
        }
      ],
      "name": "ReferralRewardsPaid",
      "type": "event"
    },
    {
      "anonymous": false,
      "inputs": [
        {
          "indexed": false,
          "internalType": "address",
          "name": "by",
          "type": "address"
        },
        {
          "indexed": false,
          "internalType": "address",
          "name": "user",
          "type": "address"
        }
      ],
      "name": "ReferrerAdded",
      "type": "event"
    },
    {
      "anonymous": false,
      "inputs": [
        {
          "indexed": false,
          "internalType": "string",
          "name": "reason",
          "type": "string"
        }
      ],
      "name": "ReferrerNoAdded",
      "type": "event"
    },
    {
      "anonymous": false,
      "inputs": [
        {
          "indexed": false,
          "internalType": "address",
          "name": "by",
          "type": "address"
        },
        {
          "indexed": false,
          "internalType": "address",
          "name": "to",
          "type": "address"
        },
        {
          "indexed": false,
          "internalType": "address",
          "name": "user",
          "type": "address"
        },
        {
          "indexed": false,
          "internalType": "uint256",
          "name": "valueInWei",
          "type": "uint256"
        }
      ],
      "name": "Registration",
      "type": "event"
    },
    {
      "anonymous": false,
      "inputs": [
        {
          "indexed": false,
          "internalType": "address",
          "name": "by",
          "type": "address"
        },
        {
          "indexed": false,
          "internalType": "address",
          "name": "to",
          "type": "address"
        },
        {
          "indexed": false,
          "internalType": "address",
          "name": "user",
          "type": "address"
        }
      ],
      "name": "RegistrationAssigned",
      "type": "event"
    },
    {
      "anonymous": false,
      "inputs": [
        {
          "indexed": false,
          "internalType": "address",
          "name": "user",
          "type": "address"
        }
      ],
      "name": "RemovedFromRandomList",
      "type": "event"
    },
    {
      "anonymous": false,
      "inputs": [
        {
          "indexed": false,
          "internalType": "address",
          "name": "to",
          "type": "address"
        },
        {
          "indexed": false,
          "internalType": "address",
          "name": "user",
          "type": "address"
        },
        {
          "indexed": false,
          "internalType": "uint32",
          "name": "level",
          "type": "uint32"
        }
      ],
      "name": "TeamAddressAdded",
      "type": "event"
    },
    {
      "anonymous": false,
      "inputs": [
        {
          "indexed": false,
          "internalType": "address",
          "name": "to",
          "type": "address"
        },
        {
          "indexed": false,
          "internalType": "uint256",
          "name": "valueInWei",
          "type": "uint256"
        }
      ],
      "name": "TeamWalletRewardPaid",
      "type": "event"
    },
    {
      "anonymous": false,
      "inputs": [
        {
          "indexed": false,
          "internalType": "string",
          "name": "reason",
          "type": "string"
        }
      ],
      "name": "UpgradeRewardNotPaid",
      "type": "event"
    },
    {
      "anonymous": false,
      "inputs": [
        {
          "indexed": false,
          "internalType": "address",
          "name": "to",
          "type": "address"
        },
        {
          "indexed": false,
          "internalType": "address",
          "name": "by",
          "type": "address"
        },
        {
          "indexed": false,
          "internalType": "uint256",
          "name": "valueInWei",
          "type": "uint256"
        }
      ],
      "name": "UpgradeRewardPaid",
      "type": "event"
    },
    {
      "anonymous": false,
      "inputs": [
        {
          "indexed": true,
          "internalType": "address",
          "name": "implementation",
          "type": "address"
        }
      ],
      "name": "Upgraded",
      "type": "event"
    },
    {
      "anonymous": false,
      "inputs": [
        {
          "indexed": false,
          "internalType": "string",
          "name": "reason",
          "type": "string"
        }
      ],
      "name": "WeeklyRewardNotPaid",
      "type": "event"
    },
    {
      "anonymous": false,
      "inputs": [
        {
          "indexed": false,
          "internalType": "address",
          "name": "to",
          "type": "address"
        },
        {
          "indexed": false,
          "internalType": "uint256",
          "name": "valueInWei",
          "type": "uint256"
        }
      ],
      "name": "WeeklyRewardPaid",
      "type": "event"
    },
    {
      "inputs": [],
      "name": "UPGRADE_INTERFACE_VERSION",
      "outputs": [
        {
          "internalType": "string",
          "name": "",
          "type": "string"
        }
      ],
      "stateMutability": "view",
      "type": "function"
    },
    {
      "inputs": [
        {
          "internalType": "address",
          "name": "_chainLinkOracleAddress",
          "type": "address"
        }
      ],
      "name": "checkIfChainLinkOracleAddressSupporeted",
      "outputs": [
        {
          "internalType": "bool",
          "name": "",
          "type": "bool"
        }
      ],
      "stateMutability": "view",
      "type": "function"
    },
    {
      "inputs": [
        {
          "internalType": "address",
          "name": "_chainLinkOracleAddress",
          "type": "address"
        }
      ],
      "name": "distributeWeeklyReward",
      "outputs": [],
      "stateMutability": "nonpayable",
      "type": "function"
    },
    {
      "inputs": [],
      "name": "getAllUsers",
      "outputs": [
        {
          "internalType": "address[]",
          "name": "",
          "type": "address[]"
        }
      ],
      "stateMutability": "view",
      "type": "function"
    },
    {
      "inputs": [],
      "name": "getContractDefaults",
      "outputs": [
        {
          "internalType": "address",
          "name": "teamWallet",
          "type": "address"
        },
        {
          "internalType": "uint256",
          "name": "teamWalletRate",
          "type": "uint256"
        },
        {
          "internalType": "address",
          "name": "liquidityWallet",
          "type": "address"
        },
        {
          "internalType": "uint256",
          "name": "liquidityCreationrate",
          "type": "uint256"
        },
        {
          "internalType": "address",
          "name": "defaultReferrer",
          "type": "address"
        },
        {
          "internalType": "uint256",
          "name": "registrationValueInUSD",
          "type": "uint256"
        }
      ],
      "stateMutability": "view",
      "type": "function"
    },
    {
      "inputs": [
        {
          "internalType": "address",
          "name": "_chainLinkOracleAddress",
          "type": "address"
        }
      ],
      "name": "getNativePriceInUSD",
      "outputs": [
        {
          "internalType": "uint256",
          "name": "",
          "type": "uint256"
        }
      ],
      "stateMutability": "view",
      "type": "function"
    },
    {
      "inputs": [],
      "name": "getRandomUserList",
      "outputs": [
        {
          "internalType": "address[]",
          "name": "",
          "type": "address[]"
        }
      ],
      "stateMutability": "view",
      "type": "function"
    },
    {
      "inputs": [],
      "name": "getRegistrationsStats",
      "outputs": [
        {
          "internalType": "uint32",
          "name": "totalUser",
          "type": "uint32"
        },
        {
          "internalType": "uint256",
          "name": "totalRegistrationValueInUSD",
          "type": "uint256"
        },
        {
          "internalType": "uint256",
          "name": "totalReferralPaidInUSD",
          "type": "uint256"
        },
        {
          "internalType": "uint256",
          "name": "totalWeeklyRewardsPaidInUSD",
          "type": "uint256"
        }
      ],
      "stateMutability": "view",
      "type": "function"
    },
    {
      "inputs": [],
      "name": "getSupportedChainLinkOracleAddress",
      "outputs": [
        {
          "internalType": "address[]",
          "name": "",
          "type": "address[]"
        }
      ],
      "stateMutability": "view",
      "type": "function"
    },
    {
      "inputs": [],
      "name": "getUpgradePlans",
      "outputs": [
        {
          "components": [
            {
              "internalType": "uint8",
              "name": "id",
              "type": "uint8"
            },
            {
              "internalType": "uint256",
              "name": "valueToUpgradeInUSD",
              "type": "uint256"
            }
          ],
          "internalType": "struct UpgradeStruct[]",
          "name": "upgradePlans",
          "type": "tuple[]"
        },
        {
          "internalType": "uint8",
          "name": "upgradePlansCount",
          "type": "uint8"
        }
      ],
      "stateMutability": "view",
      "type": "function"
    },
    {
      "inputs": [
        {
          "internalType": "uint8",
          "name": "_id",
          "type": "uint8"
        }
      ],
      "name": "getUpgradePlansById",
      "outputs": [
        {
          "components": [
            {
              "internalType": "uint8",
              "name": "id",
              "type": "uint8"
            },
            {
              "internalType": "uint256",
              "name": "valueToUpgradeInUSD",
              "type": "uint256"
            }
          ],
          "internalType": "struct UpgradeStruct",
          "name": "",
          "type": "tuple"
        }
      ],
      "stateMutability": "view",
      "type": "function"
    },
    {
      "inputs": [
        {
          "internalType": "address",
          "name": "_userAddress",
          "type": "address"
        }
      ],
      "name": "getUserAccount",
      "outputs": [
        {
          "components": [
            {
              "internalType": "address",
              "name": "self",
              "type": "address"
            },
            {
              "internalType": "address",
              "name": "parent",
              "type": "address"
            },
            {
              "internalType": "address",
              "name": "referrer",
              "type": "address"
            },
            {
              "internalType": "address[]",
              "name": "referee",
              "type": "address[]"
            },
            {
              "components": [
                {
                  "internalType": "address",
                  "name": "referee",
                  "type": "address"
                },
                {
                  "internalType": "address",
                  "name": "assignedTo",
                  "type": "address"
                }
              ],
              "internalType": "struct RefereeStruct[]",
              "name": "refereeAssigned",
              "type": "tuple[]"
            },
            {
              "components": [
                {
                  "internalType": "address",
                  "name": "teamMember",
                  "type": "address"
                },
                {
                  "internalType": "uint8",
                  "name": "level",
                  "type": "uint8"
                }
              ],
              "internalType": "struct TeamStruct[]",
              "name": "team",
              "type": "tuple[]"
            },
            {
              "internalType": "uint256",
              "name": "selfBusinessInUSD",
              "type": "uint256"
            },
            {
              "internalType": "uint256",
              "name": "upgradedValueInUSD",
              "type": "uint256"
            },
            {
              "internalType": "uint8",
              "name": "upgradeId",
              "type": "uint8"
            },
            {
              "internalType": "uint256",
              "name": "directBusinessInUSD",
              "type": "uint256"
            },
            {
              "internalType": "uint256",
              "name": "teamBusinessInUSD",
              "type": "uint256"
            },
            {
              "internalType": "uint256",
              "name": "referralRewardsInUSD",
              "type": "uint256"
            },
            {
              "internalType": "uint256",
              "name": "weeklyRewardsInUSD",
              "type": "uint256"
            },
            {
              "internalType": "uint256",
              "name": "upgradeRewardsInUSD",
              "type": "uint256"
            },
            {
              "internalType": "uint256",
              "name": "userRandomIndex",
              "type": "uint256"
            },
            {
              "internalType": "uint256",
              "name": "timestampJoined",
              "type": "uint256"
            }
          ],
          "internalType": "struct AccountStruct",
          "name": "",
          "type": "tuple"
        }
      ],
      "stateMutability": "view",
      "type": "function"
    },
    {
      "inputs": [
        {
          "internalType": "address",
          "name": "_userAddress",
          "type": "address"
        }
      ],
      "name": "getUserBusiness",
      "outputs": [
        {
          "internalType": "uint256",
          "name": "selfBusinessInUSD",
          "type": "uint256"
        },
        {
          "internalType": "uint256",
          "name": "directBusinessInUSD",
          "type": "uint256"
        },
        {
          "internalType": "uint256",
          "name": "teamBusinessInUSD",
          "type": "uint256"
        },
        {
          "internalType": "uint256",
          "name": "totalBusinessInUSD",
          "type": "uint256"
        }
      ],
      "stateMutability": "view",
      "type": "function"
    },
    {
      "inputs": [
        {
          "internalType": "address",
          "name": "_userAddress",
          "type": "address"
        }
      ],
      "name": "getUserCurrentUpgradeLevel",
      "outputs": [
        {
          "internalType": "uint8",
          "name": "level",
          "type": "uint8"
        },
        {
          "internalType": "uint256",
          "name": "totalUpgradeValueInUSD",
          "type": "uint256"
        }
      ],
      "stateMutability": "view",
      "type": "function"
    },
    {
      "inputs": [
        {
          "internalType": "address",
          "name": "_userAddress",
          "type": "address"
        }
      ],
      "name": "getUserRewards",
      "outputs": [
        {
          "internalType": "uint256",
          "name": "referralRewardInUSD",
          "type": "uint256"
        },
        {
          "internalType": "uint256",
          "name": "weeklyRewardInUSD",
          "type": "uint256"
        },
        {
          "internalType": "uint256",
          "name": "upgradeRewardsInUSD",
          "type": "uint256"
        },
        {
          "internalType": "uint256",
          "name": "totalRewards",
          "type": "uint256"
        }
      ],
      "stateMutability": "view",
      "type": "function"
    },
    {
      "inputs": [
        {
          "internalType": "address",
          "name": "_userAddress",
          "type": "address"
        }
      ],
      "name": "getUserTeam",
      "outputs": [
        {
          "internalType": "address",
          "name": "referrer",
          "type": "address"
        },
        {
          "internalType": "address[]",
          "name": "referees",
          "type": "address[]"
        },
        {
          "internalType": "uint256",
          "name": "refereeCount",
          "type": "uint256"
        },
        {
          "components": [
            {
              "internalType": "address",
              "name": "referee",
              "type": "address"
            },
            {
              "internalType": "address",
              "name": "assignedTo",
              "type": "address"
            }
          ],
          "internalType": "struct RefereeStruct[]",
          "name": "refereeAssigned",
          "type": "tuple[]"
        },
        {
          "internalType": "uint256",
          "name": "refereeAssignedCount",
          "type": "uint256"
        },
        {
          "components": [
            {
              "internalType": "address",
              "name": "teamMember",
              "type": "address"
            },
            {
              "internalType": "uint8",
              "name": "level",
              "type": "uint8"
            }
          ],
          "internalType": "struct TeamStruct[]",
          "name": "team",
          "type": "tuple[]"
        },
        {
          "internalType": "uint256",
          "name": "teamCount",
          "type": "uint256"
        }
      ],
      "stateMutability": "view",
      "type": "function"
    },
    {
      "inputs": [],
      "name": "getWeeklyRewardToBeDistributed",
      "outputs": [
        {
          "internalType": "uint256",
          "name": "_rewardValue",
          "type": "uint256"
        },
        {
          "internalType": "uint256",
          "name": "_remianingTime",
          "type": "uint256"
        },
        {
          "internalType": "uint256",
          "name": "_endTime",
          "type": "uint256"
        }
      ],
      "stateMutability": "view",
      "type": "function"
    },
    {
      "inputs": [],
      "name": "initialize",
      "outputs": [],
      "stateMutability": "nonpayable",
      "type": "function"
    },
    {
      "inputs": [
        {
          "internalType": "address",
          "name": "_chainLinkOracleAddress",
          "type": "address"
        }
      ],
      "name": "needNativeToRegister",
      "outputs": [
        {
          "internalType": "uint256",
          "name": "",
          "type": "uint256"
        }
      ],
      "stateMutability": "view",
      "type": "function"
    },
    {
      "inputs": [],
      "name": "owner",
      "outputs": [
        {
          "internalType": "address",
          "name": "",
          "type": "address"
        }
      ],
      "stateMutability": "view",
      "type": "function"
    },
    {
      "inputs": [],
      "name": "proxiableUUID",
      "outputs": [
        {
          "internalType": "bytes32",
          "name": "",
          "type": "bytes32"
        }
      ],
      "stateMutability": "view",
      "type": "function"
    },
    {
      "inputs": [
        {
          "internalType": "address",
          "name": "_referrer",
          "type": "address"
        },
        {
          "internalType": "address",
          "name": "_chainLinkOracleAddress",
          "type": "address"
        }
      ],
      "name": "registrationNative",
      "outputs": [],
      "stateMutability": "payable",
      "type": "function"
    },
    {
      "inputs": [],
      "name": "renounceOwnership",
      "outputs": [],
      "stateMutability": "nonpayable",
      "type": "function"
    },
    {
      "inputs": [
        {
          "internalType": "address",
          "name": "_chainLinkOracleAddress",
          "type": "address"
        },
        {
          "internalType": "bool",
          "name": "_status",
          "type": "bool"
        }
      ],
      "name": "setChainLinkOracleAddress",
      "outputs": [],
      "stateMutability": "nonpayable",
      "type": "function"
    },
    {
      "inputs": [
        {
          "internalType": "address",
          "name": "newOwner",
          "type": "address"
        }
      ],
      "name": "transferOwnership",
      "outputs": [],
      "stateMutability": "nonpayable",
      "type": "function"
    },
    {
      "inputs": [
        {
          "internalType": "address",
          "name": "_chainLinkOracleAddress",
          "type": "address"
        }
      ],
      "name": "upgradeAccountNative",
      "outputs": [],
      "stateMutability": "payable",
      "type": "function"
    },
    {
      "inputs": [
        {
          "internalType": "address",
          "name": "newImplementation",
          "type": "address"
        },
        {
          "internalType": "bytes",
          "name": "data",
          "type": "bytes"
        }
      ],
      "name": "upgradeToAndCall",
      "outputs": [],
      "stateMutability": "payable",
      "type": "function"
    },
    {
      "stateMutability": "payable",
      "type": "receive"
    }
  ],
  "bytecode": "0x60a0806040523460295730608052613563908161002f823960805181818161264401526127170152f35b600080fdfe608080604052600436101561001d575b50361561001b57600080fd5b005b60003560e01c9081630690c6a814612c6557508063078b0fb714612a7557806307c560d11461299957806308e922ba1461297d57806311f4d5761461293e5780631a746344146128db5780634f1ef2861461269b57806352d1902d1461263157806359a04544146124c45780635eda81ce146122af5780636a74631114612289578063715018a6146122315780637ec37e03146121ce5780638129fc1c14611d25578063846688f714611cc45780638da5cb5b14611c8e578063a0db38e514611917578063a9df9fae146118aa578063ad3cb1cc1461182e578063c53b219e14610db0578063d277b8a914610b83578063e2842d7914610b53578063f2fde38b14610b2a578063f87127b41461091b578063f92501711461071d578063faeda7e5146104d15763fb47e01614610153573861000f565b346104cc5760203660031901126104cc5761016c612ca0565b60006101e060405161017d81612cf3565b82815282602082015282604082015260608082015260606080820152606060a08201528260c08201528260e08201528261010082015282610120820152826101408201528261016082015282610180820152826101a0820152826101c0820152015260018060a01b03166000526012602052604060002060405161020081612cf3565b81546001600160a01b03908116825260018301548116602083019081526002840154909116604083019081529092909161023c60038301612ea9565b6060820190815260048301805461025281612efd565b916102606040519384612d2a565b818352602083019060005260206000206000915b8383106104915750505050608083019081526005840191825461029681612efd565b936102a46040519586612d2a565b818552602085019060005260206000206000915b83831061045b575050505060a08401928352600685015460c0850152600785015460e08501908152600886015460ff166101008601526009860154610120860152600a860154610140860152600b860154610160860152600c860154610180860152600d8601546101a0860152600e8601546101c0860152600f909501546101e085015260408051602080825286516001600160a01b039081168284015299518a16928201929092529651909716606087015251610200608087015280516102208701819052610240870197919091019060005b81811061043c575050506101e092916103b686976103c99351601f198983030160a08a0152612d68565b9051868203601f190160c0880152612db4565b9260c082015160e08601525161010085015260ff610100820151166101208501526101208101516101408501526101408101516101608501526101608101516101808501526101808101516101a08501526101a08101516101c08501526101c08101518285015201516102008301520390f35b82516001600160a01b031689526020988901989092019160010161038c565b60016020819260405161046d81612d0f565b60ff8654858060a01b038116835260a01c16838201528152019201920191906102b8565b600260206001926040516104a481612d0f565b848060a01b038654168152848060a01b03858701541683820152815201920192019190610274565b600080fd5b346104cc5760203660031901126104cc576001600160a01b036104f2612ca0565b16600052601260205260406000206040519061050d82612cf3565b80546001600160a01b039081168352600182015481166020840152600282015416604083019081529061054260038201612ea9565b91606084019283526004820193845461055a81612efd565b956105686040519788612d2a565b818752602087019060005260206000206000915b8383106106e25750505050608081019485526005830192835461059e81612efd565b946105ac6040519687612d2a565b818652602086019060005260206000206000915b8383106106ac5750505050906101e0600f6106a294938660a0850152600681015460c0850152600781015460e085015260ff6008820154166101008501526009810154610120850152600a810154610140850152600b810154610160850152600c810154610180850152600d8101546101a0850152600e8101546101c0850152015491015260018060a01b03905116925193845190519261068f84519282519561067c604051998a998a5260e060208b015260e08a0190612cb6565b9160408901528782036060890152612d68565b91608086015284820360a0860152612db4565b9060c08301520390f35b6001602081926040516106be81612d0f565b60ff8654858060a01b038116835260a01c16838201528152019201920191906105c0565b600260206001926040516106f581612d0f565b848060a01b038654168152848060a01b0385870154168382015281520192019201919061057c565b346104cc5760203660031901126104cc57610736612ca0565b6001600160a01b0316600090815260126020526040808220905190919061075c81612cf3565b82546001600160a01b039081168252600184015481166020830152600284015416604082015261078e60038401612ea9565b60608201526004830180546107a281612efd565b916107b06040519384612d2a565b818352602083019060005260206000206000915b8383106108e057505050506080820152600583019283546107e481612efd565b906107f26040519283612d2a565b80825260208201956000526020600020956000905b8282106108aa575050506040945060a0830152600681015460c08301526007810154918260e08201526101e0600f60ff60088501541693846101008501526009810154610120850152600a810154610140850152600b810154610160850152600c810154610180850152600d8101546101a0850152600e8101546101c08501520154910152806108a2575b5060ff8351921682526020820152f35b915083610892565b6001602081926040516108bc81612d0f565b60ff8c54858060a01b038116835260a01c1683820152815201980191019096610807565b600260206001926040516108f381612d0f565b848060a01b038654168152848060a01b038587015416838201528152019201920191906107c4565b346104cc5760203660031901126104cc576001600160a01b0361093c612ca0565b16600052601260205260406000206040519061095782612cf3565b80546001600160a01b039081168352600182015481166020840152600282015416604083015261098960038201612ea9565b606083015260048101805461099d81612efd565b916109ab6040519384612d2a565b818352602083019060005260206000206000915b838310610aef575050505060808301526005810180546109de81612efd565b916109ec6040519384612d2a565b818352602083019060005260206000206000915b838310610ab9575050505060a0830152610ab56006820154918260c0850152600781015460e085015260ff600882015416610100850152600981015493846101208201526101e0600f600a8401549384610140850152600b810154610160850152600c810154610180850152600d8101546101a0850152600e8101546101c08501520154910152610a918382612f14565b90604051948594859094939260609260808301968352602083015260408201520152565b0390f35b600160208192604051610acb81612d0f565b60ff8654858060a01b038116835260a01c1683820152815201920192019190610a00565b60026020600192604051610b0281612d0f565b848060a01b038654168152848060a01b038587015416838201528152019201920191906109bf565b346104cc5760203660031901126104cc5761001b610b46612ca0565b610b4e61322e565b6130c3565b346104cc5760003660031901126104cc57610ab5610b6f612e56565b604051918291602083526020830190612cb6565b346104cc5760203660031901126104cc57610b9c612ca0565b6001600160a01b038116600090815260146020526040902054610bc69060ff161515600114613044565b670de0b6b3a7640000610be4610bde60095493613127565b83612f21565b04600b5462093a80810110610d5a578115610d7057610c01612e56565b6000194301438111610d5a57610c5690604051610c3781610c29602082019440444287613089565b03601f198101835282612d2a565b51902082516001600160a01b039391610c50919061309e565b90612f6d565b5116918215610ce3576000808080938682526012602052600c6040832001610c7f878254612f14565b90558682f115610cd7577f6dbdd944bdf6514aca26947d204530e2ecbea365677ef05fee7a56d54a14569791600060095542600b55610cc082600554612f14565b600555610cd2604051928392836130a8565b0390a1005b6040513d6000823e3d90fd5b5050507f974c744afa915921dddb0f53fdbfdd97fef12a94db2457dcf878aa94ad687274608060405160208152603160208201527f52616e646f6d206164647265737320776173207a65726f20616464726573732e60408201527010283632b0b9b2903a393c9030b3b0b4b760791b6060820152a1005b634e487b7160e01b600052601160045260246000fd5b60405162461bcd60e51b81526020600482015260186024820152774e6f207265776172647320746f206469737472696275746560401b6044820152606490fd5b60403660031901126104cc57610dc4612ca0565b6024356001600160a01b038116908181036104cc576001600160a01b0383169182156117dd576000526014602052600160ff6040600020541615150361178c57610e1f610e19670de0b6b3a764000092613127565b34612f21565b0490600f54606181029080820460611490151715610d5a5760649004821061173857600c549060ff8083169260081c16913360005260126020526040600020928260005260126020526040600020600685019687546116f9576006820154156116be5785546001600160a01b03161561169e575b81546001600160a01b03161561167d575b5050600d54600285018054909491906001600160a01b031661161d573360005260126020526040600020913381146115db5760409060009081526012602052209060038201610ef48282546132d7565b156115a25750600e82015460009061159a575b61158c575b6000194301438111610d5a57610f43610f4891604051610f3781610c29602082019440444287613089565b5190206001549061309e565b612f81565b90546001600160a01b0360039290921b1c81166000908152601260205260409020805490929116801561154c5784610f7f916132fe565b825482546040516001600160a01b0391821693927fa1b30426557565c4fa85ce5f9c88513d7d3f49d21eb30569c249b07b037831ef928291610fc6913391889116846132b4565b0390a160405160048501610fd982612d0f565b33825260208201938452805493600160401b85101561149e576001850180835585101561153657600091825260209091209151600194851b90920180546001600160a01b039384166001600160a01b03199182161782559151940180549490921693169290921790915561105b90600383016110553382612ffe565b546132d7565b611527575b505b6001820180546001600160a01b0316156114bf575b50506000905b8260ff831610611365575b5050505b600e830180546113205783546110aa906001600160a01b0316612fb4565b60015490557f0411c58b3c1e8a39d91c901e5c807bff1401650beedc45aba65112756bb929b4608060018060a01b038554167f06baf10092c7ea144c4fb56fb8cf641e1f00e291a535b5d54b547eadb29485a76020604051838152a160018601549454604080516001600160a01b0397881680825297909216602083015281019190915260608101879052a1606461114e816111468434612f21565b049286612f21565b0491600052601260205260406000209060018060a01b0382541680611281575b505050506006546000808080606461118c60ff8760a01c1634612f21565b04809582908215611277575b6001600160a01b031690f115610cd7576006546040517f5aa75bdb3269082e844d731608afae2a07cbf194f251e3f857b870af86b754fb92909182916111e7916001600160a01b0316836130a8565b0390a160646111fb60ff6008541634612f21565b049260008080808760018060a01b036010541682821561126e575bf115610cd75761122b61126994600754612f14565b600755611239838254612f14565b9055600f4291015561125e606461125560ff600a541634612f21565b04600954612f14565b600955600254612f14565b600255005b506108fc611216565b6108fc9150611198565b60008080848194828215611317575bf115610cd7576009927f153f77382d7e07de734977ae352e9b1f5f8ad4b1c0033c883a9a33456a87836f60806112fd9360018060a01b0386541690604051918252336020830152604082015260016060820152a1600b83016112f3828254612f14565b9055600354612f14565b6003550161130c838254612f14565b90558380808061116e565b506108fc611290565b60405162461bcd60e51b815260206004820152601e60248201527f5573657220697320616c726561647920696e2072616e646f6d206c69737400006044820152606490fd5b60028101546001600160a01b03169081156114b957546001600160a01b031681146114b4576000526012602052604060002060058101906113a583613032565b604051926113b284612d0f565b33845260ff60208501921682528054600160401b81101561149e576113dc91600182018155612f9c565b919091611488579251815493516001600160a81b03199094166001600160a01b03919091161760a09390931b60ff60a01b1692909217909155600a8101805461148292919061142c908a90612f14565b905580547f85db3f10b88ea7fc653f3f818097a3fc3c543196ed60cad2251df922bcc9ad7f906060906001600160a01b031660ff61146987613032565b604051928352336020840152166040820152a191613021565b9061107d565b634e487b7160e01b600052600060045260246000fd5b634e487b7160e01b600052604160045260246000fd5b611088565b50611088565b905481546001600160a01b0319166001600160a01b0391821690811790925560028301546040517f8efa008f8ae98ae30d3219078a298c85bc25a62f50c57ed9a3ec838b7eed9f47939092839261151d9233929190911690846132b4565b0390a18780611077565b61153090613354565b88611060565b634e487b7160e01b600052603260045260246000fd5b60405162461bcd60e51b8152602060048201526018602482015277139bc81c985b991bdb481c9959995c9c995c88199bdd5b9960421b6044820152606490fd5b61159582613354565b610f0c565b506001610f07565b82546115c89291906115be9086906001600160a01b03166132fe565b6110553382612ffe565b15611062576115d681613354565b611062565b60405162461bcd60e51b815260206004820152601a6024820152792cb7ba9031b0b73737ba103932b332b9103cb7bab939b2b6331760311b6044820152606490fd5b5050507f1f4fff38c5e64af9e759d590409f022ea913658008bb1d0cd35e028244f01ecf606060405160208152601f60208201527f5573657220416c72656164792068617665207265666572726572207365742e006040820152a161108c565b81546001600160a01b031916851790915561169790612fd9565b8680610ea4565b85546001600160a01b0319163390811787556116b990612fd9565b610e93565b60405162461bcd60e51b81526020600482015260136024820152725265666572726572204e6f742041637469766560681b6044820152606490fd5b60405162461bcd60e51b8152602060048201526017602482015276155cd95c88185b1c9958591e481c9959da5cdd195c9959604a1b6044820152606490fd5b60405162461bcd60e51b815260206004820152602660248201527f56616c7565206973206c657373207468656e20726567697374726174696f6e206044820152653b30b63ab29760d11b6064820152608490fd5b60405162461bcd60e51b815260206004820152602360248201527f43757272656e637920596f752073656c6563746564206e6f7420737570706f726044820152621d195960ea1b6064820152608490fd5b60405162461bcd60e51b815260206004820152602360248201527f5a65726f20416464726573732063616e6e6f74206265207468652072656665726044820152623932b960e91b6064820152608490fd5b346104cc5760003660031901126104cc57604080519061184e8183612d2a565b60058252640352e302e360dc1b6020830152805180926020825280519081602084015260005b8281106118935750506000828201840152601f01601f19168101030190f35b602082820181015187830187015286945001611874565b346104cc5760203660031901126104cc5760043560ff81168091036104cc576118d1612f54565b50600052601360205260408060002060018251916118ee83612d0f565b60ff815416835201546020820152611915825180926020809160ff81511684520151910152565bf35b60203660031901126104cc57670de0b6b3a7640000611969610e1961193a612ca0565b6001600160a01b0381166000908152601460205260409020546119649060ff161515600114613044565b613127565b0433600052601260205260406000206008810160ff815416600052601360205260406000209060016040519261199e84612d0f565b60ff81541684520154602083019080825215611c49578051605f810290808204605f1490151715610d5a57606490048511908115611c29575b5015611bd55760ff808093600786016119f1888254612f14565b9055511616821982541617815554169160009260001981019260ff8085119416905b82861115611a1d57005b600201546001600160a01b0316600090815260126020526040902084610d5a57818614611a5757946000198114610d5a5760010194611a13565b80955060ff929394506008915001541690808211918215611bcb575b505080611bb8575b15611ae857611a8f600d8301918254612f14565b9055600080808060018060a01b0385541681903415611ade575b3491f115610cd75754604051600080516020613517833981519152918190610cd290349033906001600160a01b031684613264565b6108fc9150611aa9565b50507f6696b78fc1713892e6e2bb3df5cdc986ab67a0c675898c7ef535bd2201ca9451608060405160208152603f60208201527f55706c696e6520686173206e6f742075706772616465642e20416d6f756e742060408201527f7472616e73666572656420746f206c69717569646974792077616c6c65742e006060820152a16010546001600160a01b031660003415611baf575b600080808093853491f115610cd757610cd2600080516020613517833981519152916040519182913490339084613264565b506108fc611b7d565b5081546001600160a01b03161515611a7b565b1490508380611a73565b60405162461bcd60e51b815260206004820152602660248201527f56616c75652073686f756c6420626520657175616c20746f20757067726164656044820152652076616c756560d01b6064820152608490fd5b51606980820292508115918304141715610d5a57606490048410856119d7565b60405162461bcd60e51b815260206004820152601d60248201527f596f75206861766520757067726164656420616c6c206c6576656c732e0000006044820152606490fd5b346104cc5760003660031901126104cc576000805160206134b7833981519152546040516001600160a01b039091168152602090f35b346104cc5760003660031901126104cc576000600954600b549162093a80830192838111610d5a57428411611d0b575b509160609260405192835260208301526040820152f35b62093a8091504290030191808311610d5a57916060611cf4565b346104cc5760003660031901126104cc5760008051602061353783398151915254604081901c60ff1615906001600160401b038116801590816121c6575b60011490816121bc575b1590816121b3575b506121a2576001600160401b031981166001176000805160206135378339815191525581612179575b50600e805473cef5767039fa6a66016b802546f123e0c3ddedc26001600160a01b031991821681178355600081905260126020527f7b58f54f0bc0fcd57e50c233f450fe384adf8c88021dbbeef24b87de22945c1480548316821781557f7b58f54f0bc0fcd57e50c233f450fe384adf8c88021dbbeef24b87de22945c158054909316821790925569152d02c7e14af68000007f7b58f54f0bc0fcd57e50c233f450fe384adf8c88021dbbeef24b87de22945c1a556001929190611e6190612fb4565b0155600e54611e78906001600160a01b0316612fd9565b601154600160401b81101561149e57806001611e9992016011556011612f9c565b81546001600160a01b0360039290921b91821b1916730567f2323251f0aab15c8dfb1967e4e8a7d42aee90911b179055601154600160401b81101561149e57806001611eea92016011556011612f9c565b81546001600160a01b0360039290921b91821b1916739c85f470f9ba23dfc4fe9531933c2ce2c1739c399182901b1790915560146020527f18b399276171edd4288c75706c059c76f8ba27a208f6ab7dc13ddac4a813eb06805460ff1990811660019081179092556000929092527f785e316b530d6f09805cf52ec6944c1fd91d7cf1ffa292231399b4110cc5ca9d80548316909117905568015af1d78b58c40000600f55600c805461ffff191661083c1790556002600d55600680546001600160a81b0319167414554f58fcfcef95f82c8cf6ed9e51e5c79e3414811790556008805482166010908117909155600a805490921660041790915542600b5580546001600160a01b031916733d7263afa42c9d47c13cfcdcdc72a131077e561817905560405160e081016001600160401b0381118282101761149e576040526801158e460913d0000081526801a055690d9db8000060208201526802b5e3af16b188000060408201526809c2007651b250000060608201526815af1d78b58c400000608082015268281d901f4fdd10000060a0820152684fb0591b9b3038000060c082015260005b60ff81169060078210156120fd576120f89160016120af83613032565b9160ff8060406000611fe08860051b168a015194838351986120d08a612d0f565b1688526020880195865281526013602052209451161660ff1984541617835551910155613021565b612092565b83612106613286565b61210e613286565b612117336130c3565b61211f613286565b61212557005b60ff60401b196000805160206135378339815191525416600080516020613537833981519152557fc7f505b2f371ae2175ee4913f4499e1f2633a7b5936321eed1cdaeb6115181d2602060405160018152a1005b6001600160481b0319166001600160401b01176000805160206135378339815191525581611d9e565b63f92ee8a960e01b60005260046000fd5b90501583611d75565b303b159150611d6d565b839150611d63565b346104cc5760003660031901126104cc576040516001548082526020820190600160005260206000209060005b81811061221257610ab585610b6f81870382612d2a565b82546001600160a01b03168452602090930192600192830192016121fb565b346104cc5760003660031901126104cc5761224a61322e565b6000805160206134b783398151915280546001600160a01b031981169091556000906001600160a01b03166000805160206134f78339815191528280a3005b346104cc5760203660031901126104cc5760206122a7611964612ca0565b604051908152f35b346104cc5760403660031901126104cc576122c8612ca0565b6024358015158091036104cc576122dd61322e565b6001600160a01b03821660008181526014602052604090205490919060ff161515811461248a57600190826000526014602052604060002060ff1981541660ff831617905514600014612374575060115490600160401b82101561149e5761235082600161001b94016011556011612f9c565b9080546001600160a01b0360039390931b83811b199091169290931690921b179055565b905061237e612e00565b805160005b81811061238c57005b836001600160a01b0361239f8386612f6d565b5116146123af575b600101612383565b6000198201828111610d5a576001600160a01b03906123ce9085612f6d565b51166000601154831015612476576011908190527f31ecc21a745e3968a04e9570e4425bc18fa8019c68028196b546d1669c200c68830180546001600160a01b0319166001600160a01b0390931692909217909155546000811561246257506001919060001901612458612443826011612f9c565b81549060018060a01b039060031b1b19169055565b60115590506123a7565b634e487b7160e01b81526031600452602490fd5b634e487b7160e01b81526032600452602490fd5b60405162461bcd60e51b815260206004820152601260248201527114dd185d1d5cc8185b1c9958591e481cd95d60721b6044820152606490fd5b346104cc5760003660031901126104cc5760ff6000805b82821660328110156126295760005260136020528260406000205416156125115760016125088492613021565b920116906124db565b90505b1661251e81612efd565b9061252c6040519283612d2a565b808252601f1961253b82612efd565b0160005b81811061260457505060005b60ff8116828110156125a25760ff9161259a8260019360005260136020526040600020846040519161257c83612d0f565b878154168352015460208201526125938289612f6d565b5286612f6d565b50011661254b565b828460405190604082019260408352815180945260206060840192016000945b8086106125d757505082935060208301520390f35b909260206040826125f860019488516020809160ff81511684520151910152565b019401950194906125c2565b60209060405161261381612d0f565b600081526000838201528282870101520161253f565b509050612514565b346104cc5760003660031901126104cc577f00000000000000000000000000000000000000000000000000000000000000006001600160a01b0316300361268a5760206040516000805160206134d78339815191528152f35b63703e46dd60e11b60005260046000fd5b60403660031901126104cc576126af612ca0565b602435906001600160401b0382116104cc57366023830112156104cc578160040135906126db82612d4d565b916126e96040519384612d2a565b808352602083019336602483830101116104cc57816000926024602093018737840101526001600160a01b037f0000000000000000000000000000000000000000000000000000000000000000163081149081156128b8575b5061268a5761274f61322e565b6040516352d1902d60e01b81526001600160a01b0382169390602081600481885afa60009181612884575b506127945784634c9c8ce360e01b60005260045260246000fd5b806000805160206134d78339815191528692036128705750823b1561285c576000805160206134d783398151915280546001600160a01b031916821790557fbc7cd75a20ee27fd9adebab32041f755214dbc6bffa90cc0225b39da2e5c2d3b600080a2825115612841576000809161001b945190845af43d15612839573d9161281c83612d4d565b9261282a6040519485612d2a565b83523d6000602085013e613455565b606091613455565b5050503461284b57005b63b398979f60e01b60005260046000fd5b634c9c8ce360e01b60005260045260246000fd5b632a87526960e21b60005260045260246000fd5b9091506020813d6020116128b0575b816128a060209383612d2a565b810103126104cc5751908661277a565b3d9150612893565b6000805160206134d7833981519152546001600160a01b03161415905084612742565b346104cc5760003660031901126104cc57600654601054600854600e54600f54604080516001600160a01b03808816825260a097881c60ff908116602084015296811692820192909252939094166060840152921660808201529182015260c090f35b346104cc5760203660031901126104cc576001600160a01b0361295f612ca0565b166000526014602052602060ff604060002054166040519015158152f35b346104cc5760003660031901126104cc57610ab5610b6f612e00565b346104cc5760203660031901126104cc576129b2612ca0565b60018060a01b0381166000526014602052600160ff60406000205416151503612a0f57600f5490670de0b6b3a7640000820291808304670de0b6b3a76400001490151715610d5a57602091612a096122a792613127565b90612f34565b60405162461bcd60e51b815260206004820152603860248201527f506c6561736520636865636b2074686520636861696e4c696e6b4f7261636c656044820152771059191c995cdcc81bdc881b9bdd081cdd5c1c1bdc9d195960421b6064820152608490fd5b346104cc5760203660031901126104cc576001600160a01b03612a96612ca0565b166000526012602052604060002060405190612ab182612cf3565b80546001600160a01b0390811683526001820154811660208401526002820154166040830152612ae360038201612ea9565b6060830152600481018054612af781612efd565b91612b056040519384612d2a565b818352602083019060005260206000206000915b838310612c2a57505050506080830152600581018054612b3881612efd565b91612b466040519384612d2a565b818352602083019060005260206000206000915b838310612bf4575050505060a0830152600681015460c0830152600781015460e083015260ff6008820154166101008301526009810154610120830152600a810154610140830152610ab5600b8201549182610160850152600c81015493846101808201526101e0600f600d84015493846101a0850152600e8101546101c08501520154910152610a9181612bef8686612f14565b612f14565b600160208192604051612c0681612d0f565b60ff8654858060a01b038116835260a01c1683820152815201920192019190612b5a565b60026020600192604051612c3d81612d0f565b848060a01b038654168152848060a01b03858701541683820152815201920192019190612b19565b346104cc5760003660031901126104cc5760809063ffffffff6000541660025460035490600554928452602084015260408301526060820152f35b600435906001600160a01b03821682036104cc57565b906020808351928381520192019060005b818110612cd45750505090565b82516001600160a01b0316845260209384019390920191600101612cc7565b61020081019081106001600160401b0382111761149e57604052565b604081019081106001600160401b0382111761149e57604052565b601f909101601f19168101906001600160401b0382119082101761149e57604052565b6001600160401b03811161149e57601f01601f191660200190565b906020808351928381520192019060005b818110612d865750505090565b825180516001600160a01b039081168652602091820151168186015260409094019390920191600101612d79565b906020808351928381520192019060005b818110612dd25750505090565b825180516001600160a01b0316855260209081015160ff168186015260409094019390920191600101612dc5565b604051906011548083528260208101601160005260206000209260005b818110612e34575050612e3292500383612d2a565b565b84546001600160a01b0316835260019485019487945060209093019201612e1d565b6040519060005480835282602081016000805260206000209260005b818110612e87575050612e3292500383612d2a565b84546001600160a01b0316835260019485019487945060209093019201612e72565b906040519182815491828252602082019060005260206000209260005b818110612edb575050612e3292500383612d2a565b84546001600160a01b0316835260019485019487945060209093019201612ec6565b6001600160401b03811161149e5760051b60200190565b91908201809211610d5a57565b81810292918115918404141715610d5a57565b8115612f3e570490565b634e487b7160e01b600052601260045260246000fd5b60405190612f6182612d0f565b60006020838281520152565b80518210156115365760209160051b010190565b60015481101561153657600160005260206000200190600090565b80548210156115365760005260206000200190600090565b60015490600160401b82101561149e57612350826001612e3294016001556001612f9c565b60005490600160401b82101561149e57612350826001612e3294016000556000612f9c565b80549190600160401b83101561149e5782612350916001612e3295018155612f9c565b60ff1660ff8114610d5a5760010190565b60ff60019116019060ff8211610d5a57565b1561304b57565b60405162461bcd60e51b815260206004820152601660248201527510dd5c9c995b98de481b9bdd081cdd5c1c1bdc9d195960521b6044820152606490fd5b91606093918352602083015260408201520190565b8115612f3e570690565b6001600160a01b039091168152602081019190915260400190565b6001600160a01b03168015613111576000805160206134b783398151915280546001600160a01b0319811683179091556001600160a01b03166000805160206134f7833981519152600080a3565b631e4fbdf760e01b600052600060045260246000fd5b6040516350d25bcd60e01b8152906001600160a01b0316602082600481845afa918215610cd7576000926131f9575b5060206004916040519283809263313ce56760e01b82525afa908115610cd7576000916131b5575b5060ff1690670de0b6b3a764000090818102918183041490151715610d5a57604d8211610d5a576131b291600a0a90612f34565b90565b6020813d6020116131f1575b816131ce60209383612d2a565b810103126131ed57519060ff821682036131ea575060ff61317e565b80fd5b5080fd5b3d91506131c1565b90916020823d602011613226575b8161321460209383612d2a565b810103126131ea575051906020613156565b3d9150613207565b6000805160206134b7833981519152546001600160a01b0316330361324f57565b63118cdaa760e01b6000523360045260246000fd5b6001600160a01b03918216815291166020820152604081019190915260600190565b60ff6000805160206135378339815191525460401c16156132a357565b631afcd79f60e31b60005260046000fd5b6001600160a01b0391821681529181166020830152909116604082015260600190565b600092918082149182156132f4575b50506132ee57565b60019150565b11905038806132e6565b6002820180546001600160a01b0319166001600160a01b03928316908117909155915460408051938452911660208301527fec49a3c8c4ae06c18160fe86119c381c9d213ac3e052ff35b594da8687b193c791a1565b600e810180548015613413576001546000198101908111610d5a5761337890612f81565b905460001983019260039290921b1c6001600160a01b0316908211610d5a576123506133a392612f81565b6001549182156133fd5760006020927f644b85583ba83e73113ffc0c122b165819ca11db493cd4cc38f5ba29138ffa1b948219016133e5612443826001612f9c565b60015555546040516001600160a01b039091168152a1565b634e487b7160e01b600052603160045260246000fd5b60405162461bcd60e51b815260206004820152601a602482015279155cd95c881a5cc81b9bdd081a5b881c985b991bdb481b1a5cdd60321b6044820152606490fd5b9061347b575080511561346a57805190602001fd5b63d6bda27560e01b60005260046000fd5b815115806134ad575b61348c575090565b639996b31560e01b60009081526001600160a01b0391909116600452602490fd5b50803b1561348456fe9016d09d72d40fdae2fd8ceac6b6234c7706214fd39c1cd1e609a0528c199300360894a13ba1a3210667c828492db98dca3e2076cc3735a920a3ca505d382bbc8be0079c531659141344cd1fd0a4f28419497f9722a3daafe3b4186f6b6457e0b37800f632235e56e1626c9e9df3de1e167e9298f0d25f59fd74ec65e3111652f0c57e16840df040f15088dc2f81fe391c3923bec73e23a9662efc9c229c6a00a164736f6c634300081a000a",
  "linkReferences": {},
  "deployedLinkReferences": {}
}