{
  "_format": "hh-sol-artifact-1",
  "contractName": "RegistrationUpgradeable",
  "sourceName": "contracts/RegistrationUpgradeable.sol",
  "abi": [
    {
      "inputs": [
        {
          "internalType": "address",
          "name": "target",
          "type": "address"
        }
      ],
      "name": "AddressEmptyCode",
      "type": "error"
    },
    {
      "inputs": [
        {
          "internalType": "address",
          "name": "implementation",
          "type": "address"
        }
      ],
      "name": "ERC1967InvalidImplementation",
      "type": "error"
    },
    {
      "inputs": [],
      "name": "ERC1967NonPayable",
      "type": "error"
    },
    {
      "inputs": [],
      "name": "FailedCall",
      "type": "error"
    },
    {
      "inputs": [],
      "name": "InvalidInitialization",
      "type": "error"
    },
    {
      "inputs": [],
      "name": "NotInitializing",
      "type": "error"
    },
    {
      "inputs": [
        {
          "internalType": "address",
          "name": "owner",
          "type": "address"
        }
      ],
      "name": "OwnableInvalidOwner",
      "type": "error"
    },
    {
      "inputs": [
        {
          "internalType": "address",
          "name": "account",
          "type": "address"
        }
      ],
      "name": "OwnableUnauthorizedAccount",
      "type": "error"
    },
    {
      "inputs": [],
      "name": "UUPSUnauthorizedCallContext",
      "type": "error"
    },
    {
      "inputs": [
        {
          "internalType": "bytes32",
          "name": "slot",
          "type": "bytes32"
        }
      ],
      "name": "UUPSUnsupportedProxiableUUID",
      "type": "error"
    },
    {
      "anonymous": false,
      "inputs": [
        {
          "indexed": false,
          "internalType": "address",
          "name": "user",
          "type": "address"
        }
      ],
      "name": "AddedToRandomList",
      "type": "event"
    },
    {
      "anonymous": false,
      "inputs": [
        {
          "indexed": false,
          "internalType": "uint64",
          "name": "version",
          "type": "uint64"
        }
      ],
      "name": "Initialized",
      "type": "event"
    },
    {
      "anonymous": false,
      "inputs": [
        {
          "indexed": true,
          "internalType": "address",
          "name": "previousOwner",
          "type": "address"
        },
        {
          "indexed": true,
          "internalType": "address",
          "name": "newOwner",
          "type": "address"
        }
      ],
      "name": "OwnershipTransferred",
      "type": "event"
    },
    {
      "anonymous": false,
      "inputs": [
        {
          "indexed": false,
          "internalType": "address",
          "name": "by",
          "type": "address"
        },
        {
          "indexed": false,
          "internalType": "address",
          "name": "to",
          "type": "address"
        },
        {
          "indexed": false,
          "internalType": "address",
          "name": "user",
          "type": "address"
        }
      ],
      "name": "ParentAdded",
      "type": "event"
    },
    {
      "anonymous": false,
      "inputs": [
        {
          "indexed": false,
          "internalType": "address",
          "name": "to",
          "type": "address"
        },
        {
          "indexed": false,
          "internalType": "address",
          "name": "user",
          "type": "address"
        },
        {
          "indexed": false,
          "internalType": "uint256",
          "name": "valueInWei",
          "type": "uint256"
        },
        {
          "indexed": false,
          "internalType": "uint32",
          "name": "level",
          "type": "uint32"
        }
      ],
      "name": "ReferralRewardsPaid",
      "type": "event"
    },
    {
      "anonymous": false,
      "inputs": [
        {
          "indexed": false,
          "internalType": "address",
          "name": "by",
          "type": "address"
        },
        {
          "indexed": false,
          "internalType": "address",
          "name": "user",
          "type": "address"
        }
      ],
      "name": "ReferrerAdded",
      "type": "event"
    },
    {
      "anonymous": false,
      "inputs": [
        {
          "indexed": false,
          "internalType": "string",
          "name": "reason",
          "type": "string"
        }
      ],
      "name": "ReferrerNoAdded",
      "type": "event"
    },
    {
      "anonymous": false,
      "inputs": [
        {
          "indexed": false,
          "internalType": "address",
          "name": "by",
          "type": "address"
        },
        {
          "indexed": false,
          "internalType": "address",
          "name": "to",
          "type": "address"
        },
        {
          "indexed": false,
          "internalType": "address",
          "name": "user",
          "type": "address"
        },
        {
          "indexed": false,
          "internalType": "uint256",
          "name": "valueInWei",
          "type": "uint256"
        }
      ],
      "name": "Registration",
      "type": "event"
    },
    {
      "anonymous": false,
      "inputs": [
        {
          "indexed": false,
          "internalType": "address",
          "name": "by",
          "type": "address"
        },
        {
          "indexed": false,
          "internalType": "address",
          "name": "to",
          "type": "address"
        },
        {
          "indexed": false,
          "internalType": "address",
          "name": "user",
          "type": "address"
        }
      ],
      "name": "RegistrationAssigned",
      "type": "event"
    },
    {
      "anonymous": false,
      "inputs": [
        {
          "indexed": false,
          "internalType": "address",
          "name": "user",
          "type": "address"
        }
      ],
      "name": "RemovedFromRandomList",
      "type": "event"
    },
    {
      "anonymous": false,
      "inputs": [
        {
          "indexed": false,
          "internalType": "address",
          "name": "to",
          "type": "address"
        },
        {
          "indexed": false,
          "internalType": "address",
          "name": "user",
          "type": "address"
        },
        {
          "indexed": false,
          "internalType": "uint32",
          "name": "level",
          "type": "uint32"
        }
      ],
      "name": "TeamAddressAdded",
      "type": "event"
    },
    {
      "anonymous": false,
      "inputs": [
        {
          "indexed": false,
          "internalType": "address",
          "name": "to",
          "type": "address"
        },
        {
          "indexed": false,
          "internalType": "uint256",
          "name": "valueInWei",
          "type": "uint256"
        }
      ],
      "name": "TeamWalletRewardPaid",
      "type": "event"
    },
    {
      "anonymous": false,
      "inputs": [
        {
          "indexed": false,
          "internalType": "string",
          "name": "reason",
          "type": "string"
        }
      ],
      "name": "UpgradeRewardNotPaid",
      "type": "event"
    },
    {
      "anonymous": false,
      "inputs": [
        {
          "indexed": false,
          "internalType": "address",
          "name": "to",
          "type": "address"
        },
        {
          "indexed": false,
          "internalType": "address",
          "name": "by",
          "type": "address"
        },
        {
          "indexed": false,
          "internalType": "uint256",
          "name": "valueInWei",
          "type": "uint256"
        }
      ],
      "name": "UpgradeRewardPaid",
      "type": "event"
    },
    {
      "anonymous": false,
      "inputs": [
        {
          "indexed": true,
          "internalType": "address",
          "name": "implementation",
          "type": "address"
        }
      ],
      "name": "Upgraded",
      "type": "event"
    },
    {
      "anonymous": false,
      "inputs": [
        {
          "indexed": false,
          "internalType": "string",
          "name": "reason",
          "type": "string"
        }
      ],
      "name": "WeeklyRewardNotPaid",
      "type": "event"
    },
    {
      "anonymous": false,
      "inputs": [
        {
          "indexed": false,
          "internalType": "address",
          "name": "to",
          "type": "address"
        },
        {
          "indexed": false,
          "internalType": "uint256",
          "name": "valueInWei",
          "type": "uint256"
        }
      ],
      "name": "WeeklyRewardPaid",
      "type": "event"
    },
    {
      "inputs": [],
      "name": "UPGRADE_INTERFACE_VERSION",
      "outputs": [
        {
          "internalType": "string",
          "name": "",
          "type": "string"
        }
      ],
      "stateMutability": "view",
      "type": "function"
    },
    {
      "inputs": [
        {
          "internalType": "address",
          "name": "_chainLinkOracleAddress",
          "type": "address"
        }
      ],
      "name": "checkIfChainLinkOracleAddressSupporeted",
      "outputs": [
        {
          "internalType": "bool",
          "name": "",
          "type": "bool"
        }
      ],
      "stateMutability": "view",
      "type": "function"
    },
    {
      "inputs": [
        {
          "internalType": "address",
          "name": "_chainLinkOracleAddress",
          "type": "address"
        }
      ],
      "name": "distributeWeeklyReward",
      "outputs": [],
      "stateMutability": "nonpayable",
      "type": "function"
    },
    {
      "inputs": [],
      "name": "getAllUsers",
      "outputs": [
        {
          "internalType": "address[]",
          "name": "",
          "type": "address[]"
        }
      ],
      "stateMutability": "view",
      "type": "function"
    },
    {
      "inputs": [],
      "name": "getContractDefaults",
      "outputs": [
        {
          "internalType": "address",
          "name": "teamWallet",
          "type": "address"
        },
        {
          "internalType": "uint256",
          "name": "teamWalletRate",
          "type": "uint256"
        },
        {
          "internalType": "address",
          "name": "liquidityWallet",
          "type": "address"
        },
        {
          "internalType": "uint256",
          "name": "liquidityCreationrate",
          "type": "uint256"
        },
        {
          "internalType": "address",
          "name": "defaultReferrer",
          "type": "address"
        },
        {
          "internalType": "uint256",
          "name": "registrationValueInUSD",
          "type": "uint256"
        }
      ],
      "stateMutability": "view",
      "type": "function"
    },
    {
      "inputs": [
        {
          "internalType": "address",
          "name": "_chainLinkOracleAddress",
          "type": "address"
        }
      ],
      "name": "getNativePriceInUSD",
      "outputs": [
        {
          "internalType": "uint256",
          "name": "",
          "type": "uint256"
        }
      ],
      "stateMutability": "view",
      "type": "function"
    },
    {
      "inputs": [],
      "name": "getRandomUserList",
      "outputs": [
        {
          "internalType": "address[]",
          "name": "",
          "type": "address[]"
        }
      ],
      "stateMutability": "view",
      "type": "function"
    },
    {
      "inputs": [],
      "name": "getRegistrationsStats",
      "outputs": [
        {
          "internalType": "uint32",
          "name": "totalUser",
          "type": "uint32"
        },
        {
          "internalType": "uint256",
          "name": "totalRegistrationValueInUSD",
          "type": "uint256"
        },
        {
          "internalType": "uint256",
          "name": "totalReferralPaidInUSD",
          "type": "uint256"
        },
        {
          "internalType": "uint256",
          "name": "totalWeeklyRewardsPaidInUSD",
          "type": "uint256"
        }
      ],
      "stateMutability": "view",
      "type": "function"
    },
    {
      "inputs": [],
      "name": "getSupportedChainLinkOracleAddress",
      "outputs": [
        {
          "internalType": "address[]",
          "name": "",
          "type": "address[]"
        }
      ],
      "stateMutability": "view",
      "type": "function"
    },
    {
      "inputs": [],
      "name": "getUpgradePlans",
      "outputs": [
        {
          "components": [
            {
              "internalType": "uint8",
              "name": "id",
              "type": "uint8"
            },
            {
              "internalType": "uint256",
              "name": "valueToUpgradeInUSD",
              "type": "uint256"
            }
          ],
          "internalType": "struct UpgradeStruct[]",
          "name": "upgradePlans",
          "type": "tuple[]"
        },
        {
          "internalType": "uint8",
          "name": "upgradePlansCount",
          "type": "uint8"
        }
      ],
      "stateMutability": "view",
      "type": "function"
    },
    {
      "inputs": [
        {
          "internalType": "uint8",
          "name": "_id",
          "type": "uint8"
        }
      ],
      "name": "getUpgradePlansById",
      "outputs": [
        {
          "components": [
            {
              "internalType": "uint8",
              "name": "id",
              "type": "uint8"
            },
            {
              "internalType": "uint256",
              "name": "valueToUpgradeInUSD",
              "type": "uint256"
            }
          ],
          "internalType": "struct UpgradeStruct",
          "name": "",
          "type": "tuple"
        }
      ],
      "stateMutability": "view",
      "type": "function"
    },
    {
      "inputs": [
        {
          "internalType": "address",
          "name": "_userAddress",
          "type": "address"
        }
      ],
      "name": "getUserAccount",
      "outputs": [
        {
          "components": [
            {
              "internalType": "address",
              "name": "self",
              "type": "address"
            },
            {
              "internalType": "address",
              "name": "parent",
              "type": "address"
            },
            {
              "internalType": "address",
              "name": "referrer",
              "type": "address"
            },
            {
              "internalType": "address[]",
              "name": "referee",
              "type": "address[]"
            },
            {
              "components": [
                {
                  "internalType": "address",
                  "name": "referee",
                  "type": "address"
                },
                {
                  "internalType": "address",
                  "name": "assignedTo",
                  "type": "address"
                }
              ],
              "internalType": "struct RefereeStruct[]",
              "name": "refereeAssigned",
              "type": "tuple[]"
            },
            {
              "components": [
                {
                  "internalType": "address",
                  "name": "teamMember",
                  "type": "address"
                },
                {
                  "internalType": "uint8",
                  "name": "level",
                  "type": "uint8"
                }
              ],
              "internalType": "struct TeamStruct[]",
              "name": "team",
              "type": "tuple[]"
            },
            {
              "internalType": "uint256",
              "name": "selfBusinessInUSD",
              "type": "uint256"
            },
            {
              "internalType": "uint256",
              "name": "upgradedValueInUSD",
              "type": "uint256"
            },
            {
              "internalType": "uint8",
              "name": "upgradeId",
              "type": "uint8"
            },
            {
              "internalType": "uint256",
              "name": "directBusinessInUSD",
              "type": "uint256"
            },
            {
              "internalType": "uint256",
              "name": "teamBusinessInUSD",
              "type": "uint256"
            },
            {
              "internalType": "uint256",
              "name": "referralRewardsInUSD",
              "type": "uint256"
            },
            {
              "internalType": "uint256",
              "name": "weeklyRewardsInUSD",
              "type": "uint256"
            },
            {
              "internalType": "uint256",
              "name": "upgradeRewardsInUSD",
              "type": "uint256"
            },
            {
              "internalType": "uint256",
              "name": "userRandomIndex",
              "type": "uint256"
            }
          ],
          "internalType": "struct AccountStruct",
          "name": "",
          "type": "tuple"
        }
      ],
      "stateMutability": "view",
      "type": "function"
    },
    {
      "inputs": [
        {
          "internalType": "address",
          "name": "_userAddress",
          "type": "address"
        }
      ],
      "name": "getUserBusiness",
      "outputs": [
        {
          "internalType": "uint256",
          "name": "selfBusinessInUSD",
          "type": "uint256"
        },
        {
          "internalType": "uint256",
          "name": "directBusinessInUSD",
          "type": "uint256"
        },
        {
          "internalType": "uint256",
          "name": "teamBusinessInUSD",
          "type": "uint256"
        },
        {
          "internalType": "uint256",
          "name": "totalBusinessInUSD",
          "type": "uint256"
        }
      ],
      "stateMutability": "view",
      "type": "function"
    },
    {
      "inputs": [
        {
          "internalType": "address",
          "name": "_userAddress",
          "type": "address"
        }
      ],
      "name": "getUserCurrentUpgradeLevel",
      "outputs": [
        {
          "internalType": "uint8",
          "name": "level",
          "type": "uint8"
        },
        {
          "internalType": "uint256",
          "name": "totalUpgradeValueInUSD",
          "type": "uint256"
        }
      ],
      "stateMutability": "view",
      "type": "function"
    },
    {
      "inputs": [
        {
          "internalType": "address",
          "name": "_userAddress",
          "type": "address"
        }
      ],
      "name": "getUserRewards",
      "outputs": [
        {
          "internalType": "uint256",
          "name": "referralRewardInUSD",
          "type": "uint256"
        },
        {
          "internalType": "uint256",
          "name": "weeklyRewardInUSD",
          "type": "uint256"
        },
        {
          "internalType": "uint256",
          "name": "upgradeRewardsInUSD",
          "type": "uint256"
        },
        {
          "internalType": "uint256",
          "name": "totalRewards",
          "type": "uint256"
        }
      ],
      "stateMutability": "view",
      "type": "function"
    },
    {
      "inputs": [
        {
          "internalType": "address",
          "name": "_userAddress",
          "type": "address"
        }
      ],
      "name": "getUserTeam",
      "outputs": [
        {
          "internalType": "address",
          "name": "referrer",
          "type": "address"
        },
        {
          "internalType": "address[]",
          "name": "referees",
          "type": "address[]"
        },
        {
          "internalType": "uint256",
          "name": "refereeCount",
          "type": "uint256"
        },
        {
          "components": [
            {
              "internalType": "address",
              "name": "referee",
              "type": "address"
            },
            {
              "internalType": "address",
              "name": "assignedTo",
              "type": "address"
            }
          ],
          "internalType": "struct RefereeStruct[]",
          "name": "refereeAssigned",
          "type": "tuple[]"
        },
        {
          "internalType": "uint256",
          "name": "refereeAssignedCount",
          "type": "uint256"
        },
        {
          "components": [
            {
              "internalType": "address",
              "name": "teamMember",
              "type": "address"
            },
            {
              "internalType": "uint8",
              "name": "level",
              "type": "uint8"
            }
          ],
          "internalType": "struct TeamStruct[]",
          "name": "team",
          "type": "tuple[]"
        },
        {
          "internalType": "uint256",
          "name": "teamCount",
          "type": "uint256"
        }
      ],
      "stateMutability": "view",
      "type": "function"
    },
    {
      "inputs": [],
      "name": "getWeeklyRewardToBeDistributed",
      "outputs": [
        {
          "internalType": "uint256",
          "name": "_rewardValue",
          "type": "uint256"
        },
        {
          "internalType": "uint256",
          "name": "_remianingTime",
          "type": "uint256"
        },
        {
          "internalType": "uint256",
          "name": "_endTime",
          "type": "uint256"
        }
      ],
      "stateMutability": "view",
      "type": "function"
    },
    {
      "inputs": [],
      "name": "initialize",
      "outputs": [],
      "stateMutability": "nonpayable",
      "type": "function"
    },
    {
      "inputs": [
        {
          "internalType": "address",
          "name": "_chainLinkOracleAddress",
          "type": "address"
        }
      ],
      "name": "needNativeToRegister",
      "outputs": [
        {
          "internalType": "uint256",
          "name": "",
          "type": "uint256"
        }
      ],
      "stateMutability": "view",
      "type": "function"
    },
    {
      "inputs": [],
      "name": "owner",
      "outputs": [
        {
          "internalType": "address",
          "name": "",
          "type": "address"
        }
      ],
      "stateMutability": "view",
      "type": "function"
    },
    {
      "inputs": [],
      "name": "proxiableUUID",
      "outputs": [
        {
          "internalType": "bytes32",
          "name": "",
          "type": "bytes32"
        }
      ],
      "stateMutability": "view",
      "type": "function"
    },
    {
      "inputs": [
        {
          "internalType": "address",
          "name": "_referrer",
          "type": "address"
        },
        {
          "internalType": "address",
          "name": "_chainLinkOracleAddress",
          "type": "address"
        }
      ],
      "name": "registrationNative",
      "outputs": [],
      "stateMutability": "payable",
      "type": "function"
    },
    {
      "inputs": [],
      "name": "renounceOwnership",
      "outputs": [],
      "stateMutability": "nonpayable",
      "type": "function"
    },
    {
      "inputs": [
        {
          "internalType": "address",
          "name": "_chainLinkOracleAddress",
          "type": "address"
        },
        {
          "internalType": "bool",
          "name": "_status",
          "type": "bool"
        }
      ],
      "name": "setChainLinkOracleAddress",
      "outputs": [],
      "stateMutability": "nonpayable",
      "type": "function"
    },
    {
      "inputs": [
        {
          "internalType": "address",
          "name": "newOwner",
          "type": "address"
        }
      ],
      "name": "transferOwnership",
      "outputs": [],
      "stateMutability": "nonpayable",
      "type": "function"
    },
    {
      "inputs": [
        {
          "internalType": "uint256[]",
          "name": "_valueToUpgradeInDecimals",
          "type": "uint256[]"
        }
      ],
      "name": "updateUpgradePlans",
      "outputs": [],
      "stateMutability": "nonpayable",
      "type": "function"
    },
    {
      "inputs": [
        {
          "internalType": "address",
          "name": "_chainLinkOracleAddress",
          "type": "address"
        }
      ],
      "name": "upgradeAccountNative",
      "outputs": [],
      "stateMutability": "payable",
      "type": "function"
    },
    {
      "inputs": [
        {
          "internalType": "address",
          "name": "newImplementation",
          "type": "address"
        },
        {
          "internalType": "bytes",
          "name": "data",
          "type": "bytes"
        }
      ],
      "name": "upgradeToAndCall",
      "outputs": [],
      "stateMutability": "payable",
      "type": "function"
    },
    {
      "stateMutability": "payable",
      "type": "receive"
    }
  ],
  "bytecode": "0x60a0806040523460295730608052612fcf908161002f823960805181818161209401526121670152f35b600080fdfe608080604052600436101561001d575b50361561001b57600080fd5b005b60003560e01c9081630690c6a81461256b57508063078b0fb71461250c57806307c560d11461243057806308e922ba146123cd57806311f4d5761461238e5780631a7463441461232b5780634f1ef286146120eb57806352d1902d1461208157806359a0454414611f145780635eda81ce14611cd25780636a74631114611cac578063715018a614611c545780637ec37e0314611bf15780638129fc1c1461178c578063846688f71461172b5780638da5cb5b146116f5578063a0db38e514611378578063a9df9fae1461130b578063ad3cb1cc1461128f578063c53b219e14610892578063d277b8a914610619578063e2842d79146105e9578063e35422e7146104e5578063f2fde38b146104bc578063f87127b41461043f578063f9250171146103d9578063faeda7e5146103295763fb47e0161461015e573861000f565b34610324576020366003190112610324576101776125a6565b60006101c060405161018881612614565b82815282602082015282604082015260608082015260606080820152606060a08201528260c08201528260e08201528261010082015282610120820152826101408201528261016082015282610180820152826101a0820152015260018060a01b031660005260126020526102006040600020612772565b60408051602080825283516001600160a01b039081168284015284820151811683850152928401519092166060808301919091528301516101e06080830152805161020083018190526102208301949293919091019060005b818110610305575050506101c061029a61028484956080850151601f198783030160a088015261266e565b60a0840151858203601f190160c08701526126ba565b9160c081015160e085015260e081015161010085015260ff610100820151166101208501526101208101516101408501526101408101516101608501526101608101516101808501526101808101516101a08501526101a08101518285015201516101e08301520390f35b82516001600160a01b0316865260209586019590920191600101610259565b600080fd5b34610324576020366003190112610324576001600160a01b0361034a6125a6565b1660005260126020526103606040600020612772565b60018060a01b036040820151166060820151916103cf8351916080810151926103bc60a08551930151918251956103a9604051998a998a5260e060208b015260e08a01906125bc565b916040890152878203606089015261266e565b91608086015284820360a08601526126ba565b9060c08301520390f35b346103245760203660031901126103245760406103f46125a6565b6001600160a01b03166000908152601260205281812061041390612772565b60ff6101008201511680610436575b5060e0015160ff8351921682526020820152f35b915060e0610422565b34610324576020366003190112610324576001600160a01b036104606125a6565b1660005260126020526104766040600020612772565b60c08101516104b86101406101208401519301516104948382612967565b90604051948594859094939260609260808301968352602083015260408201520152565b0390f35b346103245760203660031901126103245761001b6104d86125a6565b6104e0612c7f565b612b14565b34610324576020366003190112610324576004356001600160401b03811161032457366023820112156103245760048101356001600160401b038111610324573660248260051b84010111610324579061053d612c7f565b6000915b60ff8316928184101561001b5761055781612a83565b6000946024611fe08460051b168601013590670de0b6b3a7640000820291808304670de0b6b3a764000014901517156105d5579060ff8060406105ce979899600195838351986105a68a6125f9565b1688526020880195865281526013602052209451161660ff1984541617835551910155612a72565b9190610541565b634e487b7160e01b87526011600452602487fd5b34610324576000366003190112610324576104b8610605612706565b6040519182916020835260208301906125bc565b34610324576020366003190112610324576106326125a6565b6001600160a01b03811660009081526014602052604090205461065c9060ff161515600114612a95565b670de0b6b3a764000061067a61067460095493612b78565b83612974565b04600b5462093a8081018091116107f857421061084e57811561080e5761069f612706565b60001943014381116107f8576106f4906040516106d5816106c7602082019440444287612ada565b03601f198101835282612630565b51902082516001600160a01b0393916106ee9190612aef565b906129c0565b5116918215610781576000808080938682526012602052600c604083200161071d878254612967565b90558682f115610775577f6dbdd944bdf6514aca26947d204530e2ecbea365677ef05fee7a56d54a14569791600060095542600b5561075e82600554612967565b60055561077060405192839283612af9565b0390a1005b6040513d6000823e3d90fd5b5050507f974c744afa915921dddb0f53fdbfdd97fef12a94db2457dcf878aa94ad687274608060405160208152603160208201527f52616e646f6d206164647265737320776173207a65726f20616464726573732e60408201527010283632b0b9b2903a393c9030b3b0b4b760791b6060820152a1005b634e487b7160e01b600052601160045260246000fd5b60405162461bcd60e51b81526020600482015260186024820152774e6f207265776172647320746f206469737472696275746560401b6044820152606490fd5b60405162461bcd60e51b815260206004820152601c60248201527b2bb2b2b5b63c903a34b6b29034b9903737ba1037bb32b9103cb2ba1760211b6044820152606490fd5b6040366003190112610324576108a66125a6565b6024356001600160a01b03811691828203610324576001600160a01b031691821561123e576000526014602052600160ff604060002054161515036111ed576108ee90612b78565b670de0b6b3a76400006109018234612974565b0490600f54605f810290808204605f14901517156107f85760649004821061119957600c549260ff8460081c169133600052601260205260406000209180600052601260205260406000206006840190815461115a5760068101541561111f5784546001600160a01b03161561110a575b80546001600160a01b0316156110f4575b508054156110a8575b610997868254612967565b90556109aa6109a584612772565b612d8a565b61104a573360005260126020526040600020903381146110085760409060009081526012602052206109e36109de82612772565b612d05565b610e74576109f18282612e68565b6109fe3360038301612a4f565b610a0a6109de82612772565b610e66575b6001820180546001600160a01b031615610dfe575b505060ff600c5460081c16906000905b8260ff831610610cde575b5050505b670de0b6b3a7640000610ac66064610abe60ff60018060a01b03600188015416997f0411c58b3c1e8a39d91c901e5c807bff1401650beedc45aba65112756bb929b460808c60018060a01b0360028c01541660018060a01b038c541690604051928352602083015260408201528c6060820152a11634612974565b049283612974565b04946000526012602052604060002060018060a01b0381541680610c4f575b5050506000905b8260ff831610610c01575b50505060065460008080806064610b1460ff8760a01c1634612974565b04809582908215610bf7575b6001600160a01b031690f11561077557610b89927f5aa75bdb3269082e844d731608afae2a07cbf194f251e3f857b870af86b754fb610b7e9260018060a01b0360065416610b7360405192839283612af9565b0390a1600354612967565b600355600254612967565b6002556064610b9d60ff6008541634612974565b0460008080808460018060a01b0360105416828215610bee575bf11561077557610bc990600754612967565b600755610be96064610be060ff600a541634612974565b04600954612967565b600955005b506108fc610bb7565b6108fc9150610b20565b610c0d6109a582612772565b15610c4a57600260018060a01b0391015416600052601260205260ff60016040600020600a8101610c3f878254612967565b905592011690610aec565b610af7565b60008080858194828215610cd5575bf115610775577f153f77382d7e07de734977ae352e9b1f5f8ad4b1c0033c883a9a33456a87836f608060099360018060a01b0384541690604051918252336020830152604082015260016060820152a1600b8101610cbd878254612967565b905501610ccb848254612967565b9055848080610ae5565b506108fc610c5e565b600201546001600160a01b03168015610df9576000526012602052604060002060058101610d0b83612a83565b9160405191610d19836125f9565b33835260ff60208401941684528054600160401b811015610de357610d43916001820181556129ef565b610dcd579151825493516001600160a81b03199094166001600160a01b039182161760a09490941b60ff60a01b1693909317909155805460ff92600192917f85db3f10b88ea7fc653f3f818097a3fc3c543196ed60cad2251df922bcc9ad7f916060911685610db188612a83565b604051928352336020840152166040820152a192011690610a34565b634e487b7160e01b600052600060045260246000fd5b634e487b7160e01b600052604160045260246000fd5b610a3f565b905481546001600160a01b0319166001600160a01b0391821690811790925560028301546040517f8efa008f8ae98ae30d3219078a298c85bc25a62f50c57ed9a3ec838b7eed9f479390928392610e5c923392919091169084612da1565b0390a18680610a24565b610e6f81612dc4565b610a0f565b610e7d81612dc4565b60001943014381116107f857610eb4610eb991604051610ea8816106c7602082019440444287612ada565b51902060015490612aef565b6129d4565b60018060a01b0391549060031b1c1660005260126020526040600020610edf8382612e68565b610eeb6109de82612772565b610ffa575b815481546040516001600160a01b0391821693927fa1b30426557565c4fa85ce5f9c88513d7d3f49d21eb30569c249b07b037831ef928291610f3791339188911684612da1565b0390a160405160048401610f4a826125f9565b33825260208201938452805493600160401b851015610de35760018501808355851015610fe457600091825260209091209151600194851b90920180546001600160a01b039384166001600160a01b0319918216178255915194018054949092169316929092179091556006830154610e6f919015610fce575b6003339101612a4f565b610fdf610fda85612772565b612d34565b610fc4565b634e487b7160e01b600052603260045260246000fd5b61100381612dc4565b610ef0565b60405162461bcd60e51b815260206004820152601a6024820152792cb7ba9031b0b73737ba103932b332b9103cb7bab939b2b6331760311b6044820152606490fd5b507f1f4fff38c5e64af9e759d590409f022ea913658008bb1d0cd35e028244f01ecf606060405160208152601f60208201527f5573657220416c72656164792068617665207265666572726572207365742e006040820152a1610a43565b600054600160401b811015610de3576110cc8160016110d3930160005560006129ef565b3391612a07565b6110df6109de85612772565b61098c576110ef610fda85612772565b61098c565b80546001600160a01b0319168317905587610983565b84546001600160a01b03191633178555610972565b60405162461bcd60e51b81526020600482015260136024820152725265666572726572204e6f742041637469766560681b6044820152606490fd5b60405162461bcd60e51b8152602060048201526017602482015276155cd95c88185b1c9958591e481c9959da5cdd195c9959604a1b6044820152606490fd5b60405162461bcd60e51b815260206004820152602660248201527f56616c7565206973206c657373207468656e20726567697374726174696f6e206044820152653b30b63ab29760d11b6064820152608490fd5b60405162461bcd60e51b815260206004820152602360248201527f43757272656e637920596f752073656c6563746564206e6f7420737570706f726044820152621d195960ea1b6064820152608490fd5b60405162461bcd60e51b815260206004820152602360248201527f5a65726f20416464726573732063616e6e6f74206265207468652072656665726044820152623932b960e91b6064820152608490fd5b346103245760003660031901126103245760408051906112af8183612630565b60058252640352e302e360dc1b6020830152805180926020825280519081602084015260005b8281106112f45750506000828201840152601f01601f19168101030190f35b6020828201810151878301870152869450016112d5565b346103245760203660031901126103245760043560ff8116809103610324576113326129a7565b506000526013602052604080600020600182519161134f836125f9565b60ff815416835201546020820152611376825180926020809160ff81511684520151910152565bf35b602036600319011261032457670de0b6b3a76400006113d06113ca61139b6125a6565b6001600160a01b0381166000908152601460205260409020546113c59060ff161515600114612a95565b612b78565b34612974565b0433600052601260205260406000206008810160ff8154166000526013602052604060002090600160405192611405846125f9565b60ff815416845201546020830190808252156116b0578051605f810290808204605f14901517156107f857606490048511908115611690575b501561163c5760ff80809360078601611458888254612967565b9055511616821982541617815554169160009260001981019260ff8085119416905b8286111561148457005b600201546001600160a01b03166000908152601260205260409020846107f8578186146114be579460001981146107f8576001019461147a565b80955060ff929394506008915001541690808211918215611632575b50508061161f575b1561154f576114f6600d8301918254612967565b9055600080808060018060a01b0385541681903415611545575b3491f1156107755754604051600080516020612f8383398151915291819061077090349033906001600160a01b031684612cb5565b6108fc9150611510565b50507f6696b78fc1713892e6e2bb3df5cdc986ab67a0c675898c7ef535bd2201ca9451608060405160208152603f60208201527f55706c696e6520686173206e6f742075706772616465642e20416d6f756e742060408201527f7472616e73666572656420746f206c69717569646974792077616c6c65742e006060820152a16010546001600160a01b031660003415611616575b600080808093853491f11561077557610770600080516020612f83833981519152916040519182913490339084612cb5565b506108fc6115e4565b5081546001600160a01b031615156114e2565b14905083806114da565b60405162461bcd60e51b815260206004820152602660248201527f56616c75652073686f756c6420626520657175616c20746f20757067726164656044820152652076616c756560d01b6064820152608490fd5b516069808202925081159183041417156107f8576064900484108561143e565b60405162461bcd60e51b815260206004820152601d60248201527f596f75206861766520757067726164656420616c6c206c6576656c732e0000006044820152606490fd5b3461032457600036600319011261032457600080516020612f23833981519152546040516001600160a01b039091168152602090f35b34610324576000366003190112610324576000600954600b549162093a808301928381116107f857428411611772575b509160609260405192835260208301526040820152f35b62093a80915042900301918083116107f85791606061175b565b3461032457600036600319011261032457600080516020612fa383398151915254604081901c60ff1615906001600160401b03811680159081611be9575b6001149081611bdf575b159081611bd6575b50611bc5576001600160401b03198116600117600080516020612fa38339815191525581611b9c575b50600e805473cef5767039fa6a66016b802546f123e0c3ddedc26001600160a01b03199182168117909255600082905260126020527f7b58f54f0bc0fcd57e50c233f450fe384adf8c88021dbbeef24b87de22945c1480548216831790557f7b58f54f0bc0fcd57e50c233f450fe384adf8c88021dbbeef24b87de22945c1580549091168217905569152d02c7e14af68000007f7b58f54f0bc0fcd57e50c233f450fe384adf8c88021dbbeef24b87de22945c1a556118c390612a2a565b601154600160401b811015610de3578060016118e4920160115560116129ef565b81546001600160a01b0360039290921b91821b1916730567f2323251f0aab15c8dfb1967e4e8a7d42aee90911b179055601154600160401b811015610de357806001611935920160115560116129ef565b81546001600160a01b0360039290921b91821b1916739c85f470f9ba23dfc4fe9531933c2ce2c1739c399182901b1790915560146020527f18b399276171edd4288c75706c059c76f8ba27a208f6ab7dc13ddac4a813eb06805460ff1990811660019081179092556000929092527f785e316b530d6f09805cf52ec6944c1fd91d7cf1ffa292231399b4110cc5ca9d80548316909117905568015af1d78b58c40000600f55600c805461ffff191661083c1790556002600d55600680546001600160a81b0319167414554f58fcfcef95f82c8cf6ed9e51e5c79e3414811790556008805482166010908117909155600a805490921660041790915542600b5580546001600160a01b031916733d7263afa42c9d47c13cfcdcdc72a131077e561817905560405160e081016001600160401b03811182821017610de3576040526801158e460913d0000081526801a055690d9db8000060208201526802b5e3af16b188000060408201526809c2007651b250000060608201526815af1d78b58c400000608082015268281d901f4fdd10000060a0820152684fb0591b9b3038000060c082015260005b60ff8116906007821015611b2057611b1b916001611afa83612a83565b9160ff8060406000611fe08860051b168a015194838351986105a68a6125f9565b611add565b83611b29612cd7565b611b31612cd7565b611b3a33612b14565b611b42612cd7565b611b4857005b60ff60401b19600080516020612fa38339815191525416600080516020612fa3833981519152557fc7f505b2f371ae2175ee4913f4499e1f2633a7b5936321eed1cdaeb6115181d2602060405160018152a1005b6001600160481b0319166001600160401b0117600080516020612fa38339815191525581611805565b63f92ee8a960e01b60005260046000fd5b905015836117dc565b303b1591506117d4565b8391506117ca565b34610324576000366003190112610324576040516001548082526020820190600160005260206000209060005b818110611c35576104b88561060581870382612630565b82546001600160a01b0316845260209093019260019283019201611c1e565b3461032457600036600319011261032457611c6d612c7f565b600080516020612f2383398151915280546001600160a01b031981169091556000906001600160a01b0316600080516020612f638339815191528280a3005b34610324576020366003190112610324576020611cca6113c56125a6565b604051908152f35b3461032457604036600319011261032457611ceb6125a6565b60243580151580910361032457611d00612c7f565b6001600160a01b03821660008181526014602052604090205490919060ff1615158114611eda57600190826000526014602052604060002060ff1981541660ff831617905514600014611d79575060115490600160401b821015610de357611d7382600161001b940160115560116129ef565b90612a07565b90506040516011548082528160208101601160005260206000209260005b818110611eb8575050611dac92500382612630565b805160005b818110611dba57005b836001600160a01b03611dcd83866129c0565b511614611ddd575b600101611db1565b60001982018281116107f8576001600160a01b0390611dfc90856129c0565b51166000601154831015611ea4576011908190527f31ecc21a745e3968a04e9570e4425bc18fa8019c68028196b546d1669c200c68830180546001600160a01b0319166001600160a01b03909316929092179091555460008115611e9057506001919060001901611e86611e718260116129ef565b81549060018060a01b039060031b1b19169055565b6011559050611dd5565b634e487b7160e01b81526031600452602490fd5b634e487b7160e01b81526032600452602490fd5b84546001600160a01b0316835260019485019486945060209093019201611d97565b60405162461bcd60e51b815260206004820152601260248201527114dd185d1d5cc8185b1c9958591e481cd95d60721b6044820152606490fd5b346103245760003660031901126103245760ff6000805b8282166032811015612079576000526013602052826040600020541615611f61576001611f588492612a72565b92011690611f2b565b90505b16611f6e8161275b565b90611f7c6040519283612630565b808252601f19611f8b8261275b565b0160005b81811061205457505060005b60ff811682811015611ff25760ff91611fea82600193600052601360205260406000208460405191611fcc836125f9565b87815416835201546020820152611fe382896129c0565b52866129c0565b500116611f9b565b828460405190604082019260408352815180945260206060840192016000945b80861061202757505082935060208301520390f35b9092602060408261204860019488516020809160ff81511684520151910152565b01940195019490612012565b602090604051612063816125f9565b6000815260008382015282828701015201611f8f565b509050611f64565b34610324576000366003190112610324577f00000000000000000000000000000000000000000000000000000000000000006001600160a01b031630036120da576020604051600080516020612f438339815191528152f35b63703e46dd60e11b60005260046000fd5b6040366003190112610324576120ff6125a6565b602435906001600160401b03821161032457366023830112156103245781600401359061212b82612653565b916121396040519384612630565b8083526020830193366024838301011161032457816000926024602093018737840101526001600160a01b037f000000000000000000000000000000000000000000000000000000000000000016308114908115612308575b506120da5761219f612c7f565b6040516352d1902d60e01b81526001600160a01b0382169390602081600481885afa600091816122d4575b506121e45784634c9c8ce360e01b60005260045260246000fd5b80600080516020612f438339815191528692036122c05750823b156122ac57600080516020612f4383398151915280546001600160a01b031916821790557fbc7cd75a20ee27fd9adebab32041f755214dbc6bffa90cc0225b39da2e5c2d3b600080a2825115612291576000809161001b945190845af43d15612289573d9161226c83612653565b9261227a6040519485612630565b83523d6000602085013e612ec1565b606091612ec1565b5050503461229b57005b63b398979f60e01b60005260046000fd5b634c9c8ce360e01b60005260045260246000fd5b632a87526960e21b60005260045260246000fd5b9091506020813d602011612300575b816122f060209383612630565b81010312610324575190866121ca565b3d91506122e3565b600080516020612f43833981519152546001600160a01b03161415905084612192565b3461032457600036600319011261032457600654601054600854600e54600f54604080516001600160a01b03808816825260a097881c60ff908116602084015296811692820192909252939094166060840152921660808201529182015260c090f35b34610324576020366003190112610324576001600160a01b036123af6125a6565b166000526014602052602060ff604060002054166040519015158152f35b34610324576000366003190112610324576040516011548082526020820190601160005260206000209060005b818110612411576104b88561060581870382612630565b82546001600160a01b03168452602090930192600192830192016123fa565b34610324576020366003190112610324576124496125a6565b60018060a01b0381166000526014602052600160ff604060002054161515036124a657600f5490670de0b6b3a7640000820291808304670de0b6b3a764000014901517156107f8576020916124a0611cca92612b78565b90612987565b60405162461bcd60e51b815260206004820152603860248201527f506c6561736520636865636b2074686520636861696e4c696e6b4f7261636c656044820152771059191c995cdcc81bdc881b9bdd081cdd5c1c1bdc9d195960421b6064820152608490fd5b34610324576020366003190112610324576001600160a01b0361252d6125a6565b1660005260126020526125436040600020612772565b6101608101516104b86101a0610180840151930151610494816125668686612967565b612967565b346103245760003660031901126103245760809063ffffffff6000541660025460035490600554928452602084015260408301526060820152f35b600435906001600160a01b038216820361032457565b906020808351928381520192019060005b8181106125da5750505090565b82516001600160a01b03168452602093840193909201916001016125cd565b604081019081106001600160401b03821117610de357604052565b6101e081019081106001600160401b03821117610de357604052565b601f909101601f19168101906001600160401b03821190821017610de357604052565b6001600160401b038111610de357601f01601f191660200190565b906020808351928381520192019060005b81811061268c5750505090565b825180516001600160a01b03908116865260209182015116818601526040909401939092019160010161267f565b906020808351928381520192019060005b8181106126d85750505090565b825180516001600160a01b0316855260209081015160ff1681860152604090940193909201916001016126cb565b6040519060005480835282602081016000805260206000209260005b81811061273957505061273792500383612630565b565b84546001600160a01b0316835260019485019487945060209093019201612722565b6001600160401b038111610de35760051b60200190565b9060405161277f81612614565b809260018060a01b03815416825260018060a01b03600182015416602083015260018060a01b036002820154166040830152600381016040519081815491828252602082019060005260206000209260005b8181106129455750506127e692500382612630565b60608301526004810180546127fa8161275b565b916128086040519384612630565b818352602083019060005260206000206000915b83831061290a5750505050608083015260058101805461283b8161275b565b916128496040519384612630565b818352602083019060005260206000206000915b8383106128d457505050506101c091600e9160a0850152600681015460c0850152600781015460e085015260ff6008820154166101008501526009810154610120850152600a810154610140850152600b810154610160850152600c810154610180850152600d8101546101a08501520154910152565b6001602081926040516128e6816125f9565b60ff8654858060a01b038116835260a01c168382015281520192019201919061285d565b6002602060019260405161291d816125f9565b848060a01b038654168152848060a01b0385870154168382015281520192019201919061281c565b84546001600160a01b03168352600194850194869450602090930192016127d1565b919082018092116107f857565b818102929181159184041417156107f857565b8115612991570490565b634e487b7160e01b600052601260045260246000fd5b604051906129b4826125f9565b60006020838281520152565b8051821015610fe45760209160051b010190565b600154811015610fe457600160005260206000200190600090565b8054821015610fe45760005260206000200190600090565b80546001600160a01b0360039390931b83811b199091169290931690921b179055565b60015490600160401b821015610de357611d73826001612737940160015560016129ef565b80549190600160401b831015610de35782611d73916001612737950181556129ef565b60ff1660ff81146107f85760010190565b60ff60019116019060ff82116107f857565b15612a9c57565b60405162461bcd60e51b815260206004820152601660248201527510dd5c9c995b98de481b9bdd081cdd5c1c1bdc9d195960521b6044820152606490fd5b91606093918352602083015260408201520190565b8115612991570690565b6001600160a01b039091168152602081019190915260400190565b6001600160a01b03168015612b6257600080516020612f2383398151915280546001600160a01b0319811683179091556001600160a01b0316600080516020612f63833981519152600080a3565b631e4fbdf760e01b600052600060045260246000fd5b6040516350d25bcd60e01b8152906001600160a01b0316602082600481845afa91821561077557600092612c4a575b5060206004916040519283809263313ce56760e01b82525afa90811561077557600091612c06575b5060ff1690670de0b6b3a7640000908181029181830414901517156107f857604d82116107f857612c0391600a0a90612987565b90565b6020813d602011612c42575b81612c1f60209383612630565b81010312612c3e57519060ff82168203612c3b575060ff612bcf565b80fd5b5080fd5b3d9150612c12565b90916020823d602011612c77575b81612c6560209383612630565b81010312612c3b575051906020612ba7565b3d9150612c58565b600080516020612f23833981519152546001600160a01b03163303612ca057565b63118cdaa760e01b6000523360045260246000fd5b6001600160a01b03918216815291166020820152604081019190915260600190565b60ff600080516020612fa38339815191525460401c1615612cf457565b631afcd79f60e31b60005260046000fd5b906060600092015151600d54808211918215612d2a575b5050612d2457565b60019150565b1490503880612d1c565b6001546101c082015280517f06baf10092c7ea144c4fb56fb8cf641e1f00e291a535b5d54b547eadb29485a791602091612d76906001600160a01b0316612a2a565b516040516001600160a01b039091168152a1565b60400151600091906001600160a01b0316612d2457565b6001600160a01b0391821681529181166020830152909116604082015260600190565b60015460001981019081116107f857612ddf612dfb916129d4565b60018060a01b0391549060031b1c16611d73600e8401546129d4565b6001548015612e52577f644b85583ba83e73113ffc0c122b165819ca11db493cd4cc38f5ba29138ffa1b9160209160001901612e3b611e718260016129ef565b600155546040516001600160a01b039091168152a1565b634e487b7160e01b600052603160045260246000fd5b80546002830180546001600160a01b0319166001600160a01b0392831617905590549154604080519383168452911660208301527fec49a3c8c4ae06c18160fe86119c381c9d213ac3e052ff35b594da8687b193c791a1565b90612ee75750805115612ed657805190602001fd5b63d6bda27560e01b60005260046000fd5b81511580612f19575b612ef8575090565b639996b31560e01b60009081526001600160a01b0391909116600452602490fd5b50803b15612ef056fe9016d09d72d40fdae2fd8ceac6b6234c7706214fd39c1cd1e609a0528c199300360894a13ba1a3210667c828492db98dca3e2076cc3735a920a3ca505d382bbc8be0079c531659141344cd1fd0a4f28419497f9722a3daafe3b4186f6b6457e0b37800f632235e56e1626c9e9df3de1e167e9298f0d25f59fd74ec65e3111652f0c57e16840df040f15088dc2f81fe391c3923bec73e23a9662efc9c229c6a00a164736f6c634300081a000a",
  "linkReferences": {},
  "deployedLinkReferences": {}
}