{
  "_format": "hh-sol-artifact-1",
  "contractName": "RegistrationUpgradeable",
  "sourceName": "contracts/RegistrationUpgradeable.sol",
  "abi": [
    {
      "inputs": [
        {
          "internalType": "address",
          "name": "target",
          "type": "address"
        }
      ],
      "name": "AddressEmptyCode",
      "type": "error"
    },
    {
      "inputs": [
        {
          "internalType": "address",
          "name": "implementation",
          "type": "address"
        }
      ],
      "name": "ERC1967InvalidImplementation",
      "type": "error"
    },
    {
      "inputs": [],
      "name": "ERC1967NonPayable",
      "type": "error"
    },
    {
      "inputs": [],
      "name": "FailedCall",
      "type": "error"
    },
    {
      "inputs": [],
      "name": "InvalidInitialization",
      "type": "error"
    },
    {
      "inputs": [],
      "name": "NotInitializing",
      "type": "error"
    },
    {
      "inputs": [
        {
          "internalType": "address",
          "name": "owner",
          "type": "address"
        }
      ],
      "name": "OwnableInvalidOwner",
      "type": "error"
    },
    {
      "inputs": [
        {
          "internalType": "address",
          "name": "account",
          "type": "address"
        }
      ],
      "name": "OwnableUnauthorizedAccount",
      "type": "error"
    },
    {
      "inputs": [],
      "name": "UUPSUnauthorizedCallContext",
      "type": "error"
    },
    {
      "inputs": [
        {
          "internalType": "bytes32",
          "name": "slot",
          "type": "bytes32"
        }
      ],
      "name": "UUPSUnsupportedProxiableUUID",
      "type": "error"
    },
    {
      "anonymous": false,
      "inputs": [
        {
          "indexed": false,
          "internalType": "address",
          "name": "user",
          "type": "address"
        }
      ],
      "name": "AddedToRandomList",
      "type": "event"
    },
    {
      "anonymous": false,
      "inputs": [
        {
          "indexed": false,
          "internalType": "address",
          "name": "defaultReferrer",
          "type": "address"
        }
      ],
      "name": "DefaultReferrerUpdated",
      "type": "event"
    },
    {
      "anonymous": false,
      "inputs": [
        {
          "indexed": false,
          "internalType": "uint64",
          "name": "version",
          "type": "uint64"
        }
      ],
      "name": "Initialized",
      "type": "event"
    },
    {
      "anonymous": false,
      "inputs": [
        {
          "indexed": true,
          "internalType": "address",
          "name": "previousOwner",
          "type": "address"
        },
        {
          "indexed": true,
          "internalType": "address",
          "name": "newOwner",
          "type": "address"
        }
      ],
      "name": "OwnershipTransferred",
      "type": "event"
    },
    {
      "anonymous": false,
      "inputs": [
        {
          "indexed": false,
          "internalType": "address",
          "name": "by",
          "type": "address"
        },
        {
          "indexed": false,
          "internalType": "address",
          "name": "to",
          "type": "address"
        },
        {
          "indexed": false,
          "internalType": "address",
          "name": "user",
          "type": "address"
        }
      ],
      "name": "ParentAdded",
      "type": "event"
    },
    {
      "anonymous": false,
      "inputs": [
        {
          "indexed": false,
          "internalType": "address",
          "name": "to",
          "type": "address"
        },
        {
          "indexed": false,
          "internalType": "address",
          "name": "user",
          "type": "address"
        },
        {
          "indexed": false,
          "internalType": "uint256",
          "name": "valueInWei",
          "type": "uint256"
        },
        {
          "indexed": false,
          "internalType": "uint32",
          "name": "level",
          "type": "uint32"
        }
      ],
      "name": "ReferralRewardsPaid",
      "type": "event"
    },
    {
      "anonymous": false,
      "inputs": [
        {
          "indexed": false,
          "internalType": "address",
          "name": "by",
          "type": "address"
        },
        {
          "indexed": false,
          "internalType": "address",
          "name": "user",
          "type": "address"
        }
      ],
      "name": "ReferrerAdded",
      "type": "event"
    },
    {
      "anonymous": false,
      "inputs": [
        {
          "indexed": false,
          "internalType": "string",
          "name": "reason",
          "type": "string"
        }
      ],
      "name": "ReferrerNoAdded",
      "type": "event"
    },
    {
      "anonymous": false,
      "inputs": [
        {
          "indexed": false,
          "internalType": "address",
          "name": "by",
          "type": "address"
        },
        {
          "indexed": false,
          "internalType": "address",
          "name": "to",
          "type": "address"
        },
        {
          "indexed": false,
          "internalType": "address",
          "name": "user",
          "type": "address"
        },
        {
          "indexed": false,
          "internalType": "uint256",
          "name": "valueInWei",
          "type": "uint256"
        }
      ],
      "name": "Registration",
      "type": "event"
    },
    {
      "anonymous": false,
      "inputs": [
        {
          "indexed": false,
          "internalType": "address",
          "name": "by",
          "type": "address"
        },
        {
          "indexed": false,
          "internalType": "address",
          "name": "to",
          "type": "address"
        },
        {
          "indexed": false,
          "internalType": "address",
          "name": "user",
          "type": "address"
        }
      ],
      "name": "RegistrationAssigned",
      "type": "event"
    },
    {
      "anonymous": false,
      "inputs": [
        {
          "indexed": false,
          "internalType": "address",
          "name": "user",
          "type": "address"
        }
      ],
      "name": "RemovedFromRandomList",
      "type": "event"
    },
    {
      "anonymous": false,
      "inputs": [
        {
          "indexed": false,
          "internalType": "address",
          "name": "to",
          "type": "address"
        },
        {
          "indexed": false,
          "internalType": "address",
          "name": "user",
          "type": "address"
        },
        {
          "indexed": false,
          "internalType": "uint32",
          "name": "level",
          "type": "uint32"
        }
      ],
      "name": "TeamAddressAdded",
      "type": "event"
    },
    {
      "anonymous": false,
      "inputs": [
        {
          "indexed": false,
          "internalType": "address",
          "name": "to",
          "type": "address"
        },
        {
          "indexed": false,
          "internalType": "uint256",
          "name": "valueInWei",
          "type": "uint256"
        }
      ],
      "name": "TeamWalletRewardPaid",
      "type": "event"
    },
    {
      "anonymous": false,
      "inputs": [
        {
          "indexed": false,
          "internalType": "string",
          "name": "reason",
          "type": "string"
        }
      ],
      "name": "UpgradeRewardNotPaid",
      "type": "event"
    },
    {
      "anonymous": false,
      "inputs": [
        {
          "indexed": false,
          "internalType": "address",
          "name": "to",
          "type": "address"
        },
        {
          "indexed": false,
          "internalType": "address",
          "name": "by",
          "type": "address"
        },
        {
          "indexed": false,
          "internalType": "uint256",
          "name": "valueInWei",
          "type": "uint256"
        }
      ],
      "name": "UpgradeRewardPaid",
      "type": "event"
    },
    {
      "anonymous": false,
      "inputs": [
        {
          "indexed": true,
          "internalType": "address",
          "name": "implementation",
          "type": "address"
        }
      ],
      "name": "Upgraded",
      "type": "event"
    },
    {
      "anonymous": false,
      "inputs": [
        {
          "indexed": false,
          "internalType": "string",
          "name": "reason",
          "type": "string"
        }
      ],
      "name": "WeeklyRewardNotPaid",
      "type": "event"
    },
    {
      "anonymous": false,
      "inputs": [
        {
          "indexed": false,
          "internalType": "address",
          "name": "to",
          "type": "address"
        },
        {
          "indexed": false,
          "internalType": "uint256",
          "name": "valueInWei",
          "type": "uint256"
        }
      ],
      "name": "WeeklyRewardPaid",
      "type": "event"
    },
    {
      "inputs": [],
      "name": "UPGRADE_INTERFACE_VERSION",
      "outputs": [
        {
          "internalType": "string",
          "name": "",
          "type": "string"
        }
      ],
      "stateMutability": "view",
      "type": "function"
    },
    {
      "inputs": [
        {
          "internalType": "address",
          "name": "_chainLinkOracleAddress",
          "type": "address"
        }
      ],
      "name": "checkIfChainLinkOracleAddressSupporeted",
      "outputs": [
        {
          "internalType": "bool",
          "name": "",
          "type": "bool"
        }
      ],
      "stateMutability": "view",
      "type": "function"
    },
    {
      "inputs": [
        {
          "internalType": "address",
          "name": "_chainLinkOracleAddress",
          "type": "address"
        }
      ],
      "name": "distributeWeeklyReward",
      "outputs": [],
      "stateMutability": "nonpayable",
      "type": "function"
    },
    {
      "inputs": [],
      "name": "getAllUsers",
      "outputs": [
        {
          "internalType": "address[]",
          "name": "",
          "type": "address[]"
        }
      ],
      "stateMutability": "view",
      "type": "function"
    },
    {
      "inputs": [],
      "name": "getContractDefaults",
      "outputs": [
        {
          "internalType": "address",
          "name": "teamWallet",
          "type": "address"
        },
        {
          "internalType": "uint256",
          "name": "teamWalletRate",
          "type": "uint256"
        },
        {
          "internalType": "address",
          "name": "liquidityWallet",
          "type": "address"
        },
        {
          "internalType": "uint256",
          "name": "liquidityCreationrate",
          "type": "uint256"
        },
        {
          "internalType": "address",
          "name": "defaultReferrer",
          "type": "address"
        },
        {
          "internalType": "uint256",
          "name": "registrationValueInUSD",
          "type": "uint256"
        }
      ],
      "stateMutability": "view",
      "type": "function"
    },
    {
      "inputs": [
        {
          "internalType": "address",
          "name": "_chainLinkOracleAddress",
          "type": "address"
        }
      ],
      "name": "getNativePriceInUSD",
      "outputs": [
        {
          "internalType": "uint256",
          "name": "",
          "type": "uint256"
        }
      ],
      "stateMutability": "view",
      "type": "function"
    },
    {
      "inputs": [],
      "name": "getRandomUserList",
      "outputs": [
        {
          "internalType": "address[]",
          "name": "",
          "type": "address[]"
        }
      ],
      "stateMutability": "view",
      "type": "function"
    },
    {
      "inputs": [],
      "name": "getRegistrationsStats",
      "outputs": [
        {
          "internalType": "uint32",
          "name": "totalUser",
          "type": "uint32"
        },
        {
          "internalType": "uint256",
          "name": "totalRegistrationValueInUSD",
          "type": "uint256"
        },
        {
          "internalType": "uint256",
          "name": "totalReferralPaidInUSD",
          "type": "uint256"
        },
        {
          "internalType": "uint256",
          "name": "totalWeeklyRewardsPaidInUSD",
          "type": "uint256"
        }
      ],
      "stateMutability": "view",
      "type": "function"
    },
    {
      "inputs": [],
      "name": "getSupportedChainLinkOracleAddress",
      "outputs": [
        {
          "internalType": "address[]",
          "name": "",
          "type": "address[]"
        }
      ],
      "stateMutability": "view",
      "type": "function"
    },
    {
      "inputs": [],
      "name": "getUpgradePlans",
      "outputs": [
        {
          "components": [
            {
              "internalType": "uint8",
              "name": "id",
              "type": "uint8"
            },
            {
              "internalType": "uint256",
              "name": "valueToUpgradeInUSD",
              "type": "uint256"
            }
          ],
          "internalType": "struct UpgradeStruct[]",
          "name": "upgradePlans",
          "type": "tuple[]"
        },
        {
          "internalType": "uint8",
          "name": "upgradePlansCount",
          "type": "uint8"
        }
      ],
      "stateMutability": "view",
      "type": "function"
    },
    {
      "inputs": [
        {
          "internalType": "uint8",
          "name": "_id",
          "type": "uint8"
        }
      ],
      "name": "getUpgradePlansById",
      "outputs": [
        {
          "components": [
            {
              "internalType": "uint8",
              "name": "id",
              "type": "uint8"
            },
            {
              "internalType": "uint256",
              "name": "valueToUpgradeInUSD",
              "type": "uint256"
            }
          ],
          "internalType": "struct UpgradeStruct",
          "name": "",
          "type": "tuple"
        }
      ],
      "stateMutability": "view",
      "type": "function"
    },
    {
      "inputs": [
        {
          "internalType": "address",
          "name": "_userAddress",
          "type": "address"
        }
      ],
      "name": "getUserAccount",
      "outputs": [
        {
          "components": [
            {
              "internalType": "address",
              "name": "self",
              "type": "address"
            },
            {
              "internalType": "address",
              "name": "parent",
              "type": "address"
            },
            {
              "internalType": "address",
              "name": "referrer",
              "type": "address"
            },
            {
              "internalType": "address[]",
              "name": "referee",
              "type": "address[]"
            },
            {
              "components": [
                {
                  "internalType": "address",
                  "name": "referee",
                  "type": "address"
                },
                {
                  "internalType": "address",
                  "name": "assignedTo",
                  "type": "address"
                }
              ],
              "internalType": "struct RefereeStruct[]",
              "name": "refereeAssigned",
              "type": "tuple[]"
            },
            {
              "components": [
                {
                  "internalType": "address",
                  "name": "teamMember",
                  "type": "address"
                },
                {
                  "internalType": "uint8",
                  "name": "level",
                  "type": "uint8"
                }
              ],
              "internalType": "struct TeamStruct[]",
              "name": "team",
              "type": "tuple[]"
            },
            {
              "internalType": "uint256",
              "name": "selfBusinessInUSD",
              "type": "uint256"
            },
            {
              "internalType": "uint256",
              "name": "upgradedValueInUSD",
              "type": "uint256"
            },
            {
              "internalType": "uint8",
              "name": "upgradeId",
              "type": "uint8"
            },
            {
              "internalType": "uint256",
              "name": "directBusinessInUSD",
              "type": "uint256"
            },
            {
              "internalType": "uint256",
              "name": "teamBusinessInUSD",
              "type": "uint256"
            },
            {
              "internalType": "uint256",
              "name": "referralRewardsInUSD",
              "type": "uint256"
            },
            {
              "internalType": "uint256",
              "name": "weeklyRewardsInUSD",
              "type": "uint256"
            },
            {
              "internalType": "uint256",
              "name": "upgradeRewardsInUSD",
              "type": "uint256"
            },
            {
              "internalType": "uint256",
              "name": "userRandomIndex",
              "type": "uint256"
            },
            {
              "internalType": "uint256",
              "name": "timestampJoined",
              "type": "uint256"
            }
          ],
          "internalType": "struct AccountStruct",
          "name": "",
          "type": "tuple"
        }
      ],
      "stateMutability": "view",
      "type": "function"
    },
    {
      "inputs": [
        {
          "internalType": "address",
          "name": "_userAddress",
          "type": "address"
        }
      ],
      "name": "getUserBusiness",
      "outputs": [
        {
          "internalType": "uint256",
          "name": "selfBusinessInUSD",
          "type": "uint256"
        },
        {
          "internalType": "uint256",
          "name": "directBusinessInUSD",
          "type": "uint256"
        },
        {
          "internalType": "uint256",
          "name": "teamBusinessInUSD",
          "type": "uint256"
        },
        {
          "internalType": "uint256",
          "name": "totalBusinessInUSD",
          "type": "uint256"
        }
      ],
      "stateMutability": "view",
      "type": "function"
    },
    {
      "inputs": [
        {
          "internalType": "address",
          "name": "_userAddress",
          "type": "address"
        }
      ],
      "name": "getUserCurrentUpgradeLevel",
      "outputs": [
        {
          "internalType": "uint8",
          "name": "level",
          "type": "uint8"
        },
        {
          "internalType": "uint256",
          "name": "totalUpgradeValueInUSD",
          "type": "uint256"
        }
      ],
      "stateMutability": "view",
      "type": "function"
    },
    {
      "inputs": [
        {
          "internalType": "address",
          "name": "_userAddress",
          "type": "address"
        }
      ],
      "name": "getUserRewards",
      "outputs": [
        {
          "internalType": "uint256",
          "name": "referralRewardInUSD",
          "type": "uint256"
        },
        {
          "internalType": "uint256",
          "name": "weeklyRewardInUSD",
          "type": "uint256"
        },
        {
          "internalType": "uint256",
          "name": "upgradeRewardsInUSD",
          "type": "uint256"
        },
        {
          "internalType": "uint256",
          "name": "totalRewards",
          "type": "uint256"
        }
      ],
      "stateMutability": "view",
      "type": "function"
    },
    {
      "inputs": [
        {
          "internalType": "address",
          "name": "_userAddress",
          "type": "address"
        }
      ],
      "name": "getUserTeam",
      "outputs": [
        {
          "internalType": "address",
          "name": "referrer",
          "type": "address"
        },
        {
          "internalType": "address[]",
          "name": "referees",
          "type": "address[]"
        },
        {
          "internalType": "uint256",
          "name": "refereeCount",
          "type": "uint256"
        },
        {
          "components": [
            {
              "internalType": "address",
              "name": "referee",
              "type": "address"
            },
            {
              "internalType": "address",
              "name": "assignedTo",
              "type": "address"
            }
          ],
          "internalType": "struct RefereeStruct[]",
          "name": "refereeAssigned",
          "type": "tuple[]"
        },
        {
          "internalType": "uint256",
          "name": "refereeAssignedCount",
          "type": "uint256"
        },
        {
          "components": [
            {
              "internalType": "address",
              "name": "teamMember",
              "type": "address"
            },
            {
              "internalType": "uint8",
              "name": "level",
              "type": "uint8"
            }
          ],
          "internalType": "struct TeamStruct[]",
          "name": "team",
          "type": "tuple[]"
        },
        {
          "internalType": "uint256",
          "name": "teamCount",
          "type": "uint256"
        }
      ],
      "stateMutability": "view",
      "type": "function"
    },
    {
      "inputs": [],
      "name": "getWeeklyRewardToBeDistributed",
      "outputs": [
        {
          "internalType": "uint256",
          "name": "_rewardValue",
          "type": "uint256"
        },
        {
          "internalType": "uint256",
          "name": "_remianingTime",
          "type": "uint256"
        },
        {
          "internalType": "uint256",
          "name": "_endTime",
          "type": "uint256"
        }
      ],
      "stateMutability": "view",
      "type": "function"
    },
    {
      "inputs": [],
      "name": "initialize",
      "outputs": [],
      "stateMutability": "nonpayable",
      "type": "function"
    },
    {
      "inputs": [
        {
          "internalType": "address",
          "name": "_chainLinkOracleAddress",
          "type": "address"
        }
      ],
      "name": "needNativeToRegister",
      "outputs": [
        {
          "internalType": "uint256",
          "name": "",
          "type": "uint256"
        }
      ],
      "stateMutability": "view",
      "type": "function"
    },
    {
      "inputs": [],
      "name": "owner",
      "outputs": [
        {
          "internalType": "address",
          "name": "",
          "type": "address"
        }
      ],
      "stateMutability": "view",
      "type": "function"
    },
    {
      "inputs": [],
      "name": "proxiableUUID",
      "outputs": [
        {
          "internalType": "bytes32",
          "name": "",
          "type": "bytes32"
        }
      ],
      "stateMutability": "view",
      "type": "function"
    },
    {
      "inputs": [
        {
          "internalType": "address",
          "name": "userAddress_",
          "type": "address"
        },
        {
          "internalType": "address",
          "name": "_referrer",
          "type": "address"
        },
        {
          "internalType": "address",
          "name": "_chainLinkOracleAddress",
          "type": "address"
        }
      ],
      "name": "registrationAnyNative",
      "outputs": [],
      "stateMutability": "payable",
      "type": "function"
    },
    {
      "inputs": [
        {
          "internalType": "address",
          "name": "_referrer",
          "type": "address"
        },
        {
          "internalType": "address",
          "name": "_chainLinkOracleAddress",
          "type": "address"
        }
      ],
      "name": "registrationNative",
      "outputs": [],
      "stateMutability": "payable",
      "type": "function"
    },
    {
      "inputs": [],
      "name": "renounceOwnership",
      "outputs": [],
      "stateMutability": "nonpayable",
      "type": "function"
    },
    {
      "inputs": [
        {
          "internalType": "address",
          "name": "_chainLinkOracleAddress",
          "type": "address"
        },
        {
          "internalType": "bool",
          "name": "_status",
          "type": "bool"
        }
      ],
      "name": "setChainLinkOracleAddress",
      "outputs": [],
      "stateMutability": "nonpayable",
      "type": "function"
    },
    {
      "inputs": [
        {
          "internalType": "address",
          "name": "defaultReferrer_",
          "type": "address"
        }
      ],
      "name": "setDefaultReferrer",
      "outputs": [],
      "stateMutability": "nonpayable",
      "type": "function"
    },
    {
      "inputs": [
        {
          "internalType": "address",
          "name": "newOwner",
          "type": "address"
        }
      ],
      "name": "transferOwnership",
      "outputs": [],
      "stateMutability": "nonpayable",
      "type": "function"
    },
    {
      "inputs": [
        {
          "internalType": "uint256[]",
          "name": "_valueToUpgradeInDecimals",
          "type": "uint256[]"
        }
      ],
      "name": "updateUpgradePlans",
      "outputs": [],
      "stateMutability": "nonpayable",
      "type": "function"
    },
    {
      "inputs": [
        {
          "internalType": "address",
          "name": "_chainLinkOracleAddress",
          "type": "address"
        }
      ],
      "name": "upgradeAccountNative",
      "outputs": [],
      "stateMutability": "payable",
      "type": "function"
    },
    {
      "inputs": [
        {
          "internalType": "address",
          "name": "newImplementation",
          "type": "address"
        },
        {
          "internalType": "bytes",
          "name": "data",
          "type": "bytes"
        }
      ],
      "name": "upgradeToAndCall",
      "outputs": [],
      "stateMutability": "payable",
      "type": "function"
    },
    {
      "stateMutability": "payable",
      "type": "receive"
    }
  ],
  "bytecode": "0x60a080604052346029573060805261388d908161002f8239608051818181611ef90152611fcc0152f35b600080fdfe608080604052600436101561001d575b50361561001b57600080fd5b005b60003560e01c9081630690c6a81461251a57508063078b0fb71461232a57806307c560d11461224e57806308e922ba1461223257806311f4d576146121f35780631a746344146121905780634f1ef28614611f5057806352d1902d14611ee657806359a0454414611d795780635eda81ce14611b645780636a74631114611b3e578063715018a614611ae65780637ec37e0314611a835780638129fc1c1461159d578063846688f71461153c5780638da5cb5b14611506578063a0db38e514611194578063a4fb1b3414611112578063a9df9fae146110a5578063ad3cb1cc14611029578063c53b219e14610fa8578063d277b8a914610d7b578063dcf6e81914610ca8578063e2842d7914610c78578063e35422e714610b74578063f2fde38b14610b4b578063f87127b41461093c578063f92501711461073e578063faeda7e5146104f25763fb47e01614610174573861000f565b346104ed5760203660031901126104ed5761018d612555565b60006101e060405161019e816125be565b82815282602082015282604082015260608082015260606080820152606060a08201528260c08201528260e08201528261010082015282610120820152826101408201528261016082015282610180820152826101a0820152826101c0820152015260018060a01b031660005260126020526040600020604051610221816125be565b81546001600160a01b03908116825260018301548116602083019081526002840154909116604083019081529092909161025d60038301612774565b60608201908152600483018054610273816127c8565b9161028160405193846125f5565b818352602083019060005260206000206000915b8383106104b2575050505060808301908152600584019182546102b7816127c8565b936102c560405195866125f5565b818552602085019060005260206000206000915b83831061047c575050505060a08401928352600685015460c0850152600785015460e08501908152600886015460ff166101008601526009860154610120860152600a860154610140860152600b860154610160860152600c860154610180860152600d8601546101a0860152600e8601546101c0860152600f909501546101e085015260408051602080825286516001600160a01b039081168284015299518a16928201929092529651909716606087015251610200608087015280516102208701819052610240870197919091019060005b81811061045d575050506101e092916103d786976103ea9351601f198983030160a08a0152612633565b9051868203601f190160c088015261267f565b9260c082015160e08601525161010085015260ff610100820151166101208501526101208101516101408501526101408101516101608501526101608101516101808501526101808101516101a08501526101a08101516101c08501526101c08101518285015201516102008301520390f35b82516001600160a01b03168952602098890198909201916001016103ad565b60016020819260405161048e816125da565b60ff8654858060a01b038116835260a01c16838201528152019201920191906102d9565b600260206001926040516104c5816125da565b848060a01b038654168152848060a01b03858701541683820152815201920192019190610295565b600080fd5b346104ed5760203660031901126104ed576001600160a01b03610513612555565b16600052601260205260406000206040519061052e826125be565b80546001600160a01b039081168352600182015481166020840152600282015416604083019081529061056360038201612774565b91606084019283526004820193845461057b816127c8565b9561058960405197886125f5565b818752602087019060005260206000206000915b838310610703575050505060808101948552600583019283546105bf816127c8565b946105cd60405196876125f5565b818652602086019060005260206000206000915b8383106106cd5750505050906101e0600f6106c394938660a0850152600681015460c0850152600781015460e085015260ff6008820154166101008501526009810154610120850152600a810154610140850152600b810154610160850152600c810154610180850152600d8101546101a0850152600e8101546101c0850152015491015260018060a01b0390511692519384519051926106b084519282519561069d604051998a998a5260e060208b015260e08a0190612581565b9160408901528782036060890152612633565b91608086015284820360a086015261267f565b9060c08301520390f35b6001602081926040516106df816125da565b60ff8654858060a01b038116835260a01c16838201528152019201920191906105e1565b60026020600192604051610716816125da565b848060a01b038654168152848060a01b0385870154168382015281520192019201919061059d565b346104ed5760203660031901126104ed57610757612555565b6001600160a01b0316600090815260126020526040808220905190919061077d816125be565b82546001600160a01b03908116825260018401548116602083015260028401541660408201526107af60038401612774565b60608201526004830180546107c3816127c8565b916107d160405193846125f5565b818352602083019060005260206000206000915b8383106109015750505050608082015260058301928354610805816127c8565b9061081360405192836125f5565b80825260208201956000526020600020956000905b8282106108cb575050506040945060a0830152600681015460c08301526007810154918260e08201526101e0600f60ff60088501541693846101008501526009810154610120850152600a810154610140850152600b810154610160850152600c810154610180850152600d8101546101a0850152600e8101546101c08501520154910152806108c3575b5060ff8351921682526020820152f35b9150836108b3565b6001602081926040516108dd816125da565b60ff8c54858060a01b038116835260a01c1683820152815201980191019096610828565b60026020600192604051610914816125da565b848060a01b038654168152848060a01b038587015416838201528152019201920191906107e5565b346104ed5760203660031901126104ed576001600160a01b0361095d612555565b166000526012602052604060002060405190610978826125be565b80546001600160a01b03908116835260018201548116602084015260028201541660408301526109aa60038201612774565b60608301526004810180546109be816127c8565b916109cc60405193846125f5565b818352602083019060005260206000206000915b838310610b10575050505060808301526005810180546109ff816127c8565b91610a0d60405193846125f5565b818352602083019060005260206000206000915b838310610ada575050505060a0830152610ad66006820154918260c0850152600781015460e085015260ff600882015416610100850152600981015493846101208201526101e0600f600a8401549384610140850152600b810154610160850152600c810154610180850152600d8101546101a0850152600e8101546101c08501520154910152610ab283826127df565b90604051948594859094939260609260808301968352602083015260408201520152565b0390f35b600160208192604051610aec816125da565b60ff8654858060a01b038116835260a01c1683820152815201920192019190610a21565b60026020600192604051610b23816125da565b848060a01b038654168152848060a01b038587015416838201528152019201920191906109e0565b346104ed5760203660031901126104ed5761001b610b67612555565b610b6f612bbf565b612a54565b346104ed5760203660031901126104ed576004356001600160401b0381116104ed57366023820112156104ed5760048101356001600160401b0381116104ed573660248260051b840101116104ed5790610bcc612bbf565b6000915b60ff8316928184101561001b57610be681612913565b6000946024611fe08460051b168601013590670de0b6b3a7640000820291808304670de0b6b3a76400001490151715610c64579060ff806040610c5d97989960019583835198610c358a6125da565b1688526020880195865281526013602052209451161660ff1984541617835551910155612902565b9190610bd0565b634e487b7160e01b87526011600452602487fd5b346104ed5760003660031901126104ed57610ad6610c94612721565b604051918291602083526020830190612581565b346104ed5760203660031901126104ed576000805160206138018339815191526020610cd2612555565b610cda612bbf565b6001600160a01b03818116600081815260128552604090208054919392600e921615610d5d575b60068101805415610d4a575b500190815415610d35575b5050600e80546001600160a01b03191682179055604051908152a1005b610d3e906128ba565b60015490558380610d18565b69152d02c7e14af6800000905586610d0d565b80546001600160a01b03191684178155610d7683612895565b610d01565b346104ed5760203660031901126104ed57610d94612555565b6001600160a01b038116600090815260146020526040902054610dbe9060ff161515600114612925565b670de0b6b3a7640000610ddc610dd660095493612ab8565b836127ec565b04600b5462093a80810110610f52578115610f6857610df9612721565b6000194301438111610f5257610e4e90604051610e2f81610e21602082019440444287612a1a565b03601f1981018352826125f5565b51902082516001600160a01b039391610e489190612a2f565b90612838565b5116918215610edb576000808080938682526012602052600c6040832001610e778782546127df565b90558682f115610ecf577f6dbdd944bdf6514aca26947d204530e2ecbea365677ef05fee7a56d54a14569791600060095542600b55610eb8826005546127df565b600555610eca60405192839283612a39565b0390a1005b6040513d6000823e3d90fd5b5050507f974c744afa915921dddb0f53fdbfdd97fef12a94db2457dcf878aa94ad687274608060405160208152603160208201527f52616e646f6d206164647265737320776173207a65726f20616464726573732e60408201527010283632b0b9b2903a393c9030b3b0b4b760791b6060820152a1005b634e487b7160e01b600052601160045260246000fd5b60405162461bcd60e51b81526020600482015260186024820152774e6f207265776172647320746f206469737472696275746560401b6044820152606490fd5b60403660031901126104ed5761001b610fbf612555565b670de0b6b3a764000061101f611019610fd661256b565b610fea6001600160a01b038616151561296a565b6001600160a01b0381166000908152601460205260409020546110149060ff1615156001146129c2565b612ab8565b346127ec565b0434913390612c17565b346104ed5760003660031901126104ed57604080519061104981836125f5565b60058252640352e302e360dc1b6020830152805180926020825280519081602084015260005b82811061108e5750506000828201840152601f01601f19168101030190f35b60208282018101518783018701528694500161106f565b346104ed5760203660031901126104ed5760043560ff81168091036104ed576110cc61281f565b50600052601360205260408060002060018251916110e9836125da565b60ff815416835201546020820152611110825180926020809160ff81511684520151910152565bf35b60603660031901126104ed57611126612555565b61112e61256b565b604435916001600160a01b0383168084036104ed5761001b93670de0b6b3a76400009161118b916110199161116d6001600160a01b038816151561296a565b6000526014602052611014600160ff604060002054161515146129c2565b04903492612c17565b60203660031901126104ed57670de0b6b3a76400006111e16110196111b7612555565b6001600160a01b0381166000908152601460205260409020546110149060ff161515600114612925565b0433600052601260205260406000206008810160ff8154166000526013602052604060002090600160405192611216846125da565b60ff815416845201546020830190808252156114c1578051605f810290808204605f1490151715610f52576064900485119081156114a1575b501561144d5760ff808093600786016112698882546127df565b9055511616821982541617815554169160009260001981019260ff8085119416905b8286111561129557005b600201546001600160a01b0316600090815260126020526040902084610f52578186146112cf57946000198114610f52576001019461128b565b80955060ff929394506008915001541690808211918215611443575b505080611430575b1561136057611307600d83019182546127df565b9055600080808060018060a01b0385541681903415611356575b3491f115610ecf5754604051600080516020613841833981519152918190610eca90349033906001600160a01b031684612bf5565b6108fc9150611321565b50507f6696b78fc1713892e6e2bb3df5cdc986ab67a0c675898c7ef535bd2201ca9451608060405160208152603f60208201527f55706c696e6520686173206e6f742075706772616465642e20416d6f756e742060408201527f7472616e73666572656420746f206c69717569646974792077616c6c65742e006060820152a16010546001600160a01b031660003415611427575b600080808093853491f115610ecf57610eca600080516020613841833981519152916040519182913490339084612bf5565b506108fc6113f5565b5081546001600160a01b031615156112f3565b14905083806112eb565b60405162461bcd60e51b815260206004820152602660248201527f56616c75652073686f756c6420626520657175616c20746f20757067726164656044820152652076616c756560d01b6064820152608490fd5b51606980820292508115918304141715610f52576064900484108561124f565b60405162461bcd60e51b815260206004820152601d60248201527f596f75206861766520757067726164656420616c6c206c6576656c732e0000006044820152606490fd5b346104ed5760003660031901126104ed576000805160206137c1833981519152546040516001600160a01b039091168152602090f35b346104ed5760003660031901126104ed576000600954600b549162093a80830192838111610f5257428411611583575b509160609260405192835260208301526040820152f35b62093a8091504290030191808311610f525791606061156c565b346104ed5760003660031901126104ed5760008051602061386183398151915254604081901c60ff1615906001600160401b03811680159081611a7b575b6001149081611a71575b159081611a68575b50611a57576001600160401b031981166001176000805160206138618339815191525581611a2e575b5073cef5767039fa6a66016b802546f123e0c3ddedc260005260126020527f7b58f54f0bc0fcd57e50c233f450fe384adf8c88021dbbeef24b87de22945c148054600e91906001600160a01b0316156119fa575b600681018054156119e7575b50018054156119bf575b5073cef5767039fa6a66016b802546f123e0c3ddedc260018060a01b0319600e541617600e55600080516020613801833981519152602060405173cef5767039fa6a66016b802546f123e0c3ddedc28152a1601154600160401b8110156119a9578060016116f39201601155601161287d565b81546001600160a01b0360039290921b91821b1916730567f2323251f0aab15c8dfb1967e4e8a7d42aee90911b179055601154600160401b8110156119a9578060016117449201601155601161287d565b81546001600160a01b0360039290921b91821b1916739c85f470f9ba23dfc4fe9531933c2ce2c1739c399182901b1790915560146020527f18b399276171edd4288c75706c059c76f8ba27a208f6ab7dc13ddac4a813eb06805460ff1990811660019081179092556000929092527f785e316b530d6f09805cf52ec6944c1fd91d7cf1ffa292231399b4110cc5ca9d80548316909117905568015af1d78b58c40000600f55600c805461ffff191661083c1790556002600d55600680546001600160a81b0319167414554f58fcfcef95f82c8cf6ed9e51e5c79e341481179055601080546001600160a01b031916733d7263afa42c9d47c13cfcdcdc72a131077e56181781556008805483169091179055600a8054909116600417905542600b5560405160e081016001600160401b038111828210176119a9576040526801158e460913d0000081526801a055690d9db8000060208201526802b5e3af16b188000060408201526809c2007651b250000060608201526815af1d78b58c400000608082015268281d901f4fdd10000060a0820152684fb0591b9b3038000060c082015260005b60ff811690600782101561192d5761192891600161190783612913565b9160ff8060406000611fe08860051b168a01519483835198610c358a6125da565b6118ea565b83611936613590565b61193e613590565b61194733612a54565b61194f613590565b61195557005b60ff60401b196000805160206138618339815191525416600080516020613861833981519152557fc7f505b2f371ae2175ee4913f4499e1f2633a7b5936321eed1cdaeb6115181d2602060405160018152a1005b634e487b7160e01b600052604160045260246000fd5b6119dc73cef5767039fa6a66016b802546f123e0c3ddedc26128ba565b600154905581611680565b69152d02c7e14af6800000905583611676565b80546001600160a01b03191673cef5767039fa6a66016b802546f123e0c3ddedc29081178255611a2990612895565b61166a565b6001600160481b0319166001600160401b01176000805160206138618339815191525581611616565b63f92ee8a960e01b60005260046000fd5b905015836115ed565b303b1591506115e5565b8391506115db565b346104ed5760003660031901126104ed576040516001548082526020820190600160005260206000209060005b818110611ac757610ad685610c94818703826125f5565b82546001600160a01b0316845260209093019260019283019201611ab0565b346104ed5760003660031901126104ed57611aff612bbf565b6000805160206137c183398151915280546001600160a01b031981169091556000906001600160a01b03166000805160206138218339815191528280a3005b346104ed5760203660031901126104ed576020611b5c611014612555565b604051908152f35b346104ed5760403660031901126104ed57611b7d612555565b6024358015158091036104ed57611b92612bbf565b6001600160a01b03821660008181526014602052604090205490919060ff1615158114611d3f57600190826000526014602052604060002060ff1981541660ff831617905514600014611c29575060115490600160401b8210156119a957611c0582600161001b9401601155601161287d565b9080546001600160a01b0360039390931b83811b199091169290931690921b179055565b9050611c336126cb565b805160005b818110611c4157005b836001600160a01b03611c548386612838565b511614611c64575b600101611c38565b6000198201828111610f52576001600160a01b0390611c839085612838565b51166000601154831015611d2b576011908190527f31ecc21a745e3968a04e9570e4425bc18fa8019c68028196b546d1669c200c68830180546001600160a01b0319166001600160a01b03909316929092179091555460008115611d1757506001919060001901611d0d611cf882601161287d565b81549060018060a01b039060031b1b19169055565b6011559050611c5c565b634e487b7160e01b81526031600452602490fd5b634e487b7160e01b81526032600452602490fd5b60405162461bcd60e51b815260206004820152601260248201527114dd185d1d5cc8185b1c9958591e481cd95d60721b6044820152606490fd5b346104ed5760003660031901126104ed5760ff6000805b8282166032811015611ede576000526013602052826040600020541615611dc6576001611dbd8492612902565b92011690611d90565b90505b16611dd3816127c8565b90611de160405192836125f5565b808252601f19611df0826127c8565b0160005b818110611eb957505060005b60ff811682811015611e575760ff91611e4f82600193600052601360205260406000208460405191611e31836125da565b87815416835201546020820152611e488289612838565b5286612838565b500116611e00565b828460405190604082019260408352815180945260206060840192016000945b808610611e8c57505082935060208301520390f35b90926020604082611ead60019488516020809160ff81511684520151910152565b01940195019490611e77565b602090604051611ec8816125da565b6000815260008382015282828701015201611df4565b509050611dc9565b346104ed5760003660031901126104ed577f00000000000000000000000000000000000000000000000000000000000000006001600160a01b03163003611f3f5760206040516000805160206137e18339815191528152f35b63703e46dd60e11b60005260046000fd5b60403660031901126104ed57611f64612555565b602435906001600160401b0382116104ed57366023830112156104ed57816004013590611f9082612618565b91611f9e60405193846125f5565b808352602083019336602483830101116104ed57816000926024602093018737840101526001600160a01b037f00000000000000000000000000000000000000000000000000000000000000001630811490811561216d575b50611f3f57612004612bbf565b6040516352d1902d60e01b81526001600160a01b0382169390602081600481885afa60009181612139575b506120495784634c9c8ce360e01b60005260045260246000fd5b806000805160206137e18339815191528692036121255750823b15612111576000805160206137e183398151915280546001600160a01b031916821790557fbc7cd75a20ee27fd9adebab32041f755214dbc6bffa90cc0225b39da2e5c2d3b600080a28251156120f6576000809161001b945190845af43d156120ee573d916120d183612618565b926120df60405194856125f5565b83523d6000602085013e61375f565b60609161375f565b5050503461210057005b63b398979f60e01b60005260046000fd5b634c9c8ce360e01b60005260045260246000fd5b632a87526960e21b60005260045260246000fd5b9091506020813d602011612165575b81612155602093836125f5565b810103126104ed5751908661202f565b3d9150612148565b6000805160206137e1833981519152546001600160a01b03161415905084611ff7565b346104ed5760003660031901126104ed57600654601054600854600e54600f54604080516001600160a01b03808816825260a097881c60ff908116602084015296811692820192909252939094166060840152921660808201529182015260c090f35b346104ed5760203660031901126104ed576001600160a01b03612214612555565b166000526014602052602060ff604060002054166040519015158152f35b346104ed5760003660031901126104ed57610ad6610c946126cb565b346104ed5760203660031901126104ed57612267612555565b60018060a01b0381166000526014602052600160ff604060002054161515036122c457600f5490670de0b6b3a7640000820291808304670de0b6b3a76400001490151715610f52576020916122be611b5c92612ab8565b906127ff565b60405162461bcd60e51b815260206004820152603860248201527f506c6561736520636865636b2074686520636861696e4c696e6b4f7261636c656044820152771059191c995cdcc81bdc881b9bdd081cdd5c1c1bdc9d195960421b6064820152608490fd5b346104ed5760203660031901126104ed576001600160a01b0361234b612555565b166000526012602052604060002060405190612366826125be565b80546001600160a01b039081168352600182015481166020840152600282015416604083015261239860038201612774565b60608301526004810180546123ac816127c8565b916123ba60405193846125f5565b818352602083019060005260206000206000915b8383106124df575050505060808301526005810180546123ed816127c8565b916123fb60405193846125f5565b818352602083019060005260206000206000915b8383106124a9575050505060a0830152600681015460c0830152600781015460e083015260ff6008820154166101008301526009810154610120830152600a810154610140830152610ad6600b8201549182610160850152600c81015493846101808201526101e0600f600d84015493846101a0850152600e8101546101c08501520154910152610ab2816124a486866127df565b6127df565b6001602081926040516124bb816125da565b60ff8654858060a01b038116835260a01c168382015281520192019201919061240f565b600260206001926040516124f2816125da565b848060a01b038654168152848060a01b038587015416838201528152019201920191906123ce565b346104ed5760003660031901126104ed5760809063ffffffff6000541660025460035490600554928452602084015260408301526060820152f35b600435906001600160a01b03821682036104ed57565b602435906001600160a01b03821682036104ed57565b906020808351928381520192019060005b81811061259f5750505090565b82516001600160a01b0316845260209384019390920191600101612592565b61020081019081106001600160401b038211176119a957604052565b604081019081106001600160401b038211176119a957604052565b601f909101601f19168101906001600160401b038211908210176119a957604052565b6001600160401b0381116119a957601f01601f191660200190565b906020808351928381520192019060005b8181106126515750505090565b825180516001600160a01b039081168652602091820151168186015260409094019390920191600101612644565b906020808351928381520192019060005b81811061269d5750505090565b825180516001600160a01b0316855260209081015160ff168186015260409094019390920191600101612690565b604051906011548083528260208101601160005260206000209260005b8181106126ff5750506126fd925003836125f5565b565b84546001600160a01b03168352600194850194879450602090930192016126e8565b6040519060005480835282602081016000805260206000209260005b8181106127525750506126fd925003836125f5565b84546001600160a01b031683526001948501948794506020909301920161273d565b906040519182815491828252602082019060005260206000209260005b8181106127a65750506126fd925003836125f5565b84546001600160a01b0316835260019485019487945060209093019201612791565b6001600160401b0381116119a95760051b60200190565b91908201809211610f5257565b81810292918115918404141715610f5257565b8115612809570490565b634e487b7160e01b600052601260045260246000fd5b6040519061282c826125da565b60006020838281520152565b805182101561284c5760209160051b010190565b634e487b7160e01b600052603260045260246000fd5b60015481101561284c57600160005260206000200190600090565b805482101561284c5760005260206000200190600090565b60005490600160401b8210156119a957611c058260016126fd9401600055600061287d565b60015490600160401b8210156119a957611c058260016126fd9401600155600161287d565b80549190600160401b8310156119a95782611c059160016126fd9501815561287d565b60ff1660ff8114610f525760010190565b60ff60019116019060ff8211610f5257565b1561292c57565b60405162461bcd60e51b815260206004820152601660248201527510dd5c9c995b98de481b9bdd081cdd5c1c1bdc9d195960521b6044820152606490fd5b1561297157565b60405162461bcd60e51b815260206004820152602360248201527f5a65726f20416464726573732063616e6e6f74206265207468652072656665726044820152623932b960e91b6064820152608490fd5b156129c957565b60405162461bcd60e51b815260206004820152602360248201527f43757272656e637920596f752073656c6563746564206e6f7420737570706f726044820152621d195960ea1b6064820152608490fd5b91606093918352602083015260408201520190565b8115612809570690565b6001600160a01b039091168152602081019190915260400190565b6001600160a01b03168015612aa2576000805160206137c183398151915280546001600160a01b0319811683179091556001600160a01b0316600080516020613821833981519152600080a3565b631e4fbdf760e01b600052600060045260246000fd5b6040516350d25bcd60e01b8152906001600160a01b0316602082600481845afa918215610ecf57600092612b8a575b5060206004916040519283809263313ce56760e01b82525afa908115610ecf57600091612b46575b5060ff1690670de0b6b3a764000090818102918183041490151715610f5257604d8211610f5257612b4391600a0a906127ff565b90565b6020813d602011612b82575b81612b5f602093836125f5565b81010312612b7e57519060ff82168203612b7b575060ff612b0f565b80fd5b5080fd5b3d9150612b52565b90916020823d602011612bb7575b81612ba5602093836125f5565b81010312612b7b575051906020612ae7565b3d9150612b98565b6000805160206137c1833981519152546001600160a01b03163303612be057565b63118cdaa760e01b6000523360045260246000fd5b6001600160a01b03918216815291166020820152604081019190915260600190565b600f54606181029080820460611490151715610f525760649004831061353c57600c5460ff8082169160081c169260018060a01b0381169182600052601260205260406000209460018060a01b0385168060005260126020526040600020600688019687546134fd576006820154156134c25788546001600160a01b0316156134a4575b81546001600160a01b031615613483575b5050600d546002880180549095906001600160a01b0316613422578660005260126020526040600020928781146133e0576000816133cf575050600e546001600160a01b03166000908152601260205260409020915b60038301612d118282546135e1565b156133965750600e83015460009061338e575b613380575b6000194301438111610f5257612d60612d6591604051612d5481610e21602082019440444287612a1a565b51902060015490612a2f565b612862565b90546001600160a01b0360039290921b1c8116600090815260126020526040902080549092911680156133405785612d9c91613608565b835482546040516001600160a01b0391821693927fa1b30426557565c4fa85ce5f9c88513d7d3f49d21eb30569c249b07b037831ef928291612de3918991889116846135be565b0390a160405160048601612df6826125da565b8b825260208201938452805493600160401b8510156119a9576001850180835585101561284c57600091825260209091209151600194851b90920180546001600160a01b039384166001600160a01b031991821617825591519401805494909216931692909217909155612e789060038301612e7285826128df565b546135e1565b613331575b505b6001830180546001600160a01b0316156132ca575b5050506000905b8260ff831610613186575b5050505b600e85018054613141578554612ec8906001600160a01b03166128ba565b60015490557f0411c58b3c1e8a39d91c901e5c807bff1401650beedc45aba65112756bb929b4608060018060a01b038754167f06baf10092c7ea144c4fb56fb8cf641e1f00e291a535b5d54b547eadb29485a76020604051838152a160018801549454604080516001600160a01b0397881680825297909216602083015281019190915260608101899052a16064612f6c81612f64848b6127ec565b0492886127ec565b0491600052601260205260406000209160018060a01b03835416806130a2575b505050505060065460008080806064612fab60ff8760a01c168b6127ec565b04809582908215613098575b6001600160a01b031690f115610ecf576006546040517f5aa75bdb3269082e844d731608afae2a07cbf194f251e3f857b870af86b754fb9290918291613006916001600160a01b031683612a39565b0390a1606461301a60ff60085416866127ec565b0460008080808460018060a01b036010541682821561308f575bf115610ecf5761308a9461307f93606493613054613076946007546127df565b6007556130628782546127df565b9055600f4291015560ff600a5416906127ec565b046009546127df565b6009556002546127df565b600255565b506108fc613034565b6108fc9150612fb7565b60008080858194828215613138575bf115610ecf577f153f77382d7e07de734977ae352e9b1f5f8ad4b1c0033c883a9a33456a87836f608060099561311d9460018060a01b03875416916040519283526020830152604082015260016060820152a1600b83016131138282546127df565b90556003546127df565b6003550161312c8482546127df565b90553880808080612f8c565b506108fc6130b1565b60405162461bcd60e51b815260206004820152601e60248201527f5573657220697320616c726561647920696e2072616e646f6d206c69737400006044820152606490fd5b60028101546001600160a01b03169081156132c457546001600160a01b031681146132bf576000526012602052604060002060058101906131c683612913565b604051926131d3846125da565b88845260ff60208501921682528054600160401b8110156119a9576131fd9160018201815561287d565b9190916132a9579251815493516001600160a81b03199094166001600160a01b03919091161760a09390931b60ff60a01b1692909217909155600a810180546132a392919061324d908c906127df565b905580547f85db3f10b88ea7fc653f3f818097a3fc3c543196ed60cad2251df922bcc9ad7f906060906001600160a01b031660ff61328a87612913565b6040519283528b6020840152166040820152a191612902565b90612e9b565b634e487b7160e01b600052600060045260246000fd5b612ea6565b50612ea6565b915482546001600160a01b0319166001600160a01b0391821690811790935560028401546040517f8efa008f8ae98ae30d3219078a298c85bc25a62f50c57ed9a3ec838b7eed9f479490938493613326939192911690846135be565b0390a1388080612e94565b61333a9061365e565b38612e7d565b60405162461bcd60e51b8152602060048201526018602482015277139bc81c985b991bdb481c9959995c9c995c88199bdd5b9960421b6044820152606490fd5b6133898361365e565b612d29565b506001612d24565b83546133bc9291906133b29087906001600160a01b0316613608565b612e7284826128df565b15612e7f576133ca8261365e565b612e7f565b604091815260126020522091612d02565b60405162461bcd60e51b815260206004820152601a6024820152792cb7ba9031b0b73737ba103932b332b9103cb7bab939b2b6331760311b6044820152606490fd5b505050507f1f4fff38c5e64af9e759d590409f022ea913658008bb1d0cd35e028244f01ecf606060405160208152601f60208201527f5573657220416c72656164792068617665207265666572726572207365742e006040820152a1612eaa565b81546001600160a01b031916831790915561349d90612895565b3880612cac565b88546001600160a01b031916871789556134bd86612895565b612c9b565b60405162461bcd60e51b81526020600482015260136024820152725265666572726572204e6f742041637469766560681b6044820152606490fd5b60405162461bcd60e51b8152602060048201526017602482015276155cd95c88185b1c9958591e481c9959da5cdd195c9959604a1b6044820152606490fd5b60405162461bcd60e51b815260206004820152602660248201527f56616c7565206973206c657373207468656e20726567697374726174696f6e206044820152653b30b63ab29760d11b6064820152608490fd5b60ff6000805160206138618339815191525460401c16156135ad57565b631afcd79f60e31b60005260046000fd5b6001600160a01b0391821681529181166020830152909116604082015260600190565b600092918082149182156135fe575b50506135f857565b60019150565b11905038806135f0565b6002820180546001600160a01b0319166001600160a01b03928316908117909155915460408051938452911660208301527fec49a3c8c4ae06c18160fe86119c381c9d213ac3e052ff35b594da8687b193c791a1565b600e81018054801561371d576001546000198101908111610f525761368290612862565b905460001983019260039290921b1c6001600160a01b0316908211610f5257611c056136ad92612862565b6001549182156137075760006020927f644b85583ba83e73113ffc0c122b165819ca11db493cd4cc38f5ba29138ffa1b948219016136ef611cf882600161287d565b60015555546040516001600160a01b039091168152a1565b634e487b7160e01b600052603160045260246000fd5b60405162461bcd60e51b815260206004820152601a602482015279155cd95c881a5cc81b9bdd081a5b881c985b991bdb481b1a5cdd60321b6044820152606490fd5b90613785575080511561377457805190602001fd5b63d6bda27560e01b60005260046000fd5b815115806137b7575b613796575090565b639996b31560e01b60009081526001600160a01b0391909116600452602490fd5b50803b1561378e56fe9016d09d72d40fdae2fd8ceac6b6234c7706214fd39c1cd1e609a0528c199300360894a13ba1a3210667c828492db98dca3e2076cc3735a920a3ca505d382bbce85b607d57b04668b1d2caf42949038ece8789f7907395f968f702964c717ba88be0079c531659141344cd1fd0a4f28419497f9722a3daafe3b4186f6b6457e0b37800f632235e56e1626c9e9df3de1e167e9298f0d25f59fd74ec65e3111652f0c57e16840df040f15088dc2f81fe391c3923bec73e23a9662efc9c229c6a00a164736f6c634300081a000a",
  "linkReferences": {},
  "deployedLinkReferences": {}
}