{
  "_format": "hh-sol-artifact-1",
  "contractName": "RegistrationUpgradeable",
  "sourceName": "contracts/RegistrationUpgradeable.sol",
  "abi": [
    {
      "inputs": [
        {
          "internalType": "address",
          "name": "target",
          "type": "address"
        }
      ],
      "name": "AddressEmptyCode",
      "type": "error"
    },
    {
      "inputs": [
        {
          "internalType": "address",
          "name": "implementation",
          "type": "address"
        }
      ],
      "name": "ERC1967InvalidImplementation",
      "type": "error"
    },
    {
      "inputs": [],
      "name": "ERC1967NonPayable",
      "type": "error"
    },
    {
      "inputs": [],
      "name": "FailedCall",
      "type": "error"
    },
    {
      "inputs": [],
      "name": "InvalidInitialization",
      "type": "error"
    },
    {
      "inputs": [],
      "name": "NotInitializing",
      "type": "error"
    },
    {
      "inputs": [
        {
          "internalType": "address",
          "name": "owner",
          "type": "address"
        }
      ],
      "name": "OwnableInvalidOwner",
      "type": "error"
    },
    {
      "inputs": [
        {
          "internalType": "address",
          "name": "account",
          "type": "address"
        }
      ],
      "name": "OwnableUnauthorizedAccount",
      "type": "error"
    },
    {
      "inputs": [],
      "name": "UUPSUnauthorizedCallContext",
      "type": "error"
    },
    {
      "inputs": [
        {
          "internalType": "bytes32",
          "name": "slot",
          "type": "bytes32"
        }
      ],
      "name": "UUPSUnsupportedProxiableUUID",
      "type": "error"
    },
    {
      "anonymous": false,
      "inputs": [
        {
          "indexed": false,
          "internalType": "address",
          "name": "user",
          "type": "address"
        }
      ],
      "name": "AddedToRandomList",
      "type": "event"
    },
    {
      "anonymous": false,
      "inputs": [
        {
          "indexed": false,
          "internalType": "address",
          "name": "defaultReferrer",
          "type": "address"
        }
      ],
      "name": "DefaultReferrerUpdated",
      "type": "event"
    },
    {
      "anonymous": false,
      "inputs": [
        {
          "indexed": false,
          "internalType": "uint64",
          "name": "version",
          "type": "uint64"
        }
      ],
      "name": "Initialized",
      "type": "event"
    },
    {
      "anonymous": false,
      "inputs": [
        {
          "indexed": true,
          "internalType": "address",
          "name": "previousOwner",
          "type": "address"
        },
        {
          "indexed": true,
          "internalType": "address",
          "name": "newOwner",
          "type": "address"
        }
      ],
      "name": "OwnershipTransferred",
      "type": "event"
    },
    {
      "anonymous": false,
      "inputs": [
        {
          "indexed": false,
          "internalType": "address",
          "name": "by",
          "type": "address"
        },
        {
          "indexed": false,
          "internalType": "address",
          "name": "to",
          "type": "address"
        },
        {
          "indexed": false,
          "internalType": "address",
          "name": "user",
          "type": "address"
        }
      ],
      "name": "ParentAdded",
      "type": "event"
    },
    {
      "anonymous": false,
      "inputs": [
        {
          "indexed": false,
          "internalType": "address",
          "name": "to",
          "type": "address"
        },
        {
          "indexed": false,
          "internalType": "address",
          "name": "user",
          "type": "address"
        },
        {
          "indexed": false,
          "internalType": "uint256",
          "name": "valueInWei",
          "type": "uint256"
        },
        {
          "indexed": false,
          "internalType": "uint32",
          "name": "level",
          "type": "uint32"
        }
      ],
      "name": "ReferralRewardsPaid",
      "type": "event"
    },
    {
      "anonymous": false,
      "inputs": [
        {
          "indexed": false,
          "internalType": "address",
          "name": "by",
          "type": "address"
        },
        {
          "indexed": false,
          "internalType": "address",
          "name": "user",
          "type": "address"
        }
      ],
      "name": "ReferrerAdded",
      "type": "event"
    },
    {
      "anonymous": false,
      "inputs": [
        {
          "indexed": false,
          "internalType": "string",
          "name": "reason",
          "type": "string"
        }
      ],
      "name": "ReferrerNoAdded",
      "type": "event"
    },
    {
      "anonymous": false,
      "inputs": [
        {
          "indexed": false,
          "internalType": "address",
          "name": "by",
          "type": "address"
        },
        {
          "indexed": false,
          "internalType": "address",
          "name": "to",
          "type": "address"
        },
        {
          "indexed": false,
          "internalType": "address",
          "name": "user",
          "type": "address"
        },
        {
          "indexed": false,
          "internalType": "uint256",
          "name": "valueInWei",
          "type": "uint256"
        }
      ],
      "name": "Registration",
      "type": "event"
    },
    {
      "anonymous": false,
      "inputs": [
        {
          "indexed": false,
          "internalType": "address",
          "name": "by",
          "type": "address"
        },
        {
          "indexed": false,
          "internalType": "address",
          "name": "to",
          "type": "address"
        },
        {
          "indexed": false,
          "internalType": "address",
          "name": "user",
          "type": "address"
        }
      ],
      "name": "RegistrationAssigned",
      "type": "event"
    },
    {
      "anonymous": false,
      "inputs": [
        {
          "indexed": false,
          "internalType": "address",
          "name": "user",
          "type": "address"
        }
      ],
      "name": "RemovedFromRandomList",
      "type": "event"
    },
    {
      "anonymous": false,
      "inputs": [
        {
          "indexed": false,
          "internalType": "address",
          "name": "to",
          "type": "address"
        },
        {
          "indexed": false,
          "internalType": "address",
          "name": "user",
          "type": "address"
        },
        {
          "indexed": false,
          "internalType": "uint32",
          "name": "level",
          "type": "uint32"
        }
      ],
      "name": "TeamAddressAdded",
      "type": "event"
    },
    {
      "anonymous": false,
      "inputs": [
        {
          "indexed": false,
          "internalType": "address",
          "name": "to",
          "type": "address"
        },
        {
          "indexed": false,
          "internalType": "uint256",
          "name": "valueInWei",
          "type": "uint256"
        }
      ],
      "name": "TeamWalletRewardPaid",
      "type": "event"
    },
    {
      "anonymous": false,
      "inputs": [
        {
          "indexed": false,
          "internalType": "string",
          "name": "reason",
          "type": "string"
        }
      ],
      "name": "UpgradeRewardNotPaid",
      "type": "event"
    },
    {
      "anonymous": false,
      "inputs": [
        {
          "indexed": false,
          "internalType": "address",
          "name": "to",
          "type": "address"
        },
        {
          "indexed": false,
          "internalType": "address",
          "name": "by",
          "type": "address"
        },
        {
          "indexed": false,
          "internalType": "uint256",
          "name": "valueInWei",
          "type": "uint256"
        }
      ],
      "name": "UpgradeRewardPaid",
      "type": "event"
    },
    {
      "anonymous": false,
      "inputs": [
        {
          "indexed": true,
          "internalType": "address",
          "name": "implementation",
          "type": "address"
        }
      ],
      "name": "Upgraded",
      "type": "event"
    },
    {
      "anonymous": false,
      "inputs": [
        {
          "indexed": false,
          "internalType": "string",
          "name": "reason",
          "type": "string"
        }
      ],
      "name": "WeeklyRewardNotPaid",
      "type": "event"
    },
    {
      "anonymous": false,
      "inputs": [
        {
          "indexed": false,
          "internalType": "address",
          "name": "to",
          "type": "address"
        },
        {
          "indexed": false,
          "internalType": "uint256",
          "name": "valueInWei",
          "type": "uint256"
        }
      ],
      "name": "WeeklyRewardPaid",
      "type": "event"
    },
    {
      "inputs": [],
      "name": "UPGRADE_INTERFACE_VERSION",
      "outputs": [
        {
          "internalType": "string",
          "name": "",
          "type": "string"
        }
      ],
      "stateMutability": "view",
      "type": "function"
    },
    {
      "inputs": [
        {
          "internalType": "address",
          "name": "_chainLinkOracleAddress",
          "type": "address"
        }
      ],
      "name": "checkIfChainLinkOracleAddressSupporeted",
      "outputs": [
        {
          "internalType": "bool",
          "name": "",
          "type": "bool"
        }
      ],
      "stateMutability": "view",
      "type": "function"
    },
    {
      "inputs": [
        {
          "internalType": "address",
          "name": "_chainLinkOracleAddress",
          "type": "address"
        }
      ],
      "name": "distributeWeeklyReward",
      "outputs": [],
      "stateMutability": "nonpayable",
      "type": "function"
    },
    {
      "inputs": [],
      "name": "getAllUsers",
      "outputs": [
        {
          "internalType": "address[]",
          "name": "",
          "type": "address[]"
        }
      ],
      "stateMutability": "view",
      "type": "function"
    },
    {
      "inputs": [],
      "name": "getContractDefaults",
      "outputs": [
        {
          "internalType": "address",
          "name": "teamWallet",
          "type": "address"
        },
        {
          "internalType": "uint256",
          "name": "teamWalletRate",
          "type": "uint256"
        },
        {
          "internalType": "address",
          "name": "liquidityWallet",
          "type": "address"
        },
        {
          "internalType": "uint256",
          "name": "liquidityCreationrate",
          "type": "uint256"
        },
        {
          "internalType": "address",
          "name": "defaultReferrer",
          "type": "address"
        },
        {
          "internalType": "uint256",
          "name": "registrationValueInUSD",
          "type": "uint256"
        }
      ],
      "stateMutability": "view",
      "type": "function"
    },
    {
      "inputs": [
        {
          "internalType": "address",
          "name": "_chainLinkOracleAddress",
          "type": "address"
        }
      ],
      "name": "getNativePriceInUSD",
      "outputs": [
        {
          "internalType": "uint256",
          "name": "",
          "type": "uint256"
        }
      ],
      "stateMutability": "view",
      "type": "function"
    },
    {
      "inputs": [],
      "name": "getRandomUserList",
      "outputs": [
        {
          "internalType": "address[]",
          "name": "",
          "type": "address[]"
        }
      ],
      "stateMutability": "view",
      "type": "function"
    },
    {
      "inputs": [],
      "name": "getRegistrationsStats",
      "outputs": [
        {
          "internalType": "uint32",
          "name": "totalUser",
          "type": "uint32"
        },
        {
          "internalType": "uint256",
          "name": "totalRegistrationValueInUSD",
          "type": "uint256"
        },
        {
          "internalType": "uint256",
          "name": "totalReferralPaidInUSD",
          "type": "uint256"
        },
        {
          "internalType": "uint256",
          "name": "totalWeeklyRewardsPaidInUSD",
          "type": "uint256"
        }
      ],
      "stateMutability": "view",
      "type": "function"
    },
    {
      "inputs": [],
      "name": "getSupportedChainLinkOracleAddress",
      "outputs": [
        {
          "internalType": "address[]",
          "name": "",
          "type": "address[]"
        }
      ],
      "stateMutability": "view",
      "type": "function"
    },
    {
      "inputs": [],
      "name": "getUpgradePlans",
      "outputs": [
        {
          "components": [
            {
              "internalType": "uint8",
              "name": "id",
              "type": "uint8"
            },
            {
              "internalType": "uint256",
              "name": "valueToUpgradeInUSD",
              "type": "uint256"
            }
          ],
          "internalType": "struct UpgradeStruct[]",
          "name": "upgradePlans",
          "type": "tuple[]"
        },
        {
          "internalType": "uint8",
          "name": "upgradePlansCount",
          "type": "uint8"
        }
      ],
      "stateMutability": "view",
      "type": "function"
    },
    {
      "inputs": [
        {
          "internalType": "uint8",
          "name": "_id",
          "type": "uint8"
        }
      ],
      "name": "getUpgradePlansById",
      "outputs": [
        {
          "components": [
            {
              "internalType": "uint8",
              "name": "id",
              "type": "uint8"
            },
            {
              "internalType": "uint256",
              "name": "valueToUpgradeInUSD",
              "type": "uint256"
            }
          ],
          "internalType": "struct UpgradeStruct",
          "name": "",
          "type": "tuple"
        }
      ],
      "stateMutability": "view",
      "type": "function"
    },
    {
      "inputs": [
        {
          "internalType": "address",
          "name": "_userAddress",
          "type": "address"
        }
      ],
      "name": "getUserAccount",
      "outputs": [
        {
          "components": [
            {
              "internalType": "address",
              "name": "self",
              "type": "address"
            },
            {
              "internalType": "address",
              "name": "parent",
              "type": "address"
            },
            {
              "internalType": "address",
              "name": "referrer",
              "type": "address"
            },
            {
              "internalType": "address[]",
              "name": "referee",
              "type": "address[]"
            },
            {
              "components": [
                {
                  "internalType": "address",
                  "name": "referee",
                  "type": "address"
                },
                {
                  "internalType": "address",
                  "name": "assignedTo",
                  "type": "address"
                }
              ],
              "internalType": "struct RefereeStruct[]",
              "name": "refereeAssigned",
              "type": "tuple[]"
            },
            {
              "components": [
                {
                  "internalType": "address",
                  "name": "teamMember",
                  "type": "address"
                },
                {
                  "internalType": "uint8",
                  "name": "level",
                  "type": "uint8"
                }
              ],
              "internalType": "struct TeamStruct[]",
              "name": "team",
              "type": "tuple[]"
            },
            {
              "internalType": "uint256",
              "name": "selfBusinessInUSD",
              "type": "uint256"
            },
            {
              "internalType": "uint256",
              "name": "upgradedValueInUSD",
              "type": "uint256"
            },
            {
              "internalType": "uint8",
              "name": "upgradeId",
              "type": "uint8"
            },
            {
              "internalType": "uint256",
              "name": "directBusinessInUSD",
              "type": "uint256"
            },
            {
              "internalType": "uint256",
              "name": "teamBusinessInUSD",
              "type": "uint256"
            },
            {
              "internalType": "uint256",
              "name": "referralRewardsInUSD",
              "type": "uint256"
            },
            {
              "internalType": "uint256",
              "name": "weeklyRewardsInUSD",
              "type": "uint256"
            },
            {
              "internalType": "uint256",
              "name": "upgradeRewardsInUSD",
              "type": "uint256"
            },
            {
              "internalType": "uint256",
              "name": "userRandomIndex",
              "type": "uint256"
            },
            {
              "internalType": "uint256",
              "name": "timestampJoined",
              "type": "uint256"
            }
          ],
          "internalType": "struct AccountStruct",
          "name": "",
          "type": "tuple"
        }
      ],
      "stateMutability": "view",
      "type": "function"
    },
    {
      "inputs": [
        {
          "internalType": "address",
          "name": "_userAddress",
          "type": "address"
        }
      ],
      "name": "getUserBusiness",
      "outputs": [
        {
          "internalType": "uint256",
          "name": "selfBusinessInUSD",
          "type": "uint256"
        },
        {
          "internalType": "uint256",
          "name": "directBusinessInUSD",
          "type": "uint256"
        },
        {
          "internalType": "uint256",
          "name": "teamBusinessInUSD",
          "type": "uint256"
        },
        {
          "internalType": "uint256",
          "name": "totalBusinessInUSD",
          "type": "uint256"
        }
      ],
      "stateMutability": "view",
      "type": "function"
    },
    {
      "inputs": [
        {
          "internalType": "address",
          "name": "_userAddress",
          "type": "address"
        }
      ],
      "name": "getUserCurrentUpgradeLevel",
      "outputs": [
        {
          "internalType": "uint8",
          "name": "level",
          "type": "uint8"
        },
        {
          "internalType": "uint256",
          "name": "totalUpgradeValueInUSD",
          "type": "uint256"
        }
      ],
      "stateMutability": "view",
      "type": "function"
    },
    {
      "inputs": [
        {
          "internalType": "address",
          "name": "_userAddress",
          "type": "address"
        }
      ],
      "name": "getUserRewards",
      "outputs": [
        {
          "internalType": "uint256",
          "name": "referralRewardInUSD",
          "type": "uint256"
        },
        {
          "internalType": "uint256",
          "name": "weeklyRewardInUSD",
          "type": "uint256"
        },
        {
          "internalType": "uint256",
          "name": "upgradeRewardsInUSD",
          "type": "uint256"
        },
        {
          "internalType": "uint256",
          "name": "totalRewards",
          "type": "uint256"
        }
      ],
      "stateMutability": "view",
      "type": "function"
    },
    {
      "inputs": [
        {
          "internalType": "address",
          "name": "_userAddress",
          "type": "address"
        }
      ],
      "name": "getUserTeam",
      "outputs": [
        {
          "internalType": "address",
          "name": "referrer",
          "type": "address"
        },
        {
          "internalType": "address[]",
          "name": "referees",
          "type": "address[]"
        },
        {
          "internalType": "uint256",
          "name": "refereeCount",
          "type": "uint256"
        },
        {
          "components": [
            {
              "internalType": "address",
              "name": "referee",
              "type": "address"
            },
            {
              "internalType": "address",
              "name": "assignedTo",
              "type": "address"
            }
          ],
          "internalType": "struct RefereeStruct[]",
          "name": "refereeAssigned",
          "type": "tuple[]"
        },
        {
          "internalType": "uint256",
          "name": "refereeAssignedCount",
          "type": "uint256"
        },
        {
          "components": [
            {
              "internalType": "address",
              "name": "teamMember",
              "type": "address"
            },
            {
              "internalType": "uint8",
              "name": "level",
              "type": "uint8"
            }
          ],
          "internalType": "struct TeamStruct[]",
          "name": "team",
          "type": "tuple[]"
        },
        {
          "internalType": "uint256",
          "name": "teamCount",
          "type": "uint256"
        }
      ],
      "stateMutability": "view",
      "type": "function"
    },
    {
      "inputs": [],
      "name": "getWeeklyRewardToBeDistributed",
      "outputs": [
        {
          "internalType": "uint256",
          "name": "_rewardValue",
          "type": "uint256"
        },
        {
          "internalType": "uint256",
          "name": "_remianingTime",
          "type": "uint256"
        },
        {
          "internalType": "uint256",
          "name": "_endTime",
          "type": "uint256"
        }
      ],
      "stateMutability": "view",
      "type": "function"
    },
    {
      "inputs": [],
      "name": "initialize",
      "outputs": [],
      "stateMutability": "nonpayable",
      "type": "function"
    },
    {
      "inputs": [
        {
          "internalType": "address",
          "name": "_chainLinkOracleAddress",
          "type": "address"
        }
      ],
      "name": "needNativeToRegister",
      "outputs": [
        {
          "internalType": "uint256",
          "name": "",
          "type": "uint256"
        }
      ],
      "stateMutability": "view",
      "type": "function"
    },
    {
      "inputs": [],
      "name": "owner",
      "outputs": [
        {
          "internalType": "address",
          "name": "",
          "type": "address"
        }
      ],
      "stateMutability": "view",
      "type": "function"
    },
    {
      "inputs": [],
      "name": "proxiableUUID",
      "outputs": [
        {
          "internalType": "bytes32",
          "name": "",
          "type": "bytes32"
        }
      ],
      "stateMutability": "view",
      "type": "function"
    },
    {
      "inputs": [
        {
          "internalType": "address",
          "name": "_referrer",
          "type": "address"
        },
        {
          "internalType": "address",
          "name": "_chainLinkOracleAddress",
          "type": "address"
        }
      ],
      "name": "registrationNative",
      "outputs": [],
      "stateMutability": "payable",
      "type": "function"
    },
    {
      "inputs": [],
      "name": "renounceOwnership",
      "outputs": [],
      "stateMutability": "nonpayable",
      "type": "function"
    },
    {
      "inputs": [
        {
          "internalType": "address",
          "name": "_chainLinkOracleAddress",
          "type": "address"
        },
        {
          "internalType": "bool",
          "name": "_status",
          "type": "bool"
        }
      ],
      "name": "setChainLinkOracleAddress",
      "outputs": [],
      "stateMutability": "nonpayable",
      "type": "function"
    },
    {
      "inputs": [
        {
          "internalType": "address",
          "name": "defaultReferrer_",
          "type": "address"
        }
      ],
      "name": "setDefaultReferrer",
      "outputs": [],
      "stateMutability": "nonpayable",
      "type": "function"
    },
    {
      "inputs": [
        {
          "internalType": "address",
          "name": "newOwner",
          "type": "address"
        }
      ],
      "name": "transferOwnership",
      "outputs": [],
      "stateMutability": "nonpayable",
      "type": "function"
    },
    {
      "inputs": [
        {
          "internalType": "uint256[]",
          "name": "_valueToUpgradeInDecimals",
          "type": "uint256[]"
        }
      ],
      "name": "updateUpgradePlans",
      "outputs": [],
      "stateMutability": "nonpayable",
      "type": "function"
    },
    {
      "inputs": [
        {
          "internalType": "address",
          "name": "_chainLinkOracleAddress",
          "type": "address"
        }
      ],
      "name": "upgradeAccountNative",
      "outputs": [],
      "stateMutability": "payable",
      "type": "function"
    },
    {
      "inputs": [
        {
          "internalType": "address",
          "name": "newImplementation",
          "type": "address"
        },
        {
          "internalType": "bytes",
          "name": "data",
          "type": "bytes"
        }
      ],
      "name": "upgradeToAndCall",
      "outputs": [],
      "stateMutability": "payable",
      "type": "function"
    },
    {
      "stateMutability": "payable",
      "type": "receive"
    }
  ],
  "bytecode": "0x60a080604052346029573060805261377a908161002f823960805181818161283b015261290e0152f35b600080fdfe608080604052600436101561001d575b50361561001b57600080fd5b005b60003560e01c9081630690c6a814612e5c57508063078b0fb714612c6c57806307c560d114612b9057806308e922ba14612b7457806311f4d57614612b355780631a74634414612ad25780634f1ef2861461289257806352d1902d1461282857806359a04544146126bb5780635eda81ce146124a65780636a74631114612480578063715018a6146124285780637ec37e03146123c55780638129fc1c14611ee4578063846688f714611e835780638da5cb5b14611e4d578063a0db38e514611ad6578063a9df9fae14611a69578063ad3cb1cc146119ed578063c53b219e14610f6f578063d277b8a914610d42578063dcf6e81914610c9d578063e2842d7914610c6d578063e35422e714610b69578063f2fde38b14610b40578063f87127b414610931578063f925017114610733578063faeda7e5146104e75763fb47e01614610169573861000f565b346104e25760203660031901126104e257610182612e97565b60006101e060405161019381612eea565b82815282602082015282604082015260608082015260606080820152606060a08201528260c08201528260e08201528261010082015282610120820152826101408201528261016082015282610180820152826101a0820152826101c0820152015260018060a01b03166000526012602052604060002060405161021681612eea565b81546001600160a01b039081168252600183015481166020830190815260028401549091166040830190815290929091610252600383016130a0565b60608201908152600483018054610268816130f4565b916102766040519384612f21565b818352602083019060005260206000206000915b8383106104a7575050505060808301908152600584019182546102ac816130f4565b936102ba6040519586612f21565b818552602085019060005260206000206000915b838310610471575050505060a08401928352600685015460c0850152600785015460e08501908152600886015460ff166101008601526009860154610120860152600a860154610140860152600b860154610160860152600c860154610180860152600d8601546101a0860152600e8601546101c0860152600f909501546101e085015260408051602080825286516001600160a01b039081168284015299518a16928201929092529651909716606087015251610200608087015280516102208701819052610240870197919091019060005b818110610452575050506101e092916103cc86976103df9351601f198983030160a08a0152612f5f565b9051868203601f190160c0880152612fab565b9260c082015160e08601525161010085015260ff610100820151166101208501526101208101516101408501526101408101516101608501526101608101516101808501526101808101516101a08501526101a08101516101c08501526101c08101518285015201516102008301520390f35b82516001600160a01b03168952602098890198909201916001016103a2565b60016020819260405161048381612f06565b60ff8654858060a01b038116835260a01c16838201528152019201920191906102ce565b600260206001926040516104ba81612f06565b848060a01b038654168152848060a01b0385870154168382015281520192019201919061028a565b600080fd5b346104e25760203660031901126104e2576001600160a01b03610508612e97565b16600052601260205260406000206040519061052382612eea565b80546001600160a01b0390811683526001820154811660208401526002820154166040830190815290610558600382016130a0565b916060840192835260048201938454610570816130f4565b9561057e6040519788612f21565b818752602087019060005260206000206000915b8383106106f8575050505060808101948552600583019283546105b4816130f4565b946105c26040519687612f21565b818652602086019060005260206000206000915b8383106106c25750505050906101e0600f6106b894938660a0850152600681015460c0850152600781015460e085015260ff6008820154166101008501526009810154610120850152600a810154610140850152600b810154610160850152600c810154610180850152600d8101546101a0850152600e8101546101c0850152015491015260018060a01b0390511692519384519051926106a5845192825195610692604051998a998a5260e060208b015260e08a0190612ead565b9160408901528782036060890152612f5f565b91608086015284820360a0860152612fab565b9060c08301520390f35b6001602081926040516106d481612f06565b60ff8654858060a01b038116835260a01c16838201528152019201920191906105d6565b6002602060019260405161070b81612f06565b848060a01b038654168152848060a01b03858701541683820152815201920192019190610592565b346104e25760203660031901126104e25761074c612e97565b6001600160a01b0316600090815260126020526040808220905190919061077281612eea565b82546001600160a01b03908116825260018401548116602083015260028401541660408201526107a4600384016130a0565b60608201526004830180546107b8816130f4565b916107c66040519384612f21565b818352602083019060005260206000206000915b8383106108f657505050506080820152600583019283546107fa816130f4565b906108086040519283612f21565b80825260208201956000526020600020956000905b8282106108c0575050506040945060a0830152600681015460c08301526007810154918260e08201526101e0600f60ff60088501541693846101008501526009810154610120850152600a810154610140850152600b810154610160850152600c810154610180850152600d8101546101a0850152600e8101546101c08501520154910152806108b8575b5060ff8351921682526020820152f35b9150836108a8565b6001602081926040516108d281612f06565b60ff8c54858060a01b038116835260a01c168382015281520198019101909661081d565b6002602060019260405161090981612f06565b848060a01b038654168152848060a01b038587015416838201528152019201920191906107da565b346104e25760203660031901126104e2576001600160a01b03610952612e97565b16600052601260205260406000206040519061096d82612eea565b80546001600160a01b039081168352600182015481166020840152600282015416604083015261099f600382016130a0565b60608301526004810180546109b3816130f4565b916109c16040519384612f21565b818352602083019060005260206000206000915b838310610b05575050505060808301526005810180546109f4816130f4565b91610a026040519384612f21565b818352602083019060005260206000206000915b838310610acf575050505060a0830152610acb6006820154918260c0850152600781015460e085015260ff600882015416610100850152600981015493846101208201526101e0600f600a8401549384610140850152600b810154610160850152600c810154610180850152600d8101546101a0850152600e8101546101c08501520154910152610aa7838261310b565b90604051948594859094939260609260808301968352602083015260408201520152565b0390f35b600160208192604051610ae181612f06565b60ff8654858060a01b038116835260a01c1683820152815201920192019190610a16565b60026020600192604051610b1881612f06565b848060a01b038654168152848060a01b038587015416838201528152019201920191906109d5565b346104e25760203660031901126104e25761001b610b5c612e97565b610b64613425565b6132ba565b346104e25760203660031901126104e2576004356001600160401b0381116104e257366023820112156104e25760048101356001600160401b0381116104e2573660248260051b840101116104e25790610bc1613425565b6000915b60ff8316928184101561001b57610bdb81613229565b6000946024611fe08460051b168601013590670de0b6b3a7640000820291808304670de0b6b3a76400001490151715610c59579060ff806040610c5297989960019583835198610c2a8a612f06565b1688526020880195865281526013602052209451161660ff1984541617835551910155613218565b9190610bc5565b634e487b7160e01b87526011600452602487fd5b346104e25760003660031901126104e257610acb610c8961304d565b604051918291602083526020830190612ead565b346104e25760203660031901126104e2576000805160206136ee8339815191526020610cc7612e97565b610ccf613425565b6001600160a01b0381166000818152601284526040902080546001600160a01b0319168217815569152d02c7e14af6800000600682015542600f8201556001600e9091015590610d2790610d22816131d0565b6131ab565b600e80546001600160a01b03191682179055604051908152a1005b346104e25760203660031901126104e257610d5b612e97565b6001600160a01b038116600090815260146020526040902054610d859060ff16151560011461323b565b670de0b6b3a7640000610da3610d9d6009549361331e565b83613118565b04600b5462093a80810110610f19578115610f2f57610dc061304d565b6000194301438111610f1957610e1590604051610df681610de8602082019440444287613280565b03601f198101835282612f21565b51902082516001600160a01b039391610e0f9190613295565b90613164565b5116918215610ea2576000808080938682526012602052600c6040832001610e3e87825461310b565b90558682f115610e96577f6dbdd944bdf6514aca26947d204530e2ecbea365677ef05fee7a56d54a14569791600060095542600b55610e7f8260055461310b565b600555610e916040519283928361329f565b0390a1005b6040513d6000823e3d90fd5b5050507f974c744afa915921dddb0f53fdbfdd97fef12a94db2457dcf878aa94ad687274608060405160208152603160208201527f52616e646f6d206164647265737320776173207a65726f20616464726573732e60408201527010283632b0b9b2903a393c9030b3b0b4b760791b6060820152a1005b634e487b7160e01b600052601160045260246000fd5b60405162461bcd60e51b81526020600482015260186024820152774e6f207265776172647320746f206469737472696275746560401b6044820152606490fd5b60403660031901126104e257610f83612e97565b6024356001600160a01b038116908181036104e2576001600160a01b03831691821561199c576000526014602052600160ff6040600020541615150361194b57610fde610fd8670de0b6b3a76400009261331e565b34613118565b0490600f54606181029080820460611490151715610f19576064900482106118f757600c549060ff8083169260081c16913360005260126020526040600020928260005260126020526040600020600685019687546118b85760068201541561187d5785546001600160a01b03161561185d575b81546001600160a01b03161561183c575b5050600d54600285018054909491906001600160a01b03166117dc5733600052601260205260406000209133811461179a57604090600090815260126020522090600382016110b38282546134ce565b156117615750600e820154600090611759575b61174b575b6000194301438111610f1957611102611107916040516110f681610de8602082019440444287613280565b51902060015490613295565b613178565b90546001600160a01b0360039290921b1c81166000908152601260205260409020805490929116801561170b578461113e916134f5565b825482546040516001600160a01b0391821693927fa1b30426557565c4fa85ce5f9c88513d7d3f49d21eb30569c249b07b037831ef928291611185913391889116846134ab565b0390a16040516004850161119882612f06565b33825260208201938452805493600160401b85101561165d57600185018083558510156116f557600091825260209091209151600194851b90920180546001600160a01b039384166001600160a01b03199182161782559151940180549490921693169290921790915561121a906003830161121433826131f5565b546134ce565b6116e6575b505b6001820180546001600160a01b03161561167e575b50506000905b8260ff831610611524575b5050505b600e830180546114df578354611269906001600160a01b03166131d0565b60015490557f0411c58b3c1e8a39d91c901e5c807bff1401650beedc45aba65112756bb929b4608060018060a01b038554167f06baf10092c7ea144c4fb56fb8cf641e1f00e291a535b5d54b547eadb29485a76020604051838152a160018601549454604080516001600160a01b0397881680825297909216602083015281019190915260608101879052a1606461130d816113058434613118565b049286613118565b0491600052601260205260406000209060018060a01b0382541680611440575b505050506006546000808080606461134b60ff8760a01c1634613118565b04809582908215611436575b6001600160a01b031690f115610e96576006546040517f5aa75bdb3269082e844d731608afae2a07cbf194f251e3f857b870af86b754fb92909182916113a6916001600160a01b03168361329f565b0390a160646113ba60ff6008541634613118565b049260008080808760018060a01b036010541682821561142d575bf115610e96576113ea6114289460075461310b565b6007556113f883825461310b565b9055600f4291015561141d606461141460ff600a541634613118565b0460095461310b565b60095560025461310b565b600255005b506108fc6113d5565b6108fc9150611357565b600080808481948282156114d6575bf115610e96576009927f153f77382d7e07de734977ae352e9b1f5f8ad4b1c0033c883a9a33456a87836f60806114bc9360018060a01b0386541690604051918252336020830152604082015260016060820152a1600b83016114b282825461310b565b905560035461310b565b600355016114cb83825461310b565b90558380808061132d565b506108fc61144f565b60405162461bcd60e51b815260206004820152601e60248201527f5573657220697320616c726561647920696e2072616e646f6d206c69737400006044820152606490fd5b60028101546001600160a01b031690811561167857546001600160a01b031681146116735760005260126020526040600020600581019061156483613229565b6040519261157184612f06565b33845260ff60208501921682528054600160401b81101561165d5761159b91600182018155613193565b919091611647579251815493516001600160a81b03199094166001600160a01b03919091161760a09390931b60ff60a01b1692909217909155600a810180546116419291906115eb908a9061310b565b905580547f85db3f10b88ea7fc653f3f818097a3fc3c543196ed60cad2251df922bcc9ad7f906060906001600160a01b031660ff61162887613229565b604051928352336020840152166040820152a191613218565b9061123c565b634e487b7160e01b600052600060045260246000fd5b634e487b7160e01b600052604160045260246000fd5b611247565b50611247565b905481546001600160a01b0319166001600160a01b0391821690811790925560028301546040517f8efa008f8ae98ae30d3219078a298c85bc25a62f50c57ed9a3ec838b7eed9f4793909283926116dc9233929190911690846134ab565b0390a18780611236565b6116ef9061354b565b8861121f565b634e487b7160e01b600052603260045260246000fd5b60405162461bcd60e51b8152602060048201526018602482015277139bc81c985b991bdb481c9959995c9c995c88199bdd5b9960421b6044820152606490fd5b6117548261354b565b6110cb565b5060016110c6565b825461178792919061177d9086906001600160a01b03166134f5565b61121433826131f5565b15611221576117958161354b565b611221565b60405162461bcd60e51b815260206004820152601a6024820152792cb7ba9031b0b73737ba103932b332b9103cb7bab939b2b6331760311b6044820152606490fd5b5050507f1f4fff38c5e64af9e759d590409f022ea913658008bb1d0cd35e028244f01ecf606060405160208152601f60208201527f5573657220416c72656164792068617665207265666572726572207365742e006040820152a161124b565b81546001600160a01b0319168517909155611856906131ab565b8680611063565b85546001600160a01b031916339081178755611878906131ab565b611052565b60405162461bcd60e51b81526020600482015260136024820152725265666572726572204e6f742041637469766560681b6044820152606490fd5b60405162461bcd60e51b8152602060048201526017602482015276155cd95c88185b1c9958591e481c9959da5cdd195c9959604a1b6044820152606490fd5b60405162461bcd60e51b815260206004820152602660248201527f56616c7565206973206c657373207468656e20726567697374726174696f6e206044820152653b30b63ab29760d11b6064820152608490fd5b60405162461bcd60e51b815260206004820152602360248201527f43757272656e637920596f752073656c6563746564206e6f7420737570706f726044820152621d195960ea1b6064820152608490fd5b60405162461bcd60e51b815260206004820152602360248201527f5a65726f20416464726573732063616e6e6f74206265207468652072656665726044820152623932b960e91b6064820152608490fd5b346104e25760003660031901126104e2576040805190611a0d8183612f21565b60058252640352e302e360dc1b6020830152805180926020825280519081602084015260005b828110611a525750506000828201840152601f01601f19168101030190f35b602082820181015187830187015286945001611a33565b346104e25760203660031901126104e25760043560ff81168091036104e257611a9061314b565b5060005260136020526040806000206001825191611aad83612f06565b60ff815416835201546020820152611ad4825180926020809160ff81511684520151910152565bf35b60203660031901126104e257670de0b6b3a7640000611b28610fd8611af9612e97565b6001600160a01b038116600090815260146020526040902054611b239060ff16151560011461323b565b61331e565b0433600052601260205260406000206008810160ff8154166000526013602052604060002090600160405192611b5d84612f06565b60ff81541684520154602083019080825215611e08578051605f810290808204605f1490151715610f1957606490048511908115611de8575b5015611d945760ff80809360078601611bb088825461310b565b9055511616821982541617815554169160009260001981019260ff8085119416905b82861115611bdc57005b600201546001600160a01b0316600090815260126020526040902084610f1957818614611c1657946000198114610f195760010194611bd2565b80955060ff929394506008915001541690808211918215611d8a575b505080611d77575b15611ca757611c4e600d830191825461310b565b9055600080808060018060a01b0385541681903415611c9d575b3491f115610e96575460405160008051602061372e833981519152918190610e9190349033906001600160a01b03168461345b565b6108fc9150611c68565b50507f6696b78fc1713892e6e2bb3df5cdc986ab67a0c675898c7ef535bd2201ca9451608060405160208152603f60208201527f55706c696e6520686173206e6f742075706772616465642e20416d6f756e742060408201527f7472616e73666572656420746f206c69717569646974792077616c6c65742e006060820152a16010546001600160a01b031660003415611d6e575b600080808093853491f115610e9657610e9160008051602061372e83398151915291604051918291349033908461345b565b506108fc611d3c565b5081546001600160a01b03161515611c3a565b1490508380611c32565b60405162461bcd60e51b815260206004820152602660248201527f56616c75652073686f756c6420626520657175616c20746f20757067726164656044820152652076616c756560d01b6064820152608490fd5b51606980820292508115918304141715610f195760649004841085611b96565b60405162461bcd60e51b815260206004820152601d60248201527f596f75206861766520757067726164656420616c6c206c6576656c732e0000006044820152606490fd5b346104e25760003660031901126104e2576000805160206136ae833981519152546040516001600160a01b039091168152602090f35b346104e25760003660031901126104e2576000600954600b549162093a80830192838111610f1957428411611eca575b509160609260405192835260208301526040820152f35b62093a8091504290030191808311610f1957916060611eb3565b346104e25760003660031901126104e25760008051602061374e83398151915254604081901c60ff1615906001600160401b038116801590816123bd575b60011490816123b3575b1590816123aa575b50612399576001600160401b0319811660011760008051602061374e8339815191525581612370575b5073cef5767039fa6a66016b802546f123e0c3ddedc2600081905260126020527f7b58f54f0bc0fcd57e50c233f450fe384adf8c88021dbbeef24b87de22945c1480546001600160a01b0319168217905569152d02c7e14af68000007f7b58f54f0bc0fcd57e50c233f450fe384adf8c88021dbbeef24b87de22945c1a55427f7b58f54f0bc0fcd57e50c233f450fe384adf8c88021dbbeef24b87de22945c235560017f7b58f54f0bc0fcd57e50c233f450fe384adf8c88021dbbeef24b87de22945c225561202b906131d0565b61204873cef5767039fa6a66016b802546f123e0c3ddedc26131ab565b73cef5767039fa6a66016b802546f123e0c3ddedc260018060a01b0319600e541617600e556000805160206136ee833981519152602060405173cef5767039fa6a66016b802546f123e0c3ddedc28152a1601154600160401b81101561165d578060016120ba92016011556011613193565b81546001600160a01b0360039290921b91821b1916730567f2323251f0aab15c8dfb1967e4e8a7d42aee90911b179055601154600160401b81101561165d5780600161210b92016011556011613193565b81546001600160a01b0360039290921b91821b1916739c85f470f9ba23dfc4fe9531933c2ce2c1739c399182901b1790915560146020527f18b399276171edd4288c75706c059c76f8ba27a208f6ab7dc13ddac4a813eb06805460ff1990811660019081179092556000929092527f785e316b530d6f09805cf52ec6944c1fd91d7cf1ffa292231399b4110cc5ca9d80548316909117905568015af1d78b58c40000600f55600c805461ffff191661083c1790556002600d55600680546001600160a81b0319167414554f58fcfcef95f82c8cf6ed9e51e5c79e341481179055601080546001600160a01b031916733d7263afa42c9d47c13cfcdcdc72a131077e56181781556008805483169091179055600a8054909116600417905542600b5560405160e081016001600160401b0381118282101761165d576040526801158e460913d0000081526801a055690d9db8000060208201526802b5e3af16b188000060408201526809c2007651b250000060608201526815af1d78b58c400000608082015268281d901f4fdd10000060a0820152684fb0591b9b3038000060c082015260005b60ff81169060078210156122f4576122ef9160016122ce83613229565b9160ff8060406000611fe08860051b168a01519483835198610c2a8a612f06565b6122b1565b836122fd61347d565b61230561347d565b61230e336132ba565b61231661347d565b61231c57005b60ff60401b1960008051602061374e833981519152541660008051602061374e833981519152557fc7f505b2f371ae2175ee4913f4499e1f2633a7b5936321eed1cdaeb6115181d2602060405160018152a1005b6001600160481b0319166001600160401b011760008051602061374e8339815191525581611f5d565b63f92ee8a960e01b60005260046000fd5b90501583611f34565b303b159150611f2c565b839150611f22565b346104e25760003660031901126104e2576040516001548082526020820190600160005260206000209060005b81811061240957610acb85610c8981870382612f21565b82546001600160a01b03168452602090930192600192830192016123f2565b346104e25760003660031901126104e257612441613425565b6000805160206136ae83398151915280546001600160a01b031981169091556000906001600160a01b031660008051602061370e8339815191528280a3005b346104e25760203660031901126104e257602061249e611b23612e97565b604051908152f35b346104e25760403660031901126104e2576124bf612e97565b6024358015158091036104e2576124d4613425565b6001600160a01b03821660008181526014602052604090205490919060ff161515811461268157600190826000526014602052604060002060ff1981541660ff83161790551460001461256b575060115490600160401b82101561165d5761254782600161001b94016011556011613193565b9080546001600160a01b0360039390931b83811b199091169290931690921b179055565b9050612575612ff7565b805160005b81811061258357005b836001600160a01b036125968386613164565b5116146125a6575b60010161257a565b6000198201828111610f19576001600160a01b03906125c59085613164565b5116600060115483101561266d576011908190527f31ecc21a745e3968a04e9570e4425bc18fa8019c68028196b546d1669c200c68830180546001600160a01b0319166001600160a01b039093169290921790915554600081156126595750600191906000190161264f61263a826011613193565b81549060018060a01b039060031b1b19169055565b601155905061259e565b634e487b7160e01b81526031600452602490fd5b634e487b7160e01b81526032600452602490fd5b60405162461bcd60e51b815260206004820152601260248201527114dd185d1d5cc8185b1c9958591e481cd95d60721b6044820152606490fd5b346104e25760003660031901126104e25760ff6000805b82821660328110156128205760005260136020528260406000205416156127085760016126ff8492613218565b920116906126d2565b90505b16612715816130f4565b906127236040519283612f21565b808252601f19612732826130f4565b0160005b8181106127fb57505060005b60ff8116828110156127995760ff916127918260019360005260136020526040600020846040519161277383612f06565b8781541683520154602082015261278a8289613164565b5286613164565b500116612742565b828460405190604082019260408352815180945260206060840192016000945b8086106127ce57505082935060208301520390f35b909260206040826127ef60019488516020809160ff81511684520151910152565b019401950194906127b9565b60209060405161280a81612f06565b6000815260008382015282828701015201612736565b50905061270b565b346104e25760003660031901126104e2577f00000000000000000000000000000000000000000000000000000000000000006001600160a01b031630036128815760206040516000805160206136ce8339815191528152f35b63703e46dd60e11b60005260046000fd5b60403660031901126104e2576128a6612e97565b602435906001600160401b0382116104e257366023830112156104e2578160040135906128d282612f44565b916128e06040519384612f21565b808352602083019336602483830101116104e257816000926024602093018737840101526001600160a01b037f000000000000000000000000000000000000000000000000000000000000000016308114908115612aaf575b5061288157612946613425565b6040516352d1902d60e01b81526001600160a01b0382169390602081600481885afa60009181612a7b575b5061298b5784634c9c8ce360e01b60005260045260246000fd5b806000805160206136ce833981519152869203612a675750823b15612a53576000805160206136ce83398151915280546001600160a01b031916821790557fbc7cd75a20ee27fd9adebab32041f755214dbc6bffa90cc0225b39da2e5c2d3b600080a2825115612a38576000809161001b945190845af43d15612a30573d91612a1383612f44565b92612a216040519485612f21565b83523d6000602085013e61364c565b60609161364c565b50505034612a4257005b63b398979f60e01b60005260046000fd5b634c9c8ce360e01b60005260045260246000fd5b632a87526960e21b60005260045260246000fd5b9091506020813d602011612aa7575b81612a9760209383612f21565b810103126104e257519086612971565b3d9150612a8a565b6000805160206136ce833981519152546001600160a01b03161415905084612939565b346104e25760003660031901126104e257600654601054600854600e54600f54604080516001600160a01b03808816825260a097881c60ff908116602084015296811692820192909252939094166060840152921660808201529182015260c090f35b346104e25760203660031901126104e2576001600160a01b03612b56612e97565b166000526014602052602060ff604060002054166040519015158152f35b346104e25760003660031901126104e257610acb610c89612ff7565b346104e25760203660031901126104e257612ba9612e97565b60018060a01b0381166000526014602052600160ff60406000205416151503612c0657600f5490670de0b6b3a7640000820291808304670de0b6b3a76400001490151715610f1957602091612c0061249e9261331e565b9061312b565b60405162461bcd60e51b815260206004820152603860248201527f506c6561736520636865636b2074686520636861696e4c696e6b4f7261636c656044820152771059191c995cdcc81bdc881b9bdd081cdd5c1c1bdc9d195960421b6064820152608490fd5b346104e25760203660031901126104e2576001600160a01b03612c8d612e97565b166000526012602052604060002060405190612ca882612eea565b80546001600160a01b0390811683526001820154811660208401526002820154166040830152612cda600382016130a0565b6060830152600481018054612cee816130f4565b91612cfc6040519384612f21565b818352602083019060005260206000206000915b838310612e2157505050506080830152600581018054612d2f816130f4565b91612d3d6040519384612f21565b818352602083019060005260206000206000915b838310612deb575050505060a0830152600681015460c0830152600781015460e083015260ff6008820154166101008301526009810154610120830152600a810154610140830152610acb600b8201549182610160850152600c81015493846101808201526101e0600f600d84015493846101a0850152600e8101546101c08501520154910152610aa781612de6868661310b565b61310b565b600160208192604051612dfd81612f06565b60ff8654858060a01b038116835260a01c1683820152815201920192019190612d51565b60026020600192604051612e3481612f06565b848060a01b038654168152848060a01b03858701541683820152815201920192019190612d10565b346104e25760003660031901126104e25760809063ffffffff6000541660025460035490600554928452602084015260408301526060820152f35b600435906001600160a01b03821682036104e257565b906020808351928381520192019060005b818110612ecb5750505090565b82516001600160a01b0316845260209384019390920191600101612ebe565b61020081019081106001600160401b0382111761165d57604052565b604081019081106001600160401b0382111761165d57604052565b601f909101601f19168101906001600160401b0382119082101761165d57604052565b6001600160401b03811161165d57601f01601f191660200190565b906020808351928381520192019060005b818110612f7d5750505090565b825180516001600160a01b039081168652602091820151168186015260409094019390920191600101612f70565b906020808351928381520192019060005b818110612fc95750505090565b825180516001600160a01b0316855260209081015160ff168186015260409094019390920191600101612fbc565b604051906011548083528260208101601160005260206000209260005b81811061302b57505061302992500383612f21565b565b84546001600160a01b0316835260019485019487945060209093019201613014565b6040519060005480835282602081016000805260206000209260005b81811061307e57505061302992500383612f21565b84546001600160a01b0316835260019485019487945060209093019201613069565b906040519182815491828252602082019060005260206000209260005b8181106130d257505061302992500383612f21565b84546001600160a01b03168352600194850194879450602090930192016130bd565b6001600160401b03811161165d5760051b60200190565b91908201809211610f1957565b81810292918115918404141715610f1957565b8115613135570490565b634e487b7160e01b600052601260045260246000fd5b6040519061315882612f06565b60006020838281520152565b80518210156116f55760209160051b010190565b6001548110156116f557600160005260206000200190600090565b80548210156116f55760005260206000200190600090565b60005490600160401b82101561165d5761254782600161302994016000556000613193565b60015490600160401b82101561165d5761254782600161302994016001556001613193565b80549190600160401b83101561165d578261254791600161302995018155613193565b60ff1660ff8114610f195760010190565b60ff60019116019060ff8211610f1957565b1561324257565b60405162461bcd60e51b815260206004820152601660248201527510dd5c9c995b98de481b9bdd081cdd5c1c1bdc9d195960521b6044820152606490fd5b91606093918352602083015260408201520190565b8115613135570690565b6001600160a01b039091168152602081019190915260400190565b6001600160a01b03168015613308576000805160206136ae83398151915280546001600160a01b0319811683179091556001600160a01b031660008051602061370e833981519152600080a3565b631e4fbdf760e01b600052600060045260246000fd5b6040516350d25bcd60e01b8152906001600160a01b0316602082600481845afa918215610e96576000926133f0575b5060206004916040519283809263313ce56760e01b82525afa908115610e96576000916133ac575b5060ff1690670de0b6b3a764000090818102918183041490151715610f1957604d8211610f19576133a991600a0a9061312b565b90565b6020813d6020116133e8575b816133c560209383612f21565b810103126133e457519060ff821682036133e1575060ff613375565b80fd5b5080fd5b3d91506133b8565b90916020823d60201161341d575b8161340b60209383612f21565b810103126133e157505190602061334d565b3d91506133fe565b6000805160206136ae833981519152546001600160a01b0316330361344657565b63118cdaa760e01b6000523360045260246000fd5b6001600160a01b03918216815291166020820152604081019190915260600190565b60ff60008051602061374e8339815191525460401c161561349a57565b631afcd79f60e31b60005260046000fd5b6001600160a01b0391821681529181166020830152909116604082015260600190565b600092918082149182156134eb575b50506134e557565b60019150565b11905038806134dd565b6002820180546001600160a01b0319166001600160a01b03928316908117909155915460408051938452911660208301527fec49a3c8c4ae06c18160fe86119c381c9d213ac3e052ff35b594da8687b193c791a1565b600e81018054801561360a576001546000198101908111610f195761356f90613178565b905460001983019260039290921b1c6001600160a01b0316908211610f195761254761359a92613178565b6001549182156135f45760006020927f644b85583ba83e73113ffc0c122b165819ca11db493cd4cc38f5ba29138ffa1b948219016135dc61263a826001613193565b60015555546040516001600160a01b039091168152a1565b634e487b7160e01b600052603160045260246000fd5b60405162461bcd60e51b815260206004820152601a602482015279155cd95c881a5cc81b9bdd081a5b881c985b991bdb481b1a5cdd60321b6044820152606490fd5b90613672575080511561366157805190602001fd5b63d6bda27560e01b60005260046000fd5b815115806136a4575b613683575090565b639996b31560e01b60009081526001600160a01b0391909116600452602490fd5b50803b1561367b56fe9016d09d72d40fdae2fd8ceac6b6234c7706214fd39c1cd1e609a0528c199300360894a13ba1a3210667c828492db98dca3e2076cc3735a920a3ca505d382bbce85b607d57b04668b1d2caf42949038ece8789f7907395f968f702964c717ba88be0079c531659141344cd1fd0a4f28419497f9722a3daafe3b4186f6b6457e0b37800f632235e56e1626c9e9df3de1e167e9298f0d25f59fd74ec65e3111652f0c57e16840df040f15088dc2f81fe391c3923bec73e23a9662efc9c229c6a00a164736f6c634300081a000a",
  "linkReferences": {},
  "deployedLinkReferences": {}
}